{
	"contracts/StudyToken.sol": {
		"StudyToken": {
			"abi": [
				{
					"inputs": [
						{
							"internalType": "uint256",
							"name": "initialSupply",
							"type": "uint256"
						}
					],
					"stateMutability": "nonpayable",
					"type": "constructor"
				},
				{
					"inputs": [
						{
							"internalType": "address",
							"name": "spender",
							"type": "address"
						},
						{
							"internalType": "uint256",
							"name": "allowance",
							"type": "uint256"
						},
						{
							"internalType": "uint256",
							"name": "needed",
							"type": "uint256"
						}
					],
					"name": "ERC20InsufficientAllowance",
					"type": "error"
				},
				{
					"inputs": [
						{
							"internalType": "address",
							"name": "sender",
							"type": "address"
						},
						{
							"internalType": "uint256",
							"name": "balance",
							"type": "uint256"
						},
						{
							"internalType": "uint256",
							"name": "needed",
							"type": "uint256"
						}
					],
					"name": "ERC20InsufficientBalance",
					"type": "error"
				},
				{
					"inputs": [
						{
							"internalType": "address",
							"name": "approver",
							"type": "address"
						}
					],
					"name": "ERC20InvalidApprover",
					"type": "error"
				},
				{
					"inputs": [
						{
							"internalType": "address",
							"name": "receiver",
							"type": "address"
						}
					],
					"name": "ERC20InvalidReceiver",
					"type": "error"
				},
				{
					"inputs": [
						{
							"internalType": "address",
							"name": "sender",
							"type": "address"
						}
					],
					"name": "ERC20InvalidSender",
					"type": "error"
				},
				{
					"inputs": [
						{
							"internalType": "address",
							"name": "spender",
							"type": "address"
						}
					],
					"name": "ERC20InvalidSpender",
					"type": "error"
				},
				{
					"inputs": [
						{
							"internalType": "address",
							"name": "owner",
							"type": "address"
						}
					],
					"name": "OwnableInvalidOwner",
					"type": "error"
				},
				{
					"inputs": [
						{
							"internalType": "address",
							"name": "account",
							"type": "address"
						}
					],
					"name": "OwnableUnauthorizedAccount",
					"type": "error"
				},
				{
					"anonymous": false,
					"inputs": [
						{
							"indexed": true,
							"internalType": "address",
							"name": "owner",
							"type": "address"
						},
						{
							"indexed": true,
							"internalType": "address",
							"name": "spender",
							"type": "address"
						},
						{
							"indexed": false,
							"internalType": "uint256",
							"name": "value",
							"type": "uint256"
						}
					],
					"name": "Approval",
					"type": "event"
				},
				{
					"anonymous": false,
					"inputs": [
						{
							"indexed": true,
							"internalType": "address",
							"name": "minter",
							"type": "address"
						}
					],
					"name": "MinterAdded",
					"type": "event"
				},
				{
					"anonymous": false,
					"inputs": [
						{
							"indexed": true,
							"internalType": "address",
							"name": "minter",
							"type": "address"
						}
					],
					"name": "MinterRemoved",
					"type": "event"
				},
				{
					"anonymous": false,
					"inputs": [
						{
							"indexed": true,
							"internalType": "address",
							"name": "previousOwner",
							"type": "address"
						},
						{
							"indexed": true,
							"internalType": "address",
							"name": "newOwner",
							"type": "address"
						}
					],
					"name": "OwnershipTransferred",
					"type": "event"
				},
				{
					"anonymous": false,
					"inputs": [
						{
							"indexed": true,
							"internalType": "address",
							"name": "from",
							"type": "address"
						},
						{
							"indexed": true,
							"internalType": "address",
							"name": "to",
							"type": "address"
						},
						{
							"indexed": false,
							"internalType": "uint256",
							"name": "value",
							"type": "uint256"
						}
					],
					"name": "Transfer",
					"type": "event"
				},
				{
					"inputs": [
						{
							"internalType": "address",
							"name": "minter",
							"type": "address"
						}
					],
					"name": "addMinter",
					"outputs": [],
					"stateMutability": "nonpayable",
					"type": "function"
				},
				{
					"inputs": [
						{
							"internalType": "address",
							"name": "owner",
							"type": "address"
						},
						{
							"internalType": "address",
							"name": "spender",
							"type": "address"
						}
					],
					"name": "allowance",
					"outputs": [
						{
							"internalType": "uint256",
							"name": "",
							"type": "uint256"
						}
					],
					"stateMutability": "view",
					"type": "function"
				},
				{
					"inputs": [
						{
							"internalType": "address",
							"name": "spender",
							"type": "address"
						},
						{
							"internalType": "uint256",
							"name": "value",
							"type": "uint256"
						}
					],
					"name": "approve",
					"outputs": [
						{
							"internalType": "bool",
							"name": "",
							"type": "bool"
						}
					],
					"stateMutability": "nonpayable",
					"type": "function"
				},
				{
					"inputs": [
						{
							"internalType": "address",
							"name": "account",
							"type": "address"
						}
					],
					"name": "balanceOf",
					"outputs": [
						{
							"internalType": "uint256",
							"name": "",
							"type": "uint256"
						}
					],
					"stateMutability": "view",
					"type": "function"
				},
				{
					"inputs": [],
					"name": "decimals",
					"outputs": [
						{
							"internalType": "uint8",
							"name": "",
							"type": "uint8"
						}
					],
					"stateMutability": "view",
					"type": "function"
				},
				{
					"inputs": [
						{
							"internalType": "address",
							"name": "to",
							"type": "address"
						},
						{
							"internalType": "uint256",
							"name": "amount",
							"type": "uint256"
						}
					],
					"name": "mintReward",
					"outputs": [],
					"stateMutability": "nonpayable",
					"type": "function"
				},
				{
					"inputs": [
						{
							"internalType": "address",
							"name": "",
							"type": "address"
						}
					],
					"name": "minters",
					"outputs": [
						{
							"internalType": "bool",
							"name": "",
							"type": "bool"
						}
					],
					"stateMutability": "view",
					"type": "function"
				},
				{
					"inputs": [],
					"name": "name",
					"outputs": [
						{
							"internalType": "string",
							"name": "",
							"type": "string"
						}
					],
					"stateMutability": "view",
					"type": "function"
				},
				{
					"inputs": [],
					"name": "owner",
					"outputs": [
						{
							"internalType": "address",
							"name": "",
							"type": "address"
						}
					],
					"stateMutability": "view",
					"type": "function"
				},
				{
					"inputs": [
						{
							"internalType": "address",
							"name": "minter",
							"type": "address"
						}
					],
					"name": "removeMinter",
					"outputs": [],
					"stateMutability": "nonpayable",
					"type": "function"
				},
				{
					"inputs": [],
					"name": "renounceOwnership",
					"outputs": [],
					"stateMutability": "nonpayable",
					"type": "function"
				},
				{
					"inputs": [],
					"name": "symbol",
					"outputs": [
						{
							"internalType": "string",
							"name": "",
							"type": "string"
						}
					],
					"stateMutability": "view",
					"type": "function"
				},
				{
					"inputs": [],
					"name": "totalSupply",
					"outputs": [
						{
							"internalType": "uint256",
							"name": "",
							"type": "uint256"
						}
					],
					"stateMutability": "view",
					"type": "function"
				},
				{
					"inputs": [
						{
							"internalType": "address",
							"name": "to",
							"type": "address"
						},
						{
							"internalType": "uint256",
							"name": "value",
							"type": "uint256"
						}
					],
					"name": "transfer",
					"outputs": [
						{
							"internalType": "bool",
							"name": "",
							"type": "bool"
						}
					],
					"stateMutability": "nonpayable",
					"type": "function"
				},
				{
					"inputs": [
						{
							"internalType": "address",
							"name": "from",
							"type": "address"
						},
						{
							"internalType": "address",
							"name": "to",
							"type": "address"
						},
						{
							"internalType": "uint256",
							"name": "value",
							"type": "uint256"
						}
					],
					"name": "transferFrom",
					"outputs": [
						{
							"internalType": "bool",
							"name": "",
							"type": "bool"
						}
					],
					"stateMutability": "nonpayable",
					"type": "function"
				},
				{
					"inputs": [
						{
							"internalType": "address",
							"name": "newOwner",
							"type": "address"
						}
					],
					"name": "transferOwnership",
					"outputs": [],
					"stateMutability": "nonpayable",
					"type": "function"
				}
			],
			"devdoc": {
				"details": "ERC20 token for the StudyDAO platform",
				"errors": {
					"ERC20InsufficientAllowance(address,uint256,uint256)": [
						{
							"details": "Indicates a failure with the `spender`’s `allowance`. Used in transfers.",
							"params": {
								"allowance": "Amount of tokens a `spender` is allowed to operate with.",
								"needed": "Minimum amount required to perform a transfer.",
								"spender": "Address that may be allowed to operate on tokens without being their owner."
							}
						}
					],
					"ERC20InsufficientBalance(address,uint256,uint256)": [
						{
							"details": "Indicates an error related to the current `balance` of a `sender`. Used in transfers.",
							"params": {
								"balance": "Current balance for the interacting account.",
								"needed": "Minimum amount required to perform a transfer.",
								"sender": "Address whose tokens are being transferred."
							}
						}
					],
					"ERC20InvalidApprover(address)": [
						{
							"details": "Indicates a failure with the `approver` of a token to be approved. Used in approvals.",
							"params": {
								"approver": "Address initiating an approval operation."
							}
						}
					],
					"ERC20InvalidReceiver(address)": [
						{
							"details": "Indicates a failure with the token `receiver`. Used in transfers.",
							"params": {
								"receiver": "Address to which tokens are being transferred."
							}
						}
					],
					"ERC20InvalidSender(address)": [
						{
							"details": "Indicates a failure with the token `sender`. Used in transfers.",
							"params": {
								"sender": "Address whose tokens are being transferred."
							}
						}
					],
					"ERC20InvalidSpender(address)": [
						{
							"details": "Indicates a failure with the `spender` to be approved. Used in approvals.",
							"params": {
								"spender": "Address that may be allowed to operate on tokens without being their owner."
							}
						}
					],
					"OwnableInvalidOwner(address)": [
						{
							"details": "The owner is not a valid owner account. (eg. `address(0)`)"
						}
					],
					"OwnableUnauthorizedAccount(address)": [
						{
							"details": "The caller account is not authorized to perform an operation."
						}
					]
				},
				"events": {
					"Approval(address,address,uint256)": {
						"details": "Emitted when the allowance of a `spender` for an `owner` is set by a call to {approve}. `value` is the new allowance."
					},
					"Transfer(address,address,uint256)": {
						"details": "Emitted when `value` tokens are moved from one account (`from`) to another (`to`). Note that `value` may be zero."
					}
				},
				"kind": "dev",
				"methods": {
					"addMinter(address)": {
						"details": "Add a new minter address",
						"params": {
							"minter": "The address to add as a minter"
						}
					},
					"allowance(address,address)": {
						"details": "See {IERC20-allowance}."
					},
					"approve(address,uint256)": {
						"details": "See {IERC20-approve}. NOTE: If `value` is the maximum `uint256`, the allowance is not updated on `transferFrom`. This is semantically equivalent to an infinite approval. Requirements: - `spender` cannot be the zero address."
					},
					"balanceOf(address)": {
						"details": "See {IERC20-balanceOf}."
					},
					"constructor": {
						"details": "Constructor that initializes the token with name and symbol",
						"params": {
							"initialSupply": "The initial token supply to mint to the contract deployer"
						}
					},
					"decimals()": {
						"details": "Returns the number of decimals used to get its user representation. For example, if `decimals` equals `2`, a balance of `505` tokens should be displayed to a user as `5.05` (`505 / 10 ** 2`). Tokens usually opt for a value of 18, imitating the relationship between Ether and Wei. This is the default value returned by this function, unless it's overridden. NOTE: This information is only used for _display_ purposes: it in no way affects any of the arithmetic of the contract, including {IERC20-balanceOf} and {IERC20-transfer}."
					},
					"mintReward(address,uint256)": {
						"details": "Mint new tokens to a recipient (only callable by minters)",
						"params": {
							"amount": "The amount of tokens to mint",
							"to": "The address that will receive the minted tokens"
						}
					},
					"name()": {
						"details": "Returns the name of the token."
					},
					"owner()": {
						"details": "Returns the address of the current owner."
					},
					"removeMinter(address)": {
						"details": "Remove a minter address",
						"params": {
							"minter": "The address to remove as a minter"
						}
					},
					"renounceOwnership()": {
						"details": "Leaves the contract without owner. It will not be possible to call `onlyOwner` functions. Can only be called by the current owner. NOTE: Renouncing ownership will leave the contract without an owner, thereby disabling any functionality that is only available to the owner."
					},
					"symbol()": {
						"details": "Returns the symbol of the token, usually a shorter version of the name."
					},
					"totalSupply()": {
						"details": "See {IERC20-totalSupply}."
					},
					"transfer(address,uint256)": {
						"details": "See {IERC20-transfer}. Requirements: - `to` cannot be the zero address. - the caller must have a balance of at least `value`."
					},
					"transferFrom(address,address,uint256)": {
						"details": "See {IERC20-transferFrom}. Skips emitting an {Approval} event indicating an allowance update. This is not required by the ERC. See {xref-ERC20-_approve-address-address-uint256-bool-}[_approve]. NOTE: Does not update the allowance if the current allowance is the maximum `uint256`. Requirements: - `from` and `to` cannot be the zero address. - `from` must have a balance of at least `value`. - the caller must have allowance for ``from``'s tokens of at least `value`."
					},
					"transferOwnership(address)": {
						"details": "Transfers ownership of the contract to a new account (`newOwner`). Can only be called by the current owner."
					}
				},
				"title": "StudyToken",
				"version": 1
			},
			"evm": {
				"assembly": "    /* \"contracts/StudyToken.sol\":243:2044  contract StudyToken is ERC20, Ownable {... */\n  0x80\n  jumpi(tag_6, callvalue)\n  not(0x1f)\n  swap1\n  0x1f\n  sub(shl(0x40, 0x01), 0x01)\n  bytecodeSize\n  codesize\n  dup2\n  swap1\n  sub\n  dup4\n  dup2\n  add\n  dup7\n  and\n  dup6\n  add\n  dup4\n  dup2\n  gt\n  dup7\n  dup3\n  lt\n  or\n  tag_23\n  jumpi\n  dup6\n  swap3\n  dup3\n  swap2\n  0x40\n  mstore\n  dup4\n  codecopy\n  0x20\n  swap5\n  dup6\n  swap2\n  dup2\n  add\n  sub\n  slt\n  tag_6\n  jumpi\n  mload\n  swap4\n  tag_8\n  tag_1\n  jump\t// in\ntag_8:\n  swap2\n  0x0a\n  dup4\n  mstore\n  shl(0xb1, 0x29ba3ab23caa37b5b2b7)\n  dup6\n  dup5\n  add\n  mstore\n  tag_9\n  tag_1\n  jump\t// in\ntag_9:\n  swap4\n  0x05\n  swap4\n  dup5\n  dup7\n  mstore\n  shl(0xd8, 0x5354554459)\n  dup8\n  dup8\n  add\n  mstore\n  dup1\n  mload\n  swap2\n  dup4\n  dup4\n  gt\n  tag_23\n  jumpi\n    /* \"@openzeppelin/contracts/token/ERC20/ERC20.sol\":1648:1661  _name = name_ */\n  0x03\n    /* \"contracts/StudyToken.sol\":243:2044  contract StudyToken is ERC20, Ownable {... */\n  swap3\n  dup4\n  sload\n  0x01\n  swap4\n  dup5\n  dup3\n  dup2\n  shr\n  swap3\n  and\n  dup1\n  iszero\n  tag_12\n  jumpi\ntag_13:\n  dup12\n  dup4\n  lt\n  eq\n  tag_14\n  jumpi\n  dup2\n  dup5\n  dup5\n  swap4\n  gt\n  tag_16\n  jumpi\ntag_17:\n  pop\n  dup11\n  swap1\n  dup5\n  dup4\n  gt\n  0x01\n  eq\n  tag_18\n  jumpi\n  0x00\n  swap3\n  tag_20\n  jumpi\ntag_21:\n  pop\n  pop\n  not(0x00)\n  dup3\n  dup7\n  shl\n  shr\n  not\n  and\n  swap1\n  dup4\n  shl\n  or\n  dup4\n  sstore\ntag_22:\n  dup7\n  mload\n  swap4\n  dup5\n  gt\n  tag_23\n  jumpi\n    /* \"@openzeppelin/contracts/token/ERC20/ERC20.sol\":1671:1688  _symbol = symbol_ */\n  0x04\n    /* \"contracts/StudyToken.sol\":243:2044  contract StudyToken is ERC20, Ownable {... */\n  swap7\n  dup8\n  sload\n  dup4\n  dup2\n  dup2\n  shr\n  swap2\n  and\n  dup1\n  iszero\n  tag_25\n  jumpi\ntag_26:\n  dup11\n  dup3\n  lt\n  eq\n  tag_27\n  jumpi\n  dup3\n  dup2\n  gt\n  tag_29\n  jumpi\ntag_30:\n  pop\n  dup9\n  swap2\n  dup6\n  gt\n  0x01\n  eq\n  tag_31\n  jumpi\n  dup5\n  swap6\n  pop\n  swap1\n  dup5\n  swap3\n  swap2\n  0x00\n  swap6\n  tag_33\n  jumpi\ntag_34:\n  pop\n  pop\n  shl\n  swap3\n  not(0x00)\n  swap2\n  shl\n  shr\n  not\n  and\n  or\n  dup3\n  sstore\ntag_35:\n    /* \"contracts/StudyToken.sol\":789:799  msg.sender */\n  caller\n    /* \"@openzeppelin/contracts/access/Ownable.sol\":1273:1299  initialOwner == address(0) */\n  iszero\n    /* \"@openzeppelin/contracts/access/Ownable.sol\":1269:1364  if (initialOwner == address(0)) {... */\n  tag_36\n  jumpi\n    /* \"contracts/StudyToken.sol\":243:2044  contract StudyToken is ERC20, Ownable {... */\n  dup1\n  sload\n    /* \"contracts/StudyToken.sol\":789:799  msg.sender */\n  caller\n  not(sub(shl(0xa0, 0x01), 0x01))\n    /* \"contracts/StudyToken.sol\":243:2044  contract StudyToken is ERC20, Ownable {... */\n  dup3\n  and\n  dup2\n  or\n  swap1\n  swap3\n  sstore\n  sub(shl(0xa0, 0x01), 0x01)\n  and\n    /* \"@openzeppelin/contracts/access/Ownable.sol\":3052:3092  OwnershipTransferred(oldOwner, newOwner) */\n  0x8be0079c531659141344cd1fd0a4f28419497f9722a3daafe3b4186f6b6457e0\n  0x00\n  dup1\n  log3\n    /* \"contracts/StudyToken.sol\":243:2044  contract StudyToken is ERC20, Ownable {... */\n  0x0de0b6b3a7640000\n  swap3\n  dup4\n  dup2\n  mul\n  swap4\n  dup2\n  dup6\n  div\n  eq\n  swap1\n  iszero\n  or\n  iszero\n  tag_40\n  jumpi\n    /* \"@openzeppelin/contracts/token/ERC20/ERC20.sol\":6214:6235  _totalSupply += value */\n  0x02\n    /* \"contracts/StudyToken.sol\":243:2044  contract StudyToken is ERC20, Ownable {... */\n  sload\n  swap1\n  dup4\n  dup3\n  add\n  dup1\n  swap3\n  gt\n  tag_40\n  jumpi\n  pop\n  0x00\n  swap2\n    /* \"@openzeppelin/contracts/token/ERC20/ERC20.sol\":7064:7089  Transfer(from, to, value) */\n  0xddf252ad1be2c89b69c2b068fc378daa952ba7f163c4a11628f55a4df523b3ef\n    /* \"contracts/StudyToken.sol\":243:2044  contract StudyToken is ERC20, Ownable {... */\n  swap2\n    /* \"@openzeppelin/contracts/token/ERC20/ERC20.sol\":6214:6235  _totalSupply += value */\n  0x02\n    /* \"contracts/StudyToken.sol\":243:2044  contract StudyToken is ERC20, Ownable {... */\n  sstore\n    /* \"contracts/StudyToken.sol\":789:799  msg.sender */\n  caller\n    /* \"contracts/StudyToken.sol\":243:2044  contract StudyToken is ERC20, Ownable {... */\n  dup4\n  mstore\n  dup3\n  dup2\n  mstore\n  0x40\n  dup4\n  keccak256\n  dup5\n  dup2\n  sload\n  add\n  swap1\n  sstore\n  mload(0x40)\n  swap4\n  dup5\n  mstore\n    /* \"contracts/StudyToken.sol\":789:799  msg.sender */\n  caller\n    /* \"@openzeppelin/contracts/token/ERC20/ERC20.sol\":7064:7089  Transfer(from, to, value) */\n  swap4\n  log3\n    /* \"contracts/StudyToken.sol\":243:2044  contract StudyToken is ERC20, Ownable {... */\n  mload(0x40)\n  dataSize(sub_0)\n  swap1\n  dup2\n  dataOffset(sub_0)\n  dup3\n  codecopy\n  return\ntag_40:\n  0x11\n  swap1\n  mstore(0x00, shl(0xe0, 0x4e487b71))\n  mstore\n  revert(0x00, 0x24)\n    /* \"@openzeppelin/contracts/access/Ownable.sol\":1269:1364  if (initialOwner == address(0)) {... */\ntag_36:\n    /* \"contracts/StudyToken.sol\":243:2044  contract StudyToken is ERC20, Ownable {... */\n  mload(0x40)\n  shl(0xe0, 0x1e4fbdf7)\n    /* \"@openzeppelin/contracts/access/Ownable.sol\":1322:1353  OwnableInvalidOwner(address(0)) */\n  dup2\n  mstore\n  0x00\n  dup2\n  dup5\n  add\n    /* \"contracts/StudyToken.sol\":243:2044  contract StudyToken is ERC20, Ownable {... */\n  mstore\n  0x24\n  swap1\n    /* \"@openzeppelin/contracts/access/Ownable.sol\":1322:1353  OwnableInvalidOwner(address(0)) */\n  revert\n    /* \"contracts/StudyToken.sol\":243:2044  contract StudyToken is ERC20, Ownable {... */\ntag_33:\n  add\n  mload\n  swap4\n  pop\n  0x00\n  dup1\n  jump(tag_34)\ntag_31:\n  swap3\n  swap2\n  swap5\n  dup5\n  and\n  swap3\n  dup8\n  0x00\n  mstore\n  dup5\n  dup10\n  0x00\n  keccak256\n  swap5\n  0x00\ntag_42:\n  dup12\n  dup10\n  dup4\n  dup4\n  lt\n  tag_43\n  jumpi\n  pop\n  pop\n  pop\n  lt\n  tag_45\n  jumpi\ntag_46:\n  pop\n  pop\n  pop\n  pop\n  dup2\n  shl\n  add\n  dup3\n  sstore\n  jump(tag_35)\ntag_45:\n  add\n  mload\n  swap1\n  0xf8\n  dup5\n  not(0x00)\n  swap3\n  shl\n  and\n  shr\n  not\n  and\n  swap1\n  sstore\n  0x00\n  dup1\n  dup1\n  dup1\n  jump(tag_46)\ntag_43:\n  dup7\n  dup7\n  add\n  mload\n  dup10\n  sstore\n  swap1\n  swap8\n  add\n  swap7\n  swap5\n  dup6\n  add\n  swap5\n  dup9\n  swap4\n  pop\n  add\n  jump(tag_42)\ntag_29:\n  dup9\n  0x00\n  mstore\n  dup10\n  0x00\n  keccak256\n  dup4\n  dup1\n  dup9\n  add\n  dup11\n  shr\n  dup3\n  add\n  swap3\n  dup13\n  dup10\n  lt\n  tag_47\n  jumpi\ntag_48:\n  add\n  dup10\n  shr\n  add\n  swap1\n  dup5\n  swap1\ntag_49:\n  dup3\n  dup2\n  lt\n  tag_50\n  jumpi\n  pop\n  pop\n  jump(tag_30)\ntag_50:\n  0x00\n  dup2\n  sstore\n  add\n  dup5\n  swap1\n  jump(tag_49)\ntag_47:\n  swap3\n  pop\n  dup2\n  swap3\n  jump(tag_48)\ntag_27:\n  0x22\n  dup10\n  mstore(0x00, shl(0xe0, 0x4e487b71))\n  mstore\n  revert(0x00, 0x24)\ntag_25:\n  swap1\n  0x7f\n  and\n  swap1\n  jump(tag_26)\ntag_23:\n  mstore(0x00, shl(0xe0, 0x4e487b71))\n  0x41\n    /* \"@openzeppelin/contracts/token/ERC20/ERC20.sol\":1671:1688  _symbol = symbol_ */\n  0x04\n    /* \"contracts/StudyToken.sol\":243:2044  contract StudyToken is ERC20, Ownable {... */\n  mstore\n  revert(0x00, 0x24)\ntag_20:\n  add\n  mload\n  swap1\n  pop\n  0x00\n  dup1\n  jump(tag_21)\ntag_18:\n  swap1\n  dup9\n  dup7\n  swap5\n  and\n  swap2\n  dup8\n  0x00\n  mstore\n  dup13\n  0x00\n  keccak256\n  swap3\n  dup14\n  0x00\n  swap1\ntag_52:\n  dup3\n  dup3\n  lt\n  tag_53\n  jumpi\n  pop\n  pop\n  dup5\n  gt\n  tag_55\n  jumpi\ntag_56:\n  pop\n  pop\n  pop\n  dup2\n  shl\n  add\n  dup4\n  sstore\n  jump(tag_22)\ntag_55:\n  add\n  mload\n  not(0x00)\n  dup4\n  dup9\n  shl\n  0xf8\n  and\n  shr\n  not\n  and\n  swap1\n  sstore\n  0x00\n  dup1\n  dup1\n  jump(tag_56)\ntag_53:\n  dup4\n  dup6\n  add\n  mload\n  dup7\n  sstore\n  dup10\n  swap8\n  swap1\n  swap6\n  add\n  swap5\n  swap4\n  dup5\n  add\n  swap4\n  add\n  dup15\n  jump(tag_52)\ntag_16:\n  swap1\n  swap2\n  pop\n  dup6\n  0x00\n  mstore\n  dup11\n  0x00\n  keccak256\n  dup5\n  dup1\n  dup6\n  add\n  dup12\n  shr\n  dup3\n  add\n  swap3\n  dup14\n  dup7\n  lt\n  tag_57\n  jumpi\ntag_58:\n  swap2\n  dup8\n  swap2\n  dup7\n  swap6\n  swap5\n  swap4\n  add\n  dup13\n  shr\n  add\n  swap2\ntag_59:\n  dup3\n  dup2\n  lt\n  tag_60\n  jumpi\n  pop\n  pop\n  jump(tag_17)\ntag_60:\n  0x00\n  dup2\n  sstore\n  dup6\n  swap5\n  pop\n  dup8\n  swap2\n  add\n  jump(tag_59)\ntag_57:\n  swap3\n  pop\n  dup2\n  swap3\n  jump(tag_58)\ntag_14:\n  mstore(0x00, shl(0xe0, 0x4e487b71))\n  mstore(0x04, 0x22)\n  revert(0x00, 0x24)\ntag_12:\n  swap2\n  0x7f\n  and\n  swap2\n  jump(tag_13)\ntag_6:\n  0x00\n  dup1\n  revert\ntag_1:\n  0x40\n  dup1\n  mload\n  swap2\n  swap1\n  dup3\n  add\n  sub(shl(0x40, 0x01), 0x01)\n  dup2\n  gt\n  dup4\n  dup3\n  lt\n  or\n  tag_23\n  jumpi\n  0x40\n  mstore\n  jump\t// out\nstop\n\nsub_0: assembly {\n        /* \"contracts/StudyToken.sol\":243:2044  contract StudyToken is ERC20, Ownable {... */\n      0x80\n      0x40\n      swap1\n      dup1\n      dup3\n      mstore\n      0x04\n      dup1\n      calldatasize\n      lt\n      iszero\n      tag_7\n      jumpi\n      0x00\n      dup1\n      revert\n    tag_7:\n      shr(0xe0, calldataload(0x00))\n      swap2\n      dup3\n      0x06fdde03\n      eq\n      tag_9\n      jumpi\n      pop\n      dup2\n      0x095ea7b3\n      eq\n      tag_11\n      jumpi\n      dup2\n      0x18160ddd\n      eq\n      tag_13\n      jumpi\n      dup2\n      0x23b872dd\n      eq\n      tag_15\n      jumpi\n      dup2\n      0x3092afd5\n      eq\n      tag_17\n      jumpi\n      dup2\n      0x313ce567\n      eq\n      tag_19\n      jumpi\n      dup2\n      0x70a08231\n      eq\n      tag_21\n      jumpi\n      dup2\n      0x715018a6\n      eq\n      tag_23\n      jumpi\n      dup2\n      0x8da5cb5b\n      eq\n      tag_25\n      jumpi\n      dup2\n      0x95d89b41\n      eq\n      tag_27\n      jumpi\n      dup2\n      0x983b2d56\n      eq\n      tag_29\n      jumpi\n      dup2\n      0x9a49090e\n      eq\n      tag_31\n      jumpi\n      dup2\n      0xa9059cbb\n      eq\n      tag_33\n      jumpi\n      dup2\n      0xdd62ed3e\n      eq\n      tag_35\n      jumpi\n      dup2\n      0xf2fde38b\n      eq\n      tag_37\n      jumpi\n      pop\n      0xf46eccc4\n      eq\n      tag_39\n      jumpi\n      0x00\n      dup1\n      revert\n    tag_39:\n      jumpi(tag_43, callvalue)\n      jumpi(tag_43, slt(add(not(0x03), calldatasize), 0x20))\n      0x20\n      swap1\n      sub(shl(0xa0, 0x01), 0x01)\n      tag_45\n      tag_2\n      jump\t// in\n    tag_45:\n      and\n      0x00\n      mstore\n        /* \"contracts/StudyToken.sol\":378:417  mapping(address => bool) public minters */\n      0x06\n        /* \"contracts/StudyToken.sol\":243:2044  contract StudyToken is ERC20, Ownable {... */\n      dup3\n      mstore\n      0xff\n      dup2\n      0x00\n      keccak256\n      sload\n      and\n      swap1\n      mload\n      swap1\n      iszero\n      iszero\n      dup2\n      mstore\n      return\n    tag_43:\n      0x00\n      dup1\n      revert\n    tag_37:\n      swap1\n      pop\n      jumpi(tag_43, callvalue)\n      jumpi(tag_43, slt(add(not(0x03), calldatasize), 0x20))\n      tag_50\n      tag_2\n      jump\t// in\n    tag_50:\n        /* \"@openzeppelin/contracts/access/Ownable.sol\":1500:1562  modifier onlyOwner() {... */\n      swap1\n      tag_51\n      tag_6\n      jump\t// in\n    tag_51:\n      sub(shl(0xa0, 0x01), 0x01)\n        /* \"contracts/StudyToken.sol\":243:2044  contract StudyToken is ERC20, Ownable {... */\n      swap2\n      dup3\n      and\n      swap3\n        /* \"@openzeppelin/contracts/access/Ownable.sol\":2627:2649  newOwner == address(0) */\n      dup4\n      iszero\n        /* \"@openzeppelin/contracts/access/Ownable.sol\":2623:2714  if (newOwner == address(0)) {... */\n      tag_52\n      jumpi\n        /* \"contracts/StudyToken.sol\":243:2044  contract StudyToken is ERC20, Ownable {... */\n      pop\n      pop\n        /* \"@openzeppelin/contracts/access/Ownable.sol\":3004:3010  _owner */\n      0x05\n        /* \"contracts/StudyToken.sol\":243:2044  contract StudyToken is ERC20, Ownable {... */\n      sload\n      dup3\n      shl(0xa0, 0xffffffffffffffffffffffff)\n      dup3\n      and\n      or\n        /* \"@openzeppelin/contracts/access/Ownable.sol\":3004:3010  _owner */\n      0x05\n        /* \"contracts/StudyToken.sol\":243:2044  contract StudyToken is ERC20, Ownable {... */\n      sstore\n      and\n        /* \"@openzeppelin/contracts/access/Ownable.sol\":3052:3092  OwnershipTransferred(oldOwner, newOwner) */\n      0x8be0079c531659141344cd1fd0a4f28419497f9722a3daafe3b4186f6b6457e0\n        /* \"contracts/StudyToken.sol\":243:2044  contract StudyToken is ERC20, Ownable {... */\n      0x00\n        /* \"@openzeppelin/contracts/access/Ownable.sol\":3052:3092  OwnershipTransferred(oldOwner, newOwner) */\n      dup1\n      log3\n        /* \"contracts/StudyToken.sol\":243:2044  contract StudyToken is ERC20, Ownable {... */\n      stop\n        /* \"@openzeppelin/contracts/access/Ownable.sol\":2623:2714  if (newOwner == address(0)) {... */\n    tag_52:\n        /* \"contracts/StudyToken.sol\":243:2044  contract StudyToken is ERC20, Ownable {... */\n      swap1\n      0x00\n      0x24\n      swap3\n      mload\n        /* \"@openzeppelin/contracts/access/Ownable.sol\":2672:2703  OwnableInvalidOwner(address(0)) */\n      swap2\n      shl(0xe0, 0x1e4fbdf7)\n      dup4\n      mstore\n      dup3\n      add\n        /* \"contracts/StudyToken.sol\":243:2044  contract StudyToken is ERC20, Ownable {... */\n      mstore\n        /* \"@openzeppelin/contracts/access/Ownable.sol\":2672:2703  OwnableInvalidOwner(address(0)) */\n      revert\n        /* \"contracts/StudyToken.sol\":243:2044  contract StudyToken is ERC20, Ownable {... */\n    tag_35:\n      dup3\n      jumpi(tag_43, callvalue)\n      dup1\n      add(calldatasize, not(0x03))\n      slt\n      tag_43\n      jumpi\n      0x20\n      swap1\n      tag_58\n      tag_2\n      jump\t// in\n    tag_58:\n      tag_59\n      tag_3\n      jump\t// in\n    tag_59:\n      swap1\n      0x01\n      dup1\n      0xa0\n      shl\n      sub\n      dup1\n      swap2\n      and\n      0x00\n      mstore\n        /* \"@openzeppelin/contracts/token/ERC20/ERC20.sol\":3638:3649  _allowances */\n      0x01\n        /* \"contracts/StudyToken.sol\":243:2044  contract StudyToken is ERC20, Ownable {... */\n      dup5\n      mstore\n      dup3\n      0x00\n      keccak256\n      swap2\n      and\n      0x00\n      mstore\n      dup3\n      mstore\n      dup1\n      0x00\n      keccak256\n      sload\n      swap1\n      mload\n      swap1\n      dup2\n      mstore\n      return\n    tag_33:\n      dup3\n      jumpi(tag_43, callvalue)\n      dup1\n      add(calldatasize, not(0x03))\n      slt\n      tag_43\n      jumpi\n      0x20\n      swap1\n        /* \"@openzeppelin/contracts/token/ERC20/ERC20.sol\":3440:3445  value */\n      tag_64\n        /* \"contracts/StudyToken.sol\":243:2044  contract StudyToken is ERC20, Ownable {... */\n      tag_65\n      tag_2\n      jump\t// in\n    tag_65:\n      calldataload(0x24)\n        /* \"@openzeppelin/contracts/utils/Context.sol\":735:745  msg.sender */\n      swap1\n      caller\n        /* \"@openzeppelin/contracts/token/ERC20/ERC20.sol\":3440:3445  value */\n      tag_5\n      jump\t// in\n    tag_64:\n        /* \"contracts/StudyToken.sol\":243:2044  contract StudyToken is ERC20, Ownable {... */\n      mload\n      0x01\n      dup2\n      mstore\n      return\n    tag_31:\n      dup3\n      jumpi(tag_43, callvalue)\n      dup1\n      add(calldatasize, not(0x03))\n      slt\n      tag_43\n      jumpi\n      tag_70\n      tag_2\n      jump\t// in\n    tag_70:\n      swap1\n      calldataload(0x24)\n        /* \"contracts/StudyToken.sol\":1888:1898  msg.sender */\n      swap2\n      caller\n        /* \"contracts/StudyToken.sol\":243:2044  contract StudyToken is ERC20, Ownable {... */\n      0x00\n      mstore\n        /* \"contracts/StudyToken.sol\":1880:1887  minters */\n      0x06\n        /* \"contracts/StudyToken.sol\":243:2044  contract StudyToken is ERC20, Ownable {... */\n      0x20\n      mstore\n      0xff\n      dup3\n      0x00\n      keccak256\n      sload\n      and\n      iszero\n      tag_71\n      jumpi\n      sub(shl(0xa0, 0x01), 0x01)\n      and\n      swap3\n        /* \"contracts/StudyToken.sol\":1951:1967  to != address(0) */\n      dup4\n      iszero\n        /* \"contracts/StudyToken.sol\":243:2044  contract StudyToken is ERC20, Ownable {... */\n      tag_73\n      jumpi\n        /* \"@openzeppelin/contracts/token/ERC20/ERC20.sol\":6214:6235  _totalSupply += value */\n      0x02\n        /* \"contracts/StudyToken.sol\":243:2044  contract StudyToken is ERC20, Ownable {... */\n      sload\n      swap1\n      dup4\n      dup3\n      add\n      dup1\n      swap3\n      gt\n      tag_75\n      jumpi\n      pop\n      0x00\n      swap3\n        /* \"@openzeppelin/contracts/token/ERC20/ERC20.sol\":7064:7089  Transfer(from, to, value) */\n      0xddf252ad1be2c89b69c2b068fc378daa952ba7f163c4a11628f55a4df523b3ef\n        /* \"contracts/StudyToken.sol\":243:2044  contract StudyToken is ERC20, Ownable {... */\n      swap3\n      0x20\n      swap3\n        /* \"@openzeppelin/contracts/token/ERC20/ERC20.sol\":6214:6235  _totalSupply += value */\n      0x02\n        /* \"contracts/StudyToken.sol\":243:2044  contract StudyToken is ERC20, Ownable {... */\n      sstore\n      dup6\n      dup6\n      mstore\n      dup5\n      dup4\n      mstore\n      dup1\n      dup6\n      keccak256\n      dup3\n      dup2\n      sload\n      add\n      swap1\n      sstore\n      mload\n      swap1\n      dup2\n      mstore\n        /* \"@openzeppelin/contracts/token/ERC20/ERC20.sol\":7064:7089  Transfer(from, to, value) */\n      log3\n        /* \"contracts/StudyToken.sol\":243:2044  contract StudyToken is ERC20, Ownable {... */\n      stop\n    tag_75:\n      0x11\n      swap1\n      mstore(0x00, shl(0xe0, 0x4e487b71))\n      mstore\n      revert(0x00, 0x24)\n    tag_73:\n      0x20\n      0x64\n      swap3\n      mload\n      swap2\n      shl(0xe5, 0x461bcd)\n      dup4\n      mstore\n      dup3\n      add\n      mstore\n      0x1b\n      0x24\n      dup3\n      add\n      mstore\n      0x43616e6e6f74206d696e7420746f207a65726f20616464726573730000000000\n      0x44\n      dup3\n      add\n      mstore\n      revert\n    tag_71:\n      dup2\n      mload\n      shl(0xe5, 0x461bcd)\n      dup2\n      mstore\n      0x20\n      dup2\n      dup7\n      add\n      mstore\n      0x1d\n      0x24\n      dup3\n      add\n      mstore\n      0x4f6e6c79206d696e746572732063616e206d696e742072657761726473000000\n      0x44\n      dup3\n      add\n      mstore\n      0x64\n      swap1\n      revert\n    tag_29:\n      dup3\n      jumpi(tag_43, callvalue)\n      jumpi(tag_43, slt(add(not(0x03), calldatasize), 0x20))\n      tag_81\n      tag_2\n      jump\t// in\n    tag_81:\n        /* \"@openzeppelin/contracts/access/Ownable.sol\":1500:1562  modifier onlyOwner() {... */\n      tag_82\n      tag_6\n      jump\t// in\n    tag_82:\n      sub(shl(0xa0, 0x01), 0x01)\n        /* \"contracts/StudyToken.sol\":243:2044  contract StudyToken is ERC20, Ownable {... */\n      and\n      swap2\n        /* \"contracts/StudyToken.sol\":1101:1121  minter != address(0) */\n      dup3\n      iszero\n        /* \"contracts/StudyToken.sol\":243:2044  contract StudyToken is ERC20, Ownable {... */\n      tag_83\n      jumpi\n      dup3\n      0x00\n      mstore\n        /* \"contracts/StudyToken.sol\":1167:1174  minters */\n      0x06\n        /* \"contracts/StudyToken.sol\":243:2044  contract StudyToken is ERC20, Ownable {... */\n      0x20\n      mstore\n      0xff\n      dup3\n      0x00\n      keccak256\n      sload\n      and\n      tag_85\n      jumpi\n      pop\n      dup2\n      0x00\n      mstore\n        /* \"contracts/StudyToken.sol\":1167:1174  minters */\n      0x06\n        /* \"contracts/StudyToken.sol\":243:2044  contract StudyToken is ERC20, Ownable {... */\n      0x20\n      mstore\n      0x00\n      keccak256\n        /* \"contracts/StudyToken.sol\":1240:1244  true */\n      0x01\n        /* \"contracts/StudyToken.sol\":243:2044  contract StudyToken is ERC20, Ownable {... */\n      not(0xff)\n      dup3\n      sload\n      and\n      or\n      swap1\n      sstore\n        /* \"contracts/StudyToken.sol\":1259:1278  MinterAdded(minter) */\n      0x6ae172837ea30b801fbfcdd4108aa1d5bf8ff775444fd70256b44e6bf3dfc3f6\n        /* \"contracts/StudyToken.sol\":243:2044  contract StudyToken is ERC20, Ownable {... */\n      0x00\n        /* \"contracts/StudyToken.sol\":1259:1278  MinterAdded(minter) */\n      dup1\n      log2\n        /* \"contracts/StudyToken.sol\":243:2044  contract StudyToken is ERC20, Ownable {... */\n      stop\n    tag_85:\n      0x20\n      0x64\n      swap3\n      mload\n      swap2\n      shl(0xe5, 0x461bcd)\n      dup4\n      mstore\n      dup3\n      add\n      mstore\n      0x10\n      0x24\n      dup3\n      add\n      mstore\n      shl(0x81, 0x20b63932b0b23c90309036b4b73a32b9)\n      0x44\n      dup3\n      add\n      mstore\n      revert\n    tag_83:\n      0x20\n      0x64\n      swap3\n      mload\n      swap2\n      shl(0xe5, 0x461bcd)\n      dup4\n      mstore\n      dup3\n      add\n      mstore\n      0x16\n      0x24\n      dup3\n      add\n      mstore\n      shl(0x50, 0x496e76616c6964206d696e7465722061646472657373)\n      0x44\n      dup3\n      add\n      mstore\n      revert\n    tag_27:\n      dup3\n      jumpi(tag_43, callvalue)\n      jumpi(tag_43, slt(add(not(0x03), calldatasize), 0x00))\n      dup1\n      mload\n      swap1\n      0x00\n      dup4\n      sload\n      0x01\n      dup2\n      0x01\n      shr\n      swap1\n      0x01\n      dup4\n      and\n      swap3\n      dup4\n      iszero\n      tag_91\n      jumpi\n    tag_92:\n      0x20\n      swap4\n      dup5\n      dup5\n      lt\n      dup2\n      eq\n      tag_93\n      jumpi\n      dup4\n      dup9\n      mstore\n      swap1\n      dup2\n      iszero\n      tag_95\n      jumpi\n      pop\n      0x01\n      eq\n      tag_97\n      jumpi\n    tag_98:\n      pop\n      pop\n      pop\n      dup3\n      swap1\n      sub\n      0x1f\n      add\n      not(0x1f)\n      and\n      dup3\n      add\n      swap3\n      0xffffffffffffffff\n      dup5\n      gt\n      dup4\n      dup6\n      lt\n      or\n      tag_99\n      jumpi\n      pop\n      dup3\n      swap2\n      dup3\n      tag_101\n      swap3\n      mstore\n      dup3\n      tag_1\n      jump\t// in\n    tag_101:\n      sub\n      swap1\n      return\n    tag_99:\n      0x41\n      swap1\n      mstore(0x00, shl(0xe0, 0x4e487b71))\n      mstore\n      revert(0x00, 0x24)\n    tag_97:\n      0x00\n      dup8\n      dup2\n      mstore\n      swap3\n      swap4\n      pop\n      dup4\n      0x8a35acfbc15ff81a39ae7d344fd709f28e8600b4aa8c65c6b64bfe7fe36bd19b\n    tag_102:\n      dup4\n      dup6\n      lt\n      tag_103\n      jumpi\n      pop\n      pop\n      pop\n      pop\n      dup4\n      add\n      add\n      dup5\n      dup1\n      dup1\n      jump(tag_98)\n    tag_103:\n      dup1\n      sload\n      dup9\n      dup7\n      add\n      dup4\n      add\n      mstore\n      swap4\n      add\n      swap3\n      dup5\n      swap1\n      dup3\n      add\n      jump(tag_102)\n    tag_95:\n      not(0xff)\n      and\n      dup8\n      dup6\n      add\n      mstore\n      pop\n      pop\n      iszero\n      iszero\n      0x05\n      shl\n      dup5\n      add\n      add\n      swap1\n      pop\n      dup5\n      dup1\n      dup1\n      jump(tag_98)\n    tag_93:\n      0x22\n      dup10\n      mstore(0x00, shl(0xe0, 0x4e487b71))\n      mstore\n      revert(0x00, 0x24)\n    tag_91:\n      swap2\n      0x7f\n      and\n      swap2\n      jump(tag_92)\n    tag_25:\n      dup3\n      jumpi(tag_43, callvalue)\n      jumpi(tag_43, slt(add(not(0x03), calldatasize), 0x00))\n        /* \"@openzeppelin/contracts/access/Ownable.sol\":1710:1716  _owner */\n      0x05\n        /* \"contracts/StudyToken.sol\":243:2044  contract StudyToken is ERC20, Ownable {... */\n      sload\n      swap1\n      mload\n      sub(shl(0xa0, 0x01), 0x01)\n      swap1\n      swap2\n      and\n      dup2\n      mstore\n      0x20\n      swap1\n      return\n    tag_23:\n      jumpi(tag_43, callvalue)\n      jumpi(tag_43, slt(add(not(0x03), calldatasize), 0x00))\n        /* \"@openzeppelin/contracts/access/Ownable.sol\":1500:1562  modifier onlyOwner() {... */\n      tag_113\n      tag_6\n      jump\t// in\n    tag_113:\n        /* \"@openzeppelin/contracts/access/Ownable.sol\":3004:3010  _owner */\n      0x05\n        /* \"contracts/StudyToken.sol\":243:2044  contract StudyToken is ERC20, Ownable {... */\n      dup1\n      sload\n      not(sub(shl(0xa0, 0x01), 0x01))\n      dup2\n      and\n      swap1\n      swap2\n      sstore\n      0x00\n      swap1\n      sub(shl(0xa0, 0x01), 0x01)\n      and\n        /* \"@openzeppelin/contracts/access/Ownable.sol\":3052:3092  OwnershipTransferred(oldOwner, newOwner) */\n      0x8be0079c531659141344cd1fd0a4f28419497f9722a3daafe3b4186f6b6457e0\n        /* \"contracts/StudyToken.sol\":243:2044  contract StudyToken is ERC20, Ownable {... */\n      dup3\n      dup1\n        /* \"@openzeppelin/contracts/access/Ownable.sol\":3052:3092  OwnershipTransferred(oldOwner, newOwner) */\n      log3\n        /* \"contracts/StudyToken.sol\":243:2044  contract StudyToken is ERC20, Ownable {... */\n      stop\n    tag_21:\n      dup3\n      jumpi(tag_43, callvalue)\n      jumpi(tag_43, slt(add(not(0x03), calldatasize), 0x20))\n      0x20\n      swap1\n      sub(shl(0xa0, 0x01), 0x01)\n      tag_118\n      tag_2\n      jump\t// in\n    tag_118:\n      and\n      0x00\n      mstore\n      0x00\n      dup3\n      mstore\n      dup1\n      0x00\n      keccak256\n      sload\n      swap1\n      mload\n      swap1\n      dup2\n      mstore\n      return\n    tag_19:\n      dup3\n      jumpi(tag_43, callvalue)\n      jumpi(tag_43, slt(add(not(0x03), calldatasize), 0x00))\n      0x20\n      swap1\n      mload\n        /* \"@openzeppelin/contracts/token/ERC20/ERC20.sol\":2761:2763  18 */\n      0x12\n        /* \"contracts/StudyToken.sol\":243:2044  contract StudyToken is ERC20, Ownable {... */\n      dup2\n      mstore\n      return\n    tag_17:\n      dup3\n      jumpi(tag_43, callvalue)\n      jumpi(tag_43, slt(add(not(0x03), calldatasize), 0x20))\n      tag_127\n      tag_2\n      jump\t// in\n    tag_127:\n        /* \"@openzeppelin/contracts/access/Ownable.sol\":1500:1562  modifier onlyOwner() {... */\n      tag_128\n      tag_6\n      jump\t// in\n    tag_128:\n      sub(shl(0xa0, 0x01), 0x01)\n        /* \"contracts/StudyToken.sol\":243:2044  contract StudyToken is ERC20, Ownable {... */\n      and\n      0x00\n      dup2\n      dup2\n      mstore\n        /* \"contracts/StudyToken.sol\":1477:1484  minters */\n      0x06\n        /* \"contracts/StudyToken.sol\":243:2044  contract StudyToken is ERC20, Ownable {... */\n      0x20\n      mstore\n      dup3\n      swap1\n      keccak256\n      sload\n      swap1\n      swap3\n      swap1\n      0xff\n      and\n      iszero\n      tag_129\n      jumpi\n      pop\n      dup2\n      0x00\n      mstore\n        /* \"contracts/StudyToken.sol\":1477:1484  minters */\n      0x06\n        /* \"contracts/StudyToken.sol\":243:2044  contract StudyToken is ERC20, Ownable {... */\n      0x20\n      mstore\n      0x00\n      keccak256\n      not(0xff)\n      dup2\n      sload\n      and\n      swap1\n      sstore\n        /* \"contracts/StudyToken.sol\":1566:1587  MinterRemoved(minter) */\n      0xe94479a9f7e1952cc78f2d6baab678adc1b772d936c6583def489e524cb66692\n        /* \"contracts/StudyToken.sol\":243:2044  contract StudyToken is ERC20, Ownable {... */\n      0x00\n        /* \"contracts/StudyToken.sol\":1566:1587  MinterRemoved(minter) */\n      dup1\n      log2\n        /* \"contracts/StudyToken.sol\":243:2044  contract StudyToken is ERC20, Ownable {... */\n      stop\n    tag_129:\n      0x20\n      0x64\n      swap3\n      mload\n      swap2\n      shl(0xe5, 0x461bcd)\n      dup4\n      mstore\n      dup3\n      add\n      mstore\n      0x0c\n      0x24\n      dup3\n      add\n      mstore\n      shl(0xa1, 0x2737ba10309036b4b73a32b9)\n      0x44\n      dup3\n      add\n      mstore\n      revert\n    tag_15:\n      swap1\n      pop\n      jumpi(tag_43, callvalue)\n      jumpi(tag_43, slt(add(not(0x03), calldatasize), 0x60))\n      tag_135\n      tag_2\n      jump\t// in\n    tag_135:\n      tag_136\n      tag_3\n      jump\t// in\n    tag_136:\n      swap1\n      calldataload(0x44)\n      swap3\n      0x01\n      dup1\n      0xa0\n      shl\n      sub\n      dup3\n      and\n      dup1\n      0x00\n      mstore\n      mstore(0x20, 0x01)\n      dup6\n      0x00\n      keccak256\n        /* \"@openzeppelin/contracts/utils/Context.sol\":735:745  msg.sender */\n      caller\n        /* \"contracts/StudyToken.sol\":243:2044  contract StudyToken is ERC20, Ownable {... */\n      0x00\n      mstore\n      0x20\n      mstore\n      dup6\n      0x00\n      keccak256\n      sload\n        /* \"@openzeppelin/contracts/token/ERC20/ERC20.sol\":10580:10597  type(uint256).max */\n      swap2\n      not(0x00)\n        /* \"@openzeppelin/contracts/token/ERC20/ERC20.sol\":10561:10597  currentAllowance < type(uint256).max */\n      dup4\n      lt\n        /* \"@openzeppelin/contracts/token/ERC20/ERC20.sol\":10557:10866  if (currentAllowance < type(uint256).max) {... */\n      tag_137\n      jumpi\n        /* \"contracts/StudyToken.sol\":243:2044  contract StudyToken is ERC20, Ownable {... */\n    tag_138:\n      0x20\n        /* \"@openzeppelin/contracts/token/ERC20/ERC20.sol\":4967:4972  value */\n      dup8\n      tag_64\n      dup9\n      dup9\n      dup9\n      tag_5\n      jump\t// in\n        /* \"@openzeppelin/contracts/token/ERC20/ERC20.sol\":10557:10866  if (currentAllowance < type(uint256).max) {... */\n    tag_137:\n        /* \"@openzeppelin/contracts/token/ERC20/ERC20.sol\":10617:10641  currentAllowance < value */\n      dup6\n      dup4\n      lt\n        /* \"@openzeppelin/contracts/token/ERC20/ERC20.sol\":10613:10743  if (currentAllowance < value) {... */\n      tag_140\n      jumpi\n        /* \"@openzeppelin/contracts/token/ERC20/ERC20.sol\":9794:9813  owner == address(0) */\n      dup2\n      iszero\n        /* \"@openzeppelin/contracts/token/ERC20/ERC20.sol\":9790:9879  if (owner == address(0)) {... */\n      tag_142\n      jumpi\n        /* \"@openzeppelin/contracts/utils/Context.sol\":735:745  msg.sender */\n      caller\n        /* \"@openzeppelin/contracts/token/ERC20/ERC20.sol\":9892:9913  spender == address(0) */\n      iszero\n        /* \"@openzeppelin/contracts/token/ERC20/ERC20.sol\":9888:9978  if (spender == address(0)) {... */\n      tag_144\n      jumpi\n      pop\n        /* \"contracts/StudyToken.sol\":243:2044  contract StudyToken is ERC20, Ownable {... */\n      0x00\n      swap1\n      dup2\n      mstore\n      0x01\n      0x20\n      swap1\n      dup2\n      mstore\n      dup7\n      dup3\n      keccak256\n        /* \"@openzeppelin/contracts/utils/Context.sol\":735:745  msg.sender */\n      caller\n        /* \"contracts/StudyToken.sol\":243:2044  contract StudyToken is ERC20, Ownable {... */\n      dup4\n      mstore\n      dup2\n      mstore\n      swap1\n      dup7\n      swap1\n      keccak256\n      swap2\n      dup6\n      swap1\n      sub\n      swap1\n      swap2\n      sstore\n      dup3\n      swap1\n        /* \"@openzeppelin/contracts/token/ERC20/ERC20.sol\":4967:4972  value */\n      tag_64\n        /* \"@openzeppelin/contracts/token/ERC20/ERC20.sol\":10557:10866  if (currentAllowance < type(uint256).max) {... */\n      jump(tag_138)\n        /* \"@openzeppelin/contracts/token/ERC20/ERC20.sol\":9888:9978  if (spender == address(0)) {... */\n    tag_144:\n        /* \"contracts/StudyToken.sol\":243:2044  contract StudyToken is ERC20, Ownable {... */\n      0x24\n      swap1\n      0x00\n      dup9\n      mload\n        /* \"@openzeppelin/contracts/token/ERC20/ERC20.sol\":9936:9967  ERC20InvalidSpender(address(0)) */\n      swap2\n      shl(0xe1, 0x4a1406b1)\n      dup4\n      mstore\n      dup3\n      add\n        /* \"contracts/StudyToken.sol\":243:2044  contract StudyToken is ERC20, Ownable {... */\n      mstore\n        /* \"@openzeppelin/contracts/token/ERC20/ERC20.sol\":9936:9967  ERC20InvalidSpender(address(0)) */\n      revert\n        /* \"@openzeppelin/contracts/token/ERC20/ERC20.sol\":9790:9879  if (owner == address(0)) {... */\n    tag_142:\n        /* \"contracts/StudyToken.sol\":243:2044  contract StudyToken is ERC20, Ownable {... */\n      0x24\n      swap1\n      0x00\n      dup9\n      mload\n        /* \"@openzeppelin/contracts/token/ERC20/ERC20.sol\":9836:9868  ERC20InvalidApprover(address(0)) */\n      swap2\n      shl(0xe0, 0xe602df05)\n      dup4\n      mstore\n      dup3\n      add\n        /* \"contracts/StudyToken.sol\":243:2044  contract StudyToken is ERC20, Ownable {... */\n      mstore\n        /* \"@openzeppelin/contracts/token/ERC20/ERC20.sol\":9836:9868  ERC20InvalidApprover(address(0)) */\n      revert\n        /* \"@openzeppelin/contracts/token/ERC20/ERC20.sol\":10613:10743  if (currentAllowance < value) {... */\n    tag_140:\n        /* \"contracts/StudyToken.sol\":243:2044  contract StudyToken is ERC20, Ownable {... */\n      dup7\n      mload\n      shl(0xe1, 0x7dc7a0d9)\n        /* \"@openzeppelin/contracts/token/ERC20/ERC20.sol\":10668:10728  ERC20InsufficientAllowance(spender, currentAllowance, value) */\n      dup2\n      mstore\n        /* \"@openzeppelin/contracts/utils/Context.sol\":735:745  msg.sender */\n      caller\n        /* \"@openzeppelin/contracts/token/ERC20/ERC20.sol\":10668:10728  ERC20InsufficientAllowance(spender, currentAllowance, value) */\n      swap2\n      dup2\n      add\n        /* \"contracts/StudyToken.sol\":243:2044  contract StudyToken is ERC20, Ownable {... */\n      swap2\n      dup3\n      mstore\n      0x20\n      dup3\n      add\n      swap4\n      swap1\n      swap4\n      mstore\n      0x40\n      dup2\n      add\n      dup7\n      swap1\n      mstore\n      dup3\n      swap2\n      pop\n      0x60\n      add\n        /* \"@openzeppelin/contracts/token/ERC20/ERC20.sol\":10668:10728  ERC20InsufficientAllowance(spender, currentAllowance, value) */\n      sub\n      swap1\n      revert\n        /* \"contracts/StudyToken.sol\":243:2044  contract StudyToken is ERC20, Ownable {... */\n    tag_13:\n      dup3\n      jumpi(tag_43, callvalue)\n      jumpi(tag_43, slt(add(not(0x03), calldatasize), 0x00))\n      0x20\n      swap1\n        /* \"@openzeppelin/contracts/token/ERC20/ERC20.sol\":2908:2920  _totalSupply */\n      0x02\n        /* \"contracts/StudyToken.sol\":243:2044  contract StudyToken is ERC20, Ownable {... */\n      sload\n      swap1\n      mload\n      swap1\n      dup2\n      mstore\n      return\n    tag_11:\n      dup3\n      jumpi(tag_43, callvalue)\n      dup1\n      add(calldatasize, not(0x03))\n      slt\n      tag_43\n      jumpi\n      tag_155\n      tag_2\n      jump\t// in\n    tag_155:\n      calldataload(0x24)\n        /* \"@openzeppelin/contracts/utils/Context.sol\":735:745  msg.sender */\n      swap1\n      caller\n        /* \"@openzeppelin/contracts/token/ERC20/ERC20.sol\":9794:9813  owner == address(0) */\n      iszero\n        /* \"@openzeppelin/contracts/token/ERC20/ERC20.sol\":9790:9879  if (owner == address(0)) {... */\n      tag_156\n      jumpi\n      sub(shl(0xa0, 0x01), 0x01)\n        /* \"contracts/StudyToken.sol\":243:2044  contract StudyToken is ERC20, Ownable {... */\n      and\n      swap1\n        /* \"@openzeppelin/contracts/token/ERC20/ERC20.sol\":9892:9913  spender == address(0) */\n      dup2\n      iszero\n        /* \"@openzeppelin/contracts/token/ERC20/ERC20.sol\":9888:9978  if (spender == address(0)) {... */\n      tag_158\n      jumpi\n        /* \"contracts/StudyToken.sol\":243:2044  contract StudyToken is ERC20, Ownable {... */\n      0x20\n        /* \"@openzeppelin/contracts/utils/Context.sol\":735:745  msg.sender */\n      swap4\n      pop\n      caller\n        /* \"contracts/StudyToken.sol\":243:2044  contract StudyToken is ERC20, Ownable {... */\n      0x00\n      mstore\n        /* \"@openzeppelin/contracts/token/ERC20/ERC20.sol\":8823:8827  true */\n      0x01\n        /* \"contracts/StudyToken.sol\":243:2044  contract StudyToken is ERC20, Ownable {... */\n      dup5\n      mstore\n      dup3\n      0x00\n      keccak256\n      dup3\n      0x00\n      mstore\n      dup5\n      mstore\n      dup1\n      dup4\n      0x00\n      keccak256\n      sstore\n      dup3\n      mload\n      swap1\n      dup2\n      mstore\n        /* \"@openzeppelin/contracts/token/ERC20/ERC20.sol\":10066:10097  Approval(owner, spender, value) */\n      0x8c5be1e5ebec7d5bd14f71427d1e84f3dd0314c0f7b2291e5b200ac8c7c3b925\n        /* \"@openzeppelin/contracts/utils/Context.sol\":735:745  msg.sender */\n      dup5\n      caller\n        /* \"@openzeppelin/contracts/token/ERC20/ERC20.sol\":10066:10097  Approval(owner, spender, value) */\n      swap3\n      log3\n        /* \"contracts/StudyToken.sol\":243:2044  contract StudyToken is ERC20, Ownable {... */\n      mload\n        /* \"@openzeppelin/contracts/token/ERC20/ERC20.sol\":8823:8827  true */\n      0x01\n        /* \"contracts/StudyToken.sol\":243:2044  contract StudyToken is ERC20, Ownable {... */\n      dup2\n      mstore\n      return\n        /* \"@openzeppelin/contracts/token/ERC20/ERC20.sol\":9888:9978  if (spender == address(0)) {... */\n    tag_158:\n        /* \"contracts/StudyToken.sol\":243:2044  contract StudyToken is ERC20, Ownable {... */\n      dup3\n      mload\n      shl(0xe1, 0x4a1406b1)\n        /* \"@openzeppelin/contracts/token/ERC20/ERC20.sol\":9936:9967  ERC20InvalidSpender(address(0)) */\n      dup2\n      mstore\n        /* \"contracts/StudyToken.sol\":243:2044  contract StudyToken is ERC20, Ownable {... */\n      0x00\n        /* \"@openzeppelin/contracts/token/ERC20/ERC20.sol\":9936:9967  ERC20InvalidSpender(address(0)) */\n      dup2\n      dup7\n      add\n        /* \"contracts/StudyToken.sol\":243:2044  contract StudyToken is ERC20, Ownable {... */\n      mstore\n      0x24\n      swap1\n        /* \"@openzeppelin/contracts/token/ERC20/ERC20.sol\":9936:9967  ERC20InvalidSpender(address(0)) */\n      revert\n        /* \"@openzeppelin/contracts/token/ERC20/ERC20.sol\":9790:9879  if (owner == address(0)) {... */\n    tag_156:\n        /* \"contracts/StudyToken.sol\":243:2044  contract StudyToken is ERC20, Ownable {... */\n      dup3\n      mload\n      shl(0xe0, 0xe602df05)\n        /* \"@openzeppelin/contracts/token/ERC20/ERC20.sol\":9836:9868  ERC20InvalidApprover(address(0)) */\n      dup2\n      mstore\n        /* \"contracts/StudyToken.sol\":243:2044  contract StudyToken is ERC20, Ownable {... */\n      0x00\n        /* \"@openzeppelin/contracts/token/ERC20/ERC20.sol\":9836:9868  ERC20InvalidApprover(address(0)) */\n      dup2\n      dup7\n      add\n        /* \"contracts/StudyToken.sol\":243:2044  contract StudyToken is ERC20, Ownable {... */\n      mstore\n      0x24\n      swap1\n        /* \"@openzeppelin/contracts/token/ERC20/ERC20.sol\":9836:9868  ERC20InvalidApprover(address(0)) */\n      revert\n        /* \"contracts/StudyToken.sol\":243:2044  contract StudyToken is ERC20, Ownable {... */\n    tag_9:\n      dup4\n      jumpi(tag_43, callvalue)\n      jumpi(tag_43, slt(add(not(0x03), calldatasize), 0x00))\n      0x00\n        /* \"@openzeppelin/contracts/token/ERC20/ERC20.sol\":1837:1842  _name */\n      0x03\n        /* \"contracts/StudyToken.sol\":243:2044  contract StudyToken is ERC20, Ownable {... */\n      sload\n      0x01\n      dup2\n      0x01\n      shr\n      swap1\n      0x01\n      dup4\n      and\n      swap3\n      dup4\n      iszero\n      tag_164\n      jumpi\n    tag_165:\n      0x20\n      swap4\n      dup5\n      dup5\n      lt\n      dup2\n      eq\n      tag_93\n      jumpi\n      dup4\n      dup9\n      mstore\n      swap1\n      dup2\n      iszero\n      tag_95\n      jumpi\n      pop\n      0x01\n      eq\n      tag_170\n      jumpi\n      pop\n      pop\n      pop\n      dup3\n      swap1\n      sub\n      0x1f\n      add\n      not(0x1f)\n      and\n      dup3\n      add\n      swap3\n      0xffffffffffffffff\n      dup5\n      gt\n      dup4\n      dup6\n      lt\n      or\n      tag_99\n      jumpi\n      pop\n      dup3\n      swap2\n      dup3\n      tag_101\n      swap3\n      mstore\n      dup3\n      tag_1\n      jump\t// in\n    tag_170:\n        /* \"@openzeppelin/contracts/token/ERC20/ERC20.sol\":1837:1842  _name */\n      0x03\n        /* \"contracts/StudyToken.sol\":243:2044  contract StudyToken is ERC20, Ownable {... */\n      0x00\n      swap1\n      dup2\n      mstore\n      swap3\n      swap4\n      pop\n      dup4\n      0xc2575a0e9e593c00f959f8c92f12db2869c3395a3b0502d05e2516446f71f85b\n    tag_175:\n      dup4\n      dup6\n      lt\n      tag_176\n      jumpi\n      pop\n      pop\n      pop\n      pop\n      dup4\n      add\n      add\n      dup5\n      dup1\n      dup1\n      jump(tag_98)\n    tag_176:\n      dup1\n      sload\n      dup9\n      dup7\n      add\n      dup4\n      add\n      mstore\n      swap4\n      add\n      swap3\n      dup5\n      swap1\n      dup3\n      add\n      jump(tag_175)\n    tag_164:\n      swap2\n      0x7f\n      and\n      swap2\n      jump(tag_165)\n    tag_1:\n      0x20\n      dup1\n      dup3\n      mstore\n      dup3\n      mload\n      dup2\n      dup4\n      add\n      dup2\n      swap1\n      mstore\n      swap1\n      swap4\n      swap3\n      0x00\n    tag_178:\n      dup3\n      dup2\n      lt\n      tag_179\n      jumpi\n      pop\n      pop\n      0x40\n      swap3\n      swap4\n      pop\n      0x00\n      dup4\n      dup3\n      dup5\n      add\n      add\n      mstore\n      0x1f\n      dup1\n      not\n      swap2\n      add\n      and\n      add\n      add\n      swap1\n      jump\t// out\n    tag_179:\n      dup2\n      dup2\n      add\n      dup7\n      add\n      mload\n      dup5\n      dup3\n      add\n      0x40\n      add\n      mstore\n      dup6\n      add\n      jump(tag_178)\n    tag_2:\n      calldataload(0x04)\n      swap1\n      sub(shl(0xa0, 0x01), 0x01)\n      dup3\n      and\n      dup3\n      sub\n      tag_43\n      jumpi\n      jump\t// out\n    tag_3:\n      calldataload(0x24)\n      swap1\n      sub(shl(0xa0, 0x01), 0x01)\n      dup3\n      and\n      dup3\n      sub\n      tag_43\n      jumpi\n      jump\t// out\n        /* \"@openzeppelin/contracts/token/ERC20/ERC20.sol\":5374:5674  function _transfer(address from, address to, uint256 value) internal {... */\n    tag_5:\n      swap2\n      sub(shl(0xa0, 0x01), 0x01)\n        /* \"contracts/StudyToken.sol\":243:2044  contract StudyToken is ERC20, Ownable {... */\n      dup1\n      dup5\n      and\n      swap3\n        /* \"@openzeppelin/contracts/token/ERC20/ERC20.sol\":5457:5475  from == address(0) */\n      dup4\n      iszero\n        /* \"@openzeppelin/contracts/token/ERC20/ERC20.sol\":5453:5539  if (from == address(0)) {... */\n      tag_185\n      jumpi\n        /* \"contracts/StudyToken.sol\":243:2044  contract StudyToken is ERC20, Ownable {... */\n      and\n        /* \"@openzeppelin/contracts/token/ERC20/ERC20.sol\":5552:5568  to == address(0) */\n      swap3\n      dup4\n      iszero\n        /* \"@openzeppelin/contracts/token/ERC20/ERC20.sol\":5548:5634  if (to == address(0)) {... */\n      tag_187\n      jumpi\n        /* \"contracts/StudyToken.sol\":243:2044  contract StudyToken is ERC20, Ownable {... */\n      dup3\n        /* \"@openzeppelin/contracts/token/ERC20/ERC20.sol\":6074:6614  if (from == address(0)) {... */\n      0x00\n        /* \"contracts/StudyToken.sol\":243:2044  contract StudyToken is ERC20, Ownable {... */\n      mstore\n        /* \"@openzeppelin/contracts/token/ERC20/ERC20.sol\":6074:6614  if (from == address(0)) {... */\n      0x00\n        /* \"contracts/StudyToken.sol\":243:2044  contract StudyToken is ERC20, Ownable {... */\n      0x20\n      mstore\n      0x40\n        /* \"@openzeppelin/contracts/token/ERC20/ERC20.sol\":6074:6614  if (from == address(0)) {... */\n      0x00\n        /* \"contracts/StudyToken.sol\":243:2044  contract StudyToken is ERC20, Ownable {... */\n      keccak256\n      sload\n        /* \"@openzeppelin/contracts/token/ERC20/ERC20.sol\":6321:6340  fromBalance < value */\n      swap1\n      dup3\n      dup3\n      lt\n        /* \"@openzeppelin/contracts/token/ERC20/ERC20.sol\":6317:6432  if (fromBalance < value) {... */\n      tag_189\n      jumpi\n        /* \"contracts/StudyToken.sol\":243:2044  contract StudyToken is ERC20, Ownable {... */\n      pop\n      dup2\n        /* \"@openzeppelin/contracts/token/ERC20/ERC20.sol\":7064:7089  Transfer(from, to, value) */\n      0xddf252ad1be2c89b69c2b068fc378daa952ba7f163c4a11628f55a4df523b3ef\n        /* \"contracts/StudyToken.sol\":243:2044  contract StudyToken is ERC20, Ownable {... */\n      swap3\n      0x20\n      swap3\n      dup6\n        /* \"@openzeppelin/contracts/token/ERC20/ERC20.sol\":6074:6614  if (from == address(0)) {... */\n      0x00\n        /* \"contracts/StudyToken.sol\":243:2044  contract StudyToken is ERC20, Ownable {... */\n      mstore\n        /* \"@openzeppelin/contracts/token/ERC20/ERC20.sol\":6074:6614  if (from == address(0)) {... */\n      0x00\n        /* \"contracts/StudyToken.sol\":243:2044  contract StudyToken is ERC20, Ownable {... */\n      dup5\n      mstore\n      sub\n      0x40\n        /* \"@openzeppelin/contracts/token/ERC20/ERC20.sol\":6074:6614  if (from == address(0)) {... */\n      0x00\n        /* \"contracts/StudyToken.sol\":243:2044  contract StudyToken is ERC20, Ownable {... */\n      keccak256\n      sstore\n      dup5\n        /* \"@openzeppelin/contracts/token/ERC20/ERC20.sol\":6074:6614  if (from == address(0)) {... */\n      0x00\n        /* \"contracts/StudyToken.sol\":243:2044  contract StudyToken is ERC20, Ownable {... */\n      mstore\n      0x40\n        /* \"@openzeppelin/contracts/token/ERC20/ERC20.sol\":6074:6614  if (from == address(0)) {... */\n      0x00\n        /* \"contracts/StudyToken.sol\":243:2044  contract StudyToken is ERC20, Ownable {... */\n      keccak256\n      dup2\n      dup2\n      sload\n      add\n      swap1\n      sstore\n      mload(0x40)\n      swap1\n      dup2\n      mstore\n        /* \"@openzeppelin/contracts/token/ERC20/ERC20.sol\":7064:7089  Transfer(from, to, value) */\n      log3\n        /* \"@openzeppelin/contracts/token/ERC20/ERC20.sol\":5374:5674  function _transfer(address from, address to, uint256 value) internal {... */\n      jump\t// out\n        /* \"@openzeppelin/contracts/token/ERC20/ERC20.sol\":6317:6432  if (fromBalance < value) {... */\n    tag_189:\n        /* \"contracts/StudyToken.sol\":243:2044  contract StudyToken is ERC20, Ownable {... */\n      mload(0x40)\n      shl(0xe2, 0x391434e3)\n        /* \"@openzeppelin/contracts/token/ERC20/ERC20.sol\":6367:6417  ERC20InsufficientBalance(from, fromBalance, value) */\n      dup2\n      mstore\n      sub(shl(0xa0, 0x01), 0x01)\n        /* \"contracts/StudyToken.sol\":243:2044  contract StudyToken is ERC20, Ownable {... */\n      swap2\n      swap1\n      swap2\n      and\n        /* \"@openzeppelin/contracts/token/ERC20/ERC20.sol\":6367:6417  ERC20InsufficientBalance(from, fromBalance, value) */\n      0x04\n      dup3\n      add\n        /* \"contracts/StudyToken.sol\":243:2044  contract StudyToken is ERC20, Ownable {... */\n      mstore\n      0x24\n      dup2\n      add\n      swap2\n      swap1\n      swap2\n      mstore\n      0x44\n      dup2\n      add\n      dup3\n      swap1\n      mstore\n      0x64\n      swap1\n        /* \"@openzeppelin/contracts/token/ERC20/ERC20.sol\":10668:10728  ERC20InsufficientAllowance(spender, currentAllowance, value) */\n      revert\n        /* \"@openzeppelin/contracts/token/ERC20/ERC20.sol\":5548:5634  if (to == address(0)) {... */\n    tag_187:\n        /* \"contracts/StudyToken.sol\":243:2044  contract StudyToken is ERC20, Ownable {... */\n      mload(0x40)\n      shl(0xe0, 0xec442f05)\n        /* \"@openzeppelin/contracts/token/ERC20/ERC20.sol\":5591:5623  ERC20InvalidReceiver(address(0)) */\n      dup2\n      mstore\n        /* \"@openzeppelin/contracts/token/ERC20/ERC20.sol\":5473:5474  0 */\n      0x00\n        /* \"@openzeppelin/contracts/token/ERC20/ERC20.sol\":5591:5623  ERC20InvalidReceiver(address(0)) */\n      0x04\n      dup3\n      add\n        /* \"contracts/StudyToken.sol\":243:2044  contract StudyToken is ERC20, Ownable {... */\n      mstore\n      0x24\n      swap1\n        /* \"@openzeppelin/contracts/token/ERC20/ERC20.sol\":5591:5623  ERC20InvalidReceiver(address(0)) */\n      revert\n        /* \"@openzeppelin/contracts/token/ERC20/ERC20.sol\":5453:5539  if (from == address(0)) {... */\n    tag_185:\n        /* \"contracts/StudyToken.sol\":243:2044  contract StudyToken is ERC20, Ownable {... */\n      mload(0x40)\n      shl(0xe1, 0x4b637e8f)\n        /* \"@openzeppelin/contracts/token/ERC20/ERC20.sol\":5498:5528  ERC20InvalidSender(address(0)) */\n      dup2\n      mstore\n        /* \"@openzeppelin/contracts/token/ERC20/ERC20.sol\":5473:5474  0 */\n      0x00\n        /* \"@openzeppelin/contracts/token/ERC20/ERC20.sol\":5498:5528  ERC20InvalidSender(address(0)) */\n      0x04\n      dup3\n      add\n        /* \"contracts/StudyToken.sol\":243:2044  contract StudyToken is ERC20, Ownable {... */\n      mstore\n      0x24\n      swap1\n        /* \"@openzeppelin/contracts/token/ERC20/ERC20.sol\":5498:5528  ERC20InvalidSender(address(0)) */\n      revert\n        /* \"@openzeppelin/contracts/access/Ownable.sol\":1796:1958  function _checkOwner() internal view virtual {... */\n    tag_6:\n        /* \"@openzeppelin/contracts/access/Ownable.sol\":1710:1716  _owner */\n      0x05\n        /* \"contracts/StudyToken.sol\":243:2044  contract StudyToken is ERC20, Ownable {... */\n      sload\n      sub(shl(0xa0, 0x01), 0x01)\n      and\n        /* \"@openzeppelin/contracts/utils/Context.sol\":735:745  msg.sender */\n      caller\n        /* \"@openzeppelin/contracts/access/Ownable.sol\":1855:1878  owner() != _msgSender() */\n      sub\n        /* \"@openzeppelin/contracts/access/Ownable.sol\":1851:1952  if (owner() != _msgSender()) {... */\n      tag_192\n      jumpi\n        /* \"@openzeppelin/contracts/access/Ownable.sol\":1796:1958  function _checkOwner() internal view virtual {... */\n      jump\t// out\n        /* \"@openzeppelin/contracts/access/Ownable.sol\":1851:1952  if (owner() != _msgSender()) {... */\n    tag_192:\n        /* \"contracts/StudyToken.sol\":243:2044  contract StudyToken is ERC20, Ownable {... */\n      mload(0x40)\n      shl(0xe0, 0x118cdaa7)\n        /* \"@openzeppelin/contracts/access/Ownable.sol\":1901:1941  OwnableUnauthorizedAccount(_msgSender()) */\n      dup2\n      mstore\n        /* \"@openzeppelin/contracts/utils/Context.sol\":735:745  msg.sender */\n      caller\n        /* \"@openzeppelin/contracts/access/Ownable.sol\":1901:1941  OwnableUnauthorizedAccount(_msgSender()) */\n      0x04\n      dup3\n      add\n        /* \"contracts/StudyToken.sol\":243:2044  contract StudyToken is ERC20, Ownable {... */\n      mstore\n      0x24\n      swap1\n        /* \"@openzeppelin/contracts/access/Ownable.sol\":1901:1941  OwnableUnauthorizedAccount(_msgSender()) */\n      revert\n\n    auxdata: 0xa264697066735822122076bfdf517fc2125b24ecde90e4f980afd793a97aa7b3a265d8c31fc95b014b5f64736f6c63430008180033\n}\n",
				"bytecode": {
					"linkReferences": {},
					"object": "608034620003f057601f1990601f6001600160401b0362000f25388190038381018616850183811186821017620002ff57859282916040528339602094859181010312620003f057519362000053620003f4565b91600a83526929ba3ab23caa37b5b2b760b11b8584015262000074620003f4565b9360059384865264535455445960d81b87870152805191838311620002ff5760039283546001938482811c92168015620003e5575b8b831014620003d157818484931162000380575b508a908483116001146200031f575f9262000313575b50505f1982861b1c191690831b1783555b8651938411620002ff5760049687548381811c91168015620002f4575b8a821014620002e1578281116200029b575b50889185116001146200023657849550908492915f956200022a575b50501b925f19911b1c19161782555b331562000213578054336001600160a01b0319821681179092556001600160a01b03167f8be0079c531659141344cd1fd0a4f28419497f9722a3daafe3b4186f6b6457e05f80a3670de0b6b3a7640000928381029381850414901517156200020057600254908382018092116200020057505f917fddf252ad1be2c89b69c2b068fc378daa952ba7f163c4a11628f55a4df523b3ef91600255338352828152604083208481540190556040519384523393a3604051610b109081620004158239f35b601190634e487b7160e01b5f525260245ffd5b604051631e4fbdf760e01b81525f81840152602490fd5b015193505f806200012f565b929194841692875f5284895f20945f5b8b8983831062000283575050501062000269575b50505050811b0182556200013e565b01519060f8845f19921b161c191690555f8080806200025a565b86860151895590970196948501948893500162000246565b885f52895f20838088018a1c8201928c8910620002d7575b01891c019084905b828110620002cb57505062000113565b5f8155018490620002bb565b92508192620002b3565b602289634e487b7160e01b5f525260245ffd5b90607f169062000101565b634e487b7160e01b5f52604160045260245ffd5b015190505f80620000d3565b908886941691875f528c5f20928d5f905b82821062000368575050841162000350575b505050811b018355620000e4565b01515f1983881b60f8161c191690555f808062000342565b83850151865589979095019493840193018e62000330565b909150855f528a5f20848085018b1c8201928d8610620003c7575b91879186959493018c1c01915b828110620003b8575050620000bd565b5f8155859450879101620003a8565b925081926200039b565b634e487b7160e01b5f52602260045260245ffd5b91607f1691620000a9565b5f80fd5b60408051919082016001600160401b03811183821017620002ff5760405256fe6080604090808252600480361015610015575f80fd5b5f3560e01c91826306fdde031461088957508163095ea7b3146107e157816318160ddd146107c357816323b872dd146106d15781633092afd514610624578163313ce5671461060957816370a08231146105d3578163715018a6146105785781638da5cb5b1461055057816395d89b4114610431578163983b2d56146103405781639a49090e14610217578163a9059cbb146101e7578163dd62ed3e1461019e578163f2fde38b1461010f575063f46eccc4146100d0575f80fd5b3461010b57602036600319011261010b576020906001600160a01b036100f46109a8565b165f526006825260ff815f20541690519015158152f35b5f80fd5b90503461010b57602036600319011261010b5761012a6109a8565b90610133610aae565b6001600160a01b03918216928315610188575050600554826bffffffffffffffffffffffff60a01b821617600555167f8be0079c531659141344cd1fd0a4f28419497f9722a3daafe3b4186f6b6457e05f80a3005b905f6024925191631e4fbdf760e01b8352820152fd5b823461010b578060031936011261010b576020906101ba6109a8565b6101c26109be565b9060018060a01b038091165f5260018452825f2091165f528252805f20549051908152f35b823461010b578060031936011261010b576020906102106102066109a8565b60243590336109d4565b5160018152f35b823461010b578060031936011261010b576102306109a8565b9060243591335f52600660205260ff825f205416156102fd576001600160a01b03169283156102bb57600254908382018092116102a857505f927fddf252ad1be2c89b69c2b068fc378daa952ba7f163c4a11628f55a4df523b3ef9260209260025585855284835280852082815401905551908152a3005b601190634e487b7160e01b5f525260245ffd5b6020606492519162461bcd60e51b8352820152601b60248201527f43616e6e6f74206d696e7420746f207a65726f206164647265737300000000006044820152fd5b815162461bcd60e51b8152602081860152601d60248201527f4f6e6c79206d696e746572732063616e206d696e7420726577617264730000006044820152606490fd5b823461010b57602036600319011261010b5761035a6109a8565b610362610aae565b6001600160a01b03169182156103f657825f52600660205260ff825f2054166103c15750815f5260066020525f20600160ff198254161790557f6ae172837ea30b801fbfcdd4108aa1d5bf8ff775444fd70256b44e6bf3dfc3f65f80a2005b6020606492519162461bcd60e51b8352820152601060248201526f20b63932b0b23c90309036b4b73a32b960811b6044820152fd5b6020606492519162461bcd60e51b83528201526016602482015275496e76616c6964206d696e746572206164647265737360501b6044820152fd5b823461010b575f36600319011261010b578051905f835460018160011c9060018316928315610546575b60209384841081146105335783885290811561051757506001146104c3575b505050829003601f01601f191682019267ffffffffffffffff8411838510176104b057508291826104ac925282610961565b0390f35b604190634e487b7160e01b5f525260245ffd5b5f878152929350837f8a35acfbc15ff81a39ae7d344fd709f28e8600b4aa8c65c6b64bfe7fe36bd19b5b838510610503575050505083010184808061047a565b8054888601830152930192849082016104ed565b60ff1916878501525050151560051b840101905084808061047a565b602289634e487b7160e01b5f525260245ffd5b91607f169161045b565b823461010b575f36600319011261010b5760055490516001600160a01b039091168152602090f35b3461010b575f36600319011261010b57610590610aae565b600580546001600160a01b031981169091555f906001600160a01b03167f8be0079c531659141344cd1fd0a4f28419497f9722a3daafe3b4186f6b6457e08280a3005b823461010b57602036600319011261010b576020906001600160a01b036105f86109a8565b165f525f8252805f20549051908152f35b823461010b575f36600319011261010b576020905160128152f35b823461010b57602036600319011261010b5761063e6109a8565b610646610aae565b6001600160a01b03165f81815260066020528290205490929060ff16156106a05750815f5260066020525f2060ff1981541690557fe94479a9f7e1952cc78f2d6baab678adc1b772d936c6583def489e524cb666925f80a2005b6020606492519162461bcd60e51b8352820152600c60248201526b2737ba10309036b4b73a32b960a11b6044820152fd5b90503461010b57606036600319011261010b576106ec6109a8565b6106f46109be565b906044359260018060a01b038216805f526001602052855f20335f52602052855f2054915f19831061072f575b6020876102108888886109d4565b85831061079757811561078157331561076b57505f90815260016020908152868220338352815290869020918590039091558290610210610721565b6024905f885191634a1406b160e11b8352820152fd5b6024905f88519163e602df0560e01b8352820152fd5b8651637dc7a0d960e11b8152339181019182526020820193909352604081018690528291506060010390fd5b823461010b575f36600319011261010b576020906002549051908152f35b823461010b578060031936011261010b576107fa6109a8565b602435903315610873576001600160a01b031690811561085d5760209350335f5260018452825f20825f52845280835f205582519081527f8c5be1e5ebec7d5bd14f71427d1e84f3dd0314c0f7b2291e5b200ac8c7c3b925843392a35160018152f35b8251634a1406b160e11b81525f81860152602490fd5b825163e602df0560e01b81525f81860152602490fd5b833461010b575f36600319011261010b575f60035460018160011c9060018316928315610957575b602093848410811461053357838852908115610517575060011461090157505050829003601f01601f191682019267ffffffffffffffff8411838510176104b057508291826104ac925282610961565b60035f908152929350837fc2575a0e9e593c00f959f8c92f12db2869c3395a3b0502d05e2516446f71f85b5b838510610943575050505083010184808061047a565b80548886018301529301928490820161092d565b91607f16916108b1565b602080825282518183018190529093925f5b82811061099457505060409293505f838284010152601f8019910116010190565b818101860151848201604001528501610973565b600435906001600160a01b038216820361010b57565b602435906001600160a01b038216820361010b57565b916001600160a01b03808416928315610a965716928315610a7e57825f525f60205260405f205490828210610a4c5750817fddf252ad1be2c89b69c2b068fc378daa952ba7f163c4a11628f55a4df523b3ef92602092855f525f84520360405f2055845f5260405f20818154019055604051908152a3565b60405163391434e360e21b81526001600160a01b03919091166004820152602481019190915260448101829052606490fd5b60405163ec442f0560e01b81525f6004820152602490fd5b604051634b637e8f60e11b81525f6004820152602490fd5b6005546001600160a01b03163303610ac257565b60405163118cdaa760e01b8152336004820152602490fdfea264697066735822122076bfdf517fc2125b24ecde90e4f980afd793a97aa7b3a265d8c31fc95b014b5f64736f6c63430008180033",
					"opcodes": "PUSH1 0x80 CALLVALUE PUSH3 0x3F0 JUMPI PUSH1 0x1F NOT SWAP1 PUSH1 0x1F PUSH1 0x1 PUSH1 0x1 PUSH1 0x40 SHL SUB PUSH3 0xF25 CODESIZE DUP2 SWAP1 SUB DUP4 DUP2 ADD DUP7 AND DUP6 ADD DUP4 DUP2 GT DUP7 DUP3 LT OR PUSH3 0x2FF JUMPI DUP6 SWAP3 DUP3 SWAP2 PUSH1 0x40 MSTORE DUP4 CODECOPY PUSH1 0x20 SWAP5 DUP6 SWAP2 DUP2 ADD SUB SLT PUSH3 0x3F0 JUMPI MLOAD SWAP4 PUSH3 0x53 PUSH3 0x3F4 JUMP JUMPDEST SWAP2 PUSH1 0xA DUP4 MSTORE PUSH10 0x29BA3AB23CAA37B5B2B7 PUSH1 0xB1 SHL DUP6 DUP5 ADD MSTORE PUSH3 0x74 PUSH3 0x3F4 JUMP JUMPDEST SWAP4 PUSH1 0x5 SWAP4 DUP5 DUP7 MSTORE PUSH5 0x5354554459 PUSH1 0xD8 SHL DUP8 DUP8 ADD MSTORE DUP1 MLOAD SWAP2 DUP4 DUP4 GT PUSH3 0x2FF JUMPI PUSH1 0x3 SWAP3 DUP4 SLOAD PUSH1 0x1 SWAP4 DUP5 DUP3 DUP2 SHR SWAP3 AND DUP1 ISZERO PUSH3 0x3E5 JUMPI JUMPDEST DUP12 DUP4 LT EQ PUSH3 0x3D1 JUMPI DUP2 DUP5 DUP5 SWAP4 GT PUSH3 0x380 JUMPI JUMPDEST POP DUP11 SWAP1 DUP5 DUP4 GT PUSH1 0x1 EQ PUSH3 0x31F JUMPI PUSH0 SWAP3 PUSH3 0x313 JUMPI JUMPDEST POP POP PUSH0 NOT DUP3 DUP7 SHL SHR NOT AND SWAP1 DUP4 SHL OR DUP4 SSTORE JUMPDEST DUP7 MLOAD SWAP4 DUP5 GT PUSH3 0x2FF JUMPI PUSH1 0x4 SWAP7 DUP8 SLOAD DUP4 DUP2 DUP2 SHR SWAP2 AND DUP1 ISZERO PUSH3 0x2F4 JUMPI JUMPDEST DUP11 DUP3 LT EQ PUSH3 0x2E1 JUMPI DUP3 DUP2 GT PUSH3 0x29B JUMPI JUMPDEST POP DUP9 SWAP2 DUP6 GT PUSH1 0x1 EQ PUSH3 0x236 JUMPI DUP5 SWAP6 POP SWAP1 DUP5 SWAP3 SWAP2 PUSH0 SWAP6 PUSH3 0x22A JUMPI JUMPDEST POP POP SHL SWAP3 PUSH0 NOT SWAP2 SHL SHR NOT AND OR DUP3 SSTORE JUMPDEST CALLER ISZERO PUSH3 0x213 JUMPI DUP1 SLOAD CALLER PUSH1 0x1 PUSH1 0x1 PUSH1 0xA0 SHL SUB NOT DUP3 AND DUP2 OR SWAP1 SWAP3 SSTORE PUSH1 0x1 PUSH1 0x1 PUSH1 0xA0 SHL SUB AND PUSH32 0x8BE0079C531659141344CD1FD0A4F28419497F9722A3DAAFE3B4186F6B6457E0 PUSH0 DUP1 LOG3 PUSH8 0xDE0B6B3A7640000 SWAP3 DUP4 DUP2 MUL SWAP4 DUP2 DUP6 DIV EQ SWAP1 ISZERO OR ISZERO PUSH3 0x200 JUMPI PUSH1 0x2 SLOAD SWAP1 DUP4 DUP3 ADD DUP1 SWAP3 GT PUSH3 0x200 JUMPI POP PUSH0 SWAP2 PUSH32 0xDDF252AD1BE2C89B69C2B068FC378DAA952BA7F163C4A11628F55A4DF523B3EF SWAP2 PUSH1 0x2 SSTORE CALLER DUP4 MSTORE DUP3 DUP2 MSTORE PUSH1 0x40 DUP4 KECCAK256 DUP5 DUP2 SLOAD ADD SWAP1 SSTORE PUSH1 0x40 MLOAD SWAP4 DUP5 MSTORE CALLER SWAP4 LOG3 PUSH1 0x40 MLOAD PUSH2 0xB10 SWAP1 DUP2 PUSH3 0x415 DUP3 CODECOPY RETURN JUMPDEST PUSH1 0x11 SWAP1 PUSH4 0x4E487B71 PUSH1 0xE0 SHL PUSH0 MSTORE MSTORE PUSH1 0x24 PUSH0 REVERT JUMPDEST PUSH1 0x40 MLOAD PUSH4 0x1E4FBDF7 PUSH1 0xE0 SHL DUP2 MSTORE PUSH0 DUP2 DUP5 ADD MSTORE PUSH1 0x24 SWAP1 REVERT JUMPDEST ADD MLOAD SWAP4 POP PUSH0 DUP1 PUSH3 0x12F JUMP JUMPDEST SWAP3 SWAP2 SWAP5 DUP5 AND SWAP3 DUP8 PUSH0 MSTORE DUP5 DUP10 PUSH0 KECCAK256 SWAP5 PUSH0 JUMPDEST DUP12 DUP10 DUP4 DUP4 LT PUSH3 0x283 JUMPI POP POP POP LT PUSH3 0x269 JUMPI JUMPDEST POP POP POP POP DUP2 SHL ADD DUP3 SSTORE PUSH3 0x13E JUMP JUMPDEST ADD MLOAD SWAP1 PUSH1 0xF8 DUP5 PUSH0 NOT SWAP3 SHL AND SHR NOT AND SWAP1 SSTORE PUSH0 DUP1 DUP1 DUP1 PUSH3 0x25A JUMP JUMPDEST DUP7 DUP7 ADD MLOAD DUP10 SSTORE SWAP1 SWAP8 ADD SWAP7 SWAP5 DUP6 ADD SWAP5 DUP9 SWAP4 POP ADD PUSH3 0x246 JUMP JUMPDEST DUP9 PUSH0 MSTORE DUP10 PUSH0 KECCAK256 DUP4 DUP1 DUP9 ADD DUP11 SHR DUP3 ADD SWAP3 DUP13 DUP10 LT PUSH3 0x2D7 JUMPI JUMPDEST ADD DUP10 SHR ADD SWAP1 DUP5 SWAP1 JUMPDEST DUP3 DUP2 LT PUSH3 0x2CB JUMPI POP POP PUSH3 0x113 JUMP JUMPDEST PUSH0 DUP2 SSTORE ADD DUP5 SWAP1 PUSH3 0x2BB JUMP JUMPDEST SWAP3 POP DUP2 SWAP3 PUSH3 0x2B3 JUMP JUMPDEST PUSH1 0x22 DUP10 PUSH4 0x4E487B71 PUSH1 0xE0 SHL PUSH0 MSTORE MSTORE PUSH1 0x24 PUSH0 REVERT JUMPDEST SWAP1 PUSH1 0x7F AND SWAP1 PUSH3 0x101 JUMP JUMPDEST PUSH4 0x4E487B71 PUSH1 0xE0 SHL PUSH0 MSTORE PUSH1 0x41 PUSH1 0x4 MSTORE PUSH1 0x24 PUSH0 REVERT JUMPDEST ADD MLOAD SWAP1 POP PUSH0 DUP1 PUSH3 0xD3 JUMP JUMPDEST SWAP1 DUP9 DUP7 SWAP5 AND SWAP2 DUP8 PUSH0 MSTORE DUP13 PUSH0 KECCAK256 SWAP3 DUP14 PUSH0 SWAP1 JUMPDEST DUP3 DUP3 LT PUSH3 0x368 JUMPI POP POP DUP5 GT PUSH3 0x350 JUMPI JUMPDEST POP POP POP DUP2 SHL ADD DUP4 SSTORE PUSH3 0xE4 JUMP JUMPDEST ADD MLOAD PUSH0 NOT DUP4 DUP9 SHL PUSH1 0xF8 AND SHR NOT AND SWAP1 SSTORE PUSH0 DUP1 DUP1 PUSH3 0x342 JUMP JUMPDEST DUP4 DUP6 ADD MLOAD DUP7 SSTORE DUP10 SWAP8 SWAP1 SWAP6 ADD SWAP5 SWAP4 DUP5 ADD SWAP4 ADD DUP15 PUSH3 0x330 JUMP JUMPDEST SWAP1 SWAP2 POP DUP6 PUSH0 MSTORE DUP11 PUSH0 KECCAK256 DUP5 DUP1 DUP6 ADD DUP12 SHR DUP3 ADD SWAP3 DUP14 DUP7 LT PUSH3 0x3C7 JUMPI JUMPDEST SWAP2 DUP8 SWAP2 DUP7 SWAP6 SWAP5 SWAP4 ADD DUP13 SHR ADD SWAP2 JUMPDEST DUP3 DUP2 LT PUSH3 0x3B8 JUMPI POP POP PUSH3 0xBD JUMP JUMPDEST PUSH0 DUP2 SSTORE DUP6 SWAP5 POP DUP8 SWAP2 ADD PUSH3 0x3A8 JUMP JUMPDEST SWAP3 POP DUP2 SWAP3 PUSH3 0x39B JUMP JUMPDEST PUSH4 0x4E487B71 PUSH1 0xE0 SHL PUSH0 MSTORE PUSH1 0x22 PUSH1 0x4 MSTORE PUSH1 0x24 PUSH0 REVERT JUMPDEST SWAP2 PUSH1 0x7F AND SWAP2 PUSH3 0xA9 JUMP JUMPDEST PUSH0 DUP1 REVERT JUMPDEST PUSH1 0x40 DUP1 MLOAD SWAP2 SWAP1 DUP3 ADD PUSH1 0x1 PUSH1 0x1 PUSH1 0x40 SHL SUB DUP2 GT DUP4 DUP3 LT OR PUSH3 0x2FF JUMPI PUSH1 0x40 MSTORE JUMP INVALID PUSH1 0x80 PUSH1 0x40 SWAP1 DUP1 DUP3 MSTORE PUSH1 0x4 DUP1 CALLDATASIZE LT ISZERO PUSH2 0x15 JUMPI PUSH0 DUP1 REVERT JUMPDEST PUSH0 CALLDATALOAD PUSH1 0xE0 SHR SWAP2 DUP3 PUSH4 0x6FDDE03 EQ PUSH2 0x889 JUMPI POP DUP2 PUSH4 0x95EA7B3 EQ PUSH2 0x7E1 JUMPI DUP2 PUSH4 0x18160DDD EQ PUSH2 0x7C3 JUMPI DUP2 PUSH4 0x23B872DD EQ PUSH2 0x6D1 JUMPI DUP2 PUSH4 0x3092AFD5 EQ PUSH2 0x624 JUMPI DUP2 PUSH4 0x313CE567 EQ PUSH2 0x609 JUMPI DUP2 PUSH4 0x70A08231 EQ PUSH2 0x5D3 JUMPI DUP2 PUSH4 0x715018A6 EQ PUSH2 0x578 JUMPI DUP2 PUSH4 0x8DA5CB5B EQ PUSH2 0x550 JUMPI DUP2 PUSH4 0x95D89B41 EQ PUSH2 0x431 JUMPI DUP2 PUSH4 0x983B2D56 EQ PUSH2 0x340 JUMPI DUP2 PUSH4 0x9A49090E EQ PUSH2 0x217 JUMPI DUP2 PUSH4 0xA9059CBB EQ PUSH2 0x1E7 JUMPI DUP2 PUSH4 0xDD62ED3E EQ PUSH2 0x19E JUMPI DUP2 PUSH4 0xF2FDE38B EQ PUSH2 0x10F JUMPI POP PUSH4 0xF46ECCC4 EQ PUSH2 0xD0 JUMPI PUSH0 DUP1 REVERT JUMPDEST CALLVALUE PUSH2 0x10B JUMPI PUSH1 0x20 CALLDATASIZE PUSH1 0x3 NOT ADD SLT PUSH2 0x10B JUMPI PUSH1 0x20 SWAP1 PUSH1 0x1 PUSH1 0x1 PUSH1 0xA0 SHL SUB PUSH2 0xF4 PUSH2 0x9A8 JUMP JUMPDEST AND PUSH0 MSTORE PUSH1 0x6 DUP3 MSTORE PUSH1 0xFF DUP2 PUSH0 KECCAK256 SLOAD AND SWAP1 MLOAD SWAP1 ISZERO ISZERO DUP2 MSTORE RETURN JUMPDEST PUSH0 DUP1 REVERT JUMPDEST SWAP1 POP CALLVALUE PUSH2 0x10B JUMPI PUSH1 0x20 CALLDATASIZE PUSH1 0x3 NOT ADD SLT PUSH2 0x10B JUMPI PUSH2 0x12A PUSH2 0x9A8 JUMP JUMPDEST SWAP1 PUSH2 0x133 PUSH2 0xAAE JUMP JUMPDEST PUSH1 0x1 PUSH1 0x1 PUSH1 0xA0 SHL SUB SWAP2 DUP3 AND SWAP3 DUP4 ISZERO PUSH2 0x188 JUMPI POP POP PUSH1 0x5 SLOAD DUP3 PUSH12 0xFFFFFFFFFFFFFFFFFFFFFFFF PUSH1 0xA0 SHL DUP3 AND OR PUSH1 0x5 SSTORE AND PUSH32 0x8BE0079C531659141344CD1FD0A4F28419497F9722A3DAAFE3B4186F6B6457E0 PUSH0 DUP1 LOG3 STOP JUMPDEST SWAP1 PUSH0 PUSH1 0x24 SWAP3 MLOAD SWAP2 PUSH4 0x1E4FBDF7 PUSH1 0xE0 SHL DUP4 MSTORE DUP3 ADD MSTORE REVERT JUMPDEST DUP3 CALLVALUE PUSH2 0x10B JUMPI DUP1 PUSH1 0x3 NOT CALLDATASIZE ADD SLT PUSH2 0x10B JUMPI PUSH1 0x20 SWAP1 PUSH2 0x1BA PUSH2 0x9A8 JUMP JUMPDEST PUSH2 0x1C2 PUSH2 0x9BE JUMP JUMPDEST SWAP1 PUSH1 0x1 DUP1 PUSH1 0xA0 SHL SUB DUP1 SWAP2 AND PUSH0 MSTORE PUSH1 0x1 DUP5 MSTORE DUP3 PUSH0 KECCAK256 SWAP2 AND PUSH0 MSTORE DUP3 MSTORE DUP1 PUSH0 KECCAK256 SLOAD SWAP1 MLOAD SWAP1 DUP2 MSTORE RETURN JUMPDEST DUP3 CALLVALUE PUSH2 0x10B JUMPI DUP1 PUSH1 0x3 NOT CALLDATASIZE ADD SLT PUSH2 0x10B JUMPI PUSH1 0x20 SWAP1 PUSH2 0x210 PUSH2 0x206 PUSH2 0x9A8 JUMP JUMPDEST PUSH1 0x24 CALLDATALOAD SWAP1 CALLER PUSH2 0x9D4 JUMP JUMPDEST MLOAD PUSH1 0x1 DUP2 MSTORE RETURN JUMPDEST DUP3 CALLVALUE PUSH2 0x10B JUMPI DUP1 PUSH1 0x3 NOT CALLDATASIZE ADD SLT PUSH2 0x10B JUMPI PUSH2 0x230 PUSH2 0x9A8 JUMP JUMPDEST SWAP1 PUSH1 0x24 CALLDATALOAD SWAP2 CALLER PUSH0 MSTORE PUSH1 0x6 PUSH1 0x20 MSTORE PUSH1 0xFF DUP3 PUSH0 KECCAK256 SLOAD AND ISZERO PUSH2 0x2FD JUMPI PUSH1 0x1 PUSH1 0x1 PUSH1 0xA0 SHL SUB AND SWAP3 DUP4 ISZERO PUSH2 0x2BB JUMPI PUSH1 0x2 SLOAD SWAP1 DUP4 DUP3 ADD DUP1 SWAP3 GT PUSH2 0x2A8 JUMPI POP PUSH0 SWAP3 PUSH32 0xDDF252AD1BE2C89B69C2B068FC378DAA952BA7F163C4A11628F55A4DF523B3EF SWAP3 PUSH1 0x20 SWAP3 PUSH1 0x2 SSTORE DUP6 DUP6 MSTORE DUP5 DUP4 MSTORE DUP1 DUP6 KECCAK256 DUP3 DUP2 SLOAD ADD SWAP1 SSTORE MLOAD SWAP1 DUP2 MSTORE LOG3 STOP JUMPDEST PUSH1 0x11 SWAP1 PUSH4 0x4E487B71 PUSH1 0xE0 SHL PUSH0 MSTORE MSTORE PUSH1 0x24 PUSH0 REVERT JUMPDEST PUSH1 0x20 PUSH1 0x64 SWAP3 MLOAD SWAP2 PUSH3 0x461BCD PUSH1 0xE5 SHL DUP4 MSTORE DUP3 ADD MSTORE PUSH1 0x1B PUSH1 0x24 DUP3 ADD MSTORE PUSH32 0x43616E6E6F74206D696E7420746F207A65726F20616464726573730000000000 PUSH1 0x44 DUP3 ADD MSTORE REVERT JUMPDEST DUP2 MLOAD PUSH3 0x461BCD PUSH1 0xE5 SHL DUP2 MSTORE PUSH1 0x20 DUP2 DUP7 ADD MSTORE PUSH1 0x1D PUSH1 0x24 DUP3 ADD MSTORE PUSH32 0x4F6E6C79206D696E746572732063616E206D696E742072657761726473000000 PUSH1 0x44 DUP3 ADD MSTORE PUSH1 0x64 SWAP1 REVERT JUMPDEST DUP3 CALLVALUE PUSH2 0x10B JUMPI PUSH1 0x20 CALLDATASIZE PUSH1 0x3 NOT ADD SLT PUSH2 0x10B JUMPI PUSH2 0x35A PUSH2 0x9A8 JUMP JUMPDEST PUSH2 0x362 PUSH2 0xAAE JUMP JUMPDEST PUSH1 0x1 PUSH1 0x1 PUSH1 0xA0 SHL SUB AND SWAP2 DUP3 ISZERO PUSH2 0x3F6 JUMPI DUP3 PUSH0 MSTORE PUSH1 0x6 PUSH1 0x20 MSTORE PUSH1 0xFF DUP3 PUSH0 KECCAK256 SLOAD AND PUSH2 0x3C1 JUMPI POP DUP2 PUSH0 MSTORE PUSH1 0x6 PUSH1 0x20 MSTORE PUSH0 KECCAK256 PUSH1 0x1 PUSH1 0xFF NOT DUP3 SLOAD AND OR SWAP1 SSTORE PUSH32 0x6AE172837EA30B801FBFCDD4108AA1D5BF8FF775444FD70256B44E6BF3DFC3F6 PUSH0 DUP1 LOG2 STOP JUMPDEST PUSH1 0x20 PUSH1 0x64 SWAP3 MLOAD SWAP2 PUSH3 0x461BCD PUSH1 0xE5 SHL DUP4 MSTORE DUP3 ADD MSTORE PUSH1 0x10 PUSH1 0x24 DUP3 ADD MSTORE PUSH16 0x20B63932B0B23C90309036B4B73A32B9 PUSH1 0x81 SHL PUSH1 0x44 DUP3 ADD MSTORE REVERT JUMPDEST PUSH1 0x20 PUSH1 0x64 SWAP3 MLOAD SWAP2 PUSH3 0x461BCD PUSH1 0xE5 SHL DUP4 MSTORE DUP3 ADD MSTORE PUSH1 0x16 PUSH1 0x24 DUP3 ADD MSTORE PUSH22 0x496E76616C6964206D696E7465722061646472657373 PUSH1 0x50 SHL PUSH1 0x44 DUP3 ADD MSTORE REVERT JUMPDEST DUP3 CALLVALUE PUSH2 0x10B JUMPI PUSH0 CALLDATASIZE PUSH1 0x3 NOT ADD SLT PUSH2 0x10B JUMPI DUP1 MLOAD SWAP1 PUSH0 DUP4 SLOAD PUSH1 0x1 DUP2 PUSH1 0x1 SHR SWAP1 PUSH1 0x1 DUP4 AND SWAP3 DUP4 ISZERO PUSH2 0x546 JUMPI JUMPDEST PUSH1 0x20 SWAP4 DUP5 DUP5 LT DUP2 EQ PUSH2 0x533 JUMPI DUP4 DUP9 MSTORE SWAP1 DUP2 ISZERO PUSH2 0x517 JUMPI POP PUSH1 0x1 EQ PUSH2 0x4C3 JUMPI JUMPDEST POP POP POP DUP3 SWAP1 SUB PUSH1 0x1F ADD PUSH1 0x1F NOT AND DUP3 ADD SWAP3 PUSH8 0xFFFFFFFFFFFFFFFF DUP5 GT DUP4 DUP6 LT OR PUSH2 0x4B0 JUMPI POP DUP3 SWAP2 DUP3 PUSH2 0x4AC SWAP3 MSTORE DUP3 PUSH2 0x961 JUMP JUMPDEST SUB SWAP1 RETURN JUMPDEST PUSH1 0x41 SWAP1 PUSH4 0x4E487B71 PUSH1 0xE0 SHL PUSH0 MSTORE MSTORE PUSH1 0x24 PUSH0 REVERT JUMPDEST PUSH0 DUP8 DUP2 MSTORE SWAP3 SWAP4 POP DUP4 PUSH32 0x8A35ACFBC15FF81A39AE7D344FD709F28E8600B4AA8C65C6B64BFE7FE36BD19B JUMPDEST DUP4 DUP6 LT PUSH2 0x503 JUMPI POP POP POP POP DUP4 ADD ADD DUP5 DUP1 DUP1 PUSH2 0x47A JUMP JUMPDEST DUP1 SLOAD DUP9 DUP7 ADD DUP4 ADD MSTORE SWAP4 ADD SWAP3 DUP5 SWAP1 DUP3 ADD PUSH2 0x4ED JUMP JUMPDEST PUSH1 0xFF NOT AND DUP8 DUP6 ADD MSTORE POP POP ISZERO ISZERO PUSH1 0x5 SHL DUP5 ADD ADD SWAP1 POP DUP5 DUP1 DUP1 PUSH2 0x47A JUMP JUMPDEST PUSH1 0x22 DUP10 PUSH4 0x4E487B71 PUSH1 0xE0 SHL PUSH0 MSTORE MSTORE PUSH1 0x24 PUSH0 REVERT JUMPDEST SWAP2 PUSH1 0x7F AND SWAP2 PUSH2 0x45B JUMP JUMPDEST DUP3 CALLVALUE PUSH2 0x10B JUMPI PUSH0 CALLDATASIZE PUSH1 0x3 NOT ADD SLT PUSH2 0x10B JUMPI PUSH1 0x5 SLOAD SWAP1 MLOAD PUSH1 0x1 PUSH1 0x1 PUSH1 0xA0 SHL SUB SWAP1 SWAP2 AND DUP2 MSTORE PUSH1 0x20 SWAP1 RETURN JUMPDEST CALLVALUE PUSH2 0x10B JUMPI PUSH0 CALLDATASIZE PUSH1 0x3 NOT ADD SLT PUSH2 0x10B JUMPI PUSH2 0x590 PUSH2 0xAAE JUMP JUMPDEST PUSH1 0x5 DUP1 SLOAD PUSH1 0x1 PUSH1 0x1 PUSH1 0xA0 SHL SUB NOT DUP2 AND SWAP1 SWAP2 SSTORE PUSH0 SWAP1 PUSH1 0x1 PUSH1 0x1 PUSH1 0xA0 SHL SUB AND PUSH32 0x8BE0079C531659141344CD1FD0A4F28419497F9722A3DAAFE3B4186F6B6457E0 DUP3 DUP1 LOG3 STOP JUMPDEST DUP3 CALLVALUE PUSH2 0x10B JUMPI PUSH1 0x20 CALLDATASIZE PUSH1 0x3 NOT ADD SLT PUSH2 0x10B JUMPI PUSH1 0x20 SWAP1 PUSH1 0x1 PUSH1 0x1 PUSH1 0xA0 SHL SUB PUSH2 0x5F8 PUSH2 0x9A8 JUMP JUMPDEST AND PUSH0 MSTORE PUSH0 DUP3 MSTORE DUP1 PUSH0 KECCAK256 SLOAD SWAP1 MLOAD SWAP1 DUP2 MSTORE RETURN JUMPDEST DUP3 CALLVALUE PUSH2 0x10B JUMPI PUSH0 CALLDATASIZE PUSH1 0x3 NOT ADD SLT PUSH2 0x10B JUMPI PUSH1 0x20 SWAP1 MLOAD PUSH1 0x12 DUP2 MSTORE RETURN JUMPDEST DUP3 CALLVALUE PUSH2 0x10B JUMPI PUSH1 0x20 CALLDATASIZE PUSH1 0x3 NOT ADD SLT PUSH2 0x10B JUMPI PUSH2 0x63E PUSH2 0x9A8 JUMP JUMPDEST PUSH2 0x646 PUSH2 0xAAE JUMP JUMPDEST PUSH1 0x1 PUSH1 0x1 PUSH1 0xA0 SHL SUB AND PUSH0 DUP2 DUP2 MSTORE PUSH1 0x6 PUSH1 0x20 MSTORE DUP3 SWAP1 KECCAK256 SLOAD SWAP1 SWAP3 SWAP1 PUSH1 0xFF AND ISZERO PUSH2 0x6A0 JUMPI POP DUP2 PUSH0 MSTORE PUSH1 0x6 PUSH1 0x20 MSTORE PUSH0 KECCAK256 PUSH1 0xFF NOT DUP2 SLOAD AND SWAP1 SSTORE PUSH32 0xE94479A9F7E1952CC78F2D6BAAB678ADC1B772D936C6583DEF489E524CB66692 PUSH0 DUP1 LOG2 STOP JUMPDEST PUSH1 0x20 PUSH1 0x64 SWAP3 MLOAD SWAP2 PUSH3 0x461BCD PUSH1 0xE5 SHL DUP4 MSTORE DUP3 ADD MSTORE PUSH1 0xC PUSH1 0x24 DUP3 ADD MSTORE PUSH12 0x2737BA10309036B4B73A32B9 PUSH1 0xA1 SHL PUSH1 0x44 DUP3 ADD MSTORE REVERT JUMPDEST SWAP1 POP CALLVALUE PUSH2 0x10B JUMPI PUSH1 0x60 CALLDATASIZE PUSH1 0x3 NOT ADD SLT PUSH2 0x10B JUMPI PUSH2 0x6EC PUSH2 0x9A8 JUMP JUMPDEST PUSH2 0x6F4 PUSH2 0x9BE JUMP JUMPDEST SWAP1 PUSH1 0x44 CALLDATALOAD SWAP3 PUSH1 0x1 DUP1 PUSH1 0xA0 SHL SUB DUP3 AND DUP1 PUSH0 MSTORE PUSH1 0x1 PUSH1 0x20 MSTORE DUP6 PUSH0 KECCAK256 CALLER PUSH0 MSTORE PUSH1 0x20 MSTORE DUP6 PUSH0 KECCAK256 SLOAD SWAP2 PUSH0 NOT DUP4 LT PUSH2 0x72F JUMPI JUMPDEST PUSH1 0x20 DUP8 PUSH2 0x210 DUP9 DUP9 DUP9 PUSH2 0x9D4 JUMP JUMPDEST DUP6 DUP4 LT PUSH2 0x797 JUMPI DUP2 ISZERO PUSH2 0x781 JUMPI CALLER ISZERO PUSH2 0x76B JUMPI POP PUSH0 SWAP1 DUP2 MSTORE PUSH1 0x1 PUSH1 0x20 SWAP1 DUP2 MSTORE DUP7 DUP3 KECCAK256 CALLER DUP4 MSTORE DUP2 MSTORE SWAP1 DUP7 SWAP1 KECCAK256 SWAP2 DUP6 SWAP1 SUB SWAP1 SWAP2 SSTORE DUP3 SWAP1 PUSH2 0x210 PUSH2 0x721 JUMP JUMPDEST PUSH1 0x24 SWAP1 PUSH0 DUP9 MLOAD SWAP2 PUSH4 0x4A1406B1 PUSH1 0xE1 SHL DUP4 MSTORE DUP3 ADD MSTORE REVERT JUMPDEST PUSH1 0x24 SWAP1 PUSH0 DUP9 MLOAD SWAP2 PUSH4 0xE602DF05 PUSH1 0xE0 SHL DUP4 MSTORE DUP3 ADD MSTORE REVERT JUMPDEST DUP7 MLOAD PUSH4 0x7DC7A0D9 PUSH1 0xE1 SHL DUP2 MSTORE CALLER SWAP2 DUP2 ADD SWAP2 DUP3 MSTORE PUSH1 0x20 DUP3 ADD SWAP4 SWAP1 SWAP4 MSTORE PUSH1 0x40 DUP2 ADD DUP7 SWAP1 MSTORE DUP3 SWAP2 POP PUSH1 0x60 ADD SUB SWAP1 REVERT JUMPDEST DUP3 CALLVALUE PUSH2 0x10B JUMPI PUSH0 CALLDATASIZE PUSH1 0x3 NOT ADD SLT PUSH2 0x10B JUMPI PUSH1 0x20 SWAP1 PUSH1 0x2 SLOAD SWAP1 MLOAD SWAP1 DUP2 MSTORE RETURN JUMPDEST DUP3 CALLVALUE PUSH2 0x10B JUMPI DUP1 PUSH1 0x3 NOT CALLDATASIZE ADD SLT PUSH2 0x10B JUMPI PUSH2 0x7FA PUSH2 0x9A8 JUMP JUMPDEST PUSH1 0x24 CALLDATALOAD SWAP1 CALLER ISZERO PUSH2 0x873 JUMPI PUSH1 0x1 PUSH1 0x1 PUSH1 0xA0 SHL SUB AND SWAP1 DUP2 ISZERO PUSH2 0x85D JUMPI PUSH1 0x20 SWAP4 POP CALLER PUSH0 MSTORE PUSH1 0x1 DUP5 MSTORE DUP3 PUSH0 KECCAK256 DUP3 PUSH0 MSTORE DUP5 MSTORE DUP1 DUP4 PUSH0 KECCAK256 SSTORE DUP3 MLOAD SWAP1 DUP2 MSTORE PUSH32 0x8C5BE1E5EBEC7D5BD14F71427D1E84F3DD0314C0F7B2291E5B200AC8C7C3B925 DUP5 CALLER SWAP3 LOG3 MLOAD PUSH1 0x1 DUP2 MSTORE RETURN JUMPDEST DUP3 MLOAD PUSH4 0x4A1406B1 PUSH1 0xE1 SHL DUP2 MSTORE PUSH0 DUP2 DUP7 ADD MSTORE PUSH1 0x24 SWAP1 REVERT JUMPDEST DUP3 MLOAD PUSH4 0xE602DF05 PUSH1 0xE0 SHL DUP2 MSTORE PUSH0 DUP2 DUP7 ADD MSTORE PUSH1 0x24 SWAP1 REVERT JUMPDEST DUP4 CALLVALUE PUSH2 0x10B JUMPI PUSH0 CALLDATASIZE PUSH1 0x3 NOT ADD SLT PUSH2 0x10B JUMPI PUSH0 PUSH1 0x3 SLOAD PUSH1 0x1 DUP2 PUSH1 0x1 SHR SWAP1 PUSH1 0x1 DUP4 AND SWAP3 DUP4 ISZERO PUSH2 0x957 JUMPI JUMPDEST PUSH1 0x20 SWAP4 DUP5 DUP5 LT DUP2 EQ PUSH2 0x533 JUMPI DUP4 DUP9 MSTORE SWAP1 DUP2 ISZERO PUSH2 0x517 JUMPI POP PUSH1 0x1 EQ PUSH2 0x901 JUMPI POP POP POP DUP3 SWAP1 SUB PUSH1 0x1F ADD PUSH1 0x1F NOT AND DUP3 ADD SWAP3 PUSH8 0xFFFFFFFFFFFFFFFF DUP5 GT DUP4 DUP6 LT OR PUSH2 0x4B0 JUMPI POP DUP3 SWAP2 DUP3 PUSH2 0x4AC SWAP3 MSTORE DUP3 PUSH2 0x961 JUMP JUMPDEST PUSH1 0x3 PUSH0 SWAP1 DUP2 MSTORE SWAP3 SWAP4 POP DUP4 PUSH32 0xC2575A0E9E593C00F959F8C92F12DB2869C3395A3B0502D05E2516446F71F85B JUMPDEST DUP4 DUP6 LT PUSH2 0x943 JUMPI POP POP POP POP DUP4 ADD ADD DUP5 DUP1 DUP1 PUSH2 0x47A JUMP JUMPDEST DUP1 SLOAD DUP9 DUP7 ADD DUP4 ADD MSTORE SWAP4 ADD SWAP3 DUP5 SWAP1 DUP3 ADD PUSH2 0x92D JUMP JUMPDEST SWAP2 PUSH1 0x7F AND SWAP2 PUSH2 0x8B1 JUMP JUMPDEST PUSH1 0x20 DUP1 DUP3 MSTORE DUP3 MLOAD DUP2 DUP4 ADD DUP2 SWAP1 MSTORE SWAP1 SWAP4 SWAP3 PUSH0 JUMPDEST DUP3 DUP2 LT PUSH2 0x994 JUMPI POP POP PUSH1 0x40 SWAP3 SWAP4 POP PUSH0 DUP4 DUP3 DUP5 ADD ADD MSTORE PUSH1 0x1F DUP1 NOT SWAP2 ADD AND ADD ADD SWAP1 JUMP JUMPDEST DUP2 DUP2 ADD DUP7 ADD MLOAD DUP5 DUP3 ADD PUSH1 0x40 ADD MSTORE DUP6 ADD PUSH2 0x973 JUMP JUMPDEST PUSH1 0x4 CALLDATALOAD SWAP1 PUSH1 0x1 PUSH1 0x1 PUSH1 0xA0 SHL SUB DUP3 AND DUP3 SUB PUSH2 0x10B JUMPI JUMP JUMPDEST PUSH1 0x24 CALLDATALOAD SWAP1 PUSH1 0x1 PUSH1 0x1 PUSH1 0xA0 SHL SUB DUP3 AND DUP3 SUB PUSH2 0x10B JUMPI JUMP JUMPDEST SWAP2 PUSH1 0x1 PUSH1 0x1 PUSH1 0xA0 SHL SUB DUP1 DUP5 AND SWAP3 DUP4 ISZERO PUSH2 0xA96 JUMPI AND SWAP3 DUP4 ISZERO PUSH2 0xA7E JUMPI DUP3 PUSH0 MSTORE PUSH0 PUSH1 0x20 MSTORE PUSH1 0x40 PUSH0 KECCAK256 SLOAD SWAP1 DUP3 DUP3 LT PUSH2 0xA4C JUMPI POP DUP2 PUSH32 0xDDF252AD1BE2C89B69C2B068FC378DAA952BA7F163C4A11628F55A4DF523B3EF SWAP3 PUSH1 0x20 SWAP3 DUP6 PUSH0 MSTORE PUSH0 DUP5 MSTORE SUB PUSH1 0x40 PUSH0 KECCAK256 SSTORE DUP5 PUSH0 MSTORE PUSH1 0x40 PUSH0 KECCAK256 DUP2 DUP2 SLOAD ADD SWAP1 SSTORE PUSH1 0x40 MLOAD SWAP1 DUP2 MSTORE LOG3 JUMP JUMPDEST PUSH1 0x40 MLOAD PUSH4 0x391434E3 PUSH1 0xE2 SHL DUP2 MSTORE PUSH1 0x1 PUSH1 0x1 PUSH1 0xA0 SHL SUB SWAP2 SWAP1 SWAP2 AND PUSH1 0x4 DUP3 ADD MSTORE PUSH1 0x24 DUP2 ADD SWAP2 SWAP1 SWAP2 MSTORE PUSH1 0x44 DUP2 ADD DUP3 SWAP1 MSTORE PUSH1 0x64 SWAP1 REVERT JUMPDEST PUSH1 0x40 MLOAD PUSH4 0xEC442F05 PUSH1 0xE0 SHL DUP2 MSTORE PUSH0 PUSH1 0x4 DUP3 ADD MSTORE PUSH1 0x24 SWAP1 REVERT JUMPDEST PUSH1 0x40 MLOAD PUSH4 0x4B637E8F PUSH1 0xE1 SHL DUP2 MSTORE PUSH0 PUSH1 0x4 DUP3 ADD MSTORE PUSH1 0x24 SWAP1 REVERT JUMPDEST PUSH1 0x5 SLOAD PUSH1 0x1 PUSH1 0x1 PUSH1 0xA0 SHL SUB AND CALLER SUB PUSH2 0xAC2 JUMPI JUMP JUMPDEST PUSH1 0x40 MLOAD PUSH4 0x118CDAA7 PUSH1 0xE0 SHL DUP2 MSTORE CALLER PUSH1 0x4 DUP3 ADD MSTORE PUSH1 0x24 SWAP1 REVERT INVALID LOG2 PUSH5 0x6970667358 0x22 SLT KECCAK256 PUSH23 0xBFDF517FC2125B24ECDE90E4F980AFD793A97AA7B3A265 0xD8 0xC3 0x1F 0xC9 JUMPDEST ADD 0x4B PUSH0 PUSH5 0x736F6C6343 STOP ADDMOD XOR STOP CALLER "
				},
				"gasEstimates": {
					"creation": {
						"codeDepositCost": "566400",
						"executionCost": "infinite",
						"totalCost": "infinite"
					},
					"external": {
						"addMinter(address)": "30238",
						"allowance(address,address)": "2853",
						"approve(address,uint256)": "24339",
						"balanceOf(address)": "2552",
						"decimals()": "275",
						"mintReward(address,uint256)": "53005",
						"minters(address)": "2759",
						"name()": "infinite",
						"owner()": "2468",
						"removeMinter(address)": "30094",
						"renounceOwnership()": "28223",
						"symbol()": "infinite",
						"totalSupply()": "2315",
						"transfer(address,uint256)": "51021",
						"transferFrom(address,address,uint256)": "75520",
						"transferOwnership(address)": "28479"
					}
				},
				"methodIdentifiers": {
					"addMinter(address)": "983b2d56",
					"allowance(address,address)": "dd62ed3e",
					"approve(address,uint256)": "095ea7b3",
					"balanceOf(address)": "70a08231",
					"decimals()": "313ce567",
					"mintReward(address,uint256)": "9a49090e",
					"minters(address)": "f46eccc4",
					"name()": "06fdde03",
					"owner()": "8da5cb5b",
					"removeMinter(address)": "3092afd5",
					"renounceOwnership()": "715018a6",
					"symbol()": "95d89b41",
					"totalSupply()": "18160ddd",
					"transfer(address,uint256)": "a9059cbb",
					"transferFrom(address,address,uint256)": "23b872dd",
					"transferOwnership(address)": "f2fde38b"
				}
			},
			"storageLayout": {
				"storage": [
					{
						"astId": 307,
						"contract": "contracts/StudyToken.sol:StudyToken",
						"label": "_balances",
						"offset": 0,
						"slot": "0",
						"type": "t_mapping(t_address,t_uint256)"
					},
					{
						"astId": 313,
						"contract": "contracts/StudyToken.sol:StudyToken",
						"label": "_allowances",
						"offset": 0,
						"slot": "1",
						"type": "t_mapping(t_address,t_mapping(t_address,t_uint256))"
					},
					{
						"astId": 315,
						"contract": "contracts/StudyToken.sol:StudyToken",
						"label": "_totalSupply",
						"offset": 0,
						"slot": "2",
						"type": "t_uint256"
					},
					{
						"astId": 317,
						"contract": "contracts/StudyToken.sol:StudyToken",
						"label": "_name",
						"offset": 0,
						"slot": "3",
						"type": "t_string_storage"
					},
					{
						"astId": 319,
						"contract": "contracts/StudyToken.sol:StudyToken",
						"label": "_symbol",
						"offset": 0,
						"slot": "4",
						"type": "t_string_storage"
					},
					{
						"astId": 8,
						"contract": "contracts/StudyToken.sol:StudyToken",
						"label": "_owner",
						"offset": 0,
						"slot": "5",
						"type": "t_address"
					},
					{
						"astId": 946,
						"contract": "contracts/StudyToken.sol:StudyToken",
						"label": "minters",
						"offset": 0,
						"slot": "6",
						"type": "t_mapping(t_address,t_bool)"
					}
				],
				"types": {
					"t_address": {
						"encoding": "inplace",
						"label": "address",
						"numberOfBytes": "20"
					},
					"t_bool": {
						"encoding": "inplace",
						"label": "bool",
						"numberOfBytes": "1"
					},
					"t_mapping(t_address,t_bool)": {
						"encoding": "mapping",
						"key": "t_address",
						"label": "mapping(address => bool)",
						"numberOfBytes": "32",
						"value": "t_bool"
					},
					"t_mapping(t_address,t_mapping(t_address,t_uint256))": {
						"encoding": "mapping",
						"key": "t_address",
						"label": "mapping(address => mapping(address => uint256))",
						"numberOfBytes": "32",
						"value": "t_mapping(t_address,t_uint256)"
					},
					"t_mapping(t_address,t_uint256)": {
						"encoding": "mapping",
						"key": "t_address",
						"label": "mapping(address => uint256)",
						"numberOfBytes": "32",
						"value": "t_uint256"
					},
					"t_string_storage": {
						"encoding": "bytes",
						"label": "string",
						"numberOfBytes": "32"
					},
					"t_uint256": {
						"encoding": "inplace",
						"label": "uint256",
						"numberOfBytes": "32"
					}
				}
			},
			"userdoc": {
				"kind": "user",
				"methods": {},
				"version": 1
			}
		}
	}
}