{
	"contracts/TokenAllocationKernel.sol": {
		"TokenAllocationKernel": {
			"abi": [
				{
					"inputs": [],
					"stateMutability": "nonpayable",
					"type": "constructor"
				},
				{
					"anonymous": false,
					"inputs": [
						{
							"indexed": true,
							"internalType": "address",
							"name": "newAuthority",
							"type": "address"
						}
					],
					"name": "AuthorityUpdated",
					"type": "event"
				},
				{
					"anonymous": false,
					"inputs": [
						{
							"indexed": true,
							"internalType": "address",
							"name": "user",
							"type": "address"
						}
					],
					"name": "MetricsUpdated",
					"type": "event"
				},
				{
					"anonymous": false,
					"inputs": [
						{
							"indexed": true,
							"internalType": "address",
							"name": "updater",
							"type": "address"
						}
					],
					"name": "UpdaterAuthorized",
					"type": "event"
				},
				{
					"anonymous": false,
					"inputs": [
						{
							"indexed": true,
							"internalType": "address",
							"name": "updater",
							"type": "address"
						}
					],
					"name": "UpdaterRemoved",
					"type": "event"
				},
				{
					"inputs": [
						{
							"internalType": "address",
							"name": "updater",
							"type": "address"
						}
					],
					"name": "addAuthorizedUpdater",
					"outputs": [],
					"stateMutability": "nonpayable",
					"type": "function"
				},
				{
					"inputs": [
						{
							"internalType": "address",
							"name": "user",
							"type": "address"
						}
					],
					"name": "areMetricsFresh",
					"outputs": [
						{
							"internalType": "bool",
							"name": "",
							"type": "bool"
						}
					],
					"stateMutability": "view",
					"type": "function"
				},
				{
					"inputs": [
						{
							"internalType": "address",
							"name": "",
							"type": "address"
						}
					],
					"name": "authorizedUpdaters",
					"outputs": [
						{
							"internalType": "bool",
							"name": "",
							"type": "bool"
						}
					],
					"stateMutability": "view",
					"type": "function"
				},
				{
					"inputs": [
						{
							"internalType": "address",
							"name": "user",
							"type": "address"
						}
					],
					"name": "getRecommendedTokenAllocation",
					"outputs": [
						{
							"internalType": "uint8",
							"name": "",
							"type": "uint8"
						}
					],
					"stateMutability": "view",
					"type": "function"
				},
				{
					"inputs": [
						{
							"internalType": "address",
							"name": "user",
							"type": "address"
						}
					],
					"name": "getUserDetailedMetrics",
					"outputs": [
						{
							"internalType": "uint8",
							"name": "participation",
							"type": "uint8"
						},
						{
							"internalType": "uint8",
							"name": "contribution",
							"type": "uint8"
						},
						{
							"internalType": "uint8",
							"name": "consistency",
							"type": "uint8"
						},
						{
							"internalType": "uint8",
							"name": "tokenUtilization",
							"type": "uint8"
						},
						{
							"internalType": "uint32",
							"name": "lastUpdateTime",
							"type": "uint32"
						}
					],
					"stateMutability": "view",
					"type": "function"
				},
				{
					"inputs": [],
					"name": "owner",
					"outputs": [
						{
							"internalType": "address",
							"name": "",
							"type": "address"
						}
					],
					"stateMutability": "view",
					"type": "function"
				},
				{
					"inputs": [
						{
							"internalType": "address",
							"name": "updater",
							"type": "address"
						}
					],
					"name": "removeAuthorizedUpdater",
					"outputs": [],
					"stateMutability": "nonpayable",
					"type": "function"
				},
				{
					"inputs": [
						{
							"internalType": "address",
							"name": "_authority",
							"type": "address"
						}
					],
					"name": "setStudyDAOAuthority",
					"outputs": [],
					"stateMutability": "nonpayable",
					"type": "function"
				},
				{
					"inputs": [],
					"name": "studyDAOAuthority",
					"outputs": [
						{
							"internalType": "address",
							"name": "",
							"type": "address"
						}
					],
					"stateMutability": "view",
					"type": "function"
				},
				{
					"inputs": [
						{
							"internalType": "address",
							"name": "newOwner",
							"type": "address"
						}
					],
					"name": "transferOwnership",
					"outputs": [],
					"stateMutability": "nonpayable",
					"type": "function"
				},
				{
					"inputs": [
						{
							"internalType": "address",
							"name": "user",
							"type": "address"
						},
						{
							"internalType": "uint8",
							"name": "metricType",
							"type": "uint8"
						},
						{
							"internalType": "uint8",
							"name": "value",
							"type": "uint8"
						}
					],
					"name": "updateSingleMetric",
					"outputs": [],
					"stateMutability": "nonpayable",
					"type": "function"
				},
				{
					"inputs": [
						{
							"internalType": "address",
							"name": "user",
							"type": "address"
						},
						{
							"internalType": "uint8",
							"name": "participation",
							"type": "uint8"
						},
						{
							"internalType": "uint8",
							"name": "contribution",
							"type": "uint8"
						},
						{
							"internalType": "uint8",
							"name": "consistency",
							"type": "uint8"
						},
						{
							"internalType": "uint8",
							"name": "tokenUtilization",
							"type": "uint8"
						}
					],
					"name": "updateUserMetrics",
					"outputs": [],
					"stateMutability": "nonpayable",
					"type": "function"
				}
			],
			"devdoc": {
				"details": "Kernel contract that recommends token allocation percentages based on user engagement",
				"kind": "dev",
				"methods": {
					"addAuthorizedUpdater(address)": {
						"details": "Add an authorized updater",
						"params": {
							"updater": "Address to authorize for metric updates"
						}
					},
					"areMetricsFresh(address)": {
						"details": "KERNEL FUNCTION: Check if a user's metrics are fresh enough to be reliable",
						"params": {
							"user": "Address of the user"
						},
						"returns": {
							"_0": "isFresh Whether the metrics are fresh (updated within 14 days)"
						}
					},
					"getRecommendedTokenAllocation(address)": {
						"details": "KERNEL FUNCTION: Get recommended token allocation for a user",
						"params": {
							"user": "Address of the user"
						},
						"returns": {
							"_0": "allocation Recommended allocation percentage (0-100)"
						}
					},
					"getUserDetailedMetrics(address)": {
						"details": "Get detailed user metrics (for admin/UI use)",
						"params": {
							"user": "Address of the user"
						},
						"returns": {
							"consistency": "Consistency score",
							"contribution": "Contribution score",
							"lastUpdateTime": "Last update timestamp",
							"participation": "Participation score",
							"tokenUtilization": "Token utilization score"
						}
					},
					"removeAuthorizedUpdater(address)": {
						"details": "Remove an authorized updater",
						"params": {
							"updater": "Address to remove authorization from"
						}
					},
					"setStudyDAOAuthority(address)": {
						"details": "Set the StudyDAO Authority address",
						"params": {
							"_authority": "The address of the StudyDAO Authority contract"
						}
					},
					"transferOwnership(address)": {
						"details": "Transfer ownership of the contract",
						"params": {
							"newOwner": "New owner address"
						}
					},
					"updateSingleMetric(address,uint8,uint8)": {
						"details": "Update individual metric",
						"params": {
							"metricType": "Type of metric to update (1=participation, 2=contribution, 3=consistency, 4=tokenUtilization)",
							"user": "Address of the user",
							"value": "New value for the metric (0-100)"
						}
					},
					"updateUserMetrics(address,uint8,uint8,uint8,uint8)": {
						"details": "Update a user's metrics",
						"params": {
							"consistency": "Consistency score (0-100)",
							"contribution": "Contribution score (0-100)",
							"participation": "Participation score (0-100)",
							"tokenUtilization": "Token utilization score (0-100)",
							"user": "Address of the user"
						}
					}
				},
				"title": "TokenAllocationKernel",
				"version": 1
			},
			"evm": {
				"assembly": "    /* \"contracts/TokenAllocationKernel.sol\":192:8364  contract TokenAllocationKernel {... */\n  0x80\n  dup1\n  0x40\n  mstore\n  jumpi(tag_1, callvalue)\n    /* \"contracts/TokenAllocationKernel.sol\":1595:1613  owner = msg.sender */\n  0x00\n    /* \"contracts/TokenAllocationKernel.sol\":192:8364  contract TokenAllocationKernel {... */\n  dup1\n  sload\n  not(sub(shl(0xa0, 0x01), 0x01))\n  and\n    /* \"contracts/TokenAllocationKernel.sol\":1603:1613  msg.sender */\n  caller\n    /* \"contracts/TokenAllocationKernel.sol\":192:8364  contract TokenAllocationKernel {... */\n  swap1\n  dup2\n  or\n  dup3\n  sstore\n  dup2\n  mstore\n    /* \"contracts/TokenAllocationKernel.sol\":1623:1641  authorizedUpdaters */\n  0x03\n    /* \"contracts/TokenAllocationKernel.sol\":192:8364  contract TokenAllocationKernel {... */\n  0x20\n  mstore\n  0x40\n  swap1\n  keccak256\n  dup1\n  sload\n  not(0xff)\n  and\n  0x01\n  or\n  swap1\n  sstore\n  dataSize(sub_0)\n  swap1\n  dup2\n  dataOffset(sub_0)\n  dup3\n  codecopy\n  return\ntag_1:\n  0x00\n  dup1\n  revert\nstop\n\nsub_0: assembly {\n        /* \"contracts/TokenAllocationKernel.sol\":192:8364  contract TokenAllocationKernel {... */\n      0x40\n      0x80\n      dup2\n      mstore\n      0x04\n      swap1\n      dup2\n      calldatasize\n      lt\n      iszero\n      tag_15\n      jumpi\n      0x00\n      dup1\n      revert\n    tag_15:\n      shr(0xe0, calldataload(0x00))\n      dup1\n      0x5f1076bb\n      eq\n      tag_17\n      jumpi\n      dup1\n      0x603cda09\n      eq\n      tag_19\n      jumpi\n      dup1\n      0x6ad16934\n      eq\n      tag_21\n      jumpi\n      dup1\n      0x87bc50a5\n      eq\n      tag_23\n      jumpi\n      dup1\n      0x8c9b9fdc\n      eq\n      tag_25\n      jumpi\n      dup1\n      0x8da5cb5b\n      eq\n      tag_27\n      jumpi\n      dup1\n      0x8ff29cfe\n      eq\n      tag_29\n      jumpi\n      dup1\n      0xa5993a4e\n      eq\n      tag_31\n      jumpi\n      dup1\n      0xad9b8b4e\n      eq\n      tag_33\n      jumpi\n      dup1\n      0xc459ad3a\n      eq\n      tag_35\n      jumpi\n      dup1\n      0xf2fde38b\n      eq\n      tag_37\n      jumpi\n      0xf6ac8558\n      eq\n      tag_39\n      jumpi\n      0x00\n      dup1\n      revert\n    tag_39:\n      jumpi(tag_43, callvalue)\n      jumpi(tag_43, slt(add(not(0x03), calldatasize), 0x20))\n      sub(shl(0xa0, 0x01), 0x01)\n      tag_45\n      tag_1\n      jump\t// in\n    tag_45:\n      and\n      0x00\n      mstore\n        /* \"contracts/TokenAllocationKernel.sol\":7215:7226  userMetrics */\n      0x02\n        /* \"contracts/TokenAllocationKernel.sol\":192:8364  contract TokenAllocationKernel {... */\n      0x20\n      mstore\n      dup1\n      0x00\n      keccak256\n      dup2\n      mload\n      swap3\n      0xa0\n      dup5\n      add\n      swap1\n      dup5\n      dup3\n      lt\n      0xffffffffffffffff\n      dup4\n      gt\n      or\n      tag_46\n      jumpi\n      pop\n      swap3\n      0x80\n      swap2\n      0xa0\n      swap5\n      dup5\n      mstore\n      sload\n      swap1\n      0xff\n      dup3\n      and\n      swap4\n      dup5\n      dup3\n      mstore\n      0xff\n      dup4\n      0x08\n      shr\n      and\n      dup1\n      0x20\n      dup5\n      add\n      mstore\n      0xff\n      dup5\n      0x10\n      shr\n      and\n      swap3\n      dup4\n      dup4\n      dup3\n      add\n      mstore\n      0xffffffff\n      0xff\n      dup7\n      0x18\n      shr\n      and\n      swap6\n      dup7\n      0x60\n      dup5\n      add\n      mstore\n      0x20\n      shr\n      and\n      swap6\n      dup7\n      swap2\n      add\n      mstore\n      dup2\n      mload\n      swap6\n      dup7\n      mstore\n      0x20\n      dup7\n      add\n      mstore\n      dup5\n      add\n      mstore\n      0x60\n      dup4\n      add\n      mstore\n      0x80\n      dup3\n      add\n      mstore\n      return\n    tag_46:\n      0x41\n      swap1\n      mstore(0x00, shl(0xe0, 0x4e487b71))\n      mstore\n      revert(0x00, 0x24)\n    tag_43:\n      0x00\n      dup1\n      revert\n    tag_37:\n      pop\n      swap1\n      jumpi(tag_43, callvalue)\n      jumpi(tag_43, slt(add(not(0x03), calldatasize), 0x20))\n      tag_52\n      tag_1\n      jump\t// in\n    tag_52:\n      sload(0x00)\n      swap2\n      swap1\n      sub(shl(0xa0, 0x01), 0x01)\n      swap1\n        /* \"contracts/TokenAllocationKernel.sol\":1238:1303  require(msg.sender == owner, \"Only owner can call this function\") */\n      tag_53\n        /* \"contracts/TokenAllocationKernel.sol\":1246:1256  msg.sender */\n      caller\n        /* \"contracts/TokenAllocationKernel.sol\":192:8364  contract TokenAllocationKernel {... */\n      dup4\n      dup7\n      and\n        /* \"contracts/TokenAllocationKernel.sol\":1246:1265  msg.sender == owner */\n      eq\n        /* \"contracts/TokenAllocationKernel.sol\":1238:1303  require(msg.sender == owner, \"Only owner can call this function\") */\n      tag_4\n      jump\t// in\n    tag_53:\n        /* \"contracts/TokenAllocationKernel.sol\":192:8364  contract TokenAllocationKernel {... */\n      and\n        /* \"contracts/TokenAllocationKernel.sol\":8281:8303  newOwner != address(0) */\n      swap3\n      dup4\n      iszero\n        /* \"contracts/TokenAllocationKernel.sol\":192:8364  contract TokenAllocationKernel {... */\n      tag_54\n      jumpi\n      pop\n      pop\n      not(sub(shl(0xa0, 0x01), 0x01))\n      and\n      or\n      0x00\n      sstore\n      stop\n    tag_54:\n      swap1\n      0x20\n      0x64\n      swap3\n      mload\n      swap2\n      shl(0xe5, 0x461bcd)\n      dup4\n      mstore\n      dup3\n      add\n      mstore\n      0x15\n      0x24\n      dup3\n      add\n      mstore\n      shl(0x58, 0x496e76616c6964206f776e65722061646472657373)\n      0x44\n      dup3\n      add\n      mstore\n      revert\n    tag_35:\n      pop\n      swap1\n      jumpi(tag_43, callvalue)\n      jumpi(tag_43, slt(add(not(0x03), calldatasize), 0xa0))\n      tag_60\n      tag_1\n      jump\t// in\n    tag_60:\n      swap1\n      tag_61\n      tag_2\n      jump\t// in\n    tag_61:\n      swap3\n      tag_62\n      tag_3\n      jump\t// in\n    tag_62:\n      0x64\n      swap2\n      dup3\n      calldataload\n      swap3\n      0xff\n      dup5\n      and\n      swap5\n      dup6\n      dup6\n      sub\n      tag_43\n      jumpi\n      calldataload(0x84)\n      swap6\n      0xff\n      dup8\n      and\n      swap8\n      dup9\n      dup9\n      sub\n      tag_43\n      jumpi\n      sload(0x00)\n      dup5\n      swap2\n      0xff\n      swap2\n      sub(shl(0xa0, 0x01), 0x01)\n      swap2\n      swap1\n      dup3\n      and\n        /* \"contracts/TokenAllocationKernel.sol\":1388:1398  msg.sender */\n      caller\n        /* \"contracts/TokenAllocationKernel.sol\":1388:1407  msg.sender == owner */\n      eq\n        /* \"contracts/TokenAllocationKernel.sol\":1388:1455  msg.sender == owner || ... */\n      dup1\n      iszero\n      tag_67\n      jumpi\n        /* \"contracts/TokenAllocationKernel.sol\":192:8364  contract TokenAllocationKernel {... */\n    tag_68:\n        /* \"contracts/TokenAllocationKernel.sol\":1388:1502  msg.sender == owner || ... */\n      dup1\n      iszero\n      tag_69\n      jumpi\n        /* \"contracts/TokenAllocationKernel.sol\":192:8364  contract TokenAllocationKernel {... */\n    tag_70:\n        /* \"contracts/TokenAllocationKernel.sol\":1367:1543  require(... */\n      tag_71\n      swap1\n      tag_9\n      jump\t// in\n    tag_71:\n        /* \"contracts/TokenAllocationKernel.sol\":192:8364  contract TokenAllocationKernel {... */\n      and\n        /* \"contracts/TokenAllocationKernel.sol\":3218:3236  user != address(0) */\n      swap11\n        /* \"contracts/TokenAllocationKernel.sol\":3210:3261  require(user != address(0), \"Invalid user address\") */\n      tag_72\n        /* \"contracts/TokenAllocationKernel.sol\":3218:3236  user != address(0) */\n      dup13\n      iszero\n      iszero\n        /* \"contracts/TokenAllocationKernel.sol\":3210:3261  require(user != address(0), \"Invalid user address\") */\n      tag_10\n      jump\t// in\n    tag_72:\n        /* \"contracts/TokenAllocationKernel.sol\":192:8364  contract TokenAllocationKernel {... */\n      and\n        /* \"contracts/TokenAllocationKernel.sol\":3292:3312  participation <= 100 */\n      swap9\n      dup2\n      dup11\n      gt\n      iszero\n        /* \"contracts/TokenAllocationKernel.sol\":3292:3347  participation <= 100 &&... */\n      swap3\n      dup4\n      tag_73\n      jumpi\n        /* \"contracts/TokenAllocationKernel.sol\":192:8364  contract TokenAllocationKernel {... */\n    tag_74:\n        /* \"contracts/TokenAllocationKernel.sol\":3292:3381  participation <= 100 &&... */\n      dup4\n      tag_75\n      jumpi\n        /* \"contracts/TokenAllocationKernel.sol\":192:8364  contract TokenAllocationKernel {... */\n    tag_76:\n        /* \"contracts/TokenAllocationKernel.sol\":3292:3420  participation <= 100 &&... */\n      pop\n      dup3\n      tag_77\n      jumpi\n        /* \"contracts/TokenAllocationKernel.sol\":192:8364  contract TokenAllocationKernel {... */\n    tag_78:\n      pop\n      pop\n      iszero\n      tag_79\n      jumpi\n      0x00\n      dup9\n      dup2\n      mstore\n        /* \"contracts/TokenAllocationKernel.sol\":3523:3534  userMetrics */\n      0x02\n        /* \"contracts/TokenAllocationKernel.sol\":192:8364  contract TokenAllocationKernel {... */\n      0x20\n      mstore\n      dup4\n      swap1\n      keccak256\n      dup1\n      sload\n      0xff000000\n      0x18\n      dup10\n      swap1\n      shl\n      and\n      not(0xffffff00)\n      dup11\n      and\n      not(0xffffffff)\n      swap1\n      swap3\n      and\n      swap2\n      swap1\n      swap2\n      or\n      0xff00\n      0x08\n      dup9\n      swap1\n      shl\n      and\n      or\n      0xff0000\n      0x10\n      dup10\n      swap1\n      shl\n      and\n      or\n      or\n      dup2\n      sstore\n      dup9\n      swap1\n        /* \"contracts/TokenAllocationKernel.sol\":3767:3820  metrics.lastUpdateTimestamp = uint32(block.timestamp) */\n      tag_81\n      swap1\n        /* \"contracts/TokenAllocationKernel.sol\":3709:3757  metrics.tokenUtilizationScore = tokenUtilization */\n    tag_82:\n        /* \"contracts/TokenAllocationKernel.sol\":192:8364  contract TokenAllocationKernel {... */\n      dup1\n      sload\n      not(0xffffffff00000000)\n      and\n        /* \"contracts/TokenAllocationKernel.sol\":3804:3819  block.timestamp */\n      timestamp\n        /* \"contracts/TokenAllocationKernel.sol\":192:8364  contract TokenAllocationKernel {... */\n      0x20\n      shl\n      0xffffffff00000000\n      and\n      or\n      swap1\n      sstore\n      jump\n        /* \"contracts/TokenAllocationKernel.sol\":3767:3820  metrics.lastUpdateTimestamp = uint32(block.timestamp) */\n    tag_81:\n        /* \"contracts/TokenAllocationKernel.sol\":3844:3864  MetricsUpdated(user) */\n      0x4f1349ff271a07da3530b42c2c3c00406af7b44e35f9fdf1f66fc450d18ef4e0\n        /* \"contracts/TokenAllocationKernel.sol\":192:8364  contract TokenAllocationKernel {... */\n      0x00\n        /* \"contracts/TokenAllocationKernel.sol\":3844:3864  MetricsUpdated(user) */\n      dup1\n      log2\n        /* \"contracts/TokenAllocationKernel.sol\":192:8364  contract TokenAllocationKernel {... */\n      stop\n    tag_79:\n      0x20\n      dup4\n      mload\n      swap2\n      shl(0xe5, 0x461bcd)\n      dup4\n      mstore\n      dup3\n      add\n      mstore\n      0x1c\n      0x24\n      dup3\n      add\n      mstore\n      0x53636f726573206d757374206265206265747765656e20302d31303000000000\n      0x44\n      dup3\n      add\n      mstore\n      revert\n        /* \"contracts/TokenAllocationKernel.sol\":3292:3420  participation <= 100 &&... */\n    tag_77:\n        /* \"contracts/TokenAllocationKernel.sol\":3397:3420  tokenUtilization <= 100 */\n      gt\n      iszero\n      swap1\n      pop\n        /* \"contracts/TokenAllocationKernel.sol\":3292:3420  participation <= 100 &&... */\n      dup3\n      0x00\n      jump(tag_78)\n        /* \"contracts/TokenAllocationKernel.sol\":3292:3381  participation <= 100 &&... */\n    tag_75:\n        /* \"contracts/TokenAllocationKernel.sol\":3363:3381  consistency <= 100 */\n      dup3\n      lt\n      iszero\n      swap3\n      pop\n        /* \"contracts/TokenAllocationKernel.sol\":3292:3381  participation <= 100 &&... */\n      0x00\n      jump(tag_76)\n        /* \"contracts/TokenAllocationKernel.sol\":3292:3347  participation <= 100 &&... */\n    tag_73:\n        /* \"contracts/TokenAllocationKernel.sol\":192:8364  contract TokenAllocationKernel {... */\n      swap3\n      pop\n      dup2\n      0xff\n      dup9\n      and\n        /* \"contracts/TokenAllocationKernel.sol\":3328:3347  contribution <= 100 */\n      gt\n      iszero\n        /* \"contracts/TokenAllocationKernel.sol\":3292:3347  participation <= 100 &&... */\n      swap3\n      jump(tag_74)\n        /* \"contracts/TokenAllocationKernel.sol\":1388:1502  msg.sender == owner || ... */\n    tag_69:\n      pop\n        /* \"contracts/TokenAllocationKernel.sol\":1388:1398  msg.sender */\n      caller\n        /* \"contracts/TokenAllocationKernel.sol\":192:8364  contract TokenAllocationKernel {... */\n      0x00\n      swap1\n      dup2\n      mstore\n        /* \"contracts/TokenAllocationKernel.sol\":1472:1490  authorizedUpdaters */\n      0x03\n        /* \"contracts/TokenAllocationKernel.sol\":192:8364  contract TokenAllocationKernel {... */\n      0x20\n      mstore\n      dup9\n      swap1\n      keccak256\n      sload\n      dup4\n      and\n        /* \"contracts/TokenAllocationKernel.sol\":1388:1502  msg.sender == owner || ... */\n      jump(tag_70)\n        /* \"contracts/TokenAllocationKernel.sol\":1388:1455  msg.sender == owner || ... */\n    tag_67:\n        /* \"contracts/TokenAllocationKernel.sol\":192:8364  contract TokenAllocationKernel {... */\n      pop\n      dup2\n        /* \"contracts/TokenAllocationKernel.sol\":1438:1455  studyDAOAuthority */\n      0x01\n        /* \"contracts/TokenAllocationKernel.sol\":192:8364  contract TokenAllocationKernel {... */\n      sload\n      and\n        /* \"contracts/TokenAllocationKernel.sol\":1388:1398  msg.sender */\n      caller\n        /* \"contracts/TokenAllocationKernel.sol\":1424:1455  msg.sender == studyDAOAuthority */\n      eq\n        /* \"contracts/TokenAllocationKernel.sol\":1388:1455  msg.sender == owner || ... */\n      jump(tag_68)\n        /* \"contracts/TokenAllocationKernel.sol\":192:8364  contract TokenAllocationKernel {... */\n    tag_33:\n      pop\n      swap1\n      jumpi(tag_43, callvalue)\n      jumpi(tag_43, slt(add(not(0x03), calldatasize), 0x60))\n      tag_89\n      tag_1\n      jump\t// in\n    tag_89:\n      swap1\n      tag_90\n      tag_2\n      jump\t// in\n    tag_90:\n      tag_91\n      tag_3\n      jump\t// in\n    tag_91:\n      sload(0x00)\n      swap1\n      swap4\n      sub(shl(0xa0, 0x01), 0x01)\n      swap2\n      dup3\n      and\n        /* \"contracts/TokenAllocationKernel.sol\":1388:1398  msg.sender */\n      caller\n        /* \"contracts/TokenAllocationKernel.sol\":1388:1407  msg.sender == owner */\n      eq\n        /* \"contracts/TokenAllocationKernel.sol\":1388:1455  msg.sender == owner || ... */\n      dup1\n      iszero\n      tag_92\n      jumpi\n        /* \"contracts/TokenAllocationKernel.sol\":192:8364  contract TokenAllocationKernel {... */\n    tag_93:\n        /* \"contracts/TokenAllocationKernel.sol\":1388:1502  msg.sender == owner || ... */\n      dup1\n      iszero\n      tag_94\n      jumpi\n        /* \"contracts/TokenAllocationKernel.sol\":192:8364  contract TokenAllocationKernel {... */\n    tag_95:\n        /* \"contracts/TokenAllocationKernel.sol\":1367:1543  require(... */\n      tag_96\n      swap1\n      tag_9\n      jump\t// in\n    tag_96:\n        /* \"contracts/TokenAllocationKernel.sol\":192:8364  contract TokenAllocationKernel {... */\n      and\n        /* \"contracts/TokenAllocationKernel.sol\":4290:4308  user != address(0) */\n      swap3\n        /* \"contracts/TokenAllocationKernel.sol\":4282:4333  require(user != address(0), \"Invalid user address\") */\n      tag_97\n        /* \"contracts/TokenAllocationKernel.sol\":4290:4308  user != address(0) */\n      dup5\n      iszero\n      iszero\n        /* \"contracts/TokenAllocationKernel.sol\":4282:4333  require(user != address(0), \"Invalid user address\") */\n      tag_10\n      jump\t// in\n    tag_97:\n        /* \"contracts/TokenAllocationKernel.sol\":192:8364  contract TokenAllocationKernel {... */\n      0xff\n      dup2\n      and\n        /* \"contracts/TokenAllocationKernel.sol\":4351:4363  value <= 100 */\n      swap2\n        /* \"contracts/TokenAllocationKernel.sol\":4360:4363  100 */\n      0x64\n        /* \"contracts/TokenAllocationKernel.sol\":4351:4363  value <= 100 */\n      dup4\n      gt\n        /* \"contracts/TokenAllocationKernel.sol\":192:8364  contract TokenAllocationKernel {... */\n      tag_98\n      jumpi\n      0xff\n      and\n        /* \"contracts/TokenAllocationKernel.sol\":4413:4428  metricType >= 1 */\n      swap3\n        /* \"contracts/TokenAllocationKernel.sol\":4427:4428  1 */\n      0x01\n        /* \"contracts/TokenAllocationKernel.sol\":4413:4428  metricType >= 1 */\n      dup5\n      lt\n      iszero\n        /* \"contracts/TokenAllocationKernel.sol\":4413:4447  metricType >= 1 && metricType <= 4 */\n      dup1\n      tag_100\n      jumpi\n        /* \"contracts/TokenAllocationKernel.sol\":192:8364  contract TokenAllocationKernel {... */\n    tag_101:\n      iszero\n      tag_102\n      jumpi\n      pop\n      dup4\n      swap5\n        /* \"contracts/TokenAllocationKernel.sol\":4891:4944  metrics.lastUpdateTimestamp = uint32(block.timestamp) */\n      tag_81\n        /* \"contracts/TokenAllocationKernel.sol\":192:8364  contract TokenAllocationKernel {... */\n      swap5\n      0x00\n      mstore\n        /* \"contracts/TokenAllocationKernel.sol\":4520:4531  userMetrics */\n      0x02\n        /* \"contracts/TokenAllocationKernel.sol\":192:8364  contract TokenAllocationKernel {... */\n      0x20\n      mstore\n      0x00\n      keccak256\n        /* \"contracts/TokenAllocationKernel.sol\":4560:4575  metricType == 1 */\n      swap3\n        /* \"contracts/TokenAllocationKernel.sol\":4427:4428  1 */\n      0x01\n        /* \"contracts/TokenAllocationKernel.sol\":4560:4575  metricType == 1 */\n      dup2\n      eq\n        /* \"contracts/TokenAllocationKernel.sol\":4556:4873  if (metricType == 1) {... */\n      0x00\n        /* \"contracts/TokenAllocationKernel.sol\":4427:4428  1 */\n      eq\n      tag_105\n      jumpi\n      pop\n      pop\n        /* \"contracts/TokenAllocationKernel.sol\":192:8364  contract TokenAllocationKernel {... */\n      dup2\n      sload\n      not(0xff)\n      and\n      or\n      dup2\n      sstore\n      dup1\n      sload\n      not(0xffffffff00000000)\n      and\n        /* \"contracts/TokenAllocationKernel.sol\":4928:4943  block.timestamp */\n      timestamp\n        /* \"contracts/TokenAllocationKernel.sol\":192:8364  contract TokenAllocationKernel {... */\n      0x20\n      shl\n      0xffffffff00000000\n      and\n      or\n      swap1\n      sstore\n      jump\n        /* \"contracts/TokenAllocationKernel.sol\":4556:4873  if (metricType == 1) {... */\n    tag_105:\n        /* \"contracts/TokenAllocationKernel.sol\":4646:4661  metricType == 2 */\n      swap1\n      swap2\n      pop\n        /* \"contracts/TokenAllocationKernel.sol\":4520:4531  userMetrics */\n      0x02\n        /* \"contracts/TokenAllocationKernel.sol\":4646:4661  metricType == 2 */\n      dup2\n      sub\n        /* \"contracts/TokenAllocationKernel.sol\":4520:4531  userMetrics */\n      tag_108\n      jumpi\n      pop\n        /* \"contracts/TokenAllocationKernel.sol\":192:8364  contract TokenAllocationKernel {... */\n      dup2\n      sload\n      not(0xff00)\n      and\n      0x08\n      swap2\n      swap1\n      swap2\n      shl\n      0xff00\n      and\n      or\n      dup2\n      sstore\n        /* \"contracts/TokenAllocationKernel.sol\":4556:4873  if (metricType == 1) {... */\n      jump(tag_82)\n        /* \"contracts/TokenAllocationKernel.sol\":4642:4873  if (metricType == 2) {... */\n    tag_108:\n        /* \"contracts/TokenAllocationKernel.sol\":4745:4746  3 */\n      0x03\n        /* \"contracts/TokenAllocationKernel.sol\":4731:4746  metricType == 3 */\n      sub\n        /* \"contracts/TokenAllocationKernel.sol\":4745:4746  3 */\n      tag_112\n      jumpi\n        /* \"contracts/TokenAllocationKernel.sol\":192:8364  contract TokenAllocationKernel {... */\n      dup2\n      sload\n      not(0xff0000)\n      and\n      0x10\n      swap2\n      swap1\n      swap2\n      shl\n      0xff0000\n      and\n      or\n      dup2\n      sstore\n        /* \"contracts/TokenAllocationKernel.sol\":4556:4873  if (metricType == 1) {... */\n      jump(tag_82)\n        /* \"contracts/TokenAllocationKernel.sol\":4727:4873  if (metricType == 3) {... */\n    tag_112:\n        /* \"contracts/TokenAllocationKernel.sol\":192:8364  contract TokenAllocationKernel {... */\n      dup2\n      sload\n      not(0xff000000)\n      and\n      0x18\n      swap2\n      swap1\n      swap2\n      shl\n      0xff000000\n      and\n      or\n      dup2\n      sstore\n        /* \"contracts/TokenAllocationKernel.sol\":4556:4873  if (metricType == 1) {... */\n      jump(tag_82)\n        /* \"contracts/TokenAllocationKernel.sol\":192:8364  contract TokenAllocationKernel {... */\n    tag_102:\n        /* \"contracts/TokenAllocationKernel.sol\":4360:4363  100 */\n      0x64\n        /* \"contracts/TokenAllocationKernel.sol\":192:8364  contract TokenAllocationKernel {... */\n      swap1\n      0x20\n      dup8\n      mload\n      swap2\n      shl(0xe5, 0x461bcd)\n      dup4\n      mstore\n      dup3\n      add\n      mstore\n      0x13\n      0x24\n      dup3\n      add\n      mstore\n      shl(0x68, 0x496e76616c6964206d65747269632074797065)\n      0x44\n      dup3\n      add\n      mstore\n      revert\n        /* \"contracts/TokenAllocationKernel.sol\":4413:4447  metricType >= 1 && metricType <= 4 */\n    tag_100:\n        /* \"contracts/TokenAllocationKernel.sol\":4432:4447  metricType <= 4 */\n      pop\n      dup1\n      dup5\n      gt\n      iszero\n        /* \"contracts/TokenAllocationKernel.sol\":4413:4447  metricType >= 1 && metricType <= 4 */\n      jump(tag_101)\n        /* \"contracts/TokenAllocationKernel.sol\":192:8364  contract TokenAllocationKernel {... */\n    tag_98:\n      dup6\n      mload\n      shl(0xe5, 0x461bcd)\n      dup2\n      mstore\n      0x20\n      dup2\n      dup7\n      add\n      mstore\n      0x1b\n      0x24\n      dup3\n      add\n      mstore\n      0x53636f7265206d757374206265206265747765656e20302d3130300000000000\n      0x44\n      dup3\n      add\n      mstore\n        /* \"contracts/TokenAllocationKernel.sol\":4360:4363  100 */\n      0x64\n      swap1\n        /* \"contracts/TokenAllocationKernel.sol\":192:8364  contract TokenAllocationKernel {... */\n      revert\n        /* \"contracts/TokenAllocationKernel.sol\":1388:1502  msg.sender == owner || ... */\n    tag_94:\n      pop\n        /* \"contracts/TokenAllocationKernel.sol\":1388:1398  msg.sender */\n      caller\n        /* \"contracts/TokenAllocationKernel.sol\":192:8364  contract TokenAllocationKernel {... */\n      0x00\n      swap1\n      dup2\n      mstore\n        /* \"contracts/TokenAllocationKernel.sol\":1472:1490  authorizedUpdaters */\n      0x03\n        /* \"contracts/TokenAllocationKernel.sol\":192:8364  contract TokenAllocationKernel {... */\n      0x20\n      mstore\n      dup7\n      swap1\n      keccak256\n      sload\n      0xff\n      and\n        /* \"contracts/TokenAllocationKernel.sol\":1388:1502  msg.sender == owner || ... */\n      jump(tag_95)\n        /* \"contracts/TokenAllocationKernel.sol\":1388:1455  msg.sender == owner || ... */\n    tag_92:\n        /* \"contracts/TokenAllocationKernel.sol\":192:8364  contract TokenAllocationKernel {... */\n      pop\n      dup2\n        /* \"contracts/TokenAllocationKernel.sol\":1438:1455  studyDAOAuthority */\n      0x01\n        /* \"contracts/TokenAllocationKernel.sol\":192:8364  contract TokenAllocationKernel {... */\n      sload\n      and\n        /* \"contracts/TokenAllocationKernel.sol\":1388:1398  msg.sender */\n      caller\n        /* \"contracts/TokenAllocationKernel.sol\":1424:1455  msg.sender == studyDAOAuthority */\n      eq\n        /* \"contracts/TokenAllocationKernel.sol\":1388:1455  msg.sender == owner || ... */\n      jump(tag_93)\n        /* \"contracts/TokenAllocationKernel.sol\":192:8364  contract TokenAllocationKernel {... */\n    tag_31:\n      pop\n      jumpi(tag_43, callvalue)\n      jumpi(tag_43, slt(add(not(0x03), calldatasize), 0x20))\n      0x20\n      swap1\n      0xff\n      tag_121\n      tag_122\n      tag_1\n      jump\t// in\n    tag_122:\n      tag_8\n      jump\t// in\n    tag_121:\n      swap2\n      mload\n      swap2\n      and\n      dup2\n      mstore\n      return\n    tag_29:\n      pop\n      jumpi(tag_43, callvalue)\n      jumpi(tag_43, slt(add(not(0x03), calldatasize), 0x20))\n      0x20\n      swap1\n      sub(shl(0xa0, 0x01), 0x01)\n      tag_127\n      tag_1\n      jump\t// in\n    tag_127:\n      and\n      0x00\n      mstore\n        /* \"contracts/TokenAllocationKernel.sol\":452:502  mapping(address => bool) public authorizedUpdaters */\n      0x03\n        /* \"contracts/TokenAllocationKernel.sol\":192:8364  contract TokenAllocationKernel {... */\n      dup3\n      mstore\n      0xff\n      dup2\n      0x00\n      keccak256\n      sload\n      and\n      swap1\n      mload\n      swap1\n      iszero\n      iszero\n      dup2\n      mstore\n      return\n    tag_27:\n      pop\n      jumpi(tag_43, callvalue)\n      jumpi(tag_43, slt(add(not(0x03), calldatasize), 0x00))\n      sload(0x00)\n      swap1\n      mload\n      sub(shl(0xa0, 0x01), 0x01)\n      swap1\n      swap2\n      and\n      dup2\n      mstore\n      0x20\n      swap1\n      return\n    tag_25:\n      pop\n      jumpi(tag_43, callvalue)\n      jumpi(tag_43, slt(add(not(0x03), calldatasize), 0x20))\n      tag_136\n      tag_1\n      jump\t// in\n    tag_136:\n      sload(0x00)\n      sub(shl(0xa0, 0x01), 0x01)\n      swap2\n      swap1\n        /* \"contracts/TokenAllocationKernel.sol\":1238:1303  require(msg.sender == owner, \"Only owner can call this function\") */\n      tag_137\n      swap1\n        /* \"contracts/TokenAllocationKernel.sol\":192:8364  contract TokenAllocationKernel {... */\n      dup4\n      and\n        /* \"contracts/TokenAllocationKernel.sol\":1246:1256  msg.sender */\n      caller\n        /* \"contracts/TokenAllocationKernel.sol\":1246:1265  msg.sender == owner */\n      eq\n        /* \"contracts/TokenAllocationKernel.sol\":1238:1303  require(msg.sender == owner, \"Only owner can call this function\") */\n      tag_4\n      jump\t// in\n    tag_137:\n        /* \"contracts/TokenAllocationKernel.sol\":192:8364  contract TokenAllocationKernel {... */\n      and\n        /* \"contracts/TokenAllocationKernel.sol\":2253:2274  updater != address(0) */\n      swap2\n      dup3\n      iszero\n        /* \"contracts/TokenAllocationKernel.sol\":192:8364  contract TokenAllocationKernel {... */\n      tag_138\n      jumpi\n      pop\n      dup2\n      0x00\n      mstore\n        /* \"contracts/TokenAllocationKernel.sol\":2312:2330  authorizedUpdaters */\n      0x03\n        /* \"contracts/TokenAllocationKernel.sol\":192:8364  contract TokenAllocationKernel {... */\n      0x20\n      mstore\n      0x00\n      keccak256\n        /* \"contracts/TokenAllocationKernel.sol\":2342:2346  true */\n      0x01\n        /* \"contracts/TokenAllocationKernel.sol\":192:8364  contract TokenAllocationKernel {... */\n      not(0xff)\n      dup3\n      sload\n      and\n      or\n      swap1\n      sstore\n        /* \"contracts/TokenAllocationKernel.sol\":2361:2387  UpdaterAuthorized(updater) */\n      0xfbc99308a04b9b530a8dbc7eb620a7597c4b92ff15390ab23ffdd979b9c592e4\n        /* \"contracts/TokenAllocationKernel.sol\":192:8364  contract TokenAllocationKernel {... */\n      0x00\n        /* \"contracts/TokenAllocationKernel.sol\":2361:2387  UpdaterAuthorized(updater) */\n      dup1\n      log2\n        /* \"contracts/TokenAllocationKernel.sol\":192:8364  contract TokenAllocationKernel {... */\n      stop\n    tag_138:\n      0x20\n      0x64\n      swap3\n      mload\n      swap2\n      shl(0xe5, 0x461bcd)\n      dup4\n      mstore\n      dup3\n      add\n      mstore\n      0x17\n      0x24\n      dup3\n      add\n      mstore\n      0x496e76616c696420757064617465722061646472657373000000000000000000\n      0x44\n      dup3\n      add\n      mstore\n      revert\n    tag_23:\n      pop\n      jumpi(tag_43, callvalue)\n      jumpi(tag_43, slt(add(not(0x03), calldatasize), 0x20))\n      0x20\n      swap1\n      tag_144\n      tag_145\n      tag_1\n      jump\t// in\n    tag_145:\n      tag_6\n      jump\t// in\n    tag_144:\n      swap1\n      mload\n      swap1\n      iszero\n      iszero\n      dup2\n      mstore\n      return\n    tag_21:\n      pop\n      jumpi(tag_43, callvalue)\n      jumpi(tag_43, slt(add(not(0x03), calldatasize), 0x00))\n      sload(0x01)\n      swap1\n      mload\n      sub(shl(0xa0, 0x01), 0x01)\n      swap1\n      swap2\n      and\n      dup2\n      mstore\n      0x20\n      swap1\n      return\n    tag_19:\n      pop\n      jumpi(tag_43, callvalue)\n      jumpi(tag_43, slt(add(not(0x03), calldatasize), 0x20))\n      tag_154\n      tag_1\n      jump\t// in\n    tag_154:\n      sload(0x00)\n      sub(shl(0xa0, 0x01), 0x01)\n      swap2\n      swap1\n        /* \"contracts/TokenAllocationKernel.sol\":1238:1303  require(msg.sender == owner, \"Only owner can call this function\") */\n      tag_155\n      swap1\n        /* \"contracts/TokenAllocationKernel.sol\":192:8364  contract TokenAllocationKernel {... */\n      dup4\n      and\n        /* \"contracts/TokenAllocationKernel.sol\":1246:1256  msg.sender */\n      caller\n        /* \"contracts/TokenAllocationKernel.sol\":1246:1265  msg.sender == owner */\n      eq\n        /* \"contracts/TokenAllocationKernel.sol\":1238:1303  require(msg.sender == owner, \"Only owner can call this function\") */\n      tag_4\n      jump\t// in\n    tag_155:\n        /* \"contracts/TokenAllocationKernel.sol\":192:8364  contract TokenAllocationKernel {... */\n      and\n      swap1\n      dup2\n      0x00\n      mstore\n        /* \"contracts/TokenAllocationKernel.sol\":2599:2617  authorizedUpdaters */\n      0x03\n        /* \"contracts/TokenAllocationKernel.sol\":192:8364  contract TokenAllocationKernel {... */\n      0x20\n      mstore\n      0x00\n      keccak256\n      not(0xff)\n      dup2\n      sload\n      and\n      swap1\n      sstore\n        /* \"contracts/TokenAllocationKernel.sol\":2649:2672  UpdaterRemoved(updater) */\n      0x209d819a9ec655e89f2b2b9d65c8a78879b45a8f20d1941d69c5fe6dc21bcb62\n        /* \"contracts/TokenAllocationKernel.sol\":192:8364  contract TokenAllocationKernel {... */\n      0x00\n        /* \"contracts/TokenAllocationKernel.sol\":2649:2672  UpdaterRemoved(updater) */\n      dup1\n      log2\n        /* \"contracts/TokenAllocationKernel.sol\":192:8364  contract TokenAllocationKernel {... */\n      stop\n    tag_17:\n      pop\n      swap1\n      jumpi(tag_43, callvalue)\n      jumpi(tag_43, slt(add(not(0x03), calldatasize), 0x20))\n      tag_160\n      tag_1\n      jump\t// in\n    tag_160:\n      sload(0x00)\n      sub(shl(0xa0, 0x01), 0x01)\n      swap2\n      swap1\n        /* \"contracts/TokenAllocationKernel.sol\":1238:1303  require(msg.sender == owner, \"Only owner can call this function\") */\n      tag_161\n      swap1\n        /* \"contracts/TokenAllocationKernel.sol\":192:8364  contract TokenAllocationKernel {... */\n      dup4\n      and\n        /* \"contracts/TokenAllocationKernel.sol\":1246:1256  msg.sender */\n      caller\n        /* \"contracts/TokenAllocationKernel.sol\":1246:1265  msg.sender == owner */\n      eq\n        /* \"contracts/TokenAllocationKernel.sol\":1238:1303  require(msg.sender == owner, \"Only owner can call this function\") */\n      tag_4\n      jump\t// in\n    tag_161:\n        /* \"contracts/TokenAllocationKernel.sol\":192:8364  contract TokenAllocationKernel {... */\n      and\n        /* \"contracts/TokenAllocationKernel.sol\":1899:1923  _authority != address(0) */\n      swap2\n      dup3\n      iszero\n        /* \"contracts/TokenAllocationKernel.sol\":192:8364  contract TokenAllocationKernel {... */\n      tag_162\n      jumpi\n        /* \"contracts/TokenAllocationKernel.sol\":1963:1993  studyDAOAuthority = _authority */\n      0x01\n        /* \"contracts/TokenAllocationKernel.sol\":192:8364  contract TokenAllocationKernel {... */\n      dup1\n      sload\n      not(sub(shl(0xa0, 0x01), 0x01))\n      and\n      dup5\n      or\n      swap1\n      sstore\n      dup3\n        /* \"contracts/TokenAllocationKernel.sol\":2008:2036  AuthorityUpdated(_authority) */\n      0x2f658b440c35314f52658ea8a740e05b284cdc84dc9ae01e891f21b8933e7cad\n      0x00\n      dup1\n      log2\n        /* \"contracts/TokenAllocationKernel.sol\":192:8364  contract TokenAllocationKernel {... */\n      stop\n    tag_162:\n      swap1\n      0x20\n      0x64\n      swap3\n      mload\n      swap2\n      shl(0xe5, 0x461bcd)\n      dup4\n      mstore\n      dup3\n      add\n      mstore\n      0x19\n      0x24\n      dup3\n      add\n      mstore\n      0x496e76616c696420617574686f72697479206164647265737300000000000000\n      0x44\n      dup3\n      add\n      mstore\n      revert\n    tag_1:\n      calldataload(0x04)\n      swap1\n      sub(shl(0xa0, 0x01), 0x01)\n      dup3\n      and\n      dup3\n      sub\n      tag_43\n      jumpi\n      jump\t// out\n    tag_2:\n      calldataload(0x24)\n      swap1\n      0xff\n      dup3\n      and\n      dup3\n      sub\n      tag_43\n      jumpi\n      jump\t// out\n    tag_3:\n      calldataload(0x44)\n      swap1\n      0xff\n      dup3\n      and\n      dup3\n      sub\n      tag_43\n      jumpi\n      jump\t// out\n    tag_4:\n      iszero\n      tag_170\n      jumpi\n      jump\t// out\n    tag_170:\n      mload(0x40)\n      shl(0xe5, 0x461bcd)\n      dup2\n      mstore\n      0x20\n      0x04\n      dup3\n      add\n      mstore\n      0x21\n      0x24\n      dup3\n      add\n      mstore\n      0x4f6e6c79206f776e65722063616e2063616c6c20746869732066756e6374696f\n      0x44\n      dup3\n      add\n      mstore\n      shl(0xf9, 0x37)\n      0x64\n      dup3\n      add\n      mstore\n      0x84\n      swap1\n      revert\n    tag_5:\n      swap2\n      swap1\n      dup3\n      sub\n      swap2\n      dup3\n      gt\n      tag_172\n      jumpi\n      jump\t// out\n    tag_172:\n      mstore(0x00, shl(0xe0, 0x4e487b71))\n      mstore(0x04, 0x11)\n      revert(0x00, 0x24)\n        /* \"contracts/TokenAllocationKernel.sol\":7697:8085  function areMetricsFresh(address user) external view returns (bool) {... */\n    tag_6:\n        /* \"contracts/TokenAllocationKernel.sol\":192:8364  contract TokenAllocationKernel {... */\n      0x01\n      dup1\n      0xa0\n      shl\n      sub\n      and\n      0x00\n      mstore\n        /* \"contracts/TokenAllocationKernel.sol\":7804:7815  userMetrics */\n      0x02\n        /* \"contracts/TokenAllocationKernel.sol\":192:8364  contract TokenAllocationKernel {... */\n      0x20\n      mstore\n      keccak256(0x00, 0x40)\n      mload(0x40)\n      0xa0\n      dup2\n      add\n      dup2\n      dup2\n      lt\n      0xffffffffffffffff\n      dup3\n      gt\n      or\n      tag_174\n      jumpi\n        /* \"contracts/TokenAllocationKernel.sol\":7844:7871  metrics.lastUpdateTimestamp */\n      0x80\n        /* \"contracts/TokenAllocationKernel.sol\":192:8364  contract TokenAllocationKernel {... */\n      swap3\n      0xffffffff\n      swap2\n      0x40\n      mstore\n      sload\n      0xff\n      dup2\n      and\n      dup4\n      mstore\n      0xff\n      dup2\n      0x08\n      shr\n      and\n      0x20\n      dup5\n      add\n      mstore\n      0xff\n      dup2\n      0x10\n      shr\n      and\n      0x40\n      dup5\n      add\n      mstore\n      0xff\n      dup2\n      0x18\n      shr\n      and\n      0x60\n      dup5\n      add\n      mstore\n      0x20\n      shr\n      and\n      swap2\n      dup3\n      swap2\n      add\n      mstore\n        /* \"contracts/TokenAllocationKernel.sol\":7844:7876  metrics.lastUpdateTimestamp == 0 */\n      dup1\n      iszero\n        /* \"contracts/TokenAllocationKernel.sol\":7840:7935  if (metrics.lastUpdateTimestamp == 0) {... */\n      tag_176\n      jumpi\n        /* \"contracts/TokenAllocationKernel.sol\":8021:8066  block.timestamp - metrics.lastUpdateTimestamp */\n      tag_178\n        /* \"contracts/TokenAllocationKernel.sol\":8071:8078  14 days */\n      0x127500\n        /* \"contracts/TokenAllocationKernel.sol\":8021:8036  block.timestamp */\n      swap2\n      timestamp\n        /* \"contracts/TokenAllocationKernel.sol\":8021:8066  block.timestamp - metrics.lastUpdateTimestamp */\n      tag_5\n      jump\t// in\n    tag_178:\n        /* \"contracts/TokenAllocationKernel.sol\":8020:8078  (block.timestamp - metrics.lastUpdateTimestamp) <= 14 days */\n      gt\n      iszero\n        /* \"contracts/TokenAllocationKernel.sol\":7697:8085  function areMetricsFresh(address user) external view returns (bool) {... */\n      swap1\n      jump\t// out\n        /* \"contracts/TokenAllocationKernel.sol\":7840:7935  if (metrics.lastUpdateTimestamp == 0) {... */\n    tag_176:\n        /* \"contracts/TokenAllocationKernel.sol\":7892:7904  return false */\n      pop\n      0x00\n      swap1\n      jump\t// out\n        /* \"contracts/TokenAllocationKernel.sol\":192:8364  contract TokenAllocationKernel {... */\n    tag_174:\n      mstore(0x00, shl(0xe0, 0x4e487b71))\n      mstore(0x04, 0x41)\n      revert(0x00, 0x24)\n    tag_7:\n      swap2\n      swap1\n      dup3\n      add\n      dup1\n      swap3\n      gt\n      tag_172\n      jumpi\n      jump\t// out\n        /* \"contracts/TokenAllocationKernel.sol\":5192:6583  function getRecommendedTokenAllocation(address user) external view returns (uint8) {... */\n    tag_8:\n        /* \"contracts/TokenAllocationKernel.sol\":192:8364  contract TokenAllocationKernel {... */\n      0x01\n      dup1\n      0xa0\n      shl\n      sub\n      and\n      0x00\n      mstore\n        /* \"contracts/TokenAllocationKernel.sol\":5314:5325  userMetrics */\n      0x02\n        /* \"contracts/TokenAllocationKernel.sol\":192:8364  contract TokenAllocationKernel {... */\n      0x20\n      mstore\n      keccak256(0x00, 0x40)\n      mload(0x40)\n      swap1\n      0xa0\n      dup3\n      add\n      dup3\n      dup2\n      lt\n      0xffffffffffffffff\n      dup3\n      gt\n      or\n      tag_174\n      jumpi\n      0x40\n      mstore\n      sload\n      swap1\n      0xff\n      swap2\n      dup3\n      dup2\n      and\n      dup3\n      mstore\n      0x20\n      dup3\n      add\n      dup4\n      dup3\n      0x08\n      shr\n      and\n      dup2\n      mstore\n      0x40\n      dup4\n      add\n      swap1\n      dup5\n      dup4\n      0x10\n      shr\n      and\n      dup3\n      mstore\n      0xffffffff\n      0x60\n      dup6\n      add\n      swap4\n      dup7\n      dup2\n      0x18\n      shr\n      and\n      dup6\n      mstore\n      0x20\n      shr\n      and\n      dup1\n      0x80\n      dup7\n      add\n      mstore\n        /* \"contracts/TokenAllocationKernel.sol\":5422:5454  metrics.lastUpdateTimestamp == 0 */\n      dup1\n      iszero\n        /* \"contracts/TokenAllocationKernel.sol\":5418:5530  if (metrics.lastUpdateTimestamp == 0) {... */\n      tag_183\n      jumpi\n        /* \"contracts/TokenAllocationKernel.sol\":5654:5699  block.timestamp - metrics.lastUpdateTimestamp */\n      tag_185\n        /* \"contracts/TokenAllocationKernel.sol\":5703:5709  1 days */\n      0x015180\n        /* \"contracts/TokenAllocationKernel.sol\":5654:5669  block.timestamp */\n      swap2\n      timestamp\n        /* \"contracts/TokenAllocationKernel.sol\":5654:5699  block.timestamp - metrics.lastUpdateTimestamp */\n      tag_5\n      jump\t// in\n    tag_185:\n        /* \"contracts/TokenAllocationKernel.sol\":192:8364  contract TokenAllocationKernel {... */\n      div\n        /* \"contracts/TokenAllocationKernel.sol\":5763:5765  30 */\n      0x1e\n        /* \"contracts/TokenAllocationKernel.sol\":5745:5765  daysSinceUpdate > 30 */\n      dup2\n      gt\n        /* \"contracts/TokenAllocationKernel.sol\":5763:5765  30 */\n      iszero\n      tag_186\n      jumpi\n        /* \"contracts/TokenAllocationKernel.sol\":5745:5794  daysSinceUpdate > 30 ? 70 : 100 - daysSinceUpdate */\n      pop\n      dup5\n        /* \"contracts/TokenAllocationKernel.sol\":5768:5770  70 */\n      0x46\n        /* \"contracts/TokenAllocationKernel.sol\":5745:5794  daysSinceUpdate > 30 ? 70 : 100 - daysSinceUpdate */\n      swap5\n    tag_188:\n        /* \"contracts/TokenAllocationKernel.sol\":192:8364  contract TokenAllocationKernel {... */\n      mload\n      and\n      swap1\n        /* \"contracts/TokenAllocationKernel.sol\":5763:5765  30 */\n      0x1e\n        /* \"contracts/TokenAllocationKernel.sol\":192:8364  contract TokenAllocationKernel {... */\n      dup3\n      mul\n      swap2\n      dup1\n      dup4\n      div\n        /* \"contracts/TokenAllocationKernel.sol\":5763:5765  30 */\n      0x1e\n        /* \"contracts/TokenAllocationKernel.sol\":192:8364  contract TokenAllocationKernel {... */\n      eq\n      swap1\n      iszero\n      or\n      iszero\n      tag_172\n      jumpi\n      dup6\n      swap1\n      mload\n      and\n      swap1\n        /* \"contracts/TokenAllocationKernel.sol\":6053:6055  25 */\n      0x19\n        /* \"contracts/TokenAllocationKernel.sol\":192:8364  contract TokenAllocationKernel {... */\n      dup3\n      mul\n      swap2\n      dup1\n      dup4\n      div\n        /* \"contracts/TokenAllocationKernel.sol\":6053:6055  25 */\n      0x19\n        /* \"contracts/TokenAllocationKernel.sol\":192:8364  contract TokenAllocationKernel {... */\n      eq\n      swap1\n      iszero\n      or\n      iszero\n      tag_172\n      jumpi\n        /* \"contracts/TokenAllocationKernel.sol\":5924:6055  uint256(metrics.participationScore) * 30 +     // 30% weight for participation... */\n      dup6\n      swap2\n      tag_193\n      swap2\n      tag_7\n      jump\t// in\n    tag_193:\n        /* \"contracts/TokenAllocationKernel.sol\":192:8364  contract TokenAllocationKernel {... */\n      swap2\n      mload\n      and\n      swap1\n        /* \"contracts/TokenAllocationKernel.sol\":6053:6055  25 */\n      0x19\n        /* \"contracts/TokenAllocationKernel.sol\":192:8364  contract TokenAllocationKernel {... */\n      dup3\n      mul\n      swap2\n      dup1\n      dup4\n      div\n        /* \"contracts/TokenAllocationKernel.sol\":6053:6055  25 */\n      0x19\n        /* \"contracts/TokenAllocationKernel.sol\":192:8364  contract TokenAllocationKernel {... */\n      eq\n      swap1\n      iszero\n      or\n      iszero\n      tag_172\n      jumpi\n        /* \"contracts/TokenAllocationKernel.sol\":5924:6153  uint256(metrics.participationScore) * 30 +     // 30% weight for participation... */\n      dup5\n      swap2\n      tag_196\n      swap2\n      tag_7\n      jump\t// in\n    tag_196:\n        /* \"contracts/TokenAllocationKernel.sol\":192:8364  contract TokenAllocationKernel {... */\n      swap2\n      mload\n      and\n      swap1\n        /* \"contracts/TokenAllocationKernel.sol\":6246:6248  20 */\n      0x14\n        /* \"contracts/TokenAllocationKernel.sol\":192:8364  contract TokenAllocationKernel {... */\n      dup3\n      mul\n      swap2\n      dup1\n      dup4\n      div\n        /* \"contracts/TokenAllocationKernel.sol\":6246:6248  20 */\n      0x14\n        /* \"contracts/TokenAllocationKernel.sol\":192:8364  contract TokenAllocationKernel {... */\n      eq\n      swap1\n      iszero\n      or\n      iszero\n      tag_172\n      jumpi\n        /* \"contracts/TokenAllocationKernel.sol\":6302:6305  100 */\n      0x64\n        /* \"contracts/TokenAllocationKernel.sol\":5924:6248  uint256(metrics.participationScore) * 30 +     // 30% weight for participation... */\n      swap2\n      tag_199\n      swap2\n      tag_7\n      jump\t// in\n    tag_199:\n        /* \"contracts/TokenAllocationKernel.sol\":192:8364  contract TokenAllocationKernel {... */\n      div\n      dup2\n      dup2\n      mul\n      swap2\n      dup2\n      dup4\n      div\n      eq\n      swap1\n      iszero\n      or\n      iszero\n      tag_172\n      jumpi\n        /* \"contracts/TokenAllocationKernel.sol\":6302:6305  100 */\n      0x64\n        /* \"contracts/TokenAllocationKernel.sol\":192:8364  contract TokenAllocationKernel {... */\n      swap1\n      div\n        /* \"contracts/TokenAllocationKernel.sol\":6302:6305  100 */\n      0x64\n        /* \"contracts/TokenAllocationKernel.sol\":6524:6545  finalAllocation > 100 */\n      dup2\n      gt\n        /* \"contracts/TokenAllocationKernel.sol\":6524:6576  finalAllocation > 100 ? 100 : uint8(finalAllocation) */\n      0x00\n        /* \"contracts/TokenAllocationKernel.sol\":6302:6305  100 */\n      eq\n      tag_202\n      jumpi\n        /* \"contracts/TokenAllocationKernel.sol\":6524:6576  finalAllocation > 100 ? 100 : uint8(finalAllocation) */\n      pop\n      pop\n        /* \"contracts/TokenAllocationKernel.sol\":6302:6305  100 */\n      0x64\n        /* \"contracts/TokenAllocationKernel.sol\":5192:6583  function getRecommendedTokenAllocation(address user) external view returns (uint8) {... */\n      swap1\n      jump\t// out\n        /* \"contracts/TokenAllocationKernel.sol\":6524:6576  finalAllocation > 100 ? 100 : uint8(finalAllocation) */\n    tag_202:\n        /* \"contracts/TokenAllocationKernel.sol\":192:8364  contract TokenAllocationKernel {... */\n      and\n        /* \"contracts/TokenAllocationKernel.sol\":5192:6583  function getRecommendedTokenAllocation(address user) external view returns (uint8) {... */\n      swap1\n      jump\t// out\n        /* \"contracts/TokenAllocationKernel.sol\":5745:5794  daysSinceUpdate > 30 ? 70 : 100 - daysSinceUpdate */\n    tag_186:\n        /* \"contracts/TokenAllocationKernel.sol\":5773:5776  100 */\n      0x64\n        /* \"contracts/TokenAllocationKernel.sol\":192:8364  contract TokenAllocationKernel {... */\n      sub\n        /* \"contracts/TokenAllocationKernel.sol\":5773:5776  100 */\n      0x64\n        /* \"contracts/TokenAllocationKernel.sol\":192:8364  contract TokenAllocationKernel {... */\n      dup2\n      gt\n      tag_172\n      jumpi\n        /* \"contracts/TokenAllocationKernel.sol\":5745:5794  daysSinceUpdate > 30 ? 70 : 100 - daysSinceUpdate */\n      dup6\n      swap1\n      swap5\n      jump(tag_188)\n        /* \"contracts/TokenAllocationKernel.sol\":5418:5530  if (metrics.lastUpdateTimestamp == 0) {... */\n    tag_183:\n        /* \"contracts/TokenAllocationKernel.sol\":5470:5479  return 30 */\n      pop\n      pop\n      pop\n      pop\n      pop\n      pop\n        /* \"contracts/TokenAllocationKernel.sol\":5477:5479  30 */\n      0x1e\n        /* \"contracts/TokenAllocationKernel.sol\":5470:5479  return 30 */\n      swap1\n      jump\t// out\n        /* \"contracts/TokenAllocationKernel.sol\":192:8364  contract TokenAllocationKernel {... */\n    tag_9:\n      iszero\n      tag_207\n      jumpi\n      jump\t// out\n    tag_207:\n      mload(0x40)\n      shl(0xe5, 0x461bcd)\n      dup2\n      mstore\n      0x20\n      0x04\n      dup3\n      add\n      mstore\n      0x0e\n      0x24\n      dup3\n      add\n      mstore\n      shl(0x92, 0x139bdd08185d5d1a1bdc9a5e9959)\n      0x44\n      dup3\n      add\n      mstore\n      0x64\n      swap1\n      revert\n    tag_10:\n      iszero\n      tag_209\n      jumpi\n      jump\t// out\n    tag_209:\n      mload(0x40)\n      shl(0xe5, 0x461bcd)\n      dup2\n      mstore\n      0x20\n      0x04\n      dup3\n      add\n      mstore\n      0x14\n      0x24\n      dup3\n      add\n      mstore\n      shl(0x60, 0x496e76616c696420757365722061646472657373)\n      0x44\n      dup3\n      add\n      mstore\n      0x64\n      swap1\n      revert\n\n    auxdata: 0xa26469706673582212203429b4dd85a270b5031aa18ae230a87dc655da07a9e15f95735e535e7def371764736f6c63430008180033\n}\n",
				"bytecode": {
					"linkReferences": {},
					"object": "6080806040523461003f575f80546001600160a01b0319163390811782558152600360205260409020805460ff19166001179055610bb390816100448239f35b5f80fdfe60406080815260049081361015610014575f80fd5b5f3560e01c80635f1076bb14610792578063603cda09146107255780636ad16934146106fd57806387bc50a5146106cf5780638c9b9fdc146106165780638da5cb5b146105ef5780638ff29cfe146105b3578063a5993a4e14610584578063ad9b8b4e146103ae578063c459ad3a146101ea578063f2fde38b146101615763f6ac8558146100a0575f80fd5b3461015d57602036600319011261015d576001600160a01b036100c161084a565b165f526002602052805f2081519260a084019084821067ffffffffffffffff83111761014a57509260809160a0948452549060ff82169384825260ff8360081c1680602084015260ff8460101c1692838382015263ffffffff60ff8660181c169586606084015260201c1695869101528151958652602086015284015260608301526080820152f35b604190634e487b7160e01b5f525260245ffd5b5f80fd5b50903461015d57602036600319011261015d5761017c61084a565b5f5491906001600160a01b03906101963383861614610880565b169283156101af5750506001600160a01b031916175f55005b906020606492519162461bcd60e51b83528201526015602482015274496e76616c6964206f776e6572206164647265737360581b6044820152fd5b50903461015d5760a036600319011261015d5761020561084a565b9061020e610860565b92610217610870565b60649182359260ff84169485850361015d576084359560ff87169788880361015d575f54849160ff916001600160a01b0391908216331480156103a1575b801561038b575b61026590610afd565b169a6102728c1515610b3a565b1698818a1115928361037c575b83610371575b5082610366575b505015610326575f8881526002602052839020805463ff000000601889901b1663ffffff00198a1663ffffffff199092169190911761ff00600888901b161762ff0000601089901b16171781558890610300905b805467ffffffff0000000019164260201b67ffffffff0000000016179055565b7f4f1349ff271a07da3530b42c2c3c00406af7b44e35f9fdf1f66fc450d18ef4e05f80a2005b602083519162461bcd60e51b8352820152601c60248201527f53636f726573206d757374206265206265747765656e20302d313030000000006044820152fd5b11159050825f61028c565b82101592505f610285565b92508160ff881611159261027f565b50335f908152600360205288902054831661025c565b5081600154163314610255565b50903461015d57606036600319011261015d576103c961084a565b906103d2610860565b6103da610870565b5f5490936001600160a01b0391821633148015610577575b8015610560575b61040290610afd565b169261040f841515610b3a565b60ff8116916064831161051d5760ff1692600184101580610513575b156104da57508394610300945f5260026020525f2092600181145f14610476575050815460ff1916178155805467ffffffff0000000019164260201b67ffffffff0000000016179055565b9091506002810361049b5750815461ff00191660089190911b61ff00161781556102e0565b6003036104bd57815462ff0000191660109190911b62ff0000161781556102e0565b815463ff000000191660189190911b63ff000000161781556102e0565b606490602087519162461bcd60e51b83528201526013602482015272496e76616c6964206d6574726963207479706560681b6044820152fd5b508084111561042b565b855162461bcd60e51b8152602081860152601b60248201527f53636f7265206d757374206265206265747765656e20302d31303000000000006044820152606490fd5b50335f90815260036020528690205460ff166103f9565b50816001541633146103f2565b503461015d57602036600319011261015d5760209060ff6105ab6105a661084a565b6109a3565b915191168152f35b503461015d57602036600319011261015d576020906001600160a01b036105d861084a565b165f526003825260ff815f20541690519015158152f35b503461015d575f36600319011261015d575f5490516001600160a01b039091168152602090f35b503461015d57602036600319011261015d5761063061084a565b5f546001600160a01b0391906106499083163314610880565b1691821561068d5750815f5260036020525f20600160ff198254161790557ffbc99308a04b9b530a8dbc7eb620a7597c4b92ff15390ab23ffdd979b9c592e45f80a2005b6020606492519162461bcd60e51b8352820152601760248201527f496e76616c6964207570646174657220616464726573730000000000000000006044820152fd5b503461015d57602036600319011261015d576020906106f46106ef61084a565b6108f7565b90519015158152f35b503461015d575f36600319011261015d5760015490516001600160a01b039091168152602090f35b503461015d57602036600319011261015d5761073f61084a565b5f546001600160a01b0391906107589083163314610880565b1690815f5260036020525f2060ff1981541690557f209d819a9ec655e89f2b2b9d65c8a78879b45a8f20d1941d69c5fe6dc21bcb625f80a2005b50903461015d57602036600319011261015d576107ad61084a565b5f546001600160a01b0391906107c69083163314610880565b1691821561080757600180546001600160a01b03191684179055827f2f658b440c35314f52658ea8a740e05b284cdc84dc9ae01e891f21b8933e7cad5f80a2005b906020606492519162461bcd60e51b8352820152601960248201527f496e76616c696420617574686f726974792061646472657373000000000000006044820152fd5b600435906001600160a01b038216820361015d57565b6024359060ff8216820361015d57565b6044359060ff8216820361015d57565b1561088757565b60405162461bcd60e51b815260206004820152602160248201527f4f6e6c79206f776e65722063616e2063616c6c20746869732066756e6374696f6044820152603760f91b6064820152608490fd5b919082039182116108e357565b634e487b7160e01b5f52601160045260245ffd5b60018060a01b03165f52600260205260405f2060405160a0810181811067ffffffffffffffff8211176109825760809263ffffffff916040525460ff8116835260ff8160081c16602084015260ff8160101c16604084015260ff8160181c16606084015260201c169182910152801561097d576109786212750091426108d6565b111590565b505f90565b634e487b7160e01b5f52604160045260245ffd5b919082018092116108e357565b60018060a01b03165f52600260205260405f206040519060a0820182811067ffffffffffffffff82111761098257604052549060ff91828116825260208201838260081c1681526040830190848360101c16825263ffffffff6060850193868160181c16855260201c168060808601528015610af257610a276201518091426108d6565b04601e811115610adf5750846046945b511690601e820291808304601e14901517156108e35785905116906019820291808304601914901517156108e3578591610a7091610996565b915116906019820291808304601914901517156108e3578491610a9291610996565b915116906014820291808304601414901517156108e357606491610ab591610996565b048181029181830414901517156108e35760649004606481115f14610adb575050606490565b1690565b606403606481116108e357859094610a37565b505050505050601e90565b15610b0457565b60405162461bcd60e51b815260206004820152600e60248201526d139bdd08185d5d1a1bdc9a5e995960921b6044820152606490fd5b15610b4157565b60405162461bcd60e51b8152602060048201526014602482015273496e76616c69642075736572206164647265737360601b6044820152606490fdfea26469706673582212203429b4dd85a270b5031aa18ae230a87dc655da07a9e15f95735e535e7def371764736f6c63430008180033",
					"opcodes": "PUSH1 0x80 DUP1 PUSH1 0x40 MSTORE CALLVALUE PUSH2 0x3F JUMPI PUSH0 DUP1 SLOAD PUSH1 0x1 PUSH1 0x1 PUSH1 0xA0 SHL SUB NOT AND CALLER SWAP1 DUP2 OR DUP3 SSTORE DUP2 MSTORE PUSH1 0x3 PUSH1 0x20 MSTORE PUSH1 0x40 SWAP1 KECCAK256 DUP1 SLOAD PUSH1 0xFF NOT AND PUSH1 0x1 OR SWAP1 SSTORE PUSH2 0xBB3 SWAP1 DUP2 PUSH2 0x44 DUP3 CODECOPY RETURN JUMPDEST PUSH0 DUP1 REVERT INVALID PUSH1 0x40 PUSH1 0x80 DUP2 MSTORE PUSH1 0x4 SWAP1 DUP2 CALLDATASIZE LT ISZERO PUSH2 0x14 JUMPI PUSH0 DUP1 REVERT JUMPDEST PUSH0 CALLDATALOAD PUSH1 0xE0 SHR DUP1 PUSH4 0x5F1076BB EQ PUSH2 0x792 JUMPI DUP1 PUSH4 0x603CDA09 EQ PUSH2 0x725 JUMPI DUP1 PUSH4 0x6AD16934 EQ PUSH2 0x6FD JUMPI DUP1 PUSH4 0x87BC50A5 EQ PUSH2 0x6CF JUMPI DUP1 PUSH4 0x8C9B9FDC EQ PUSH2 0x616 JUMPI DUP1 PUSH4 0x8DA5CB5B EQ PUSH2 0x5EF JUMPI DUP1 PUSH4 0x8FF29CFE EQ PUSH2 0x5B3 JUMPI DUP1 PUSH4 0xA5993A4E EQ PUSH2 0x584 JUMPI DUP1 PUSH4 0xAD9B8B4E EQ PUSH2 0x3AE JUMPI DUP1 PUSH4 0xC459AD3A EQ PUSH2 0x1EA JUMPI DUP1 PUSH4 0xF2FDE38B EQ PUSH2 0x161 JUMPI PUSH4 0xF6AC8558 EQ PUSH2 0xA0 JUMPI PUSH0 DUP1 REVERT JUMPDEST CALLVALUE PUSH2 0x15D JUMPI PUSH1 0x20 CALLDATASIZE PUSH1 0x3 NOT ADD SLT PUSH2 0x15D JUMPI PUSH1 0x1 PUSH1 0x1 PUSH1 0xA0 SHL SUB PUSH2 0xC1 PUSH2 0x84A JUMP JUMPDEST AND PUSH0 MSTORE PUSH1 0x2 PUSH1 0x20 MSTORE DUP1 PUSH0 KECCAK256 DUP2 MLOAD SWAP3 PUSH1 0xA0 DUP5 ADD SWAP1 DUP5 DUP3 LT PUSH8 0xFFFFFFFFFFFFFFFF DUP4 GT OR PUSH2 0x14A JUMPI POP SWAP3 PUSH1 0x80 SWAP2 PUSH1 0xA0 SWAP5 DUP5 MSTORE SLOAD SWAP1 PUSH1 0xFF DUP3 AND SWAP4 DUP5 DUP3 MSTORE PUSH1 0xFF DUP4 PUSH1 0x8 SHR AND DUP1 PUSH1 0x20 DUP5 ADD MSTORE PUSH1 0xFF DUP5 PUSH1 0x10 SHR AND SWAP3 DUP4 DUP4 DUP3 ADD MSTORE PUSH4 0xFFFFFFFF PUSH1 0xFF DUP7 PUSH1 0x18 SHR AND SWAP6 DUP7 PUSH1 0x60 DUP5 ADD MSTORE PUSH1 0x20 SHR AND SWAP6 DUP7 SWAP2 ADD MSTORE DUP2 MLOAD SWAP6 DUP7 MSTORE PUSH1 0x20 DUP7 ADD MSTORE DUP5 ADD MSTORE PUSH1 0x60 DUP4 ADD MSTORE PUSH1 0x80 DUP3 ADD MSTORE RETURN JUMPDEST PUSH1 0x41 SWAP1 PUSH4 0x4E487B71 PUSH1 0xE0 SHL PUSH0 MSTORE MSTORE PUSH1 0x24 PUSH0 REVERT JUMPDEST PUSH0 DUP1 REVERT JUMPDEST POP SWAP1 CALLVALUE PUSH2 0x15D JUMPI PUSH1 0x20 CALLDATASIZE PUSH1 0x3 NOT ADD SLT PUSH2 0x15D JUMPI PUSH2 0x17C PUSH2 0x84A JUMP JUMPDEST PUSH0 SLOAD SWAP2 SWAP1 PUSH1 0x1 PUSH1 0x1 PUSH1 0xA0 SHL SUB SWAP1 PUSH2 0x196 CALLER DUP4 DUP7 AND EQ PUSH2 0x880 JUMP JUMPDEST AND SWAP3 DUP4 ISZERO PUSH2 0x1AF JUMPI POP POP PUSH1 0x1 PUSH1 0x1 PUSH1 0xA0 SHL SUB NOT AND OR PUSH0 SSTORE STOP JUMPDEST SWAP1 PUSH1 0x20 PUSH1 0x64 SWAP3 MLOAD SWAP2 PUSH3 0x461BCD PUSH1 0xE5 SHL DUP4 MSTORE DUP3 ADD MSTORE PUSH1 0x15 PUSH1 0x24 DUP3 ADD MSTORE PUSH21 0x496E76616C6964206F776E65722061646472657373 PUSH1 0x58 SHL PUSH1 0x44 DUP3 ADD MSTORE REVERT JUMPDEST POP SWAP1 CALLVALUE PUSH2 0x15D JUMPI PUSH1 0xA0 CALLDATASIZE PUSH1 0x3 NOT ADD SLT PUSH2 0x15D JUMPI PUSH2 0x205 PUSH2 0x84A JUMP JUMPDEST SWAP1 PUSH2 0x20E PUSH2 0x860 JUMP JUMPDEST SWAP3 PUSH2 0x217 PUSH2 0x870 JUMP JUMPDEST PUSH1 0x64 SWAP2 DUP3 CALLDATALOAD SWAP3 PUSH1 0xFF DUP5 AND SWAP5 DUP6 DUP6 SUB PUSH2 0x15D JUMPI PUSH1 0x84 CALLDATALOAD SWAP6 PUSH1 0xFF DUP8 AND SWAP8 DUP9 DUP9 SUB PUSH2 0x15D JUMPI PUSH0 SLOAD DUP5 SWAP2 PUSH1 0xFF SWAP2 PUSH1 0x1 PUSH1 0x1 PUSH1 0xA0 SHL SUB SWAP2 SWAP1 DUP3 AND CALLER EQ DUP1 ISZERO PUSH2 0x3A1 JUMPI JUMPDEST DUP1 ISZERO PUSH2 0x38B JUMPI JUMPDEST PUSH2 0x265 SWAP1 PUSH2 0xAFD JUMP JUMPDEST AND SWAP11 PUSH2 0x272 DUP13 ISZERO ISZERO PUSH2 0xB3A JUMP JUMPDEST AND SWAP9 DUP2 DUP11 GT ISZERO SWAP3 DUP4 PUSH2 0x37C JUMPI JUMPDEST DUP4 PUSH2 0x371 JUMPI JUMPDEST POP DUP3 PUSH2 0x366 JUMPI JUMPDEST POP POP ISZERO PUSH2 0x326 JUMPI PUSH0 DUP9 DUP2 MSTORE PUSH1 0x2 PUSH1 0x20 MSTORE DUP4 SWAP1 KECCAK256 DUP1 SLOAD PUSH4 0xFF000000 PUSH1 0x18 DUP10 SWAP1 SHL AND PUSH4 0xFFFFFF00 NOT DUP11 AND PUSH4 0xFFFFFFFF NOT SWAP1 SWAP3 AND SWAP2 SWAP1 SWAP2 OR PUSH2 0xFF00 PUSH1 0x8 DUP9 SWAP1 SHL AND OR PUSH3 0xFF0000 PUSH1 0x10 DUP10 SWAP1 SHL AND OR OR DUP2 SSTORE DUP9 SWAP1 PUSH2 0x300 SWAP1 JUMPDEST DUP1 SLOAD PUSH8 0xFFFFFFFF00000000 NOT AND TIMESTAMP PUSH1 0x20 SHL PUSH8 0xFFFFFFFF00000000 AND OR SWAP1 SSTORE JUMP JUMPDEST PUSH32 0x4F1349FF271A07DA3530B42C2C3C00406AF7B44E35F9FDF1F66FC450D18EF4E0 PUSH0 DUP1 LOG2 STOP JUMPDEST PUSH1 0x20 DUP4 MLOAD SWAP2 PUSH3 0x461BCD PUSH1 0xE5 SHL DUP4 MSTORE DUP3 ADD MSTORE PUSH1 0x1C PUSH1 0x24 DUP3 ADD MSTORE PUSH32 0x53636F726573206D757374206265206265747765656E20302D31303000000000 PUSH1 0x44 DUP3 ADD MSTORE REVERT JUMPDEST GT ISZERO SWAP1 POP DUP3 PUSH0 PUSH2 0x28C JUMP JUMPDEST DUP3 LT ISZERO SWAP3 POP PUSH0 PUSH2 0x285 JUMP JUMPDEST SWAP3 POP DUP2 PUSH1 0xFF DUP9 AND GT ISZERO SWAP3 PUSH2 0x27F JUMP JUMPDEST POP CALLER PUSH0 SWAP1 DUP2 MSTORE PUSH1 0x3 PUSH1 0x20 MSTORE DUP9 SWAP1 KECCAK256 SLOAD DUP4 AND PUSH2 0x25C JUMP JUMPDEST POP DUP2 PUSH1 0x1 SLOAD AND CALLER EQ PUSH2 0x255 JUMP JUMPDEST POP SWAP1 CALLVALUE PUSH2 0x15D JUMPI PUSH1 0x60 CALLDATASIZE PUSH1 0x3 NOT ADD SLT PUSH2 0x15D JUMPI PUSH2 0x3C9 PUSH2 0x84A JUMP JUMPDEST SWAP1 PUSH2 0x3D2 PUSH2 0x860 JUMP JUMPDEST PUSH2 0x3DA PUSH2 0x870 JUMP JUMPDEST PUSH0 SLOAD SWAP1 SWAP4 PUSH1 0x1 PUSH1 0x1 PUSH1 0xA0 SHL SUB SWAP2 DUP3 AND CALLER EQ DUP1 ISZERO PUSH2 0x577 JUMPI JUMPDEST DUP1 ISZERO PUSH2 0x560 JUMPI JUMPDEST PUSH2 0x402 SWAP1 PUSH2 0xAFD JUMP JUMPDEST AND SWAP3 PUSH2 0x40F DUP5 ISZERO ISZERO PUSH2 0xB3A JUMP JUMPDEST PUSH1 0xFF DUP2 AND SWAP2 PUSH1 0x64 DUP4 GT PUSH2 0x51D JUMPI PUSH1 0xFF AND SWAP3 PUSH1 0x1 DUP5 LT ISZERO DUP1 PUSH2 0x513 JUMPI JUMPDEST ISZERO PUSH2 0x4DA JUMPI POP DUP4 SWAP5 PUSH2 0x300 SWAP5 PUSH0 MSTORE PUSH1 0x2 PUSH1 0x20 MSTORE PUSH0 KECCAK256 SWAP3 PUSH1 0x1 DUP2 EQ PUSH0 EQ PUSH2 0x476 JUMPI POP POP DUP2 SLOAD PUSH1 0xFF NOT AND OR DUP2 SSTORE DUP1 SLOAD PUSH8 0xFFFFFFFF00000000 NOT AND TIMESTAMP PUSH1 0x20 SHL PUSH8 0xFFFFFFFF00000000 AND OR SWAP1 SSTORE JUMP JUMPDEST SWAP1 SWAP2 POP PUSH1 0x2 DUP2 SUB PUSH2 0x49B JUMPI POP DUP2 SLOAD PUSH2 0xFF00 NOT AND PUSH1 0x8 SWAP2 SWAP1 SWAP2 SHL PUSH2 0xFF00 AND OR DUP2 SSTORE PUSH2 0x2E0 JUMP JUMPDEST PUSH1 0x3 SUB PUSH2 0x4BD JUMPI DUP2 SLOAD PUSH3 0xFF0000 NOT AND PUSH1 0x10 SWAP2 SWAP1 SWAP2 SHL PUSH3 0xFF0000 AND OR DUP2 SSTORE PUSH2 0x2E0 JUMP JUMPDEST DUP2 SLOAD PUSH4 0xFF000000 NOT AND PUSH1 0x18 SWAP2 SWAP1 SWAP2 SHL PUSH4 0xFF000000 AND OR DUP2 SSTORE PUSH2 0x2E0 JUMP JUMPDEST PUSH1 0x64 SWAP1 PUSH1 0x20 DUP8 MLOAD SWAP2 PUSH3 0x461BCD PUSH1 0xE5 SHL DUP4 MSTORE DUP3 ADD MSTORE PUSH1 0x13 PUSH1 0x24 DUP3 ADD MSTORE PUSH19 0x496E76616C6964206D65747269632074797065 PUSH1 0x68 SHL PUSH1 0x44 DUP3 ADD MSTORE REVERT JUMPDEST POP DUP1 DUP5 GT ISZERO PUSH2 0x42B JUMP JUMPDEST DUP6 MLOAD PUSH3 0x461BCD PUSH1 0xE5 SHL DUP2 MSTORE PUSH1 0x20 DUP2 DUP7 ADD MSTORE PUSH1 0x1B PUSH1 0x24 DUP3 ADD MSTORE PUSH32 0x53636F7265206D757374206265206265747765656E20302D3130300000000000 PUSH1 0x44 DUP3 ADD MSTORE PUSH1 0x64 SWAP1 REVERT JUMPDEST POP CALLER PUSH0 SWAP1 DUP2 MSTORE PUSH1 0x3 PUSH1 0x20 MSTORE DUP7 SWAP1 KECCAK256 SLOAD PUSH1 0xFF AND PUSH2 0x3F9 JUMP JUMPDEST POP DUP2 PUSH1 0x1 SLOAD AND CALLER EQ PUSH2 0x3F2 JUMP JUMPDEST POP CALLVALUE PUSH2 0x15D JUMPI PUSH1 0x20 CALLDATASIZE PUSH1 0x3 NOT ADD SLT PUSH2 0x15D JUMPI PUSH1 0x20 SWAP1 PUSH1 0xFF PUSH2 0x5AB PUSH2 0x5A6 PUSH2 0x84A JUMP JUMPDEST PUSH2 0x9A3 JUMP JUMPDEST SWAP2 MLOAD SWAP2 AND DUP2 MSTORE RETURN JUMPDEST POP CALLVALUE PUSH2 0x15D JUMPI PUSH1 0x20 CALLDATASIZE PUSH1 0x3 NOT ADD SLT PUSH2 0x15D JUMPI PUSH1 0x20 SWAP1 PUSH1 0x1 PUSH1 0x1 PUSH1 0xA0 SHL SUB PUSH2 0x5D8 PUSH2 0x84A JUMP JUMPDEST AND PUSH0 MSTORE PUSH1 0x3 DUP3 MSTORE PUSH1 0xFF DUP2 PUSH0 KECCAK256 SLOAD AND SWAP1 MLOAD SWAP1 ISZERO ISZERO DUP2 MSTORE RETURN JUMPDEST POP CALLVALUE PUSH2 0x15D JUMPI PUSH0 CALLDATASIZE PUSH1 0x3 NOT ADD SLT PUSH2 0x15D JUMPI PUSH0 SLOAD SWAP1 MLOAD PUSH1 0x1 PUSH1 0x1 PUSH1 0xA0 SHL SUB SWAP1 SWAP2 AND DUP2 MSTORE PUSH1 0x20 SWAP1 RETURN JUMPDEST POP CALLVALUE PUSH2 0x15D JUMPI PUSH1 0x20 CALLDATASIZE PUSH1 0x3 NOT ADD SLT PUSH2 0x15D JUMPI PUSH2 0x630 PUSH2 0x84A JUMP JUMPDEST PUSH0 SLOAD PUSH1 0x1 PUSH1 0x1 PUSH1 0xA0 SHL SUB SWAP2 SWAP1 PUSH2 0x649 SWAP1 DUP4 AND CALLER EQ PUSH2 0x880 JUMP JUMPDEST AND SWAP2 DUP3 ISZERO PUSH2 0x68D JUMPI POP DUP2 PUSH0 MSTORE PUSH1 0x3 PUSH1 0x20 MSTORE PUSH0 KECCAK256 PUSH1 0x1 PUSH1 0xFF NOT DUP3 SLOAD AND OR SWAP1 SSTORE PUSH32 0xFBC99308A04B9B530A8DBC7EB620A7597C4B92FF15390AB23FFDD979B9C592E4 PUSH0 DUP1 LOG2 STOP JUMPDEST PUSH1 0x20 PUSH1 0x64 SWAP3 MLOAD SWAP2 PUSH3 0x461BCD PUSH1 0xE5 SHL DUP4 MSTORE DUP3 ADD MSTORE PUSH1 0x17 PUSH1 0x24 DUP3 ADD MSTORE PUSH32 0x496E76616C696420757064617465722061646472657373000000000000000000 PUSH1 0x44 DUP3 ADD MSTORE REVERT JUMPDEST POP CALLVALUE PUSH2 0x15D JUMPI PUSH1 0x20 CALLDATASIZE PUSH1 0x3 NOT ADD SLT PUSH2 0x15D JUMPI PUSH1 0x20 SWAP1 PUSH2 0x6F4 PUSH2 0x6EF PUSH2 0x84A JUMP JUMPDEST PUSH2 0x8F7 JUMP JUMPDEST SWAP1 MLOAD SWAP1 ISZERO ISZERO DUP2 MSTORE RETURN JUMPDEST POP CALLVALUE PUSH2 0x15D JUMPI PUSH0 CALLDATASIZE PUSH1 0x3 NOT ADD SLT PUSH2 0x15D JUMPI PUSH1 0x1 SLOAD SWAP1 MLOAD PUSH1 0x1 PUSH1 0x1 PUSH1 0xA0 SHL SUB SWAP1 SWAP2 AND DUP2 MSTORE PUSH1 0x20 SWAP1 RETURN JUMPDEST POP CALLVALUE PUSH2 0x15D JUMPI PUSH1 0x20 CALLDATASIZE PUSH1 0x3 NOT ADD SLT PUSH2 0x15D JUMPI PUSH2 0x73F PUSH2 0x84A JUMP JUMPDEST PUSH0 SLOAD PUSH1 0x1 PUSH1 0x1 PUSH1 0xA0 SHL SUB SWAP2 SWAP1 PUSH2 0x758 SWAP1 DUP4 AND CALLER EQ PUSH2 0x880 JUMP JUMPDEST AND SWAP1 DUP2 PUSH0 MSTORE PUSH1 0x3 PUSH1 0x20 MSTORE PUSH0 KECCAK256 PUSH1 0xFF NOT DUP2 SLOAD AND SWAP1 SSTORE PUSH32 0x209D819A9EC655E89F2B2B9D65C8A78879B45A8F20D1941D69C5FE6DC21BCB62 PUSH0 DUP1 LOG2 STOP JUMPDEST POP SWAP1 CALLVALUE PUSH2 0x15D JUMPI PUSH1 0x20 CALLDATASIZE PUSH1 0x3 NOT ADD SLT PUSH2 0x15D JUMPI PUSH2 0x7AD PUSH2 0x84A JUMP JUMPDEST PUSH0 SLOAD PUSH1 0x1 PUSH1 0x1 PUSH1 0xA0 SHL SUB SWAP2 SWAP1 PUSH2 0x7C6 SWAP1 DUP4 AND CALLER EQ PUSH2 0x880 JUMP JUMPDEST AND SWAP2 DUP3 ISZERO PUSH2 0x807 JUMPI PUSH1 0x1 DUP1 SLOAD PUSH1 0x1 PUSH1 0x1 PUSH1 0xA0 SHL SUB NOT AND DUP5 OR SWAP1 SSTORE DUP3 PUSH32 0x2F658B440C35314F52658EA8A740E05B284CDC84DC9AE01E891F21B8933E7CAD PUSH0 DUP1 LOG2 STOP JUMPDEST SWAP1 PUSH1 0x20 PUSH1 0x64 SWAP3 MLOAD SWAP2 PUSH3 0x461BCD PUSH1 0xE5 SHL DUP4 MSTORE DUP3 ADD MSTORE PUSH1 0x19 PUSH1 0x24 DUP3 ADD MSTORE PUSH32 0x496E76616C696420617574686F72697479206164647265737300000000000000 PUSH1 0x44 DUP3 ADD MSTORE REVERT JUMPDEST PUSH1 0x4 CALLDATALOAD SWAP1 PUSH1 0x1 PUSH1 0x1 PUSH1 0xA0 SHL SUB DUP3 AND DUP3 SUB PUSH2 0x15D JUMPI JUMP JUMPDEST PUSH1 0x24 CALLDATALOAD SWAP1 PUSH1 0xFF DUP3 AND DUP3 SUB PUSH2 0x15D JUMPI JUMP JUMPDEST PUSH1 0x44 CALLDATALOAD SWAP1 PUSH1 0xFF DUP3 AND DUP3 SUB PUSH2 0x15D JUMPI JUMP JUMPDEST ISZERO PUSH2 0x887 JUMPI JUMP JUMPDEST PUSH1 0x40 MLOAD PUSH3 0x461BCD PUSH1 0xE5 SHL DUP2 MSTORE PUSH1 0x20 PUSH1 0x4 DUP3 ADD MSTORE PUSH1 0x21 PUSH1 0x24 DUP3 ADD MSTORE PUSH32 0x4F6E6C79206F776E65722063616E2063616C6C20746869732066756E6374696F PUSH1 0x44 DUP3 ADD MSTORE PUSH1 0x37 PUSH1 0xF9 SHL PUSH1 0x64 DUP3 ADD MSTORE PUSH1 0x84 SWAP1 REVERT JUMPDEST SWAP2 SWAP1 DUP3 SUB SWAP2 DUP3 GT PUSH2 0x8E3 JUMPI JUMP JUMPDEST PUSH4 0x4E487B71 PUSH1 0xE0 SHL PUSH0 MSTORE PUSH1 0x11 PUSH1 0x4 MSTORE PUSH1 0x24 PUSH0 REVERT JUMPDEST PUSH1 0x1 DUP1 PUSH1 0xA0 SHL SUB AND PUSH0 MSTORE PUSH1 0x2 PUSH1 0x20 MSTORE PUSH1 0x40 PUSH0 KECCAK256 PUSH1 0x40 MLOAD PUSH1 0xA0 DUP2 ADD DUP2 DUP2 LT PUSH8 0xFFFFFFFFFFFFFFFF DUP3 GT OR PUSH2 0x982 JUMPI PUSH1 0x80 SWAP3 PUSH4 0xFFFFFFFF SWAP2 PUSH1 0x40 MSTORE SLOAD PUSH1 0xFF DUP2 AND DUP4 MSTORE PUSH1 0xFF DUP2 PUSH1 0x8 SHR AND PUSH1 0x20 DUP5 ADD MSTORE PUSH1 0xFF DUP2 PUSH1 0x10 SHR AND PUSH1 0x40 DUP5 ADD MSTORE PUSH1 0xFF DUP2 PUSH1 0x18 SHR AND PUSH1 0x60 DUP5 ADD MSTORE PUSH1 0x20 SHR AND SWAP2 DUP3 SWAP2 ADD MSTORE DUP1 ISZERO PUSH2 0x97D JUMPI PUSH2 0x978 PUSH3 0x127500 SWAP2 TIMESTAMP PUSH2 0x8D6 JUMP JUMPDEST GT ISZERO SWAP1 JUMP JUMPDEST POP PUSH0 SWAP1 JUMP JUMPDEST PUSH4 0x4E487B71 PUSH1 0xE0 SHL PUSH0 MSTORE PUSH1 0x41 PUSH1 0x4 MSTORE PUSH1 0x24 PUSH0 REVERT JUMPDEST SWAP2 SWAP1 DUP3 ADD DUP1 SWAP3 GT PUSH2 0x8E3 JUMPI JUMP JUMPDEST PUSH1 0x1 DUP1 PUSH1 0xA0 SHL SUB AND PUSH0 MSTORE PUSH1 0x2 PUSH1 0x20 MSTORE PUSH1 0x40 PUSH0 KECCAK256 PUSH1 0x40 MLOAD SWAP1 PUSH1 0xA0 DUP3 ADD DUP3 DUP2 LT PUSH8 0xFFFFFFFFFFFFFFFF DUP3 GT OR PUSH2 0x982 JUMPI PUSH1 0x40 MSTORE SLOAD SWAP1 PUSH1 0xFF SWAP2 DUP3 DUP2 AND DUP3 MSTORE PUSH1 0x20 DUP3 ADD DUP4 DUP3 PUSH1 0x8 SHR AND DUP2 MSTORE PUSH1 0x40 DUP4 ADD SWAP1 DUP5 DUP4 PUSH1 0x10 SHR AND DUP3 MSTORE PUSH4 0xFFFFFFFF PUSH1 0x60 DUP6 ADD SWAP4 DUP7 DUP2 PUSH1 0x18 SHR AND DUP6 MSTORE PUSH1 0x20 SHR AND DUP1 PUSH1 0x80 DUP7 ADD MSTORE DUP1 ISZERO PUSH2 0xAF2 JUMPI PUSH2 0xA27 PUSH3 0x15180 SWAP2 TIMESTAMP PUSH2 0x8D6 JUMP JUMPDEST DIV PUSH1 0x1E DUP2 GT ISZERO PUSH2 0xADF JUMPI POP DUP5 PUSH1 0x46 SWAP5 JUMPDEST MLOAD AND SWAP1 PUSH1 0x1E DUP3 MUL SWAP2 DUP1 DUP4 DIV PUSH1 0x1E EQ SWAP1 ISZERO OR ISZERO PUSH2 0x8E3 JUMPI DUP6 SWAP1 MLOAD AND SWAP1 PUSH1 0x19 DUP3 MUL SWAP2 DUP1 DUP4 DIV PUSH1 0x19 EQ SWAP1 ISZERO OR ISZERO PUSH2 0x8E3 JUMPI DUP6 SWAP2 PUSH2 0xA70 SWAP2 PUSH2 0x996 JUMP JUMPDEST SWAP2 MLOAD AND SWAP1 PUSH1 0x19 DUP3 MUL SWAP2 DUP1 DUP4 DIV PUSH1 0x19 EQ SWAP1 ISZERO OR ISZERO PUSH2 0x8E3 JUMPI DUP5 SWAP2 PUSH2 0xA92 SWAP2 PUSH2 0x996 JUMP JUMPDEST SWAP2 MLOAD AND SWAP1 PUSH1 0x14 DUP3 MUL SWAP2 DUP1 DUP4 DIV PUSH1 0x14 EQ SWAP1 ISZERO OR ISZERO PUSH2 0x8E3 JUMPI PUSH1 0x64 SWAP2 PUSH2 0xAB5 SWAP2 PUSH2 0x996 JUMP JUMPDEST DIV DUP2 DUP2 MUL SWAP2 DUP2 DUP4 DIV EQ SWAP1 ISZERO OR ISZERO PUSH2 0x8E3 JUMPI PUSH1 0x64 SWAP1 DIV PUSH1 0x64 DUP2 GT PUSH0 EQ PUSH2 0xADB JUMPI POP POP PUSH1 0x64 SWAP1 JUMP JUMPDEST AND SWAP1 JUMP JUMPDEST PUSH1 0x64 SUB PUSH1 0x64 DUP2 GT PUSH2 0x8E3 JUMPI DUP6 SWAP1 SWAP5 PUSH2 0xA37 JUMP JUMPDEST POP POP POP POP POP POP PUSH1 0x1E SWAP1 JUMP JUMPDEST ISZERO PUSH2 0xB04 JUMPI JUMP JUMPDEST PUSH1 0x40 MLOAD PUSH3 0x461BCD PUSH1 0xE5 SHL DUP2 MSTORE PUSH1 0x20 PUSH1 0x4 DUP3 ADD MSTORE PUSH1 0xE PUSH1 0x24 DUP3 ADD MSTORE PUSH14 0x139BDD08185D5D1A1BDC9A5E9959 PUSH1 0x92 SHL PUSH1 0x44 DUP3 ADD MSTORE PUSH1 0x64 SWAP1 REVERT JUMPDEST ISZERO PUSH2 0xB41 JUMPI JUMP JUMPDEST PUSH1 0x40 MLOAD PUSH3 0x461BCD PUSH1 0xE5 SHL DUP2 MSTORE PUSH1 0x20 PUSH1 0x4 DUP3 ADD MSTORE PUSH1 0x14 PUSH1 0x24 DUP3 ADD MSTORE PUSH20 0x496E76616C696420757365722061646472657373 PUSH1 0x60 SHL PUSH1 0x44 DUP3 ADD MSTORE PUSH1 0x64 SWAP1 REVERT INVALID LOG2 PUSH5 0x6970667358 0x22 SLT KECCAK256 CALLVALUE 0x29 0xB4 0xDD DUP6 LOG2 PUSH17 0xB5031AA18AE230A87DC655DA07A9E15F95 PUSH20 0x5E535E7DEF371764736F6C634300081800330000 "
				},
				"gasEstimates": {
					"creation": {
						"codeDepositCost": "599000",
						"executionCost": "49163",
						"totalCost": "648163"
					},
					"external": {
						"addAuthorizedUpdater(address)": "27913",
						"areMetricsFresh(address)": "2804",
						"authorizedUpdaters(address)": "2556",
						"getRecommendedTokenAllocation(address)": "infinite",
						"getUserDetailedMetrics(address)": "2940",
						"owner()": "2392",
						"removeAuthorizedUpdater(address)": "27820",
						"setStudyDAOAuthority(address)": "27783",
						"studyDAOAuthority()": "2327",
						"transferOwnership(address)": "24764",
						"updateSingleMetric(address,uint8,uint8)": "56996",
						"updateUserMetrics(address,uint8,uint8,uint8,uint8)": "57180"
					}
				},
				"methodIdentifiers": {
					"addAuthorizedUpdater(address)": "8c9b9fdc",
					"areMetricsFresh(address)": "87bc50a5",
					"authorizedUpdaters(address)": "8ff29cfe",
					"getRecommendedTokenAllocation(address)": "a5993a4e",
					"getUserDetailedMetrics(address)": "f6ac8558",
					"owner()": "8da5cb5b",
					"removeAuthorizedUpdater(address)": "603cda09",
					"setStudyDAOAuthority(address)": "5f1076bb",
					"studyDAOAuthority()": "6ad16934",
					"transferOwnership(address)": "f2fde38b",
					"updateSingleMetric(address,uint8,uint8)": "ad9b8b4e",
					"updateUserMetrics(address,uint8,uint8,uint8,uint8)": "c459ad3a"
				}
			},
			"storageLayout": {
				"storage": [
					{
						"astId": 4,
						"contract": "contracts/TokenAllocationKernel.sol:TokenAllocationKernel",
						"label": "owner",
						"offset": 0,
						"slot": "0",
						"type": "t_address"
					},
					{
						"astId": 6,
						"contract": "contracts/TokenAllocationKernel.sol:TokenAllocationKernel",
						"label": "studyDAOAuthority",
						"offset": 0,
						"slot": "1",
						"type": "t_address"
					},
					{
						"astId": 11,
						"contract": "contracts/TokenAllocationKernel.sol:TokenAllocationKernel",
						"label": "userMetrics",
						"offset": 0,
						"slot": "2",
						"type": "t_mapping(t_address,t_struct(UserMetrics)26_storage)"
					},
					{
						"astId": 15,
						"contract": "contracts/TokenAllocationKernel.sol:TokenAllocationKernel",
						"label": "authorizedUpdaters",
						"offset": 0,
						"slot": "3",
						"type": "t_mapping(t_address,t_bool)"
					}
				],
				"types": {
					"t_address": {
						"encoding": "inplace",
						"label": "address",
						"numberOfBytes": "20"
					},
					"t_bool": {
						"encoding": "inplace",
						"label": "bool",
						"numberOfBytes": "1"
					},
					"t_mapping(t_address,t_bool)": {
						"encoding": "mapping",
						"key": "t_address",
						"label": "mapping(address => bool)",
						"numberOfBytes": "32",
						"value": "t_bool"
					},
					"t_mapping(t_address,t_struct(UserMetrics)26_storage)": {
						"encoding": "mapping",
						"key": "t_address",
						"label": "mapping(address => struct TokenAllocationKernel.UserMetrics)",
						"numberOfBytes": "32",
						"value": "t_struct(UserMetrics)26_storage"
					},
					"t_struct(UserMetrics)26_storage": {
						"encoding": "inplace",
						"label": "struct TokenAllocationKernel.UserMetrics",
						"members": [
							{
								"astId": 17,
								"contract": "contracts/TokenAllocationKernel.sol:TokenAllocationKernel",
								"label": "participationScore",
								"offset": 0,
								"slot": "0",
								"type": "t_uint8"
							},
							{
								"astId": 19,
								"contract": "contracts/TokenAllocationKernel.sol:TokenAllocationKernel",
								"label": "contributionScore",
								"offset": 1,
								"slot": "0",
								"type": "t_uint8"
							},
							{
								"astId": 21,
								"contract": "contracts/TokenAllocationKernel.sol:TokenAllocationKernel",
								"label": "consistencyScore",
								"offset": 2,
								"slot": "0",
								"type": "t_uint8"
							},
							{
								"astId": 23,
								"contract": "contracts/TokenAllocationKernel.sol:TokenAllocationKernel",
								"label": "tokenUtilizationScore",
								"offset": 3,
								"slot": "0",
								"type": "t_uint8"
							},
							{
								"astId": 25,
								"contract": "contracts/TokenAllocationKernel.sol:TokenAllocationKernel",
								"label": "lastUpdateTimestamp",
								"offset": 4,
								"slot": "0",
								"type": "t_uint32"
							}
						],
						"numberOfBytes": "32"
					},
					"t_uint32": {
						"encoding": "inplace",
						"label": "uint32",
						"numberOfBytes": "4"
					},
					"t_uint8": {
						"encoding": "inplace",
						"label": "uint8",
						"numberOfBytes": "1"
					}
				}
			},
			"userdoc": {
				"kind": "user",
				"methods": {},
				"version": 1
			}
		}
	}
}