{
	"contracts/StudyTokenAuthority.sol": {
		"StudyTokenAuthority": {
			"abi": [
				{
					"inputs": [
						{
							"internalType": "address",
							"name": "_studyTokenAddress",
							"type": "address"
						},
						{
							"internalType": "uint256",
							"name": "_defaultDailyLimit",
							"type": "uint256"
						}
					],
					"stateMutability": "nonpayable",
					"type": "constructor"
				},
				{
					"anonymous": false,
					"inputs": [
						{
							"indexed": true,
							"internalType": "address",
							"name": "contractAddress",
							"type": "address"
						}
					],
					"name": "ContractAuthorized",
					"type": "event"
				},
				{
					"anonymous": false,
					"inputs": [
						{
							"indexed": true,
							"internalType": "address",
							"name": "contractAddress",
							"type": "address"
						}
					],
					"name": "ContractDeauthorized",
					"type": "event"
				},
				{
					"anonymous": false,
					"inputs": [
						{
							"indexed": true,
							"internalType": "address",
							"name": "user",
							"type": "address"
						},
						{
							"indexed": false,
							"internalType": "uint256",
							"name": "amount",
							"type": "uint256"
						},
						{
							"indexed": false,
							"internalType": "string",
							"name": "operation",
							"type": "string"
						}
					],
					"name": "TokenOperationApproved",
					"type": "event"
				},
				{
					"anonymous": false,
					"inputs": [
						{
							"indexed": true,
							"internalType": "address",
							"name": "user",
							"type": "address"
						},
						{
							"indexed": false,
							"internalType": "uint256",
							"name": "amount",
							"type": "uint256"
						},
						{
							"indexed": false,
							"internalType": "string",
							"name": "operation",
							"type": "string"
						}
					],
					"name": "TokenOperationDenied",
					"type": "event"
				},
				{
					"anonymous": false,
					"inputs": [
						{
							"indexed": true,
							"internalType": "address",
							"name": "user",
							"type": "address"
						},
						{
							"indexed": false,
							"internalType": "uint256",
							"name": "limit",
							"type": "uint256"
						}
					],
					"name": "UserLimitSet",
					"type": "event"
				},
				{
					"inputs": [
						{
							"internalType": "address",
							"name": "contractAddress",
							"type": "address"
						}
					],
					"name": "authorizeContract",
					"outputs": [],
					"stateMutability": "nonpayable",
					"type": "function"
				},
				{
					"inputs": [
						{
							"internalType": "address",
							"name": "to",
							"type": "address"
						},
						{
							"internalType": "uint256",
							"name": "amount",
							"type": "uint256"
						}
					],
					"name": "authorizeMint",
					"outputs": [
						{
							"internalType": "bool",
							"name": "",
							"type": "bool"
						}
					],
					"stateMutability": "nonpayable",
					"type": "function"
				},
				{
					"inputs": [
						{
							"internalType": "address",
							"name": "studyGroupAddress",
							"type": "address"
						}
					],
					"name": "authorizeStudyGroupAsMinter",
					"outputs": [
						{
							"internalType": "bool",
							"name": "",
							"type": "bool"
						}
					],
					"stateMutability": "nonpayable",
					"type": "function"
				},
				{
					"inputs": [
						{
							"internalType": "address",
							"name": "from",
							"type": "address"
						},
						{
							"internalType": "address",
							"name": "to",
							"type": "address"
						},
						{
							"internalType": "uint256",
							"name": "amount",
							"type": "uint256"
						}
					],
					"name": "authorizeTransfer",
					"outputs": [
						{
							"internalType": "bool",
							"name": "",
							"type": "bool"
						}
					],
					"stateMutability": "nonpayable",
					"type": "function"
				},
				{
					"inputs": [
						{
							"internalType": "address",
							"name": "",
							"type": "address"
						}
					],
					"name": "authorizedContracts",
					"outputs": [
						{
							"internalType": "bool",
							"name": "",
							"type": "bool"
						}
					],
					"stateMutability": "view",
					"type": "function"
				},
				{
					"inputs": [
						{
							"internalType": "address",
							"name": "contractAddress",
							"type": "address"
						}
					],
					"name": "deauthorizeContract",
					"outputs": [],
					"stateMutability": "nonpayable",
					"type": "function"
				},
				{
					"inputs": [],
					"name": "defaultDailyLimit",
					"outputs": [
						{
							"internalType": "uint256",
							"name": "",
							"type": "uint256"
						}
					],
					"stateMutability": "view",
					"type": "function"
				},
				{
					"inputs": [],
					"name": "getCurrentDay",
					"outputs": [
						{
							"internalType": "uint256",
							"name": "",
							"type": "uint256"
						}
					],
					"stateMutability": "view",
					"type": "function"
				},
				{
					"inputs": [
						{
							"internalType": "address",
							"name": "user",
							"type": "address"
						}
					],
					"name": "getRemainingDailyLimit",
					"outputs": [
						{
							"internalType": "uint256",
							"name": "",
							"type": "uint256"
						}
					],
					"stateMutability": "view",
					"type": "function"
				},
				{
					"inputs": [
						{
							"internalType": "address",
							"name": "user",
							"type": "address"
						}
					],
					"name": "getUserDailyLimit",
					"outputs": [
						{
							"internalType": "uint256",
							"name": "",
							"type": "uint256"
						}
					],
					"stateMutability": "view",
					"type": "function"
				},
				{
					"inputs": [
						{
							"internalType": "address",
							"name": "to",
							"type": "address"
						},
						{
							"internalType": "uint256",
							"name": "amount",
							"type": "uint256"
						}
					],
					"name": "mintTokens",
					"outputs": [
						{
							"internalType": "bool",
							"name": "",
							"type": "bool"
						}
					],
					"stateMutability": "nonpayable",
					"type": "function"
				},
				{
					"inputs": [],
					"name": "owner",
					"outputs": [
						{
							"internalType": "address",
							"name": "",
							"type": "address"
						}
					],
					"stateMutability": "view",
					"type": "function"
				},
				{
					"inputs": [],
					"name": "requestMinterRole",
					"outputs": [
						{
							"internalType": "bool",
							"name": "",
							"type": "bool"
						}
					],
					"stateMutability": "nonpayable",
					"type": "function"
				},
				{
					"inputs": [
						{
							"internalType": "uint256",
							"name": "limit",
							"type": "uint256"
						}
					],
					"name": "setDefaultDailyLimit",
					"outputs": [],
					"stateMutability": "nonpayable",
					"type": "function"
				},
				{
					"inputs": [
						{
							"internalType": "address",
							"name": "_studyTokenAddress",
							"type": "address"
						}
					],
					"name": "setStudyToken",
					"outputs": [],
					"stateMutability": "nonpayable",
					"type": "function"
				},
				{
					"inputs": [
						{
							"internalType": "address",
							"name": "user",
							"type": "address"
						},
						{
							"internalType": "uint256",
							"name": "limit",
							"type": "uint256"
						}
					],
					"name": "setUserDailyLimit",
					"outputs": [],
					"stateMutability": "nonpayable",
					"type": "function"
				},
				{
					"inputs": [],
					"name": "studyToken",
					"outputs": [
						{
							"internalType": "contract StudyToken",
							"name": "",
							"type": "address"
						}
					],
					"stateMutability": "view",
					"type": "function"
				},
				{
					"inputs": [
						{
							"internalType": "address",
							"name": "",
							"type": "address"
						}
					],
					"name": "userDailyLimits",
					"outputs": [
						{
							"internalType": "uint256",
							"name": "",
							"type": "uint256"
						}
					],
					"stateMutability": "view",
					"type": "function"
				},
				{
					"inputs": [
						{
							"internalType": "address",
							"name": "",
							"type": "address"
						},
						{
							"internalType": "uint256",
							"name": "",
							"type": "uint256"
						}
					],
					"name": "userDailyUsage",
					"outputs": [
						{
							"internalType": "uint256",
							"name": "",
							"type": "uint256"
						}
					],
					"stateMutability": "view",
					"type": "function"
				}
			],
			"devdoc": {
				"details": "Contract for managing token authority operations for StudyDAO",
				"kind": "dev",
				"methods": {
					"authorizeContract(address)": {
						"details": "Authorize a contract to interact with the token authority",
						"params": {
							"contractAddress": "Address of the contract to authorize"
						}
					},
					"authorizeMint(address,uint256)": {
						"details": "Authorize a token mint operation",
						"params": {
							"amount": "Amount of tokens to mint",
							"to": "Recipient of the tokens"
						},
						"returns": {
							"_0": "Whether the operation is authorized"
						}
					},
					"authorizeStudyGroupAsMinter(address)": {
						"details": "Add a new StudyGroup contract as an authorized minter on the token",
						"params": {
							"studyGroupAddress": "Address of the StudyGroup contract"
						},
						"returns": {
							"_0": "Whether the operation was successful"
						}
					},
					"authorizeTransfer(address,address,uint256)": {
						"details": "Authorize a token transfer operation",
						"params": {
							"amount": "Amount of tokens to transfer",
							"from": "Sender of the tokens",
							"to": "Recipient of the tokens"
						},
						"returns": {
							"_0": "Whether the operation is authorized"
						}
					},
					"constructor": {
						"details": "Constructor to initialize the token authority",
						"params": {
							"_defaultDailyLimit": "Default daily limit for users",
							"_studyTokenAddress": "Address of the StudyToken contract"
						}
					},
					"deauthorizeContract(address)": {
						"details": "Deauthorize a contract",
						"params": {
							"contractAddress": "Address of the contract to deauthorize"
						}
					},
					"getCurrentDay()": {
						"details": "Get the current day number (for daily limit tracking)",
						"returns": {
							"_0": "The current day number"
						}
					},
					"getRemainingDailyLimit(address)": {
						"details": "Get a user's remaining daily limit",
						"params": {
							"user": "Address of the user"
						},
						"returns": {
							"_0": "The user's remaining daily limit"
						}
					},
					"getUserDailyLimit(address)": {
						"details": "Get a user's effective daily limit",
						"params": {
							"user": "Address of the user"
						},
						"returns": {
							"_0": "The user's daily limit"
						}
					},
					"mintTokens(address,uint256)": {
						"details": "Mint tokens through the authority (if it's a minter)",
						"params": {
							"amount": "Amount of tokens to mint",
							"to": "Recipient of the tokens"
						},
						"returns": {
							"_0": "Whether the operation was successful"
						}
					},
					"requestMinterRole()": {
						"details": "Request the token contract to add this authority as a minter",
						"returns": {
							"_0": "Whether the operation was successful"
						}
					},
					"setDefaultDailyLimit(uint256)": {
						"details": "Set default daily limit for all users",
						"params": {
							"limit": "Default daily limit amount"
						}
					},
					"setStudyToken(address)": {
						"details": "Connect to an existing StudyToken contract",
						"params": {
							"_studyTokenAddress": "Address of the StudyToken contract"
						}
					},
					"setUserDailyLimit(address,uint256)": {
						"details": "Set daily token limit for a specific user",
						"params": {
							"limit": "Daily limit amount",
							"user": "Address of the user"
						}
					}
				},
				"title": "StudyTokenAuthority",
				"version": 1
			},
			"evm": {
				"assembly": "    /* \"contracts/StudyTokenAuthority.sol\":194:7922  contract StudyTokenAuthority {... */\n  mstore(0x40, 0x80)\n    /* \"contracts/StudyTokenAuthority.sol\":1651:2081  constructor(address _studyTokenAddress, uint256 _defaultDailyLimit) {... */\n  callvalue\n  dup1\n  iszero\n  tag_1\n  jumpi\n  0x00\n  dup1\n  revert\ntag_1:\n  pop\n  mload(0x40)\n  sub(codesize, bytecodeSize)\n  dup1\n  bytecodeSize\n  dup4\n  codecopy\n  dup2\n  add\n  0x40\n  dup2\n  swap1\n  mstore\n  tag_2\n  swap2\n  tag_3\n  jump\t// in\ntag_2:\n  sub(shl(0xa0, 0x01), 0x01)\n    /* \"contracts/StudyTokenAuthority.sol\":1737:1769  _studyTokenAddress != address(0) */\n  dup3\n  and\n    /* \"contracts/StudyTokenAuthority.sol\":1729:1795  require(_studyTokenAddress != address(0), \"Invalid token address\") */\n  tag_6\n  jumpi\n  mload(0x40)\n  shl(0xe5, 0x461bcd)\n  dup2\n  mstore\n    /* \"#utility.yul\":572:574   */\n  0x20\n    /* \"contracts/StudyTokenAuthority.sol\":1729:1795  require(_studyTokenAddress != address(0), \"Invalid token address\") */\n  0x04\n  dup3\n  add\n    /* \"#utility.yul\":554:575   */\n  mstore\n    /* \"#utility.yul\":611:613   */\n  0x15\n    /* \"#utility.yul\":591:609   */\n  0x24\n  dup3\n  add\n    /* \"#utility.yul\":584:614   */\n  mstore\n    /* \"#utility.yul\":650:673   */\n  0x496e76616c696420746f6b656e20616464726573730000000000000000000000\n    /* \"#utility.yul\":630:648   */\n  0x44\n  dup3\n  add\n    /* \"#utility.yul\":623:674   */\n  mstore\n    /* \"#utility.yul\":691:709   */\n  0x64\n  add\n    /* \"contracts/StudyTokenAuthority.sol\":1729:1795  require(_studyTokenAddress != address(0), \"Invalid token address\") */\n  mload(0x40)\n  dup1\n  swap2\n  sub\n  swap1\n  revert\ntag_6:\n    /* \"contracts/StudyTokenAuthority.sol\":1805:1810  owner */\n  0x01\n    /* \"contracts/StudyTokenAuthority.sol\":1805:1823  owner = msg.sender */\n  dup1\n  sload\n    /* \"contracts/StudyTokenAuthority.sol\":1813:1823  msg.sender */\n  caller\n  not(sub(shl(0xa0, 0x01), 0x01))\n    /* \"contracts/StudyTokenAuthority.sol\":1805:1823  owner = msg.sender */\n  swap2\n  dup3\n  and\n  dup2\n  or\n  dup4\n  sstore\n  0x00\n    /* \"contracts/StudyTokenAuthority.sol\":1833:1876  studyToken = StudyToken(_studyTokenAddress) */\n  dup1\n  sload\n  swap1\n  swap3\n  and\n  sub(shl(0xa0, 0x01), 0x01)\n  dup7\n  and\n  or\n  dup3\n  sstore\n    /* \"contracts/StudyTokenAuthority.sol\":1886:1903  defaultDailyLimit */\n  0x04\n    /* \"contracts/StudyTokenAuthority.sol\":1886:1924  defaultDailyLimit = _defaultDailyLimit */\n  dup5\n  swap1\n  sstore\n    /* \"contracts/StudyTokenAuthority.sol\":1991:2022  authorizedContracts[msg.sender] */\n  dup1\n  dup3\n  mstore\n    /* \"contracts/StudyTokenAuthority.sol\":1991:2010  authorizedContracts */\n  0x02\n    /* \"contracts/StudyTokenAuthority.sol\":1991:2022  authorizedContracts[msg.sender] */\n  0x20\n  mstore\n  0x40\n  dup1\n  dup4\n  keccak256\n    /* \"contracts/StudyTokenAuthority.sol\":1991:2029  authorizedContracts[msg.sender] = true */\n  dup1\n  sload\n  not(0xff)\n  and\n  swap1\n  swap5\n  or\n  swap1\n  swap4\n  sstore\n    /* \"contracts/StudyTokenAuthority.sol\":2044:2074  ContractAuthorized(msg.sender) */\n  swap2\n  mload\n  0x8983a1f3c3cb45c24c8226b5b805e3b6eb49686530b808534b2a920129eff651\n  swap2\n  swap1\n  log2\n    /* \"contracts/StudyTokenAuthority.sol\":1651:2081  constructor(address _studyTokenAddress, uint256 _defaultDailyLimit) {... */\n  pop\n  pop\n    /* \"contracts/StudyTokenAuthority.sol\":194:7922  contract StudyTokenAuthority {... */\n  jump(tag_10)\n    /* \"#utility.yul\":14:365   */\ntag_3:\n    /* \"#utility.yul\":93:99   */\n  0x00\n    /* \"#utility.yul\":101:107   */\n  dup1\n    /* \"#utility.yul\":154:156   */\n  0x40\n    /* \"#utility.yul\":142:151   */\n  dup4\n    /* \"#utility.yul\":133:140   */\n  dup6\n    /* \"#utility.yul\":129:152   */\n  sub\n    /* \"#utility.yul\":125:157   */\n  slt\n    /* \"#utility.yul\":122:174   */\n  iszero\n  tag_12\n  jumpi\n    /* \"#utility.yul\":170:171   */\n  0x00\n    /* \"#utility.yul\":167:168   */\n  dup1\n    /* \"#utility.yul\":160:172   */\n  revert\n    /* \"#utility.yul\":122:174   */\ntag_12:\n    /* \"#utility.yul\":196:212   */\n  dup3\n  mload\n  sub(shl(0xa0, 0x01), 0x01)\n    /* \"#utility.yul\":241:272   */\n  dup2\n  and\n    /* \"#utility.yul\":231:273   */\n  dup2\n  eq\n    /* \"#utility.yul\":221:291   */\n  tag_13\n  jumpi\n    /* \"#utility.yul\":287:288   */\n  0x00\n    /* \"#utility.yul\":284:285   */\n  dup1\n    /* \"#utility.yul\":277:289   */\n  revert\n    /* \"#utility.yul\":221:291   */\ntag_13:\n    /* \"#utility.yul\":355:357   */\n  0x20\n    /* \"#utility.yul\":340:358   */\n  swap4\n  swap1\n  swap4\n  add\n    /* \"#utility.yul\":334:359   */\n  mload\n    /* \"#utility.yul\":310:315   */\n  swap3\n  swap5\n    /* \"#utility.yul\":334:359   */\n  swap3\n  swap4\n  pop\n  pop\n  pop\n    /* \"#utility.yul\":14:365   */\n  jump\t// out\n    /* \"#utility.yul\":370:715   */\ntag_10:\n    /* \"contracts/StudyTokenAuthority.sol\":194:7922  contract StudyTokenAuthority {... */\n  dataSize(sub_0)\n  dup1\n  dataOffset(sub_0)\n  0x00\n  codecopy\n  0x00\n  return\nstop\n\nsub_0: assembly {\n        /* \"contracts/StudyTokenAuthority.sol\":194:7922  contract StudyTokenAuthority {... */\n      mstore(0x40, 0x80)\n      callvalue\n      dup1\n      iszero\n      tag_1\n      jumpi\n      0x00\n      dup1\n      revert\n    tag_1:\n      pop\n      jumpi(tag_2, lt(calldatasize, 0x04))\n      shr(0xe0, calldataload(0x00))\n      dup1\n      0x8da5cb5b\n      gt\n      tag_22\n      jumpi\n      dup1\n      0xbebbcfe6\n      gt\n      tag_23\n      jumpi\n      dup1\n      0xbebbcfe6\n      eq\n      tag_17\n      jumpi\n      dup1\n      0xc76b0888\n      eq\n      tag_18\n      jumpi\n      dup1\n      0xd5b9221b\n      eq\n      tag_19\n      jumpi\n      dup1\n      0xec37d259\n      eq\n      tag_20\n      jumpi\n      dup1\n      0xf0dda65c\n      eq\n      tag_21\n      jumpi\n      0x00\n      dup1\n      revert\n    tag_23:\n      dup1\n      0x8da5cb5b\n      eq\n      tag_12\n      jumpi\n      dup1\n      0x9b32ea6d\n      eq\n      tag_13\n      jumpi\n      dup1\n      0xa7481b5b\n      eq\n      tag_14\n      jumpi\n      dup1\n      0xb09a8a04\n      eq\n      tag_15\n      jumpi\n      dup1\n      0xb6fa284d\n      eq\n      tag_16\n      jumpi\n      0x00\n      dup1\n      revert\n    tag_22:\n      dup1\n      0x360cf54a\n      gt\n      tag_24\n      jumpi\n      dup1\n      0x360cf54a\n      eq\n      tag_7\n      jumpi\n      dup1\n      0x3e6968b6\n      eq\n      tag_8\n      jumpi\n      dup1\n      0x67561d93\n      eq\n      tag_9\n      jumpi\n      dup1\n      0x6e861c0e\n      eq\n      tag_10\n      jumpi\n      dup1\n      0x77865f91\n      eq\n      tag_11\n      jumpi\n      0x00\n      dup1\n      revert\n    tag_24:\n      dup1\n      0x0a0d6de1\n      eq\n      tag_3\n      jumpi\n      dup1\n      0x113018c5\n      eq\n      tag_4\n      jumpi\n      dup1\n      0x177c49a7\n      eq\n      tag_5\n      jumpi\n      dup1\n      0x32a34ad0\n      eq\n      tag_6\n      jumpi\n    tag_2:\n      0x00\n      dup1\n      revert\n        /* \"contracts/StudyTokenAuthority.sol\":7536:7920  function authorizeStudyGroupAsMinter(address studyGroupAddress) external onlyOwner returns (bool) {... */\n    tag_3:\n      tag_25\n      tag_26\n      calldatasize\n      0x04\n      tag_27\n      jump\t// in\n    tag_26:\n      tag_28\n      jump\t// in\n    tag_25:\n      mload(0x40)\n        /* \"#utility.yul\":548:562   */\n      swap1\n      iszero\n        /* \"#utility.yul\":541:563   */\n      iszero\n        /* \"#utility.yul\":523:564   */\n      dup2\n      mstore\n        /* \"#utility.yul\":511:513   */\n      0x20\n        /* \"#utility.yul\":496:514   */\n      add\n        /* \"contracts/StudyTokenAuthority.sol\":7536:7920  function authorizeStudyGroupAsMinter(address studyGroupAddress) external onlyOwner returns (bool) {... */\n    tag_29:\n      mload(0x40)\n      dup1\n      swap2\n      sub\n      swap1\n      return\n        /* \"contracts/StudyTokenAuthority.sol\":6529:6728  function requestMinterRole() external onlyOwner returns (bool) {... */\n    tag_4:\n      tag_25\n      tag_32\n      jump\t// in\n        /* \"contracts/StudyTokenAuthority.sol\":3162:3393  function setUserDailyLimit(address user, uint256 limit) external onlyOwner {... */\n    tag_5:\n      tag_34\n      tag_35\n      calldatasize\n      0x04\n      tag_36\n      jump\t// in\n    tag_35:\n      tag_37\n      jump\t// in\n    tag_34:\n      stop\n        /* \"contracts/StudyTokenAuthority.sol\":5698:6023  function authorizeTransfer(address from, address to, uint256 amount) external onlyAuthorized returns (bool) {... */\n    tag_6:\n      tag_25\n      tag_39\n      calldatasize\n      0x04\n      tag_40\n      jump\t// in\n    tag_39:\n      tag_41\n      jump\t// in\n        /* \"contracts/StudyTokenAuthority.sol\":522:572  mapping(address => uint256) public userDailyLimits */\n    tag_7:\n      tag_43\n      tag_44\n      calldatasize\n      0x04\n      tag_27\n      jump\t// in\n    tag_44:\n      mstore(0x20, 0x03)\n      0x00\n      swap1\n      dup2\n      mstore\n      0x40\n      swap1\n      keccak256\n      sload\n      dup2\n      jump\n    tag_43:\n      mload(0x40)\n        /* \"#utility.yul\":1313:1338   */\n      swap1\n      dup2\n      mstore\n        /* \"#utility.yul\":1301:1303   */\n      0x20\n        /* \"#utility.yul\":1286:1304   */\n      add\n        /* \"contracts/StudyTokenAuthority.sol\":522:572  mapping(address => uint256) public userDailyLimits */\n      tag_29\n        /* \"#utility.yul\":1167:1344   */\n      jump\n        /* \"contracts/StudyTokenAuthority.sol\":3752:3855  function getCurrentDay() public view returns (uint256) {... */\n    tag_8:\n      tag_43\n      tag_49\n      jump\t// in\n        /* \"contracts/StudyTokenAuthority.sol\":2244:2597  function authorizeContract(address contractAddress) external onlyOwner {... */\n    tag_9:\n      tag_34\n      tag_52\n      calldatasize\n      0x04\n      tag_27\n      jump\t// in\n    tag_52:\n      tag_53\n      jump\t// in\n        /* \"contracts/StudyTokenAuthority.sol\":2727:3004  function deauthorizeContract(address contractAddress) external onlyOwner {... */\n    tag_10:\n      tag_34\n      tag_55\n      calldatasize\n      0x04\n      tag_27\n      jump\t// in\n    tag_55:\n      tag_56\n      jump\t// in\n        /* \"contracts/StudyTokenAuthority.sol\":4005:4196  function getUserDailyLimit(address user) public view returns (uint256) {... */\n    tag_11:\n      tag_43\n      tag_58\n      calldatasize\n      0x04\n      tag_27\n      jump\t// in\n    tag_58:\n      tag_59\n      jump\t// in\n        /* \"contracts/StudyTokenAuthority.sol\":342:362  address public owner */\n    tag_12:\n      sload(0x01)\n      tag_61\n      swap1\n      sub(shl(0xa0, 0x01), 0x01)\n      and\n      dup2\n      jump\n    tag_61:\n      mload(0x40)\n      sub(shl(0xa0, 0x01), 0x01)\n        /* \"#utility.yul\":1513:1545   */\n      swap1\n      swap2\n      and\n        /* \"#utility.yul\":1495:1546   */\n      dup2\n      mstore\n        /* \"#utility.yul\":1483:1485   */\n      0x20\n        /* \"#utility.yul\":1468:1486   */\n      add\n        /* \"contracts/StudyTokenAuthority.sol\":342:362  address public owner */\n      tag_29\n        /* \"#utility.yul\":1349:1552   */\n      jump\n        /* \"contracts/StudyTokenAuthority.sol\":4871:5441  function authorizeMint(address to, uint256 amount) external onlyAuthorized returns (bool) {... */\n    tag_13:\n      tag_25\n      tag_66\n      calldatasize\n      0x04\n      tag_36\n      jump\t// in\n    tag_66:\n      tag_67\n      jump\t// in\n        /* \"contracts/StudyTokenAuthority.sol\":266:294  StudyToken public studyToken */\n    tag_14:\n      sload(0x00)\n      tag_61\n      swap1\n      sub(shl(0xa0, 0x01), 0x01)\n      and\n      dup2\n      jump\n        /* \"contracts/StudyTokenAuthority.sol\":6172:6378  function setStudyToken(address _studyTokenAddress) external onlyOwner {... */\n    tag_15:\n      tag_34\n      tag_74\n      calldatasize\n      0x04\n      tag_27\n      jump\t// in\n    tag_74:\n      tag_75\n      jump\t// in\n        /* \"contracts/StudyTokenAuthority.sol\":694:763  mapping(address => mapping(uint256 => uint256)) public userDailyUsage */\n    tag_16:\n      tag_43\n      tag_77\n      calldatasize\n      0x04\n      tag_36\n      jump\t// in\n    tag_77:\n      0x05\n      0x20\n      swap1\n      dup2\n      mstore\n      0x00\n      swap3\n      dup4\n      mstore\n      0x40\n      dup1\n      dup5\n      keccak256\n      swap1\n      swap2\n      mstore\n      swap1\n      dup3\n      mstore\n      swap1\n      keccak256\n      sload\n      dup2\n      jump\n        /* \"contracts/StudyTokenAuthority.sol\":3516:3622  function setDefaultDailyLimit(uint256 limit) external onlyOwner {... */\n    tag_17:\n      tag_34\n      tag_81\n      calldatasize\n      0x04\n      tag_82\n      jump\t// in\n    tag_81:\n      tag_83\n      jump\t// in\n        /* \"contracts/StudyTokenAuthority.sol\":610:642  uint256 public defaultDailyLimit */\n    tag_18:\n      tag_43\n      sload(0x04)\n      dup2\n      jump\n        /* \"contracts/StudyTokenAuthority.sol\":418:469  mapping(address => bool) public authorizedContracts */\n    tag_19:\n      tag_25\n      tag_88\n      calldatasize\n      0x04\n      tag_27\n      jump\t// in\n    tag_88:\n      mstore(0x20, 0x02)\n      0x00\n      swap1\n      dup2\n      mstore\n      0x40\n      swap1\n      keccak256\n      sload\n      0xff\n      and\n      dup2\n      jump\n        /* \"contracts/StudyTokenAuthority.sol\":4356:4662  function getRemainingDailyLimit(address user) public view returns (uint256) {... */\n    tag_20:\n      tag_43\n      tag_92\n      calldatasize\n      0x04\n      tag_27\n      jump\t// in\n    tag_92:\n      tag_93\n      jump\t// in\n        /* \"contracts/StudyTokenAuthority.sol\":6958:7312  function mintTokens(address to, uint256 amount) external onlyOwner returns (bool) {... */\n    tag_21:\n      tag_25\n      tag_96\n      calldatasize\n      0x04\n      tag_36\n      jump\t// in\n    tag_96:\n      tag_97\n      jump\t// in\n        /* \"contracts/StudyTokenAuthority.sol\":7536:7920  function authorizeStudyGroupAsMinter(address studyGroupAddress) external onlyOwner returns (bool) {... */\n    tag_28:\n        /* \"contracts/StudyTokenAuthority.sol\":1230:1235  owner */\n      sload(0x01)\n        /* \"contracts/StudyTokenAuthority.sol\":7628:7632  bool */\n      0x00\n      swap1\n      sub(shl(0xa0, 0x01), 0x01)\n        /* \"contracts/StudyTokenAuthority.sol\":1230:1235  owner */\n      and\n        /* \"contracts/StudyTokenAuthority.sol\":1216:1226  msg.sender */\n      caller\n        /* \"contracts/StudyTokenAuthority.sol\":1216:1235  msg.sender == owner */\n      eq\n        /* \"contracts/StudyTokenAuthority.sol\":1208:1273  require(msg.sender == owner, \"Only owner can call this function\") */\n      tag_100\n      jumpi\n      mload(0x40)\n      shl(0xe5, 0x461bcd)\n      dup2\n      mstore\n      0x04\n      add\n      tag_101\n      swap1\n      tag_102\n      jump\t// in\n    tag_101:\n      mload(0x40)\n      dup1\n      swap2\n      sub\n      swap1\n      revert\n    tag_100:\n      sub(shl(0xa0, 0x01), 0x01)\n        /* \"contracts/StudyTokenAuthority.sol\":7652:7683  studyGroupAddress != address(0) */\n      dup3\n      and\n        /* \"contracts/StudyTokenAuthority.sol\":7644:7715  require(studyGroupAddress != address(0), \"Invalid study group address\") */\n      tag_104\n      jumpi\n      mload(0x40)\n      shl(0xe5, 0x461bcd)\n      dup2\n      mstore\n        /* \"#utility.yul\":2573:2575   */\n      0x20\n        /* \"contracts/StudyTokenAuthority.sol\":7644:7715  require(studyGroupAddress != address(0), \"Invalid study group address\") */\n      0x04\n      dup3\n      add\n        /* \"#utility.yul\":2555:2576   */\n      mstore\n        /* \"#utility.yul\":2612:2614   */\n      0x1b\n        /* \"#utility.yul\":2592:2610   */\n      0x24\n      dup3\n      add\n        /* \"#utility.yul\":2585:2615   */\n      mstore\n        /* \"#utility.yul\":2651:2680   */\n      0x496e76616c69642073747564792067726f757020616464726573730000000000\n        /* \"#utility.yul\":2631:2649   */\n      0x44\n      dup3\n      add\n        /* \"#utility.yul\":2624:2681   */\n      mstore\n        /* \"#utility.yul\":2698:2716   */\n      0x64\n      add\n        /* \"contracts/StudyTokenAuthority.sol\":7644:7715  require(studyGroupAddress != address(0), \"Invalid study group address\") */\n      tag_101\n        /* \"#utility.yul\":2371:2722   */\n      jump\n        /* \"contracts/StudyTokenAuthority.sol\":7644:7715  require(studyGroupAddress != address(0), \"Invalid study group address\") */\n    tag_104:\n        /* \"contracts/StudyTokenAuthority.sol\":7738:7748  studyToken */\n      sload(0x00)\n        /* \"contracts/StudyTokenAuthority.sol\":7738:7777  studyToken.addMinter(studyGroupAddress) */\n      mload(0x40)\n      shl(0xe1, 0x4c1d96ab)\n      dup2\n      mstore\n      sub(shl(0xa0, 0x01), 0x01)\n        /* \"#utility.yul\":1513:1545   */\n      dup5\n      dup2\n      and\n        /* \"contracts/StudyTokenAuthority.sol\":7738:7777  studyToken.addMinter(studyGroupAddress) */\n      0x04\n      dup4\n      add\n        /* \"#utility.yul\":1495:1546   */\n      mstore\n        /* \"contracts/StudyTokenAuthority.sol\":7738:7748  studyToken */\n      swap1\n      swap2\n      and\n      swap1\n        /* \"contracts/StudyTokenAuthority.sol\":7738:7758  studyToken.addMinter */\n      0x983b2d56\n      swap1\n        /* \"#utility.yul\":1468:1486   */\n      0x24\n      add\n        /* \"contracts/StudyTokenAuthority.sol\":7738:7777  studyToken.addMinter(studyGroupAddress) */\n      0x00\n      mload(0x40)\n      dup1\n      dup4\n      sub\n      dup2\n      0x00\n      dup8\n      dup1\n      extcodesize\n      iszero\n      dup1\n      iszero\n      tag_108\n      jumpi\n      0x00\n      dup1\n      revert\n    tag_108:\n      pop\n      gas\n      call\n      swap3\n      pop\n      pop\n      pop\n      dup1\n      iszero\n      tag_109\n      jumpi\n      pop\n      0x01\n    tag_109:\n        /* \"contracts/StudyTokenAuthority.sol\":7734:7914  try studyToken.addMinter(studyGroupAddress) {... */\n      tag_110\n      jumpi\n      pop\n        /* \"contracts/StudyTokenAuthority.sol\":7898:7903  false */\n      0x00\n        /* \"contracts/StudyTokenAuthority.sol\":7536:7920  function authorizeStudyGroupAsMinter(address studyGroupAddress) external onlyOwner returns (bool) {... */\n      swap2\n      swap1\n      pop\n      jump\t// out\n        /* \"contracts/StudyTokenAuthority.sol\":7734:7914  try studyToken.addMinter(studyGroupAddress) {... */\n    tag_110:\n        /* \"contracts/StudyTokenAuthority.sol\":7797:7834  ContractAuthorized(studyGroupAddress) */\n      mload(0x40)\n      sub(shl(0xa0, 0x01), 0x01)\n      dup4\n      and\n      swap1\n      0x8983a1f3c3cb45c24c8226b5b805e3b6eb49686530b808534b2a920129eff651\n      swap1\n      0x00\n      swap1\n      log2\n      pop\n        /* \"contracts/StudyTokenAuthority.sol\":7855:7859  true */\n      0x01\n        /* \"contracts/StudyTokenAuthority.sol\":7734:7914  try studyToken.addMinter(studyGroupAddress) {... */\n    tag_114:\n        /* \"contracts/StudyTokenAuthority.sol\":7536:7920  function authorizeStudyGroupAsMinter(address studyGroupAddress) external onlyOwner returns (bool) {... */\n      swap2\n      swap1\n      pop\n      jump\t// out\n        /* \"contracts/StudyTokenAuthority.sol\":6529:6728  function requestMinterRole() external onlyOwner returns (bool) {... */\n    tag_32:\n        /* \"contracts/StudyTokenAuthority.sol\":1230:1235  owner */\n      sload(0x01)\n        /* \"contracts/StudyTokenAuthority.sol\":6586:6590  bool */\n      0x00\n      swap1\n      sub(shl(0xa0, 0x01), 0x01)\n        /* \"contracts/StudyTokenAuthority.sol\":1230:1235  owner */\n      and\n        /* \"contracts/StudyTokenAuthority.sol\":1216:1226  msg.sender */\n      caller\n        /* \"contracts/StudyTokenAuthority.sol\":1216:1235  msg.sender == owner */\n      eq\n        /* \"contracts/StudyTokenAuthority.sol\":1208:1273  require(msg.sender == owner, \"Only owner can call this function\") */\n      tag_116\n      jumpi\n      mload(0x40)\n      shl(0xe5, 0x461bcd)\n      dup2\n      mstore\n      0x04\n      add\n      tag_101\n      swap1\n      tag_102\n      jump\t// in\n    tag_116:\n        /* \"contracts/StudyTokenAuthority.sol\":6606:6616  studyToken */\n      sload(0x00)\n        /* \"contracts/StudyTokenAuthority.sol\":6606:6641  studyToken.addMinter(address(this)) */\n      mload(0x40)\n      shl(0xe1, 0x4c1d96ab)\n      dup2\n      mstore\n        /* \"contracts/StudyTokenAuthority.sol\":6635:6639  this */\n      address\n        /* \"contracts/StudyTokenAuthority.sol\":6606:6641  studyToken.addMinter(address(this)) */\n      0x04\n      dup3\n      add\n        /* \"#utility.yul\":1495:1546   */\n      mstore\n      sub(shl(0xa0, 0x01), 0x01)\n        /* \"contracts/StudyTokenAuthority.sol\":6606:6616  studyToken */\n      swap1\n      swap2\n      and\n      swap1\n        /* \"contracts/StudyTokenAuthority.sol\":6606:6626  studyToken.addMinter */\n      0x983b2d56\n      swap1\n        /* \"#utility.yul\":1468:1486   */\n      0x24\n      add\n        /* \"contracts/StudyTokenAuthority.sol\":6606:6641  studyToken.addMinter(address(this)) */\n      0x00\n      mload(0x40)\n      dup1\n      dup4\n      sub\n      dup2\n      0x00\n      dup8\n      dup1\n      extcodesize\n      iszero\n      dup1\n      iszero\n      tag_120\n      jumpi\n      0x00\n      dup1\n      revert\n    tag_120:\n      pop\n      gas\n      call\n      swap3\n      pop\n      pop\n      pop\n      dup1\n      iszero\n      tag_121\n      jumpi\n      pop\n      0x01\n    tag_121:\n        /* \"contracts/StudyTokenAuthority.sol\":6602:6722  try studyToken.addMinter(address(this)) {... */\n      tag_122\n      jumpi\n      pop\n        /* \"contracts/StudyTokenAuthority.sol\":6706:6711  false */\n      0x00\n        /* \"contracts/StudyTokenAuthority.sol\":6529:6728  function requestMinterRole() external onlyOwner returns (bool) {... */\n      swap1\n      jump\t// out\n        /* \"contracts/StudyTokenAuthority.sol\":6602:6722  try studyToken.addMinter(address(this)) {... */\n    tag_122:\n      pop\n        /* \"contracts/StudyTokenAuthority.sol\":6663:6667  true */\n      0x01\n        /* \"contracts/StudyTokenAuthority.sol\":6529:6728  function requestMinterRole() external onlyOwner returns (bool) {... */\n      swap1\n      jump\t// out\n        /* \"contracts/StudyTokenAuthority.sol\":3162:3393  function setUserDailyLimit(address user, uint256 limit) external onlyOwner {... */\n    tag_37:\n        /* \"contracts/StudyTokenAuthority.sol\":1230:1235  owner */\n      and(sub(shl(0xa0, 0x01), 0x01), sload(0x01))\n        /* \"contracts/StudyTokenAuthority.sol\":1216:1226  msg.sender */\n      caller\n        /* \"contracts/StudyTokenAuthority.sol\":1216:1235  msg.sender == owner */\n      eq\n        /* \"contracts/StudyTokenAuthority.sol\":1208:1273  require(msg.sender == owner, \"Only owner can call this function\") */\n      tag_128\n      jumpi\n      mload(0x40)\n      shl(0xe5, 0x461bcd)\n      dup2\n      mstore\n      0x04\n      add\n      tag_101\n      swap1\n      tag_102\n      jump\t// in\n    tag_128:\n      sub(shl(0xa0, 0x01), 0x01)\n        /* \"contracts/StudyTokenAuthority.sol\":3255:3273  user != address(0) */\n      dup3\n      and\n        /* \"contracts/StudyTokenAuthority.sol\":3247:3298  require(user != address(0), \"Invalid user address\") */\n      tag_131\n      jumpi\n      mload(0x40)\n      shl(0xe5, 0x461bcd)\n      dup2\n      mstore\n        /* \"#utility.yul\":2929:2931   */\n      0x20\n        /* \"contracts/StudyTokenAuthority.sol\":3247:3298  require(user != address(0), \"Invalid user address\") */\n      0x04\n      dup3\n      add\n        /* \"#utility.yul\":2911:2932   */\n      mstore\n        /* \"#utility.yul\":2968:2970   */\n      0x14\n        /* \"#utility.yul\":2948:2966   */\n      0x24\n      dup3\n      add\n        /* \"#utility.yul\":2941:2971   */\n      mstore\n      shl(0x60, 0x496e76616c696420757365722061646472657373)\n        /* \"#utility.yul\":2987:3005   */\n      0x44\n      dup3\n      add\n        /* \"#utility.yul\":2980:3030   */\n      mstore\n        /* \"#utility.yul\":3047:3065   */\n      0x64\n      add\n        /* \"contracts/StudyTokenAuthority.sol\":3247:3298  require(user != address(0), \"Invalid user address\") */\n      tag_101\n        /* \"#utility.yul\":2727:3071   */\n      jump\n        /* \"contracts/StudyTokenAuthority.sol\":3247:3298  require(user != address(0), \"Invalid user address\") */\n    tag_131:\n      sub(shl(0xa0, 0x01), 0x01)\n        /* \"contracts/StudyTokenAuthority.sol\":3317:3338  userDailyLimits[user] */\n      dup3\n      and\n      0x00\n      dup2\n      dup2\n      mstore\n        /* \"contracts/StudyTokenAuthority.sol\":3317:3332  userDailyLimits */\n      0x03\n        /* \"contracts/StudyTokenAuthority.sol\":3317:3338  userDailyLimits[user] */\n      0x20\n      mstore\n      0x40\n      swap1\n      dup2\n      swap1\n      keccak256\n        /* \"contracts/StudyTokenAuthority.sol\":3317:3346  userDailyLimits[user] = limit */\n      dup4\n      swap1\n      sstore\n        /* \"contracts/StudyTokenAuthority.sol\":3361:3386  UserLimitSet(user, limit) */\n      mload\n      0xc1395320bc4a9778acf4621c40f54fdde0fafa6177d8012972fca4ec8f7cfa36\n      swap1\n      tag_134\n      swap1\n        /* \"contracts/StudyTokenAuthority.sol\":3341:3346  limit */\n      dup5\n        /* \"#utility.yul\":1313:1338   */\n      dup2\n      mstore\n        /* \"#utility.yul\":1301:1303   */\n      0x20\n        /* \"#utility.yul\":1286:1304   */\n      add\n      swap1\n        /* \"#utility.yul\":1167:1344   */\n      jump\n        /* \"contracts/StudyTokenAuthority.sol\":3361:3386  UserLimitSet(user, limit) */\n    tag_134:\n      mload(0x40)\n      dup1\n      swap2\n      sub\n      swap1\n      log2\n        /* \"contracts/StudyTokenAuthority.sol\":3162:3393  function setUserDailyLimit(address user, uint256 limit) external onlyOwner {... */\n      pop\n      pop\n      jump\t// out\n        /* \"contracts/StudyTokenAuthority.sol\":5698:6023  function authorizeTransfer(address from, address to, uint256 amount) external onlyAuthorized returns (bool) {... */\n    tag_41:\n        /* \"contracts/StudyTokenAuthority.sol\":1365:1375  msg.sender */\n      caller\n        /* \"contracts/StudyTokenAuthority.sol\":5800:5804  bool */\n      0x00\n        /* \"contracts/StudyTokenAuthority.sol\":1345:1376  authorizedContracts[msg.sender] */\n      swap1\n      dup2\n      mstore\n        /* \"contracts/StudyTokenAuthority.sol\":1345:1364  authorizedContracts */\n      0x02\n        /* \"contracts/StudyTokenAuthority.sol\":1345:1376  authorizedContracts[msg.sender] */\n      0x20\n      mstore\n      0x40\n      dup2\n      keccak256\n      sload\n      0xff\n      and\n      dup1\n        /* \"contracts/StudyTokenAuthority.sol\":1345:1399  authorizedContracts[msg.sender] || msg.sender == owner */\n      tag_136\n      jumpi\n      pop\n        /* \"contracts/StudyTokenAuthority.sol\":1394:1399  owner */\n      and(sub(shl(0xa0, 0x01), 0x01), sload(0x01))\n        /* \"contracts/StudyTokenAuthority.sol\":1380:1390  msg.sender */\n      caller\n        /* \"contracts/StudyTokenAuthority.sol\":1380:1399  msg.sender == owner */\n      eq\n        /* \"contracts/StudyTokenAuthority.sol\":1345:1399  authorizedContracts[msg.sender] || msg.sender == owner */\n    tag_136:\n        /* \"contracts/StudyTokenAuthority.sol\":1337:1418  require(authorizedContracts[msg.sender] || msg.sender == owner, \"Not authorized\") */\n      tag_137\n      jumpi\n      mload(0x40)\n      shl(0xe5, 0x461bcd)\n      dup2\n      mstore\n        /* \"#utility.yul\":3278:3280   */\n      0x20\n        /* \"contracts/StudyTokenAuthority.sol\":1337:1418  require(authorizedContracts[msg.sender] || msg.sender == owner, \"Not authorized\") */\n      0x04\n      dup3\n      add\n        /* \"#utility.yul\":3260:3281   */\n      mstore\n        /* \"#utility.yul\":3317:3319   */\n      0x0e\n        /* \"#utility.yul\":3297:3315   */\n      0x24\n      dup3\n      add\n        /* \"#utility.yul\":3290:3320   */\n      mstore\n      shl(0x92, 0x139bdd08185d5d1a1bdc9a5e9959)\n        /* \"#utility.yul\":3336:3354   */\n      0x44\n      dup3\n      add\n        /* \"#utility.yul\":3329:3373   */\n      mstore\n        /* \"#utility.yul\":3390:3408   */\n      0x64\n      add\n        /* \"contracts/StudyTokenAuthority.sol\":1337:1418  require(authorizedContracts[msg.sender] || msg.sender == owner, \"Not authorized\") */\n      tag_101\n        /* \"#utility.yul\":3076:3414   */\n      jump\n        /* \"contracts/StudyTokenAuthority.sol\":1337:1418  require(authorizedContracts[msg.sender] || msg.sender == owner, \"Not authorized\") */\n    tag_137:\n        /* \"contracts/StudyTokenAuthority.sol\":5970:5974  from */\n      dup4\n      sub(shl(0xa0, 0x01), 0x01)\n        /* \"contracts/StudyTokenAuthority.sol\":5947:5995  TokenOperationApproved(from, amount, \"transfer\") */\n      and\n      0x09e7e318d9fde6f0e5cbb2418a50245c2063ce96946e2711c38e9c2b3127e9b3\n        /* \"contracts/StudyTokenAuthority.sol\":5976:5982  amount */\n      dup4\n        /* \"contracts/StudyTokenAuthority.sol\":5947:5995  TokenOperationApproved(from, amount, \"transfer\") */\n      mload(0x40)\n      tag_141\n      swap2\n        /* \"#utility.yul\":3631:3656   */\n      dup2\n      mstore\n        /* \"#utility.yul\":3692:3694   */\n      0x40\n        /* \"#utility.yul\":3687:3689   */\n      0x20\n        /* \"#utility.yul\":3672:3690   */\n      dup3\n      add\n        /* \"#utility.yul\":3665:3695   */\n      dup2\n      swap1\n      mstore\n        /* \"#utility.yul\":3731:3732   */\n      0x08\n        /* \"#utility.yul\":3711:3729   */\n      swap1\n      dup3\n      add\n        /* \"#utility.yul\":3704:3733   */\n      mstore\n      shl(0xc1, 0x3a3930b739b332b9)\n        /* \"#utility.yul\":3764:3766   */\n      0x60\n        /* \"#utility.yul\":3749:3767   */\n      dup3\n      add\n        /* \"#utility.yul\":3742:3780   */\n      mstore\n        /* \"#utility.yul\":3812:3815   */\n      0x80\n        /* \"#utility.yul\":3797:3816   */\n      add\n      swap1\n        /* \"#utility.yul\":3419:3822   */\n      jump\n        /* \"contracts/StudyTokenAuthority.sol\":5947:5995  TokenOperationApproved(from, amount, \"transfer\") */\n    tag_141:\n      mload(0x40)\n      dup1\n      swap2\n      sub\n      swap1\n      log2\n      pop\n        /* \"contracts/StudyTokenAuthority.sol\":6012:6016  true */\n      0x01\n        /* \"contracts/StudyTokenAuthority.sol\":5698:6023  function authorizeTransfer(address from, address to, uint256 amount) external onlyAuthorized returns (bool) {... */\n      swap4\n      swap3\n      pop\n      pop\n      pop\n      jump\t// out\n        /* \"contracts/StudyTokenAuthority.sol\":3752:3855  function getCurrentDay() public view returns (uint256) {... */\n    tag_49:\n        /* \"contracts/StudyTokenAuthority.sol\":3798:3805  uint256 */\n      0x00\n        /* \"contracts/StudyTokenAuthority.sol\":3824:3848  block.timestamp / 1 days */\n      tag_144\n        /* \"contracts/StudyTokenAuthority.sol\":3842:3848  1 days */\n      0x015180\n        /* \"contracts/StudyTokenAuthority.sol\":3824:3839  block.timestamp */\n      timestamp\n        /* \"contracts/StudyTokenAuthority.sol\":3824:3848  block.timestamp / 1 days */\n      tag_145\n      jump\t// in\n    tag_144:\n        /* \"contracts/StudyTokenAuthority.sol\":3817:3848  return block.timestamp / 1 days */\n      swap1\n      pop\n        /* \"contracts/StudyTokenAuthority.sol\":3752:3855  function getCurrentDay() public view returns (uint256) {... */\n      swap1\n      jump\t// out\n        /* \"contracts/StudyTokenAuthority.sol\":2244:2597  function authorizeContract(address contractAddress) external onlyOwner {... */\n    tag_53:\n        /* \"contracts/StudyTokenAuthority.sol\":1230:1235  owner */\n      and(sub(shl(0xa0, 0x01), 0x01), sload(0x01))\n        /* \"contracts/StudyTokenAuthority.sol\":1216:1226  msg.sender */\n      caller\n        /* \"contracts/StudyTokenAuthority.sol\":1216:1235  msg.sender == owner */\n      eq\n        /* \"contracts/StudyTokenAuthority.sol\":1208:1273  require(msg.sender == owner, \"Only owner can call this function\") */\n      tag_147\n      jumpi\n      mload(0x40)\n      shl(0xe5, 0x461bcd)\n      dup2\n      mstore\n      0x04\n      add\n      tag_101\n      swap1\n      tag_102\n      jump\t// in\n    tag_147:\n      sub(shl(0xa0, 0x01), 0x01)\n        /* \"contracts/StudyTokenAuthority.sol\":2333:2362  contractAddress != address(0) */\n      dup2\n      and\n        /* \"contracts/StudyTokenAuthority.sol\":2325:2391  require(contractAddress != address(0), \"Invalid contract address\") */\n      tag_150\n      jumpi\n      mload(0x40)\n      shl(0xe5, 0x461bcd)\n      dup2\n      mstore\n        /* \"#utility.yul\":4383:4385   */\n      0x20\n        /* \"contracts/StudyTokenAuthority.sol\":2325:2391  require(contractAddress != address(0), \"Invalid contract address\") */\n      0x04\n      dup3\n      add\n        /* \"#utility.yul\":4365:4386   */\n      mstore\n        /* \"#utility.yul\":4422:4424   */\n      0x18\n        /* \"#utility.yul\":4402:4420   */\n      0x24\n      dup3\n      add\n        /* \"#utility.yul\":4395:4425   */\n      mstore\n        /* \"#utility.yul\":4461:4487   */\n      0x496e76616c696420636f6e747261637420616464726573730000000000000000\n        /* \"#utility.yul\":4441:4459   */\n      0x44\n      dup3\n      add\n        /* \"#utility.yul\":4434:4488   */\n      mstore\n        /* \"#utility.yul\":4505:4523   */\n      0x64\n      add\n        /* \"contracts/StudyTokenAuthority.sol\":2325:2391  require(contractAddress != address(0), \"Invalid contract address\") */\n      tag_101\n        /* \"#utility.yul\":4181:4529   */\n      jump\n        /* \"contracts/StudyTokenAuthority.sol\":2325:2391  require(contractAddress != address(0), \"Invalid contract address\") */\n    tag_150:\n      sub(shl(0xa0, 0x01), 0x01)\n        /* \"contracts/StudyTokenAuthority.sol\":2410:2446  authorizedContracts[contractAddress] */\n      dup2\n      and\n      0x00\n      swap1\n      dup2\n      mstore\n        /* \"contracts/StudyTokenAuthority.sol\":2410:2429  authorizedContracts */\n      0x02\n        /* \"contracts/StudyTokenAuthority.sol\":2410:2446  authorizedContracts[contractAddress] */\n      0x20\n      mstore\n      0x40\n      swap1\n      keccak256\n      sload\n      0xff\n      and\n        /* \"contracts/StudyTokenAuthority.sol\":2409:2446  !authorizedContracts[contractAddress] */\n      iszero\n        /* \"contracts/StudyTokenAuthority.sol\":2401:2478  require(!authorizedContracts[contractAddress], \"Contract already authorized\") */\n      tag_153\n      jumpi\n      mload(0x40)\n      shl(0xe5, 0x461bcd)\n      dup2\n      mstore\n        /* \"#utility.yul\":4736:4738   */\n      0x20\n        /* \"contracts/StudyTokenAuthority.sol\":2401:2478  require(!authorizedContracts[contractAddress], \"Contract already authorized\") */\n      0x04\n      dup3\n      add\n        /* \"#utility.yul\":4718:4739   */\n      mstore\n        /* \"#utility.yul\":4775:4777   */\n      0x1b\n        /* \"#utility.yul\":4755:4773   */\n      0x24\n      dup3\n      add\n        /* \"#utility.yul\":4748:4778   */\n      mstore\n        /* \"#utility.yul\":4814:4843   */\n      0x436f6e747261637420616c726561647920617574686f72697a65640000000000\n        /* \"#utility.yul\":4794:4812   */\n      0x44\n      dup3\n      add\n        /* \"#utility.yul\":4787:4844   */\n      mstore\n        /* \"#utility.yul\":4861:4879   */\n      0x64\n      add\n        /* \"contracts/StudyTokenAuthority.sol\":2401:2478  require(!authorizedContracts[contractAddress], \"Contract already authorized\") */\n      tag_101\n        /* \"#utility.yul\":4534:4885   */\n      jump\n        /* \"contracts/StudyTokenAuthority.sol\":2401:2478  require(!authorizedContracts[contractAddress], \"Contract already authorized\") */\n    tag_153:\n      sub(shl(0xa0, 0x01), 0x01)\n        /* \"contracts/StudyTokenAuthority.sol\":2497:2533  authorizedContracts[contractAddress] */\n      dup2\n      and\n      0x00\n      dup2\n      dup2\n      mstore\n        /* \"contracts/StudyTokenAuthority.sol\":2497:2516  authorizedContracts */\n      0x02\n        /* \"contracts/StudyTokenAuthority.sol\":2497:2533  authorizedContracts[contractAddress] */\n      0x20\n      mstore\n      0x40\n      dup1\n      dup3\n      keccak256\n        /* \"contracts/StudyTokenAuthority.sol\":2497:2540  authorizedContracts[contractAddress] = true */\n      dup1\n      sload\n      not(0xff)\n      and\n        /* \"contracts/StudyTokenAuthority.sol\":2536:2540  true */\n      0x01\n        /* \"contracts/StudyTokenAuthority.sol\":2497:2540  authorizedContracts[contractAddress] = true */\n      or\n      swap1\n      sstore\n        /* \"contracts/StudyTokenAuthority.sol\":2555:2590  ContractAuthorized(contractAddress) */\n      mload\n      0x8983a1f3c3cb45c24c8226b5b805e3b6eb49686530b808534b2a920129eff651\n      swap2\n        /* \"contracts/StudyTokenAuthority.sol\":2497:2533  authorizedContracts[contractAddress] */\n      swap1\n        /* \"contracts/StudyTokenAuthority.sol\":2555:2590  ContractAuthorized(contractAddress) */\n      log2\n        /* \"contracts/StudyTokenAuthority.sol\":2244:2597  function authorizeContract(address contractAddress) external onlyOwner {... */\n      pop\n      jump\t// out\n        /* \"contracts/StudyTokenAuthority.sol\":2727:3004  function deauthorizeContract(address contractAddress) external onlyOwner {... */\n    tag_56:\n        /* \"contracts/StudyTokenAuthority.sol\":1230:1235  owner */\n      and(sub(shl(0xa0, 0x01), 0x01), sload(0x01))\n        /* \"contracts/StudyTokenAuthority.sol\":1216:1226  msg.sender */\n      caller\n        /* \"contracts/StudyTokenAuthority.sol\":1216:1235  msg.sender == owner */\n      eq\n        /* \"contracts/StudyTokenAuthority.sol\":1208:1273  require(msg.sender == owner, \"Only owner can call this function\") */\n      tag_157\n      jumpi\n      mload(0x40)\n      shl(0xe5, 0x461bcd)\n      dup2\n      mstore\n      0x04\n      add\n      tag_101\n      swap1\n      tag_102\n      jump\t// in\n    tag_157:\n      sub(shl(0xa0, 0x01), 0x01)\n        /* \"contracts/StudyTokenAuthority.sol\":2818:2854  authorizedContracts[contractAddress] */\n      dup2\n      and\n      0x00\n      swap1\n      dup2\n      mstore\n        /* \"contracts/StudyTokenAuthority.sol\":2818:2837  authorizedContracts */\n      0x02\n        /* \"contracts/StudyTokenAuthority.sol\":2818:2854  authorizedContracts[contractAddress] */\n      0x20\n      mstore\n      0x40\n      swap1\n      keccak256\n      sload\n      0xff\n      and\n        /* \"contracts/StudyTokenAuthority.sol\":2810:2882  require(authorizedContracts[contractAddress], \"Contract not authorized\") */\n      tag_160\n      jumpi\n      mload(0x40)\n      shl(0xe5, 0x461bcd)\n      dup2\n      mstore\n        /* \"#utility.yul\":5092:5094   */\n      0x20\n        /* \"contracts/StudyTokenAuthority.sol\":2810:2882  require(authorizedContracts[contractAddress], \"Contract not authorized\") */\n      0x04\n      dup3\n      add\n        /* \"#utility.yul\":5074:5095   */\n      mstore\n        /* \"#utility.yul\":5131:5133   */\n      0x17\n        /* \"#utility.yul\":5111:5129   */\n      0x24\n      dup3\n      add\n        /* \"#utility.yul\":5104:5134   */\n      mstore\n        /* \"#utility.yul\":5170:5195   */\n      0x436f6e7472616374206e6f7420617574686f72697a6564000000000000000000\n        /* \"#utility.yul\":5150:5168   */\n      0x44\n      dup3\n      add\n        /* \"#utility.yul\":5143:5196   */\n      mstore\n        /* \"#utility.yul\":5213:5231   */\n      0x64\n      add\n        /* \"contracts/StudyTokenAuthority.sol\":2810:2882  require(authorizedContracts[contractAddress], \"Contract not authorized\") */\n      tag_101\n        /* \"#utility.yul\":4890:5237   */\n      jump\n        /* \"contracts/StudyTokenAuthority.sol\":2810:2882  require(authorizedContracts[contractAddress], \"Contract not authorized\") */\n    tag_160:\n      sub(shl(0xa0, 0x01), 0x01)\n        /* \"contracts/StudyTokenAuthority.sol\":2901:2937  authorizedContracts[contractAddress] */\n      dup2\n      and\n        /* \"contracts/StudyTokenAuthority.sol\":2940:2945  false */\n      0x00\n        /* \"contracts/StudyTokenAuthority.sol\":2901:2937  authorizedContracts[contractAddress] */\n      dup2\n      dup2\n      mstore\n        /* \"contracts/StudyTokenAuthority.sol\":2901:2920  authorizedContracts */\n      0x02\n        /* \"contracts/StudyTokenAuthority.sol\":2901:2937  authorizedContracts[contractAddress] */\n      0x20\n      mstore\n      0x40\n      dup1\n      dup3\n      keccak256\n        /* \"contracts/StudyTokenAuthority.sol\":2901:2945  authorizedContracts[contractAddress] = false */\n      dup1\n      sload\n      not(0xff)\n      and\n      swap1\n      sstore\n        /* \"contracts/StudyTokenAuthority.sol\":2960:2997  ContractDeauthorized(contractAddress) */\n      mload\n      0x54142b7cb3ceaa9e564243ce4cc2303723c842a1144192de6b3c594f68b16a9a\n      swap2\n        /* \"contracts/StudyTokenAuthority.sol\":2940:2945  false */\n      swap1\n        /* \"contracts/StudyTokenAuthority.sol\":2960:2997  ContractDeauthorized(contractAddress) */\n      log2\n        /* \"contracts/StudyTokenAuthority.sol\":2727:3004  function deauthorizeContract(address contractAddress) external onlyOwner {... */\n      pop\n      jump\t// out\n        /* \"contracts/StudyTokenAuthority.sol\":4005:4196  function getUserDailyLimit(address user) public view returns (uint256) {... */\n    tag_59:\n      sub(shl(0xa0, 0x01), 0x01)\n        /* \"contracts/StudyTokenAuthority.sol\":4106:4127  userDailyLimits[user] */\n      dup2\n      and\n        /* \"contracts/StudyTokenAuthority.sol\":4067:4074  uint256 */\n      0x00\n        /* \"contracts/StudyTokenAuthority.sol\":4106:4127  userDailyLimits[user] */\n      swap1\n      dup2\n      mstore\n        /* \"contracts/StudyTokenAuthority.sol\":4106:4121  userDailyLimits */\n      0x03\n        /* \"contracts/StudyTokenAuthority.sol\":4106:4127  userDailyLimits[user] */\n      0x20\n      mstore\n      0x40\n      dup2\n      keccak256\n      sload\n        /* \"contracts/StudyTokenAuthority.sol\":4144:4157  userLimit > 0 */\n      dup1\n        /* \"contracts/StudyTokenAuthority.sol\":4144:4189  userLimit > 0 ? userLimit : defaultDailyLimit */\n      tag_164\n      jumpi\n        /* \"contracts/StudyTokenAuthority.sol\":4172:4189  defaultDailyLimit */\n      sload(0x04)\n        /* \"contracts/StudyTokenAuthority.sol\":4144:4189  userLimit > 0 ? userLimit : defaultDailyLimit */\n      jump(tag_165)\n    tag_164:\n        /* \"contracts/StudyTokenAuthority.sol\":4160:4169  userLimit */\n      dup1\n        /* \"contracts/StudyTokenAuthority.sol\":4144:4189  userLimit > 0 ? userLimit : defaultDailyLimit */\n    tag_165:\n        /* \"contracts/StudyTokenAuthority.sol\":4137:4189  return userLimit > 0 ? userLimit : defaultDailyLimit */\n      swap4\n        /* \"contracts/StudyTokenAuthority.sol\":4005:4196  function getUserDailyLimit(address user) public view returns (uint256) {... */\n      swap3\n      pop\n      pop\n      pop\n      jump\t// out\n        /* \"contracts/StudyTokenAuthority.sol\":4871:5441  function authorizeMint(address to, uint256 amount) external onlyAuthorized returns (bool) {... */\n    tag_67:\n        /* \"contracts/StudyTokenAuthority.sol\":1365:1375  msg.sender */\n      caller\n        /* \"contracts/StudyTokenAuthority.sol\":4955:4959  bool */\n      0x00\n        /* \"contracts/StudyTokenAuthority.sol\":1345:1376  authorizedContracts[msg.sender] */\n      swap1\n      dup2\n      mstore\n        /* \"contracts/StudyTokenAuthority.sol\":1345:1364  authorizedContracts */\n      0x02\n        /* \"contracts/StudyTokenAuthority.sol\":1345:1376  authorizedContracts[msg.sender] */\n      0x20\n      mstore\n      0x40\n      dup2\n      keccak256\n      sload\n      0xff\n      and\n      dup1\n        /* \"contracts/StudyTokenAuthority.sol\":1345:1399  authorizedContracts[msg.sender] || msg.sender == owner */\n      tag_167\n      jumpi\n      pop\n        /* \"contracts/StudyTokenAuthority.sol\":1394:1399  owner */\n      and(sub(shl(0xa0, 0x01), 0x01), sload(0x01))\n        /* \"contracts/StudyTokenAuthority.sol\":1380:1390  msg.sender */\n      caller\n        /* \"contracts/StudyTokenAuthority.sol\":1380:1399  msg.sender == owner */\n      eq\n        /* \"contracts/StudyTokenAuthority.sol\":1345:1399  authorizedContracts[msg.sender] || msg.sender == owner */\n    tag_167:\n        /* \"contracts/StudyTokenAuthority.sol\":1337:1418  require(authorizedContracts[msg.sender] || msg.sender == owner, \"Not authorized\") */\n      tag_168\n      jumpi\n      mload(0x40)\n      shl(0xe5, 0x461bcd)\n      dup2\n      mstore\n        /* \"#utility.yul\":3278:3280   */\n      0x20\n        /* \"contracts/StudyTokenAuthority.sol\":1337:1418  require(authorizedContracts[msg.sender] || msg.sender == owner, \"Not authorized\") */\n      0x04\n      dup3\n      add\n        /* \"#utility.yul\":3260:3281   */\n      mstore\n        /* \"#utility.yul\":3317:3319   */\n      0x0e\n        /* \"#utility.yul\":3297:3315   */\n      0x24\n      dup3\n      add\n        /* \"#utility.yul\":3290:3320   */\n      mstore\n      shl(0x92, 0x139bdd08185d5d1a1bdc9a5e9959)\n        /* \"#utility.yul\":3336:3354   */\n      0x44\n      dup3\n      add\n        /* \"#utility.yul\":3329:3373   */\n      mstore\n        /* \"#utility.yul\":3390:3408   */\n      0x64\n      add\n        /* \"contracts/StudyTokenAuthority.sol\":1337:1418  require(authorizedContracts[msg.sender] || msg.sender == owner, \"Not authorized\") */\n      tag_101\n        /* \"#utility.yul\":3076:3414   */\n      jump\n        /* \"contracts/StudyTokenAuthority.sol\":1337:1418  require(authorizedContracts[msg.sender] || msg.sender == owner, \"Not authorized\") */\n    tag_168:\n        /* \"contracts/StudyTokenAuthority.sol\":4971:4988  uint256 dayNumber */\n      0x00\n        /* \"contracts/StudyTokenAuthority.sol\":4991:5006  getCurrentDay() */\n      tag_171\n        /* \"contracts/StudyTokenAuthority.sol\":4991:5004  getCurrentDay */\n      tag_49\n        /* \"contracts/StudyTokenAuthority.sol\":4991:5006  getCurrentDay() */\n      jump\t// in\n    tag_171:\n        /* \"contracts/StudyTokenAuthority.sol\":4971:5006  uint256 dayNumber = getCurrentDay() */\n      swap1\n      pop\n        /* \"contracts/StudyTokenAuthority.sol\":5016:5033  uint256 userLimit */\n      0x00\n        /* \"contracts/StudyTokenAuthority.sol\":5036:5057  getUserDailyLimit(to) */\n      tag_172\n        /* \"contracts/StudyTokenAuthority.sol\":5054:5056  to */\n      dup6\n        /* \"contracts/StudyTokenAuthority.sol\":5036:5053  getUserDailyLimit */\n      tag_59\n        /* \"contracts/StudyTokenAuthority.sol\":5036:5057  getUserDailyLimit(to) */\n      jump\t// in\n    tag_172:\n      sub(shl(0xa0, 0x01), 0x01)\n        /* \"contracts/StudyTokenAuthority.sol\":5087:5105  userDailyUsage[to] */\n      dup7\n      and\n        /* \"contracts/StudyTokenAuthority.sol\":5067:5084  uint256 usedToday */\n      0x00\n        /* \"contracts/StudyTokenAuthority.sol\":5087:5105  userDailyUsage[to] */\n      swap1\n      dup2\n      mstore\n        /* \"contracts/StudyTokenAuthority.sol\":5087:5101  userDailyUsage */\n      0x05\n        /* \"contracts/StudyTokenAuthority.sol\":5087:5105  userDailyUsage[to] */\n      0x20\n      swap1\n      dup2\n      mstore\n      0x40\n      dup1\n      dup4\n      keccak256\n        /* \"contracts/StudyTokenAuthority.sol\":5087:5116  userDailyUsage[to][dayNumber] */\n      dup7\n      dup5\n      mstore\n      swap1\n      swap2\n      mstore\n      swap1\n      keccak256\n      sload\n        /* \"contracts/StudyTokenAuthority.sol\":5016:5057  uint256 userLimit = getUserDailyLimit(to) */\n      swap1\n      swap2\n      pop\n      dup2\n        /* \"contracts/StudyTokenAuthority.sol\":5139:5157  usedToday + amount */\n      tag_173\n        /* \"contracts/StudyTokenAuthority.sol\":5151:5157  amount */\n      dup7\n        /* \"contracts/StudyTokenAuthority.sol\":5087:5116  userDailyUsage[to][dayNumber] */\n      dup4\n        /* \"contracts/StudyTokenAuthority.sol\":5139:5157  usedToday + amount */\n      tag_174\n      jump\t// in\n    tag_173:\n        /* \"contracts/StudyTokenAuthority.sol\":5139:5170  usedToday + amount <= userLimit */\n      gt\n        /* \"contracts/StudyTokenAuthority.sol\":5135:5435  if (usedToday + amount <= userLimit) {... */\n      tag_175\n      jumpi\n        /* \"contracts/StudyTokenAuthority.sol\":5218:5236  usedToday + amount */\n      tag_176\n        /* \"contracts/StudyTokenAuthority.sol\":5230:5236  amount */\n      dup6\n        /* \"contracts/StudyTokenAuthority.sol\":5218:5227  usedToday */\n      dup3\n        /* \"contracts/StudyTokenAuthority.sol\":5218:5236  usedToday + amount */\n      tag_174\n      jump\t// in\n    tag_176:\n      sub(shl(0xa0, 0x01), 0x01)\n        /* \"contracts/StudyTokenAuthority.sol\":5186:5204  userDailyUsage[to] */\n      dup8\n      and\n      0x00\n      dup2\n      dup2\n      mstore\n        /* \"contracts/StudyTokenAuthority.sol\":5186:5200  userDailyUsage */\n      0x05\n        /* \"contracts/StudyTokenAuthority.sol\":5186:5204  userDailyUsage[to] */\n      0x20\n      swap1\n      dup2\n      mstore\n      0x40\n      dup1\n      dup4\n      keccak256\n        /* \"contracts/StudyTokenAuthority.sol\":5186:5215  userDailyUsage[to][dayNumber] */\n      dup9\n      dup5\n      mstore\n      dup3\n      mstore\n      swap2\n      dup3\n      swap1\n      keccak256\n        /* \"contracts/StudyTokenAuthority.sol\":5186:5236  userDailyUsage[to][dayNumber] = usedToday + amount */\n      swap4\n      swap1\n      swap4\n      sstore\n        /* \"contracts/StudyTokenAuthority.sol\":5255:5297  TokenOperationApproved(to, amount, \"mint\") */\n      dup1\n      mload\n        /* \"#utility.yul\":5584:5609   */\n      dup9\n      dup2\n      mstore\n        /* \"#utility.yul\":5625:5643   */\n      swap3\n      dup4\n      add\n        /* \"#utility.yul\":5618:5648   */\n      dup2\n      swap1\n      mstore\n        /* \"#utility.yul\":5684:5685   */\n      0x04\n        /* \"#utility.yul\":5664:5682   */\n      swap1\n      dup4\n      add\n        /* \"#utility.yul\":5657:5686   */\n      mstore\n      shl(0xe2, 0x1b5a5b9d)\n        /* \"#utility.yul\":5717:5719   */\n      0x60\n        /* \"#utility.yul\":5702:5720   */\n      dup4\n      add\n        /* \"#utility.yul\":5695:5729   */\n      mstore\n        /* \"contracts/StudyTokenAuthority.sol\":5186:5204  userDailyUsage[to] */\n      swap1\n        /* \"contracts/StudyTokenAuthority.sol\":5255:5297  TokenOperationApproved(to, amount, \"mint\") */\n      0x09e7e318d9fde6f0e5cbb2418a50245c2063ce96946e2711c38e9c2b3127e9b3\n      swap1\n        /* \"#utility.yul\":5761:5764   */\n      0x80\n        /* \"#utility.yul\":5746:5765   */\n      add\n        /* \"contracts/StudyTokenAuthority.sol\":5255:5297  TokenOperationApproved(to, amount, \"mint\") */\n      mload(0x40)\n      dup1\n      swap2\n      sub\n      swap1\n      log2\n        /* \"contracts/StudyTokenAuthority.sol\":5318:5322  true */\n      0x01\n        /* \"contracts/StudyTokenAuthority.sol\":5311:5322  return true */\n      swap4\n      pop\n      pop\n      pop\n      pop\n      jump(tag_170)\n        /* \"contracts/StudyTokenAuthority.sol\":5135:5435  if (usedToday + amount <= userLimit) {... */\n    tag_175:\n        /* \"contracts/StudyTokenAuthority.sol\":5379:5381  to */\n      dup6\n      sub(shl(0xa0, 0x01), 0x01)\n        /* \"contracts/StudyTokenAuthority.sol\":5358:5398  TokenOperationDenied(to, amount, \"mint\") */\n      and\n      0x36e690c5f80da3f9da10e957f42fac89e3fde772861ffe24e95169aedda4e8bf\n        /* \"contracts/StudyTokenAuthority.sol\":5383:5389  amount */\n      dup7\n        /* \"contracts/StudyTokenAuthority.sol\":5358:5398  TokenOperationDenied(to, amount, \"mint\") */\n      mload(0x40)\n      tag_180\n      swap2\n        /* \"#utility.yul\":5584:5609   */\n      dup2\n      mstore\n        /* \"#utility.yul\":5645:5647   */\n      0x40\n        /* \"#utility.yul\":5640:5642   */\n      0x20\n        /* \"#utility.yul\":5625:5643   */\n      dup3\n      add\n        /* \"#utility.yul\":5618:5648   */\n      dup2\n      swap1\n      mstore\n        /* \"#utility.yul\":5684:5685   */\n      0x04\n        /* \"#utility.yul\":5664:5682   */\n      swap1\n      dup3\n      add\n        /* \"#utility.yul\":5657:5686   */\n      mstore\n      shl(0xe2, 0x1b5a5b9d)\n        /* \"#utility.yul\":5717:5719   */\n      0x60\n        /* \"#utility.yul\":5702:5720   */\n      dup3\n      add\n        /* \"#utility.yul\":5695:5729   */\n      mstore\n        /* \"#utility.yul\":5761:5764   */\n      0x80\n        /* \"#utility.yul\":5746:5765   */\n      add\n      swap1\n        /* \"#utility.yul\":5372:5771   */\n      jump\n        /* \"contracts/StudyTokenAuthority.sol\":5358:5398  TokenOperationDenied(to, amount, \"mint\") */\n    tag_180:\n      mload(0x40)\n      dup1\n      swap2\n      sub\n      swap1\n      log2\n        /* \"contracts/StudyTokenAuthority.sol\":5419:5424  false */\n      0x00\n        /* \"contracts/StudyTokenAuthority.sol\":5412:5424  return false */\n      swap4\n      pop\n      pop\n      pop\n      pop\n        /* \"contracts/StudyTokenAuthority.sol\":1428:1429  _ */\n    tag_170:\n        /* \"contracts/StudyTokenAuthority.sol\":4871:5441  function authorizeMint(address to, uint256 amount) external onlyAuthorized returns (bool) {... */\n      swap3\n      swap2\n      pop\n      pop\n      jump\t// out\n        /* \"contracts/StudyTokenAuthority.sol\":6172:6378  function setStudyToken(address _studyTokenAddress) external onlyOwner {... */\n    tag_75:\n        /* \"contracts/StudyTokenAuthority.sol\":1230:1235  owner */\n      and(sub(shl(0xa0, 0x01), 0x01), sload(0x01))\n        /* \"contracts/StudyTokenAuthority.sol\":1216:1226  msg.sender */\n      caller\n        /* \"contracts/StudyTokenAuthority.sol\":1216:1235  msg.sender == owner */\n      eq\n        /* \"contracts/StudyTokenAuthority.sol\":1208:1273  require(msg.sender == owner, \"Only owner can call this function\") */\n      tag_182\n      jumpi\n      mload(0x40)\n      shl(0xe5, 0x461bcd)\n      dup2\n      mstore\n      0x04\n      add\n      tag_101\n      swap1\n      tag_102\n      jump\t// in\n    tag_182:\n      sub(shl(0xa0, 0x01), 0x01)\n        /* \"contracts/StudyTokenAuthority.sol\":6260:6292  _studyTokenAddress != address(0) */\n      dup2\n      and\n        /* \"contracts/StudyTokenAuthority.sol\":6252:6318  require(_studyTokenAddress != address(0), \"Invalid token address\") */\n      tag_185\n      jumpi\n      mload(0x40)\n      shl(0xe5, 0x461bcd)\n      dup2\n      mstore\n        /* \"#utility.yul\":5978:5980   */\n      0x20\n        /* \"contracts/StudyTokenAuthority.sol\":6252:6318  require(_studyTokenAddress != address(0), \"Invalid token address\") */\n      0x04\n      dup3\n      add\n        /* \"#utility.yul\":5960:5981   */\n      mstore\n        /* \"#utility.yul\":6017:6019   */\n      0x15\n        /* \"#utility.yul\":5997:6015   */\n      0x24\n      dup3\n      add\n        /* \"#utility.yul\":5990:6020   */\n      mstore\n      shl(0x58, 0x496e76616c696420746f6b656e2061646472657373)\n        /* \"#utility.yul\":6036:6054   */\n      0x44\n      dup3\n      add\n        /* \"#utility.yul\":6029:6080   */\n      mstore\n        /* \"#utility.yul\":6097:6115   */\n      0x64\n      add\n        /* \"contracts/StudyTokenAuthority.sol\":6252:6318  require(_studyTokenAddress != address(0), \"Invalid token address\") */\n      tag_101\n        /* \"#utility.yul\":5776:6121   */\n      jump\n        /* \"contracts/StudyTokenAuthority.sol\":6252:6318  require(_studyTokenAddress != address(0), \"Invalid token address\") */\n    tag_185:\n        /* \"contracts/StudyTokenAuthority.sol\":6328:6338  studyToken */\n      0x00\n        /* \"contracts/StudyTokenAuthority.sol\":6328:6371  studyToken = StudyToken(_studyTokenAddress) */\n      dup1\n      sload\n      not(sub(shl(0xa0, 0x01), 0x01))\n      and\n      sub(shl(0xa0, 0x01), 0x01)\n      swap3\n      swap1\n      swap3\n      and\n      swap2\n      swap1\n      swap2\n      or\n      swap1\n      sstore\n        /* \"contracts/StudyTokenAuthority.sol\":6172:6378  function setStudyToken(address _studyTokenAddress) external onlyOwner {... */\n      jump\t// out\n        /* \"contracts/StudyTokenAuthority.sol\":3516:3622  function setDefaultDailyLimit(uint256 limit) external onlyOwner {... */\n    tag_83:\n        /* \"contracts/StudyTokenAuthority.sol\":1230:1235  owner */\n      and(sub(shl(0xa0, 0x01), 0x01), sload(0x01))\n        /* \"contracts/StudyTokenAuthority.sol\":1216:1226  msg.sender */\n      caller\n        /* \"contracts/StudyTokenAuthority.sol\":1216:1235  msg.sender == owner */\n      eq\n        /* \"contracts/StudyTokenAuthority.sol\":1208:1273  require(msg.sender == owner, \"Only owner can call this function\") */\n      tag_189\n      jumpi\n      mload(0x40)\n      shl(0xe5, 0x461bcd)\n      dup2\n      mstore\n      0x04\n      add\n      tag_101\n      swap1\n      tag_102\n      jump\t// in\n    tag_189:\n        /* \"contracts/StudyTokenAuthority.sol\":3590:3607  defaultDailyLimit */\n      0x04\n        /* \"contracts/StudyTokenAuthority.sol\":3590:3615  defaultDailyLimit = limit */\n      sstore\n        /* \"contracts/StudyTokenAuthority.sol\":3516:3622  function setDefaultDailyLimit(uint256 limit) external onlyOwner {... */\n      jump\t// out\n        /* \"contracts/StudyTokenAuthority.sol\":4356:4662  function getRemainingDailyLimit(address user) public view returns (uint256) {... */\n    tag_93:\n        /* \"contracts/StudyTokenAuthority.sol\":4423:4430  uint256 */\n      0x00\n        /* \"contracts/StudyTokenAuthority.sol\":4442:4459  uint256 dayNumber */\n      dup1\n        /* \"contracts/StudyTokenAuthority.sol\":4462:4477  getCurrentDay() */\n      tag_193\n        /* \"contracts/StudyTokenAuthority.sol\":4462:4475  getCurrentDay */\n      tag_49\n        /* \"contracts/StudyTokenAuthority.sol\":4462:4477  getCurrentDay() */\n      jump\t// in\n    tag_193:\n      sub(shl(0xa0, 0x01), 0x01)\n        /* \"contracts/StudyTokenAuthority.sol\":4507:4527  userDailyUsage[user] */\n      dup5\n      and\n        /* \"contracts/StudyTokenAuthority.sol\":4487:4504  uint256 usedToday */\n      0x00\n        /* \"contracts/StudyTokenAuthority.sol\":4507:4527  userDailyUsage[user] */\n      swap1\n      dup2\n      mstore\n        /* \"contracts/StudyTokenAuthority.sol\":4507:4521  userDailyUsage */\n      0x05\n        /* \"contracts/StudyTokenAuthority.sol\":4507:4527  userDailyUsage[user] */\n      0x20\n      swap1\n      dup2\n      mstore\n      0x40\n      dup1\n      dup4\n      keccak256\n        /* \"contracts/StudyTokenAuthority.sol\":4507:4538  userDailyUsage[user][dayNumber] */\n      dup5\n      dup5\n      mstore\n      swap1\n      swap2\n      mstore\n      dup2\n      keccak256\n      sload\n        /* \"contracts/StudyTokenAuthority.sol\":4442:4477  uint256 dayNumber = getCurrentDay() */\n      swap2\n      swap3\n      pop\n        /* \"contracts/StudyTokenAuthority.sol\":4564:4587  getUserDailyLimit(user) */\n      tag_194\n        /* \"contracts/StudyTokenAuthority.sol\":4522:4526  user */\n      dup6\n        /* \"contracts/StudyTokenAuthority.sol\":4564:4581  getUserDailyLimit */\n      tag_59\n        /* \"contracts/StudyTokenAuthority.sol\":4564:4587  getUserDailyLimit(user) */\n      jump\t// in\n    tag_194:\n        /* \"contracts/StudyTokenAuthority.sol\":4548:4587  uint256 limit = getUserDailyLimit(user) */\n      swap1\n      pop\n        /* \"contracts/StudyTokenAuthority.sol\":4626:4631  limit */\n      dup1\n        /* \"contracts/StudyTokenAuthority.sol\":4613:4622  usedToday */\n      dup3\n        /* \"contracts/StudyTokenAuthority.sol\":4613:4631  usedToday >= limit */\n      lt\n      iszero\n        /* \"contracts/StudyTokenAuthority.sol\":4613:4655  usedToday >= limit ? 0 : limit - usedToday */\n      tag_195\n      jumpi\n        /* \"contracts/StudyTokenAuthority.sol\":4638:4655  limit - usedToday */\n      tag_196\n        /* \"contracts/StudyTokenAuthority.sol\":4646:4655  usedToday */\n      dup3\n        /* \"contracts/StudyTokenAuthority.sol\":4638:4643  limit */\n      dup3\n        /* \"contracts/StudyTokenAuthority.sol\":4638:4655  limit - usedToday */\n      tag_197\n      jump\t// in\n    tag_196:\n        /* \"contracts/StudyTokenAuthority.sol\":4613:4655  usedToday >= limit ? 0 : limit - usedToday */\n      jump(tag_198)\n    tag_195:\n        /* \"contracts/StudyTokenAuthority.sol\":4634:4635  0 */\n      0x00\n        /* \"contracts/StudyTokenAuthority.sol\":4613:4655  usedToday >= limit ? 0 : limit - usedToday */\n    tag_198:\n        /* \"contracts/StudyTokenAuthority.sol\":4606:4655  return usedToday >= limit ? 0 : limit - usedToday */\n      swap6\n        /* \"contracts/StudyTokenAuthority.sol\":4356:4662  function getRemainingDailyLimit(address user) public view returns (uint256) {... */\n      swap5\n      pop\n      pop\n      pop\n      pop\n      pop\n      jump\t// out\n        /* \"contracts/StudyTokenAuthority.sol\":6958:7312  function mintTokens(address to, uint256 amount) external onlyOwner returns (bool) {... */\n    tag_97:\n        /* \"contracts/StudyTokenAuthority.sol\":1230:1235  owner */\n      sload(0x01)\n        /* \"contracts/StudyTokenAuthority.sol\":7034:7038  bool */\n      0x00\n      swap1\n      sub(shl(0xa0, 0x01), 0x01)\n        /* \"contracts/StudyTokenAuthority.sol\":1230:1235  owner */\n      and\n        /* \"contracts/StudyTokenAuthority.sol\":1216:1226  msg.sender */\n      caller\n        /* \"contracts/StudyTokenAuthority.sol\":1216:1235  msg.sender == owner */\n      eq\n        /* \"contracts/StudyTokenAuthority.sol\":1208:1273  require(msg.sender == owner, \"Only owner can call this function\") */\n      tag_200\n      jumpi\n      mload(0x40)\n      shl(0xe5, 0x461bcd)\n      dup2\n      mstore\n      0x04\n      add\n      tag_101\n      swap1\n      tag_102\n      jump\t// in\n    tag_200:\n        /* \"contracts/StudyTokenAuthority.sol\":7054:7064  studyToken */\n      sload(0x00)\n        /* \"contracts/StudyTokenAuthority.sol\":7054:7087  studyToken.mintReward(to, amount) */\n      mload(0x40)\n      shl(0xe1, 0x4d248487)\n      dup2\n      mstore\n      sub(shl(0xa0, 0x01), 0x01)\n        /* \"#utility.yul\":6451:6483   */\n      dup6\n      dup2\n      and\n        /* \"contracts/StudyTokenAuthority.sol\":7054:7087  studyToken.mintReward(to, amount) */\n      0x04\n      dup4\n      add\n        /* \"#utility.yul\":6433:6484   */\n      mstore\n        /* \"#utility.yul\":6500:6518   */\n      0x24\n      dup3\n      add\n        /* \"#utility.yul\":6493:6527   */\n      dup6\n      swap1\n      mstore\n        /* \"contracts/StudyTokenAuthority.sol\":7054:7064  studyToken */\n      swap1\n      swap2\n      and\n      swap1\n        /* \"contracts/StudyTokenAuthority.sol\":7054:7075  studyToken.mintReward */\n      0x9a49090e\n      swap1\n        /* \"#utility.yul\":6406:6424   */\n      0x44\n      add\n        /* \"contracts/StudyTokenAuthority.sol\":7054:7087  studyToken.mintReward(to, amount) */\n      0x00\n      mload(0x40)\n      dup1\n      dup4\n      sub\n      dup2\n      0x00\n      dup8\n      dup1\n      extcodesize\n      iszero\n      dup1\n      iszero\n      tag_205\n      jumpi\n      0x00\n      dup1\n      revert\n    tag_205:\n      pop\n      gas\n      call\n      swap3\n      pop\n      pop\n      pop\n      dup1\n      iszero\n      tag_206\n      jumpi\n      pop\n      0x01\n    tag_206:\n        /* \"contracts/StudyTokenAuthority.sol\":7050:7306  try studyToken.mintReward(to, amount) {... */\n      tag_207\n      jumpi\n        /* \"contracts/StudyTokenAuthority.sol\":7241:7243  to */\n      dup3\n      sub(shl(0xa0, 0x01), 0x01)\n        /* \"contracts/StudyTokenAuthority.sol\":7220:7269  TokenOperationDenied(to, amount, \"authorityMint\") */\n      and\n      0x36e690c5f80da3f9da10e957f42fac89e3fde772861ffe24e95169aedda4e8bf\n        /* \"contracts/StudyTokenAuthority.sol\":7245:7251  amount */\n      dup4\n        /* \"contracts/StudyTokenAuthority.sol\":7220:7269  TokenOperationDenied(to, amount, \"authorityMint\") */\n      mload(0x40)\n      tag_211\n      swap2\n        /* \"#utility.yul\":6750:6775   */\n      dup2\n      mstore\n        /* \"#utility.yul\":6811:6813   */\n      0x40\n        /* \"#utility.yul\":6806:6808   */\n      0x20\n        /* \"#utility.yul\":6791:6809   */\n      dup3\n      add\n        /* \"#utility.yul\":6784:6814   */\n      dup2\n      swap1\n      mstore\n        /* \"#utility.yul\":6850:6852   */\n      0x0d\n        /* \"#utility.yul\":6830:6848   */\n      swap1\n      dup3\n      add\n        /* \"#utility.yul\":6823:6853   */\n      mstore\n      shl(0x9a, 0x185d5d1a1bdc9a5d1e535a5b9d)\n        /* \"#utility.yul\":6884:6886   */\n      0x60\n        /* \"#utility.yul\":6869:6887   */\n      dup3\n      add\n        /* \"#utility.yul\":6862:6905   */\n      mstore\n        /* \"#utility.yul\":6937:6940   */\n      0x80\n        /* \"#utility.yul\":6922:6941   */\n      add\n      swap1\n        /* \"#utility.yul\":6538:6947   */\n      jump\n        /* \"contracts/StudyTokenAuthority.sol\":7220:7269  TokenOperationDenied(to, amount, \"authorityMint\") */\n    tag_211:\n      mload(0x40)\n      dup1\n      swap2\n      sub\n      swap1\n      log2\n      pop\n        /* \"contracts/StudyTokenAuthority.sol\":7290:7295  false */\n      0x00\n        /* \"contracts/StudyTokenAuthority.sol\":7283:7295  return false */\n      jump(tag_170)\n        /* \"contracts/StudyTokenAuthority.sol\":7050:7306  try studyToken.mintReward(to, amount) {... */\n    tag_207:\n        /* \"contracts/StudyTokenAuthority.sol\":7130:7132  to */\n      dup3\n      sub(shl(0xa0, 0x01), 0x01)\n        /* \"contracts/StudyTokenAuthority.sol\":7107:7158  TokenOperationApproved(to, amount, \"authorityMint\") */\n      and\n      0x09e7e318d9fde6f0e5cbb2418a50245c2063ce96946e2711c38e9c2b3127e9b3\n        /* \"contracts/StudyTokenAuthority.sol\":7134:7140  amount */\n      dup4\n        /* \"contracts/StudyTokenAuthority.sol\":7107:7158  TokenOperationApproved(to, amount, \"authorityMint\") */\n      mload(0x40)\n      tag_214\n      swap2\n        /* \"#utility.yul\":6750:6775   */\n      dup2\n      mstore\n        /* \"#utility.yul\":6811:6813   */\n      0x40\n        /* \"#utility.yul\":6806:6808   */\n      0x20\n        /* \"#utility.yul\":6791:6809   */\n      dup3\n      add\n        /* \"#utility.yul\":6784:6814   */\n      dup2\n      swap1\n      mstore\n        /* \"#utility.yul\":6850:6852   */\n      0x0d\n        /* \"#utility.yul\":6830:6848   */\n      swap1\n      dup3\n      add\n        /* \"#utility.yul\":6823:6853   */\n      mstore\n      shl(0x9a, 0x185d5d1a1bdc9a5d1e535a5b9d)\n        /* \"#utility.yul\":6884:6886   */\n      0x60\n        /* \"#utility.yul\":6869:6887   */\n      dup3\n      add\n        /* \"#utility.yul\":6862:6905   */\n      mstore\n        /* \"#utility.yul\":6937:6940   */\n      0x80\n        /* \"#utility.yul\":6922:6941   */\n      add\n      swap1\n        /* \"#utility.yul\":6538:6947   */\n      jump\n        /* \"contracts/StudyTokenAuthority.sol\":7107:7158  TokenOperationApproved(to, amount, \"authorityMint\") */\n    tag_214:\n      mload(0x40)\n      dup1\n      swap2\n      sub\n      swap1\n      log2\n      pop\n        /* \"contracts/StudyTokenAuthority.sol\":7179:7183  true */\n      0x01\n        /* \"contracts/StudyTokenAuthority.sol\":7172:7183  return true */\n      jump(tag_170)\n        /* \"#utility.yul\":14:187   */\n    tag_215:\n        /* \"#utility.yul\":82:102   */\n      dup1\n      calldataload\n      sub(shl(0xa0, 0x01), 0x01)\n        /* \"#utility.yul\":131:162   */\n      dup2\n      and\n        /* \"#utility.yul\":121:163   */\n      dup2\n      eq\n        /* \"#utility.yul\":111:181   */\n      tag_114\n      jumpi\n        /* \"#utility.yul\":177:178   */\n      0x00\n        /* \"#utility.yul\":174:175   */\n      dup1\n        /* \"#utility.yul\":167:179   */\n      revert\n        /* \"#utility.yul\":192:378   */\n    tag_27:\n        /* \"#utility.yul\":251:257   */\n      0x00\n        /* \"#utility.yul\":304:306   */\n      0x20\n        /* \"#utility.yul\":292:301   */\n      dup3\n        /* \"#utility.yul\":283:290   */\n      dup5\n        /* \"#utility.yul\":279:302   */\n      sub\n        /* \"#utility.yul\":275:307   */\n      slt\n        /* \"#utility.yul\":272:324   */\n      iszero\n      tag_221\n      jumpi\n        /* \"#utility.yul\":320:321   */\n      0x00\n        /* \"#utility.yul\":317:318   */\n      dup1\n        /* \"#utility.yul\":310:322   */\n      revert\n        /* \"#utility.yul\":272:324   */\n    tag_221:\n        /* \"#utility.yul\":343:372   */\n      tag_165\n        /* \"#utility.yul\":362:371   */\n      dup3\n        /* \"#utility.yul\":343:372   */\n      tag_215\n      jump\t// in\n        /* \"#utility.yul\":575:829   */\n    tag_36:\n        /* \"#utility.yul\":643:649   */\n      0x00\n        /* \"#utility.yul\":651:657   */\n      dup1\n        /* \"#utility.yul\":704:706   */\n      0x40\n        /* \"#utility.yul\":692:701   */\n      dup4\n        /* \"#utility.yul\":683:690   */\n      dup6\n        /* \"#utility.yul\":679:702   */\n      sub\n        /* \"#utility.yul\":675:707   */\n      slt\n        /* \"#utility.yul\":672:724   */\n      iszero\n      tag_225\n      jumpi\n        /* \"#utility.yul\":720:721   */\n      0x00\n        /* \"#utility.yul\":717:718   */\n      dup1\n        /* \"#utility.yul\":710:722   */\n      revert\n        /* \"#utility.yul\":672:724   */\n    tag_225:\n        /* \"#utility.yul\":743:772   */\n      tag_226\n        /* \"#utility.yul\":762:771   */\n      dup4\n        /* \"#utility.yul\":743:772   */\n      tag_215\n      jump\t// in\n    tag_226:\n        /* \"#utility.yul\":733:772   */\n      swap5\n        /* \"#utility.yul\":819:821   */\n      0x20\n        /* \"#utility.yul\":804:822   */\n      swap4\n      swap1\n      swap4\n      add\n        /* \"#utility.yul\":791:823   */\n      calldataload\n      swap4\n      pop\n      pop\n      pop\n        /* \"#utility.yul\":575:829   */\n      jump\t// out\n        /* \"#utility.yul\":834:1162   */\n    tag_40:\n        /* \"#utility.yul\":911:917   */\n      0x00\n        /* \"#utility.yul\":919:925   */\n      dup1\n        /* \"#utility.yul\":927:933   */\n      0x00\n        /* \"#utility.yul\":980:982   */\n      0x60\n        /* \"#utility.yul\":968:977   */\n      dup5\n        /* \"#utility.yul\":959:966   */\n      dup7\n        /* \"#utility.yul\":955:978   */\n      sub\n        /* \"#utility.yul\":951:983   */\n      slt\n        /* \"#utility.yul\":948:1000   */\n      iszero\n      tag_228\n      jumpi\n        /* \"#utility.yul\":996:997   */\n      0x00\n        /* \"#utility.yul\":993:994   */\n      dup1\n        /* \"#utility.yul\":986:998   */\n      revert\n        /* \"#utility.yul\":948:1000   */\n    tag_228:\n        /* \"#utility.yul\":1019:1048   */\n      tag_229\n        /* \"#utility.yul\":1038:1047   */\n      dup5\n        /* \"#utility.yul\":1019:1048   */\n      tag_215\n      jump\t// in\n    tag_229:\n        /* \"#utility.yul\":1009:1048   */\n      swap3\n      pop\n        /* \"#utility.yul\":1067:1105   */\n      tag_230\n        /* \"#utility.yul\":1101:1103   */\n      0x20\n        /* \"#utility.yul\":1090:1099   */\n      dup6\n        /* \"#utility.yul\":1086:1104   */\n      add\n        /* \"#utility.yul\":1067:1105   */\n      tag_215\n      jump\t// in\n    tag_230:\n        /* \"#utility.yul\":1057:1105   */\n      swap2\n      pop\n        /* \"#utility.yul\":1152:1154   */\n      0x40\n        /* \"#utility.yul\":1141:1150   */\n      dup5\n        /* \"#utility.yul\":1137:1155   */\n      add\n        /* \"#utility.yul\":1124:1156   */\n      calldataload\n        /* \"#utility.yul\":1114:1156   */\n      swap1\n      pop\n        /* \"#utility.yul\":834:1162   */\n      swap3\n      pop\n      swap3\n      pop\n      swap3\n      jump\t// out\n        /* \"#utility.yul\":1784:1964   */\n    tag_82:\n        /* \"#utility.yul\":1843:1849   */\n      0x00\n        /* \"#utility.yul\":1896:1898   */\n      0x20\n        /* \"#utility.yul\":1884:1893   */\n      dup3\n        /* \"#utility.yul\":1875:1882   */\n      dup5\n        /* \"#utility.yul\":1871:1894   */\n      sub\n        /* \"#utility.yul\":1867:1899   */\n      slt\n        /* \"#utility.yul\":1864:1916   */\n      iszero\n      tag_235\n      jumpi\n        /* \"#utility.yul\":1912:1913   */\n      0x00\n        /* \"#utility.yul\":1909:1910   */\n      dup1\n        /* \"#utility.yul\":1902:1914   */\n      revert\n        /* \"#utility.yul\":1864:1916   */\n    tag_235:\n      pop\n        /* \"#utility.yul\":1935:1958   */\n      calldataload\n      swap2\n        /* \"#utility.yul\":1784:1964   */\n      swap1\n      pop\n      jump\t// out\n        /* \"#utility.yul\":1969:2366   */\n    tag_102:\n        /* \"#utility.yul\":2171:2173   */\n      0x20\n        /* \"#utility.yul\":2153:2174   */\n      dup1\n      dup3\n      mstore\n        /* \"#utility.yul\":2210:2212   */\n      0x21\n        /* \"#utility.yul\":2190:2208   */\n      swap1\n      dup3\n      add\n        /* \"#utility.yul\":2183:2213   */\n      mstore\n        /* \"#utility.yul\":2249:2283   */\n      0x4f6e6c79206f776e65722063616e2063616c6c20746869732066756e6374696f\n        /* \"#utility.yul\":2244:2246   */\n      0x40\n        /* \"#utility.yul\":2229:2247   */\n      dup3\n      add\n        /* \"#utility.yul\":2222:2284   */\n      mstore\n      shl(0xf9, 0x37)\n        /* \"#utility.yul\":2315:2317   */\n      0x60\n        /* \"#utility.yul\":2300:2318   */\n      dup3\n      add\n        /* \"#utility.yul\":2293:2324   */\n      mstore\n        /* \"#utility.yul\":2356:2359   */\n      0x80\n        /* \"#utility.yul\":2341:2360   */\n      add\n      swap1\n        /* \"#utility.yul\":1969:2366   */\n      jump\t// out\n        /* \"#utility.yul\":3827:3954   */\n    tag_216:\n        /* \"#utility.yul\":3888:3898   */\n      0x4e487b71\n        /* \"#utility.yul\":3883:3886   */\n      0xe0\n        /* \"#utility.yul\":3879:3899   */\n      shl\n        /* \"#utility.yul\":3876:3877   */\n      0x00\n        /* \"#utility.yul\":3869:3900   */\n      mstore\n        /* \"#utility.yul\":3919:3923   */\n      0x11\n        /* \"#utility.yul\":3916:3917   */\n      0x04\n        /* \"#utility.yul\":3909:3924   */\n      mstore\n        /* \"#utility.yul\":3943:3947   */\n      0x24\n        /* \"#utility.yul\":3940:3941   */\n      0x00\n        /* \"#utility.yul\":3933:3948   */\n      revert\n        /* \"#utility.yul\":3959:4176   */\n    tag_145:\n        /* \"#utility.yul\":3999:4000   */\n      0x00\n        /* \"#utility.yul\":4025:4026   */\n      dup3\n        /* \"#utility.yul\":4015:4147   */\n      tag_243\n      jumpi\n        /* \"#utility.yul\":4069:4079   */\n      0x4e487b71\n        /* \"#utility.yul\":4064:4067   */\n      0xe0\n        /* \"#utility.yul\":4060:4080   */\n      shl\n        /* \"#utility.yul\":4057:4058   */\n      0x00\n        /* \"#utility.yul\":4050:4081   */\n      mstore\n        /* \"#utility.yul\":4104:4108   */\n      0x12\n        /* \"#utility.yul\":4101:4102   */\n      0x04\n        /* \"#utility.yul\":4094:4109   */\n      mstore\n        /* \"#utility.yul\":4132:4136   */\n      0x24\n        /* \"#utility.yul\":4129:4130   */\n      0x00\n        /* \"#utility.yul\":4122:4137   */\n      revert\n        /* \"#utility.yul\":4015:4147   */\n    tag_243:\n      pop\n        /* \"#utility.yul\":4161:4170   */\n      div\n      swap1\n        /* \"#utility.yul\":3959:4176   */\n      jump\t// out\n        /* \"#utility.yul\":5242:5367   */\n    tag_174:\n        /* \"#utility.yul\":5307:5316   */\n      dup1\n      dup3\n      add\n        /* \"#utility.yul\":5328:5338   */\n      dup1\n      dup3\n      gt\n        /* \"#utility.yul\":5325:5361   */\n      iszero\n      tag_170\n      jumpi\n        /* \"#utility.yul\":5341:5359   */\n      tag_170\n      tag_216\n      jump\t// in\n        /* \"#utility.yul\":6126:6254   */\n    tag_197:\n        /* \"#utility.yul\":6193:6202   */\n      dup2\n      dup2\n      sub\n        /* \"#utility.yul\":6214:6225   */\n      dup2\n      dup2\n      gt\n        /* \"#utility.yul\":6211:6248   */\n      iszero\n      tag_170\n      jumpi\n        /* \"#utility.yul\":6228:6246   */\n      tag_170\n      tag_216\n      jump\t// in\n\n    auxdata: 0xa2646970667358221220367faa81006eb8ec7b0c7ddc297ba351c354280ca61d61d282683a9493a679f864736f6c63430008180033\n}\n",
				"bytecode": {
					"linkReferences": {},
					"object": "608060405234801561000f575f80fd5b50604051610f60380380610f6083398101604081905261002e916100fb565b6001600160a01b0382166100885760405162461bcd60e51b815260206004820152601560248201527f496e76616c696420746f6b656e20616464726573730000000000000000000000604482015260640160405180910390fd5b60018054336001600160a01b0319918216811783555f80549092166001600160a01b038616178255600484905580825260026020526040808320805460ff191690941790935591517f8983a1f3c3cb45c24c8226b5b805e3b6eb49686530b808534b2a920129eff6519190a25050610132565b5f806040838503121561010c575f80fd5b82516001600160a01b0381168114610122575f80fd5b6020939093015192949293505050565b610e218061013f5f395ff3fe608060405234801561000f575f80fd5b506004361061011c575f3560e01c80638da5cb5b116100a9578063bebbcfe61161006e578063bebbcfe614610273578063c76b088814610286578063d5b9221b1461028f578063ec37d259146102b1578063f0dda65c146102c4575f80fd5b80638da5cb5b146101e65780639b32ea6d14610211578063a7481b5b14610224578063b09a8a0414610236578063b6fa284d14610249575f80fd5b8063360cf54a116100ef578063360cf54a146101785780633e6968b6146101a557806367561d93146101ad5780636e861c0e146101c057806377865f91146101d3575f80fd5b80630a0d6de114610120578063113018c514610148578063177c49a71461015057806332a34ad014610165575b5f80fd5b61013361012e366004610cc0565b6102d7565b60405190151581526020015b60405180910390f35b6101336103fd565b61016361015e366004610cd9565b61048a565b005b610133610173366004610d01565b610559565b610197610186366004610cc0565b60036020525f908152604090205481565b60405190815260200161013f565b61019761062a565b6101636101bb366004610cc0565b61063d565b6101636101ce366004610cc0565b610770565b6101976101e1366004610cc0565b610849565b6001546101f9906001600160a01b031681565b6040516001600160a01b03909116815260200161013f565b61013361021f366004610cd9565b610877565b5f546101f9906001600160a01b031681565b610163610244366004610cc0565b610a1b565b610197610257366004610cd9565b600560209081525f928352604080842090915290825290205481565b610163610281366004610d3a565b610ab4565b61019760045481565b61013361029d366004610cc0565b60026020525f908152604090205460ff1681565b6101976102bf366004610cc0565b610ae3565b6101336102d2366004610cd9565b610b40565b6001545f906001600160a01b0316331461030c5760405162461bcd60e51b815260040161030390610d51565b60405180910390fd5b6001600160a01b0382166103625760405162461bcd60e51b815260206004820152601b60248201527f496e76616c69642073747564792067726f7570206164647265737300000000006044820152606401610303565b5f54604051634c1d96ab60e11b81526001600160a01b0384811660048301529091169063983b2d56906024015f604051808303815f87803b1580156103a5575f80fd5b505af19250505080156103b6575060015b6103c157505f919050565b6040516001600160a01b038316907f8983a1f3c3cb45c24c8226b5b805e3b6eb49686530b808534b2a920129eff651905f90a25060015b919050565b6001545f906001600160a01b031633146104295760405162461bcd60e51b815260040161030390610d51565b5f54604051634c1d96ab60e11b81523060048201526001600160a01b039091169063983b2d56906024015f604051808303815f87803b15801561046a575f80fd5b505af192505050801561047b575060015b61048457505f90565b50600190565b6001546001600160a01b031633146104b45760405162461bcd60e51b815260040161030390610d51565b6001600160a01b0382166105015760405162461bcd60e51b8152602060048201526014602482015273496e76616c69642075736572206164647265737360601b6044820152606401610303565b6001600160a01b0382165f8181526003602052604090819020839055517fc1395320bc4a9778acf4621c40f54fdde0fafa6177d8012972fca4ec8f7cfa369061054d9084815260200190565b60405180910390a25050565b335f9081526002602052604081205460ff168061058057506001546001600160a01b031633145b6105bd5760405162461bcd60e51b815260206004820152600e60248201526d139bdd08185d5d1a1bdc9a5e995960921b6044820152606401610303565b836001600160a01b03167f09e7e318d9fde6f0e5cbb2418a50245c2063ce96946e2711c38e9c2b3127e9b383604051610618918152604060208201819052600890820152673a3930b739b332b960c11b606082015260800190565b60405180910390a25060019392505050565b5f6106386201518042610da6565b905090565b6001546001600160a01b031633146106675760405162461bcd60e51b815260040161030390610d51565b6001600160a01b0381166106bd5760405162461bcd60e51b815260206004820152601860248201527f496e76616c696420636f6e7472616374206164647265737300000000000000006044820152606401610303565b6001600160a01b0381165f9081526002602052604090205460ff16156107255760405162461bcd60e51b815260206004820152601b60248201527f436f6e747261637420616c726561647920617574686f72697a656400000000006044820152606401610303565b6001600160a01b0381165f81815260026020526040808220805460ff19166001179055517f8983a1f3c3cb45c24c8226b5b805e3b6eb49686530b808534b2a920129eff6519190a250565b6001546001600160a01b0316331461079a5760405162461bcd60e51b815260040161030390610d51565b6001600160a01b0381165f9081526002602052604090205460ff166108015760405162461bcd60e51b815260206004820152601760248201527f436f6e7472616374206e6f7420617574686f72697a65640000000000000000006044820152606401610303565b6001600160a01b0381165f81815260026020526040808220805460ff19169055517f54142b7cb3ceaa9e564243ce4cc2303723c842a1144192de6b3c594f68b16a9a9190a250565b6001600160a01b0381165f908152600360205260408120548061086e57600454610870565b805b9392505050565b335f9081526002602052604081205460ff168061089e57506001546001600160a01b031633145b6108db5760405162461bcd60e51b815260206004820152600e60248201526d139bdd08185d5d1a1bdc9a5e995960921b6044820152606401610303565b5f6108e461062a565b90505f6108f085610849565b6001600160a01b0386165f908152600560209081526040808320868452909152902054909150816109218683610dc5565b116109af576109308582610dc5565b6001600160a01b0387165f818152600560209081526040808320888452825291829020939093558051888152928301819052600490830152631b5a5b9d60e21b6060830152907f09e7e318d9fde6f0e5cbb2418a50245c2063ce96946e2711c38e9c2b3127e9b39060800160405180910390a260019350505050610a15565b856001600160a01b03167f36e690c5f80da3f9da10e957f42fac89e3fde772861ffe24e95169aedda4e8bf86604051610a06918152604060208201819052600490820152631b5a5b9d60e21b606082015260800190565b60405180910390a25f93505050505b92915050565b6001546001600160a01b03163314610a455760405162461bcd60e51b815260040161030390610d51565b6001600160a01b038116610a935760405162461bcd60e51b8152602060048201526015602482015274496e76616c696420746f6b656e206164647265737360581b6044820152606401610303565b5f80546001600160a01b0319166001600160a01b0392909216919091179055565b6001546001600160a01b03163314610ade5760405162461bcd60e51b815260040161030390610d51565b600455565b5f80610aed61062a565b6001600160a01b0384165f908152600560209081526040808320848452909152812054919250610b1c85610849565b905080821015610b3557610b308282610dd8565b610b37565b5f5b95945050505050565b6001545f906001600160a01b03163314610b6c5760405162461bcd60e51b815260040161030390610d51565b5f54604051634d24848760e11b81526001600160a01b0385811660048301526024820185905290911690639a49090e906044015f604051808303815f87803b158015610bb6575f80fd5b505af1925050508015610bc7575060015b610c3a57826001600160a01b03167f36e690c5f80da3f9da10e957f42fac89e3fde772861ffe24e95169aedda4e8bf83604051610c2b918152604060208201819052600d908201526c185d5d1a1bdc9a5d1e535a5b9d609a1b606082015260800190565b60405180910390a2505f610a15565b826001600160a01b03167f09e7e318d9fde6f0e5cbb2418a50245c2063ce96946e2711c38e9c2b3127e9b383604051610c9a918152604060208201819052600d908201526c185d5d1a1bdc9a5d1e535a5b9d609a1b606082015260800190565b60405180910390a2506001610a15565b80356001600160a01b03811681146103f8575f80fd5b5f60208284031215610cd0575f80fd5b61087082610caa565b5f8060408385031215610cea575f80fd5b610cf383610caa565b946020939093013593505050565b5f805f60608486031215610d13575f80fd5b610d1c84610caa565b9250610d2a60208501610caa565b9150604084013590509250925092565b5f60208284031215610d4a575f80fd5b5035919050565b60208082526021908201527f4f6e6c79206f776e65722063616e2063616c6c20746869732066756e6374696f6040820152603760f91b606082015260800190565b634e487b7160e01b5f52601160045260245ffd5b5f82610dc057634e487b7160e01b5f52601260045260245ffd5b500490565b80820180821115610a1557610a15610d92565b81810381811115610a1557610a15610d9256fea2646970667358221220367faa81006eb8ec7b0c7ddc297ba351c354280ca61d61d282683a9493a679f864736f6c63430008180033",
					"opcodes": "PUSH1 0x80 PUSH1 0x40 MSTORE CALLVALUE DUP1 ISZERO PUSH2 0xF JUMPI PUSH0 DUP1 REVERT JUMPDEST POP PUSH1 0x40 MLOAD PUSH2 0xF60 CODESIZE SUB DUP1 PUSH2 0xF60 DUP4 CODECOPY DUP2 ADD PUSH1 0x40 DUP2 SWAP1 MSTORE PUSH2 0x2E SWAP2 PUSH2 0xFB JUMP JUMPDEST PUSH1 0x1 PUSH1 0x1 PUSH1 0xA0 SHL SUB DUP3 AND PUSH2 0x88 JUMPI PUSH1 0x40 MLOAD PUSH3 0x461BCD PUSH1 0xE5 SHL DUP2 MSTORE PUSH1 0x20 PUSH1 0x4 DUP3 ADD MSTORE PUSH1 0x15 PUSH1 0x24 DUP3 ADD MSTORE PUSH32 0x496E76616C696420746F6B656E20616464726573730000000000000000000000 PUSH1 0x44 DUP3 ADD MSTORE PUSH1 0x64 ADD PUSH1 0x40 MLOAD DUP1 SWAP2 SUB SWAP1 REVERT JUMPDEST PUSH1 0x1 DUP1 SLOAD CALLER PUSH1 0x1 PUSH1 0x1 PUSH1 0xA0 SHL SUB NOT SWAP2 DUP3 AND DUP2 OR DUP4 SSTORE PUSH0 DUP1 SLOAD SWAP1 SWAP3 AND PUSH1 0x1 PUSH1 0x1 PUSH1 0xA0 SHL SUB DUP7 AND OR DUP3 SSTORE PUSH1 0x4 DUP5 SWAP1 SSTORE DUP1 DUP3 MSTORE PUSH1 0x2 PUSH1 0x20 MSTORE PUSH1 0x40 DUP1 DUP4 KECCAK256 DUP1 SLOAD PUSH1 0xFF NOT AND SWAP1 SWAP5 OR SWAP1 SWAP4 SSTORE SWAP2 MLOAD PUSH32 0x8983A1F3C3CB45C24C8226B5B805E3B6EB49686530B808534B2A920129EFF651 SWAP2 SWAP1 LOG2 POP POP PUSH2 0x132 JUMP JUMPDEST PUSH0 DUP1 PUSH1 0x40 DUP4 DUP6 SUB SLT ISZERO PUSH2 0x10C JUMPI PUSH0 DUP1 REVERT JUMPDEST DUP3 MLOAD PUSH1 0x1 PUSH1 0x1 PUSH1 0xA0 SHL SUB DUP2 AND DUP2 EQ PUSH2 0x122 JUMPI PUSH0 DUP1 REVERT JUMPDEST PUSH1 0x20 SWAP4 SWAP1 SWAP4 ADD MLOAD SWAP3 SWAP5 SWAP3 SWAP4 POP POP POP JUMP JUMPDEST PUSH2 0xE21 DUP1 PUSH2 0x13F PUSH0 CODECOPY PUSH0 RETURN INVALID PUSH1 0x80 PUSH1 0x40 MSTORE CALLVALUE DUP1 ISZERO PUSH2 0xF JUMPI PUSH0 DUP1 REVERT JUMPDEST POP PUSH1 0x4 CALLDATASIZE LT PUSH2 0x11C JUMPI PUSH0 CALLDATALOAD PUSH1 0xE0 SHR DUP1 PUSH4 0x8DA5CB5B GT PUSH2 0xA9 JUMPI DUP1 PUSH4 0xBEBBCFE6 GT PUSH2 0x6E JUMPI DUP1 PUSH4 0xBEBBCFE6 EQ PUSH2 0x273 JUMPI DUP1 PUSH4 0xC76B0888 EQ PUSH2 0x286 JUMPI DUP1 PUSH4 0xD5B9221B EQ PUSH2 0x28F JUMPI DUP1 PUSH4 0xEC37D259 EQ PUSH2 0x2B1 JUMPI DUP1 PUSH4 0xF0DDA65C EQ PUSH2 0x2C4 JUMPI PUSH0 DUP1 REVERT JUMPDEST DUP1 PUSH4 0x8DA5CB5B EQ PUSH2 0x1E6 JUMPI DUP1 PUSH4 0x9B32EA6D EQ PUSH2 0x211 JUMPI DUP1 PUSH4 0xA7481B5B EQ PUSH2 0x224 JUMPI DUP1 PUSH4 0xB09A8A04 EQ PUSH2 0x236 JUMPI DUP1 PUSH4 0xB6FA284D EQ PUSH2 0x249 JUMPI PUSH0 DUP1 REVERT JUMPDEST DUP1 PUSH4 0x360CF54A GT PUSH2 0xEF JUMPI DUP1 PUSH4 0x360CF54A EQ PUSH2 0x178 JUMPI DUP1 PUSH4 0x3E6968B6 EQ PUSH2 0x1A5 JUMPI DUP1 PUSH4 0x67561D93 EQ PUSH2 0x1AD JUMPI DUP1 PUSH4 0x6E861C0E EQ PUSH2 0x1C0 JUMPI DUP1 PUSH4 0x77865F91 EQ PUSH2 0x1D3 JUMPI PUSH0 DUP1 REVERT JUMPDEST DUP1 PUSH4 0xA0D6DE1 EQ PUSH2 0x120 JUMPI DUP1 PUSH4 0x113018C5 EQ PUSH2 0x148 JUMPI DUP1 PUSH4 0x177C49A7 EQ PUSH2 0x150 JUMPI DUP1 PUSH4 0x32A34AD0 EQ PUSH2 0x165 JUMPI JUMPDEST PUSH0 DUP1 REVERT JUMPDEST PUSH2 0x133 PUSH2 0x12E CALLDATASIZE PUSH1 0x4 PUSH2 0xCC0 JUMP JUMPDEST PUSH2 0x2D7 JUMP JUMPDEST PUSH1 0x40 MLOAD SWAP1 ISZERO ISZERO DUP2 MSTORE PUSH1 0x20 ADD JUMPDEST PUSH1 0x40 MLOAD DUP1 SWAP2 SUB SWAP1 RETURN JUMPDEST PUSH2 0x133 PUSH2 0x3FD JUMP JUMPDEST PUSH2 0x163 PUSH2 0x15E CALLDATASIZE PUSH1 0x4 PUSH2 0xCD9 JUMP JUMPDEST PUSH2 0x48A JUMP JUMPDEST STOP JUMPDEST PUSH2 0x133 PUSH2 0x173 CALLDATASIZE PUSH1 0x4 PUSH2 0xD01 JUMP JUMPDEST PUSH2 0x559 JUMP JUMPDEST PUSH2 0x197 PUSH2 0x186 CALLDATASIZE PUSH1 0x4 PUSH2 0xCC0 JUMP JUMPDEST PUSH1 0x3 PUSH1 0x20 MSTORE PUSH0 SWAP1 DUP2 MSTORE PUSH1 0x40 SWAP1 KECCAK256 SLOAD DUP2 JUMP JUMPDEST PUSH1 0x40 MLOAD SWAP1 DUP2 MSTORE PUSH1 0x20 ADD PUSH2 0x13F JUMP JUMPDEST PUSH2 0x197 PUSH2 0x62A JUMP JUMPDEST PUSH2 0x163 PUSH2 0x1BB CALLDATASIZE PUSH1 0x4 PUSH2 0xCC0 JUMP JUMPDEST PUSH2 0x63D JUMP JUMPDEST PUSH2 0x163 PUSH2 0x1CE CALLDATASIZE PUSH1 0x4 PUSH2 0xCC0 JUMP JUMPDEST PUSH2 0x770 JUMP JUMPDEST PUSH2 0x197 PUSH2 0x1E1 CALLDATASIZE PUSH1 0x4 PUSH2 0xCC0 JUMP JUMPDEST PUSH2 0x849 JUMP JUMPDEST PUSH1 0x1 SLOAD PUSH2 0x1F9 SWAP1 PUSH1 0x1 PUSH1 0x1 PUSH1 0xA0 SHL SUB AND DUP2 JUMP JUMPDEST PUSH1 0x40 MLOAD PUSH1 0x1 PUSH1 0x1 PUSH1 0xA0 SHL SUB SWAP1 SWAP2 AND DUP2 MSTORE PUSH1 0x20 ADD PUSH2 0x13F JUMP JUMPDEST PUSH2 0x133 PUSH2 0x21F CALLDATASIZE PUSH1 0x4 PUSH2 0xCD9 JUMP JUMPDEST PUSH2 0x877 JUMP JUMPDEST PUSH0 SLOAD PUSH2 0x1F9 SWAP1 PUSH1 0x1 PUSH1 0x1 PUSH1 0xA0 SHL SUB AND DUP2 JUMP JUMPDEST PUSH2 0x163 PUSH2 0x244 CALLDATASIZE PUSH1 0x4 PUSH2 0xCC0 JUMP JUMPDEST PUSH2 0xA1B JUMP JUMPDEST PUSH2 0x197 PUSH2 0x257 CALLDATASIZE PUSH1 0x4 PUSH2 0xCD9 JUMP JUMPDEST PUSH1 0x5 PUSH1 0x20 SWAP1 DUP2 MSTORE PUSH0 SWAP3 DUP4 MSTORE PUSH1 0x40 DUP1 DUP5 KECCAK256 SWAP1 SWAP2 MSTORE SWAP1 DUP3 MSTORE SWAP1 KECCAK256 SLOAD DUP2 JUMP JUMPDEST PUSH2 0x163 PUSH2 0x281 CALLDATASIZE PUSH1 0x4 PUSH2 0xD3A JUMP JUMPDEST PUSH2 0xAB4 JUMP JUMPDEST PUSH2 0x197 PUSH1 0x4 SLOAD DUP2 JUMP JUMPDEST PUSH2 0x133 PUSH2 0x29D CALLDATASIZE PUSH1 0x4 PUSH2 0xCC0 JUMP JUMPDEST PUSH1 0x2 PUSH1 0x20 MSTORE PUSH0 SWAP1 DUP2 MSTORE PUSH1 0x40 SWAP1 KECCAK256 SLOAD PUSH1 0xFF AND DUP2 JUMP JUMPDEST PUSH2 0x197 PUSH2 0x2BF CALLDATASIZE PUSH1 0x4 PUSH2 0xCC0 JUMP JUMPDEST PUSH2 0xAE3 JUMP JUMPDEST PUSH2 0x133 PUSH2 0x2D2 CALLDATASIZE PUSH1 0x4 PUSH2 0xCD9 JUMP JUMPDEST PUSH2 0xB40 JUMP JUMPDEST PUSH1 0x1 SLOAD PUSH0 SWAP1 PUSH1 0x1 PUSH1 0x1 PUSH1 0xA0 SHL SUB AND CALLER EQ PUSH2 0x30C JUMPI PUSH1 0x40 MLOAD PUSH3 0x461BCD PUSH1 0xE5 SHL DUP2 MSTORE PUSH1 0x4 ADD PUSH2 0x303 SWAP1 PUSH2 0xD51 JUMP JUMPDEST PUSH1 0x40 MLOAD DUP1 SWAP2 SUB SWAP1 REVERT JUMPDEST PUSH1 0x1 PUSH1 0x1 PUSH1 0xA0 SHL SUB DUP3 AND PUSH2 0x362 JUMPI PUSH1 0x40 MLOAD PUSH3 0x461BCD PUSH1 0xE5 SHL DUP2 MSTORE PUSH1 0x20 PUSH1 0x4 DUP3 ADD MSTORE PUSH1 0x1B PUSH1 0x24 DUP3 ADD MSTORE PUSH32 0x496E76616C69642073747564792067726F757020616464726573730000000000 PUSH1 0x44 DUP3 ADD MSTORE PUSH1 0x64 ADD PUSH2 0x303 JUMP JUMPDEST PUSH0 SLOAD PUSH1 0x40 MLOAD PUSH4 0x4C1D96AB PUSH1 0xE1 SHL DUP2 MSTORE PUSH1 0x1 PUSH1 0x1 PUSH1 0xA0 SHL SUB DUP5 DUP2 AND PUSH1 0x4 DUP4 ADD MSTORE SWAP1 SWAP2 AND SWAP1 PUSH4 0x983B2D56 SWAP1 PUSH1 0x24 ADD PUSH0 PUSH1 0x40 MLOAD DUP1 DUP4 SUB DUP2 PUSH0 DUP8 DUP1 EXTCODESIZE ISZERO DUP1 ISZERO PUSH2 0x3A5 JUMPI PUSH0 DUP1 REVERT JUMPDEST POP GAS CALL SWAP3 POP POP POP DUP1 ISZERO PUSH2 0x3B6 JUMPI POP PUSH1 0x1 JUMPDEST PUSH2 0x3C1 JUMPI POP PUSH0 SWAP2 SWAP1 POP JUMP JUMPDEST PUSH1 0x40 MLOAD PUSH1 0x1 PUSH1 0x1 PUSH1 0xA0 SHL SUB DUP4 AND SWAP1 PUSH32 0x8983A1F3C3CB45C24C8226B5B805E3B6EB49686530B808534B2A920129EFF651 SWAP1 PUSH0 SWAP1 LOG2 POP PUSH1 0x1 JUMPDEST SWAP2 SWAP1 POP JUMP JUMPDEST PUSH1 0x1 SLOAD PUSH0 SWAP1 PUSH1 0x1 PUSH1 0x1 PUSH1 0xA0 SHL SUB AND CALLER EQ PUSH2 0x429 JUMPI PUSH1 0x40 MLOAD PUSH3 0x461BCD PUSH1 0xE5 SHL DUP2 MSTORE PUSH1 0x4 ADD PUSH2 0x303 SWAP1 PUSH2 0xD51 JUMP JUMPDEST PUSH0 SLOAD PUSH1 0x40 MLOAD PUSH4 0x4C1D96AB PUSH1 0xE1 SHL DUP2 MSTORE ADDRESS PUSH1 0x4 DUP3 ADD MSTORE PUSH1 0x1 PUSH1 0x1 PUSH1 0xA0 SHL SUB SWAP1 SWAP2 AND SWAP1 PUSH4 0x983B2D56 SWAP1 PUSH1 0x24 ADD PUSH0 PUSH1 0x40 MLOAD DUP1 DUP4 SUB DUP2 PUSH0 DUP8 DUP1 EXTCODESIZE ISZERO DUP1 ISZERO PUSH2 0x46A JUMPI PUSH0 DUP1 REVERT JUMPDEST POP GAS CALL SWAP3 POP POP POP DUP1 ISZERO PUSH2 0x47B JUMPI POP PUSH1 0x1 JUMPDEST PUSH2 0x484 JUMPI POP PUSH0 SWAP1 JUMP JUMPDEST POP PUSH1 0x1 SWAP1 JUMP JUMPDEST PUSH1 0x1 SLOAD PUSH1 0x1 PUSH1 0x1 PUSH1 0xA0 SHL SUB AND CALLER EQ PUSH2 0x4B4 JUMPI PUSH1 0x40 MLOAD PUSH3 0x461BCD PUSH1 0xE5 SHL DUP2 MSTORE PUSH1 0x4 ADD PUSH2 0x303 SWAP1 PUSH2 0xD51 JUMP JUMPDEST PUSH1 0x1 PUSH1 0x1 PUSH1 0xA0 SHL SUB DUP3 AND PUSH2 0x501 JUMPI PUSH1 0x40 MLOAD PUSH3 0x461BCD PUSH1 0xE5 SHL DUP2 MSTORE PUSH1 0x20 PUSH1 0x4 DUP3 ADD MSTORE PUSH1 0x14 PUSH1 0x24 DUP3 ADD MSTORE PUSH20 0x496E76616C696420757365722061646472657373 PUSH1 0x60 SHL PUSH1 0x44 DUP3 ADD MSTORE PUSH1 0x64 ADD PUSH2 0x303 JUMP JUMPDEST PUSH1 0x1 PUSH1 0x1 PUSH1 0xA0 SHL SUB DUP3 AND PUSH0 DUP2 DUP2 MSTORE PUSH1 0x3 PUSH1 0x20 MSTORE PUSH1 0x40 SWAP1 DUP2 SWAP1 KECCAK256 DUP4 SWAP1 SSTORE MLOAD PUSH32 0xC1395320BC4A9778ACF4621C40F54FDDE0FAFA6177D8012972FCA4EC8F7CFA36 SWAP1 PUSH2 0x54D SWAP1 DUP5 DUP2 MSTORE PUSH1 0x20 ADD SWAP1 JUMP JUMPDEST PUSH1 0x40 MLOAD DUP1 SWAP2 SUB SWAP1 LOG2 POP POP JUMP JUMPDEST CALLER PUSH0 SWAP1 DUP2 MSTORE PUSH1 0x2 PUSH1 0x20 MSTORE PUSH1 0x40 DUP2 KECCAK256 SLOAD PUSH1 0xFF AND DUP1 PUSH2 0x580 JUMPI POP PUSH1 0x1 SLOAD PUSH1 0x1 PUSH1 0x1 PUSH1 0xA0 SHL SUB AND CALLER EQ JUMPDEST PUSH2 0x5BD JUMPI PUSH1 0x40 MLOAD PUSH3 0x461BCD PUSH1 0xE5 SHL DUP2 MSTORE PUSH1 0x20 PUSH1 0x4 DUP3 ADD MSTORE PUSH1 0xE PUSH1 0x24 DUP3 ADD MSTORE PUSH14 0x139BDD08185D5D1A1BDC9A5E9959 PUSH1 0x92 SHL PUSH1 0x44 DUP3 ADD MSTORE PUSH1 0x64 ADD PUSH2 0x303 JUMP JUMPDEST DUP4 PUSH1 0x1 PUSH1 0x1 PUSH1 0xA0 SHL SUB AND PUSH32 0x9E7E318D9FDE6F0E5CBB2418A50245C2063CE96946E2711C38E9C2B3127E9B3 DUP4 PUSH1 0x40 MLOAD PUSH2 0x618 SWAP2 DUP2 MSTORE PUSH1 0x40 PUSH1 0x20 DUP3 ADD DUP2 SWAP1 MSTORE PUSH1 0x8 SWAP1 DUP3 ADD MSTORE PUSH8 0x3A3930B739B332B9 PUSH1 0xC1 SHL PUSH1 0x60 DUP3 ADD MSTORE PUSH1 0x80 ADD SWAP1 JUMP JUMPDEST PUSH1 0x40 MLOAD DUP1 SWAP2 SUB SWAP1 LOG2 POP PUSH1 0x1 SWAP4 SWAP3 POP POP POP JUMP JUMPDEST PUSH0 PUSH2 0x638 PUSH3 0x15180 TIMESTAMP PUSH2 0xDA6 JUMP JUMPDEST SWAP1 POP SWAP1 JUMP JUMPDEST PUSH1 0x1 SLOAD PUSH1 0x1 PUSH1 0x1 PUSH1 0xA0 SHL SUB AND CALLER EQ PUSH2 0x667 JUMPI PUSH1 0x40 MLOAD PUSH3 0x461BCD PUSH1 0xE5 SHL DUP2 MSTORE PUSH1 0x4 ADD PUSH2 0x303 SWAP1 PUSH2 0xD51 JUMP JUMPDEST PUSH1 0x1 PUSH1 0x1 PUSH1 0xA0 SHL SUB DUP2 AND PUSH2 0x6BD JUMPI PUSH1 0x40 MLOAD PUSH3 0x461BCD PUSH1 0xE5 SHL DUP2 MSTORE PUSH1 0x20 PUSH1 0x4 DUP3 ADD MSTORE PUSH1 0x18 PUSH1 0x24 DUP3 ADD MSTORE PUSH32 0x496E76616C696420636F6E747261637420616464726573730000000000000000 PUSH1 0x44 DUP3 ADD MSTORE PUSH1 0x64 ADD PUSH2 0x303 JUMP JUMPDEST PUSH1 0x1 PUSH1 0x1 PUSH1 0xA0 SHL SUB DUP2 AND PUSH0 SWAP1 DUP2 MSTORE PUSH1 0x2 PUSH1 0x20 MSTORE PUSH1 0x40 SWAP1 KECCAK256 SLOAD PUSH1 0xFF AND ISZERO PUSH2 0x725 JUMPI PUSH1 0x40 MLOAD PUSH3 0x461BCD PUSH1 0xE5 SHL DUP2 MSTORE PUSH1 0x20 PUSH1 0x4 DUP3 ADD MSTORE PUSH1 0x1B PUSH1 0x24 DUP3 ADD MSTORE PUSH32 0x436F6E747261637420616C726561647920617574686F72697A65640000000000 PUSH1 0x44 DUP3 ADD MSTORE PUSH1 0x64 ADD PUSH2 0x303 JUMP JUMPDEST PUSH1 0x1 PUSH1 0x1 PUSH1 0xA0 SHL SUB DUP2 AND PUSH0 DUP2 DUP2 MSTORE PUSH1 0x2 PUSH1 0x20 MSTORE PUSH1 0x40 DUP1 DUP3 KECCAK256 DUP1 SLOAD PUSH1 0xFF NOT AND PUSH1 0x1 OR SWAP1 SSTORE MLOAD PUSH32 0x8983A1F3C3CB45C24C8226B5B805E3B6EB49686530B808534B2A920129EFF651 SWAP2 SWAP1 LOG2 POP JUMP JUMPDEST PUSH1 0x1 SLOAD PUSH1 0x1 PUSH1 0x1 PUSH1 0xA0 SHL SUB AND CALLER EQ PUSH2 0x79A JUMPI PUSH1 0x40 MLOAD PUSH3 0x461BCD PUSH1 0xE5 SHL DUP2 MSTORE PUSH1 0x4 ADD PUSH2 0x303 SWAP1 PUSH2 0xD51 JUMP JUMPDEST PUSH1 0x1 PUSH1 0x1 PUSH1 0xA0 SHL SUB DUP2 AND PUSH0 SWAP1 DUP2 MSTORE PUSH1 0x2 PUSH1 0x20 MSTORE PUSH1 0x40 SWAP1 KECCAK256 SLOAD PUSH1 0xFF AND PUSH2 0x801 JUMPI PUSH1 0x40 MLOAD PUSH3 0x461BCD PUSH1 0xE5 SHL DUP2 MSTORE PUSH1 0x20 PUSH1 0x4 DUP3 ADD MSTORE PUSH1 0x17 PUSH1 0x24 DUP3 ADD MSTORE PUSH32 0x436F6E7472616374206E6F7420617574686F72697A6564000000000000000000 PUSH1 0x44 DUP3 ADD MSTORE PUSH1 0x64 ADD PUSH2 0x303 JUMP JUMPDEST PUSH1 0x1 PUSH1 0x1 PUSH1 0xA0 SHL SUB DUP2 AND PUSH0 DUP2 DUP2 MSTORE PUSH1 0x2 PUSH1 0x20 MSTORE PUSH1 0x40 DUP1 DUP3 KECCAK256 DUP1 SLOAD PUSH1 0xFF NOT AND SWAP1 SSTORE MLOAD PUSH32 0x54142B7CB3CEAA9E564243CE4CC2303723C842A1144192DE6B3C594F68B16A9A SWAP2 SWAP1 LOG2 POP JUMP JUMPDEST PUSH1 0x1 PUSH1 0x1 PUSH1 0xA0 SHL SUB DUP2 AND PUSH0 SWAP1 DUP2 MSTORE PUSH1 0x3 PUSH1 0x20 MSTORE PUSH1 0x40 DUP2 KECCAK256 SLOAD DUP1 PUSH2 0x86E JUMPI PUSH1 0x4 SLOAD PUSH2 0x870 JUMP JUMPDEST DUP1 JUMPDEST SWAP4 SWAP3 POP POP POP JUMP JUMPDEST CALLER PUSH0 SWAP1 DUP2 MSTORE PUSH1 0x2 PUSH1 0x20 MSTORE PUSH1 0x40 DUP2 KECCAK256 SLOAD PUSH1 0xFF AND DUP1 PUSH2 0x89E JUMPI POP PUSH1 0x1 SLOAD PUSH1 0x1 PUSH1 0x1 PUSH1 0xA0 SHL SUB AND CALLER EQ JUMPDEST PUSH2 0x8DB JUMPI PUSH1 0x40 MLOAD PUSH3 0x461BCD PUSH1 0xE5 SHL DUP2 MSTORE PUSH1 0x20 PUSH1 0x4 DUP3 ADD MSTORE PUSH1 0xE PUSH1 0x24 DUP3 ADD MSTORE PUSH14 0x139BDD08185D5D1A1BDC9A5E9959 PUSH1 0x92 SHL PUSH1 0x44 DUP3 ADD MSTORE PUSH1 0x64 ADD PUSH2 0x303 JUMP JUMPDEST PUSH0 PUSH2 0x8E4 PUSH2 0x62A JUMP JUMPDEST SWAP1 POP PUSH0 PUSH2 0x8F0 DUP6 PUSH2 0x849 JUMP JUMPDEST PUSH1 0x1 PUSH1 0x1 PUSH1 0xA0 SHL SUB DUP7 AND PUSH0 SWAP1 DUP2 MSTORE PUSH1 0x5 PUSH1 0x20 SWAP1 DUP2 MSTORE PUSH1 0x40 DUP1 DUP4 KECCAK256 DUP7 DUP5 MSTORE SWAP1 SWAP2 MSTORE SWAP1 KECCAK256 SLOAD SWAP1 SWAP2 POP DUP2 PUSH2 0x921 DUP7 DUP4 PUSH2 0xDC5 JUMP JUMPDEST GT PUSH2 0x9AF JUMPI PUSH2 0x930 DUP6 DUP3 PUSH2 0xDC5 JUMP JUMPDEST PUSH1 0x1 PUSH1 0x1 PUSH1 0xA0 SHL SUB DUP8 AND PUSH0 DUP2 DUP2 MSTORE PUSH1 0x5 PUSH1 0x20 SWAP1 DUP2 MSTORE PUSH1 0x40 DUP1 DUP4 KECCAK256 DUP9 DUP5 MSTORE DUP3 MSTORE SWAP2 DUP3 SWAP1 KECCAK256 SWAP4 SWAP1 SWAP4 SSTORE DUP1 MLOAD DUP9 DUP2 MSTORE SWAP3 DUP4 ADD DUP2 SWAP1 MSTORE PUSH1 0x4 SWAP1 DUP4 ADD MSTORE PUSH4 0x1B5A5B9D PUSH1 0xE2 SHL PUSH1 0x60 DUP4 ADD MSTORE SWAP1 PUSH32 0x9E7E318D9FDE6F0E5CBB2418A50245C2063CE96946E2711C38E9C2B3127E9B3 SWAP1 PUSH1 0x80 ADD PUSH1 0x40 MLOAD DUP1 SWAP2 SUB SWAP1 LOG2 PUSH1 0x1 SWAP4 POP POP POP POP PUSH2 0xA15 JUMP JUMPDEST DUP6 PUSH1 0x1 PUSH1 0x1 PUSH1 0xA0 SHL SUB AND PUSH32 0x36E690C5F80DA3F9DA10E957F42FAC89E3FDE772861FFE24E95169AEDDA4E8BF DUP7 PUSH1 0x40 MLOAD PUSH2 0xA06 SWAP2 DUP2 MSTORE PUSH1 0x40 PUSH1 0x20 DUP3 ADD DUP2 SWAP1 MSTORE PUSH1 0x4 SWAP1 DUP3 ADD MSTORE PUSH4 0x1B5A5B9D PUSH1 0xE2 SHL PUSH1 0x60 DUP3 ADD MSTORE PUSH1 0x80 ADD SWAP1 JUMP JUMPDEST PUSH1 0x40 MLOAD DUP1 SWAP2 SUB SWAP1 LOG2 PUSH0 SWAP4 POP POP POP POP JUMPDEST SWAP3 SWAP2 POP POP JUMP JUMPDEST PUSH1 0x1 SLOAD PUSH1 0x1 PUSH1 0x1 PUSH1 0xA0 SHL SUB AND CALLER EQ PUSH2 0xA45 JUMPI PUSH1 0x40 MLOAD PUSH3 0x461BCD PUSH1 0xE5 SHL DUP2 MSTORE PUSH1 0x4 ADD PUSH2 0x303 SWAP1 PUSH2 0xD51 JUMP JUMPDEST PUSH1 0x1 PUSH1 0x1 PUSH1 0xA0 SHL SUB DUP2 AND PUSH2 0xA93 JUMPI PUSH1 0x40 MLOAD PUSH3 0x461BCD PUSH1 0xE5 SHL DUP2 MSTORE PUSH1 0x20 PUSH1 0x4 DUP3 ADD MSTORE PUSH1 0x15 PUSH1 0x24 DUP3 ADD MSTORE PUSH21 0x496E76616C696420746F6B656E2061646472657373 PUSH1 0x58 SHL PUSH1 0x44 DUP3 ADD MSTORE PUSH1 0x64 ADD PUSH2 0x303 JUMP JUMPDEST PUSH0 DUP1 SLOAD PUSH1 0x1 PUSH1 0x1 PUSH1 0xA0 SHL SUB NOT AND PUSH1 0x1 PUSH1 0x1 PUSH1 0xA0 SHL SUB SWAP3 SWAP1 SWAP3 AND SWAP2 SWAP1 SWAP2 OR SWAP1 SSTORE JUMP JUMPDEST PUSH1 0x1 SLOAD PUSH1 0x1 PUSH1 0x1 PUSH1 0xA0 SHL SUB AND CALLER EQ PUSH2 0xADE JUMPI PUSH1 0x40 MLOAD PUSH3 0x461BCD PUSH1 0xE5 SHL DUP2 MSTORE PUSH1 0x4 ADD PUSH2 0x303 SWAP1 PUSH2 0xD51 JUMP JUMPDEST PUSH1 0x4 SSTORE JUMP JUMPDEST PUSH0 DUP1 PUSH2 0xAED PUSH2 0x62A JUMP JUMPDEST PUSH1 0x1 PUSH1 0x1 PUSH1 0xA0 SHL SUB DUP5 AND PUSH0 SWAP1 DUP2 MSTORE PUSH1 0x5 PUSH1 0x20 SWAP1 DUP2 MSTORE PUSH1 0x40 DUP1 DUP4 KECCAK256 DUP5 DUP5 MSTORE SWAP1 SWAP2 MSTORE DUP2 KECCAK256 SLOAD SWAP2 SWAP3 POP PUSH2 0xB1C DUP6 PUSH2 0x849 JUMP JUMPDEST SWAP1 POP DUP1 DUP3 LT ISZERO PUSH2 0xB35 JUMPI PUSH2 0xB30 DUP3 DUP3 PUSH2 0xDD8 JUMP JUMPDEST PUSH2 0xB37 JUMP JUMPDEST PUSH0 JUMPDEST SWAP6 SWAP5 POP POP POP POP POP JUMP JUMPDEST PUSH1 0x1 SLOAD PUSH0 SWAP1 PUSH1 0x1 PUSH1 0x1 PUSH1 0xA0 SHL SUB AND CALLER EQ PUSH2 0xB6C JUMPI PUSH1 0x40 MLOAD PUSH3 0x461BCD PUSH1 0xE5 SHL DUP2 MSTORE PUSH1 0x4 ADD PUSH2 0x303 SWAP1 PUSH2 0xD51 JUMP JUMPDEST PUSH0 SLOAD PUSH1 0x40 MLOAD PUSH4 0x4D248487 PUSH1 0xE1 SHL DUP2 MSTORE PUSH1 0x1 PUSH1 0x1 PUSH1 0xA0 SHL SUB DUP6 DUP2 AND PUSH1 0x4 DUP4 ADD MSTORE PUSH1 0x24 DUP3 ADD DUP6 SWAP1 MSTORE SWAP1 SWAP2 AND SWAP1 PUSH4 0x9A49090E SWAP1 PUSH1 0x44 ADD PUSH0 PUSH1 0x40 MLOAD DUP1 DUP4 SUB DUP2 PUSH0 DUP8 DUP1 EXTCODESIZE ISZERO DUP1 ISZERO PUSH2 0xBB6 JUMPI PUSH0 DUP1 REVERT JUMPDEST POP GAS CALL SWAP3 POP POP POP DUP1 ISZERO PUSH2 0xBC7 JUMPI POP PUSH1 0x1 JUMPDEST PUSH2 0xC3A JUMPI DUP3 PUSH1 0x1 PUSH1 0x1 PUSH1 0xA0 SHL SUB AND PUSH32 0x36E690C5F80DA3F9DA10E957F42FAC89E3FDE772861FFE24E95169AEDDA4E8BF DUP4 PUSH1 0x40 MLOAD PUSH2 0xC2B SWAP2 DUP2 MSTORE PUSH1 0x40 PUSH1 0x20 DUP3 ADD DUP2 SWAP1 MSTORE PUSH1 0xD SWAP1 DUP3 ADD MSTORE PUSH13 0x185D5D1A1BDC9A5D1E535A5B9D PUSH1 0x9A SHL PUSH1 0x60 DUP3 ADD MSTORE PUSH1 0x80 ADD SWAP1 JUMP JUMPDEST PUSH1 0x40 MLOAD DUP1 SWAP2 SUB SWAP1 LOG2 POP PUSH0 PUSH2 0xA15 JUMP JUMPDEST DUP3 PUSH1 0x1 PUSH1 0x1 PUSH1 0xA0 SHL SUB AND PUSH32 0x9E7E318D9FDE6F0E5CBB2418A50245C2063CE96946E2711C38E9C2B3127E9B3 DUP4 PUSH1 0x40 MLOAD PUSH2 0xC9A SWAP2 DUP2 MSTORE PUSH1 0x40 PUSH1 0x20 DUP3 ADD DUP2 SWAP1 MSTORE PUSH1 0xD SWAP1 DUP3 ADD MSTORE PUSH13 0x185D5D1A1BDC9A5D1E535A5B9D PUSH1 0x9A SHL PUSH1 0x60 DUP3 ADD MSTORE PUSH1 0x80 ADD SWAP1 JUMP JUMPDEST PUSH1 0x40 MLOAD DUP1 SWAP2 SUB SWAP1 LOG2 POP PUSH1 0x1 PUSH2 0xA15 JUMP JUMPDEST DUP1 CALLDATALOAD PUSH1 0x1 PUSH1 0x1 PUSH1 0xA0 SHL SUB DUP2 AND DUP2 EQ PUSH2 0x3F8 JUMPI PUSH0 DUP1 REVERT JUMPDEST PUSH0 PUSH1 0x20 DUP3 DUP5 SUB SLT ISZERO PUSH2 0xCD0 JUMPI PUSH0 DUP1 REVERT JUMPDEST PUSH2 0x870 DUP3 PUSH2 0xCAA JUMP JUMPDEST PUSH0 DUP1 PUSH1 0x40 DUP4 DUP6 SUB SLT ISZERO PUSH2 0xCEA JUMPI PUSH0 DUP1 REVERT JUMPDEST PUSH2 0xCF3 DUP4 PUSH2 0xCAA JUMP JUMPDEST SWAP5 PUSH1 0x20 SWAP4 SWAP1 SWAP4 ADD CALLDATALOAD SWAP4 POP POP POP JUMP JUMPDEST PUSH0 DUP1 PUSH0 PUSH1 0x60 DUP5 DUP7 SUB SLT ISZERO PUSH2 0xD13 JUMPI PUSH0 DUP1 REVERT JUMPDEST PUSH2 0xD1C DUP5 PUSH2 0xCAA JUMP JUMPDEST SWAP3 POP PUSH2 0xD2A PUSH1 0x20 DUP6 ADD PUSH2 0xCAA JUMP JUMPDEST SWAP2 POP PUSH1 0x40 DUP5 ADD CALLDATALOAD SWAP1 POP SWAP3 POP SWAP3 POP SWAP3 JUMP JUMPDEST PUSH0 PUSH1 0x20 DUP3 DUP5 SUB SLT ISZERO PUSH2 0xD4A JUMPI PUSH0 DUP1 REVERT JUMPDEST POP CALLDATALOAD SWAP2 SWAP1 POP JUMP JUMPDEST PUSH1 0x20 DUP1 DUP3 MSTORE PUSH1 0x21 SWAP1 DUP3 ADD MSTORE PUSH32 0x4F6E6C79206F776E65722063616E2063616C6C20746869732066756E6374696F PUSH1 0x40 DUP3 ADD MSTORE PUSH1 0x37 PUSH1 0xF9 SHL PUSH1 0x60 DUP3 ADD MSTORE PUSH1 0x80 ADD SWAP1 JUMP JUMPDEST PUSH4 0x4E487B71 PUSH1 0xE0 SHL PUSH0 MSTORE PUSH1 0x11 PUSH1 0x4 MSTORE PUSH1 0x24 PUSH0 REVERT JUMPDEST PUSH0 DUP3 PUSH2 0xDC0 JUMPI PUSH4 0x4E487B71 PUSH1 0xE0 SHL PUSH0 MSTORE PUSH1 0x12 PUSH1 0x4 MSTORE PUSH1 0x24 PUSH0 REVERT JUMPDEST POP DIV SWAP1 JUMP JUMPDEST DUP1 DUP3 ADD DUP1 DUP3 GT ISZERO PUSH2 0xA15 JUMPI PUSH2 0xA15 PUSH2 0xD92 JUMP JUMPDEST DUP2 DUP2 SUB DUP2 DUP2 GT ISZERO PUSH2 0xA15 JUMPI PUSH2 0xA15 PUSH2 0xD92 JUMP INVALID LOG2 PUSH5 0x6970667358 0x22 SLT KECCAK256 CALLDATASIZE PUSH32 0xAA81006EB8EC7B0C7DDC297BA351C354280CA61D61D282683A9493A679F86473 PUSH16 0x6C634300081800330000000000000000 "
				},
				"gasEstimates": {
					"creation": {
						"codeDepositCost": "723400",
						"executionCost": "infinite",
						"totalCost": "infinite"
					},
					"external": {
						"authorizeContract(address)": "30206",
						"authorizeMint(address,uint256)": "infinite",
						"authorizeStudyGroupAsMinter(address)": "infinite",
						"authorizeTransfer(address,address,uint256)": "infinite",
						"authorizedContracts(address)": "2583",
						"deauthorizeContract(address)": "30184",
						"defaultDailyLimit()": "2338",
						"getCurrentDay()": "313",
						"getRemainingDailyLimit(address)": "infinite",
						"getUserDailyLimit(address)": "infinite",
						"mintTokens(address,uint256)": "infinite",
						"owner()": "2359",
						"requestMinterRole()": "infinite",
						"setDefaultDailyLimit(uint256)": "24484",
						"setStudyToken(address)": "26832",
						"setUserDailyLimit(address,uint256)": "26216",
						"studyToken()": "2402",
						"userDailyLimits(address)": "2539",
						"userDailyUsage(address,uint256)": "2720"
					}
				},
				"methodIdentifiers": {
					"authorizeContract(address)": "67561d93",
					"authorizeMint(address,uint256)": "9b32ea6d",
					"authorizeStudyGroupAsMinter(address)": "0a0d6de1",
					"authorizeTransfer(address,address,uint256)": "32a34ad0",
					"authorizedContracts(address)": "d5b9221b",
					"deauthorizeContract(address)": "6e861c0e",
					"defaultDailyLimit()": "c76b0888",
					"getCurrentDay()": "3e6968b6",
					"getRemainingDailyLimit(address)": "ec37d259",
					"getUserDailyLimit(address)": "77865f91",
					"mintTokens(address,uint256)": "f0dda65c",
					"owner()": "8da5cb5b",
					"requestMinterRole()": "113018c5",
					"setDefaultDailyLimit(uint256)": "bebbcfe6",
					"setStudyToken(address)": "b09a8a04",
					"setUserDailyLimit(address,uint256)": "177c49a7",
					"studyToken()": "a7481b5b",
					"userDailyLimits(address)": "360cf54a",
					"userDailyUsage(address,uint256)": "b6fa284d"
				}
			},
			"storageLayout": {
				"storage": [
					{
						"astId": 1083,
						"contract": "contracts/StudyTokenAuthority.sol:StudyTokenAuthority",
						"label": "studyToken",
						"offset": 0,
						"slot": "0",
						"type": "t_contract(StudyToken)1076"
					},
					{
						"astId": 1085,
						"contract": "contracts/StudyTokenAuthority.sol:StudyTokenAuthority",
						"label": "owner",
						"offset": 0,
						"slot": "1",
						"type": "t_address"
					},
					{
						"astId": 1089,
						"contract": "contracts/StudyTokenAuthority.sol:StudyTokenAuthority",
						"label": "authorizedContracts",
						"offset": 0,
						"slot": "2",
						"type": "t_mapping(t_address,t_bool)"
					},
					{
						"astId": 1093,
						"contract": "contracts/StudyTokenAuthority.sol:StudyTokenAuthority",
						"label": "userDailyLimits",
						"offset": 0,
						"slot": "3",
						"type": "t_mapping(t_address,t_uint256)"
					},
					{
						"astId": 1095,
						"contract": "contracts/StudyTokenAuthority.sol:StudyTokenAuthority",
						"label": "defaultDailyLimit",
						"offset": 0,
						"slot": "4",
						"type": "t_uint256"
					},
					{
						"astId": 1101,
						"contract": "contracts/StudyTokenAuthority.sol:StudyTokenAuthority",
						"label": "userDailyUsage",
						"offset": 0,
						"slot": "5",
						"type": "t_mapping(t_address,t_mapping(t_uint256,t_uint256))"
					}
				],
				"types": {
					"t_address": {
						"encoding": "inplace",
						"label": "address",
						"numberOfBytes": "20"
					},
					"t_bool": {
						"encoding": "inplace",
						"label": "bool",
						"numberOfBytes": "1"
					},
					"t_contract(StudyToken)1076": {
						"encoding": "inplace",
						"label": "contract StudyToken",
						"numberOfBytes": "20"
					},
					"t_mapping(t_address,t_bool)": {
						"encoding": "mapping",
						"key": "t_address",
						"label": "mapping(address => bool)",
						"numberOfBytes": "32",
						"value": "t_bool"
					},
					"t_mapping(t_address,t_mapping(t_uint256,t_uint256))": {
						"encoding": "mapping",
						"key": "t_address",
						"label": "mapping(address => mapping(uint256 => uint256))",
						"numberOfBytes": "32",
						"value": "t_mapping(t_uint256,t_uint256)"
					},
					"t_mapping(t_address,t_uint256)": {
						"encoding": "mapping",
						"key": "t_address",
						"label": "mapping(address => uint256)",
						"numberOfBytes": "32",
						"value": "t_uint256"
					},
					"t_mapping(t_uint256,t_uint256)": {
						"encoding": "mapping",
						"key": "t_uint256",
						"label": "mapping(uint256 => uint256)",
						"numberOfBytes": "32",
						"value": "t_uint256"
					},
					"t_uint256": {
						"encoding": "inplace",
						"label": "uint256",
						"numberOfBytes": "32"
					}
				}
			},
			"userdoc": {
				"kind": "user",
				"methods": {},
				"version": 1
			}
		}
	}
}