{
	"data": {
		"bytecode": {
			"linkReferences": {},
			"object": "608034620004325762002dd2906001600160401b0390601f19601f38859003818101831684019085821185831017620003345780859160409889948552833981010312620004325782516001600160a01b039485821692918390036200043257602080950151956200007062000436565b91600a83526929ba3ab23caa37b5b2b760b11b878401526200009162000436565b60059485825264535455445960d81b89830152845191838311620003345760039283546001978882811c9216801562000427575b8d83101462000413578c8286859411620003bf575b50508c9085831160011462000354575f9262000348575b50505f1982861b1c191690871b1783555b8051938411620003345760049889548781811c9116801562000329575b8c8210146200031657908b8285889796959411620002bc575b50508b9285116001146200025857505f936200024c575b505082851b925f19911b1c19161785555b331562000236578254336001600160a01b0319808316821790955591167f8be0079c531659141344cd1fd0a4f28419497f9722a3daafe3b4186f6b6457e05f80a3600c556006541617600655670de0b6b3a7640000928381029381850414901517156200022357600254908382018092116200022357505f917fddf252ad1be2c89b69c2b068fc378daa952ba7f163c4a11628f55a4df523b3ef9160025533835282815284832084815401905584519384523393a35161297b9081620004578239f35b601190634e487b7160e01b5f525260245ffd5b8751631e4fbdf760e01b81525f81870152602490fd5b015191505f806200014f565b87959392919316928a5f528b5f20935f5b8d828210620002a557505085116200028b575b50505050811b01855562000160565b01519060f8845f19921b161c191690555f8080806200027c565b8385015187558a9890960195938401930162000269565b909192939495508b5f5284825f20918189018c1c83019389106200030c575b918a9189989796959493018c1c01915b828110620002fd57508d915062000138565b5f81558897508a9101620002eb565b92508192620002db565b60228b634e487b7160e01b5f525260245ffd5b90607f16906200011f565b634e487b7160e01b5f52604160045260245ffd5b015190505f80620000f1565b908d918d8b9516885f52835f20935f905b8282106200039d575050841162000385575b505050811b01835562000102565b01515f1983881b60f8161c191690555f808062000377565b91929395968291958786015181550195019301908f918c969594939262000365565b90919250865f5285825f20918186018d1c830193861062000409575b918b9186959493018d1c01915b828110620003fa57508e9150620000da565b5f81558594508b9101620003e8565b92508192620003db565b634e487b7160e01b5f52602260045260245ffd5b91607f1691620000c5565b5f80fd5b60408051919082016001600160401b03811183821017620003345760405256fe6080806040526004361015610012575f80fd5b5f3560e01c90816306fdde031461207b5750806308ae4b0c14612012578063095ea7b314611f90578063136d888314611f4c57806318160ddd14611f2f5780631a0c750c14611d2857806323b872dd14611c3e5780632ada259614611b82578063313ce56714611b6757806336cc813014611ab557806347ec71a814611a9857806349c9436c146119735780634ba1cfe41461194b5780635eda7a761461192e57806370a08231146118f7578063715018a61461189c5780637472a2e6146111e257806376e92559146111c55780638955dcba146111945780638da5cb5b1461116c578063909dd2631461110b578063940b7c7614610f5357806395d89b4114610e715780639976fb2a14610dd7578063a9059cbb14610da6578063b056c4e614610d67578063c6f6a74914610d1f578063cb1fb49014610c72578063d213d86b14610c2f578063d40bcae814610bf6578063db2e21bc14610bb2578063dd62ed3e14610b65578063e1da779014610a50578063e82b0c911461069d578063f003a104146105fb578063f2fde38b1461056f5763fd29ea7e146101b3575f80fd5b3461056b57606036600319011261056b576004356001600160401b03811161056b576101e390369060040161226c565b6024356001600160401b03811161056b5761020290369060040161226c565b600c549061020f826123a6565b600c556040519061021f826121c4565b83825260208201526044356040820152336060820152600160808201525f60a08201525f60c0820152815f52600a60205260405f209080518051906001600160401b03821161049757819061027485546122b7565b601f811161051e575b50602090601f83116001146104b6575f926104ab575b50508160011b915f199060031b1c19161782555b60208101518051906001600160401b038211610497576102ca60018501546122b7565b601f811161044f575b5091849391602096938790601f83116001146103b7577fbe19bf7d0822f6bb03fc825b9ef5d8b07a9820a9c94a91826d51cd705f28744d95938361039c969460059460c0945f926103ac575b50508160011b915f199060031b1c19161760018501555b604081015160028501556003840160018060a01b0360608301511681549060ff60a01b6080850151151560a01b16916affffffffffffffffffffff60a81b161717905560a081015160048501550151910155604051918291604083526040830190612142565b33878301520390a2604051908152f35b015190505f8061031f565b90600185015f52885f20915f5b601f198516811061043557509360018460059460c0947fbe19bf7d0822f6bb03fc825b9ef5d8b07a9820a9c94a91826d51cd705f28744d9a9861039c9a98601f1981161061041d575b505050811b016001850155610336565b01515f1960f88460031b161c191690555f808061040d565b818301518455899850600190930192918a01918a016103c4565b600185015f5260205f20601f840160051c8101916020851061048d575b601f0160051c01905b81811061048257506102d3565b5f8155600101610475565b909150819061046c565b634e487b7160e01b5f52604160045260245ffd5b015190505f80610293565b9250845f5260205f20905f935b601f1984168510610503576001945083601f198116106104eb575b505050811b0182556102a7565b01515f1960f88460031b161c191690555f80806104de565b818101518355602094850194600190930192909101906104c3565b909150845f5260205f20601f840160051c810160208510610564575b90849392915b601f830160051c8201811061055657505061027d565b5f8155859450600101610540565b508061053a565b5f80fd5b3461056b57602036600319011261056b57610588612167565b610590612741565b6001600160a01b039081169081156105e357600554826bffffffffffffffffffffffff60a01b821617600555167f8be0079c531659141344cd1fd0a4f28419497f9722a3daafe3b4186f6b6457e05f80a3005b604051631e4fbdf760e01b81525f6004820152602490fd5b3461056b57602036600319011261056b576004355f52600a60205261066260405f20610626816122ef565b90610633600182016122ef565b60028201549160ff6003820154610670600560048501549401549460405198899860e08a5260e08a0190612142565b9088820360208a0152612142565b94604087015260018060a01b038116606087015260a01c161515608085015260a084015260c08301520390f35b3461056b57604036600319011261056b57602480356001600160401b0380821161056b573660238301121561056b578082600401351161056b57368383600401358401011161056b57335f5260086020526106fe60ff60405f2054166125fc565b335f52600860205260405f2090600435151580610a42575b15610a0b57600382015461038481018091116109f8574211156109b45760405161073f816121a9565b4281526020810191600435835261075d368660040135888801612236565b604083019081525f60608401525f6080840152335f52600960205260405f208054600160401b8110156109a1576107999160018201815561228a565b94909461098f578351855551600185015551805191821161097c576107c160028501546122b7565b601f8111610938575b50602090601f83116001146108a2577ff6523b008a2a74ea8c2a42a8ca445c853182d75674c4d17ab18248cc61f4b1999593836004969487946080945f92610897575b50508160011b915f199060031b1c19161760028501555b61084360608201511515600386019060ff801983541691151516179055565b0151910155426003820155015460408051600480358252602082018390528501359181018290529194840160608301375f60608460040135830101526060813394601f8019916004013501168101030190a3005b015190508b8061080d565b90600285015f5260205f20915f5b601f198516811061092057509360018460049795946080947ff6523b008a2a74ea8c2a42a8ca445c853182d75674c4d17ab18248cc61f4b1999a988a97601f19811610610908575b505050811b016002850155610824565b01515f1960f88460031b161c191690558b80806108f8565b919260206001819286850151815501940192016108b0565b600285015f5260205f20601f840160051c810160208510610975575b601f830160051c8201811061096a5750506107ca565b5f8155600101610954565b5080610954565b86634e487b7160e01b5f5260416004525ffd5b87634e487b7160e01b5f525f6004525ffd5b88634e487b7160e01b5f5260416004525ffd5b60405162461bcd60e51b8152602060048201526018818601527f546f6f20736f6f6e20666f72206e65772073657373696f6e00000000000000006044820152606490fd5b84634e487b7160e01b5f5260116004525ffd5b60405162461bcd60e51b8152602060048201526010818601526f24b73b30b634b210323ab930ba34b7b760811b6044820152606490fd5b506102d06004351115610716565b3461056b5760208060031936011261056b576001600160a01b03610a72612167565b165f526009815260405f2090815491610a8a83612487565b92610a9860405194856121fa565b80845282840180925f52835f205f915b838310610b425750505050604051918083019381845251809452604083019360408160051b85010192915f955b828710610ae25785850386f35b909192938280600192603f19898203018552875190610b1c60a0835183528484015185840152604084015190806040850152830190612142565b916060808201511515908301526080809101519101529601920196019592919092610ad5565b600586600192610b54859a999a61250e565b815201920192019190959495610aa8565b3461056b57604036600319011261056b57610b7e612167565b610b8661217d565b9060018060a01b038091165f52600160205260405f2091165f52602052602060405f2054604051908152f35b3461056b575f36600319011261056b57610bca612741565b305f525f60205260405f205480610bdd57005b600554610bf491906001600160a01b031630612667565b005b3461056b57602036600319011261056b57610c0f612741565b6004355f908152600a60205260409020600301805460ff60a01b19169055005b3461056b57602036600319011261056b57610c48612167565b610c50612741565b600680546001600160a01b0319166001600160a01b0392909216919091179055005b3461056b575f36600319011261056b57335f526008602052610c9a60ff60405f2054166125fc565b335f52600860205260405f206004810154905f6002820180549260ff19815416905555815f52600a602052600460405f2001610cd6815461265b565b9055610ce3600d5461265b565b600d55610cf1813330612667565b6040519081527f9fe2549e029dc601c32d2b99a63bb5d8790e62936ae6dfd93013cbae2a3f2e1e60203392a3005b3461056b57610d2d36612193565b905f52600b60205260405f20805482101561056b57602091610d4e91612391565b905460405160039290921b1c6001600160a01b03168152f35b3461056b57602036600319011261056b57610d80612741565b6004355f908152600a60205260409020600301805460ff60a01b1916600160a01b179055005b3461056b57604036600319011261056b57610dcc610dc2612167565b6024359033612667565b602060405160018152f35b3461056b57604036600319011261056b57610df0612167565b6001600160a01b03165f90815260096020526040902080546024359081101561056b57610e1c9161228a565b508054600182015491610e31600282016122ef565b610e60600460ff600385015416930154916040519586958652602086015260a0604086015260a0850190612142565b911515606084015260808301520390f35b3461056b575f36600319011261056b576040516004545f82610e92836122b7565b91828252602093600190856001821691825f14610f33575050600114610ed8575b50610ec0925003836121fa565b610ed4604051928284938452830190612142565b0390f35b84915060045f527f8a35acfbc15ff81a39ae7d344fd709f28e8600b4aa8c65c6b64bfe7fe36bd19b905f915b858310610f1b575050610ec0935082010185610eb3565b80548389018501528794508693909201918101610f04565b60ff191685820152610ec095151560051b8501019250879150610eb39050565b3461056b57604036600319011261056b57610f6c612167565b6024359060018060a01b0380821692835f5260209260088452600460405f20015492835f52600a8552600360405f2001541633036110c657845f5260088452610fbb60ff60405f2054166123b4565b845f5260098452610fd160405f205483106123f7565b845f5260098452610fe58260405f2061228a565b50926003840160018154610ffc60ff82161561243b565b60ff191617905560018401908154875f5260088752611023600160405f2001918254612501565b90558154905f52600a8652611040600560405f2001918254612501565b905561104f8154600e54612501565b600e555493670de0b6b3a7640000948581029581870414901517156110b2576110a7604094600493600a7f63863815b4dcf3c8acaeee732c56dfc0972a7da5a49f45ef55463f47234eee76980480958193015561279e565b8351928352820152a2005b634e487b7160e01b5f52601160045260245ffd5b60405162461bcd60e51b815260048101859052601b60248201527f4f6e6c792067726f75702061646d696e2063616e2076657269667900000000006044820152606490fd5b3461056b57602036600319011261056b576004356001600160401b03811161056b5760ff61115660206111438194369060040161226c565b8160405193828580945193849201612121565b8101600781520301902054166040519015158152f35b3461056b575f36600319011261056b576005546040516001600160a01b039091168152602090f35b3461056b57602036600319011261056b5760406111b76111b2612167565b612556565b825191151582526020820152f35b3461056b575f36600319011261056b576020600d54604051908152f35b3461056b5760031960603682011261056b57600435906001600160401b03821161056b57606090823603011261056b576040519061121f826121df565b80600401356001600160401b03811161056b57611242906004369184010161226c565b825260248101356001600160401b03811161056b57611267906004369184010161226c565b60208301526044810135906001600160401b03821161056b57600461128f923692010161226c565b604082015261129c61217d565b604080516001600160a01b0383166020820152604435818301529081529091906112c5816121df565b8151805181019060a0816020840193031261056b5760208101516001600160401b03811161056b578260206112fc928401016124d3565b926040820151926060830151906001600160401b03821161056b576020611325928501016124d3565b9060a060808401519301519384159485150361056b578461185e5761137961138296602089015160405161137181611363602082019433908661276d565b03601f1981018352826121fa565b5190206127fb565b90979197612835565b6006546001600160a01b03908116961686900361180a578060408801516040516113b681611363602082019433908661276d565b519020926020815191012092036117c55761140c9461140394604051926020840194855260408401523360601b606084015260748301521560f81b609482015260758152611371816121a9565b90929192612835565b6001600160a01b031603611774576001600160a01b0382165f9081526008602052604090205461143e9060ff166123b4565b6001600160a01b0382165f9081526009602052604090205461146390604435106123f7565b60018060a01b0382165f52600960205261148260443560405f2061228a565b5090602060038301549161149960ff84161561243b565b0151918251830160208482031261056b5760208401516001600160401b03811161056b5760208201603f82870101121561056b5760208186010151906114de82612487565b956114ec60405197886121fa565b82875260208701916020850160408560051b83850101011161056b57604081830101925b60408560051b838501010184106116c3575050505050506064925f5b81518110156116b85761063961154282846124ed565b5151146115515760010161152c565b602092939450611560916124ed565b51015160208180518101031261056b576020015160ff8116810361056b57600190925b60ff191617600382015560018101805460018060a01b0385165f5260086020526115b5600160405f2001918254612501565b9055805460018060a01b0385165f526008602052600460405f2001545f52600a6020526115ea600560405f2001918254612501565b90556115f98154600e54612501565b600e5554670de0b6b3a7640000908181029181830414901517156110b257600a60ff9104921692838302928084048514901517156110b257600460209260647fdd1cbe89677c9a7f6426fad5c7f38a5be9608b18e42cde90c1d60b264526ae899504918291015561166a818361279e565b604051906044358252838201527f63863815b4dcf3c8acaeee732c56dfc0972a7da5a49f45ef55463f47234eee76604060018060a01b03841692a26040519384526001600160a01b031692a2005b505090600190611583565b83516001600160401b03811161056b57838301016060818803601f19011261056b57604051906116f2826121df565b6040810151825260608101516001600160401b03811161056b5761171f90604060208b01918401016124d3565b60208301526080810151906001600160401b03821161056b570160208801605f8201121561056b576040926020926117638493848c0190606088820151910161249e565b858201528152019401939050611510565b60405162461bcd60e51b815260206004820152602360248201527f496e76616c6964207369676e617475726520666f722066756e6374696f6e2063604482015262185b1b60ea1b6064820152608490fd5b60405162461bcd60e51b815260206004820152601c60248201527f496e76616c6964206b65726e656c20706172616d7320646967657374000000006044820152606490fd5b60405162461bcd60e51b815260206004820152602660248201527f496e76616c6964207369676e617475726520666f72206b65726e656c20726573604482015265706f6e73657360d01b6064820152608490fd5b60405162461bcd60e51b8152602060048201526016602482015275119a5b985b081bdc1a5b9a5bdb881c995d995c9d195960521b6044820152606490fd5b3461056b575f36600319011261056b576118b4612741565b600580546001600160a01b031981169091555f906001600160a01b03167f8be0079c531659141344cd1fd0a4f28419497f9722a3daafe3b4186f6b6457e08280a3005b3461056b57602036600319011261056b576001600160a01b03611918612167565b165f525f602052602060405f2054604051908152f35b3461056b575f36600319011261056b576020600c54604051908152f35b3461056b575f36600319011261056b576006546040516001600160a01b039091168152602090f35b3461056b5760208060031936011261056b5760e0905f60c0604051611997816121c4565b606081526060848201528260408201528260608201528260808201528260a082015201526004355f52600a815260405f20604051916119d5836121c4565b6119de826122ef565b83526119ec600183016122ef565b918184019283526002810154926040850193845260038201549060018060a01b0390611a726060880191838516835260ff60808a019560a01c1615158552611a5f600560048801549760a08c0198895201549760c08b019889526040519b8c9b828d5251918c01526101008b0190612142565b9051898203601f190160408b0152612142565b955160608801525116608086015251151560a08501525160c08401525160e08301520390f35b3461056b575f36600319011261056b576020600e54604051908152f35b3461056b5760208060031936011261056b576004355f52600b815260405f20604051908183825491828152019081925f52845f20905f5b86828210611b4a578686611b02828803836121fa565b60405192839281840190828552518091526040840192915f5b828110611b2a57505050500390f35b83516001600160a01b031685528695509381019392810192600101611b1b565b83546001600160a01b031685529093019260019283019201611aec565b3461056b575f36600319011261056b57602060405160128152f35b3461056b57602036600319011261056b57611b9b612167565b5f6080604051611baa816121a9565b828152826020820152826040820152826060820152015260018060a01b03165f52600860205260a060405f20604051611be2816121a9565b60ff82541615159182825260018101546020830190815260028201549060408401918252608060046003850154946060870195865201549401938452604051948552516020850152516040840152516060830152516080820152f35b3461056b57606036600319011261056b57611c57612167565b611c5f61217d565b6001600160a01b0382165f8181526001602090815260408083203384529091529020549260443592915f198510611c9c575b50610dcc9350612667565b838510611d02578015611cea573315611cd257610dcc9484915f52600160205260405f20335f526020520360405f205584611c91565b604051634a1406b160e11b81525f6004820152602490fd5b60405163e602df0560e01b81525f6004820152602490fd5b604051637dc7a0d960e11b81523360048201526024810186905260448101859052606490fd5b3461056b57611d3636612193565b815f526020600a815260ff600360405f20015460a01c1615611ef857335f526008815260ff60405f205416611ec157825f52600a8152600260405f2001548210611e8657611d85823033612667565b604051611d91816121a9565b6001815260048282015f81526040830185815260608401905f82526080850192888452335f5260088752611dd860405f2096511515879060ff801983541691151516179055565b51600186015551600285015551600384015551910155825f52600b815260405f2090815491600160401b8310156104975782611e3a9160017fab585a62abffb5c5f3221cacd949f94b54770198cc25af3ad1d315e51be8e3e395018155612391565b81549060031b9033821b9160018060a01b03901b1916179055835f52600a8152600460405f2001611e6b81546123a6565b9055611e78600d546123a6565b600d556040519283523392a3005b6064906040519062461bcd60e51b8252600482015260146024820152735374616b6520616d6f756e7420746f6f206c6f7760601b6044820152fd5b6064906040519062461bcd60e51b82526004820152601060248201526f20b63932b0b23c90309036b2b6b132b960811b6044820152fd5b6064906040519062461bcd60e51b82526004820152601060248201526f47726f7570206e6f742061637469766560801b6044820152fd5b3461056b575f36600319011261056b576020600254604051908152f35b3461056b575f36600319011261056b57600d54600e54600c545f19810192919083116110b25760809260025491604051938452602084015260408301526060820152f35b3461056b57604036600319011261056b57611fa9612167565b602435903315611cea576001600160a01b0316908115611cd257335f52600160205260405f20825f526020528060405f20556040519081527f8c5be1e5ebec7d5bd14f71427d1e84f3dd0314c0f7b2291e5b200ac8c7c3b92560203392a3602060405160018152f35b3461056b57602036600319011261056b576001600160a01b03612033612167565b165f52600860205260a060405f2060ff815416906001810154906002810154600460038301549201549260405194151585526020850152604084015260608301526080820152f35b3461056b575f36600319011261056b576003545f82612099836122b7565b91828252602093600190856001821691825f14610f335750506001146120c65750610ec0925003836121fa565b84915060035f527fc2575a0e9e593c00f959f8c92f12db2869c3395a3b0502d05e2516446f71f85b905f915b858310612109575050610ec0935082010185610eb3565b805483890185015287945086939092019181016120f2565b5f5b8381106121325750505f910152565b8181015183820152602001612123565b9060209161215b81518092818552858086019101612121565b601f01601f1916010190565b600435906001600160a01b038216820361056b57565b602435906001600160a01b038216820361056b57565b604090600319011261056b576004359060243590565b60a081019081106001600160401b0382111761049757604052565b60e081019081106001600160401b0382111761049757604052565b606081019081106001600160401b0382111761049757604052565b90601f801991011681019081106001600160401b0382111761049757604052565b6001600160401b03811161049757601f01601f191660200190565b9291926122428261221b565b9161225060405193846121fa565b82948184528183011161056b578281602093845f960137010152565b9080601f8301121561056b5781602061228793359101612236565b90565b80548210156122a3575f52600560205f20910201905f90565b634e487b7160e01b5f52603260045260245ffd5b90600182811c921680156122e5575b60208310146122d157565b634e487b7160e01b5f52602260045260245ffd5b91607f16916122c6565b9060405191825f8254612301816122b7565b908184526020946001916001811690815f1461236f5750600114612331575b50505061232f925003836121fa565b565b5f90815285812095935091905b81831061235757505061232f93508201015f8080612320565b8554888401850152948501948794509183019161233e565b9250505061232f94925060ff191682840152151560051b8201015f8080612320565b80548210156122a3575f5260205f2001905f90565b5f1981146110b25760010190565b156123bb57565b60405162461bcd60e51b81526020600482015260146024820152732737ba1030b71030b1ba34bb329036b2b6b132b960611b6044820152606490fd5b156123fe57565b60405162461bcd60e51b8152602060048201526015602482015274092dcecc2d8d2c840e6cae6e6d2dedc40d2dcc8caf605b1b6044820152606490fd5b1561244257565b60405162461bcd60e51b815260206004820152601860248201527f53657373696f6e20616c726561647920766572696669656400000000000000006044820152606490fd5b6001600160401b0381116104975760051b60200190565b909291926124ab8161221b565b916124b960405193846121fa565b82948284528282011161056b57602061232f930190612121565b9080601f8301121561056b5781516122879260200161249e565b80518210156122a35760209160051b010190565b919082018092116110b257565b9060405161251b816121a9565b608060048294805484526001810154602085015261253b600282016122ef565b604085015260ff600382015416151560608501520154910152565b6001600160a01b03165f8181526008602052604090205460ff161580156125eb575b6125e457600960205260405f20545f198101919082116110b2575f5260096020526125af6125a98260405f2061228a565b5061250e565b60608101511590816125cd575b506125c857505f905f90565b600191565b90505142034281116110b25762015180115f6125bc565b505f905f90565b50600960205260405f205415612578565b1561260357565b60405162461bcd60e51b815260206004820152602a60248201527f4f6e6c7920616374697665206d656d626572732063616e2063616c6c207468696044820152693990333ab731ba34b7b760b11b6064820152608490fd5b80156110b2575f190190565b916001600160a01b03808416928315612729571692831561271157825f525f60205260405f2054908282106126df5750817fddf252ad1be2c89b69c2b068fc378daa952ba7f163c4a11628f55a4df523b3ef92602092855f525f84520360405f2055845f5260405f20818154019055604051908152a3565b60405163391434e360e21b81526001600160a01b03919091166004820152602481019190915260448101829052606490fd5b60405163ec442f0560e01b81525f6004820152602490fd5b604051634b637e8f60e11b81525f6004820152602490fd5b6005546001600160a01b0316330361275557565b60405163118cdaa760e01b8152336004820152602490fd5b6020906127836014949382815194859201612121565b01906bffffffffffffffffffffffff199060601b1681520190565b6001600160a01b0316908115612711577fddf252ad1be2c89b69c2b068fc378daa952ba7f163c4a11628f55a4df523b3ef6020826127df5f94600254612501565b60025584845283825260408420818154019055604051908152a3565b815191906041830361282b576128249250602082015190606060408401519301515f1a906128b8565b9192909190565b50505f9160029190565b60048110156128a45780612847575050565b600181036128615760405163f645eedf60e01b8152600490fd5b600281036128825760405163fce698f760e01b815260048101839052602490fd5b60031461288c5750565b602490604051906335e2f38360e21b82526004820152fd5b634e487b7160e01b5f52602160045260245ffd5b91907f7fffffffffffffffffffffffffffffff5d576e7357a4501ddfe92f46681b20a0841161293a579160209360809260ff5f9560405194855216868401526040830152606082015282805260015afa1561292f575f516001600160a01b0381161561292557905f905f90565b505f906001905f90565b6040513d5f823e3d90fd5b5050505f916003919056fea2646970667358221220c16c3b7343ad1313c8c9026e0dcecfb8840d542f3aa65ce0d5d10713f3ae707c64736f6c63430008180033",
			"opcodes": "PUSH1 0x80 CALLVALUE PUSH3 0x432 JUMPI PUSH3 0x2DD2 SWAP1 PUSH1 0x1 PUSH1 0x1 PUSH1 0x40 SHL SUB SWAP1 PUSH1 0x1F NOT PUSH1 0x1F CODESIZE DUP6 SWAP1 SUB DUP2 DUP2 ADD DUP4 AND DUP5 ADD SWAP1 DUP6 DUP3 GT DUP6 DUP4 LT OR PUSH3 0x334 JUMPI DUP1 DUP6 SWAP2 PUSH1 0x40 SWAP9 DUP10 SWAP5 DUP6 MSTORE DUP4 CODECOPY DUP2 ADD SUB SLT PUSH3 0x432 JUMPI DUP3 MLOAD PUSH1 0x1 PUSH1 0x1 PUSH1 0xA0 SHL SUB SWAP5 DUP6 DUP3 AND SWAP3 SWAP2 DUP4 SWAP1 SUB PUSH3 0x432 JUMPI PUSH1 0x20 DUP1 SWAP6 ADD MLOAD SWAP6 PUSH3 0x70 PUSH3 0x436 JUMP JUMPDEST SWAP2 PUSH1 0xA DUP4 MSTORE PUSH10 0x29BA3AB23CAA37B5B2B7 PUSH1 0xB1 SHL DUP8 DUP5 ADD MSTORE PUSH3 0x91 PUSH3 0x436 JUMP JUMPDEST PUSH1 0x5 SWAP5 DUP6 DUP3 MSTORE PUSH5 0x5354554459 PUSH1 0xD8 SHL DUP10 DUP4 ADD MSTORE DUP5 MLOAD SWAP2 DUP4 DUP4 GT PUSH3 0x334 JUMPI PUSH1 0x3 SWAP3 DUP4 SLOAD PUSH1 0x1 SWAP8 DUP9 DUP3 DUP2 SHR SWAP3 AND DUP1 ISZERO PUSH3 0x427 JUMPI JUMPDEST DUP14 DUP4 LT EQ PUSH3 0x413 JUMPI DUP13 DUP3 DUP7 DUP6 SWAP5 GT PUSH3 0x3BF JUMPI JUMPDEST POP POP DUP13 SWAP1 DUP6 DUP4 GT PUSH1 0x1 EQ PUSH3 0x354 JUMPI PUSH0 SWAP3 PUSH3 0x348 JUMPI JUMPDEST POP POP PUSH0 NOT DUP3 DUP7 SHL SHR NOT AND SWAP1 DUP8 SHL OR DUP4 SSTORE JUMPDEST DUP1 MLOAD SWAP4 DUP5 GT PUSH3 0x334 JUMPI PUSH1 0x4 SWAP9 DUP10 SLOAD DUP8 DUP2 DUP2 SHR SWAP2 AND DUP1 ISZERO PUSH3 0x329 JUMPI JUMPDEST DUP13 DUP3 LT EQ PUSH3 0x316 JUMPI SWAP1 DUP12 DUP3 DUP6 DUP9 SWAP8 SWAP7 SWAP6 SWAP5 GT PUSH3 0x2BC JUMPI JUMPDEST POP POP DUP12 SWAP3 DUP6 GT PUSH1 0x1 EQ PUSH3 0x258 JUMPI POP PUSH0 SWAP4 PUSH3 0x24C JUMPI JUMPDEST POP POP DUP3 DUP6 SHL SWAP3 PUSH0 NOT SWAP2 SHL SHR NOT AND OR DUP6 SSTORE JUMPDEST CALLER ISZERO PUSH3 0x236 JUMPI DUP3 SLOAD CALLER PUSH1 0x1 PUSH1 0x1 PUSH1 0xA0 SHL SUB NOT DUP1 DUP4 AND DUP3 OR SWAP1 SWAP6 SSTORE SWAP2 AND PUSH32 0x8BE0079C531659141344CD1FD0A4F28419497F9722A3DAAFE3B4186F6B6457E0 PUSH0 DUP1 LOG3 PUSH1 0xC SSTORE PUSH1 0x6 SLOAD AND OR PUSH1 0x6 SSTORE PUSH8 0xDE0B6B3A7640000 SWAP3 DUP4 DUP2 MUL SWAP4 DUP2 DUP6 DIV EQ SWAP1 ISZERO OR ISZERO PUSH3 0x223 JUMPI PUSH1 0x2 SLOAD SWAP1 DUP4 DUP3 ADD DUP1 SWAP3 GT PUSH3 0x223 JUMPI POP PUSH0 SWAP2 PUSH32 0xDDF252AD1BE2C89B69C2B068FC378DAA952BA7F163C4A11628F55A4DF523B3EF SWAP2 PUSH1 0x2 SSTORE CALLER DUP4 MSTORE DUP3 DUP2 MSTORE DUP5 DUP4 KECCAK256 DUP5 DUP2 SLOAD ADD SWAP1 SSTORE DUP5 MLOAD SWAP4 DUP5 MSTORE CALLER SWAP4 LOG3 MLOAD PUSH2 0x297B SWAP1 DUP2 PUSH3 0x457 DUP3 CODECOPY RETURN JUMPDEST PUSH1 0x11 SWAP1 PUSH4 0x4E487B71 PUSH1 0xE0 SHL PUSH0 MSTORE MSTORE PUSH1 0x24 PUSH0 REVERT JUMPDEST DUP8 MLOAD PUSH4 0x1E4FBDF7 PUSH1 0xE0 SHL DUP2 MSTORE PUSH0 DUP2 DUP8 ADD MSTORE PUSH1 0x24 SWAP1 REVERT JUMPDEST ADD MLOAD SWAP2 POP PUSH0 DUP1 PUSH3 0x14F JUMP JUMPDEST DUP8 SWAP6 SWAP4 SWAP3 SWAP2 SWAP4 AND SWAP3 DUP11 PUSH0 MSTORE DUP12 PUSH0 KECCAK256 SWAP4 PUSH0 JUMPDEST DUP14 DUP3 DUP3 LT PUSH3 0x2A5 JUMPI POP POP DUP6 GT PUSH3 0x28B JUMPI JUMPDEST POP POP POP POP DUP2 SHL ADD DUP6 SSTORE PUSH3 0x160 JUMP JUMPDEST ADD MLOAD SWAP1 PUSH1 0xF8 DUP5 PUSH0 NOT SWAP3 SHL AND SHR NOT AND SWAP1 SSTORE PUSH0 DUP1 DUP1 DUP1 PUSH3 0x27C JUMP JUMPDEST DUP4 DUP6 ADD MLOAD DUP8 SSTORE DUP11 SWAP9 SWAP1 SWAP7 ADD SWAP6 SWAP4 DUP5 ADD SWAP4 ADD PUSH3 0x269 JUMP JUMPDEST SWAP1 SWAP2 SWAP3 SWAP4 SWAP5 SWAP6 POP DUP12 PUSH0 MSTORE DUP5 DUP3 PUSH0 KECCAK256 SWAP2 DUP2 DUP10 ADD DUP13 SHR DUP4 ADD SWAP4 DUP10 LT PUSH3 0x30C JUMPI JUMPDEST SWAP2 DUP11 SWAP2 DUP10 SWAP9 SWAP8 SWAP7 SWAP6 SWAP5 SWAP4 ADD DUP13 SHR ADD SWAP2 JUMPDEST DUP3 DUP2 LT PUSH3 0x2FD JUMPI POP DUP14 SWAP2 POP PUSH3 0x138 JUMP JUMPDEST PUSH0 DUP2 SSTORE DUP9 SWAP8 POP DUP11 SWAP2 ADD PUSH3 0x2EB JUMP JUMPDEST SWAP3 POP DUP2 SWAP3 PUSH3 0x2DB JUMP JUMPDEST PUSH1 0x22 DUP12 PUSH4 0x4E487B71 PUSH1 0xE0 SHL PUSH0 MSTORE MSTORE PUSH1 0x24 PUSH0 REVERT JUMPDEST SWAP1 PUSH1 0x7F AND SWAP1 PUSH3 0x11F JUMP JUMPDEST PUSH4 0x4E487B71 PUSH1 0xE0 SHL PUSH0 MSTORE PUSH1 0x41 PUSH1 0x4 MSTORE PUSH1 0x24 PUSH0 REVERT JUMPDEST ADD MLOAD SWAP1 POP PUSH0 DUP1 PUSH3 0xF1 JUMP JUMPDEST SWAP1 DUP14 SWAP2 DUP14 DUP12 SWAP6 AND DUP9 PUSH0 MSTORE DUP4 PUSH0 KECCAK256 SWAP4 PUSH0 SWAP1 JUMPDEST DUP3 DUP3 LT PUSH3 0x39D JUMPI POP POP DUP5 GT PUSH3 0x385 JUMPI JUMPDEST POP POP POP DUP2 SHL ADD DUP4 SSTORE PUSH3 0x102 JUMP JUMPDEST ADD MLOAD PUSH0 NOT DUP4 DUP9 SHL PUSH1 0xF8 AND SHR NOT AND SWAP1 SSTORE PUSH0 DUP1 DUP1 PUSH3 0x377 JUMP JUMPDEST SWAP2 SWAP3 SWAP4 SWAP6 SWAP7 DUP3 SWAP2 SWAP6 DUP8 DUP7 ADD MLOAD DUP2 SSTORE ADD SWAP6 ADD SWAP4 ADD SWAP1 DUP16 SWAP2 DUP13 SWAP7 SWAP6 SWAP5 SWAP4 SWAP3 PUSH3 0x365 JUMP JUMPDEST SWAP1 SWAP2 SWAP3 POP DUP7 PUSH0 MSTORE DUP6 DUP3 PUSH0 KECCAK256 SWAP2 DUP2 DUP7 ADD DUP14 SHR DUP4 ADD SWAP4 DUP7 LT PUSH3 0x409 JUMPI JUMPDEST SWAP2 DUP12 SWAP2 DUP7 SWAP6 SWAP5 SWAP4 ADD DUP14 SHR ADD SWAP2 JUMPDEST DUP3 DUP2 LT PUSH3 0x3FA JUMPI POP DUP15 SWAP2 POP PUSH3 0xDA JUMP JUMPDEST PUSH0 DUP2 SSTORE DUP6 SWAP5 POP DUP12 SWAP2 ADD PUSH3 0x3E8 JUMP JUMPDEST SWAP3 POP DUP2 SWAP3 PUSH3 0x3DB JUMP JUMPDEST PUSH4 0x4E487B71 PUSH1 0xE0 SHL PUSH0 MSTORE PUSH1 0x22 PUSH1 0x4 MSTORE PUSH1 0x24 PUSH0 REVERT JUMPDEST SWAP2 PUSH1 0x7F AND SWAP2 PUSH3 0xC5 JUMP JUMPDEST PUSH0 DUP1 REVERT JUMPDEST PUSH1 0x40 DUP1 MLOAD SWAP2 SWAP1 DUP3 ADD PUSH1 0x1 PUSH1 0x1 PUSH1 0x40 SHL SUB DUP2 GT DUP4 DUP3 LT OR PUSH3 0x334 JUMPI PUSH1 0x40 MSTORE JUMP INVALID PUSH1 0x80 DUP1 PUSH1 0x40 MSTORE PUSH1 0x4 CALLDATASIZE LT ISZERO PUSH2 0x12 JUMPI PUSH0 DUP1 REVERT JUMPDEST PUSH0 CALLDATALOAD PUSH1 0xE0 SHR SWAP1 DUP2 PUSH4 0x6FDDE03 EQ PUSH2 0x207B JUMPI POP DUP1 PUSH4 0x8AE4B0C EQ PUSH2 0x2012 JUMPI DUP1 PUSH4 0x95EA7B3 EQ PUSH2 0x1F90 JUMPI DUP1 PUSH4 0x136D8883 EQ PUSH2 0x1F4C JUMPI DUP1 PUSH4 0x18160DDD EQ PUSH2 0x1F2F JUMPI DUP1 PUSH4 0x1A0C750C EQ PUSH2 0x1D28 JUMPI DUP1 PUSH4 0x23B872DD EQ PUSH2 0x1C3E JUMPI DUP1 PUSH4 0x2ADA2596 EQ PUSH2 0x1B82 JUMPI DUP1 PUSH4 0x313CE567 EQ PUSH2 0x1B67 JUMPI DUP1 PUSH4 0x36CC8130 EQ PUSH2 0x1AB5 JUMPI DUP1 PUSH4 0x47EC71A8 EQ PUSH2 0x1A98 JUMPI DUP1 PUSH4 0x49C9436C EQ PUSH2 0x1973 JUMPI DUP1 PUSH4 0x4BA1CFE4 EQ PUSH2 0x194B JUMPI DUP1 PUSH4 0x5EDA7A76 EQ PUSH2 0x192E JUMPI DUP1 PUSH4 0x70A08231 EQ PUSH2 0x18F7 JUMPI DUP1 PUSH4 0x715018A6 EQ PUSH2 0x189C JUMPI DUP1 PUSH4 0x7472A2E6 EQ PUSH2 0x11E2 JUMPI DUP1 PUSH4 0x76E92559 EQ PUSH2 0x11C5 JUMPI DUP1 PUSH4 0x8955DCBA EQ PUSH2 0x1194 JUMPI DUP1 PUSH4 0x8DA5CB5B EQ PUSH2 0x116C JUMPI DUP1 PUSH4 0x909DD263 EQ PUSH2 0x110B JUMPI DUP1 PUSH4 0x940B7C76 EQ PUSH2 0xF53 JUMPI DUP1 PUSH4 0x95D89B41 EQ PUSH2 0xE71 JUMPI DUP1 PUSH4 0x9976FB2A EQ PUSH2 0xDD7 JUMPI DUP1 PUSH4 0xA9059CBB EQ PUSH2 0xDA6 JUMPI DUP1 PUSH4 0xB056C4E6 EQ PUSH2 0xD67 JUMPI DUP1 PUSH4 0xC6F6A749 EQ PUSH2 0xD1F JUMPI DUP1 PUSH4 0xCB1FB490 EQ PUSH2 0xC72 JUMPI DUP1 PUSH4 0xD213D86B EQ PUSH2 0xC2F JUMPI DUP1 PUSH4 0xD40BCAE8 EQ PUSH2 0xBF6 JUMPI DUP1 PUSH4 0xDB2E21BC EQ PUSH2 0xBB2 JUMPI DUP1 PUSH4 0xDD62ED3E EQ PUSH2 0xB65 JUMPI DUP1 PUSH4 0xE1DA7790 EQ PUSH2 0xA50 JUMPI DUP1 PUSH4 0xE82B0C91 EQ PUSH2 0x69D JUMPI DUP1 PUSH4 0xF003A104 EQ PUSH2 0x5FB JUMPI DUP1 PUSH4 0xF2FDE38B EQ PUSH2 0x56F JUMPI PUSH4 0xFD29EA7E EQ PUSH2 0x1B3 JUMPI PUSH0 DUP1 REVERT JUMPDEST CALLVALUE PUSH2 0x56B JUMPI PUSH1 0x60 CALLDATASIZE PUSH1 0x3 NOT ADD SLT PUSH2 0x56B JUMPI PUSH1 0x4 CALLDATALOAD PUSH1 0x1 PUSH1 0x1 PUSH1 0x40 SHL SUB DUP2 GT PUSH2 0x56B JUMPI PUSH2 0x1E3 SWAP1 CALLDATASIZE SWAP1 PUSH1 0x4 ADD PUSH2 0x226C JUMP JUMPDEST PUSH1 0x24 CALLDATALOAD PUSH1 0x1 PUSH1 0x1 PUSH1 0x40 SHL SUB DUP2 GT PUSH2 0x56B JUMPI PUSH2 0x202 SWAP1 CALLDATASIZE SWAP1 PUSH1 0x4 ADD PUSH2 0x226C JUMP JUMPDEST PUSH1 0xC SLOAD SWAP1 PUSH2 0x20F DUP3 PUSH2 0x23A6 JUMP JUMPDEST PUSH1 0xC SSTORE PUSH1 0x40 MLOAD SWAP1 PUSH2 0x21F DUP3 PUSH2 0x21C4 JUMP JUMPDEST DUP4 DUP3 MSTORE PUSH1 0x20 DUP3 ADD MSTORE PUSH1 0x44 CALLDATALOAD PUSH1 0x40 DUP3 ADD MSTORE CALLER PUSH1 0x60 DUP3 ADD MSTORE PUSH1 0x1 PUSH1 0x80 DUP3 ADD MSTORE PUSH0 PUSH1 0xA0 DUP3 ADD MSTORE PUSH0 PUSH1 0xC0 DUP3 ADD MSTORE DUP2 PUSH0 MSTORE PUSH1 0xA PUSH1 0x20 MSTORE PUSH1 0x40 PUSH0 KECCAK256 SWAP1 DUP1 MLOAD DUP1 MLOAD SWAP1 PUSH1 0x1 PUSH1 0x1 PUSH1 0x40 SHL SUB DUP3 GT PUSH2 0x497 JUMPI DUP2 SWAP1 PUSH2 0x274 DUP6 SLOAD PUSH2 0x22B7 JUMP JUMPDEST PUSH1 0x1F DUP2 GT PUSH2 0x51E JUMPI JUMPDEST POP PUSH1 0x20 SWAP1 PUSH1 0x1F DUP4 GT PUSH1 0x1 EQ PUSH2 0x4B6 JUMPI PUSH0 SWAP3 PUSH2 0x4AB JUMPI JUMPDEST POP POP DUP2 PUSH1 0x1 SHL SWAP2 PUSH0 NOT SWAP1 PUSH1 0x3 SHL SHR NOT AND OR DUP3 SSTORE JUMPDEST PUSH1 0x20 DUP2 ADD MLOAD DUP1 MLOAD SWAP1 PUSH1 0x1 PUSH1 0x1 PUSH1 0x40 SHL SUB DUP3 GT PUSH2 0x497 JUMPI PUSH2 0x2CA PUSH1 0x1 DUP6 ADD SLOAD PUSH2 0x22B7 JUMP JUMPDEST PUSH1 0x1F DUP2 GT PUSH2 0x44F JUMPI JUMPDEST POP SWAP2 DUP5 SWAP4 SWAP2 PUSH1 0x20 SWAP7 SWAP4 DUP8 SWAP1 PUSH1 0x1F DUP4 GT PUSH1 0x1 EQ PUSH2 0x3B7 JUMPI PUSH32 0xBE19BF7D0822F6BB03FC825B9EF5D8B07A9820A9C94A91826D51CD705F28744D SWAP6 SWAP4 DUP4 PUSH2 0x39C SWAP7 SWAP5 PUSH1 0x5 SWAP5 PUSH1 0xC0 SWAP5 PUSH0 SWAP3 PUSH2 0x3AC JUMPI JUMPDEST POP POP DUP2 PUSH1 0x1 SHL SWAP2 PUSH0 NOT SWAP1 PUSH1 0x3 SHL SHR NOT AND OR PUSH1 0x1 DUP6 ADD SSTORE JUMPDEST PUSH1 0x40 DUP2 ADD MLOAD PUSH1 0x2 DUP6 ADD SSTORE PUSH1 0x3 DUP5 ADD PUSH1 0x1 DUP1 PUSH1 0xA0 SHL SUB PUSH1 0x60 DUP4 ADD MLOAD AND DUP2 SLOAD SWAP1 PUSH1 0xFF PUSH1 0xA0 SHL PUSH1 0x80 DUP6 ADD MLOAD ISZERO ISZERO PUSH1 0xA0 SHL AND SWAP2 PUSH11 0xFFFFFFFFFFFFFFFFFFFFFF PUSH1 0xA8 SHL AND OR OR SWAP1 SSTORE PUSH1 0xA0 DUP2 ADD MLOAD PUSH1 0x4 DUP6 ADD SSTORE ADD MLOAD SWAP2 ADD SSTORE PUSH1 0x40 MLOAD SWAP2 DUP3 SWAP2 PUSH1 0x40 DUP4 MSTORE PUSH1 0x40 DUP4 ADD SWAP1 PUSH2 0x2142 JUMP JUMPDEST CALLER DUP8 DUP4 ADD MSTORE SUB SWAP1 LOG2 PUSH1 0x40 MLOAD SWAP1 DUP2 MSTORE RETURN JUMPDEST ADD MLOAD SWAP1 POP PUSH0 DUP1 PUSH2 0x31F JUMP JUMPDEST SWAP1 PUSH1 0x1 DUP6 ADD PUSH0 MSTORE DUP9 PUSH0 KECCAK256 SWAP2 PUSH0 JUMPDEST PUSH1 0x1F NOT DUP6 AND DUP2 LT PUSH2 0x435 JUMPI POP SWAP4 PUSH1 0x1 DUP5 PUSH1 0x5 SWAP5 PUSH1 0xC0 SWAP5 PUSH32 0xBE19BF7D0822F6BB03FC825B9EF5D8B07A9820A9C94A91826D51CD705F28744D SWAP11 SWAP9 PUSH2 0x39C SWAP11 SWAP9 PUSH1 0x1F NOT DUP2 AND LT PUSH2 0x41D JUMPI JUMPDEST POP POP POP DUP2 SHL ADD PUSH1 0x1 DUP6 ADD SSTORE PUSH2 0x336 JUMP JUMPDEST ADD MLOAD PUSH0 NOT PUSH1 0xF8 DUP5 PUSH1 0x3 SHL AND SHR NOT AND SWAP1 SSTORE PUSH0 DUP1 DUP1 PUSH2 0x40D JUMP JUMPDEST DUP2 DUP4 ADD MLOAD DUP5 SSTORE DUP10 SWAP9 POP PUSH1 0x1 SWAP1 SWAP4 ADD SWAP3 SWAP2 DUP11 ADD SWAP2 DUP11 ADD PUSH2 0x3C4 JUMP JUMPDEST PUSH1 0x1 DUP6 ADD PUSH0 MSTORE PUSH1 0x20 PUSH0 KECCAK256 PUSH1 0x1F DUP5 ADD PUSH1 0x5 SHR DUP2 ADD SWAP2 PUSH1 0x20 DUP6 LT PUSH2 0x48D JUMPI JUMPDEST PUSH1 0x1F ADD PUSH1 0x5 SHR ADD SWAP1 JUMPDEST DUP2 DUP2 LT PUSH2 0x482 JUMPI POP PUSH2 0x2D3 JUMP JUMPDEST PUSH0 DUP2 SSTORE PUSH1 0x1 ADD PUSH2 0x475 JUMP JUMPDEST SWAP1 SWAP2 POP DUP2 SWAP1 PUSH2 0x46C JUMP JUMPDEST PUSH4 0x4E487B71 PUSH1 0xE0 SHL PUSH0 MSTORE PUSH1 0x41 PUSH1 0x4 MSTORE PUSH1 0x24 PUSH0 REVERT JUMPDEST ADD MLOAD SWAP1 POP PUSH0 DUP1 PUSH2 0x293 JUMP JUMPDEST SWAP3 POP DUP5 PUSH0 MSTORE PUSH1 0x20 PUSH0 KECCAK256 SWAP1 PUSH0 SWAP4 JUMPDEST PUSH1 0x1F NOT DUP5 AND DUP6 LT PUSH2 0x503 JUMPI PUSH1 0x1 SWAP5 POP DUP4 PUSH1 0x1F NOT DUP2 AND LT PUSH2 0x4EB JUMPI JUMPDEST POP POP POP DUP2 SHL ADD DUP3 SSTORE PUSH2 0x2A7 JUMP JUMPDEST ADD MLOAD PUSH0 NOT PUSH1 0xF8 DUP5 PUSH1 0x3 SHL AND SHR NOT AND SWAP1 SSTORE PUSH0 DUP1 DUP1 PUSH2 0x4DE JUMP JUMPDEST DUP2 DUP2 ADD MLOAD DUP4 SSTORE PUSH1 0x20 SWAP5 DUP6 ADD SWAP5 PUSH1 0x1 SWAP1 SWAP4 ADD SWAP3 SWAP1 SWAP2 ADD SWAP1 PUSH2 0x4C3 JUMP JUMPDEST SWAP1 SWAP2 POP DUP5 PUSH0 MSTORE PUSH1 0x20 PUSH0 KECCAK256 PUSH1 0x1F DUP5 ADD PUSH1 0x5 SHR DUP2 ADD PUSH1 0x20 DUP6 LT PUSH2 0x564 JUMPI JUMPDEST SWAP1 DUP5 SWAP4 SWAP3 SWAP2 JUMPDEST PUSH1 0x1F DUP4 ADD PUSH1 0x5 SHR DUP3 ADD DUP2 LT PUSH2 0x556 JUMPI POP POP PUSH2 0x27D JUMP JUMPDEST PUSH0 DUP2 SSTORE DUP6 SWAP5 POP PUSH1 0x1 ADD PUSH2 0x540 JUMP JUMPDEST POP DUP1 PUSH2 0x53A JUMP JUMPDEST PUSH0 DUP1 REVERT JUMPDEST CALLVALUE PUSH2 0x56B JUMPI PUSH1 0x20 CALLDATASIZE PUSH1 0x3 NOT ADD SLT PUSH2 0x56B JUMPI PUSH2 0x588 PUSH2 0x2167 JUMP JUMPDEST PUSH2 0x590 PUSH2 0x2741 JUMP JUMPDEST PUSH1 0x1 PUSH1 0x1 PUSH1 0xA0 SHL SUB SWAP1 DUP2 AND SWAP1 DUP2 ISZERO PUSH2 0x5E3 JUMPI PUSH1 0x5 SLOAD DUP3 PUSH12 0xFFFFFFFFFFFFFFFFFFFFFFFF PUSH1 0xA0 SHL DUP3 AND OR PUSH1 0x5 SSTORE AND PUSH32 0x8BE0079C531659141344CD1FD0A4F28419497F9722A3DAAFE3B4186F6B6457E0 PUSH0 DUP1 LOG3 STOP JUMPDEST PUSH1 0x40 MLOAD PUSH4 0x1E4FBDF7 PUSH1 0xE0 SHL DUP2 MSTORE PUSH0 PUSH1 0x4 DUP3 ADD MSTORE PUSH1 0x24 SWAP1 REVERT JUMPDEST CALLVALUE PUSH2 0x56B JUMPI PUSH1 0x20 CALLDATASIZE PUSH1 0x3 NOT ADD SLT PUSH2 0x56B JUMPI PUSH1 0x4 CALLDATALOAD PUSH0 MSTORE PUSH1 0xA PUSH1 0x20 MSTORE PUSH2 0x662 PUSH1 0x40 PUSH0 KECCAK256 PUSH2 0x626 DUP2 PUSH2 0x22EF JUMP JUMPDEST SWAP1 PUSH2 0x633 PUSH1 0x1 DUP3 ADD PUSH2 0x22EF JUMP JUMPDEST PUSH1 0x2 DUP3 ADD SLOAD SWAP2 PUSH1 0xFF PUSH1 0x3 DUP3 ADD SLOAD PUSH2 0x670 PUSH1 0x5 PUSH1 0x4 DUP6 ADD SLOAD SWAP5 ADD SLOAD SWAP5 PUSH1 0x40 MLOAD SWAP9 DUP10 SWAP9 PUSH1 0xE0 DUP11 MSTORE PUSH1 0xE0 DUP11 ADD SWAP1 PUSH2 0x2142 JUMP JUMPDEST SWAP1 DUP9 DUP3 SUB PUSH1 0x20 DUP11 ADD MSTORE PUSH2 0x2142 JUMP JUMPDEST SWAP5 PUSH1 0x40 DUP8 ADD MSTORE PUSH1 0x1 DUP1 PUSH1 0xA0 SHL SUB DUP2 AND PUSH1 0x60 DUP8 ADD MSTORE PUSH1 0xA0 SHR AND ISZERO ISZERO PUSH1 0x80 DUP6 ADD MSTORE PUSH1 0xA0 DUP5 ADD MSTORE PUSH1 0xC0 DUP4 ADD MSTORE SUB SWAP1 RETURN JUMPDEST CALLVALUE PUSH2 0x56B JUMPI PUSH1 0x40 CALLDATASIZE PUSH1 0x3 NOT ADD SLT PUSH2 0x56B JUMPI PUSH1 0x24 DUP1 CALLDATALOAD PUSH1 0x1 PUSH1 0x1 PUSH1 0x40 SHL SUB DUP1 DUP3 GT PUSH2 0x56B JUMPI CALLDATASIZE PUSH1 0x23 DUP4 ADD SLT ISZERO PUSH2 0x56B JUMPI DUP1 DUP3 PUSH1 0x4 ADD CALLDATALOAD GT PUSH2 0x56B JUMPI CALLDATASIZE DUP4 DUP4 PUSH1 0x4 ADD CALLDATALOAD DUP5 ADD ADD GT PUSH2 0x56B JUMPI CALLER PUSH0 MSTORE PUSH1 0x8 PUSH1 0x20 MSTORE PUSH2 0x6FE PUSH1 0xFF PUSH1 0x40 PUSH0 KECCAK256 SLOAD AND PUSH2 0x25FC JUMP JUMPDEST CALLER PUSH0 MSTORE PUSH1 0x8 PUSH1 0x20 MSTORE PUSH1 0x40 PUSH0 KECCAK256 SWAP1 PUSH1 0x4 CALLDATALOAD ISZERO ISZERO DUP1 PUSH2 0xA42 JUMPI JUMPDEST ISZERO PUSH2 0xA0B JUMPI PUSH1 0x3 DUP3 ADD SLOAD PUSH2 0x384 DUP2 ADD DUP1 SWAP2 GT PUSH2 0x9F8 JUMPI TIMESTAMP GT ISZERO PUSH2 0x9B4 JUMPI PUSH1 0x40 MLOAD PUSH2 0x73F DUP2 PUSH2 0x21A9 JUMP JUMPDEST TIMESTAMP DUP2 MSTORE PUSH1 0x20 DUP2 ADD SWAP2 PUSH1 0x4 CALLDATALOAD DUP4 MSTORE PUSH2 0x75D CALLDATASIZE DUP7 PUSH1 0x4 ADD CALLDATALOAD DUP9 DUP9 ADD PUSH2 0x2236 JUMP JUMPDEST PUSH1 0x40 DUP4 ADD SWAP1 DUP2 MSTORE PUSH0 PUSH1 0x60 DUP5 ADD MSTORE PUSH0 PUSH1 0x80 DUP5 ADD MSTORE CALLER PUSH0 MSTORE PUSH1 0x9 PUSH1 0x20 MSTORE PUSH1 0x40 PUSH0 KECCAK256 DUP1 SLOAD PUSH1 0x1 PUSH1 0x40 SHL DUP2 LT ISZERO PUSH2 0x9A1 JUMPI PUSH2 0x799 SWAP2 PUSH1 0x1 DUP3 ADD DUP2 SSTORE PUSH2 0x228A JUMP JUMPDEST SWAP5 SWAP1 SWAP5 PUSH2 0x98F JUMPI DUP4 MLOAD DUP6 SSTORE MLOAD PUSH1 0x1 DUP6 ADD SSTORE MLOAD DUP1 MLOAD SWAP2 DUP3 GT PUSH2 0x97C JUMPI PUSH2 0x7C1 PUSH1 0x2 DUP6 ADD SLOAD PUSH2 0x22B7 JUMP JUMPDEST PUSH1 0x1F DUP2 GT PUSH2 0x938 JUMPI JUMPDEST POP PUSH1 0x20 SWAP1 PUSH1 0x1F DUP4 GT PUSH1 0x1 EQ PUSH2 0x8A2 JUMPI PUSH32 0xF6523B008A2A74EA8C2A42A8CA445C853182D75674C4D17AB18248CC61F4B199 SWAP6 SWAP4 DUP4 PUSH1 0x4 SWAP7 SWAP5 DUP8 SWAP5 PUSH1 0x80 SWAP5 PUSH0 SWAP3 PUSH2 0x897 JUMPI JUMPDEST POP POP DUP2 PUSH1 0x1 SHL SWAP2 PUSH0 NOT SWAP1 PUSH1 0x3 SHL SHR NOT AND OR PUSH1 0x2 DUP6 ADD SSTORE JUMPDEST PUSH2 0x843 PUSH1 0x60 DUP3 ADD MLOAD ISZERO ISZERO PUSH1 0x3 DUP7 ADD SWAP1 PUSH1 0xFF DUP1 NOT DUP4 SLOAD AND SWAP2 ISZERO ISZERO AND OR SWAP1 SSTORE JUMP JUMPDEST ADD MLOAD SWAP2 ADD SSTORE TIMESTAMP PUSH1 0x3 DUP3 ADD SSTORE ADD SLOAD PUSH1 0x40 DUP1 MLOAD PUSH1 0x4 DUP1 CALLDATALOAD DUP3 MSTORE PUSH1 0x20 DUP3 ADD DUP4 SWAP1 MSTORE DUP6 ADD CALLDATALOAD SWAP2 DUP2 ADD DUP3 SWAP1 MSTORE SWAP2 SWAP5 DUP5 ADD PUSH1 0x60 DUP4 ADD CALLDATACOPY PUSH0 PUSH1 0x60 DUP5 PUSH1 0x4 ADD CALLDATALOAD DUP4 ADD ADD MSTORE PUSH1 0x60 DUP2 CALLER SWAP5 PUSH1 0x1F DUP1 NOT SWAP2 PUSH1 0x4 ADD CALLDATALOAD ADD AND DUP2 ADD SUB ADD SWAP1 LOG3 STOP JUMPDEST ADD MLOAD SWAP1 POP DUP12 DUP1 PUSH2 0x80D JUMP JUMPDEST SWAP1 PUSH1 0x2 DUP6 ADD PUSH0 MSTORE PUSH1 0x20 PUSH0 KECCAK256 SWAP2 PUSH0 JUMPDEST PUSH1 0x1F NOT DUP6 AND DUP2 LT PUSH2 0x920 JUMPI POP SWAP4 PUSH1 0x1 DUP5 PUSH1 0x4 SWAP8 SWAP6 SWAP5 PUSH1 0x80 SWAP5 PUSH32 0xF6523B008A2A74EA8C2A42A8CA445C853182D75674C4D17AB18248CC61F4B199 SWAP11 SWAP9 DUP11 SWAP8 PUSH1 0x1F NOT DUP2 AND LT PUSH2 0x908 JUMPI JUMPDEST POP POP POP DUP2 SHL ADD PUSH1 0x2 DUP6 ADD SSTORE PUSH2 0x824 JUMP JUMPDEST ADD MLOAD PUSH0 NOT PUSH1 0xF8 DUP5 PUSH1 0x3 SHL AND SHR NOT AND SWAP1 SSTORE DUP12 DUP1 DUP1 PUSH2 0x8F8 JUMP JUMPDEST SWAP2 SWAP3 PUSH1 0x20 PUSH1 0x1 DUP2 SWAP3 DUP7 DUP6 ADD MLOAD DUP2 SSTORE ADD SWAP5 ADD SWAP3 ADD PUSH2 0x8B0 JUMP JUMPDEST PUSH1 0x2 DUP6 ADD PUSH0 MSTORE PUSH1 0x20 PUSH0 KECCAK256 PUSH1 0x1F DUP5 ADD PUSH1 0x5 SHR DUP2 ADD PUSH1 0x20 DUP6 LT PUSH2 0x975 JUMPI JUMPDEST PUSH1 0x1F DUP4 ADD PUSH1 0x5 SHR DUP3 ADD DUP2 LT PUSH2 0x96A JUMPI POP POP PUSH2 0x7CA JUMP JUMPDEST PUSH0 DUP2 SSTORE PUSH1 0x1 ADD PUSH2 0x954 JUMP JUMPDEST POP DUP1 PUSH2 0x954 JUMP JUMPDEST DUP7 PUSH4 0x4E487B71 PUSH1 0xE0 SHL PUSH0 MSTORE PUSH1 0x41 PUSH1 0x4 MSTORE PUSH0 REVERT JUMPDEST DUP8 PUSH4 0x4E487B71 PUSH1 0xE0 SHL PUSH0 MSTORE PUSH0 PUSH1 0x4 MSTORE PUSH0 REVERT JUMPDEST DUP9 PUSH4 0x4E487B71 PUSH1 0xE0 SHL PUSH0 MSTORE PUSH1 0x41 PUSH1 0x4 MSTORE PUSH0 REVERT JUMPDEST PUSH1 0x40 MLOAD PUSH3 0x461BCD PUSH1 0xE5 SHL DUP2 MSTORE PUSH1 0x20 PUSH1 0x4 DUP3 ADD MSTORE PUSH1 0x18 DUP2 DUP7 ADD MSTORE PUSH32 0x546F6F20736F6F6E20666F72206E65772073657373696F6E0000000000000000 PUSH1 0x44 DUP3 ADD MSTORE PUSH1 0x64 SWAP1 REVERT JUMPDEST DUP5 PUSH4 0x4E487B71 PUSH1 0xE0 SHL PUSH0 MSTORE PUSH1 0x11 PUSH1 0x4 MSTORE PUSH0 REVERT JUMPDEST PUSH1 0x40 MLOAD PUSH3 0x461BCD PUSH1 0xE5 SHL DUP2 MSTORE PUSH1 0x20 PUSH1 0x4 DUP3 ADD MSTORE PUSH1 0x10 DUP2 DUP7 ADD MSTORE PUSH16 0x24B73B30B634B210323AB930BA34B7B7 PUSH1 0x81 SHL PUSH1 0x44 DUP3 ADD MSTORE PUSH1 0x64 SWAP1 REVERT JUMPDEST POP PUSH2 0x2D0 PUSH1 0x4 CALLDATALOAD GT ISZERO PUSH2 0x716 JUMP JUMPDEST CALLVALUE PUSH2 0x56B JUMPI PUSH1 0x20 DUP1 PUSH1 0x3 NOT CALLDATASIZE ADD SLT PUSH2 0x56B JUMPI PUSH1 0x1 PUSH1 0x1 PUSH1 0xA0 SHL SUB PUSH2 0xA72 PUSH2 0x2167 JUMP JUMPDEST AND PUSH0 MSTORE PUSH1 0x9 DUP2 MSTORE PUSH1 0x40 PUSH0 KECCAK256 SWAP1 DUP2 SLOAD SWAP2 PUSH2 0xA8A DUP4 PUSH2 0x2487 JUMP JUMPDEST SWAP3 PUSH2 0xA98 PUSH1 0x40 MLOAD SWAP5 DUP6 PUSH2 0x21FA JUMP JUMPDEST DUP1 DUP5 MSTORE DUP3 DUP5 ADD DUP1 SWAP3 PUSH0 MSTORE DUP4 PUSH0 KECCAK256 PUSH0 SWAP2 JUMPDEST DUP4 DUP4 LT PUSH2 0xB42 JUMPI POP POP POP POP PUSH1 0x40 MLOAD SWAP2 DUP1 DUP4 ADD SWAP4 DUP2 DUP5 MSTORE MLOAD DUP1 SWAP5 MSTORE PUSH1 0x40 DUP4 ADD SWAP4 PUSH1 0x40 DUP2 PUSH1 0x5 SHL DUP6 ADD ADD SWAP3 SWAP2 PUSH0 SWAP6 JUMPDEST DUP3 DUP8 LT PUSH2 0xAE2 JUMPI DUP6 DUP6 SUB DUP7 RETURN JUMPDEST SWAP1 SWAP2 SWAP3 SWAP4 DUP3 DUP1 PUSH1 0x1 SWAP3 PUSH1 0x3F NOT DUP10 DUP3 SUB ADD DUP6 MSTORE DUP8 MLOAD SWAP1 PUSH2 0xB1C PUSH1 0xA0 DUP4 MLOAD DUP4 MSTORE DUP5 DUP5 ADD MLOAD DUP6 DUP5 ADD MSTORE PUSH1 0x40 DUP5 ADD MLOAD SWAP1 DUP1 PUSH1 0x40 DUP6 ADD MSTORE DUP4 ADD SWAP1 PUSH2 0x2142 JUMP JUMPDEST SWAP2 PUSH1 0x60 DUP1 DUP3 ADD MLOAD ISZERO ISZERO SWAP1 DUP4 ADD MSTORE PUSH1 0x80 DUP1 SWAP2 ADD MLOAD SWAP2 ADD MSTORE SWAP7 ADD SWAP3 ADD SWAP7 ADD SWAP6 SWAP3 SWAP2 SWAP1 SWAP3 PUSH2 0xAD5 JUMP JUMPDEST PUSH1 0x5 DUP7 PUSH1 0x1 SWAP3 PUSH2 0xB54 DUP6 SWAP11 SWAP10 SWAP11 PUSH2 0x250E JUMP JUMPDEST DUP2 MSTORE ADD SWAP3 ADD SWAP3 ADD SWAP2 SWAP1 SWAP6 SWAP5 SWAP6 PUSH2 0xAA8 JUMP JUMPDEST CALLVALUE PUSH2 0x56B JUMPI PUSH1 0x40 CALLDATASIZE PUSH1 0x3 NOT ADD SLT PUSH2 0x56B JUMPI PUSH2 0xB7E PUSH2 0x2167 JUMP JUMPDEST PUSH2 0xB86 PUSH2 0x217D JUMP JUMPDEST SWAP1 PUSH1 0x1 DUP1 PUSH1 0xA0 SHL SUB DUP1 SWAP2 AND PUSH0 MSTORE PUSH1 0x1 PUSH1 0x20 MSTORE PUSH1 0x40 PUSH0 KECCAK256 SWAP2 AND PUSH0 MSTORE PUSH1 0x20 MSTORE PUSH1 0x20 PUSH1 0x40 PUSH0 KECCAK256 SLOAD PUSH1 0x40 MLOAD SWAP1 DUP2 MSTORE RETURN JUMPDEST CALLVALUE PUSH2 0x56B JUMPI PUSH0 CALLDATASIZE PUSH1 0x3 NOT ADD SLT PUSH2 0x56B JUMPI PUSH2 0xBCA PUSH2 0x2741 JUMP JUMPDEST ADDRESS PUSH0 MSTORE PUSH0 PUSH1 0x20 MSTORE PUSH1 0x40 PUSH0 KECCAK256 SLOAD DUP1 PUSH2 0xBDD JUMPI STOP JUMPDEST PUSH1 0x5 SLOAD PUSH2 0xBF4 SWAP2 SWAP1 PUSH1 0x1 PUSH1 0x1 PUSH1 0xA0 SHL SUB AND ADDRESS PUSH2 0x2667 JUMP JUMPDEST STOP JUMPDEST CALLVALUE PUSH2 0x56B JUMPI PUSH1 0x20 CALLDATASIZE PUSH1 0x3 NOT ADD SLT PUSH2 0x56B JUMPI PUSH2 0xC0F PUSH2 0x2741 JUMP JUMPDEST PUSH1 0x4 CALLDATALOAD PUSH0 SWAP1 DUP2 MSTORE PUSH1 0xA PUSH1 0x20 MSTORE PUSH1 0x40 SWAP1 KECCAK256 PUSH1 0x3 ADD DUP1 SLOAD PUSH1 0xFF PUSH1 0xA0 SHL NOT AND SWAP1 SSTORE STOP JUMPDEST CALLVALUE PUSH2 0x56B JUMPI PUSH1 0x20 CALLDATASIZE PUSH1 0x3 NOT ADD SLT PUSH2 0x56B JUMPI PUSH2 0xC48 PUSH2 0x2167 JUMP JUMPDEST PUSH2 0xC50 PUSH2 0x2741 JUMP JUMPDEST PUSH1 0x6 DUP1 SLOAD PUSH1 0x1 PUSH1 0x1 PUSH1 0xA0 SHL SUB NOT AND PUSH1 0x1 PUSH1 0x1 PUSH1 0xA0 SHL SUB SWAP3 SWAP1 SWAP3 AND SWAP2 SWAP1 SWAP2 OR SWAP1 SSTORE STOP JUMPDEST CALLVALUE PUSH2 0x56B JUMPI PUSH0 CALLDATASIZE PUSH1 0x3 NOT ADD SLT PUSH2 0x56B JUMPI CALLER PUSH0 MSTORE PUSH1 0x8 PUSH1 0x20 MSTORE PUSH2 0xC9A PUSH1 0xFF PUSH1 0x40 PUSH0 KECCAK256 SLOAD AND PUSH2 0x25FC JUMP JUMPDEST CALLER PUSH0 MSTORE PUSH1 0x8 PUSH1 0x20 MSTORE PUSH1 0x40 PUSH0 KECCAK256 PUSH1 0x4 DUP2 ADD SLOAD SWAP1 PUSH0 PUSH1 0x2 DUP3 ADD DUP1 SLOAD SWAP3 PUSH1 0xFF NOT DUP2 SLOAD AND SWAP1 SSTORE SSTORE DUP2 PUSH0 MSTORE PUSH1 0xA PUSH1 0x20 MSTORE PUSH1 0x4 PUSH1 0x40 PUSH0 KECCAK256 ADD PUSH2 0xCD6 DUP2 SLOAD PUSH2 0x265B JUMP JUMPDEST SWAP1 SSTORE PUSH2 0xCE3 PUSH1 0xD SLOAD PUSH2 0x265B JUMP JUMPDEST PUSH1 0xD SSTORE PUSH2 0xCF1 DUP2 CALLER ADDRESS PUSH2 0x2667 JUMP JUMPDEST PUSH1 0x40 MLOAD SWAP1 DUP2 MSTORE PUSH32 0x9FE2549E029DC601C32D2B99A63BB5D8790E62936AE6DFD93013CBAE2A3F2E1E PUSH1 0x20 CALLER SWAP3 LOG3 STOP JUMPDEST CALLVALUE PUSH2 0x56B JUMPI PUSH2 0xD2D CALLDATASIZE PUSH2 0x2193 JUMP JUMPDEST SWAP1 PUSH0 MSTORE PUSH1 0xB PUSH1 0x20 MSTORE PUSH1 0x40 PUSH0 KECCAK256 DUP1 SLOAD DUP3 LT ISZERO PUSH2 0x56B JUMPI PUSH1 0x20 SWAP2 PUSH2 0xD4E SWAP2 PUSH2 0x2391 JUMP JUMPDEST SWAP1 SLOAD PUSH1 0x40 MLOAD PUSH1 0x3 SWAP3 SWAP1 SWAP3 SHL SHR PUSH1 0x1 PUSH1 0x1 PUSH1 0xA0 SHL SUB AND DUP2 MSTORE RETURN JUMPDEST CALLVALUE PUSH2 0x56B JUMPI PUSH1 0x20 CALLDATASIZE PUSH1 0x3 NOT ADD SLT PUSH2 0x56B JUMPI PUSH2 0xD80 PUSH2 0x2741 JUMP JUMPDEST PUSH1 0x4 CALLDATALOAD PUSH0 SWAP1 DUP2 MSTORE PUSH1 0xA PUSH1 0x20 MSTORE PUSH1 0x40 SWAP1 KECCAK256 PUSH1 0x3 ADD DUP1 SLOAD PUSH1 0xFF PUSH1 0xA0 SHL NOT AND PUSH1 0x1 PUSH1 0xA0 SHL OR SWAP1 SSTORE STOP JUMPDEST CALLVALUE PUSH2 0x56B JUMPI PUSH1 0x40 CALLDATASIZE PUSH1 0x3 NOT ADD SLT PUSH2 0x56B JUMPI PUSH2 0xDCC PUSH2 0xDC2 PUSH2 0x2167 JUMP JUMPDEST PUSH1 0x24 CALLDATALOAD SWAP1 CALLER PUSH2 0x2667 JUMP JUMPDEST PUSH1 0x20 PUSH1 0x40 MLOAD PUSH1 0x1 DUP2 MSTORE RETURN JUMPDEST CALLVALUE PUSH2 0x56B JUMPI PUSH1 0x40 CALLDATASIZE PUSH1 0x3 NOT ADD SLT PUSH2 0x56B JUMPI PUSH2 0xDF0 PUSH2 0x2167 JUMP JUMPDEST PUSH1 0x1 PUSH1 0x1 PUSH1 0xA0 SHL SUB AND PUSH0 SWAP1 DUP2 MSTORE PUSH1 0x9 PUSH1 0x20 MSTORE PUSH1 0x40 SWAP1 KECCAK256 DUP1 SLOAD PUSH1 0x24 CALLDATALOAD SWAP1 DUP2 LT ISZERO PUSH2 0x56B JUMPI PUSH2 0xE1C SWAP2 PUSH2 0x228A JUMP JUMPDEST POP DUP1 SLOAD PUSH1 0x1 DUP3 ADD SLOAD SWAP2 PUSH2 0xE31 PUSH1 0x2 DUP3 ADD PUSH2 0x22EF JUMP JUMPDEST PUSH2 0xE60 PUSH1 0x4 PUSH1 0xFF PUSH1 0x3 DUP6 ADD SLOAD AND SWAP4 ADD SLOAD SWAP2 PUSH1 0x40 MLOAD SWAP6 DUP7 SWAP6 DUP7 MSTORE PUSH1 0x20 DUP7 ADD MSTORE PUSH1 0xA0 PUSH1 0x40 DUP7 ADD MSTORE PUSH1 0xA0 DUP6 ADD SWAP1 PUSH2 0x2142 JUMP JUMPDEST SWAP2 ISZERO ISZERO PUSH1 0x60 DUP5 ADD MSTORE PUSH1 0x80 DUP4 ADD MSTORE SUB SWAP1 RETURN JUMPDEST CALLVALUE PUSH2 0x56B JUMPI PUSH0 CALLDATASIZE PUSH1 0x3 NOT ADD SLT PUSH2 0x56B JUMPI PUSH1 0x40 MLOAD PUSH1 0x4 SLOAD PUSH0 DUP3 PUSH2 0xE92 DUP4 PUSH2 0x22B7 JUMP JUMPDEST SWAP2 DUP3 DUP3 MSTORE PUSH1 0x20 SWAP4 PUSH1 0x1 SWAP1 DUP6 PUSH1 0x1 DUP3 AND SWAP2 DUP3 PUSH0 EQ PUSH2 0xF33 JUMPI POP POP PUSH1 0x1 EQ PUSH2 0xED8 JUMPI JUMPDEST POP PUSH2 0xEC0 SWAP3 POP SUB DUP4 PUSH2 0x21FA JUMP JUMPDEST PUSH2 0xED4 PUSH1 0x40 MLOAD SWAP3 DUP3 DUP5 SWAP4 DUP5 MSTORE DUP4 ADD SWAP1 PUSH2 0x2142 JUMP JUMPDEST SUB SWAP1 RETURN JUMPDEST DUP5 SWAP2 POP PUSH1 0x4 PUSH0 MSTORE PUSH32 0x8A35ACFBC15FF81A39AE7D344FD709F28E8600B4AA8C65C6B64BFE7FE36BD19B SWAP1 PUSH0 SWAP2 JUMPDEST DUP6 DUP4 LT PUSH2 0xF1B JUMPI POP POP PUSH2 0xEC0 SWAP4 POP DUP3 ADD ADD DUP6 PUSH2 0xEB3 JUMP JUMPDEST DUP1 SLOAD DUP4 DUP10 ADD DUP6 ADD MSTORE DUP8 SWAP5 POP DUP7 SWAP4 SWAP1 SWAP3 ADD SWAP2 DUP2 ADD PUSH2 0xF04 JUMP JUMPDEST PUSH1 0xFF NOT AND DUP6 DUP3 ADD MSTORE PUSH2 0xEC0 SWAP6 ISZERO ISZERO PUSH1 0x5 SHL DUP6 ADD ADD SWAP3 POP DUP8 SWAP2 POP PUSH2 0xEB3 SWAP1 POP JUMP JUMPDEST CALLVALUE PUSH2 0x56B JUMPI PUSH1 0x40 CALLDATASIZE PUSH1 0x3 NOT ADD SLT PUSH2 0x56B JUMPI PUSH2 0xF6C PUSH2 0x2167 JUMP JUMPDEST PUSH1 0x24 CALLDATALOAD SWAP1 PUSH1 0x1 DUP1 PUSH1 0xA0 SHL SUB DUP1 DUP3 AND SWAP3 DUP4 PUSH0 MSTORE PUSH1 0x20 SWAP3 PUSH1 0x8 DUP5 MSTORE PUSH1 0x4 PUSH1 0x40 PUSH0 KECCAK256 ADD SLOAD SWAP3 DUP4 PUSH0 MSTORE PUSH1 0xA DUP6 MSTORE PUSH1 0x3 PUSH1 0x40 PUSH0 KECCAK256 ADD SLOAD AND CALLER SUB PUSH2 0x10C6 JUMPI DUP5 PUSH0 MSTORE PUSH1 0x8 DUP5 MSTORE PUSH2 0xFBB PUSH1 0xFF PUSH1 0x40 PUSH0 KECCAK256 SLOAD AND PUSH2 0x23B4 JUMP JUMPDEST DUP5 PUSH0 MSTORE PUSH1 0x9 DUP5 MSTORE PUSH2 0xFD1 PUSH1 0x40 PUSH0 KECCAK256 SLOAD DUP4 LT PUSH2 0x23F7 JUMP JUMPDEST DUP5 PUSH0 MSTORE PUSH1 0x9 DUP5 MSTORE PUSH2 0xFE5 DUP3 PUSH1 0x40 PUSH0 KECCAK256 PUSH2 0x228A JUMP JUMPDEST POP SWAP3 PUSH1 0x3 DUP5 ADD PUSH1 0x1 DUP2 SLOAD PUSH2 0xFFC PUSH1 0xFF DUP3 AND ISZERO PUSH2 0x243B JUMP JUMPDEST PUSH1 0xFF NOT AND OR SWAP1 SSTORE PUSH1 0x1 DUP5 ADD SWAP1 DUP2 SLOAD DUP8 PUSH0 MSTORE PUSH1 0x8 DUP8 MSTORE PUSH2 0x1023 PUSH1 0x1 PUSH1 0x40 PUSH0 KECCAK256 ADD SWAP2 DUP3 SLOAD PUSH2 0x2501 JUMP JUMPDEST SWAP1 SSTORE DUP2 SLOAD SWAP1 PUSH0 MSTORE PUSH1 0xA DUP7 MSTORE PUSH2 0x1040 PUSH1 0x5 PUSH1 0x40 PUSH0 KECCAK256 ADD SWAP2 DUP3 SLOAD PUSH2 0x2501 JUMP JUMPDEST SWAP1 SSTORE PUSH2 0x104F DUP2 SLOAD PUSH1 0xE SLOAD PUSH2 0x2501 JUMP JUMPDEST PUSH1 0xE SSTORE SLOAD SWAP4 PUSH8 0xDE0B6B3A7640000 SWAP5 DUP6 DUP2 MUL SWAP6 DUP2 DUP8 DIV EQ SWAP1 ISZERO OR ISZERO PUSH2 0x10B2 JUMPI PUSH2 0x10A7 PUSH1 0x40 SWAP5 PUSH1 0x4 SWAP4 PUSH1 0xA PUSH32 0x63863815B4DCF3C8ACAEEE732C56DFC0972A7DA5A49F45EF55463F47234EEE76 SWAP9 DIV DUP1 SWAP6 DUP2 SWAP4 ADD SSTORE PUSH2 0x279E JUMP JUMPDEST DUP4 MLOAD SWAP3 DUP4 MSTORE DUP3 ADD MSTORE LOG2 STOP JUMPDEST PUSH4 0x4E487B71 PUSH1 0xE0 SHL PUSH0 MSTORE PUSH1 0x11 PUSH1 0x4 MSTORE PUSH1 0x24 PUSH0 REVERT JUMPDEST PUSH1 0x40 MLOAD PUSH3 0x461BCD PUSH1 0xE5 SHL DUP2 MSTORE PUSH1 0x4 DUP2 ADD DUP6 SWAP1 MSTORE PUSH1 0x1B PUSH1 0x24 DUP3 ADD MSTORE PUSH32 0x4F6E6C792067726F75702061646D696E2063616E207665726966790000000000 PUSH1 0x44 DUP3 ADD MSTORE PUSH1 0x64 SWAP1 REVERT JUMPDEST CALLVALUE PUSH2 0x56B JUMPI PUSH1 0x20 CALLDATASIZE PUSH1 0x3 NOT ADD SLT PUSH2 0x56B JUMPI PUSH1 0x4 CALLDATALOAD PUSH1 0x1 PUSH1 0x1 PUSH1 0x40 SHL SUB DUP2 GT PUSH2 0x56B JUMPI PUSH1 0xFF PUSH2 0x1156 PUSH1 0x20 PUSH2 0x1143 DUP2 SWAP5 CALLDATASIZE SWAP1 PUSH1 0x4 ADD PUSH2 0x226C JUMP JUMPDEST DUP2 PUSH1 0x40 MLOAD SWAP4 DUP3 DUP6 DUP1 SWAP5 MLOAD SWAP4 DUP5 SWAP3 ADD PUSH2 0x2121 JUMP JUMPDEST DUP2 ADD PUSH1 0x7 DUP2 MSTORE SUB ADD SWAP1 KECCAK256 SLOAD AND PUSH1 0x40 MLOAD SWAP1 ISZERO ISZERO DUP2 MSTORE RETURN JUMPDEST CALLVALUE PUSH2 0x56B JUMPI PUSH0 CALLDATASIZE PUSH1 0x3 NOT ADD SLT PUSH2 0x56B JUMPI PUSH1 0x5 SLOAD PUSH1 0x40 MLOAD PUSH1 0x1 PUSH1 0x1 PUSH1 0xA0 SHL SUB SWAP1 SWAP2 AND DUP2 MSTORE PUSH1 0x20 SWAP1 RETURN JUMPDEST CALLVALUE PUSH2 0x56B JUMPI PUSH1 0x20 CALLDATASIZE PUSH1 0x3 NOT ADD SLT PUSH2 0x56B JUMPI PUSH1 0x40 PUSH2 0x11B7 PUSH2 0x11B2 PUSH2 0x2167 JUMP JUMPDEST PUSH2 0x2556 JUMP JUMPDEST DUP3 MLOAD SWAP2 ISZERO ISZERO DUP3 MSTORE PUSH1 0x20 DUP3 ADD MSTORE RETURN JUMPDEST CALLVALUE PUSH2 0x56B JUMPI PUSH0 CALLDATASIZE PUSH1 0x3 NOT ADD SLT PUSH2 0x56B JUMPI PUSH1 0x20 PUSH1 0xD SLOAD PUSH1 0x40 MLOAD SWAP1 DUP2 MSTORE RETURN JUMPDEST CALLVALUE PUSH2 0x56B JUMPI PUSH1 0x3 NOT PUSH1 0x60 CALLDATASIZE DUP3 ADD SLT PUSH2 0x56B JUMPI PUSH1 0x4 CALLDATALOAD SWAP1 PUSH1 0x1 PUSH1 0x1 PUSH1 0x40 SHL SUB DUP3 GT PUSH2 0x56B JUMPI PUSH1 0x60 SWAP1 DUP3 CALLDATASIZE SUB ADD SLT PUSH2 0x56B JUMPI PUSH1 0x40 MLOAD SWAP1 PUSH2 0x121F DUP3 PUSH2 0x21DF JUMP JUMPDEST DUP1 PUSH1 0x4 ADD CALLDATALOAD PUSH1 0x1 PUSH1 0x1 PUSH1 0x40 SHL SUB DUP2 GT PUSH2 0x56B JUMPI PUSH2 0x1242 SWAP1 PUSH1 0x4 CALLDATASIZE SWAP2 DUP5 ADD ADD PUSH2 0x226C JUMP JUMPDEST DUP3 MSTORE PUSH1 0x24 DUP2 ADD CALLDATALOAD PUSH1 0x1 PUSH1 0x1 PUSH1 0x40 SHL SUB DUP2 GT PUSH2 0x56B JUMPI PUSH2 0x1267 SWAP1 PUSH1 0x4 CALLDATASIZE SWAP2 DUP5 ADD ADD PUSH2 0x226C JUMP JUMPDEST PUSH1 0x20 DUP4 ADD MSTORE PUSH1 0x44 DUP2 ADD CALLDATALOAD SWAP1 PUSH1 0x1 PUSH1 0x1 PUSH1 0x40 SHL SUB DUP3 GT PUSH2 0x56B JUMPI PUSH1 0x4 PUSH2 0x128F SWAP3 CALLDATASIZE SWAP3 ADD ADD PUSH2 0x226C JUMP JUMPDEST PUSH1 0x40 DUP3 ADD MSTORE PUSH2 0x129C PUSH2 0x217D JUMP JUMPDEST PUSH1 0x40 DUP1 MLOAD PUSH1 0x1 PUSH1 0x1 PUSH1 0xA0 SHL SUB DUP4 AND PUSH1 0x20 DUP3 ADD MSTORE PUSH1 0x44 CALLDATALOAD DUP2 DUP4 ADD MSTORE SWAP1 DUP2 MSTORE SWAP1 SWAP2 SWAP1 PUSH2 0x12C5 DUP2 PUSH2 0x21DF JUMP JUMPDEST DUP2 MLOAD DUP1 MLOAD DUP2 ADD SWAP1 PUSH1 0xA0 DUP2 PUSH1 0x20 DUP5 ADD SWAP4 SUB SLT PUSH2 0x56B JUMPI PUSH1 0x20 DUP2 ADD MLOAD PUSH1 0x1 PUSH1 0x1 PUSH1 0x40 SHL SUB DUP2 GT PUSH2 0x56B JUMPI DUP3 PUSH1 0x20 PUSH2 0x12FC SWAP3 DUP5 ADD ADD PUSH2 0x24D3 JUMP JUMPDEST SWAP3 PUSH1 0x40 DUP3 ADD MLOAD SWAP3 PUSH1 0x60 DUP4 ADD MLOAD SWAP1 PUSH1 0x1 PUSH1 0x1 PUSH1 0x40 SHL SUB DUP3 GT PUSH2 0x56B JUMPI PUSH1 0x20 PUSH2 0x1325 SWAP3 DUP6 ADD ADD PUSH2 0x24D3 JUMP JUMPDEST SWAP1 PUSH1 0xA0 PUSH1 0x80 DUP5 ADD MLOAD SWAP4 ADD MLOAD SWAP4 DUP5 ISZERO SWAP5 DUP6 ISZERO SUB PUSH2 0x56B JUMPI DUP5 PUSH2 0x185E JUMPI PUSH2 0x1379 PUSH2 0x1382 SWAP7 PUSH1 0x20 DUP10 ADD MLOAD PUSH1 0x40 MLOAD PUSH2 0x1371 DUP2 PUSH2 0x1363 PUSH1 0x20 DUP3 ADD SWAP5 CALLER SWAP1 DUP7 PUSH2 0x276D JUMP JUMPDEST SUB PUSH1 0x1F NOT DUP2 ADD DUP4 MSTORE DUP3 PUSH2 0x21FA JUMP JUMPDEST MLOAD SWAP1 KECCAK256 PUSH2 0x27FB JUMP JUMPDEST SWAP1 SWAP8 SWAP2 SWAP8 PUSH2 0x2835 JUMP JUMPDEST PUSH1 0x6 SLOAD PUSH1 0x1 PUSH1 0x1 PUSH1 0xA0 SHL SUB SWAP1 DUP2 AND SWAP7 AND DUP7 SWAP1 SUB PUSH2 0x180A JUMPI DUP1 PUSH1 0x40 DUP9 ADD MLOAD PUSH1 0x40 MLOAD PUSH2 0x13B6 DUP2 PUSH2 0x1363 PUSH1 0x20 DUP3 ADD SWAP5 CALLER SWAP1 DUP7 PUSH2 0x276D JUMP JUMPDEST MLOAD SWAP1 KECCAK256 SWAP3 PUSH1 0x20 DUP2 MLOAD SWAP2 ADD KECCAK256 SWAP3 SUB PUSH2 0x17C5 JUMPI PUSH2 0x140C SWAP5 PUSH2 0x1403 SWAP5 PUSH1 0x40 MLOAD SWAP3 PUSH1 0x20 DUP5 ADD SWAP5 DUP6 MSTORE PUSH1 0x40 DUP5 ADD MSTORE CALLER PUSH1 0x60 SHL PUSH1 0x60 DUP5 ADD MSTORE PUSH1 0x74 DUP4 ADD MSTORE ISZERO PUSH1 0xF8 SHL PUSH1 0x94 DUP3 ADD MSTORE PUSH1 0x75 DUP2 MSTORE PUSH2 0x1371 DUP2 PUSH2 0x21A9 JUMP JUMPDEST SWAP1 SWAP3 SWAP2 SWAP3 PUSH2 0x2835 JUMP JUMPDEST PUSH1 0x1 PUSH1 0x1 PUSH1 0xA0 SHL SUB AND SUB PUSH2 0x1774 JUMPI PUSH1 0x1 PUSH1 0x1 PUSH1 0xA0 SHL SUB DUP3 AND PUSH0 SWAP1 DUP2 MSTORE PUSH1 0x8 PUSH1 0x20 MSTORE PUSH1 0x40 SWAP1 KECCAK256 SLOAD PUSH2 0x143E SWAP1 PUSH1 0xFF AND PUSH2 0x23B4 JUMP JUMPDEST PUSH1 0x1 PUSH1 0x1 PUSH1 0xA0 SHL SUB DUP3 AND PUSH0 SWAP1 DUP2 MSTORE PUSH1 0x9 PUSH1 0x20 MSTORE PUSH1 0x40 SWAP1 KECCAK256 SLOAD PUSH2 0x1463 SWAP1 PUSH1 0x44 CALLDATALOAD LT PUSH2 0x23F7 JUMP JUMPDEST PUSH1 0x1 DUP1 PUSH1 0xA0 SHL SUB DUP3 AND PUSH0 MSTORE PUSH1 0x9 PUSH1 0x20 MSTORE PUSH2 0x1482 PUSH1 0x44 CALLDATALOAD PUSH1 0x40 PUSH0 KECCAK256 PUSH2 0x228A JUMP JUMPDEST POP SWAP1 PUSH1 0x20 PUSH1 0x3 DUP4 ADD SLOAD SWAP2 PUSH2 0x1499 PUSH1 0xFF DUP5 AND ISZERO PUSH2 0x243B JUMP JUMPDEST ADD MLOAD SWAP2 DUP3 MLOAD DUP4 ADD PUSH1 0x20 DUP5 DUP3 SUB SLT PUSH2 0x56B JUMPI PUSH1 0x20 DUP5 ADD MLOAD PUSH1 0x1 PUSH1 0x1 PUSH1 0x40 SHL SUB DUP2 GT PUSH2 0x56B JUMPI PUSH1 0x20 DUP3 ADD PUSH1 0x3F DUP3 DUP8 ADD ADD SLT ISZERO PUSH2 0x56B JUMPI PUSH1 0x20 DUP2 DUP7 ADD ADD MLOAD SWAP1 PUSH2 0x14DE DUP3 PUSH2 0x2487 JUMP JUMPDEST SWAP6 PUSH2 0x14EC PUSH1 0x40 MLOAD SWAP8 DUP9 PUSH2 0x21FA JUMP JUMPDEST DUP3 DUP8 MSTORE PUSH1 0x20 DUP8 ADD SWAP2 PUSH1 0x20 DUP6 ADD PUSH1 0x40 DUP6 PUSH1 0x5 SHL DUP4 DUP6 ADD ADD ADD GT PUSH2 0x56B JUMPI PUSH1 0x40 DUP2 DUP4 ADD ADD SWAP3 JUMPDEST PUSH1 0x40 DUP6 PUSH1 0x5 SHL DUP4 DUP6 ADD ADD ADD DUP5 LT PUSH2 0x16C3 JUMPI POP POP POP POP POP POP PUSH1 0x64 SWAP3 PUSH0 JUMPDEST DUP2 MLOAD DUP2 LT ISZERO PUSH2 0x16B8 JUMPI PUSH2 0x639 PUSH2 0x1542 DUP3 DUP5 PUSH2 0x24ED JUMP JUMPDEST MLOAD MLOAD EQ PUSH2 0x1551 JUMPI PUSH1 0x1 ADD PUSH2 0x152C JUMP JUMPDEST PUSH1 0x20 SWAP3 SWAP4 SWAP5 POP PUSH2 0x1560 SWAP2 PUSH2 0x24ED JUMP JUMPDEST MLOAD ADD MLOAD PUSH1 0x20 DUP2 DUP1 MLOAD DUP2 ADD SUB SLT PUSH2 0x56B JUMPI PUSH1 0x20 ADD MLOAD PUSH1 0xFF DUP2 AND DUP2 SUB PUSH2 0x56B JUMPI PUSH1 0x1 SWAP1 SWAP3 JUMPDEST PUSH1 0xFF NOT AND OR PUSH1 0x3 DUP3 ADD SSTORE PUSH1 0x1 DUP2 ADD DUP1 SLOAD PUSH1 0x1 DUP1 PUSH1 0xA0 SHL SUB DUP6 AND PUSH0 MSTORE PUSH1 0x8 PUSH1 0x20 MSTORE PUSH2 0x15B5 PUSH1 0x1 PUSH1 0x40 PUSH0 KECCAK256 ADD SWAP2 DUP3 SLOAD PUSH2 0x2501 JUMP JUMPDEST SWAP1 SSTORE DUP1 SLOAD PUSH1 0x1 DUP1 PUSH1 0xA0 SHL SUB DUP6 AND PUSH0 MSTORE PUSH1 0x8 PUSH1 0x20 MSTORE PUSH1 0x4 PUSH1 0x40 PUSH0 KECCAK256 ADD SLOAD PUSH0 MSTORE PUSH1 0xA PUSH1 0x20 MSTORE PUSH2 0x15EA PUSH1 0x5 PUSH1 0x40 PUSH0 KECCAK256 ADD SWAP2 DUP3 SLOAD PUSH2 0x2501 JUMP JUMPDEST SWAP1 SSTORE PUSH2 0x15F9 DUP2 SLOAD PUSH1 0xE SLOAD PUSH2 0x2501 JUMP JUMPDEST PUSH1 0xE SSTORE SLOAD PUSH8 0xDE0B6B3A7640000 SWAP1 DUP2 DUP2 MUL SWAP2 DUP2 DUP4 DIV EQ SWAP1 ISZERO OR ISZERO PUSH2 0x10B2 JUMPI PUSH1 0xA PUSH1 0xFF SWAP2 DIV SWAP3 AND SWAP3 DUP4 DUP4 MUL SWAP3 DUP1 DUP5 DIV DUP6 EQ SWAP1 ISZERO OR ISZERO PUSH2 0x10B2 JUMPI PUSH1 0x4 PUSH1 0x20 SWAP3 PUSH1 0x64 PUSH32 0xDD1CBE89677C9A7F6426FAD5C7F38A5BE9608B18E42CDE90C1D60B264526AE89 SWAP6 DIV SWAP2 DUP3 SWAP2 ADD SSTORE PUSH2 0x166A DUP2 DUP4 PUSH2 0x279E JUMP JUMPDEST PUSH1 0x40 MLOAD SWAP1 PUSH1 0x44 CALLDATALOAD DUP3 MSTORE DUP4 DUP3 ADD MSTORE PUSH32 0x63863815B4DCF3C8ACAEEE732C56DFC0972A7DA5A49F45EF55463F47234EEE76 PUSH1 0x40 PUSH1 0x1 DUP1 PUSH1 0xA0 SHL SUB DUP5 AND SWAP3 LOG2 PUSH1 0x40 MLOAD SWAP4 DUP5 MSTORE PUSH1 0x1 PUSH1 0x1 PUSH1 0xA0 SHL SUB AND SWAP3 LOG2 STOP JUMPDEST POP POP SWAP1 PUSH1 0x1 SWAP1 PUSH2 0x1583 JUMP JUMPDEST DUP4 MLOAD PUSH1 0x1 PUSH1 0x1 PUSH1 0x40 SHL SUB DUP2 GT PUSH2 0x56B JUMPI DUP4 DUP4 ADD ADD PUSH1 0x60 DUP2 DUP9 SUB PUSH1 0x1F NOT ADD SLT PUSH2 0x56B JUMPI PUSH1 0x40 MLOAD SWAP1 PUSH2 0x16F2 DUP3 PUSH2 0x21DF JUMP JUMPDEST PUSH1 0x40 DUP2 ADD MLOAD DUP3 MSTORE PUSH1 0x60 DUP2 ADD MLOAD PUSH1 0x1 PUSH1 0x1 PUSH1 0x40 SHL SUB DUP2 GT PUSH2 0x56B JUMPI PUSH2 0x171F SWAP1 PUSH1 0x40 PUSH1 0x20 DUP12 ADD SWAP2 DUP5 ADD ADD PUSH2 0x24D3 JUMP JUMPDEST PUSH1 0x20 DUP4 ADD MSTORE PUSH1 0x80 DUP2 ADD MLOAD SWAP1 PUSH1 0x1 PUSH1 0x1 PUSH1 0x40 SHL SUB DUP3 GT PUSH2 0x56B JUMPI ADD PUSH1 0x20 DUP9 ADD PUSH1 0x5F DUP3 ADD SLT ISZERO PUSH2 0x56B JUMPI PUSH1 0x40 SWAP3 PUSH1 0x20 SWAP3 PUSH2 0x1763 DUP5 SWAP4 DUP5 DUP13 ADD SWAP1 PUSH1 0x60 DUP9 DUP3 ADD MLOAD SWAP2 ADD PUSH2 0x249E JUMP JUMPDEST DUP6 DUP3 ADD MSTORE DUP2 MSTORE ADD SWAP5 ADD SWAP4 SWAP1 POP PUSH2 0x1510 JUMP JUMPDEST PUSH1 0x40 MLOAD PUSH3 0x461BCD PUSH1 0xE5 SHL DUP2 MSTORE PUSH1 0x20 PUSH1 0x4 DUP3 ADD MSTORE PUSH1 0x23 PUSH1 0x24 DUP3 ADD MSTORE PUSH32 0x496E76616C6964207369676E617475726520666F722066756E6374696F6E2063 PUSH1 0x44 DUP3 ADD MSTORE PUSH3 0x185B1B PUSH1 0xEA SHL PUSH1 0x64 DUP3 ADD MSTORE PUSH1 0x84 SWAP1 REVERT JUMPDEST PUSH1 0x40 MLOAD PUSH3 0x461BCD PUSH1 0xE5 SHL DUP2 MSTORE PUSH1 0x20 PUSH1 0x4 DUP3 ADD MSTORE PUSH1 0x1C PUSH1 0x24 DUP3 ADD MSTORE PUSH32 0x496E76616C6964206B65726E656C20706172616D732064696765737400000000 PUSH1 0x44 DUP3 ADD MSTORE PUSH1 0x64 SWAP1 REVERT JUMPDEST PUSH1 0x40 MLOAD PUSH3 0x461BCD PUSH1 0xE5 SHL DUP2 MSTORE PUSH1 0x20 PUSH1 0x4 DUP3 ADD MSTORE PUSH1 0x26 PUSH1 0x24 DUP3 ADD MSTORE PUSH32 0x496E76616C6964207369676E617475726520666F72206B65726E656C20726573 PUSH1 0x44 DUP3 ADD MSTORE PUSH6 0x706F6E736573 PUSH1 0xD0 SHL PUSH1 0x64 DUP3 ADD MSTORE PUSH1 0x84 SWAP1 REVERT JUMPDEST PUSH1 0x40 MLOAD PUSH3 0x461BCD PUSH1 0xE5 SHL DUP2 MSTORE PUSH1 0x20 PUSH1 0x4 DUP3 ADD MSTORE PUSH1 0x16 PUSH1 0x24 DUP3 ADD MSTORE PUSH22 0x119A5B985B081BDC1A5B9A5BDB881C995D995C9D1959 PUSH1 0x52 SHL PUSH1 0x44 DUP3 ADD MSTORE PUSH1 0x64 SWAP1 REVERT JUMPDEST CALLVALUE PUSH2 0x56B JUMPI PUSH0 CALLDATASIZE PUSH1 0x3 NOT ADD SLT PUSH2 0x56B JUMPI PUSH2 0x18B4 PUSH2 0x2741 JUMP JUMPDEST PUSH1 0x5 DUP1 SLOAD PUSH1 0x1 PUSH1 0x1 PUSH1 0xA0 SHL SUB NOT DUP2 AND SWAP1 SWAP2 SSTORE PUSH0 SWAP1 PUSH1 0x1 PUSH1 0x1 PUSH1 0xA0 SHL SUB AND PUSH32 0x8BE0079C531659141344CD1FD0A4F28419497F9722A3DAAFE3B4186F6B6457E0 DUP3 DUP1 LOG3 STOP JUMPDEST CALLVALUE PUSH2 0x56B JUMPI PUSH1 0x20 CALLDATASIZE PUSH1 0x3 NOT ADD SLT PUSH2 0x56B JUMPI PUSH1 0x1 PUSH1 0x1 PUSH1 0xA0 SHL SUB PUSH2 0x1918 PUSH2 0x2167 JUMP JUMPDEST AND PUSH0 MSTORE PUSH0 PUSH1 0x20 MSTORE PUSH1 0x20 PUSH1 0x40 PUSH0 KECCAK256 SLOAD PUSH1 0x40 MLOAD SWAP1 DUP2 MSTORE RETURN JUMPDEST CALLVALUE PUSH2 0x56B JUMPI PUSH0 CALLDATASIZE PUSH1 0x3 NOT ADD SLT PUSH2 0x56B JUMPI PUSH1 0x20 PUSH1 0xC SLOAD PUSH1 0x40 MLOAD SWAP1 DUP2 MSTORE RETURN JUMPDEST CALLVALUE PUSH2 0x56B JUMPI PUSH0 CALLDATASIZE PUSH1 0x3 NOT ADD SLT PUSH2 0x56B JUMPI PUSH1 0x6 SLOAD PUSH1 0x40 MLOAD PUSH1 0x1 PUSH1 0x1 PUSH1 0xA0 SHL SUB SWAP1 SWAP2 AND DUP2 MSTORE PUSH1 0x20 SWAP1 RETURN JUMPDEST CALLVALUE PUSH2 0x56B JUMPI PUSH1 0x20 DUP1 PUSH1 0x3 NOT CALLDATASIZE ADD SLT PUSH2 0x56B JUMPI PUSH1 0xE0 SWAP1 PUSH0 PUSH1 0xC0 PUSH1 0x40 MLOAD PUSH2 0x1997 DUP2 PUSH2 0x21C4 JUMP JUMPDEST PUSH1 0x60 DUP2 MSTORE PUSH1 0x60 DUP5 DUP3 ADD MSTORE DUP3 PUSH1 0x40 DUP3 ADD MSTORE DUP3 PUSH1 0x60 DUP3 ADD MSTORE DUP3 PUSH1 0x80 DUP3 ADD MSTORE DUP3 PUSH1 0xA0 DUP3 ADD MSTORE ADD MSTORE PUSH1 0x4 CALLDATALOAD PUSH0 MSTORE PUSH1 0xA DUP2 MSTORE PUSH1 0x40 PUSH0 KECCAK256 PUSH1 0x40 MLOAD SWAP2 PUSH2 0x19D5 DUP4 PUSH2 0x21C4 JUMP JUMPDEST PUSH2 0x19DE DUP3 PUSH2 0x22EF JUMP JUMPDEST DUP4 MSTORE PUSH2 0x19EC PUSH1 0x1 DUP4 ADD PUSH2 0x22EF JUMP JUMPDEST SWAP2 DUP2 DUP5 ADD SWAP3 DUP4 MSTORE PUSH1 0x2 DUP2 ADD SLOAD SWAP3 PUSH1 0x40 DUP6 ADD SWAP4 DUP5 MSTORE PUSH1 0x3 DUP3 ADD SLOAD SWAP1 PUSH1 0x1 DUP1 PUSH1 0xA0 SHL SUB SWAP1 PUSH2 0x1A72 PUSH1 0x60 DUP9 ADD SWAP2 DUP4 DUP6 AND DUP4 MSTORE PUSH1 0xFF PUSH1 0x80 DUP11 ADD SWAP6 PUSH1 0xA0 SHR AND ISZERO ISZERO DUP6 MSTORE PUSH2 0x1A5F PUSH1 0x5 PUSH1 0x4 DUP9 ADD SLOAD SWAP8 PUSH1 0xA0 DUP13 ADD SWAP9 DUP10 MSTORE ADD SLOAD SWAP8 PUSH1 0xC0 DUP12 ADD SWAP9 DUP10 MSTORE PUSH1 0x40 MLOAD SWAP12 DUP13 SWAP12 DUP3 DUP14 MSTORE MLOAD SWAP2 DUP13 ADD MSTORE PUSH2 0x100 DUP12 ADD SWAP1 PUSH2 0x2142 JUMP JUMPDEST SWAP1 MLOAD DUP10 DUP3 SUB PUSH1 0x1F NOT ADD PUSH1 0x40 DUP12 ADD MSTORE PUSH2 0x2142 JUMP JUMPDEST SWAP6 MLOAD PUSH1 0x60 DUP9 ADD MSTORE MLOAD AND PUSH1 0x80 DUP7 ADD MSTORE MLOAD ISZERO ISZERO PUSH1 0xA0 DUP6 ADD MSTORE MLOAD PUSH1 0xC0 DUP5 ADD MSTORE MLOAD PUSH1 0xE0 DUP4 ADD MSTORE SUB SWAP1 RETURN JUMPDEST CALLVALUE PUSH2 0x56B JUMPI PUSH0 CALLDATASIZE PUSH1 0x3 NOT ADD SLT PUSH2 0x56B JUMPI PUSH1 0x20 PUSH1 0xE SLOAD PUSH1 0x40 MLOAD SWAP1 DUP2 MSTORE RETURN JUMPDEST CALLVALUE PUSH2 0x56B JUMPI PUSH1 0x20 DUP1 PUSH1 0x3 NOT CALLDATASIZE ADD SLT PUSH2 0x56B JUMPI PUSH1 0x4 CALLDATALOAD PUSH0 MSTORE PUSH1 0xB DUP2 MSTORE PUSH1 0x40 PUSH0 KECCAK256 PUSH1 0x40 MLOAD SWAP1 DUP2 DUP4 DUP3 SLOAD SWAP2 DUP3 DUP2 MSTORE ADD SWAP1 DUP2 SWAP3 PUSH0 MSTORE DUP5 PUSH0 KECCAK256 SWAP1 PUSH0 JUMPDEST DUP7 DUP3 DUP3 LT PUSH2 0x1B4A JUMPI DUP7 DUP7 PUSH2 0x1B02 DUP3 DUP9 SUB DUP4 PUSH2 0x21FA JUMP JUMPDEST PUSH1 0x40 MLOAD SWAP3 DUP4 SWAP3 DUP2 DUP5 ADD SWAP1 DUP3 DUP6 MSTORE MLOAD DUP1 SWAP2 MSTORE PUSH1 0x40 DUP5 ADD SWAP3 SWAP2 PUSH0 JUMPDEST DUP3 DUP2 LT PUSH2 0x1B2A JUMPI POP POP POP POP SUB SWAP1 RETURN JUMPDEST DUP4 MLOAD PUSH1 0x1 PUSH1 0x1 PUSH1 0xA0 SHL SUB AND DUP6 MSTORE DUP7 SWAP6 POP SWAP4 DUP2 ADD SWAP4 SWAP3 DUP2 ADD SWAP3 PUSH1 0x1 ADD PUSH2 0x1B1B JUMP JUMPDEST DUP4 SLOAD PUSH1 0x1 PUSH1 0x1 PUSH1 0xA0 SHL SUB AND DUP6 MSTORE SWAP1 SWAP4 ADD SWAP3 PUSH1 0x1 SWAP3 DUP4 ADD SWAP3 ADD PUSH2 0x1AEC JUMP JUMPDEST CALLVALUE PUSH2 0x56B JUMPI PUSH0 CALLDATASIZE PUSH1 0x3 NOT ADD SLT PUSH2 0x56B JUMPI PUSH1 0x20 PUSH1 0x40 MLOAD PUSH1 0x12 DUP2 MSTORE RETURN JUMPDEST CALLVALUE PUSH2 0x56B JUMPI PUSH1 0x20 CALLDATASIZE PUSH1 0x3 NOT ADD SLT PUSH2 0x56B JUMPI PUSH2 0x1B9B PUSH2 0x2167 JUMP JUMPDEST PUSH0 PUSH1 0x80 PUSH1 0x40 MLOAD PUSH2 0x1BAA DUP2 PUSH2 0x21A9 JUMP JUMPDEST DUP3 DUP2 MSTORE DUP3 PUSH1 0x20 DUP3 ADD MSTORE DUP3 PUSH1 0x40 DUP3 ADD MSTORE DUP3 PUSH1 0x60 DUP3 ADD MSTORE ADD MSTORE PUSH1 0x1 DUP1 PUSH1 0xA0 SHL SUB AND PUSH0 MSTORE PUSH1 0x8 PUSH1 0x20 MSTORE PUSH1 0xA0 PUSH1 0x40 PUSH0 KECCAK256 PUSH1 0x40 MLOAD PUSH2 0x1BE2 DUP2 PUSH2 0x21A9 JUMP JUMPDEST PUSH1 0xFF DUP3 SLOAD AND ISZERO ISZERO SWAP2 DUP3 DUP3 MSTORE PUSH1 0x1 DUP2 ADD SLOAD PUSH1 0x20 DUP4 ADD SWAP1 DUP2 MSTORE PUSH1 0x2 DUP3 ADD SLOAD SWAP1 PUSH1 0x40 DUP5 ADD SWAP2 DUP3 MSTORE PUSH1 0x80 PUSH1 0x4 PUSH1 0x3 DUP6 ADD SLOAD SWAP5 PUSH1 0x60 DUP8 ADD SWAP6 DUP7 MSTORE ADD SLOAD SWAP5 ADD SWAP4 DUP5 MSTORE PUSH1 0x40 MLOAD SWAP5 DUP6 MSTORE MLOAD PUSH1 0x20 DUP6 ADD MSTORE MLOAD PUSH1 0x40 DUP5 ADD MSTORE MLOAD PUSH1 0x60 DUP4 ADD MSTORE MLOAD PUSH1 0x80 DUP3 ADD MSTORE RETURN JUMPDEST CALLVALUE PUSH2 0x56B JUMPI PUSH1 0x60 CALLDATASIZE PUSH1 0x3 NOT ADD SLT PUSH2 0x56B JUMPI PUSH2 0x1C57 PUSH2 0x2167 JUMP JUMPDEST PUSH2 0x1C5F PUSH2 0x217D JUMP JUMPDEST PUSH1 0x1 PUSH1 0x1 PUSH1 0xA0 SHL SUB DUP3 AND PUSH0 DUP2 DUP2 MSTORE PUSH1 0x1 PUSH1 0x20 SWAP1 DUP2 MSTORE PUSH1 0x40 DUP1 DUP4 KECCAK256 CALLER DUP5 MSTORE SWAP1 SWAP2 MSTORE SWAP1 KECCAK256 SLOAD SWAP3 PUSH1 0x44 CALLDATALOAD SWAP3 SWAP2 PUSH0 NOT DUP6 LT PUSH2 0x1C9C JUMPI JUMPDEST POP PUSH2 0xDCC SWAP4 POP PUSH2 0x2667 JUMP JUMPDEST DUP4 DUP6 LT PUSH2 0x1D02 JUMPI DUP1 ISZERO PUSH2 0x1CEA JUMPI CALLER ISZERO PUSH2 0x1CD2 JUMPI PUSH2 0xDCC SWAP5 DUP5 SWAP2 PUSH0 MSTORE PUSH1 0x1 PUSH1 0x20 MSTORE PUSH1 0x40 PUSH0 KECCAK256 CALLER PUSH0 MSTORE PUSH1 0x20 MSTORE SUB PUSH1 0x40 PUSH0 KECCAK256 SSTORE DUP5 PUSH2 0x1C91 JUMP JUMPDEST PUSH1 0x40 MLOAD PUSH4 0x4A1406B1 PUSH1 0xE1 SHL DUP2 MSTORE PUSH0 PUSH1 0x4 DUP3 ADD MSTORE PUSH1 0x24 SWAP1 REVERT JUMPDEST PUSH1 0x40 MLOAD PUSH4 0xE602DF05 PUSH1 0xE0 SHL DUP2 MSTORE PUSH0 PUSH1 0x4 DUP3 ADD MSTORE PUSH1 0x24 SWAP1 REVERT JUMPDEST PUSH1 0x40 MLOAD PUSH4 0x7DC7A0D9 PUSH1 0xE1 SHL DUP2 MSTORE CALLER PUSH1 0x4 DUP3 ADD MSTORE PUSH1 0x24 DUP2 ADD DUP7 SWAP1 MSTORE PUSH1 0x44 DUP2 ADD DUP6 SWAP1 MSTORE PUSH1 0x64 SWAP1 REVERT JUMPDEST CALLVALUE PUSH2 0x56B JUMPI PUSH2 0x1D36 CALLDATASIZE PUSH2 0x2193 JUMP JUMPDEST DUP2 PUSH0 MSTORE PUSH1 0x20 PUSH1 0xA DUP2 MSTORE PUSH1 0xFF PUSH1 0x3 PUSH1 0x40 PUSH0 KECCAK256 ADD SLOAD PUSH1 0xA0 SHR AND ISZERO PUSH2 0x1EF8 JUMPI CALLER PUSH0 MSTORE PUSH1 0x8 DUP2 MSTORE PUSH1 0xFF PUSH1 0x40 PUSH0 KECCAK256 SLOAD AND PUSH2 0x1EC1 JUMPI DUP3 PUSH0 MSTORE PUSH1 0xA DUP2 MSTORE PUSH1 0x2 PUSH1 0x40 PUSH0 KECCAK256 ADD SLOAD DUP3 LT PUSH2 0x1E86 JUMPI PUSH2 0x1D85 DUP3 ADDRESS CALLER PUSH2 0x2667 JUMP JUMPDEST PUSH1 0x40 MLOAD PUSH2 0x1D91 DUP2 PUSH2 0x21A9 JUMP JUMPDEST PUSH1 0x1 DUP2 MSTORE PUSH1 0x4 DUP3 DUP3 ADD PUSH0 DUP2 MSTORE PUSH1 0x40 DUP4 ADD DUP6 DUP2 MSTORE PUSH1 0x60 DUP5 ADD SWAP1 PUSH0 DUP3 MSTORE PUSH1 0x80 DUP6 ADD SWAP3 DUP9 DUP5 MSTORE CALLER PUSH0 MSTORE PUSH1 0x8 DUP8 MSTORE PUSH2 0x1DD8 PUSH1 0x40 PUSH0 KECCAK256 SWAP7 MLOAD ISZERO ISZERO DUP8 SWAP1 PUSH1 0xFF DUP1 NOT DUP4 SLOAD AND SWAP2 ISZERO ISZERO AND OR SWAP1 SSTORE JUMP JUMPDEST MLOAD PUSH1 0x1 DUP7 ADD SSTORE MLOAD PUSH1 0x2 DUP6 ADD SSTORE MLOAD PUSH1 0x3 DUP5 ADD SSTORE MLOAD SWAP2 ADD SSTORE DUP3 PUSH0 MSTORE PUSH1 0xB DUP2 MSTORE PUSH1 0x40 PUSH0 KECCAK256 SWAP1 DUP2 SLOAD SWAP2 PUSH1 0x1 PUSH1 0x40 SHL DUP4 LT ISZERO PUSH2 0x497 JUMPI DUP3 PUSH2 0x1E3A SWAP2 PUSH1 0x1 PUSH32 0xAB585A62ABFFB5C5F3221CACD949F94B54770198CC25AF3AD1D315E51BE8E3E3 SWAP6 ADD DUP2 SSTORE PUSH2 0x2391 JUMP JUMPDEST DUP2 SLOAD SWAP1 PUSH1 0x3 SHL SWAP1 CALLER DUP3 SHL SWAP2 PUSH1 0x1 DUP1 PUSH1 0xA0 SHL SUB SWAP1 SHL NOT AND OR SWAP1 SSTORE DUP4 PUSH0 MSTORE PUSH1 0xA DUP2 MSTORE PUSH1 0x4 PUSH1 0x40 PUSH0 KECCAK256 ADD PUSH2 0x1E6B DUP2 SLOAD PUSH2 0x23A6 JUMP JUMPDEST SWAP1 SSTORE PUSH2 0x1E78 PUSH1 0xD SLOAD PUSH2 0x23A6 JUMP JUMPDEST PUSH1 0xD SSTORE PUSH1 0x40 MLOAD SWAP3 DUP4 MSTORE CALLER SWAP3 LOG3 STOP JUMPDEST PUSH1 0x64 SWAP1 PUSH1 0x40 MLOAD SWAP1 PUSH3 0x461BCD PUSH1 0xE5 SHL DUP3 MSTORE PUSH1 0x4 DUP3 ADD MSTORE PUSH1 0x14 PUSH1 0x24 DUP3 ADD MSTORE PUSH20 0x5374616B6520616D6F756E7420746F6F206C6F77 PUSH1 0x60 SHL PUSH1 0x44 DUP3 ADD MSTORE REVERT JUMPDEST PUSH1 0x64 SWAP1 PUSH1 0x40 MLOAD SWAP1 PUSH3 0x461BCD PUSH1 0xE5 SHL DUP3 MSTORE PUSH1 0x4 DUP3 ADD MSTORE PUSH1 0x10 PUSH1 0x24 DUP3 ADD MSTORE PUSH16 0x20B63932B0B23C90309036B2B6B132B9 PUSH1 0x81 SHL PUSH1 0x44 DUP3 ADD MSTORE REVERT JUMPDEST PUSH1 0x64 SWAP1 PUSH1 0x40 MLOAD SWAP1 PUSH3 0x461BCD PUSH1 0xE5 SHL DUP3 MSTORE PUSH1 0x4 DUP3 ADD MSTORE PUSH1 0x10 PUSH1 0x24 DUP3 ADD MSTORE PUSH16 0x47726F7570206E6F7420616374697665 PUSH1 0x80 SHL PUSH1 0x44 DUP3 ADD MSTORE REVERT JUMPDEST CALLVALUE PUSH2 0x56B JUMPI PUSH0 CALLDATASIZE PUSH1 0x3 NOT ADD SLT PUSH2 0x56B JUMPI PUSH1 0x20 PUSH1 0x2 SLOAD PUSH1 0x40 MLOAD SWAP1 DUP2 MSTORE RETURN JUMPDEST CALLVALUE PUSH2 0x56B JUMPI PUSH0 CALLDATASIZE PUSH1 0x3 NOT ADD SLT PUSH2 0x56B JUMPI PUSH1 0xD SLOAD PUSH1 0xE SLOAD PUSH1 0xC SLOAD PUSH0 NOT DUP2 ADD SWAP3 SWAP2 SWAP1 DUP4 GT PUSH2 0x10B2 JUMPI PUSH1 0x80 SWAP3 PUSH1 0x2 SLOAD SWAP2 PUSH1 0x40 MLOAD SWAP4 DUP5 MSTORE PUSH1 0x20 DUP5 ADD MSTORE PUSH1 0x40 DUP4 ADD MSTORE PUSH1 0x60 DUP3 ADD MSTORE RETURN JUMPDEST CALLVALUE PUSH2 0x56B JUMPI PUSH1 0x40 CALLDATASIZE PUSH1 0x3 NOT ADD SLT PUSH2 0x56B JUMPI PUSH2 0x1FA9 PUSH2 0x2167 JUMP JUMPDEST PUSH1 0x24 CALLDATALOAD SWAP1 CALLER ISZERO PUSH2 0x1CEA JUMPI PUSH1 0x1 PUSH1 0x1 PUSH1 0xA0 SHL SUB AND SWAP1 DUP2 ISZERO PUSH2 0x1CD2 JUMPI CALLER PUSH0 MSTORE PUSH1 0x1 PUSH1 0x20 MSTORE PUSH1 0x40 PUSH0 KECCAK256 DUP3 PUSH0 MSTORE PUSH1 0x20 MSTORE DUP1 PUSH1 0x40 PUSH0 KECCAK256 SSTORE PUSH1 0x40 MLOAD SWAP1 DUP2 MSTORE PUSH32 0x8C5BE1E5EBEC7D5BD14F71427D1E84F3DD0314C0F7B2291E5B200AC8C7C3B925 PUSH1 0x20 CALLER SWAP3 LOG3 PUSH1 0x20 PUSH1 0x40 MLOAD PUSH1 0x1 DUP2 MSTORE RETURN JUMPDEST CALLVALUE PUSH2 0x56B JUMPI PUSH1 0x20 CALLDATASIZE PUSH1 0x3 NOT ADD SLT PUSH2 0x56B JUMPI PUSH1 0x1 PUSH1 0x1 PUSH1 0xA0 SHL SUB PUSH2 0x2033 PUSH2 0x2167 JUMP JUMPDEST AND PUSH0 MSTORE PUSH1 0x8 PUSH1 0x20 MSTORE PUSH1 0xA0 PUSH1 0x40 PUSH0 KECCAK256 PUSH1 0xFF DUP2 SLOAD AND SWAP1 PUSH1 0x1 DUP2 ADD SLOAD SWAP1 PUSH1 0x2 DUP2 ADD SLOAD PUSH1 0x4 PUSH1 0x3 DUP4 ADD SLOAD SWAP3 ADD SLOAD SWAP3 PUSH1 0x40 MLOAD SWAP5 ISZERO ISZERO DUP6 MSTORE PUSH1 0x20 DUP6 ADD MSTORE PUSH1 0x40 DUP5 ADD MSTORE PUSH1 0x60 DUP4 ADD MSTORE PUSH1 0x80 DUP3 ADD MSTORE RETURN JUMPDEST CALLVALUE PUSH2 0x56B JUMPI PUSH0 CALLDATASIZE PUSH1 0x3 NOT ADD SLT PUSH2 0x56B JUMPI PUSH1 0x3 SLOAD PUSH0 DUP3 PUSH2 0x2099 DUP4 PUSH2 0x22B7 JUMP JUMPDEST SWAP2 DUP3 DUP3 MSTORE PUSH1 0x20 SWAP4 PUSH1 0x1 SWAP1 DUP6 PUSH1 0x1 DUP3 AND SWAP2 DUP3 PUSH0 EQ PUSH2 0xF33 JUMPI POP POP PUSH1 0x1 EQ PUSH2 0x20C6 JUMPI POP PUSH2 0xEC0 SWAP3 POP SUB DUP4 PUSH2 0x21FA JUMP JUMPDEST DUP5 SWAP2 POP PUSH1 0x3 PUSH0 MSTORE PUSH32 0xC2575A0E9E593C00F959F8C92F12DB2869C3395A3B0502D05E2516446F71F85B SWAP1 PUSH0 SWAP2 JUMPDEST DUP6 DUP4 LT PUSH2 0x2109 JUMPI POP POP PUSH2 0xEC0 SWAP4 POP DUP3 ADD ADD DUP6 PUSH2 0xEB3 JUMP JUMPDEST DUP1 SLOAD DUP4 DUP10 ADD DUP6 ADD MSTORE DUP8 SWAP5 POP DUP7 SWAP4 SWAP1 SWAP3 ADD SWAP2 DUP2 ADD PUSH2 0x20F2 JUMP JUMPDEST PUSH0 JUMPDEST DUP4 DUP2 LT PUSH2 0x2132 JUMPI POP POP PUSH0 SWAP2 ADD MSTORE JUMP JUMPDEST DUP2 DUP2 ADD MLOAD DUP4 DUP3 ADD MSTORE PUSH1 0x20 ADD PUSH2 0x2123 JUMP JUMPDEST SWAP1 PUSH1 0x20 SWAP2 PUSH2 0x215B DUP2 MLOAD DUP1 SWAP3 DUP2 DUP6 MSTORE DUP6 DUP1 DUP7 ADD SWAP2 ADD PUSH2 0x2121 JUMP JUMPDEST PUSH1 0x1F ADD PUSH1 0x1F NOT AND ADD ADD SWAP1 JUMP JUMPDEST PUSH1 0x4 CALLDATALOAD SWAP1 PUSH1 0x1 PUSH1 0x1 PUSH1 0xA0 SHL SUB DUP3 AND DUP3 SUB PUSH2 0x56B JUMPI JUMP JUMPDEST PUSH1 0x24 CALLDATALOAD SWAP1 PUSH1 0x1 PUSH1 0x1 PUSH1 0xA0 SHL SUB DUP3 AND DUP3 SUB PUSH2 0x56B JUMPI JUMP JUMPDEST PUSH1 0x40 SWAP1 PUSH1 0x3 NOT ADD SLT PUSH2 0x56B JUMPI PUSH1 0x4 CALLDATALOAD SWAP1 PUSH1 0x24 CALLDATALOAD SWAP1 JUMP JUMPDEST PUSH1 0xA0 DUP2 ADD SWAP1 DUP2 LT PUSH1 0x1 PUSH1 0x1 PUSH1 0x40 SHL SUB DUP3 GT OR PUSH2 0x497 JUMPI PUSH1 0x40 MSTORE JUMP JUMPDEST PUSH1 0xE0 DUP2 ADD SWAP1 DUP2 LT PUSH1 0x1 PUSH1 0x1 PUSH1 0x40 SHL SUB DUP3 GT OR PUSH2 0x497 JUMPI PUSH1 0x40 MSTORE JUMP JUMPDEST PUSH1 0x60 DUP2 ADD SWAP1 DUP2 LT PUSH1 0x1 PUSH1 0x1 PUSH1 0x40 SHL SUB DUP3 GT OR PUSH2 0x497 JUMPI PUSH1 0x40 MSTORE JUMP JUMPDEST SWAP1 PUSH1 0x1F DUP1 NOT SWAP2 ADD AND DUP2 ADD SWAP1 DUP2 LT PUSH1 0x1 PUSH1 0x1 PUSH1 0x40 SHL SUB DUP3 GT OR PUSH2 0x497 JUMPI PUSH1 0x40 MSTORE JUMP JUMPDEST PUSH1 0x1 PUSH1 0x1 PUSH1 0x40 SHL SUB DUP2 GT PUSH2 0x497 JUMPI PUSH1 0x1F ADD PUSH1 0x1F NOT AND PUSH1 0x20 ADD SWAP1 JUMP JUMPDEST SWAP3 SWAP2 SWAP3 PUSH2 0x2242 DUP3 PUSH2 0x221B JUMP JUMPDEST SWAP2 PUSH2 0x2250 PUSH1 0x40 MLOAD SWAP4 DUP5 PUSH2 0x21FA JUMP JUMPDEST DUP3 SWAP5 DUP2 DUP5 MSTORE DUP2 DUP4 ADD GT PUSH2 0x56B JUMPI DUP3 DUP2 PUSH1 0x20 SWAP4 DUP5 PUSH0 SWAP7 ADD CALLDATACOPY ADD ADD MSTORE JUMP JUMPDEST SWAP1 DUP1 PUSH1 0x1F DUP4 ADD SLT ISZERO PUSH2 0x56B JUMPI DUP2 PUSH1 0x20 PUSH2 0x2287 SWAP4 CALLDATALOAD SWAP2 ADD PUSH2 0x2236 JUMP JUMPDEST SWAP1 JUMP JUMPDEST DUP1 SLOAD DUP3 LT ISZERO PUSH2 0x22A3 JUMPI PUSH0 MSTORE PUSH1 0x5 PUSH1 0x20 PUSH0 KECCAK256 SWAP2 MUL ADD SWAP1 PUSH0 SWAP1 JUMP JUMPDEST PUSH4 0x4E487B71 PUSH1 0xE0 SHL PUSH0 MSTORE PUSH1 0x32 PUSH1 0x4 MSTORE PUSH1 0x24 PUSH0 REVERT JUMPDEST SWAP1 PUSH1 0x1 DUP3 DUP2 SHR SWAP3 AND DUP1 ISZERO PUSH2 0x22E5 JUMPI JUMPDEST PUSH1 0x20 DUP4 LT EQ PUSH2 0x22D1 JUMPI JUMP JUMPDEST PUSH4 0x4E487B71 PUSH1 0xE0 SHL PUSH0 MSTORE PUSH1 0x22 PUSH1 0x4 MSTORE PUSH1 0x24 PUSH0 REVERT JUMPDEST SWAP2 PUSH1 0x7F AND SWAP2 PUSH2 0x22C6 JUMP JUMPDEST SWAP1 PUSH1 0x40 MLOAD SWAP2 DUP3 PUSH0 DUP3 SLOAD PUSH2 0x2301 DUP2 PUSH2 0x22B7 JUMP JUMPDEST SWAP1 DUP2 DUP5 MSTORE PUSH1 0x20 SWAP5 PUSH1 0x1 SWAP2 PUSH1 0x1 DUP2 AND SWAP1 DUP2 PUSH0 EQ PUSH2 0x236F JUMPI POP PUSH1 0x1 EQ PUSH2 0x2331 JUMPI JUMPDEST POP POP POP PUSH2 0x232F SWAP3 POP SUB DUP4 PUSH2 0x21FA JUMP JUMPDEST JUMP JUMPDEST PUSH0 SWAP1 DUP2 MSTORE DUP6 DUP2 KECCAK256 SWAP6 SWAP4 POP SWAP2 SWAP1 JUMPDEST DUP2 DUP4 LT PUSH2 0x2357 JUMPI POP POP PUSH2 0x232F SWAP4 POP DUP3 ADD ADD PUSH0 DUP1 DUP1 PUSH2 0x2320 JUMP JUMPDEST DUP6 SLOAD DUP9 DUP5 ADD DUP6 ADD MSTORE SWAP5 DUP6 ADD SWAP5 DUP8 SWAP5 POP SWAP2 DUP4 ADD SWAP2 PUSH2 0x233E JUMP JUMPDEST SWAP3 POP POP POP PUSH2 0x232F SWAP5 SWAP3 POP PUSH1 0xFF NOT AND DUP3 DUP5 ADD MSTORE ISZERO ISZERO PUSH1 0x5 SHL DUP3 ADD ADD PUSH0 DUP1 DUP1 PUSH2 0x2320 JUMP JUMPDEST DUP1 SLOAD DUP3 LT ISZERO PUSH2 0x22A3 JUMPI PUSH0 MSTORE PUSH1 0x20 PUSH0 KECCAK256 ADD SWAP1 PUSH0 SWAP1 JUMP JUMPDEST PUSH0 NOT DUP2 EQ PUSH2 0x10B2 JUMPI PUSH1 0x1 ADD SWAP1 JUMP JUMPDEST ISZERO PUSH2 0x23BB JUMPI JUMP JUMPDEST PUSH1 0x40 MLOAD PUSH3 0x461BCD PUSH1 0xE5 SHL DUP2 MSTORE PUSH1 0x20 PUSH1 0x4 DUP3 ADD MSTORE PUSH1 0x14 PUSH1 0x24 DUP3 ADD MSTORE PUSH20 0x2737BA1030B71030B1BA34BB329036B2B6B132B9 PUSH1 0x61 SHL PUSH1 0x44 DUP3 ADD MSTORE PUSH1 0x64 SWAP1 REVERT JUMPDEST ISZERO PUSH2 0x23FE JUMPI JUMP JUMPDEST PUSH1 0x40 MLOAD PUSH3 0x461BCD PUSH1 0xE5 SHL DUP2 MSTORE PUSH1 0x20 PUSH1 0x4 DUP3 ADD MSTORE PUSH1 0x15 PUSH1 0x24 DUP3 ADD MSTORE PUSH21 0x92DCECC2D8D2C840E6CAE6E6D2DEDC40D2DCC8CAF PUSH1 0x5B SHL PUSH1 0x44 DUP3 ADD MSTORE PUSH1 0x64 SWAP1 REVERT JUMPDEST ISZERO PUSH2 0x2442 JUMPI JUMP JUMPDEST PUSH1 0x40 MLOAD PUSH3 0x461BCD PUSH1 0xE5 SHL DUP2 MSTORE PUSH1 0x20 PUSH1 0x4 DUP3 ADD MSTORE PUSH1 0x18 PUSH1 0x24 DUP3 ADD MSTORE PUSH32 0x53657373696F6E20616C72656164792076657269666965640000000000000000 PUSH1 0x44 DUP3 ADD MSTORE PUSH1 0x64 SWAP1 REVERT JUMPDEST PUSH1 0x1 PUSH1 0x1 PUSH1 0x40 SHL SUB DUP2 GT PUSH2 0x497 JUMPI PUSH1 0x5 SHL PUSH1 0x20 ADD SWAP1 JUMP JUMPDEST SWAP1 SWAP3 SWAP2 SWAP3 PUSH2 0x24AB DUP2 PUSH2 0x221B JUMP JUMPDEST SWAP2 PUSH2 0x24B9 PUSH1 0x40 MLOAD SWAP4 DUP5 PUSH2 0x21FA JUMP JUMPDEST DUP3 SWAP5 DUP3 DUP5 MSTORE DUP3 DUP3 ADD GT PUSH2 0x56B JUMPI PUSH1 0x20 PUSH2 0x232F SWAP4 ADD SWAP1 PUSH2 0x2121 JUMP JUMPDEST SWAP1 DUP1 PUSH1 0x1F DUP4 ADD SLT ISZERO PUSH2 0x56B JUMPI DUP2 MLOAD PUSH2 0x2287 SWAP3 PUSH1 0x20 ADD PUSH2 0x249E JUMP JUMPDEST DUP1 MLOAD DUP3 LT ISZERO PUSH2 0x22A3 JUMPI PUSH1 0x20 SWAP2 PUSH1 0x5 SHL ADD ADD SWAP1 JUMP JUMPDEST SWAP2 SWAP1 DUP3 ADD DUP1 SWAP3 GT PUSH2 0x10B2 JUMPI JUMP JUMPDEST SWAP1 PUSH1 0x40 MLOAD PUSH2 0x251B DUP2 PUSH2 0x21A9 JUMP JUMPDEST PUSH1 0x80 PUSH1 0x4 DUP3 SWAP5 DUP1 SLOAD DUP5 MSTORE PUSH1 0x1 DUP2 ADD SLOAD PUSH1 0x20 DUP6 ADD MSTORE PUSH2 0x253B PUSH1 0x2 DUP3 ADD PUSH2 0x22EF JUMP JUMPDEST PUSH1 0x40 DUP6 ADD MSTORE PUSH1 0xFF PUSH1 0x3 DUP3 ADD SLOAD AND ISZERO ISZERO PUSH1 0x60 DUP6 ADD MSTORE ADD SLOAD SWAP2 ADD MSTORE JUMP JUMPDEST PUSH1 0x1 PUSH1 0x1 PUSH1 0xA0 SHL SUB AND PUSH0 DUP2 DUP2 MSTORE PUSH1 0x8 PUSH1 0x20 MSTORE PUSH1 0x40 SWAP1 KECCAK256 SLOAD PUSH1 0xFF AND ISZERO DUP1 ISZERO PUSH2 0x25EB JUMPI JUMPDEST PUSH2 0x25E4 JUMPI PUSH1 0x9 PUSH1 0x20 MSTORE PUSH1 0x40 PUSH0 KECCAK256 SLOAD PUSH0 NOT DUP2 ADD SWAP2 SWAP1 DUP3 GT PUSH2 0x10B2 JUMPI PUSH0 MSTORE PUSH1 0x9 PUSH1 0x20 MSTORE PUSH2 0x25AF PUSH2 0x25A9 DUP3 PUSH1 0x40 PUSH0 KECCAK256 PUSH2 0x228A JUMP JUMPDEST POP PUSH2 0x250E JUMP JUMPDEST PUSH1 0x60 DUP2 ADD MLOAD ISZERO SWAP1 DUP2 PUSH2 0x25CD JUMPI JUMPDEST POP PUSH2 0x25C8 JUMPI POP PUSH0 SWAP1 PUSH0 SWAP1 JUMP JUMPDEST PUSH1 0x1 SWAP2 JUMP JUMPDEST SWAP1 POP MLOAD TIMESTAMP SUB TIMESTAMP DUP2 GT PUSH2 0x10B2 JUMPI PUSH3 0x15180 GT PUSH0 PUSH2 0x25BC JUMP JUMPDEST POP PUSH0 SWAP1 PUSH0 SWAP1 JUMP JUMPDEST POP PUSH1 0x9 PUSH1 0x20 MSTORE PUSH1 0x40 PUSH0 KECCAK256 SLOAD ISZERO PUSH2 0x2578 JUMP JUMPDEST ISZERO PUSH2 0x2603 JUMPI JUMP JUMPDEST PUSH1 0x40 MLOAD PUSH3 0x461BCD PUSH1 0xE5 SHL DUP2 MSTORE PUSH1 0x20 PUSH1 0x4 DUP3 ADD MSTORE PUSH1 0x2A PUSH1 0x24 DUP3 ADD MSTORE PUSH32 0x4F6E6C7920616374697665206D656D626572732063616E2063616C6C20746869 PUSH1 0x44 DUP3 ADD MSTORE PUSH10 0x3990333AB731BA34B7B7 PUSH1 0xB1 SHL PUSH1 0x64 DUP3 ADD MSTORE PUSH1 0x84 SWAP1 REVERT JUMPDEST DUP1 ISZERO PUSH2 0x10B2 JUMPI PUSH0 NOT ADD SWAP1 JUMP JUMPDEST SWAP2 PUSH1 0x1 PUSH1 0x1 PUSH1 0xA0 SHL SUB DUP1 DUP5 AND SWAP3 DUP4 ISZERO PUSH2 0x2729 JUMPI AND SWAP3 DUP4 ISZERO PUSH2 0x2711 JUMPI DUP3 PUSH0 MSTORE PUSH0 PUSH1 0x20 MSTORE PUSH1 0x40 PUSH0 KECCAK256 SLOAD SWAP1 DUP3 DUP3 LT PUSH2 0x26DF JUMPI POP DUP2 PUSH32 0xDDF252AD1BE2C89B69C2B068FC378DAA952BA7F163C4A11628F55A4DF523B3EF SWAP3 PUSH1 0x20 SWAP3 DUP6 PUSH0 MSTORE PUSH0 DUP5 MSTORE SUB PUSH1 0x40 PUSH0 KECCAK256 SSTORE DUP5 PUSH0 MSTORE PUSH1 0x40 PUSH0 KECCAK256 DUP2 DUP2 SLOAD ADD SWAP1 SSTORE PUSH1 0x40 MLOAD SWAP1 DUP2 MSTORE LOG3 JUMP JUMPDEST PUSH1 0x40 MLOAD PUSH4 0x391434E3 PUSH1 0xE2 SHL DUP2 MSTORE PUSH1 0x1 PUSH1 0x1 PUSH1 0xA0 SHL SUB SWAP2 SWAP1 SWAP2 AND PUSH1 0x4 DUP3 ADD MSTORE PUSH1 0x24 DUP2 ADD SWAP2 SWAP1 SWAP2 MSTORE PUSH1 0x44 DUP2 ADD DUP3 SWAP1 MSTORE PUSH1 0x64 SWAP1 REVERT JUMPDEST PUSH1 0x40 MLOAD PUSH4 0xEC442F05 PUSH1 0xE0 SHL DUP2 MSTORE PUSH0 PUSH1 0x4 DUP3 ADD MSTORE PUSH1 0x24 SWAP1 REVERT JUMPDEST PUSH1 0x40 MLOAD PUSH4 0x4B637E8F PUSH1 0xE1 SHL DUP2 MSTORE PUSH0 PUSH1 0x4 DUP3 ADD MSTORE PUSH1 0x24 SWAP1 REVERT JUMPDEST PUSH1 0x5 SLOAD PUSH1 0x1 PUSH1 0x1 PUSH1 0xA0 SHL SUB AND CALLER SUB PUSH2 0x2755 JUMPI JUMP JUMPDEST PUSH1 0x40 MLOAD PUSH4 0x118CDAA7 PUSH1 0xE0 SHL DUP2 MSTORE CALLER PUSH1 0x4 DUP3 ADD MSTORE PUSH1 0x24 SWAP1 REVERT JUMPDEST PUSH1 0x20 SWAP1 PUSH2 0x2783 PUSH1 0x14 SWAP5 SWAP4 DUP3 DUP2 MLOAD SWAP5 DUP6 SWAP3 ADD PUSH2 0x2121 JUMP JUMPDEST ADD SWAP1 PUSH12 0xFFFFFFFFFFFFFFFFFFFFFFFF NOT SWAP1 PUSH1 0x60 SHL AND DUP2 MSTORE ADD SWAP1 JUMP JUMPDEST PUSH1 0x1 PUSH1 0x1 PUSH1 0xA0 SHL SUB AND SWAP1 DUP2 ISZERO PUSH2 0x2711 JUMPI PUSH32 0xDDF252AD1BE2C89B69C2B068FC378DAA952BA7F163C4A11628F55A4DF523B3EF PUSH1 0x20 DUP3 PUSH2 0x27DF PUSH0 SWAP5 PUSH1 0x2 SLOAD PUSH2 0x2501 JUMP JUMPDEST PUSH1 0x2 SSTORE DUP5 DUP5 MSTORE DUP4 DUP3 MSTORE PUSH1 0x40 DUP5 KECCAK256 DUP2 DUP2 SLOAD ADD SWAP1 SSTORE PUSH1 0x40 MLOAD SWAP1 DUP2 MSTORE LOG3 JUMP JUMPDEST DUP2 MLOAD SWAP2 SWAP1 PUSH1 0x41 DUP4 SUB PUSH2 0x282B JUMPI PUSH2 0x2824 SWAP3 POP PUSH1 0x20 DUP3 ADD MLOAD SWAP1 PUSH1 0x60 PUSH1 0x40 DUP5 ADD MLOAD SWAP4 ADD MLOAD PUSH0 BYTE SWAP1 PUSH2 0x28B8 JUMP JUMPDEST SWAP2 SWAP3 SWAP1 SWAP2 SWAP1 JUMP JUMPDEST POP POP PUSH0 SWAP2 PUSH1 0x2 SWAP2 SWAP1 JUMP JUMPDEST PUSH1 0x4 DUP2 LT ISZERO PUSH2 0x28A4 JUMPI DUP1 PUSH2 0x2847 JUMPI POP POP JUMP JUMPDEST PUSH1 0x1 DUP2 SUB PUSH2 0x2861 JUMPI PUSH1 0x40 MLOAD PUSH4 0xF645EEDF PUSH1 0xE0 SHL DUP2 MSTORE PUSH1 0x4 SWAP1 REVERT JUMPDEST PUSH1 0x2 DUP2 SUB PUSH2 0x2882 JUMPI PUSH1 0x40 MLOAD PUSH4 0xFCE698F7 PUSH1 0xE0 SHL DUP2 MSTORE PUSH1 0x4 DUP2 ADD DUP4 SWAP1 MSTORE PUSH1 0x24 SWAP1 REVERT JUMPDEST PUSH1 0x3 EQ PUSH2 0x288C JUMPI POP JUMP JUMPDEST PUSH1 0x24 SWAP1 PUSH1 0x40 MLOAD SWAP1 PUSH4 0x35E2F383 PUSH1 0xE2 SHL DUP3 MSTORE PUSH1 0x4 DUP3 ADD MSTORE REVERT JUMPDEST PUSH4 0x4E487B71 PUSH1 0xE0 SHL PUSH0 MSTORE PUSH1 0x21 PUSH1 0x4 MSTORE PUSH1 0x24 PUSH0 REVERT JUMPDEST SWAP2 SWAP1 PUSH32 0x7FFFFFFFFFFFFFFFFFFFFFFFFFFFFFFF5D576E7357A4501DDFE92F46681B20A0 DUP5 GT PUSH2 0x293A JUMPI SWAP2 PUSH1 0x20 SWAP4 PUSH1 0x80 SWAP3 PUSH1 0xFF PUSH0 SWAP6 PUSH1 0x40 MLOAD SWAP5 DUP6 MSTORE AND DUP7 DUP5 ADD MSTORE PUSH1 0x40 DUP4 ADD MSTORE PUSH1 0x60 DUP3 ADD MSTORE DUP3 DUP1 MSTORE PUSH1 0x1 GAS STATICCALL ISZERO PUSH2 0x292F JUMPI PUSH0 MLOAD PUSH1 0x1 PUSH1 0x1 PUSH1 0xA0 SHL SUB DUP2 AND ISZERO PUSH2 0x2925 JUMPI SWAP1 PUSH0 SWAP1 PUSH0 SWAP1 JUMP JUMPDEST POP PUSH0 SWAP1 PUSH1 0x1 SWAP1 PUSH0 SWAP1 JUMP JUMPDEST PUSH1 0x40 MLOAD RETURNDATASIZE PUSH0 DUP3 RETURNDATACOPY RETURNDATASIZE SWAP1 REVERT JUMPDEST POP POP POP PUSH0 SWAP2 PUSH1 0x3 SWAP2 SWAP1 JUMP INVALID LOG2 PUSH5 0x6970667358 0x22 SLT KECCAK256 0xC1 PUSH13 0x3B7343AD1313C8C9026E0DCECF 0xB8 DUP5 0xD SLOAD 0x2F GASPRICE 0xA6 TLOAD 0xE0 0xD5 0xD1 SMOD SGT RETURN 0xAE PUSH17 0x7C64736F6C634300081800330000000000 "
		},
		"gasEstimates": {
			"creation": {
				"codeDepositCost": "2123800",
				"executionCost": "infinite",
				"totalCost": "infinite"
			},
			"external": {
				"allowance(address,address)": "3234",
				"approve(address,uint256)": "24347",
				"balanceOf(address)": "2713",
				"canVerifyRecentSession(address)": "infinite",
				"createStudyGroup(string,string,uint256)": "infinite",
				"decimals()": "329",
				"emergencyWithdraw()": "40673",
				"executed(bytes)": "infinite",
				"getGroupMembers(uint256)": "infinite",
				"getMember(address)": "infinite",
				"getMemberStudySessions(address)": "infinite",
				"getPlatformStats()": "8721",
				"getStudyGroup(uint256)": "infinite",
				"groupMembers(uint256,uint256)": "7308",
				"joinGroup(uint256,uint256)": "infinite",
				"leaveGroup()": "infinite",
				"logStudySession(uint256,string)": "infinite",
				"memberStudySessions(address,uint256)": "infinite",
				"members(address)": "10948",
				"name()": "infinite",
				"nextGroupId()": "2542",
				"owner()": "2698",
				"pauseGroup(uint256)": "27232",
				"renounceOwnership()": "28390",
				"setTokenAuthorityPublicKey(address)": "27251",
				"studyGroups(uint256)": "infinite",
				"symbol()": "infinite",
				"tokenAuthorityPublicKey()": "2544",
				"totalMembers()": "2630",
				"totalStudyMinutes()": "2476",
				"totalSupply()": "2344",
				"transfer(address,uint256)": "51273",
				"transferFrom(address,address,uint256)": "75556",
				"transferOwnership(address)": "28920",
				"unpauseGroup(uint256)": "27156",
				"verifyStudySession(address,uint256)": "infinite",
				"verifyStudySessionWithKRNL((bytes,bytes,bytes),address,uint256)": "infinite"
			},
			"internal": {
				"_isAuthorized(struct KrnlPayload memory,bytes memory)": "infinite"
			}
		},
		"methodIdentifiers": {
			"allowance(address,address)": "dd62ed3e",
			"approve(address,uint256)": "095ea7b3",
			"balanceOf(address)": "70a08231",
			"canVerifyRecentSession(address)": "8955dcba",
			"createStudyGroup(string,string,uint256)": "fd29ea7e",
			"decimals()": "313ce567",
			"emergencyWithdraw()": "db2e21bc",
			"executed(bytes)": "909dd263",
			"getGroupMembers(uint256)": "36cc8130",
			"getMember(address)": "2ada2596",
			"getMemberStudySessions(address)": "e1da7790",
			"getPlatformStats()": "136d8883",
			"getStudyGroup(uint256)": "49c9436c",
			"groupMembers(uint256,uint256)": "c6f6a749",
			"joinGroup(uint256,uint256)": "1a0c750c",
			"leaveGroup()": "cb1fb490",
			"logStudySession(uint256,string)": "e82b0c91",
			"memberStudySessions(address,uint256)": "9976fb2a",
			"members(address)": "08ae4b0c",
			"name()": "06fdde03",
			"nextGroupId()": "5eda7a76",
			"owner()": "8da5cb5b",
			"pauseGroup(uint256)": "d40bcae8",
			"renounceOwnership()": "715018a6",
			"setTokenAuthorityPublicKey(address)": "d213d86b",
			"studyGroups(uint256)": "f003a104",
			"symbol()": "95d89b41",
			"tokenAuthorityPublicKey()": "4ba1cfe4",
			"totalMembers()": "76e92559",
			"totalStudyMinutes()": "47ec71a8",
			"totalSupply()": "18160ddd",
			"transfer(address,uint256)": "a9059cbb",
			"transferFrom(address,address,uint256)": "23b872dd",
			"transferOwnership(address)": "f2fde38b",
			"unpauseGroup(uint256)": "b056c4e6",
			"verifyStudySession(address,uint256)": "940b7c76",
			"verifyStudySessionWithKRNL((bytes,bytes,bytes),address,uint256)": "7472a2e6"
		}
	},
	"abi": [
		{
			"inputs": [
				{
					"internalType": "address",
					"name": "_tokenAuthorityPublicKey",
					"type": "address"
				},
				{
					"internalType": "uint256",
					"name": "initialSupply",
					"type": "uint256"
				}
			],
			"stateMutability": "nonpayable",
			"type": "constructor"
		},
		{
			"inputs": [],
			"name": "ECDSAInvalidSignature",
			"type": "error"
		},
		{
			"inputs": [
				{
					"internalType": "uint256",
					"name": "length",
					"type": "uint256"
				}
			],
			"name": "ECDSAInvalidSignatureLength",
			"type": "error"
		},
		{
			"inputs": [
				{
					"internalType": "bytes32",
					"name": "s",
					"type": "bytes32"
				}
			],
			"name": "ECDSAInvalidSignatureS",
			"type": "error"
		},
		{
			"inputs": [
				{
					"internalType": "address",
					"name": "spender",
					"type": "address"
				},
				{
					"internalType": "uint256",
					"name": "allowance",
					"type": "uint256"
				},
				{
					"internalType": "uint256",
					"name": "needed",
					"type": "uint256"
				}
			],
			"name": "ERC20InsufficientAllowance",
			"type": "error"
		},
		{
			"inputs": [
				{
					"internalType": "address",
					"name": "sender",
					"type": "address"
				},
				{
					"internalType": "uint256",
					"name": "balance",
					"type": "uint256"
				},
				{
					"internalType": "uint256",
					"name": "needed",
					"type": "uint256"
				}
			],
			"name": "ERC20InsufficientBalance",
			"type": "error"
		},
		{
			"inputs": [
				{
					"internalType": "address",
					"name": "approver",
					"type": "address"
				}
			],
			"name": "ERC20InvalidApprover",
			"type": "error"
		},
		{
			"inputs": [
				{
					"internalType": "address",
					"name": "receiver",
					"type": "address"
				}
			],
			"name": "ERC20InvalidReceiver",
			"type": "error"
		},
		{
			"inputs": [
				{
					"internalType": "address",
					"name": "sender",
					"type": "address"
				}
			],
			"name": "ERC20InvalidSender",
			"type": "error"
		},
		{
			"inputs": [
				{
					"internalType": "address",
					"name": "spender",
					"type": "address"
				}
			],
			"name": "ERC20InvalidSpender",
			"type": "error"
		},
		{
			"inputs": [
				{
					"internalType": "address",
					"name": "owner",
					"type": "address"
				}
			],
			"name": "OwnableInvalidOwner",
			"type": "error"
		},
		{
			"inputs": [
				{
					"internalType": "address",
					"name": "account",
					"type": "address"
				}
			],
			"name": "OwnableUnauthorizedAccount",
			"type": "error"
		},
		{
			"inputs": [],
			"name": "UnauthorizedTransaction",
			"type": "error"
		},
		{
			"anonymous": false,
			"inputs": [
				{
					"indexed": true,
					"internalType": "address",
					"name": "owner",
					"type": "address"
				},
				{
					"indexed": true,
					"internalType": "address",
					"name": "spender",
					"type": "address"
				},
				{
					"indexed": false,
					"internalType": "uint256",
					"name": "value",
					"type": "uint256"
				}
			],
			"name": "Approval",
			"type": "event"
		},
		{
			"anonymous": false,
			"inputs": [
				{
					"indexed": true,
					"internalType": "address",
					"name": "member",
					"type": "address"
				},
				{
					"indexed": true,
					"internalType": "uint256",
					"name": "groupId",
					"type": "uint256"
				},
				{
					"indexed": false,
					"internalType": "uint256",
					"name": "stakeAmount",
					"type": "uint256"
				}
			],
			"name": "MemberJoined",
			"type": "event"
		},
		{
			"anonymous": false,
			"inputs": [
				{
					"indexed": true,
					"internalType": "address",
					"name": "member",
					"type": "address"
				},
				{
					"indexed": true,
					"internalType": "uint256",
					"name": "groupId",
					"type": "uint256"
				},
				{
					"indexed": false,
					"internalType": "uint256",
					"name": "returnedStake",
					"type": "uint256"
				}
			],
			"name": "MemberLeft",
			"type": "event"
		},
		{
			"anonymous": false,
			"inputs": [
				{
					"indexed": true,
					"internalType": "address",
					"name": "previousOwner",
					"type": "address"
				},
				{
					"indexed": true,
					"internalType": "address",
					"name": "newOwner",
					"type": "address"
				}
			],
			"name": "OwnershipTransferred",
			"type": "event"
		},
		{
			"anonymous": false,
			"inputs": [
				{
					"indexed": true,
					"internalType": "uint256",
					"name": "groupId",
					"type": "uint256"
				},
				{
					"indexed": false,
					"internalType": "string",
					"name": "name",
					"type": "string"
				},
				{
					"indexed": false,
					"internalType": "address",
					"name": "admin",
					"type": "address"
				}
			],
			"name": "StudyGroupCreated",
			"type": "event"
		},
		{
			"anonymous": false,
			"inputs": [
				{
					"indexed": true,
					"internalType": "address",
					"name": "member",
					"type": "address"
				},
				{
					"indexed": true,
					"internalType": "uint256",
					"name": "groupId",
					"type": "uint256"
				},
				{
					"indexed": false,
					"internalType": "uint256",
					"name": "duration",
					"type": "uint256"
				},
				{
					"indexed": false,
					"internalType": "string",
					"name": "studyTopic",
					"type": "string"
				}
			],
			"name": "StudySessionLogged",
			"type": "event"
		},
		{
			"anonymous": false,
			"inputs": [
				{
					"indexed": true,
					"internalType": "address",
					"name": "member",
					"type": "address"
				},
				{
					"indexed": false,
					"internalType": "uint256",
					"name": "sessionIndex",
					"type": "uint256"
				},
				{
					"indexed": false,
					"internalType": "uint256",
					"name": "rewardAmount",
					"type": "uint256"
				}
			],
			"name": "StudySessionVerified",
			"type": "event"
		},
		{
			"anonymous": false,
			"inputs": [
				{
					"indexed": true,
					"internalType": "address",
					"name": "member",
					"type": "address"
				},
				{
					"indexed": false,
					"internalType": "uint8",
					"name": "recommendedAllocation",
					"type": "uint8"
				}
			],
			"name": "TokenAllocationRecommended",
			"type": "event"
		},
		{
			"anonymous": false,
			"inputs": [
				{
					"indexed": true,
					"internalType": "address",
					"name": "from",
					"type": "address"
				},
				{
					"indexed": true,
					"internalType": "address",
					"name": "to",
					"type": "address"
				},
				{
					"indexed": false,
					"internalType": "uint256",
					"name": "value",
					"type": "uint256"
				}
			],
			"name": "Transfer",
			"type": "event"
		},
		{
			"inputs": [
				{
					"internalType": "address",
					"name": "owner",
					"type": "address"
				},
				{
					"internalType": "address",
					"name": "spender",
					"type": "address"
				}
			],
			"name": "allowance",
			"outputs": [
				{
					"internalType": "uint256",
					"name": "",
					"type": "uint256"
				}
			],
			"stateMutability": "view",
			"type": "function"
		},
		{
			"inputs": [
				{
					"internalType": "address",
					"name": "spender",
					"type": "address"
				},
				{
					"internalType": "uint256",
					"name": "value",
					"type": "uint256"
				}
			],
			"name": "approve",
			"outputs": [
				{
					"internalType": "bool",
					"name": "",
					"type": "bool"
				}
			],
			"stateMutability": "nonpayable",
			"type": "function"
		},
		{
			"inputs": [
				{
					"internalType": "address",
					"name": "account",
					"type": "address"
				}
			],
			"name": "balanceOf",
			"outputs": [
				{
					"internalType": "uint256",
					"name": "",
					"type": "uint256"
				}
			],
			"stateMutability": "view",
			"type": "function"
		},
		{
			"inputs": [
				{
					"internalType": "address",
					"name": "member",
					"type": "address"
				}
			],
			"name": "canVerifyRecentSession",
			"outputs": [
				{
					"internalType": "bool",
					"name": "canVerify",
					"type": "bool"
				},
				{
					"internalType": "uint256",
					"name": "sessionIndex",
					"type": "uint256"
				}
			],
			"stateMutability": "view",
			"type": "function"
		},
		{
			"inputs": [
				{
					"internalType": "string",
					"name": "name",
					"type": "string"
				},
				{
					"internalType": "string",
					"name": "description",
					"type": "string"
				},
				{
					"internalType": "uint256",
					"name": "minStakeAmount",
					"type": "uint256"
				}
			],
			"name": "createStudyGroup",
			"outputs": [
				{
					"internalType": "uint256",
					"name": "",
					"type": "uint256"
				}
			],
			"stateMutability": "nonpayable",
			"type": "function"
		},
		{
			"inputs": [],
			"name": "decimals",
			"outputs": [
				{
					"internalType": "uint8",
					"name": "",
					"type": "uint8"
				}
			],
			"stateMutability": "view",
			"type": "function"
		},
		{
			"inputs": [],
			"name": "emergencyWithdraw",
			"outputs": [],
			"stateMutability": "nonpayable",
			"type": "function"
		},
		{
			"inputs": [
				{
					"internalType": "bytes",
					"name": "",
					"type": "bytes"
				}
			],
			"name": "executed",
			"outputs": [
				{
					"internalType": "bool",
					"name": "",
					"type": "bool"
				}
			],
			"stateMutability": "view",
			"type": "function"
		},
		{
			"inputs": [
				{
					"internalType": "uint256",
					"name": "groupId",
					"type": "uint256"
				}
			],
			"name": "getGroupMembers",
			"outputs": [
				{
					"internalType": "address[]",
					"name": "",
					"type": "address[]"
				}
			],
			"stateMutability": "view",
			"type": "function"
		},
		{
			"inputs": [
				{
					"internalType": "address",
					"name": "memberAddress",
					"type": "address"
				}
			],
			"name": "getMember",
			"outputs": [
				{
					"components": [
						{
							"internalType": "bool",
							"name": "isActive",
							"type": "bool"
						},
						{
							"internalType": "uint256",
							"name": "totalStudyMinutes",
							"type": "uint256"
						},
						{
							"internalType": "uint256",
							"name": "stakeAmount",
							"type": "uint256"
						},
						{
							"internalType": "uint256",
							"name": "lastStudyTimestamp",
							"type": "uint256"
						},
						{
							"internalType": "uint256",
							"name": "groupId",
							"type": "uint256"
						}
					],
					"internalType": "struct StudyDAO.Member",
					"name": "",
					"type": "tuple"
				}
			],
			"stateMutability": "view",
			"type": "function"
		},
		{
			"inputs": [
				{
					"internalType": "address",
					"name": "member",
					"type": "address"
				}
			],
			"name": "getMemberStudySessions",
			"outputs": [
				{
					"components": [
						{
							"internalType": "uint256",
							"name": "startTime",
							"type": "uint256"
						},
						{
							"internalType": "uint256",
							"name": "duration",
							"type": "uint256"
						},
						{
							"internalType": "string",
							"name": "studyTopic",
							"type": "string"
						},
						{
							"internalType": "bool",
							"name": "verified",
							"type": "bool"
						},
						{
							"internalType": "uint256",
							"name": "rewardAmount",
							"type": "uint256"
						}
					],
					"internalType": "struct StudyDAO.StudySession[]",
					"name": "",
					"type": "tuple[]"
				}
			],
			"stateMutability": "view",
			"type": "function"
		},
		{
			"inputs": [],
			"name": "getPlatformStats",
			"outputs": [
				{
					"internalType": "uint256",
					"name": "_totalMembers",
					"type": "uint256"
				},
				{
					"internalType": "uint256",
					"name": "_totalStudyMinutes",
					"type": "uint256"
				},
				{
					"internalType": "uint256",
					"name": "_totalGroups",
					"type": "uint256"
				},
				{
					"internalType": "uint256",
					"name": "_totalSupply",
					"type": "uint256"
				}
			],
			"stateMutability": "view",
			"type": "function"
		},
		{
			"inputs": [
				{
					"internalType": "uint256",
					"name": "groupId",
					"type": "uint256"
				}
			],
			"name": "getStudyGroup",
			"outputs": [
				{
					"components": [
						{
							"internalType": "string",
							"name": "name",
							"type": "string"
						},
						{
							"internalType": "string",
							"name": "description",
							"type": "string"
						},
						{
							"internalType": "uint256",
							"name": "minStakeAmount",
							"type": "uint256"
						},
						{
							"internalType": "address",
							"name": "admin",
							"type": "address"
						},
						{
							"internalType": "bool",
							"name": "isActive",
							"type": "bool"
						},
						{
							"internalType": "uint256",
							"name": "memberCount",
							"type": "uint256"
						},
						{
							"internalType": "uint256",
							"name": "totalStudyMinutes",
							"type": "uint256"
						}
					],
					"internalType": "struct StudyDAO.StudyGroup",
					"name": "",
					"type": "tuple"
				}
			],
			"stateMutability": "view",
			"type": "function"
		},
		{
			"inputs": [
				{
					"internalType": "uint256",
					"name": "",
					"type": "uint256"
				},
				{
					"internalType": "uint256",
					"name": "",
					"type": "uint256"
				}
			],
			"name": "groupMembers",
			"outputs": [
				{
					"internalType": "address",
					"name": "",
					"type": "address"
				}
			],
			"stateMutability": "view",
			"type": "function"
		},
		{
			"inputs": [
				{
					"internalType": "uint256",
					"name": "groupId",
					"type": "uint256"
				},
				{
					"internalType": "uint256",
					"name": "stakeAmount",
					"type": "uint256"
				}
			],
			"name": "joinGroup",
			"outputs": [],
			"stateMutability": "nonpayable",
			"type": "function"
		},
		{
			"inputs": [],
			"name": "leaveGroup",
			"outputs": [],
			"stateMutability": "nonpayable",
			"type": "function"
		},
		{
			"inputs": [
				{
					"internalType": "uint256",
					"name": "duration",
					"type": "uint256"
				},
				{
					"internalType": "string",
					"name": "studyTopic",
					"type": "string"
				}
			],
			"name": "logStudySession",
			"outputs": [],
			"stateMutability": "nonpayable",
			"type": "function"
		},
		{
			"inputs": [
				{
					"internalType": "address",
					"name": "",
					"type": "address"
				},
				{
					"internalType": "uint256",
					"name": "",
					"type": "uint256"
				}
			],
			"name": "memberStudySessions",
			"outputs": [
				{
					"internalType": "uint256",
					"name": "startTime",
					"type": "uint256"
				},
				{
					"internalType": "uint256",
					"name": "duration",
					"type": "uint256"
				},
				{
					"internalType": "string",
					"name": "studyTopic",
					"type": "string"
				},
				{
					"internalType": "bool",
					"name": "verified",
					"type": "bool"
				},
				{
					"internalType": "uint256",
					"name": "rewardAmount",
					"type": "uint256"
				}
			],
			"stateMutability": "view",
			"type": "function"
		},
		{
			"inputs": [
				{
					"internalType": "address",
					"name": "",
					"type": "address"
				}
			],
			"name": "members",
			"outputs": [
				{
					"internalType": "bool",
					"name": "isActive",
					"type": "bool"
				},
				{
					"internalType": "uint256",
					"name": "totalStudyMinutes",
					"type": "uint256"
				},
				{
					"internalType": "uint256",
					"name": "stakeAmount",
					"type": "uint256"
				},
				{
					"internalType": "uint256",
					"name": "lastStudyTimestamp",
					"type": "uint256"
				},
				{
					"internalType": "uint256",
					"name": "groupId",
					"type": "uint256"
				}
			],
			"stateMutability": "view",
			"type": "function"
		},
		{
			"inputs": [],
			"name": "name",
			"outputs": [
				{
					"internalType": "string",
					"name": "",
					"type": "string"
				}
			],
			"stateMutability": "view",
			"type": "function"
		},
		{
			"inputs": [],
			"name": "nextGroupId",
			"outputs": [
				{
					"internalType": "uint256",
					"name": "",
					"type": "uint256"
				}
			],
			"stateMutability": "view",
			"type": "function"
		},
		{
			"inputs": [],
			"name": "owner",
			"outputs": [
				{
					"internalType": "address",
					"name": "",
					"type": "address"
				}
			],
			"stateMutability": "view",
			"type": "function"
		},
		{
			"inputs": [
				{
					"internalType": "uint256",
					"name": "groupId",
					"type": "uint256"
				}
			],
			"name": "pauseGroup",
			"outputs": [],
			"stateMutability": "nonpayable",
			"type": "function"
		},
		{
			"inputs": [],
			"name": "renounceOwnership",
			"outputs": [],
			"stateMutability": "nonpayable",
			"type": "function"
		},
		{
			"inputs": [
				{
					"internalType": "address",
					"name": "_tokenAuthorityPublicKey",
					"type": "address"
				}
			],
			"name": "setTokenAuthorityPublicKey",
			"outputs": [],
			"stateMutability": "nonpayable",
			"type": "function"
		},
		{
			"inputs": [
				{
					"internalType": "uint256",
					"name": "",
					"type": "uint256"
				}
			],
			"name": "studyGroups",
			"outputs": [
				{
					"internalType": "string",
					"name": "name",
					"type": "string"
				},
				{
					"internalType": "string",
					"name": "description",
					"type": "string"
				},
				{
					"internalType": "uint256",
					"name": "minStakeAmount",
					"type": "uint256"
				},
				{
					"internalType": "address",
					"name": "admin",
					"type": "address"
				},
				{
					"internalType": "bool",
					"name": "isActive",
					"type": "bool"
				},
				{
					"internalType": "uint256",
					"name": "memberCount",
					"type": "uint256"
				},
				{
					"internalType": "uint256",
					"name": "totalStudyMinutes",
					"type": "uint256"
				}
			],
			"stateMutability": "view",
			"type": "function"
		},
		{
			"inputs": [],
			"name": "symbol",
			"outputs": [
				{
					"internalType": "string",
					"name": "",
					"type": "string"
				}
			],
			"stateMutability": "view",
			"type": "function"
		},
		{
			"inputs": [],
			"name": "tokenAuthorityPublicKey",
			"outputs": [
				{
					"internalType": "address",
					"name": "",
					"type": "address"
				}
			],
			"stateMutability": "view",
			"type": "function"
		},
		{
			"inputs": [],
			"name": "totalMembers",
			"outputs": [
				{
					"internalType": "uint256",
					"name": "",
					"type": "uint256"
				}
			],
			"stateMutability": "view",
			"type": "function"
		},
		{
			"inputs": [],
			"name": "totalStudyMinutes",
			"outputs": [
				{
					"internalType": "uint256",
					"name": "",
					"type": "uint256"
				}
			],
			"stateMutability": "view",
			"type": "function"
		},
		{
			"inputs": [],
			"name": "totalSupply",
			"outputs": [
				{
					"internalType": "uint256",
					"name": "",
					"type": "uint256"
				}
			],
			"stateMutability": "view",
			"type": "function"
		},
		{
			"inputs": [
				{
					"internalType": "address",
					"name": "to",
					"type": "address"
				},
				{
					"internalType": "uint256",
					"name": "value",
					"type": "uint256"
				}
			],
			"name": "transfer",
			"outputs": [
				{
					"internalType": "bool",
					"name": "",
					"type": "bool"
				}
			],
			"stateMutability": "nonpayable",
			"type": "function"
		},
		{
			"inputs": [
				{
					"internalType": "address",
					"name": "from",
					"type": "address"
				},
				{
					"internalType": "address",
					"name": "to",
					"type": "address"
				},
				{
					"internalType": "uint256",
					"name": "value",
					"type": "uint256"
				}
			],
			"name": "transferFrom",
			"outputs": [
				{
					"internalType": "bool",
					"name": "",
					"type": "bool"
				}
			],
			"stateMutability": "nonpayable",
			"type": "function"
		},
		{
			"inputs": [
				{
					"internalType": "address",
					"name": "newOwner",
					"type": "address"
				}
			],
			"name": "transferOwnership",
			"outputs": [],
			"stateMutability": "nonpayable",
			"type": "function"
		},
		{
			"inputs": [
				{
					"internalType": "uint256",
					"name": "groupId",
					"type": "uint256"
				}
			],
			"name": "unpauseGroup",
			"outputs": [],
			"stateMutability": "nonpayable",
			"type": "function"
		},
		{
			"inputs": [
				{
					"internalType": "address",
					"name": "member",
					"type": "address"
				},
				{
					"internalType": "uint256",
					"name": "sessionIndex",
					"type": "uint256"
				}
			],
			"name": "verifyStudySession",
			"outputs": [],
			"stateMutability": "nonpayable",
			"type": "function"
		},
		{
			"inputs": [
				{
					"components": [
						{
							"internalType": "bytes",
							"name": "auth",
							"type": "bytes"
						},
						{
							"internalType": "bytes",
							"name": "kernelResponses",
							"type": "bytes"
						},
						{
							"internalType": "bytes",
							"name": "kernelParams",
							"type": "bytes"
						}
					],
					"internalType": "struct KrnlPayload",
					"name": "krnlPayload",
					"type": "tuple"
				},
				{
					"internalType": "address",
					"name": "member",
					"type": "address"
				},
				{
					"internalType": "uint256",
					"name": "sessionIndex",
					"type": "uint256"
				}
			],
			"name": "verifyStudySessionWithKRNL",
			"outputs": [],
			"stateMutability": "nonpayable",
			"type": "function"
		}
	]
}