{
	"data": {
		"bytecode": {
			"linkReferences": {},
			"object": "6080346100c257601f6103f938819003918201601f19168301916001600160401b038311848410176100c6578084926020946040528339810103126100c257516001600160a01b0390818116908190036100c25733156100aa575f5460018060a01b03199033828216175f55604051933391167f8be0079c531659141344cd1fd0a4f28419497f9722a3daafe3b4186f6b6457e05f80a3600154161760015561031e90816100db8239f35b604051631e4fbdf760e01b81525f6004820152602490fd5b5f80fd5b634e487b7160e01b5f52604160045260245ffdfe6080604081815260049182361015610015575f80fd5b5f3560e01c9081634ba1cfe41461029a57508063715018a6146102435780638da5cb5b1461021c578063909dd2631461013c578063d213d86b146100f35763f2fde38b14610061575f80fd5b346100ef5760203660031901126100ef576001600160a01b038235818116939192908490036100ef576100926102bd565b83156100d95750505f54826bffffffffffffffffffffffff60a01b8216175f55167f8be0079c531659141344cd1fd0a4f28419497f9722a3daafe3b4186f6b6457e05f80a3005b905f6024925191631e4fbdf760e01b8352820152fd5b5f80fd5b82346100ef5760203660031901126100ef57356001600160a01b038116908190036100ef576101206102bd565b6bffffffffffffffffffffffff60a01b60015416176001555f80f35b5090346100ef57602091826003193601126100ef5767ffffffffffffffff82358181116100ef57366023820112156100ef57808401359180831161020957835194601f8401601f19908116603f01168601918211868310176101f65750835281845236602483830101116100ef57815f92602487930183870137840101528051838351935f5b8581106101e55750508160ff939481016002815203019020541690519015158152f35b8181018301518482015282016101c2565b604190634e487b7160e01b5f525260245ffd5b604185634e487b7160e01b5f525260245ffd5b50346100ef575f3660031901126100ef575f5490516001600160a01b039091168152602090f35b346100ef575f3660031901126100ef5761025b6102bd565b5f80546001600160a01b0319811682556001600160a01b03167f8be0079c531659141344cd1fd0a4f28419497f9722a3daafe3b4186f6b6457e08280a3005b346100ef575f3660031901126100ef576001546001600160a01b03168152602090f35b5f546001600160a01b031633036102d057565b60405163118cdaa760e01b8152336004820152602490fdfea264697066735822122033cb9fdff7b61b737ca69012434225579fd7d11a9445f527602ee04e0da51e1964736f6c63430008180033",
			"opcodes": "PUSH1 0x80 CALLVALUE PUSH2 0xC2 JUMPI PUSH1 0x1F PUSH2 0x3F9 CODESIZE DUP2 SWAP1 SUB SWAP2 DUP3 ADD PUSH1 0x1F NOT AND DUP4 ADD SWAP2 PUSH1 0x1 PUSH1 0x1 PUSH1 0x40 SHL SUB DUP4 GT DUP5 DUP5 LT OR PUSH2 0xC6 JUMPI DUP1 DUP5 SWAP3 PUSH1 0x20 SWAP5 PUSH1 0x40 MSTORE DUP4 CODECOPY DUP2 ADD SUB SLT PUSH2 0xC2 JUMPI MLOAD PUSH1 0x1 PUSH1 0x1 PUSH1 0xA0 SHL SUB SWAP1 DUP2 DUP2 AND SWAP1 DUP2 SWAP1 SUB PUSH2 0xC2 JUMPI CALLER ISZERO PUSH2 0xAA JUMPI PUSH0 SLOAD PUSH1 0x1 DUP1 PUSH1 0xA0 SHL SUB NOT SWAP1 CALLER DUP3 DUP3 AND OR PUSH0 SSTORE PUSH1 0x40 MLOAD SWAP4 CALLER SWAP2 AND PUSH32 0x8BE0079C531659141344CD1FD0A4F28419497F9722A3DAAFE3B4186F6B6457E0 PUSH0 DUP1 LOG3 PUSH1 0x1 SLOAD AND OR PUSH1 0x1 SSTORE PUSH2 0x31E SWAP1 DUP2 PUSH2 0xDB DUP3 CODECOPY RETURN JUMPDEST PUSH1 0x40 MLOAD PUSH4 0x1E4FBDF7 PUSH1 0xE0 SHL DUP2 MSTORE PUSH0 PUSH1 0x4 DUP3 ADD MSTORE PUSH1 0x24 SWAP1 REVERT JUMPDEST PUSH0 DUP1 REVERT JUMPDEST PUSH4 0x4E487B71 PUSH1 0xE0 SHL PUSH0 MSTORE PUSH1 0x41 PUSH1 0x4 MSTORE PUSH1 0x24 PUSH0 REVERT INVALID PUSH1 0x80 PUSH1 0x40 DUP2 DUP2 MSTORE PUSH1 0x4 SWAP2 DUP3 CALLDATASIZE LT ISZERO PUSH2 0x15 JUMPI PUSH0 DUP1 REVERT JUMPDEST PUSH0 CALLDATALOAD PUSH1 0xE0 SHR SWAP1 DUP2 PUSH4 0x4BA1CFE4 EQ PUSH2 0x29A JUMPI POP DUP1 PUSH4 0x715018A6 EQ PUSH2 0x243 JUMPI DUP1 PUSH4 0x8DA5CB5B EQ PUSH2 0x21C JUMPI DUP1 PUSH4 0x909DD263 EQ PUSH2 0x13C JUMPI DUP1 PUSH4 0xD213D86B EQ PUSH2 0xF3 JUMPI PUSH4 0xF2FDE38B EQ PUSH2 0x61 JUMPI PUSH0 DUP1 REVERT JUMPDEST CALLVALUE PUSH2 0xEF JUMPI PUSH1 0x20 CALLDATASIZE PUSH1 0x3 NOT ADD SLT PUSH2 0xEF JUMPI PUSH1 0x1 PUSH1 0x1 PUSH1 0xA0 SHL SUB DUP3 CALLDATALOAD DUP2 DUP2 AND SWAP4 SWAP2 SWAP3 SWAP1 DUP5 SWAP1 SUB PUSH2 0xEF JUMPI PUSH2 0x92 PUSH2 0x2BD JUMP JUMPDEST DUP4 ISZERO PUSH2 0xD9 JUMPI POP POP PUSH0 SLOAD DUP3 PUSH12 0xFFFFFFFFFFFFFFFFFFFFFFFF PUSH1 0xA0 SHL DUP3 AND OR PUSH0 SSTORE AND PUSH32 0x8BE0079C531659141344CD1FD0A4F28419497F9722A3DAAFE3B4186F6B6457E0 PUSH0 DUP1 LOG3 STOP JUMPDEST SWAP1 PUSH0 PUSH1 0x24 SWAP3 MLOAD SWAP2 PUSH4 0x1E4FBDF7 PUSH1 0xE0 SHL DUP4 MSTORE DUP3 ADD MSTORE REVERT JUMPDEST PUSH0 DUP1 REVERT JUMPDEST DUP3 CALLVALUE PUSH2 0xEF JUMPI PUSH1 0x20 CALLDATASIZE PUSH1 0x3 NOT ADD SLT PUSH2 0xEF JUMPI CALLDATALOAD PUSH1 0x1 PUSH1 0x1 PUSH1 0xA0 SHL SUB DUP2 AND SWAP1 DUP2 SWAP1 SUB PUSH2 0xEF JUMPI PUSH2 0x120 PUSH2 0x2BD JUMP JUMPDEST PUSH12 0xFFFFFFFFFFFFFFFFFFFFFFFF PUSH1 0xA0 SHL PUSH1 0x1 SLOAD AND OR PUSH1 0x1 SSTORE PUSH0 DUP1 RETURN JUMPDEST POP SWAP1 CALLVALUE PUSH2 0xEF JUMPI PUSH1 0x20 SWAP2 DUP3 PUSH1 0x3 NOT CALLDATASIZE ADD SLT PUSH2 0xEF JUMPI PUSH8 0xFFFFFFFFFFFFFFFF DUP3 CALLDATALOAD DUP2 DUP2 GT PUSH2 0xEF JUMPI CALLDATASIZE PUSH1 0x23 DUP3 ADD SLT ISZERO PUSH2 0xEF JUMPI DUP1 DUP5 ADD CALLDATALOAD SWAP2 DUP1 DUP4 GT PUSH2 0x209 JUMPI DUP4 MLOAD SWAP5 PUSH1 0x1F DUP5 ADD PUSH1 0x1F NOT SWAP1 DUP2 AND PUSH1 0x3F ADD AND DUP7 ADD SWAP2 DUP3 GT DUP7 DUP4 LT OR PUSH2 0x1F6 JUMPI POP DUP4 MSTORE DUP2 DUP5 MSTORE CALLDATASIZE PUSH1 0x24 DUP4 DUP4 ADD ADD GT PUSH2 0xEF JUMPI DUP2 PUSH0 SWAP3 PUSH1 0x24 DUP8 SWAP4 ADD DUP4 DUP8 ADD CALLDATACOPY DUP5 ADD ADD MSTORE DUP1 MLOAD DUP4 DUP4 MLOAD SWAP4 PUSH0 JUMPDEST DUP6 DUP2 LT PUSH2 0x1E5 JUMPI POP POP DUP2 PUSH1 0xFF SWAP4 SWAP5 DUP2 ADD PUSH1 0x2 DUP2 MSTORE SUB ADD SWAP1 KECCAK256 SLOAD AND SWAP1 MLOAD SWAP1 ISZERO ISZERO DUP2 MSTORE RETURN JUMPDEST DUP2 DUP2 ADD DUP4 ADD MLOAD DUP5 DUP3 ADD MSTORE DUP3 ADD PUSH2 0x1C2 JUMP JUMPDEST PUSH1 0x41 SWAP1 PUSH4 0x4E487B71 PUSH1 0xE0 SHL PUSH0 MSTORE MSTORE PUSH1 0x24 PUSH0 REVERT JUMPDEST PUSH1 0x41 DUP6 PUSH4 0x4E487B71 PUSH1 0xE0 SHL PUSH0 MSTORE MSTORE PUSH1 0x24 PUSH0 REVERT JUMPDEST POP CALLVALUE PUSH2 0xEF JUMPI PUSH0 CALLDATASIZE PUSH1 0x3 NOT ADD SLT PUSH2 0xEF JUMPI PUSH0 SLOAD SWAP1 MLOAD PUSH1 0x1 PUSH1 0x1 PUSH1 0xA0 SHL SUB SWAP1 SWAP2 AND DUP2 MSTORE PUSH1 0x20 SWAP1 RETURN JUMPDEST CALLVALUE PUSH2 0xEF JUMPI PUSH0 CALLDATASIZE PUSH1 0x3 NOT ADD SLT PUSH2 0xEF JUMPI PUSH2 0x25B PUSH2 0x2BD JUMP JUMPDEST PUSH0 DUP1 SLOAD PUSH1 0x1 PUSH1 0x1 PUSH1 0xA0 SHL SUB NOT DUP2 AND DUP3 SSTORE PUSH1 0x1 PUSH1 0x1 PUSH1 0xA0 SHL SUB AND PUSH32 0x8BE0079C531659141344CD1FD0A4F28419497F9722A3DAAFE3B4186F6B6457E0 DUP3 DUP1 LOG3 STOP JUMPDEST CALLVALUE PUSH2 0xEF JUMPI PUSH0 CALLDATASIZE PUSH1 0x3 NOT ADD SLT PUSH2 0xEF JUMPI PUSH1 0x1 SLOAD PUSH1 0x1 PUSH1 0x1 PUSH1 0xA0 SHL SUB AND DUP2 MSTORE PUSH1 0x20 SWAP1 RETURN JUMPDEST PUSH0 SLOAD PUSH1 0x1 PUSH1 0x1 PUSH1 0xA0 SHL SUB AND CALLER SUB PUSH2 0x2D0 JUMPI JUMP JUMPDEST PUSH1 0x40 MLOAD PUSH4 0x118CDAA7 PUSH1 0xE0 SHL DUP2 MSTORE CALLER PUSH1 0x4 DUP3 ADD MSTORE PUSH1 0x24 SWAP1 REVERT INVALID LOG2 PUSH5 0x6970667358 0x22 SLT KECCAK256 CALLER 0xCB SWAP16 0xDF 0xF7 0xB6 SHL PUSH20 0x7CA69012434225579FD7D11A9445F527602EE04E 0xD 0xA5 0x1E NOT PUSH5 0x736F6C6343 STOP ADDMOD XOR STOP CALLER "
		},
		"gasEstimates": {
			"creation": {
				"codeDepositCost": "159600",
				"executionCost": "infinite",
				"totalCost": "infinite"
			},
			"external": {
				"executed(bytes)": "infinite",
				"owner()": "2334",
				"renounceOwnership()": "28081",
				"setTokenAuthorityPublicKey(address)": "26667",
				"tokenAuthorityPublicKey()": "2275",
				"transferOwnership(address)": "28231"
			},
			"internal": {
				"_isAuthorized(struct KrnlPayload memory,bytes memory)": "infinite"
			}
		},
		"methodIdentifiers": {
			"executed(bytes)": "909dd263",
			"owner()": "8da5cb5b",
			"renounceOwnership()": "715018a6",
			"setTokenAuthorityPublicKey(address)": "d213d86b",
			"tokenAuthorityPublicKey()": "4ba1cfe4",
			"transferOwnership(address)": "f2fde38b"
		}
	},
	"abi": [
		{
			"inputs": [
				{
					"internalType": "address",
					"name": "_tokenAuthorityPublicKey",
					"type": "address"
				}
			],
			"stateMutability": "nonpayable",
			"type": "constructor"
		},
		{
			"inputs": [
				{
					"internalType": "address",
					"name": "owner",
					"type": "address"
				}
			],
			"name": "OwnableInvalidOwner",
			"type": "error"
		},
		{
			"inputs": [
				{
					"internalType": "address",
					"name": "account",
					"type": "address"
				}
			],
			"name": "OwnableUnauthorizedAccount",
			"type": "error"
		},
		{
			"inputs": [],
			"name": "UnauthorizedTransaction",
			"type": "error"
		},
		{
			"anonymous": false,
			"inputs": [
				{
					"indexed": true,
					"internalType": "address",
					"name": "previousOwner",
					"type": "address"
				},
				{
					"indexed": true,
					"internalType": "address",
					"name": "newOwner",
					"type": "address"
				}
			],
			"name": "OwnershipTransferred",
			"type": "event"
		},
		{
			"inputs": [
				{
					"internalType": "bytes",
					"name": "",
					"type": "bytes"
				}
			],
			"name": "executed",
			"outputs": [
				{
					"internalType": "bool",
					"name": "",
					"type": "bool"
				}
			],
			"stateMutability": "view",
			"type": "function"
		},
		{
			"inputs": [],
			"name": "owner",
			"outputs": [
				{
					"internalType": "address",
					"name": "",
					"type": "address"
				}
			],
			"stateMutability": "view",
			"type": "function"
		},
		{
			"inputs": [],
			"name": "renounceOwnership",
			"outputs": [],
			"stateMutability": "nonpayable",
			"type": "function"
		},
		{
			"inputs": [
				{
					"internalType": "address",
					"name": "_tokenAuthorityPublicKey",
					"type": "address"
				}
			],
			"name": "setTokenAuthorityPublicKey",
			"outputs": [],
			"stateMutability": "nonpayable",
			"type": "function"
		},
		{
			"inputs": [],
			"name": "tokenAuthorityPublicKey",
			"outputs": [
				{
					"internalType": "address",
					"name": "",
					"type": "address"
				}
			],
			"stateMutability": "view",
			"type": "function"
		},
		{
			"inputs": [
				{
					"internalType": "address",
					"name": "newOwner",
					"type": "address"
				}
			],
			"name": "transferOwnership",
			"outputs": [],
			"stateMutability": "nonpayable",
			"type": "function"
		}
	]
}