{
	"data": {
		"bytecode": {
			"linkReferences": {},
			"object": "60406080815234620003795762001703803803806200001e816200037d565b9283398101608082820312620003795781516001600160401b03908181116200037957826200004f918501620003c6565b90602092838501519082821162000379576200006d918601620003c6565b936060868201519101519160018060a01b0383168093036200037957835195818711620002a3576001908154978289811c991680156200036e575b888a10146200028457601f9889811162000326575b5080888a8211600114620002c3575f91620002b7575b505f19600383901b1c191690831b1782555b8051928311620002a3576002548281811c9116801562000298575b8882101462000284578881116200023b575b508690888411600114620001bc579280606097959381935f80516020620016e38339815191529b9a98965f94620001b0575b50501b915f199060031b1c1916176002555b60035560018060a01b0319338160045416176004555f5416175f5585519384928784526200019283518094818b880152838888019101620003a3565b339084015201601f19168101030190a1516112c590816200041e8239f35b015192505f8062000144565b90601f9392931983169160025f52885f20925f5b818110620002255750915f80516020620016e38339815191529a99979593918560609a989694106200020c575b505050811b0160025562000156565b01515f1960f88460031b161c191690555f8080620001fd565b82840151855593860193928a01928a01620001d0565b60025f52875f208980860160051c8201928a87106200027a575b0160051c019083905b8281106200026e57505062000112565b5f81550183906200025e565b9250819262000255565b634e487b7160e01b5f52602260045260245ffd5b90607f169062000100565b634e487b7160e01b5f52604160045260245ffd5b90508701515f620000d3565b849250601f19821690835f528a5f20915f5b8c8c83831062000310575050508311620002f7575b5050811b018255620000e5565b8901515f1960f88460031b161c191690555f80620002ea565b84015185558896909401939283019201620002d5565b835f52885f208a80840160051c8201928b851062000364575b0160051c019084905b82811062000358575050620000bd565b5f815501849062000348565b925081926200033f565b98607f1698620000a8565b5f80fd5b6040519190601f01601f191682016001600160401b03811183821017620002a357604052565b5f5b838110620003b55750505f910152565b8181015183820152602001620003a5565b81601f82011215620003795780516001600160401b038111620002a357620003f8601f8201601f19166020016200037d565b928184526020828401011162000379576200041a9160208085019101620003a3565b9056fe608080604052600480361015610013575f80fd5b5f915f3560e01c90816306fdde0314610e545750806308ae4b0c14610df55780637284e41614610d135780638955dcba14610ce2578063940b7c7614610a06578063997072f7146109e85780639976fb2a14610957578063a7481b5b14610930578063b307fc6d146108ee578063cb1fb490146107ff578063e1da7790146106cd578063e82b0c911461030b578063eed02e4b1461010f578063f1887684146100ee5763f851a440146100c4575f80fd5b346100ea57816003193601126100ea57546040516001600160a01b039091168152602090f35b5080fd5b823461010c578060031936011261010c576020600354604051908152f35b80fd5b50903461010c576020806003193601126100ea578235903383526005815260ff6040842054166102d557600354821061029b5782546040516323b872dd60e01b81523386820152306024820152604481018490526001600160a01b0391839082906064908290899087165af19081156102905790610194918691610263575b5061124b565b6040516101a081610f32565b600181526003838201868152604083018681526060840191888352338952600587526101df60408a2095511515869060ff801983541691151516179055565b51600185015551600284015551910155600754600160401b81101561025057906102318260017f7f3b9effe05cfb4f31f854004de03199fd03fe56bf38a48b2aa9a9f4402d6e239594016007556110a7565b819291549060031b9133831b921b19161790556040519283523392a280f35b634e487b7160e01b855260418652602485fd5b6102839150843d8611610289575b61027b8183610f62565b810190611233565b5f61018e565b503d610271565b6040513d87823e3d90fd5b836064916040519162461bcd60e51b835282015260146024820152735374616b6520616d6f756e7420746f6f206c6f7760601b6044820152fd5b836064916040519162461bcd60e51b8352820152601060248201526f20b63932b0b23c90309036b2b6b132b960811b6044820152fd5b50346100ea5760403660031901126100ea5760249081359167ffffffffffffffff8084116106c957366023850112156106c9578084840135116106c957368285850135860101116106c957338552600560205261036e60ff6040872054166111d4565b33855260056020526040852083351515806106bc575b156106865760030190815461038481018091116106745742111561063157604051906103af82610f32565b4282526020820190853582526040516103d56020601f19601f8b8b013501160182610f62565b8688013580825286890160208301378860208989013583010152604084019081526060840192898452338a52600660205260408a20805490600160401b82101561061f57906104299160018201815561107a565b95909561060e575185555160018501555180519182116105fc576104506002850154610efa565b601f81116105b4575b5060209089601f841160011461051e5793836104cd947facf854430ff9d79b49efda4ae97ef193035ca510d7a123d408f9ff261666933b9a99979460039460609a9892610513575b50508160011b915f1990851b1c19161760028401555b51151591019060ff801983541691151516179055565b4290556040519283918135835260406020840152868201356040840152868201359087018484013786838783013584010152601f3396811992013501168101030190a280f35b015190505f806104a1565b50600285018a5260208a209190601f1984168b5b81811061059c5750847facf854430ff9d79b49efda4ae97ef193035ca510d7a123d408f9ff261666933b9a99979460039460609a98946104cd9860019510610585575b505050811b0160028401556104b7565b01515f1983871b60f8161c191690555f8080610575565b92936020600181928786015181550195019301610532565b600285018a5260208a20601f840160051c810191602085106105f2575b601f0160051c01905b8181106105e75750610459565b8a81556001016105da565b90915081906105d1565b634e487b7160e01b8952604187528589fd5b634e487b7160e01b8b528a8952878bfd5b634e487b7160e01b8c5260418a52888cfd5b60405162461bcd60e51b81526020818601526018818501527f546f6f20736f6f6e20666f72206e65772073657373696f6e00000000000000006044820152606490fd5b634e487b7160e01b8752601185528387fd5b60405162461bcd60e51b81526020818601526010818501526f24b73b30b634b210323ab930ba34b7b760811b6044820152606490fd5b506102d084351115610384565b8480fd5b50346100ea57602090816003193601126107fb576001600160a01b036106f1611064565b168352600682526040832090815467ffffffffffffffff81116107e857604051939491610724600583901b870186610f62565b8185528585018094845286842084915b8483106107c4575050505050604051928484019085855251809152604084019460408260051b8601019392955b82871061076e5785850386f35b909192938280600192603f198982030185528751906107a86080835183528484015185840152604084015190806040850152830190611026565b9160608091015115159101529601920196019592919092610761565b83896001926107d6859c9b999c6110dc565b81520192019201919097949697610734565b634e487b7160e01b855260418252602485fd5b8280fd5b50346100ea57816003193601126100ea5733825261088360206005815261082c60ff6040862054166111d4565b33808552600582526040808620600281018054825460ff19169092558790558654825163a9059cbb60e01b815296870193845260208401829052909594849386936001600160a01b039093169284928a9284920190565b03925af19182156108e3577f9346ee3b9c76468ddd2fdbfb65dae9da6e2479083b25cd80377d6809f6f8c69d926108c09186916108cc575061124b565b6040519283523392a280f35b6102839150833d85116102895761027b8183610f62565b6040513d86823e3d90fd5b50346100ea5760203660031901126100ea57359060075482101561010c576020610917836110a7565b905460405160039290921b1c6001600160a01b03168152f35b823461010c578060031936011261010c57546040516001600160a01b039091168152602090f35b823461010c57604036600319011261010c57610971611064565b6001600160a01b03168152600660205260408120805460243591908210156107fb5761099d925061107a565b5080546001820154916109dc60ff60036109b960028501610f84565b930154169160405194859485526020850152608060408501526080840190611026565b90151560608301520390f35b823461010c578060031936011261010c576020600754604051908152f35b5034610bb9576040366003190112610bb957610a20611064565b81546024928335926001600160a01b039283163303610c955782811694855f526020926005845260ff60405f20541615610c5d57865f526006845260405f2054861015610c2457865f5260068452610a7b8660405f2061107a565b5060038101805460ff8116610be15790600180939260ff1916179055018054885f5260058652600160405f20018054918201809211610bcf575554670de0b6b3a764000090818102918183041490151715610bbd57600a9004945f5416803b15610bb95760408051634d24848760e11b81526001600160a01b03909516838601908152602081018890525f92869290918391859183910103925af18015610bae57610b56575b505050916040917f63863815b4dcf3c8acaeee732c56dfc0972a7da5a49f45ef55463f47234eee76938351928352820152a280f35b909192965067ffffffffffffffff8311610b9d57505060409081525f949082907f63863815b4dcf3c8acaeee732c56dfc0972a7da5a49f45ef55463f47234eee7690610b21565b604190634e487b7160e01b5f52525ffd5b6040513d5f823e3d90fd5b5f80fd5b50601190634e487b7160e01b5f52525ffd5b84601185634e487b7160e01b5f52525ffd5b60405162461bcd60e51b81528085018890526018818701527f53657373696f6e20616c726561647920766572696669656400000000000000006044820152606490fd5b6015606492856040519362461bcd60e51b855284015282015274092dcecc2d8d2c840e6cae6e6d2dedc40d2dcc8caf605b1b6044820152fd5b6014606492856040519362461bcd60e51b8552840152820152732737ba1030b71030b1ba34bb329036b2b6b132b960611b6044820152fd5b60405162461bcd60e51b81526020818401526021818701527f4f6e6c792061646d696e2063616e2063616c6c20746869732066756e6374696f6044820152603760f91b6064820152608490fd5b34610bb9576020366003190112610bb9576040610d05610d00611064565b61111a565b825191151582526020820152f35b34610bb9575f366003190112610bb9576040516002545f82610d3483610efa565b91828252602093600190856001821691825f14610dd5575050600114610d7a575b50610d6292500383610f62565b610d76604051928284938452830190611026565b0390f35b84915060025f527f405787fa12a823e0f2b7631cc41b3ba8828b3321ca811111fa75cd3aa3bb5ace905f915b858310610dbd575050610d62935082010185610d55565b80548389018501528794508693909201918101610da6565b60ff191685820152610d6295151560051b8501019250879150610d559050565b34610bb9576020366003190112610bb9576001600160a01b03610e16611064565b165f526005602052608060405f2060ff8154169060018101549060036002820154910154916040519315158452602084015260408301526060820152f35b34610bb9575f366003190112610bb9575f60018260015492610e7584610efa565b92838352602094856001821691825f14610dd5575050600114610e9f5750610d6292500383610f62565b84915060015f527fb10e2d527612073b26eecdfd717e6a320cf44b4afac2b0732d9fcbe2b7fa0cf6905f915b858310610ee2575050610d62935082010185610d55565b80548389018501528794508693909201918101610ecb565b90600182811c92168015610f28575b6020831014610f1457565b634e487b7160e01b5f52602260045260245ffd5b91607f1691610f09565b6080810190811067ffffffffffffffff821117610f4e57604052565b634e487b7160e01b5f52604160045260245ffd5b90601f8019910116810190811067ffffffffffffffff821117610f4e57604052565b9060405191825f8254610f9681610efa565b908184526020946001916001811690815f146110045750600114610fc6575b505050610fc492500383610f62565b565b5f90815285812095935091905b818310610fec575050610fc493508201015f8080610fb5565b85548884018501529485019487945091830191610fd3565b92505050610fc494925060ff191682840152151560051b8201015f8080610fb5565b91908251928382525f5b848110611050575050825f602080949584010152601f8019910116010190565b602081830181015184830182015201611030565b600435906001600160a01b0382168203610bb957565b8054821015611093575f5260205f209060021b01905f90565b634e487b7160e01b5f52603260045260245ffd5b6007548110156110935760075f527fa66cc928b5edb82af9bd49922954155ab7b0942694bea4ce44661d9a8736c68801905f90565b906040516110e981610f32565b606060ff60038395805485526001810154602086015261110b60028201610f84565b60408601520154161515910152565b6001600160a01b03165f8181526005602052604090205460ff161580156111c3575b6111bc57600660205260405f20545f198101919082116111a8575f52600660205261117361116d8260405f2061107a565b506110dc565b6060810151159081611191575b5061118c57505f905f90565b600191565b90505142034281116111a85762015180115f611180565b634e487b7160e01b5f52601160045260245ffd5b505f905f90565b50600660205260405f20541561113c565b156111db57565b60405162461bcd60e51b815260206004820152602a60248201527f4f6e6c7920616374697665206d656d626572732063616e2063616c6c207468696044820152693990333ab731ba34b7b760b11b6064820152608490fd5b90816020910312610bb957518015158103610bb95790565b1561125257565b60405162461bcd60e51b8152602060048201526015602482015274151bdad95b881d1c985b9cd9995c8819985a5b1959605a1b6044820152606490fdfea26469706673582212202106cc85e9300d2db0309d35c713337a5fc686a157f8c76d5a9d6da5fd87fe9464736f6c634300081800333e1b4f97e862111910e86e390290f23c777b33a9dd65e20cfb690eb4515e9ac3",
			"opcodes": "PUSH1 0x40 PUSH1 0x80 DUP2 MSTORE CALLVALUE PUSH3 0x379 JUMPI PUSH3 0x1703 DUP1 CODESIZE SUB DUP1 PUSH3 0x1E DUP2 PUSH3 0x37D JUMP JUMPDEST SWAP3 DUP4 CODECOPY DUP2 ADD PUSH1 0x80 DUP3 DUP3 SUB SLT PUSH3 0x379 JUMPI DUP2 MLOAD PUSH1 0x1 PUSH1 0x1 PUSH1 0x40 SHL SUB SWAP1 DUP2 DUP2 GT PUSH3 0x379 JUMPI DUP3 PUSH3 0x4F SWAP2 DUP6 ADD PUSH3 0x3C6 JUMP JUMPDEST SWAP1 PUSH1 0x20 SWAP3 DUP4 DUP6 ADD MLOAD SWAP1 DUP3 DUP3 GT PUSH3 0x379 JUMPI PUSH3 0x6D SWAP2 DUP7 ADD PUSH3 0x3C6 JUMP JUMPDEST SWAP4 PUSH1 0x60 DUP7 DUP3 ADD MLOAD SWAP2 ADD MLOAD SWAP2 PUSH1 0x1 DUP1 PUSH1 0xA0 SHL SUB DUP4 AND DUP1 SWAP4 SUB PUSH3 0x379 JUMPI DUP4 MLOAD SWAP6 DUP2 DUP8 GT PUSH3 0x2A3 JUMPI PUSH1 0x1 SWAP1 DUP2 SLOAD SWAP8 DUP3 DUP10 DUP2 SHR SWAP10 AND DUP1 ISZERO PUSH3 0x36E JUMPI JUMPDEST DUP9 DUP11 LT EQ PUSH3 0x284 JUMPI PUSH1 0x1F SWAP9 DUP10 DUP2 GT PUSH3 0x326 JUMPI JUMPDEST POP DUP1 DUP9 DUP11 DUP3 GT PUSH1 0x1 EQ PUSH3 0x2C3 JUMPI PUSH0 SWAP2 PUSH3 0x2B7 JUMPI JUMPDEST POP PUSH0 NOT PUSH1 0x3 DUP4 SWAP1 SHL SHR NOT AND SWAP1 DUP4 SHL OR DUP3 SSTORE JUMPDEST DUP1 MLOAD SWAP3 DUP4 GT PUSH3 0x2A3 JUMPI PUSH1 0x2 SLOAD DUP3 DUP2 DUP2 SHR SWAP2 AND DUP1 ISZERO PUSH3 0x298 JUMPI JUMPDEST DUP9 DUP3 LT EQ PUSH3 0x284 JUMPI DUP9 DUP2 GT PUSH3 0x23B JUMPI JUMPDEST POP DUP7 SWAP1 DUP9 DUP5 GT PUSH1 0x1 EQ PUSH3 0x1BC JUMPI SWAP3 DUP1 PUSH1 0x60 SWAP8 SWAP6 SWAP4 DUP2 SWAP4 PUSH0 DUP1 MLOAD PUSH1 0x20 PUSH3 0x16E3 DUP4 CODECOPY DUP2 MLOAD SWAP2 MSTORE SWAP12 SWAP11 SWAP9 SWAP7 PUSH0 SWAP5 PUSH3 0x1B0 JUMPI JUMPDEST POP POP SHL SWAP2 PUSH0 NOT SWAP1 PUSH1 0x3 SHL SHR NOT AND OR PUSH1 0x2 SSTORE JUMPDEST PUSH1 0x3 SSTORE PUSH1 0x1 DUP1 PUSH1 0xA0 SHL SUB NOT CALLER DUP2 PUSH1 0x4 SLOAD AND OR PUSH1 0x4 SSTORE PUSH0 SLOAD AND OR PUSH0 SSTORE DUP6 MLOAD SWAP4 DUP5 SWAP3 DUP8 DUP5 MSTORE PUSH3 0x192 DUP4 MLOAD DUP1 SWAP5 DUP2 DUP12 DUP9 ADD MSTORE DUP4 DUP9 DUP9 ADD SWAP2 ADD PUSH3 0x3A3 JUMP JUMPDEST CALLER SWAP1 DUP5 ADD MSTORE ADD PUSH1 0x1F NOT AND DUP2 ADD SUB ADD SWAP1 LOG1 MLOAD PUSH2 0x12C5 SWAP1 DUP2 PUSH3 0x41E DUP3 CODECOPY RETURN JUMPDEST ADD MLOAD SWAP3 POP PUSH0 DUP1 PUSH3 0x144 JUMP JUMPDEST SWAP1 PUSH1 0x1F SWAP4 SWAP3 SWAP4 NOT DUP4 AND SWAP2 PUSH1 0x2 PUSH0 MSTORE DUP9 PUSH0 KECCAK256 SWAP3 PUSH0 JUMPDEST DUP2 DUP2 LT PUSH3 0x225 JUMPI POP SWAP2 PUSH0 DUP1 MLOAD PUSH1 0x20 PUSH3 0x16E3 DUP4 CODECOPY DUP2 MLOAD SWAP2 MSTORE SWAP11 SWAP10 SWAP8 SWAP6 SWAP4 SWAP2 DUP6 PUSH1 0x60 SWAP11 SWAP9 SWAP7 SWAP5 LT PUSH3 0x20C JUMPI JUMPDEST POP POP POP DUP2 SHL ADD PUSH1 0x2 SSTORE PUSH3 0x156 JUMP JUMPDEST ADD MLOAD PUSH0 NOT PUSH1 0xF8 DUP5 PUSH1 0x3 SHL AND SHR NOT AND SWAP1 SSTORE PUSH0 DUP1 DUP1 PUSH3 0x1FD JUMP JUMPDEST DUP3 DUP5 ADD MLOAD DUP6 SSTORE SWAP4 DUP7 ADD SWAP4 SWAP3 DUP11 ADD SWAP3 DUP11 ADD PUSH3 0x1D0 JUMP JUMPDEST PUSH1 0x2 PUSH0 MSTORE DUP8 PUSH0 KECCAK256 DUP10 DUP1 DUP7 ADD PUSH1 0x5 SHR DUP3 ADD SWAP3 DUP11 DUP8 LT PUSH3 0x27A JUMPI JUMPDEST ADD PUSH1 0x5 SHR ADD SWAP1 DUP4 SWAP1 JUMPDEST DUP3 DUP2 LT PUSH3 0x26E JUMPI POP POP PUSH3 0x112 JUMP JUMPDEST PUSH0 DUP2 SSTORE ADD DUP4 SWAP1 PUSH3 0x25E JUMP JUMPDEST SWAP3 POP DUP2 SWAP3 PUSH3 0x255 JUMP JUMPDEST PUSH4 0x4E487B71 PUSH1 0xE0 SHL PUSH0 MSTORE PUSH1 0x22 PUSH1 0x4 MSTORE PUSH1 0x24 PUSH0 REVERT JUMPDEST SWAP1 PUSH1 0x7F AND SWAP1 PUSH3 0x100 JUMP JUMPDEST PUSH4 0x4E487B71 PUSH1 0xE0 SHL PUSH0 MSTORE PUSH1 0x41 PUSH1 0x4 MSTORE PUSH1 0x24 PUSH0 REVERT JUMPDEST SWAP1 POP DUP8 ADD MLOAD PUSH0 PUSH3 0xD3 JUMP JUMPDEST DUP5 SWAP3 POP PUSH1 0x1F NOT DUP3 AND SWAP1 DUP4 PUSH0 MSTORE DUP11 PUSH0 KECCAK256 SWAP2 PUSH0 JUMPDEST DUP13 DUP13 DUP4 DUP4 LT PUSH3 0x310 JUMPI POP POP POP DUP4 GT PUSH3 0x2F7 JUMPI JUMPDEST POP POP DUP2 SHL ADD DUP3 SSTORE PUSH3 0xE5 JUMP JUMPDEST DUP10 ADD MLOAD PUSH0 NOT PUSH1 0xF8 DUP5 PUSH1 0x3 SHL AND SHR NOT AND SWAP1 SSTORE PUSH0 DUP1 PUSH3 0x2EA JUMP JUMPDEST DUP5 ADD MLOAD DUP6 SSTORE DUP9 SWAP7 SWAP1 SWAP5 ADD SWAP4 SWAP3 DUP4 ADD SWAP3 ADD PUSH3 0x2D5 JUMP JUMPDEST DUP4 PUSH0 MSTORE DUP9 PUSH0 KECCAK256 DUP11 DUP1 DUP5 ADD PUSH1 0x5 SHR DUP3 ADD SWAP3 DUP12 DUP6 LT PUSH3 0x364 JUMPI JUMPDEST ADD PUSH1 0x5 SHR ADD SWAP1 DUP5 SWAP1 JUMPDEST DUP3 DUP2 LT PUSH3 0x358 JUMPI POP POP PUSH3 0xBD JUMP JUMPDEST PUSH0 DUP2 SSTORE ADD DUP5 SWAP1 PUSH3 0x348 JUMP JUMPDEST SWAP3 POP DUP2 SWAP3 PUSH3 0x33F JUMP JUMPDEST SWAP9 PUSH1 0x7F AND SWAP9 PUSH3 0xA8 JUMP JUMPDEST PUSH0 DUP1 REVERT JUMPDEST PUSH1 0x40 MLOAD SWAP2 SWAP1 PUSH1 0x1F ADD PUSH1 0x1F NOT AND DUP3 ADD PUSH1 0x1 PUSH1 0x1 PUSH1 0x40 SHL SUB DUP2 GT DUP4 DUP3 LT OR PUSH3 0x2A3 JUMPI PUSH1 0x40 MSTORE JUMP JUMPDEST PUSH0 JUMPDEST DUP4 DUP2 LT PUSH3 0x3B5 JUMPI POP POP PUSH0 SWAP2 ADD MSTORE JUMP JUMPDEST DUP2 DUP2 ADD MLOAD DUP4 DUP3 ADD MSTORE PUSH1 0x20 ADD PUSH3 0x3A5 JUMP JUMPDEST DUP2 PUSH1 0x1F DUP3 ADD SLT ISZERO PUSH3 0x379 JUMPI DUP1 MLOAD PUSH1 0x1 PUSH1 0x1 PUSH1 0x40 SHL SUB DUP2 GT PUSH3 0x2A3 JUMPI PUSH3 0x3F8 PUSH1 0x1F DUP3 ADD PUSH1 0x1F NOT AND PUSH1 0x20 ADD PUSH3 0x37D JUMP JUMPDEST SWAP3 DUP2 DUP5 MSTORE PUSH1 0x20 DUP3 DUP5 ADD ADD GT PUSH3 0x379 JUMPI PUSH3 0x41A SWAP2 PUSH1 0x20 DUP1 DUP6 ADD SWAP2 ADD PUSH3 0x3A3 JUMP JUMPDEST SWAP1 JUMP INVALID PUSH1 0x80 DUP1 PUSH1 0x40 MSTORE PUSH1 0x4 DUP1 CALLDATASIZE LT ISZERO PUSH2 0x13 JUMPI PUSH0 DUP1 REVERT JUMPDEST PUSH0 SWAP2 PUSH0 CALLDATALOAD PUSH1 0xE0 SHR SWAP1 DUP2 PUSH4 0x6FDDE03 EQ PUSH2 0xE54 JUMPI POP DUP1 PUSH4 0x8AE4B0C EQ PUSH2 0xDF5 JUMPI DUP1 PUSH4 0x7284E416 EQ PUSH2 0xD13 JUMPI DUP1 PUSH4 0x8955DCBA EQ PUSH2 0xCE2 JUMPI DUP1 PUSH4 0x940B7C76 EQ PUSH2 0xA06 JUMPI DUP1 PUSH4 0x997072F7 EQ PUSH2 0x9E8 JUMPI DUP1 PUSH4 0x9976FB2A EQ PUSH2 0x957 JUMPI DUP1 PUSH4 0xA7481B5B EQ PUSH2 0x930 JUMPI DUP1 PUSH4 0xB307FC6D EQ PUSH2 0x8EE JUMPI DUP1 PUSH4 0xCB1FB490 EQ PUSH2 0x7FF JUMPI DUP1 PUSH4 0xE1DA7790 EQ PUSH2 0x6CD JUMPI DUP1 PUSH4 0xE82B0C91 EQ PUSH2 0x30B JUMPI DUP1 PUSH4 0xEED02E4B EQ PUSH2 0x10F JUMPI DUP1 PUSH4 0xF1887684 EQ PUSH2 0xEE JUMPI PUSH4 0xF851A440 EQ PUSH2 0xC4 JUMPI PUSH0 DUP1 REVERT JUMPDEST CALLVALUE PUSH2 0xEA JUMPI DUP2 PUSH1 0x3 NOT CALLDATASIZE ADD SLT PUSH2 0xEA JUMPI SLOAD PUSH1 0x40 MLOAD PUSH1 0x1 PUSH1 0x1 PUSH1 0xA0 SHL SUB SWAP1 SWAP2 AND DUP2 MSTORE PUSH1 0x20 SWAP1 RETURN JUMPDEST POP DUP1 REVERT JUMPDEST DUP3 CALLVALUE PUSH2 0x10C JUMPI DUP1 PUSH1 0x3 NOT CALLDATASIZE ADD SLT PUSH2 0x10C JUMPI PUSH1 0x20 PUSH1 0x3 SLOAD PUSH1 0x40 MLOAD SWAP1 DUP2 MSTORE RETURN JUMPDEST DUP1 REVERT JUMPDEST POP SWAP1 CALLVALUE PUSH2 0x10C JUMPI PUSH1 0x20 DUP1 PUSH1 0x3 NOT CALLDATASIZE ADD SLT PUSH2 0xEA JUMPI DUP3 CALLDATALOAD SWAP1 CALLER DUP4 MSTORE PUSH1 0x5 DUP2 MSTORE PUSH1 0xFF PUSH1 0x40 DUP5 KECCAK256 SLOAD AND PUSH2 0x2D5 JUMPI PUSH1 0x3 SLOAD DUP3 LT PUSH2 0x29B JUMPI DUP3 SLOAD PUSH1 0x40 MLOAD PUSH4 0x23B872DD PUSH1 0xE0 SHL DUP2 MSTORE CALLER DUP7 DUP3 ADD MSTORE ADDRESS PUSH1 0x24 DUP3 ADD MSTORE PUSH1 0x44 DUP2 ADD DUP5 SWAP1 MSTORE PUSH1 0x1 PUSH1 0x1 PUSH1 0xA0 SHL SUB SWAP2 DUP4 SWAP1 DUP3 SWAP1 PUSH1 0x64 SWAP1 DUP3 SWAP1 DUP10 SWAP1 DUP8 AND GAS CALL SWAP1 DUP2 ISZERO PUSH2 0x290 JUMPI SWAP1 PUSH2 0x194 SWAP2 DUP7 SWAP2 PUSH2 0x263 JUMPI JUMPDEST POP PUSH2 0x124B JUMP JUMPDEST PUSH1 0x40 MLOAD PUSH2 0x1A0 DUP2 PUSH2 0xF32 JUMP JUMPDEST PUSH1 0x1 DUP2 MSTORE PUSH1 0x3 DUP4 DUP3 ADD DUP7 DUP2 MSTORE PUSH1 0x40 DUP4 ADD DUP7 DUP2 MSTORE PUSH1 0x60 DUP5 ADD SWAP2 DUP9 DUP4 MSTORE CALLER DUP10 MSTORE PUSH1 0x5 DUP8 MSTORE PUSH2 0x1DF PUSH1 0x40 DUP11 KECCAK256 SWAP6 MLOAD ISZERO ISZERO DUP7 SWAP1 PUSH1 0xFF DUP1 NOT DUP4 SLOAD AND SWAP2 ISZERO ISZERO AND OR SWAP1 SSTORE JUMP JUMPDEST MLOAD PUSH1 0x1 DUP6 ADD SSTORE MLOAD PUSH1 0x2 DUP5 ADD SSTORE MLOAD SWAP2 ADD SSTORE PUSH1 0x7 SLOAD PUSH1 0x1 PUSH1 0x40 SHL DUP2 LT ISZERO PUSH2 0x250 JUMPI SWAP1 PUSH2 0x231 DUP3 PUSH1 0x1 PUSH32 0x7F3B9EFFE05CFB4F31F854004DE03199FD03FE56BF38A48B2AA9A9F4402D6E23 SWAP6 SWAP5 ADD PUSH1 0x7 SSTORE PUSH2 0x10A7 JUMP JUMPDEST DUP2 SWAP3 SWAP2 SLOAD SWAP1 PUSH1 0x3 SHL SWAP2 CALLER DUP4 SHL SWAP3 SHL NOT AND OR SWAP1 SSTORE PUSH1 0x40 MLOAD SWAP3 DUP4 MSTORE CALLER SWAP3 LOG2 DUP1 RETURN JUMPDEST PUSH4 0x4E487B71 PUSH1 0xE0 SHL DUP6 MSTORE PUSH1 0x41 DUP7 MSTORE PUSH1 0x24 DUP6 REVERT JUMPDEST PUSH2 0x283 SWAP2 POP DUP5 RETURNDATASIZE DUP7 GT PUSH2 0x289 JUMPI JUMPDEST PUSH2 0x27B DUP2 DUP4 PUSH2 0xF62 JUMP JUMPDEST DUP2 ADD SWAP1 PUSH2 0x1233 JUMP JUMPDEST PUSH0 PUSH2 0x18E JUMP JUMPDEST POP RETURNDATASIZE PUSH2 0x271 JUMP JUMPDEST PUSH1 0x40 MLOAD RETURNDATASIZE DUP8 DUP3 RETURNDATACOPY RETURNDATASIZE SWAP1 REVERT JUMPDEST DUP4 PUSH1 0x64 SWAP2 PUSH1 0x40 MLOAD SWAP2 PUSH3 0x461BCD PUSH1 0xE5 SHL DUP4 MSTORE DUP3 ADD MSTORE PUSH1 0x14 PUSH1 0x24 DUP3 ADD MSTORE PUSH20 0x5374616B6520616D6F756E7420746F6F206C6F77 PUSH1 0x60 SHL PUSH1 0x44 DUP3 ADD MSTORE REVERT JUMPDEST DUP4 PUSH1 0x64 SWAP2 PUSH1 0x40 MLOAD SWAP2 PUSH3 0x461BCD PUSH1 0xE5 SHL DUP4 MSTORE DUP3 ADD MSTORE PUSH1 0x10 PUSH1 0x24 DUP3 ADD MSTORE PUSH16 0x20B63932B0B23C90309036B2B6B132B9 PUSH1 0x81 SHL PUSH1 0x44 DUP3 ADD MSTORE REVERT JUMPDEST POP CALLVALUE PUSH2 0xEA JUMPI PUSH1 0x40 CALLDATASIZE PUSH1 0x3 NOT ADD SLT PUSH2 0xEA JUMPI PUSH1 0x24 SWAP1 DUP2 CALLDATALOAD SWAP2 PUSH8 0xFFFFFFFFFFFFFFFF DUP1 DUP5 GT PUSH2 0x6C9 JUMPI CALLDATASIZE PUSH1 0x23 DUP6 ADD SLT ISZERO PUSH2 0x6C9 JUMPI DUP1 DUP5 DUP5 ADD CALLDATALOAD GT PUSH2 0x6C9 JUMPI CALLDATASIZE DUP3 DUP6 DUP6 ADD CALLDATALOAD DUP7 ADD ADD GT PUSH2 0x6C9 JUMPI CALLER DUP6 MSTORE PUSH1 0x5 PUSH1 0x20 MSTORE PUSH2 0x36E PUSH1 0xFF PUSH1 0x40 DUP8 KECCAK256 SLOAD AND PUSH2 0x11D4 JUMP JUMPDEST CALLER DUP6 MSTORE PUSH1 0x5 PUSH1 0x20 MSTORE PUSH1 0x40 DUP6 KECCAK256 DUP4 CALLDATALOAD ISZERO ISZERO DUP1 PUSH2 0x6BC JUMPI JUMPDEST ISZERO PUSH2 0x686 JUMPI PUSH1 0x3 ADD SWAP1 DUP2 SLOAD PUSH2 0x384 DUP2 ADD DUP1 SWAP2 GT PUSH2 0x674 JUMPI TIMESTAMP GT ISZERO PUSH2 0x631 JUMPI PUSH1 0x40 MLOAD SWAP1 PUSH2 0x3AF DUP3 PUSH2 0xF32 JUMP JUMPDEST TIMESTAMP DUP3 MSTORE PUSH1 0x20 DUP3 ADD SWAP1 DUP6 CALLDATALOAD DUP3 MSTORE PUSH1 0x40 MLOAD PUSH2 0x3D5 PUSH1 0x20 PUSH1 0x1F NOT PUSH1 0x1F DUP12 DUP12 ADD CALLDATALOAD ADD AND ADD DUP3 PUSH2 0xF62 JUMP JUMPDEST DUP7 DUP9 ADD CALLDATALOAD DUP1 DUP3 MSTORE DUP7 DUP10 ADD PUSH1 0x20 DUP4 ADD CALLDATACOPY DUP9 PUSH1 0x20 DUP10 DUP10 ADD CALLDATALOAD DUP4 ADD ADD MSTORE PUSH1 0x40 DUP5 ADD SWAP1 DUP2 MSTORE PUSH1 0x60 DUP5 ADD SWAP3 DUP10 DUP5 MSTORE CALLER DUP11 MSTORE PUSH1 0x6 PUSH1 0x20 MSTORE PUSH1 0x40 DUP11 KECCAK256 DUP1 SLOAD SWAP1 PUSH1 0x1 PUSH1 0x40 SHL DUP3 LT ISZERO PUSH2 0x61F JUMPI SWAP1 PUSH2 0x429 SWAP2 PUSH1 0x1 DUP3 ADD DUP2 SSTORE PUSH2 0x107A JUMP JUMPDEST SWAP6 SWAP1 SWAP6 PUSH2 0x60E JUMPI MLOAD DUP6 SSTORE MLOAD PUSH1 0x1 DUP6 ADD SSTORE MLOAD DUP1 MLOAD SWAP2 DUP3 GT PUSH2 0x5FC JUMPI PUSH2 0x450 PUSH1 0x2 DUP6 ADD SLOAD PUSH2 0xEFA JUMP JUMPDEST PUSH1 0x1F DUP2 GT PUSH2 0x5B4 JUMPI JUMPDEST POP PUSH1 0x20 SWAP1 DUP10 PUSH1 0x1F DUP5 GT PUSH1 0x1 EQ PUSH2 0x51E JUMPI SWAP4 DUP4 PUSH2 0x4CD SWAP5 PUSH32 0xACF854430FF9D79B49EFDA4AE97EF193035CA510D7A123D408F9FF261666933B SWAP11 SWAP10 SWAP8 SWAP5 PUSH1 0x3 SWAP5 PUSH1 0x60 SWAP11 SWAP9 SWAP3 PUSH2 0x513 JUMPI JUMPDEST POP POP DUP2 PUSH1 0x1 SHL SWAP2 PUSH0 NOT SWAP1 DUP6 SHL SHR NOT AND OR PUSH1 0x2 DUP5 ADD SSTORE JUMPDEST MLOAD ISZERO ISZERO SWAP2 ADD SWAP1 PUSH1 0xFF DUP1 NOT DUP4 SLOAD AND SWAP2 ISZERO ISZERO AND OR SWAP1 SSTORE JUMP JUMPDEST TIMESTAMP SWAP1 SSTORE PUSH1 0x40 MLOAD SWAP3 DUP4 SWAP2 DUP2 CALLDATALOAD DUP4 MSTORE PUSH1 0x40 PUSH1 0x20 DUP5 ADD MSTORE DUP7 DUP3 ADD CALLDATALOAD PUSH1 0x40 DUP5 ADD MSTORE DUP7 DUP3 ADD CALLDATALOAD SWAP1 DUP8 ADD DUP5 DUP5 ADD CALLDATACOPY DUP7 DUP4 DUP8 DUP4 ADD CALLDATALOAD DUP5 ADD ADD MSTORE PUSH1 0x1F CALLER SWAP7 DUP2 NOT SWAP3 ADD CALLDATALOAD ADD AND DUP2 ADD SUB ADD SWAP1 LOG2 DUP1 RETURN JUMPDEST ADD MLOAD SWAP1 POP PUSH0 DUP1 PUSH2 0x4A1 JUMP JUMPDEST POP PUSH1 0x2 DUP6 ADD DUP11 MSTORE PUSH1 0x20 DUP11 KECCAK256 SWAP2 SWAP1 PUSH1 0x1F NOT DUP5 AND DUP12 JUMPDEST DUP2 DUP2 LT PUSH2 0x59C JUMPI POP DUP5 PUSH32 0xACF854430FF9D79B49EFDA4AE97EF193035CA510D7A123D408F9FF261666933B SWAP11 SWAP10 SWAP8 SWAP5 PUSH1 0x3 SWAP5 PUSH1 0x60 SWAP11 SWAP9 SWAP5 PUSH2 0x4CD SWAP9 PUSH1 0x1 SWAP6 LT PUSH2 0x585 JUMPI JUMPDEST POP POP POP DUP2 SHL ADD PUSH1 0x2 DUP5 ADD SSTORE PUSH2 0x4B7 JUMP JUMPDEST ADD MLOAD PUSH0 NOT DUP4 DUP8 SHL PUSH1 0xF8 AND SHR NOT AND SWAP1 SSTORE PUSH0 DUP1 DUP1 PUSH2 0x575 JUMP JUMPDEST SWAP3 SWAP4 PUSH1 0x20 PUSH1 0x1 DUP2 SWAP3 DUP8 DUP7 ADD MLOAD DUP2 SSTORE ADD SWAP6 ADD SWAP4 ADD PUSH2 0x532 JUMP JUMPDEST PUSH1 0x2 DUP6 ADD DUP11 MSTORE PUSH1 0x20 DUP11 KECCAK256 PUSH1 0x1F DUP5 ADD PUSH1 0x5 SHR DUP2 ADD SWAP2 PUSH1 0x20 DUP6 LT PUSH2 0x5F2 JUMPI JUMPDEST PUSH1 0x1F ADD PUSH1 0x5 SHR ADD SWAP1 JUMPDEST DUP2 DUP2 LT PUSH2 0x5E7 JUMPI POP PUSH2 0x459 JUMP JUMPDEST DUP11 DUP2 SSTORE PUSH1 0x1 ADD PUSH2 0x5DA JUMP JUMPDEST SWAP1 SWAP2 POP DUP2 SWAP1 PUSH2 0x5D1 JUMP JUMPDEST PUSH4 0x4E487B71 PUSH1 0xE0 SHL DUP10 MSTORE PUSH1 0x41 DUP8 MSTORE DUP6 DUP10 REVERT JUMPDEST PUSH4 0x4E487B71 PUSH1 0xE0 SHL DUP12 MSTORE DUP11 DUP10 MSTORE DUP8 DUP12 REVERT JUMPDEST PUSH4 0x4E487B71 PUSH1 0xE0 SHL DUP13 MSTORE PUSH1 0x41 DUP11 MSTORE DUP9 DUP13 REVERT JUMPDEST PUSH1 0x40 MLOAD PUSH3 0x461BCD PUSH1 0xE5 SHL DUP2 MSTORE PUSH1 0x20 DUP2 DUP7 ADD MSTORE PUSH1 0x18 DUP2 DUP6 ADD MSTORE PUSH32 0x546F6F20736F6F6E20666F72206E65772073657373696F6E0000000000000000 PUSH1 0x44 DUP3 ADD MSTORE PUSH1 0x64 SWAP1 REVERT JUMPDEST PUSH4 0x4E487B71 PUSH1 0xE0 SHL DUP8 MSTORE PUSH1 0x11 DUP6 MSTORE DUP4 DUP8 REVERT JUMPDEST PUSH1 0x40 MLOAD PUSH3 0x461BCD PUSH1 0xE5 SHL DUP2 MSTORE PUSH1 0x20 DUP2 DUP7 ADD MSTORE PUSH1 0x10 DUP2 DUP6 ADD MSTORE PUSH16 0x24B73B30B634B210323AB930BA34B7B7 PUSH1 0x81 SHL PUSH1 0x44 DUP3 ADD MSTORE PUSH1 0x64 SWAP1 REVERT JUMPDEST POP PUSH2 0x2D0 DUP5 CALLDATALOAD GT ISZERO PUSH2 0x384 JUMP JUMPDEST DUP5 DUP1 REVERT JUMPDEST POP CALLVALUE PUSH2 0xEA JUMPI PUSH1 0x20 SWAP1 DUP2 PUSH1 0x3 NOT CALLDATASIZE ADD SLT PUSH2 0x7FB JUMPI PUSH1 0x1 PUSH1 0x1 PUSH1 0xA0 SHL SUB PUSH2 0x6F1 PUSH2 0x1064 JUMP JUMPDEST AND DUP4 MSTORE PUSH1 0x6 DUP3 MSTORE PUSH1 0x40 DUP4 KECCAK256 SWAP1 DUP2 SLOAD PUSH8 0xFFFFFFFFFFFFFFFF DUP2 GT PUSH2 0x7E8 JUMPI PUSH1 0x40 MLOAD SWAP4 SWAP5 SWAP2 PUSH2 0x724 PUSH1 0x5 DUP4 SWAP1 SHL DUP8 ADD DUP7 PUSH2 0xF62 JUMP JUMPDEST DUP2 DUP6 MSTORE DUP6 DUP6 ADD DUP1 SWAP5 DUP5 MSTORE DUP7 DUP5 KECCAK256 DUP5 SWAP2 JUMPDEST DUP5 DUP4 LT PUSH2 0x7C4 JUMPI POP POP POP POP POP PUSH1 0x40 MLOAD SWAP3 DUP5 DUP5 ADD SWAP1 DUP6 DUP6 MSTORE MLOAD DUP1 SWAP2 MSTORE PUSH1 0x40 DUP5 ADD SWAP5 PUSH1 0x40 DUP3 PUSH1 0x5 SHL DUP7 ADD ADD SWAP4 SWAP3 SWAP6 JUMPDEST DUP3 DUP8 LT PUSH2 0x76E JUMPI DUP6 DUP6 SUB DUP7 RETURN JUMPDEST SWAP1 SWAP2 SWAP3 SWAP4 DUP3 DUP1 PUSH1 0x1 SWAP3 PUSH1 0x3F NOT DUP10 DUP3 SUB ADD DUP6 MSTORE DUP8 MLOAD SWAP1 PUSH2 0x7A8 PUSH1 0x80 DUP4 MLOAD DUP4 MSTORE DUP5 DUP5 ADD MLOAD DUP6 DUP5 ADD MSTORE PUSH1 0x40 DUP5 ADD MLOAD SWAP1 DUP1 PUSH1 0x40 DUP6 ADD MSTORE DUP4 ADD SWAP1 PUSH2 0x1026 JUMP JUMPDEST SWAP2 PUSH1 0x60 DUP1 SWAP2 ADD MLOAD ISZERO ISZERO SWAP2 ADD MSTORE SWAP7 ADD SWAP3 ADD SWAP7 ADD SWAP6 SWAP3 SWAP2 SWAP1 SWAP3 PUSH2 0x761 JUMP JUMPDEST DUP4 DUP10 PUSH1 0x1 SWAP3 PUSH2 0x7D6 DUP6 SWAP13 SWAP12 SWAP10 SWAP13 PUSH2 0x10DC JUMP JUMPDEST DUP2 MSTORE ADD SWAP3 ADD SWAP3 ADD SWAP2 SWAP1 SWAP8 SWAP5 SWAP7 SWAP8 PUSH2 0x734 JUMP JUMPDEST PUSH4 0x4E487B71 PUSH1 0xE0 SHL DUP6 MSTORE PUSH1 0x41 DUP3 MSTORE PUSH1 0x24 DUP6 REVERT JUMPDEST DUP3 DUP1 REVERT JUMPDEST POP CALLVALUE PUSH2 0xEA JUMPI DUP2 PUSH1 0x3 NOT CALLDATASIZE ADD SLT PUSH2 0xEA JUMPI CALLER DUP3 MSTORE PUSH2 0x883 PUSH1 0x20 PUSH1 0x5 DUP2 MSTORE PUSH2 0x82C PUSH1 0xFF PUSH1 0x40 DUP7 KECCAK256 SLOAD AND PUSH2 0x11D4 JUMP JUMPDEST CALLER DUP1 DUP6 MSTORE PUSH1 0x5 DUP3 MSTORE PUSH1 0x40 DUP1 DUP7 KECCAK256 PUSH1 0x2 DUP2 ADD DUP1 SLOAD DUP3 SLOAD PUSH1 0xFF NOT AND SWAP1 SWAP3 SSTORE DUP8 SWAP1 SSTORE DUP7 SLOAD DUP3 MLOAD PUSH4 0xA9059CBB PUSH1 0xE0 SHL DUP2 MSTORE SWAP7 DUP8 ADD SWAP4 DUP5 MSTORE PUSH1 0x20 DUP5 ADD DUP3 SWAP1 MSTORE SWAP1 SWAP6 SWAP5 DUP5 SWAP4 DUP7 SWAP4 PUSH1 0x1 PUSH1 0x1 PUSH1 0xA0 SHL SUB SWAP1 SWAP4 AND SWAP3 DUP5 SWAP3 DUP11 SWAP3 DUP5 SWAP3 ADD SWAP1 JUMP JUMPDEST SUB SWAP3 GAS CALL SWAP2 DUP3 ISZERO PUSH2 0x8E3 JUMPI PUSH32 0x9346EE3B9C76468DDD2FDBFB65DAE9DA6E2479083B25CD80377D6809F6F8C69D SWAP3 PUSH2 0x8C0 SWAP2 DUP7 SWAP2 PUSH2 0x8CC JUMPI POP PUSH2 0x124B JUMP JUMPDEST PUSH1 0x40 MLOAD SWAP3 DUP4 MSTORE CALLER SWAP3 LOG2 DUP1 RETURN JUMPDEST PUSH2 0x283 SWAP2 POP DUP4 RETURNDATASIZE DUP6 GT PUSH2 0x289 JUMPI PUSH2 0x27B DUP2 DUP4 PUSH2 0xF62 JUMP JUMPDEST PUSH1 0x40 MLOAD RETURNDATASIZE DUP7 DUP3 RETURNDATACOPY RETURNDATASIZE SWAP1 REVERT JUMPDEST POP CALLVALUE PUSH2 0xEA JUMPI PUSH1 0x20 CALLDATASIZE PUSH1 0x3 NOT ADD SLT PUSH2 0xEA JUMPI CALLDATALOAD SWAP1 PUSH1 0x7 SLOAD DUP3 LT ISZERO PUSH2 0x10C JUMPI PUSH1 0x20 PUSH2 0x917 DUP4 PUSH2 0x10A7 JUMP JUMPDEST SWAP1 SLOAD PUSH1 0x40 MLOAD PUSH1 0x3 SWAP3 SWAP1 SWAP3 SHL SHR PUSH1 0x1 PUSH1 0x1 PUSH1 0xA0 SHL SUB AND DUP2 MSTORE RETURN JUMPDEST DUP3 CALLVALUE PUSH2 0x10C JUMPI DUP1 PUSH1 0x3 NOT CALLDATASIZE ADD SLT PUSH2 0x10C JUMPI SLOAD PUSH1 0x40 MLOAD PUSH1 0x1 PUSH1 0x1 PUSH1 0xA0 SHL SUB SWAP1 SWAP2 AND DUP2 MSTORE PUSH1 0x20 SWAP1 RETURN JUMPDEST DUP3 CALLVALUE PUSH2 0x10C JUMPI PUSH1 0x40 CALLDATASIZE PUSH1 0x3 NOT ADD SLT PUSH2 0x10C JUMPI PUSH2 0x971 PUSH2 0x1064 JUMP JUMPDEST PUSH1 0x1 PUSH1 0x1 PUSH1 0xA0 SHL SUB AND DUP2 MSTORE PUSH1 0x6 PUSH1 0x20 MSTORE PUSH1 0x40 DUP2 KECCAK256 DUP1 SLOAD PUSH1 0x24 CALLDATALOAD SWAP2 SWAP1 DUP3 LT ISZERO PUSH2 0x7FB JUMPI PUSH2 0x99D SWAP3 POP PUSH2 0x107A JUMP JUMPDEST POP DUP1 SLOAD PUSH1 0x1 DUP3 ADD SLOAD SWAP2 PUSH2 0x9DC PUSH1 0xFF PUSH1 0x3 PUSH2 0x9B9 PUSH1 0x2 DUP6 ADD PUSH2 0xF84 JUMP JUMPDEST SWAP4 ADD SLOAD AND SWAP2 PUSH1 0x40 MLOAD SWAP5 DUP6 SWAP5 DUP6 MSTORE PUSH1 0x20 DUP6 ADD MSTORE PUSH1 0x80 PUSH1 0x40 DUP6 ADD MSTORE PUSH1 0x80 DUP5 ADD SWAP1 PUSH2 0x1026 JUMP JUMPDEST SWAP1 ISZERO ISZERO PUSH1 0x60 DUP4 ADD MSTORE SUB SWAP1 RETURN JUMPDEST DUP3 CALLVALUE PUSH2 0x10C JUMPI DUP1 PUSH1 0x3 NOT CALLDATASIZE ADD SLT PUSH2 0x10C JUMPI PUSH1 0x20 PUSH1 0x7 SLOAD PUSH1 0x40 MLOAD SWAP1 DUP2 MSTORE RETURN JUMPDEST POP CALLVALUE PUSH2 0xBB9 JUMPI PUSH1 0x40 CALLDATASIZE PUSH1 0x3 NOT ADD SLT PUSH2 0xBB9 JUMPI PUSH2 0xA20 PUSH2 0x1064 JUMP JUMPDEST DUP2 SLOAD PUSH1 0x24 SWAP3 DUP4 CALLDATALOAD SWAP3 PUSH1 0x1 PUSH1 0x1 PUSH1 0xA0 SHL SUB SWAP3 DUP4 AND CALLER SUB PUSH2 0xC95 JUMPI DUP3 DUP2 AND SWAP5 DUP6 PUSH0 MSTORE PUSH1 0x20 SWAP3 PUSH1 0x5 DUP5 MSTORE PUSH1 0xFF PUSH1 0x40 PUSH0 KECCAK256 SLOAD AND ISZERO PUSH2 0xC5D JUMPI DUP7 PUSH0 MSTORE PUSH1 0x6 DUP5 MSTORE PUSH1 0x40 PUSH0 KECCAK256 SLOAD DUP7 LT ISZERO PUSH2 0xC24 JUMPI DUP7 PUSH0 MSTORE PUSH1 0x6 DUP5 MSTORE PUSH2 0xA7B DUP7 PUSH1 0x40 PUSH0 KECCAK256 PUSH2 0x107A JUMP JUMPDEST POP PUSH1 0x3 DUP2 ADD DUP1 SLOAD PUSH1 0xFF DUP2 AND PUSH2 0xBE1 JUMPI SWAP1 PUSH1 0x1 DUP1 SWAP4 SWAP3 PUSH1 0xFF NOT AND OR SWAP1 SSTORE ADD DUP1 SLOAD DUP9 PUSH0 MSTORE PUSH1 0x5 DUP7 MSTORE PUSH1 0x1 PUSH1 0x40 PUSH0 KECCAK256 ADD DUP1 SLOAD SWAP2 DUP3 ADD DUP1 SWAP3 GT PUSH2 0xBCF JUMPI SSTORE SLOAD PUSH8 0xDE0B6B3A7640000 SWAP1 DUP2 DUP2 MUL SWAP2 DUP2 DUP4 DIV EQ SWAP1 ISZERO OR ISZERO PUSH2 0xBBD JUMPI PUSH1 0xA SWAP1 DIV SWAP5 PUSH0 SLOAD AND DUP1 EXTCODESIZE ISZERO PUSH2 0xBB9 JUMPI PUSH1 0x40 DUP1 MLOAD PUSH4 0x4D248487 PUSH1 0xE1 SHL DUP2 MSTORE PUSH1 0x1 PUSH1 0x1 PUSH1 0xA0 SHL SUB SWAP1 SWAP6 AND DUP4 DUP7 ADD SWAP1 DUP2 MSTORE PUSH1 0x20 DUP2 ADD DUP9 SWAP1 MSTORE PUSH0 SWAP3 DUP7 SWAP3 SWAP1 SWAP2 DUP4 SWAP2 DUP6 SWAP2 DUP4 SWAP2 ADD SUB SWAP3 GAS CALL DUP1 ISZERO PUSH2 0xBAE JUMPI PUSH2 0xB56 JUMPI JUMPDEST POP POP POP SWAP2 PUSH1 0x40 SWAP2 PUSH32 0x63863815B4DCF3C8ACAEEE732C56DFC0972A7DA5A49F45EF55463F47234EEE76 SWAP4 DUP4 MLOAD SWAP3 DUP4 MSTORE DUP3 ADD MSTORE LOG2 DUP1 RETURN JUMPDEST SWAP1 SWAP2 SWAP3 SWAP7 POP PUSH8 0xFFFFFFFFFFFFFFFF DUP4 GT PUSH2 0xB9D JUMPI POP POP PUSH1 0x40 SWAP1 DUP2 MSTORE PUSH0 SWAP5 SWAP1 DUP3 SWAP1 PUSH32 0x63863815B4DCF3C8ACAEEE732C56DFC0972A7DA5A49F45EF55463F47234EEE76 SWAP1 PUSH2 0xB21 JUMP JUMPDEST PUSH1 0x41 SWAP1 PUSH4 0x4E487B71 PUSH1 0xE0 SHL PUSH0 MSTORE MSTORE PUSH0 REVERT JUMPDEST PUSH1 0x40 MLOAD RETURNDATASIZE PUSH0 DUP3 RETURNDATACOPY RETURNDATASIZE SWAP1 REVERT JUMPDEST PUSH0 DUP1 REVERT JUMPDEST POP PUSH1 0x11 SWAP1 PUSH4 0x4E487B71 PUSH1 0xE0 SHL PUSH0 MSTORE MSTORE PUSH0 REVERT JUMPDEST DUP5 PUSH1 0x11 DUP6 PUSH4 0x4E487B71 PUSH1 0xE0 SHL PUSH0 MSTORE MSTORE PUSH0 REVERT JUMPDEST PUSH1 0x40 MLOAD PUSH3 0x461BCD PUSH1 0xE5 SHL DUP2 MSTORE DUP1 DUP6 ADD DUP9 SWAP1 MSTORE PUSH1 0x18 DUP2 DUP8 ADD MSTORE PUSH32 0x53657373696F6E20616C72656164792076657269666965640000000000000000 PUSH1 0x44 DUP3 ADD MSTORE PUSH1 0x64 SWAP1 REVERT JUMPDEST PUSH1 0x15 PUSH1 0x64 SWAP3 DUP6 PUSH1 0x40 MLOAD SWAP4 PUSH3 0x461BCD PUSH1 0xE5 SHL DUP6 MSTORE DUP5 ADD MSTORE DUP3 ADD MSTORE PUSH21 0x92DCECC2D8D2C840E6CAE6E6D2DEDC40D2DCC8CAF PUSH1 0x5B SHL PUSH1 0x44 DUP3 ADD MSTORE REVERT JUMPDEST PUSH1 0x14 PUSH1 0x64 SWAP3 DUP6 PUSH1 0x40 MLOAD SWAP4 PUSH3 0x461BCD PUSH1 0xE5 SHL DUP6 MSTORE DUP5 ADD MSTORE DUP3 ADD MSTORE PUSH20 0x2737BA1030B71030B1BA34BB329036B2B6B132B9 PUSH1 0x61 SHL PUSH1 0x44 DUP3 ADD MSTORE REVERT JUMPDEST PUSH1 0x40 MLOAD PUSH3 0x461BCD PUSH1 0xE5 SHL DUP2 MSTORE PUSH1 0x20 DUP2 DUP5 ADD MSTORE PUSH1 0x21 DUP2 DUP8 ADD MSTORE PUSH32 0x4F6E6C792061646D696E2063616E2063616C6C20746869732066756E6374696F PUSH1 0x44 DUP3 ADD MSTORE PUSH1 0x37 PUSH1 0xF9 SHL PUSH1 0x64 DUP3 ADD MSTORE PUSH1 0x84 SWAP1 REVERT JUMPDEST CALLVALUE PUSH2 0xBB9 JUMPI PUSH1 0x20 CALLDATASIZE PUSH1 0x3 NOT ADD SLT PUSH2 0xBB9 JUMPI PUSH1 0x40 PUSH2 0xD05 PUSH2 0xD00 PUSH2 0x1064 JUMP JUMPDEST PUSH2 0x111A JUMP JUMPDEST DUP3 MLOAD SWAP2 ISZERO ISZERO DUP3 MSTORE PUSH1 0x20 DUP3 ADD MSTORE RETURN JUMPDEST CALLVALUE PUSH2 0xBB9 JUMPI PUSH0 CALLDATASIZE PUSH1 0x3 NOT ADD SLT PUSH2 0xBB9 JUMPI PUSH1 0x40 MLOAD PUSH1 0x2 SLOAD PUSH0 DUP3 PUSH2 0xD34 DUP4 PUSH2 0xEFA JUMP JUMPDEST SWAP2 DUP3 DUP3 MSTORE PUSH1 0x20 SWAP4 PUSH1 0x1 SWAP1 DUP6 PUSH1 0x1 DUP3 AND SWAP2 DUP3 PUSH0 EQ PUSH2 0xDD5 JUMPI POP POP PUSH1 0x1 EQ PUSH2 0xD7A JUMPI JUMPDEST POP PUSH2 0xD62 SWAP3 POP SUB DUP4 PUSH2 0xF62 JUMP JUMPDEST PUSH2 0xD76 PUSH1 0x40 MLOAD SWAP3 DUP3 DUP5 SWAP4 DUP5 MSTORE DUP4 ADD SWAP1 PUSH2 0x1026 JUMP JUMPDEST SUB SWAP1 RETURN JUMPDEST DUP5 SWAP2 POP PUSH1 0x2 PUSH0 MSTORE PUSH32 0x405787FA12A823E0F2B7631CC41B3BA8828B3321CA811111FA75CD3AA3BB5ACE SWAP1 PUSH0 SWAP2 JUMPDEST DUP6 DUP4 LT PUSH2 0xDBD JUMPI POP POP PUSH2 0xD62 SWAP4 POP DUP3 ADD ADD DUP6 PUSH2 0xD55 JUMP JUMPDEST DUP1 SLOAD DUP4 DUP10 ADD DUP6 ADD MSTORE DUP8 SWAP5 POP DUP7 SWAP4 SWAP1 SWAP3 ADD SWAP2 DUP2 ADD PUSH2 0xDA6 JUMP JUMPDEST PUSH1 0xFF NOT AND DUP6 DUP3 ADD MSTORE PUSH2 0xD62 SWAP6 ISZERO ISZERO PUSH1 0x5 SHL DUP6 ADD ADD SWAP3 POP DUP8 SWAP2 POP PUSH2 0xD55 SWAP1 POP JUMP JUMPDEST CALLVALUE PUSH2 0xBB9 JUMPI PUSH1 0x20 CALLDATASIZE PUSH1 0x3 NOT ADD SLT PUSH2 0xBB9 JUMPI PUSH1 0x1 PUSH1 0x1 PUSH1 0xA0 SHL SUB PUSH2 0xE16 PUSH2 0x1064 JUMP JUMPDEST AND PUSH0 MSTORE PUSH1 0x5 PUSH1 0x20 MSTORE PUSH1 0x80 PUSH1 0x40 PUSH0 KECCAK256 PUSH1 0xFF DUP2 SLOAD AND SWAP1 PUSH1 0x1 DUP2 ADD SLOAD SWAP1 PUSH1 0x3 PUSH1 0x2 DUP3 ADD SLOAD SWAP2 ADD SLOAD SWAP2 PUSH1 0x40 MLOAD SWAP4 ISZERO ISZERO DUP5 MSTORE PUSH1 0x20 DUP5 ADD MSTORE PUSH1 0x40 DUP4 ADD MSTORE PUSH1 0x60 DUP3 ADD MSTORE RETURN JUMPDEST CALLVALUE PUSH2 0xBB9 JUMPI PUSH0 CALLDATASIZE PUSH1 0x3 NOT ADD SLT PUSH2 0xBB9 JUMPI PUSH0 PUSH1 0x1 DUP3 PUSH1 0x1 SLOAD SWAP3 PUSH2 0xE75 DUP5 PUSH2 0xEFA JUMP JUMPDEST SWAP3 DUP4 DUP4 MSTORE PUSH1 0x20 SWAP5 DUP6 PUSH1 0x1 DUP3 AND SWAP2 DUP3 PUSH0 EQ PUSH2 0xDD5 JUMPI POP POP PUSH1 0x1 EQ PUSH2 0xE9F JUMPI POP PUSH2 0xD62 SWAP3 POP SUB DUP4 PUSH2 0xF62 JUMP JUMPDEST DUP5 SWAP2 POP PUSH1 0x1 PUSH0 MSTORE PUSH32 0xB10E2D527612073B26EECDFD717E6A320CF44B4AFAC2B0732D9FCBE2B7FA0CF6 SWAP1 PUSH0 SWAP2 JUMPDEST DUP6 DUP4 LT PUSH2 0xEE2 JUMPI POP POP PUSH2 0xD62 SWAP4 POP DUP3 ADD ADD DUP6 PUSH2 0xD55 JUMP JUMPDEST DUP1 SLOAD DUP4 DUP10 ADD DUP6 ADD MSTORE DUP8 SWAP5 POP DUP7 SWAP4 SWAP1 SWAP3 ADD SWAP2 DUP2 ADD PUSH2 0xECB JUMP JUMPDEST SWAP1 PUSH1 0x1 DUP3 DUP2 SHR SWAP3 AND DUP1 ISZERO PUSH2 0xF28 JUMPI JUMPDEST PUSH1 0x20 DUP4 LT EQ PUSH2 0xF14 JUMPI JUMP JUMPDEST PUSH4 0x4E487B71 PUSH1 0xE0 SHL PUSH0 MSTORE PUSH1 0x22 PUSH1 0x4 MSTORE PUSH1 0x24 PUSH0 REVERT JUMPDEST SWAP2 PUSH1 0x7F AND SWAP2 PUSH2 0xF09 JUMP JUMPDEST PUSH1 0x80 DUP2 ADD SWAP1 DUP2 LT PUSH8 0xFFFFFFFFFFFFFFFF DUP3 GT OR PUSH2 0xF4E JUMPI PUSH1 0x40 MSTORE JUMP JUMPDEST PUSH4 0x4E487B71 PUSH1 0xE0 SHL PUSH0 MSTORE PUSH1 0x41 PUSH1 0x4 MSTORE PUSH1 0x24 PUSH0 REVERT JUMPDEST SWAP1 PUSH1 0x1F DUP1 NOT SWAP2 ADD AND DUP2 ADD SWAP1 DUP2 LT PUSH8 0xFFFFFFFFFFFFFFFF DUP3 GT OR PUSH2 0xF4E JUMPI PUSH1 0x40 MSTORE JUMP JUMPDEST SWAP1 PUSH1 0x40 MLOAD SWAP2 DUP3 PUSH0 DUP3 SLOAD PUSH2 0xF96 DUP2 PUSH2 0xEFA JUMP JUMPDEST SWAP1 DUP2 DUP5 MSTORE PUSH1 0x20 SWAP5 PUSH1 0x1 SWAP2 PUSH1 0x1 DUP2 AND SWAP1 DUP2 PUSH0 EQ PUSH2 0x1004 JUMPI POP PUSH1 0x1 EQ PUSH2 0xFC6 JUMPI JUMPDEST POP POP POP PUSH2 0xFC4 SWAP3 POP SUB DUP4 PUSH2 0xF62 JUMP JUMPDEST JUMP JUMPDEST PUSH0 SWAP1 DUP2 MSTORE DUP6 DUP2 KECCAK256 SWAP6 SWAP4 POP SWAP2 SWAP1 JUMPDEST DUP2 DUP4 LT PUSH2 0xFEC JUMPI POP POP PUSH2 0xFC4 SWAP4 POP DUP3 ADD ADD PUSH0 DUP1 DUP1 PUSH2 0xFB5 JUMP JUMPDEST DUP6 SLOAD DUP9 DUP5 ADD DUP6 ADD MSTORE SWAP5 DUP6 ADD SWAP5 DUP8 SWAP5 POP SWAP2 DUP4 ADD SWAP2 PUSH2 0xFD3 JUMP JUMPDEST SWAP3 POP POP POP PUSH2 0xFC4 SWAP5 SWAP3 POP PUSH1 0xFF NOT AND DUP3 DUP5 ADD MSTORE ISZERO ISZERO PUSH1 0x5 SHL DUP3 ADD ADD PUSH0 DUP1 DUP1 PUSH2 0xFB5 JUMP JUMPDEST SWAP2 SWAP1 DUP3 MLOAD SWAP3 DUP4 DUP3 MSTORE PUSH0 JUMPDEST DUP5 DUP2 LT PUSH2 0x1050 JUMPI POP POP DUP3 PUSH0 PUSH1 0x20 DUP1 SWAP5 SWAP6 DUP5 ADD ADD MSTORE PUSH1 0x1F DUP1 NOT SWAP2 ADD AND ADD ADD SWAP1 JUMP JUMPDEST PUSH1 0x20 DUP2 DUP4 ADD DUP2 ADD MLOAD DUP5 DUP4 ADD DUP3 ADD MSTORE ADD PUSH2 0x1030 JUMP JUMPDEST PUSH1 0x4 CALLDATALOAD SWAP1 PUSH1 0x1 PUSH1 0x1 PUSH1 0xA0 SHL SUB DUP3 AND DUP3 SUB PUSH2 0xBB9 JUMPI JUMP JUMPDEST DUP1 SLOAD DUP3 LT ISZERO PUSH2 0x1093 JUMPI PUSH0 MSTORE PUSH1 0x20 PUSH0 KECCAK256 SWAP1 PUSH1 0x2 SHL ADD SWAP1 PUSH0 SWAP1 JUMP JUMPDEST PUSH4 0x4E487B71 PUSH1 0xE0 SHL PUSH0 MSTORE PUSH1 0x32 PUSH1 0x4 MSTORE PUSH1 0x24 PUSH0 REVERT JUMPDEST PUSH1 0x7 SLOAD DUP2 LT ISZERO PUSH2 0x1093 JUMPI PUSH1 0x7 PUSH0 MSTORE PUSH32 0xA66CC928B5EDB82AF9BD49922954155AB7B0942694BEA4CE44661D9A8736C688 ADD SWAP1 PUSH0 SWAP1 JUMP JUMPDEST SWAP1 PUSH1 0x40 MLOAD PUSH2 0x10E9 DUP2 PUSH2 0xF32 JUMP JUMPDEST PUSH1 0x60 PUSH1 0xFF PUSH1 0x3 DUP4 SWAP6 DUP1 SLOAD DUP6 MSTORE PUSH1 0x1 DUP2 ADD SLOAD PUSH1 0x20 DUP7 ADD MSTORE PUSH2 0x110B PUSH1 0x2 DUP3 ADD PUSH2 0xF84 JUMP JUMPDEST PUSH1 0x40 DUP7 ADD MSTORE ADD SLOAD AND ISZERO ISZERO SWAP2 ADD MSTORE JUMP JUMPDEST PUSH1 0x1 PUSH1 0x1 PUSH1 0xA0 SHL SUB AND PUSH0 DUP2 DUP2 MSTORE PUSH1 0x5 PUSH1 0x20 MSTORE PUSH1 0x40 SWAP1 KECCAK256 SLOAD PUSH1 0xFF AND ISZERO DUP1 ISZERO PUSH2 0x11C3 JUMPI JUMPDEST PUSH2 0x11BC JUMPI PUSH1 0x6 PUSH1 0x20 MSTORE PUSH1 0x40 PUSH0 KECCAK256 SLOAD PUSH0 NOT DUP2 ADD SWAP2 SWAP1 DUP3 GT PUSH2 0x11A8 JUMPI PUSH0 MSTORE PUSH1 0x6 PUSH1 0x20 MSTORE PUSH2 0x1173 PUSH2 0x116D DUP3 PUSH1 0x40 PUSH0 KECCAK256 PUSH2 0x107A JUMP JUMPDEST POP PUSH2 0x10DC JUMP JUMPDEST PUSH1 0x60 DUP2 ADD MLOAD ISZERO SWAP1 DUP2 PUSH2 0x1191 JUMPI JUMPDEST POP PUSH2 0x118C JUMPI POP PUSH0 SWAP1 PUSH0 SWAP1 JUMP JUMPDEST PUSH1 0x1 SWAP2 JUMP JUMPDEST SWAP1 POP MLOAD TIMESTAMP SUB TIMESTAMP DUP2 GT PUSH2 0x11A8 JUMPI PUSH3 0x15180 GT PUSH0 PUSH2 0x1180 JUMP JUMPDEST PUSH4 0x4E487B71 PUSH1 0xE0 SHL PUSH0 MSTORE PUSH1 0x11 PUSH1 0x4 MSTORE PUSH1 0x24 PUSH0 REVERT JUMPDEST POP PUSH0 SWAP1 PUSH0 SWAP1 JUMP JUMPDEST POP PUSH1 0x6 PUSH1 0x20 MSTORE PUSH1 0x40 PUSH0 KECCAK256 SLOAD ISZERO PUSH2 0x113C JUMP JUMPDEST ISZERO PUSH2 0x11DB JUMPI JUMP JUMPDEST PUSH1 0x40 MLOAD PUSH3 0x461BCD PUSH1 0xE5 SHL DUP2 MSTORE PUSH1 0x20 PUSH1 0x4 DUP3 ADD MSTORE PUSH1 0x2A PUSH1 0x24 DUP3 ADD MSTORE PUSH32 0x4F6E6C7920616374697665206D656D626572732063616E2063616C6C20746869 PUSH1 0x44 DUP3 ADD MSTORE PUSH10 0x3990333AB731BA34B7B7 PUSH1 0xB1 SHL PUSH1 0x64 DUP3 ADD MSTORE PUSH1 0x84 SWAP1 REVERT JUMPDEST SWAP1 DUP2 PUSH1 0x20 SWAP2 SUB SLT PUSH2 0xBB9 JUMPI MLOAD DUP1 ISZERO ISZERO DUP2 SUB PUSH2 0xBB9 JUMPI SWAP1 JUMP JUMPDEST ISZERO PUSH2 0x1252 JUMPI JUMP JUMPDEST PUSH1 0x40 MLOAD PUSH3 0x461BCD PUSH1 0xE5 SHL DUP2 MSTORE PUSH1 0x20 PUSH1 0x4 DUP3 ADD MSTORE PUSH1 0x15 PUSH1 0x24 DUP3 ADD MSTORE PUSH21 0x151BDAD95B881D1C985B9CD9995C8819985A5B1959 PUSH1 0x5A SHL PUSH1 0x44 DUP3 ADD MSTORE PUSH1 0x64 SWAP1 REVERT INVALID LOG2 PUSH5 0x6970667358 0x22 SLT KECCAK256 0x21 MOD 0xCC DUP6 0xE9 ADDRESS 0xD 0x2D 0xB0 ADDRESS SWAP14 CALLDATALOAD 0xC7 SGT CALLER PUSH27 0x5FC686A157F8C76D5A9D6DA5FD87FE9464736F6C63430008180033 RETURNDATACOPY SHL 0x4F SWAP8 0xE8 PUSH3 0x111910 0xE8 PUSH15 0x390290F23C777B33A9DD65E20CFB69 0xE 0xB4 MLOAD MCOPY SWAP11 0xC3 "
		},
		"gasEstimates": {
			"creation": {
				"codeDepositCost": "961000",
				"executionCost": "infinite",
				"totalCost": "infinite"
			},
			"external": {
				"admin()": "2591",
				"canVerifyRecentSession(address)": "infinite",
				"description()": "infinite",
				"getMemberCount()": "2378",
				"getMemberStudySessions(address)": "infinite",
				"joinGroup(uint256)": "infinite",
				"leaveGroup()": "infinite",
				"logStudySession(uint256,string)": "infinite",
				"memberList(uint256)": "6781",
				"memberStudySessions(address,uint256)": "infinite",
				"members(address)": "8832",
				"minStakeAmount()": "2554",
				"name()": "infinite",
				"studyToken()": "2443",
				"verifyStudySession(address,uint256)": "infinite"
			}
		},
		"methodIdentifiers": {
			"admin()": "f851a440",
			"canVerifyRecentSession(address)": "8955dcba",
			"description()": "7284e416",
			"getMemberCount()": "997072f7",
			"getMemberStudySessions(address)": "e1da7790",
			"joinGroup(uint256)": "eed02e4b",
			"leaveGroup()": "cb1fb490",
			"logStudySession(uint256,string)": "e82b0c91",
			"memberList(uint256)": "b307fc6d",
			"memberStudySessions(address,uint256)": "9976fb2a",
			"members(address)": "08ae4b0c",
			"minStakeAmount()": "f1887684",
			"name()": "06fdde03",
			"studyToken()": "a7481b5b",
			"verifyStudySession(address,uint256)": "940b7c76"
		}
	},
	"abi": [
		{
			"inputs": [
				{
					"internalType": "string",
					"name": "_name",
					"type": "string"
				},
				{
					"internalType": "string",
					"name": "_description",
					"type": "string"
				},
				{
					"internalType": "uint256",
					"name": "_minStakeAmount",
					"type": "uint256"
				},
				{
					"internalType": "address",
					"name": "_studyTokenAddress",
					"type": "address"
				}
			],
			"stateMutability": "nonpayable",
			"type": "constructor"
		},
		{
			"anonymous": false,
			"inputs": [
				{
					"indexed": false,
					"internalType": "string",
					"name": "name",
					"type": "string"
				},
				{
					"indexed": false,
					"internalType": "address",
					"name": "admin",
					"type": "address"
				}
			],
			"name": "GroupCreated",
			"type": "event"
		},
		{
			"anonymous": false,
			"inputs": [
				{
					"indexed": true,
					"internalType": "address",
					"name": "member",
					"type": "address"
				},
				{
					"indexed": false,
					"internalType": "uint256",
					"name": "stakeAmount",
					"type": "uint256"
				}
			],
			"name": "MemberJoined",
			"type": "event"
		},
		{
			"anonymous": false,
			"inputs": [
				{
					"indexed": true,
					"internalType": "address",
					"name": "member",
					"type": "address"
				},
				{
					"indexed": false,
					"internalType": "uint256",
					"name": "returnedStake",
					"type": "uint256"
				}
			],
			"name": "MemberLeft",
			"type": "event"
		},
		{
			"anonymous": false,
			"inputs": [
				{
					"indexed": true,
					"internalType": "address",
					"name": "member",
					"type": "address"
				},
				{
					"indexed": false,
					"internalType": "uint256",
					"name": "duration",
					"type": "uint256"
				},
				{
					"indexed": false,
					"internalType": "string",
					"name": "studyTopic",
					"type": "string"
				}
			],
			"name": "StudySessionLogged",
			"type": "event"
		},
		{
			"anonymous": false,
			"inputs": [
				{
					"indexed": true,
					"internalType": "address",
					"name": "member",
					"type": "address"
				},
				{
					"indexed": false,
					"internalType": "uint256",
					"name": "sessionIndex",
					"type": "uint256"
				},
				{
					"indexed": false,
					"internalType": "uint256",
					"name": "rewardAmount",
					"type": "uint256"
				}
			],
			"name": "StudySessionVerified",
			"type": "event"
		},
		{
			"inputs": [],
			"name": "admin",
			"outputs": [
				{
					"internalType": "address",
					"name": "",
					"type": "address"
				}
			],
			"stateMutability": "view",
			"type": "function"
		},
		{
			"inputs": [
				{
					"internalType": "address",
					"name": "member",
					"type": "address"
				}
			],
			"name": "canVerifyRecentSession",
			"outputs": [
				{
					"internalType": "bool",
					"name": "canVerify",
					"type": "bool"
				},
				{
					"internalType": "uint256",
					"name": "sessionIndex",
					"type": "uint256"
				}
			],
			"stateMutability": "view",
			"type": "function"
		},
		{
			"inputs": [],
			"name": "description",
			"outputs": [
				{
					"internalType": "string",
					"name": "",
					"type": "string"
				}
			],
			"stateMutability": "view",
			"type": "function"
		},
		{
			"inputs": [],
			"name": "getMemberCount",
			"outputs": [
				{
					"internalType": "uint256",
					"name": "",
					"type": "uint256"
				}
			],
			"stateMutability": "view",
			"type": "function"
		},
		{
			"inputs": [
				{
					"internalType": "address",
					"name": "member",
					"type": "address"
				}
			],
			"name": "getMemberStudySessions",
			"outputs": [
				{
					"components": [
						{
							"internalType": "uint256",
							"name": "startTime",
							"type": "uint256"
						},
						{
							"internalType": "uint256",
							"name": "duration",
							"type": "uint256"
						},
						{
							"internalType": "string",
							"name": "studyTopic",
							"type": "string"
						},
						{
							"internalType": "bool",
							"name": "verified",
							"type": "bool"
						}
					],
					"internalType": "struct StudyGroup.StudySession[]",
					"name": "",
					"type": "tuple[]"
				}
			],
			"stateMutability": "view",
			"type": "function"
		},
		{
			"inputs": [
				{
					"internalType": "uint256",
					"name": "stakeAmount",
					"type": "uint256"
				}
			],
			"name": "joinGroup",
			"outputs": [],
			"stateMutability": "nonpayable",
			"type": "function"
		},
		{
			"inputs": [],
			"name": "leaveGroup",
			"outputs": [],
			"stateMutability": "nonpayable",
			"type": "function"
		},
		{
			"inputs": [
				{
					"internalType": "uint256",
					"name": "duration",
					"type": "uint256"
				},
				{
					"internalType": "string",
					"name": "studyTopic",
					"type": "string"
				}
			],
			"name": "logStudySession",
			"outputs": [],
			"stateMutability": "nonpayable",
			"type": "function"
		},
		{
			"inputs": [
				{
					"internalType": "uint256",
					"name": "",
					"type": "uint256"
				}
			],
			"name": "memberList",
			"outputs": [
				{
					"internalType": "address",
					"name": "",
					"type": "address"
				}
			],
			"stateMutability": "view",
			"type": "function"
		},
		{
			"inputs": [
				{
					"internalType": "address",
					"name": "",
					"type": "address"
				},
				{
					"internalType": "uint256",
					"name": "",
					"type": "uint256"
				}
			],
			"name": "memberStudySessions",
			"outputs": [
				{
					"internalType": "uint256",
					"name": "startTime",
					"type": "uint256"
				},
				{
					"internalType": "uint256",
					"name": "duration",
					"type": "uint256"
				},
				{
					"internalType": "string",
					"name": "studyTopic",
					"type": "string"
				},
				{
					"internalType": "bool",
					"name": "verified",
					"type": "bool"
				}
			],
			"stateMutability": "view",
			"type": "function"
		},
		{
			"inputs": [
				{
					"internalType": "address",
					"name": "",
					"type": "address"
				}
			],
			"name": "members",
			"outputs": [
				{
					"internalType": "bool",
					"name": "isActive",
					"type": "bool"
				},
				{
					"internalType": "uint256",
					"name": "totalStudyMinutes",
					"type": "uint256"
				},
				{
					"internalType": "uint256",
					"name": "stakeAmount",
					"type": "uint256"
				},
				{
					"internalType": "uint256",
					"name": "lastStudyTimestamp",
					"type": "uint256"
				}
			],
			"stateMutability": "view",
			"type": "function"
		},
		{
			"inputs": [],
			"name": "minStakeAmount",
			"outputs": [
				{
					"internalType": "uint256",
					"name": "",
					"type": "uint256"
				}
			],
			"stateMutability": "view",
			"type": "function"
		},
		{
			"inputs": [],
			"name": "name",
			"outputs": [
				{
					"internalType": "string",
					"name": "",
					"type": "string"
				}
			],
			"stateMutability": "view",
			"type": "function"
		},
		{
			"inputs": [],
			"name": "studyToken",
			"outputs": [
				{
					"internalType": "contract StudyToken",
					"name": "",
					"type": "address"
				}
			],
			"stateMutability": "view",
			"type": "function"
		},
		{
			"inputs": [
				{
					"internalType": "address",
					"name": "member",
					"type": "address"
				},
				{
					"internalType": "uint256",
					"name": "sessionIndex",
					"type": "uint256"
				}
			],
			"name": "verifyStudySession",
			"outputs": [],
			"stateMutability": "nonpayable",
			"type": "function"
		}
	]
}