{
	"data": {
		"bytecode": {
			"linkReferences": {},
			"object": "6080346200022e57601f62001c8338819003918201601f19168301926001600160401b03929091838511838610176200017d5781606092849260409788528339810103126200022e57620000538162000232565b6200006e84620000666020850162000232565b930162000232565b90331562000217575f80546001600160a01b031980821633908117845588519691956001600160a01b039592948694859391908416907f8be0079c531659141344cd1fd0a4f28419497f9722a3daafe3b4186f6b6457e09080a31685600154161760015516938415620001d557501691821562000191573382600554161760055581600354161760035560045416176004558151906060820190828210908211176200017d5760019183918252600a81526050602082015201527f83f79508c5bf438df818258fd75a100ce5ec3f927825ba37e1e0304a2c27ef9f816201500a62ffffff1960075416178060075560ff825191600a835260081c166020820152a151611a3b9081620002488239f35b634e487b7160e01b5f52604160045260245ffd5b845162461bcd60e51b815260206004820152601960248201527f496e76616c696420617574686f726974792061646472657373000000000000006044820152606490fd5b62461bcd60e51b815260206004820152601660248201527f496e76616c6964206b65726e656c2061646472657373000000000000000000006044820152606490fd5b8451631e4fbdf760e01b81525f6004820152602490fd5b5f80fd5b51906001600160a01b03821682036200022e5756fe604060808152600480361015610013575f80fd5b5f3560e01c908163158a498814610c05578163315846d214610aed57816337998b5514610ac6578163487bb96514610a5d5781634ba1cfe414610a3557816353e97e79146109f15781636f04cf9e14610981578163715018a61461092a57816375829def1461089f57816382da5847146107e957816383945249146107115781638da5cb5b146106ea578163909dd2631461068a578163a6b69fe814610662578163b920ade214610633578163c0250b3714610617578163c902e9e1146105e0578163d213d86b1461059d578163dc5c7d3114610555578163e01acee9146104c5578163e4bb1354146102b7578163f2fde38b1461022a578163f4e403761461019d57508063f851a440146101755763fac5bb9b14610130575f80fd5b34610171575f36600319011261017157600754905160ff8083168252600883901c8116602083015260109290921c90911615156040820152606090f35b0390f35b5f80fd5b5034610171575f3660031901126101715760055490516001600160a01b039091168152602090f35b905034610171576020366003190112610171576101b8610d44565b6005546001600160a01b0391906101d29083163314610efa565b169182156101ee57600380546001600160a01b03191684179055005b906020606492519162461bcd60e51b83528201526016602482015275496e76616c6964206b65726e656c206164647265737360501b6044820152fd5b90503461017157602036600319011261017157610245610d44565b9061024e61187b565b6001600160a01b039182169283156102a15750505f54826bffffffffffffffffffffffff60a01b8216175f55167f8be0079c531659141344cd1fd0a4f28419497f9722a3daafe3b4186f6b6457e05f80a3005b905f6024925191631e4fbdf760e01b8352820152fd5b90503461017157606036600319011261017157803567ffffffffffffffff8111610171576102e89036908301610e34565b916102f1610d5a565b6005546001600160a01b03906044359061030e9083163314610efa565b83516001600160a01b0384166020808301919091526040808301849052825296906103449061033e606082610db0565b826115e0565b156104b5578681610358866103ce946110f5565b9460605f606461036c60ff8a168099610f50565b049a83815416938b519788968795869463012ae1c560e41b86528501528d6103a082516060606488015260c487019061158a565b906103bc8b8401519260631993848983030160848a015261158a565b920151908583030160a486015261158a565b9a16998a60248301528c604483015203925af19081156104ab575f91610458575b509161043661044f9261040f5f805160206119e683398151915295610f84565b855f5260088952865f2087519161042583610d80565b8252888a8301524288830152610fd0565b845186815260ff90911660208201529081906040820190565b0390a251908152f35b9290508683813d83116104a4575b6104708183610db0565b810103126101715761043661044f9261040f6104995f805160206119e683398151915296610f77565b9395505092506103ef565b503d610466565b85513d5f823e3d90fd5b8451636ca537e760e11b81528690fd5b8234610171576020366003190112610171576104df610d44565b6005546001600160a01b0391906104f99083163314610efa565b16908115610513575081546001600160a01b031916179055005b5162461bcd60e51b8152602081840152601960248201527f496e76616c696420617574686f726974792061646472657373000000000000006044820152606490fd5b82346101715760203660031901126101715761016d9061057b610576610d44565b61151b565b925160ff92831681529116602082015290151560408201529081906060820190565b34610171576020366003190112610171576105b6610d44565b6105be61187b565b600180546001600160a01b0319166001600160a01b0392909216919091179055005b8234610171576020366003190112610171576020906001600160a01b03610605610d44565b165f5260088252805f20549051908152f35b8234610171575f36600319011261017157602090516106398152f35b82346101715760203660031901126101715760209060ff61065a610655610d44565b611451565b915191168152f35b8234610171575f3660031901126101715760035490516001600160a01b039091168152602090f35b82346101715760203660031901126101715781359167ffffffffffffffff8311610171576106d560206106c360ff938296369101610dee565b81855193828580945193849201610ed9565b81016002815203019020541690519015158152f35b8234610171575f366003190112610171575f5490516001600160a01b039091168152602090f35b90503461017157816003193601126101715761072b610d44565b6001600160a01b03165f81815260086020528390205460243592908310156107b0575090610762915f526008602052825f20610eac565b509061016d81519161077383610d80565b8060ff85541693848152600260018701549687602084015201549283910152519384938460409194939260ff606083019616825260208201520152565b606490602085519162461bcd60e51b83528201526013602482015272496e646578206f7574206f6620626f756e647360681b6044820152fd5b9050346101715781600319360112610171573560ff8116908181036101715761089a7f83f79508c5bf438df818258fd75a100ce5ec3f927825ba37e1e0304a2c27ef9f93610835610d70565b9361084b60018060a01b03600554163314610efa565b610867606460ff871661086081851115611073565b11156110b4565b6007549061ff008660081b169161ffff19161717600755519283928390929160ff60209181604085019616845216910152565b0390a1005b905034610171576020366003190112610171576108ba610d44565b60055491906001600160a01b03906108d53383861614610efa565b169283156108ef5750506001600160a01b03191617600555005b906020606492519162461bcd60e51b83528201526015602482015274496e76616c69642061646d696e206164647265737360581b6044820152fd5b34610171575f3660031901126101715761094261187b565b5f80546001600160a01b0319811682556001600160a01b03167f8be0079c531659141344cd1fd0a4f28419497f9722a3daafe3b4186f6b6457e08280a3005b823461017157806003193601126101715761099a610d44565b6001600160a01b03165f9081526008602052819020805460243590811015610171576109c591610eac565b5080546001820154600290920154925160ff909116815260208101919091526040810191909152606090f35b8234610171578060031936011261017157813567ffffffffffffffff81116101715761065a610a2760209460ff93369101610e34565b610a2f610d5a565b906110f5565b8234610171575f3660031901126101715760015490516001600160a01b039091168152602090f35b82346101715760203660031901126101715761016d906001600160a01b03610a83610d44565b165f526006602052805f20549051918160ff849360101c169060ff808260081c16911684919260ff60409295948160608601971685521660208401521515910152565b8234610171575f36600319011261017157905490516001600160a01b039091168152602090f35b823461017157608036600319011261017157610b07610d44565b90610b10610d70565b6044359060ff8216938483036101715760643593841515809503610171577fdbec57d1ad2b4e227b288ee122f22bf85194fda868183c5565fc81ad49ac327e94610c009260018060a01b0390610b6b82600554163314610efa565b1696610b78881515611030565b60ff851691610b8982841115611073565b610b9660648311156110b4565b835192610ba284610d80565b835260208301918252838301908152885f52600660205260ff845f2093511662ff000061ff008554945160081b169251151560101b169262ffffff19161717179055519283928390929160ff60209181604085019616845216910152565b0390a2005b905034610171578160031936011261017157610c1f610d44565b6005549092906001600160a01b0390610c3b9082163314610efa565b610c4484611451565b60ff81169190610c5683602435610f50565b85548551633c37699760e21b81526001600160a01b03891697810197885260649092046020888101829052989097909291899183918716908290819060400103915a905f91f1908115610d3a575f91610ce3575b505f805160206119e68339815191529361044f9392610ccb61043693610f84565b1694855f5260088952865f2087519161042583610d80565b90508781819493943d8311610d33575b610cfd8183610db0565b81010312610171575f805160206119e68339815191529361044f93610ccb610d2761043694610f77565b93505092935093610caa565b503d610cf3565b86513d5f823e3d90fd5b600435906001600160a01b038216820361017157565b602435906001600160a01b038216820361017157565b6024359060ff8216820361017157565b6060810190811067ffffffffffffffff821117610d9c57604052565b634e487b7160e01b5f52604160045260245ffd5b90601f8019910116810190811067ffffffffffffffff821117610d9c57604052565b67ffffffffffffffff8111610d9c57601f01601f191660200190565b81601f8201121561017157803590610e0582610dd2565b92610e136040519485610db0565b8284526020838301011161017157815f926020809301838601378301015290565b91906060838203126101715760405190610e4d82610d80565b819380359167ffffffffffffffff928381116101715781610e6f918401610dee565b845260208201358381116101715781610e89918401610dee565b6020850152604082013592831161017157604092610ea79201610dee565b910152565b8054821015610ec5575f52600360205f20910201905f90565b634e487b7160e01b5f52603260045260245ffd5b5f5b838110610eea5750505f910152565b8181015183820152602001610edb565b15610f0157565b60405162461bcd60e51b815260206004820152602160248201527f4f6e6c792061646d696e2063616e2063616c6c20746869732066756e6374696f6044820152603760f91b6064820152608490fd5b81810292918115918404141715610f6357565b634e487b7160e01b5f52601160045260245ffd5b5190811515820361017157565b15610f8b57565b60405162461bcd60e51b815260206004820152601960248201527f546f6b656e20646973747269627574696f6e206661696c6564000000000000006044820152606490fd5b805468010000000000000000811015610d9c57610ff291600182018155610eac565b91909161101d5760408160ff600293511660ff19855416178455602081015160018501550151910155565b634e487b7160e01b5f525f60045260245ffd5b1561103757565b60405162461bcd60e51b8152602060048201526014602482015273496e76616c69642075736572206164647265737360601b6044820152606490fd5b1561107a57565b60405162461bcd60e51b815260206004820152601260248201527109ad2dc40daeae6e840c4ca40787a40dac2f60731b6044820152606490fd5b156110bb57565b60405162461bcd60e51b815260206004820152601260248201527104d6178206d757374206265203c3d203130360741b6044820152606490fd5b604080516001600160a01b03841660208083018290528083529390929167ffffffffffffffff91908084019083821181831017610d9c57611138918552826115e0565b156113bf57849061114a851515611030565b0151805181019085820190868184031261017157868101519084821161017157019181603f84011215610171578683015193808511610d9c578460051b918651956111978a850188610db0565b865286898701938601019484861161017157878101935b86851061133657505050505050505f945f955f5b835181101561132957610639806111d98387611424565b5151146111e957506001016111c2565b94959697508791506111ff906112109394611424565b510151868082518301019101611438565b91847f46c163f3bf5d6002de35ddc5e580195d73821b07eb35c71fdad426a89f24f4bb85600193815190815260ff87168a820152a25b156112d257906112777fd10b75785084e83d4cf1383b9ba8ac397aed2d5ea17b4cdceed4f2d3f919d43e939261151b565b9192909161129c5750505060ff60075416935b81519060ff861682524290820152a290565b60ff811660ff841681105f146112b5575050509361128a565b9192509060ff831610156112ca57509361128a565b90509361128a565b825162461bcd60e51b815260048101869052602a60248201527f546f6b656e20616c6c6f636174696f6e206b65726e656c20726573706f6e7365604482015269081b9bdd08199bdd5b9960b21b6064820152608490fd5b5092939495909150611246565b84518481116101715782019060609081601f198487030112610171578a519261135e84610d80565b8b8101518452828101518781116101715761137f8f918e8c91850101611407565b9085015260808101519087821161017157019288605f85011215610171576113b0898f9586958f82015191016113d0565b8c8201528152019401936111ae565b8251636ca537e760e11b8152600490fd5b909291926113dd81610dd2565b916113eb6040519384610db0565b829482845282820111610171576020611405930190610ed9565b565b9080601f83011215610171578151611421926020016113d0565b90565b8051821015610ec55760209160051b010190565b90816020910312610171575160ff811681036101715790565b6003546040516352cc9d2760e11b81526001600160a01b03838116600483015290929160209184916024918391165afa918215611510575f926114db575b506114999061151b565b92909192156114cf5760ff811660ff841681105f146114b85750505090565b9192509060ff831610156114ca575090565b905090565b50505060ff6007541690565b6114999192506115029060203d602011611509575b6114fa8183610db0565b810190611438565b919061148f565b503d6114f0565b6040513d5f823e3d90fd5b6001600160a01b03165f90815260066020526040908190208151929061154084610d80565b549260ff8085169182815281808760081c169687602084015260101c161590811595869101526115705750929190565b6007548082169550600881901c8216945060101c16919050565b906020916115a381518092818552858086019101610ed9565b601f01601f1916010190565b6020906115c56014949382815194859201610ed9565b01906bffffffffffffffffffffffff199060601b1681520190565b9081519182519260209381019060a08186840193031261017157848101519067ffffffffffffffff9182811161017157838761161e92840101611407565b946040958683015194606084015190858211610171578961164192860101611407565b9261165360a060808301519201610f77565b15918261183e579061167f61169b6116a49897969594938c8b01518d8d519485918201923390846115af565b0393611693601f1995868101835282610db0565b5190206118a6565b909991996118e0565b6001546001600160a01b0390811699909889168a90036117eb576116dc6116e889938e8e8095015194519384918201953390876115af565b03908101835282610db0565b519020938b815191012093036117a7578851958a8701938452898701523360601b606087015260748601521560f81b60948501526075845260a084019284841090841117610d9c5761174b936117429388525190206118a6565b909291926118e0565b1603611758575050600190565b60849250519062461bcd60e51b82526004820152602360248201527f496e76616c6964207369676e617475726520666f722066756e6374696f6e2063604482015262185b1b60ea1b6064820152fd5b885162461bcd60e51b8152600481018b9052601c60248201527f496e76616c6964206b65726e656c20706172616d7320646967657374000000006044820152606490fd5b8a5162461bcd60e51b8152600481018d9052602660248201527f496e76616c6964207369676e617475726520666f72206b65726e656c20726573604482015265706f6e73657360d01b6064820152608490fd5b885162461bcd60e51b8152600481018b90526016602482015275119a5b985b081bdc1a5b9a5bdb881c995d995c9d195960521b6044820152606490fd5b5f546001600160a01b0316330361188e57565b60405163118cdaa760e01b8152336004820152602490fd5b81519190604183036118d6576118cf9250602082015190606060408401519301515f1a90611963565b9192909190565b50505f9160029190565b600481101561194f57806118f2575050565b6001810361190c5760405163f645eedf60e01b8152600490fd5b6002810361192d5760405163fce698f760e01b815260048101839052602490fd5b6003146119375750565b602490604051906335e2f38360e21b82526004820152fd5b634e487b7160e01b5f52602160045260245ffd5b91907f7fffffffffffffffffffffffffffffff5d576e7357a4501ddfe92f46681b20a084116119da579160209360809260ff5f9560405194855216868401526040830152606082015282805260015afa15611510575f516001600160a01b038116156119d057905f905f90565b505f906001905f90565b5050505f916003919056feda5ebb06fbb63ede5fd311c0ee2bc70f75c62208502b29baa2ba9da11048ec32a2646970667358221220335e504ef040a6eedbe4e6a5e8c8ba23877113c635c6d2cf4e8ae589767c2a7b64736f6c63430008180033",
			"opcodes": "PUSH1 0x80 CALLVALUE PUSH3 0x22E JUMPI PUSH1 0x1F PUSH3 0x1C83 CODESIZE DUP2 SWAP1 SUB SWAP2 DUP3 ADD PUSH1 0x1F NOT AND DUP4 ADD SWAP3 PUSH1 0x1 PUSH1 0x1 PUSH1 0x40 SHL SUB SWAP3 SWAP1 SWAP2 DUP4 DUP6 GT DUP4 DUP7 LT OR PUSH3 0x17D JUMPI DUP2 PUSH1 0x60 SWAP3 DUP5 SWAP3 PUSH1 0x40 SWAP8 DUP9 MSTORE DUP4 CODECOPY DUP2 ADD SUB SLT PUSH3 0x22E JUMPI PUSH3 0x53 DUP2 PUSH3 0x232 JUMP JUMPDEST PUSH3 0x6E DUP5 PUSH3 0x66 PUSH1 0x20 DUP6 ADD PUSH3 0x232 JUMP JUMPDEST SWAP4 ADD PUSH3 0x232 JUMP JUMPDEST SWAP1 CALLER ISZERO PUSH3 0x217 JUMPI PUSH0 DUP1 SLOAD PUSH1 0x1 PUSH1 0x1 PUSH1 0xA0 SHL SUB NOT DUP1 DUP3 AND CALLER SWAP1 DUP2 OR DUP5 SSTORE DUP9 MLOAD SWAP7 SWAP2 SWAP6 PUSH1 0x1 PUSH1 0x1 PUSH1 0xA0 SHL SUB SWAP6 SWAP3 SWAP5 DUP7 SWAP5 DUP6 SWAP4 SWAP2 SWAP1 DUP5 AND SWAP1 PUSH32 0x8BE0079C531659141344CD1FD0A4F28419497F9722A3DAAFE3B4186F6B6457E0 SWAP1 DUP1 LOG3 AND DUP6 PUSH1 0x1 SLOAD AND OR PUSH1 0x1 SSTORE AND SWAP4 DUP5 ISZERO PUSH3 0x1D5 JUMPI POP AND SWAP2 DUP3 ISZERO PUSH3 0x191 JUMPI CALLER DUP3 PUSH1 0x5 SLOAD AND OR PUSH1 0x5 SSTORE DUP2 PUSH1 0x3 SLOAD AND OR PUSH1 0x3 SSTORE PUSH1 0x4 SLOAD AND OR PUSH1 0x4 SSTORE DUP2 MLOAD SWAP1 PUSH1 0x60 DUP3 ADD SWAP1 DUP3 DUP3 LT SWAP1 DUP3 GT OR PUSH3 0x17D JUMPI PUSH1 0x1 SWAP2 DUP4 SWAP2 DUP3 MSTORE PUSH1 0xA DUP2 MSTORE PUSH1 0x50 PUSH1 0x20 DUP3 ADD MSTORE ADD MSTORE PUSH32 0x83F79508C5BF438DF818258FD75A100CE5EC3F927825BA37E1E0304A2C27EF9F DUP2 PUSH3 0x1500A PUSH3 0xFFFFFF NOT PUSH1 0x7 SLOAD AND OR DUP1 PUSH1 0x7 SSTORE PUSH1 0xFF DUP3 MLOAD SWAP2 PUSH1 0xA DUP4 MSTORE PUSH1 0x8 SHR AND PUSH1 0x20 DUP3 ADD MSTORE LOG1 MLOAD PUSH2 0x1A3B SWAP1 DUP2 PUSH3 0x248 DUP3 CODECOPY RETURN JUMPDEST PUSH4 0x4E487B71 PUSH1 0xE0 SHL PUSH0 MSTORE PUSH1 0x41 PUSH1 0x4 MSTORE PUSH1 0x24 PUSH0 REVERT JUMPDEST DUP5 MLOAD PUSH3 0x461BCD PUSH1 0xE5 SHL DUP2 MSTORE PUSH1 0x20 PUSH1 0x4 DUP3 ADD MSTORE PUSH1 0x19 PUSH1 0x24 DUP3 ADD MSTORE PUSH32 0x496E76616C696420617574686F72697479206164647265737300000000000000 PUSH1 0x44 DUP3 ADD MSTORE PUSH1 0x64 SWAP1 REVERT JUMPDEST PUSH3 0x461BCD PUSH1 0xE5 SHL DUP2 MSTORE PUSH1 0x20 PUSH1 0x4 DUP3 ADD MSTORE PUSH1 0x16 PUSH1 0x24 DUP3 ADD MSTORE PUSH32 0x496E76616C6964206B65726E656C206164647265737300000000000000000000 PUSH1 0x44 DUP3 ADD MSTORE PUSH1 0x64 SWAP1 REVERT JUMPDEST DUP5 MLOAD PUSH4 0x1E4FBDF7 PUSH1 0xE0 SHL DUP2 MSTORE PUSH0 PUSH1 0x4 DUP3 ADD MSTORE PUSH1 0x24 SWAP1 REVERT JUMPDEST PUSH0 DUP1 REVERT JUMPDEST MLOAD SWAP1 PUSH1 0x1 PUSH1 0x1 PUSH1 0xA0 SHL SUB DUP3 AND DUP3 SUB PUSH3 0x22E JUMPI JUMP INVALID PUSH1 0x40 PUSH1 0x80 DUP2 MSTORE PUSH1 0x4 DUP1 CALLDATASIZE LT ISZERO PUSH2 0x13 JUMPI PUSH0 DUP1 REVERT JUMPDEST PUSH0 CALLDATALOAD PUSH1 0xE0 SHR SWAP1 DUP2 PUSH4 0x158A4988 EQ PUSH2 0xC05 JUMPI DUP2 PUSH4 0x315846D2 EQ PUSH2 0xAED JUMPI DUP2 PUSH4 0x37998B55 EQ PUSH2 0xAC6 JUMPI DUP2 PUSH4 0x487BB965 EQ PUSH2 0xA5D JUMPI DUP2 PUSH4 0x4BA1CFE4 EQ PUSH2 0xA35 JUMPI DUP2 PUSH4 0x53E97E79 EQ PUSH2 0x9F1 JUMPI DUP2 PUSH4 0x6F04CF9E EQ PUSH2 0x981 JUMPI DUP2 PUSH4 0x715018A6 EQ PUSH2 0x92A JUMPI DUP2 PUSH4 0x75829DEF EQ PUSH2 0x89F JUMPI DUP2 PUSH4 0x82DA5847 EQ PUSH2 0x7E9 JUMPI DUP2 PUSH4 0x83945249 EQ PUSH2 0x711 JUMPI DUP2 PUSH4 0x8DA5CB5B EQ PUSH2 0x6EA JUMPI DUP2 PUSH4 0x909DD263 EQ PUSH2 0x68A JUMPI DUP2 PUSH4 0xA6B69FE8 EQ PUSH2 0x662 JUMPI DUP2 PUSH4 0xB920ADE2 EQ PUSH2 0x633 JUMPI DUP2 PUSH4 0xC0250B37 EQ PUSH2 0x617 JUMPI DUP2 PUSH4 0xC902E9E1 EQ PUSH2 0x5E0 JUMPI DUP2 PUSH4 0xD213D86B EQ PUSH2 0x59D JUMPI DUP2 PUSH4 0xDC5C7D31 EQ PUSH2 0x555 JUMPI DUP2 PUSH4 0xE01ACEE9 EQ PUSH2 0x4C5 JUMPI DUP2 PUSH4 0xE4BB1354 EQ PUSH2 0x2B7 JUMPI DUP2 PUSH4 0xF2FDE38B EQ PUSH2 0x22A JUMPI DUP2 PUSH4 0xF4E40376 EQ PUSH2 0x19D JUMPI POP DUP1 PUSH4 0xF851A440 EQ PUSH2 0x175 JUMPI PUSH4 0xFAC5BB9B EQ PUSH2 0x130 JUMPI PUSH0 DUP1 REVERT JUMPDEST CALLVALUE PUSH2 0x171 JUMPI PUSH0 CALLDATASIZE PUSH1 0x3 NOT ADD SLT PUSH2 0x171 JUMPI PUSH1 0x7 SLOAD SWAP1 MLOAD PUSH1 0xFF DUP1 DUP4 AND DUP3 MSTORE PUSH1 0x8 DUP4 SWAP1 SHR DUP2 AND PUSH1 0x20 DUP4 ADD MSTORE PUSH1 0x10 SWAP3 SWAP1 SWAP3 SHR SWAP1 SWAP2 AND ISZERO ISZERO PUSH1 0x40 DUP3 ADD MSTORE PUSH1 0x60 SWAP1 RETURN JUMPDEST SUB SWAP1 RETURN JUMPDEST PUSH0 DUP1 REVERT JUMPDEST POP CALLVALUE PUSH2 0x171 JUMPI PUSH0 CALLDATASIZE PUSH1 0x3 NOT ADD SLT PUSH2 0x171 JUMPI PUSH1 0x5 SLOAD SWAP1 MLOAD PUSH1 0x1 PUSH1 0x1 PUSH1 0xA0 SHL SUB SWAP1 SWAP2 AND DUP2 MSTORE PUSH1 0x20 SWAP1 RETURN JUMPDEST SWAP1 POP CALLVALUE PUSH2 0x171 JUMPI PUSH1 0x20 CALLDATASIZE PUSH1 0x3 NOT ADD SLT PUSH2 0x171 JUMPI PUSH2 0x1B8 PUSH2 0xD44 JUMP JUMPDEST PUSH1 0x5 SLOAD PUSH1 0x1 PUSH1 0x1 PUSH1 0xA0 SHL SUB SWAP2 SWAP1 PUSH2 0x1D2 SWAP1 DUP4 AND CALLER EQ PUSH2 0xEFA JUMP JUMPDEST AND SWAP2 DUP3 ISZERO PUSH2 0x1EE JUMPI PUSH1 0x3 DUP1 SLOAD PUSH1 0x1 PUSH1 0x1 PUSH1 0xA0 SHL SUB NOT AND DUP5 OR SWAP1 SSTORE STOP JUMPDEST SWAP1 PUSH1 0x20 PUSH1 0x64 SWAP3 MLOAD SWAP2 PUSH3 0x461BCD PUSH1 0xE5 SHL DUP4 MSTORE DUP3 ADD MSTORE PUSH1 0x16 PUSH1 0x24 DUP3 ADD MSTORE PUSH22 0x496E76616C6964206B65726E656C2061646472657373 PUSH1 0x50 SHL PUSH1 0x44 DUP3 ADD MSTORE REVERT JUMPDEST SWAP1 POP CALLVALUE PUSH2 0x171 JUMPI PUSH1 0x20 CALLDATASIZE PUSH1 0x3 NOT ADD SLT PUSH2 0x171 JUMPI PUSH2 0x245 PUSH2 0xD44 JUMP JUMPDEST SWAP1 PUSH2 0x24E PUSH2 0x187B JUMP JUMPDEST PUSH1 0x1 PUSH1 0x1 PUSH1 0xA0 SHL SUB SWAP2 DUP3 AND SWAP3 DUP4 ISZERO PUSH2 0x2A1 JUMPI POP POP PUSH0 SLOAD DUP3 PUSH12 0xFFFFFFFFFFFFFFFFFFFFFFFF PUSH1 0xA0 SHL DUP3 AND OR PUSH0 SSTORE AND PUSH32 0x8BE0079C531659141344CD1FD0A4F28419497F9722A3DAAFE3B4186F6B6457E0 PUSH0 DUP1 LOG3 STOP JUMPDEST SWAP1 PUSH0 PUSH1 0x24 SWAP3 MLOAD SWAP2 PUSH4 0x1E4FBDF7 PUSH1 0xE0 SHL DUP4 MSTORE DUP3 ADD MSTORE REVERT JUMPDEST SWAP1 POP CALLVALUE PUSH2 0x171 JUMPI PUSH1 0x60 CALLDATASIZE PUSH1 0x3 NOT ADD SLT PUSH2 0x171 JUMPI DUP1 CALLDATALOAD PUSH8 0xFFFFFFFFFFFFFFFF DUP2 GT PUSH2 0x171 JUMPI PUSH2 0x2E8 SWAP1 CALLDATASIZE SWAP1 DUP4 ADD PUSH2 0xE34 JUMP JUMPDEST SWAP2 PUSH2 0x2F1 PUSH2 0xD5A JUMP JUMPDEST PUSH1 0x5 SLOAD PUSH1 0x1 PUSH1 0x1 PUSH1 0xA0 SHL SUB SWAP1 PUSH1 0x44 CALLDATALOAD SWAP1 PUSH2 0x30E SWAP1 DUP4 AND CALLER EQ PUSH2 0xEFA JUMP JUMPDEST DUP4 MLOAD PUSH1 0x1 PUSH1 0x1 PUSH1 0xA0 SHL SUB DUP5 AND PUSH1 0x20 DUP1 DUP4 ADD SWAP2 SWAP1 SWAP2 MSTORE PUSH1 0x40 DUP1 DUP4 ADD DUP5 SWAP1 MSTORE DUP3 MSTORE SWAP7 SWAP1 PUSH2 0x344 SWAP1 PUSH2 0x33E PUSH1 0x60 DUP3 PUSH2 0xDB0 JUMP JUMPDEST DUP3 PUSH2 0x15E0 JUMP JUMPDEST ISZERO PUSH2 0x4B5 JUMPI DUP7 DUP2 PUSH2 0x358 DUP7 PUSH2 0x3CE SWAP5 PUSH2 0x10F5 JUMP JUMPDEST SWAP5 PUSH1 0x60 PUSH0 PUSH1 0x64 PUSH2 0x36C PUSH1 0xFF DUP11 AND DUP1 SWAP10 PUSH2 0xF50 JUMP JUMPDEST DIV SWAP11 DUP4 DUP2 SLOAD AND SWAP4 DUP12 MLOAD SWAP8 DUP9 SWAP7 DUP8 SWAP6 DUP7 SWAP5 PUSH4 0x12AE1C5 PUSH1 0xE4 SHL DUP7 MSTORE DUP6 ADD MSTORE DUP14 PUSH2 0x3A0 DUP3 MLOAD PUSH1 0x60 PUSH1 0x64 DUP9 ADD MSTORE PUSH1 0xC4 DUP8 ADD SWAP1 PUSH2 0x158A JUMP JUMPDEST SWAP1 PUSH2 0x3BC DUP12 DUP5 ADD MLOAD SWAP3 PUSH1 0x63 NOT SWAP4 DUP5 DUP10 DUP4 SUB ADD PUSH1 0x84 DUP11 ADD MSTORE PUSH2 0x158A JUMP JUMPDEST SWAP3 ADD MLOAD SWAP1 DUP6 DUP4 SUB ADD PUSH1 0xA4 DUP7 ADD MSTORE PUSH2 0x158A JUMP JUMPDEST SWAP11 AND SWAP10 DUP11 PUSH1 0x24 DUP4 ADD MSTORE DUP13 PUSH1 0x44 DUP4 ADD MSTORE SUB SWAP3 GAS CALL SWAP1 DUP2 ISZERO PUSH2 0x4AB JUMPI PUSH0 SWAP2 PUSH2 0x458 JUMPI JUMPDEST POP SWAP2 PUSH2 0x436 PUSH2 0x44F SWAP3 PUSH2 0x40F PUSH0 DUP1 MLOAD PUSH1 0x20 PUSH2 0x19E6 DUP4 CODECOPY DUP2 MLOAD SWAP2 MSTORE SWAP6 PUSH2 0xF84 JUMP JUMPDEST DUP6 PUSH0 MSTORE PUSH1 0x8 DUP10 MSTORE DUP7 PUSH0 KECCAK256 DUP8 MLOAD SWAP2 PUSH2 0x425 DUP4 PUSH2 0xD80 JUMP JUMPDEST DUP3 MSTORE DUP9 DUP11 DUP4 ADD MSTORE TIMESTAMP DUP9 DUP4 ADD MSTORE PUSH2 0xFD0 JUMP JUMPDEST DUP5 MLOAD DUP7 DUP2 MSTORE PUSH1 0xFF SWAP1 SWAP2 AND PUSH1 0x20 DUP3 ADD MSTORE SWAP1 DUP2 SWAP1 PUSH1 0x40 DUP3 ADD SWAP1 JUMP JUMPDEST SUB SWAP1 LOG2 MLOAD SWAP1 DUP2 MSTORE RETURN JUMPDEST SWAP3 SWAP1 POP DUP7 DUP4 DUP2 RETURNDATASIZE DUP4 GT PUSH2 0x4A4 JUMPI JUMPDEST PUSH2 0x470 DUP2 DUP4 PUSH2 0xDB0 JUMP JUMPDEST DUP2 ADD SUB SLT PUSH2 0x171 JUMPI PUSH2 0x436 PUSH2 0x44F SWAP3 PUSH2 0x40F PUSH2 0x499 PUSH0 DUP1 MLOAD PUSH1 0x20 PUSH2 0x19E6 DUP4 CODECOPY DUP2 MLOAD SWAP2 MSTORE SWAP7 PUSH2 0xF77 JUMP JUMPDEST SWAP4 SWAP6 POP POP SWAP3 POP PUSH2 0x3EF JUMP JUMPDEST POP RETURNDATASIZE PUSH2 0x466 JUMP JUMPDEST DUP6 MLOAD RETURNDATASIZE PUSH0 DUP3 RETURNDATACOPY RETURNDATASIZE SWAP1 REVERT JUMPDEST DUP5 MLOAD PUSH4 0x6CA537E7 PUSH1 0xE1 SHL DUP2 MSTORE DUP7 SWAP1 REVERT JUMPDEST DUP3 CALLVALUE PUSH2 0x171 JUMPI PUSH1 0x20 CALLDATASIZE PUSH1 0x3 NOT ADD SLT PUSH2 0x171 JUMPI PUSH2 0x4DF PUSH2 0xD44 JUMP JUMPDEST PUSH1 0x5 SLOAD PUSH1 0x1 PUSH1 0x1 PUSH1 0xA0 SHL SUB SWAP2 SWAP1 PUSH2 0x4F9 SWAP1 DUP4 AND CALLER EQ PUSH2 0xEFA JUMP JUMPDEST AND SWAP1 DUP2 ISZERO PUSH2 0x513 JUMPI POP DUP2 SLOAD PUSH1 0x1 PUSH1 0x1 PUSH1 0xA0 SHL SUB NOT AND OR SWAP1 SSTORE STOP JUMPDEST MLOAD PUSH3 0x461BCD PUSH1 0xE5 SHL DUP2 MSTORE PUSH1 0x20 DUP2 DUP5 ADD MSTORE PUSH1 0x19 PUSH1 0x24 DUP3 ADD MSTORE PUSH32 0x496E76616C696420617574686F72697479206164647265737300000000000000 PUSH1 0x44 DUP3 ADD MSTORE PUSH1 0x64 SWAP1 REVERT JUMPDEST DUP3 CALLVALUE PUSH2 0x171 JUMPI PUSH1 0x20 CALLDATASIZE PUSH1 0x3 NOT ADD SLT PUSH2 0x171 JUMPI PUSH2 0x16D SWAP1 PUSH2 0x57B PUSH2 0x576 PUSH2 0xD44 JUMP JUMPDEST PUSH2 0x151B JUMP JUMPDEST SWAP3 MLOAD PUSH1 0xFF SWAP3 DUP4 AND DUP2 MSTORE SWAP2 AND PUSH1 0x20 DUP3 ADD MSTORE SWAP1 ISZERO ISZERO PUSH1 0x40 DUP3 ADD MSTORE SWAP1 DUP2 SWAP1 PUSH1 0x60 DUP3 ADD SWAP1 JUMP JUMPDEST CALLVALUE PUSH2 0x171 JUMPI PUSH1 0x20 CALLDATASIZE PUSH1 0x3 NOT ADD SLT PUSH2 0x171 JUMPI PUSH2 0x5B6 PUSH2 0xD44 JUMP JUMPDEST PUSH2 0x5BE PUSH2 0x187B JUMP JUMPDEST PUSH1 0x1 DUP1 SLOAD PUSH1 0x1 PUSH1 0x1 PUSH1 0xA0 SHL SUB NOT AND PUSH1 0x1 PUSH1 0x1 PUSH1 0xA0 SHL SUB SWAP3 SWAP1 SWAP3 AND SWAP2 SWAP1 SWAP2 OR SWAP1 SSTORE STOP JUMPDEST DUP3 CALLVALUE PUSH2 0x171 JUMPI PUSH1 0x20 CALLDATASIZE PUSH1 0x3 NOT ADD SLT PUSH2 0x171 JUMPI PUSH1 0x20 SWAP1 PUSH1 0x1 PUSH1 0x1 PUSH1 0xA0 SHL SUB PUSH2 0x605 PUSH2 0xD44 JUMP JUMPDEST AND PUSH0 MSTORE PUSH1 0x8 DUP3 MSTORE DUP1 PUSH0 KECCAK256 SLOAD SWAP1 MLOAD SWAP1 DUP2 MSTORE RETURN JUMPDEST DUP3 CALLVALUE PUSH2 0x171 JUMPI PUSH0 CALLDATASIZE PUSH1 0x3 NOT ADD SLT PUSH2 0x171 JUMPI PUSH1 0x20 SWAP1 MLOAD PUSH2 0x639 DUP2 MSTORE RETURN JUMPDEST DUP3 CALLVALUE PUSH2 0x171 JUMPI PUSH1 0x20 CALLDATASIZE PUSH1 0x3 NOT ADD SLT PUSH2 0x171 JUMPI PUSH1 0x20 SWAP1 PUSH1 0xFF PUSH2 0x65A PUSH2 0x655 PUSH2 0xD44 JUMP JUMPDEST PUSH2 0x1451 JUMP JUMPDEST SWAP2 MLOAD SWAP2 AND DUP2 MSTORE RETURN JUMPDEST DUP3 CALLVALUE PUSH2 0x171 JUMPI PUSH0 CALLDATASIZE PUSH1 0x3 NOT ADD SLT PUSH2 0x171 JUMPI PUSH1 0x3 SLOAD SWAP1 MLOAD PUSH1 0x1 PUSH1 0x1 PUSH1 0xA0 SHL SUB SWAP1 SWAP2 AND DUP2 MSTORE PUSH1 0x20 SWAP1 RETURN JUMPDEST DUP3 CALLVALUE PUSH2 0x171 JUMPI PUSH1 0x20 CALLDATASIZE PUSH1 0x3 NOT ADD SLT PUSH2 0x171 JUMPI DUP2 CALLDATALOAD SWAP2 PUSH8 0xFFFFFFFFFFFFFFFF DUP4 GT PUSH2 0x171 JUMPI PUSH2 0x6D5 PUSH1 0x20 PUSH2 0x6C3 PUSH1 0xFF SWAP4 DUP3 SWAP7 CALLDATASIZE SWAP2 ADD PUSH2 0xDEE JUMP JUMPDEST DUP2 DUP6 MLOAD SWAP4 DUP3 DUP6 DUP1 SWAP5 MLOAD SWAP4 DUP5 SWAP3 ADD PUSH2 0xED9 JUMP JUMPDEST DUP2 ADD PUSH1 0x2 DUP2 MSTORE SUB ADD SWAP1 KECCAK256 SLOAD AND SWAP1 MLOAD SWAP1 ISZERO ISZERO DUP2 MSTORE RETURN JUMPDEST DUP3 CALLVALUE PUSH2 0x171 JUMPI PUSH0 CALLDATASIZE PUSH1 0x3 NOT ADD SLT PUSH2 0x171 JUMPI PUSH0 SLOAD SWAP1 MLOAD PUSH1 0x1 PUSH1 0x1 PUSH1 0xA0 SHL SUB SWAP1 SWAP2 AND DUP2 MSTORE PUSH1 0x20 SWAP1 RETURN JUMPDEST SWAP1 POP CALLVALUE PUSH2 0x171 JUMPI DUP2 PUSH1 0x3 NOT CALLDATASIZE ADD SLT PUSH2 0x171 JUMPI PUSH2 0x72B PUSH2 0xD44 JUMP JUMPDEST PUSH1 0x1 PUSH1 0x1 PUSH1 0xA0 SHL SUB AND PUSH0 DUP2 DUP2 MSTORE PUSH1 0x8 PUSH1 0x20 MSTORE DUP4 SWAP1 KECCAK256 SLOAD PUSH1 0x24 CALLDATALOAD SWAP3 SWAP1 DUP4 LT ISZERO PUSH2 0x7B0 JUMPI POP SWAP1 PUSH2 0x762 SWAP2 PUSH0 MSTORE PUSH1 0x8 PUSH1 0x20 MSTORE DUP3 PUSH0 KECCAK256 PUSH2 0xEAC JUMP JUMPDEST POP SWAP1 PUSH2 0x16D DUP2 MLOAD SWAP2 PUSH2 0x773 DUP4 PUSH2 0xD80 JUMP JUMPDEST DUP1 PUSH1 0xFF DUP6 SLOAD AND SWAP4 DUP5 DUP2 MSTORE PUSH1 0x2 PUSH1 0x1 DUP8 ADD SLOAD SWAP7 DUP8 PUSH1 0x20 DUP5 ADD MSTORE ADD SLOAD SWAP3 DUP4 SWAP2 ADD MSTORE MLOAD SWAP4 DUP5 SWAP4 DUP5 PUSH1 0x40 SWAP2 SWAP5 SWAP4 SWAP3 PUSH1 0xFF PUSH1 0x60 DUP4 ADD SWAP7 AND DUP3 MSTORE PUSH1 0x20 DUP3 ADD MSTORE ADD MSTORE JUMP JUMPDEST PUSH1 0x64 SWAP1 PUSH1 0x20 DUP6 MLOAD SWAP2 PUSH3 0x461BCD PUSH1 0xE5 SHL DUP4 MSTORE DUP3 ADD MSTORE PUSH1 0x13 PUSH1 0x24 DUP3 ADD MSTORE PUSH19 0x496E646578206F7574206F6620626F756E6473 PUSH1 0x68 SHL PUSH1 0x44 DUP3 ADD MSTORE REVERT JUMPDEST SWAP1 POP CALLVALUE PUSH2 0x171 JUMPI DUP2 PUSH1 0x3 NOT CALLDATASIZE ADD SLT PUSH2 0x171 JUMPI CALLDATALOAD PUSH1 0xFF DUP2 AND SWAP1 DUP2 DUP2 SUB PUSH2 0x171 JUMPI PUSH2 0x89A PUSH32 0x83F79508C5BF438DF818258FD75A100CE5EC3F927825BA37E1E0304A2C27EF9F SWAP4 PUSH2 0x835 PUSH2 0xD70 JUMP JUMPDEST SWAP4 PUSH2 0x84B PUSH1 0x1 DUP1 PUSH1 0xA0 SHL SUB PUSH1 0x5 SLOAD AND CALLER EQ PUSH2 0xEFA JUMP JUMPDEST PUSH2 0x867 PUSH1 0x64 PUSH1 0xFF DUP8 AND PUSH2 0x860 DUP2 DUP6 GT ISZERO PUSH2 0x1073 JUMP JUMPDEST GT ISZERO PUSH2 0x10B4 JUMP JUMPDEST PUSH1 0x7 SLOAD SWAP1 PUSH2 0xFF00 DUP7 PUSH1 0x8 SHL AND SWAP2 PUSH2 0xFFFF NOT AND OR OR PUSH1 0x7 SSTORE MLOAD SWAP3 DUP4 SWAP3 DUP4 SWAP1 SWAP3 SWAP2 PUSH1 0xFF PUSH1 0x20 SWAP2 DUP2 PUSH1 0x40 DUP6 ADD SWAP7 AND DUP5 MSTORE AND SWAP2 ADD MSTORE JUMP JUMPDEST SUB SWAP1 LOG1 STOP JUMPDEST SWAP1 POP CALLVALUE PUSH2 0x171 JUMPI PUSH1 0x20 CALLDATASIZE PUSH1 0x3 NOT ADD SLT PUSH2 0x171 JUMPI PUSH2 0x8BA PUSH2 0xD44 JUMP JUMPDEST PUSH1 0x5 SLOAD SWAP2 SWAP1 PUSH1 0x1 PUSH1 0x1 PUSH1 0xA0 SHL SUB SWAP1 PUSH2 0x8D5 CALLER DUP4 DUP7 AND EQ PUSH2 0xEFA JUMP JUMPDEST AND SWAP3 DUP4 ISZERO PUSH2 0x8EF JUMPI POP POP PUSH1 0x1 PUSH1 0x1 PUSH1 0xA0 SHL SUB NOT AND OR PUSH1 0x5 SSTORE STOP JUMPDEST SWAP1 PUSH1 0x20 PUSH1 0x64 SWAP3 MLOAD SWAP2 PUSH3 0x461BCD PUSH1 0xE5 SHL DUP4 MSTORE DUP3 ADD MSTORE PUSH1 0x15 PUSH1 0x24 DUP3 ADD MSTORE PUSH21 0x496E76616C69642061646D696E2061646472657373 PUSH1 0x58 SHL PUSH1 0x44 DUP3 ADD MSTORE REVERT JUMPDEST CALLVALUE PUSH2 0x171 JUMPI PUSH0 CALLDATASIZE PUSH1 0x3 NOT ADD SLT PUSH2 0x171 JUMPI PUSH2 0x942 PUSH2 0x187B JUMP JUMPDEST PUSH0 DUP1 SLOAD PUSH1 0x1 PUSH1 0x1 PUSH1 0xA0 SHL SUB NOT DUP2 AND DUP3 SSTORE PUSH1 0x1 PUSH1 0x1 PUSH1 0xA0 SHL SUB AND PUSH32 0x8BE0079C531659141344CD1FD0A4F28419497F9722A3DAAFE3B4186F6B6457E0 DUP3 DUP1 LOG3 STOP JUMPDEST DUP3 CALLVALUE PUSH2 0x171 JUMPI DUP1 PUSH1 0x3 NOT CALLDATASIZE ADD SLT PUSH2 0x171 JUMPI PUSH2 0x99A PUSH2 0xD44 JUMP JUMPDEST PUSH1 0x1 PUSH1 0x1 PUSH1 0xA0 SHL SUB AND PUSH0 SWAP1 DUP2 MSTORE PUSH1 0x8 PUSH1 0x20 MSTORE DUP2 SWAP1 KECCAK256 DUP1 SLOAD PUSH1 0x24 CALLDATALOAD SWAP1 DUP2 LT ISZERO PUSH2 0x171 JUMPI PUSH2 0x9C5 SWAP2 PUSH2 0xEAC JUMP JUMPDEST POP DUP1 SLOAD PUSH1 0x1 DUP3 ADD SLOAD PUSH1 0x2 SWAP1 SWAP3 ADD SLOAD SWAP3 MLOAD PUSH1 0xFF SWAP1 SWAP2 AND DUP2 MSTORE PUSH1 0x20 DUP2 ADD SWAP2 SWAP1 SWAP2 MSTORE PUSH1 0x40 DUP2 ADD SWAP2 SWAP1 SWAP2 MSTORE PUSH1 0x60 SWAP1 RETURN JUMPDEST DUP3 CALLVALUE PUSH2 0x171 JUMPI DUP1 PUSH1 0x3 NOT CALLDATASIZE ADD SLT PUSH2 0x171 JUMPI DUP2 CALLDATALOAD PUSH8 0xFFFFFFFFFFFFFFFF DUP2 GT PUSH2 0x171 JUMPI PUSH2 0x65A PUSH2 0xA27 PUSH1 0x20 SWAP5 PUSH1 0xFF SWAP4 CALLDATASIZE SWAP2 ADD PUSH2 0xE34 JUMP JUMPDEST PUSH2 0xA2F PUSH2 0xD5A JUMP JUMPDEST SWAP1 PUSH2 0x10F5 JUMP JUMPDEST DUP3 CALLVALUE PUSH2 0x171 JUMPI PUSH0 CALLDATASIZE PUSH1 0x3 NOT ADD SLT PUSH2 0x171 JUMPI PUSH1 0x1 SLOAD SWAP1 MLOAD PUSH1 0x1 PUSH1 0x1 PUSH1 0xA0 SHL SUB SWAP1 SWAP2 AND DUP2 MSTORE PUSH1 0x20 SWAP1 RETURN JUMPDEST DUP3 CALLVALUE PUSH2 0x171 JUMPI PUSH1 0x20 CALLDATASIZE PUSH1 0x3 NOT ADD SLT PUSH2 0x171 JUMPI PUSH2 0x16D SWAP1 PUSH1 0x1 PUSH1 0x1 PUSH1 0xA0 SHL SUB PUSH2 0xA83 PUSH2 0xD44 JUMP JUMPDEST AND PUSH0 MSTORE PUSH1 0x6 PUSH1 0x20 MSTORE DUP1 PUSH0 KECCAK256 SLOAD SWAP1 MLOAD SWAP2 DUP2 PUSH1 0xFF DUP5 SWAP4 PUSH1 0x10 SHR AND SWAP1 PUSH1 0xFF DUP1 DUP3 PUSH1 0x8 SHR AND SWAP2 AND DUP5 SWAP2 SWAP3 PUSH1 0xFF PUSH1 0x40 SWAP3 SWAP6 SWAP5 DUP2 PUSH1 0x60 DUP7 ADD SWAP8 AND DUP6 MSTORE AND PUSH1 0x20 DUP5 ADD MSTORE ISZERO ISZERO SWAP2 ADD MSTORE JUMP JUMPDEST DUP3 CALLVALUE PUSH2 0x171 JUMPI PUSH0 CALLDATASIZE PUSH1 0x3 NOT ADD SLT PUSH2 0x171 JUMPI SWAP1 SLOAD SWAP1 MLOAD PUSH1 0x1 PUSH1 0x1 PUSH1 0xA0 SHL SUB SWAP1 SWAP2 AND DUP2 MSTORE PUSH1 0x20 SWAP1 RETURN JUMPDEST DUP3 CALLVALUE PUSH2 0x171 JUMPI PUSH1 0x80 CALLDATASIZE PUSH1 0x3 NOT ADD SLT PUSH2 0x171 JUMPI PUSH2 0xB07 PUSH2 0xD44 JUMP JUMPDEST SWAP1 PUSH2 0xB10 PUSH2 0xD70 JUMP JUMPDEST PUSH1 0x44 CALLDATALOAD SWAP1 PUSH1 0xFF DUP3 AND SWAP4 DUP5 DUP4 SUB PUSH2 0x171 JUMPI PUSH1 0x64 CALLDATALOAD SWAP4 DUP5 ISZERO ISZERO DUP1 SWAP6 SUB PUSH2 0x171 JUMPI PUSH32 0xDBEC57D1AD2B4E227B288EE122F22BF85194FDA868183C5565FC81AD49AC327E SWAP5 PUSH2 0xC00 SWAP3 PUSH1 0x1 DUP1 PUSH1 0xA0 SHL SUB SWAP1 PUSH2 0xB6B DUP3 PUSH1 0x5 SLOAD AND CALLER EQ PUSH2 0xEFA JUMP JUMPDEST AND SWAP7 PUSH2 0xB78 DUP9 ISZERO ISZERO PUSH2 0x1030 JUMP JUMPDEST PUSH1 0xFF DUP6 AND SWAP2 PUSH2 0xB89 DUP3 DUP5 GT ISZERO PUSH2 0x1073 JUMP JUMPDEST PUSH2 0xB96 PUSH1 0x64 DUP4 GT ISZERO PUSH2 0x10B4 JUMP JUMPDEST DUP4 MLOAD SWAP3 PUSH2 0xBA2 DUP5 PUSH2 0xD80 JUMP JUMPDEST DUP4 MSTORE PUSH1 0x20 DUP4 ADD SWAP2 DUP3 MSTORE DUP4 DUP4 ADD SWAP1 DUP2 MSTORE DUP9 PUSH0 MSTORE PUSH1 0x6 PUSH1 0x20 MSTORE PUSH1 0xFF DUP5 PUSH0 KECCAK256 SWAP4 MLOAD AND PUSH3 0xFF0000 PUSH2 0xFF00 DUP6 SLOAD SWAP5 MLOAD PUSH1 0x8 SHL AND SWAP3 MLOAD ISZERO ISZERO PUSH1 0x10 SHL AND SWAP3 PUSH3 0xFFFFFF NOT AND OR OR OR SWAP1 SSTORE MLOAD SWAP3 DUP4 SWAP3 DUP4 SWAP1 SWAP3 SWAP2 PUSH1 0xFF PUSH1 0x20 SWAP2 DUP2 PUSH1 0x40 DUP6 ADD SWAP7 AND DUP5 MSTORE AND SWAP2 ADD MSTORE JUMP JUMPDEST SUB SWAP1 LOG2 STOP JUMPDEST SWAP1 POP CALLVALUE PUSH2 0x171 JUMPI DUP2 PUSH1 0x3 NOT CALLDATASIZE ADD SLT PUSH2 0x171 JUMPI PUSH2 0xC1F PUSH2 0xD44 JUMP JUMPDEST PUSH1 0x5 SLOAD SWAP1 SWAP3 SWAP1 PUSH1 0x1 PUSH1 0x1 PUSH1 0xA0 SHL SUB SWAP1 PUSH2 0xC3B SWAP1 DUP3 AND CALLER EQ PUSH2 0xEFA JUMP JUMPDEST PUSH2 0xC44 DUP5 PUSH2 0x1451 JUMP JUMPDEST PUSH1 0xFF DUP2 AND SWAP2 SWAP1 PUSH2 0xC56 DUP4 PUSH1 0x24 CALLDATALOAD PUSH2 0xF50 JUMP JUMPDEST DUP6 SLOAD DUP6 MLOAD PUSH4 0x3C376997 PUSH1 0xE2 SHL DUP2 MSTORE PUSH1 0x1 PUSH1 0x1 PUSH1 0xA0 SHL SUB DUP10 AND SWAP8 DUP2 ADD SWAP8 DUP9 MSTORE PUSH1 0x64 SWAP1 SWAP3 DIV PUSH1 0x20 DUP9 DUP2 ADD DUP3 SWAP1 MSTORE SWAP9 SWAP1 SWAP8 SWAP1 SWAP3 SWAP2 DUP10 SWAP2 DUP4 SWAP2 DUP8 AND SWAP1 DUP3 SWAP1 DUP2 SWAP1 PUSH1 0x40 ADD SUB SWAP2 GAS SWAP1 PUSH0 SWAP2 CALL SWAP1 DUP2 ISZERO PUSH2 0xD3A JUMPI PUSH0 SWAP2 PUSH2 0xCE3 JUMPI JUMPDEST POP PUSH0 DUP1 MLOAD PUSH1 0x20 PUSH2 0x19E6 DUP4 CODECOPY DUP2 MLOAD SWAP2 MSTORE SWAP4 PUSH2 0x44F SWAP4 SWAP3 PUSH2 0xCCB PUSH2 0x436 SWAP4 PUSH2 0xF84 JUMP JUMPDEST AND SWAP5 DUP6 PUSH0 MSTORE PUSH1 0x8 DUP10 MSTORE DUP7 PUSH0 KECCAK256 DUP8 MLOAD SWAP2 PUSH2 0x425 DUP4 PUSH2 0xD80 JUMP JUMPDEST SWAP1 POP DUP8 DUP2 DUP2 SWAP5 SWAP4 SWAP5 RETURNDATASIZE DUP4 GT PUSH2 0xD33 JUMPI JUMPDEST PUSH2 0xCFD DUP2 DUP4 PUSH2 0xDB0 JUMP JUMPDEST DUP2 ADD SUB SLT PUSH2 0x171 JUMPI PUSH0 DUP1 MLOAD PUSH1 0x20 PUSH2 0x19E6 DUP4 CODECOPY DUP2 MLOAD SWAP2 MSTORE SWAP4 PUSH2 0x44F SWAP4 PUSH2 0xCCB PUSH2 0xD27 PUSH2 0x436 SWAP5 PUSH2 0xF77 JUMP JUMPDEST SWAP4 POP POP SWAP3 SWAP4 POP SWAP4 PUSH2 0xCAA JUMP JUMPDEST POP RETURNDATASIZE PUSH2 0xCF3 JUMP JUMPDEST DUP7 MLOAD RETURNDATASIZE PUSH0 DUP3 RETURNDATACOPY RETURNDATASIZE SWAP1 REVERT JUMPDEST PUSH1 0x4 CALLDATALOAD SWAP1 PUSH1 0x1 PUSH1 0x1 PUSH1 0xA0 SHL SUB DUP3 AND DUP3 SUB PUSH2 0x171 JUMPI JUMP JUMPDEST PUSH1 0x24 CALLDATALOAD SWAP1 PUSH1 0x1 PUSH1 0x1 PUSH1 0xA0 SHL SUB DUP3 AND DUP3 SUB PUSH2 0x171 JUMPI JUMP JUMPDEST PUSH1 0x24 CALLDATALOAD SWAP1 PUSH1 0xFF DUP3 AND DUP3 SUB PUSH2 0x171 JUMPI JUMP JUMPDEST PUSH1 0x60 DUP2 ADD SWAP1 DUP2 LT PUSH8 0xFFFFFFFFFFFFFFFF DUP3 GT OR PUSH2 0xD9C JUMPI PUSH1 0x40 MSTORE JUMP JUMPDEST PUSH4 0x4E487B71 PUSH1 0xE0 SHL PUSH0 MSTORE PUSH1 0x41 PUSH1 0x4 MSTORE PUSH1 0x24 PUSH0 REVERT JUMPDEST SWAP1 PUSH1 0x1F DUP1 NOT SWAP2 ADD AND DUP2 ADD SWAP1 DUP2 LT PUSH8 0xFFFFFFFFFFFFFFFF DUP3 GT OR PUSH2 0xD9C JUMPI PUSH1 0x40 MSTORE JUMP JUMPDEST PUSH8 0xFFFFFFFFFFFFFFFF DUP2 GT PUSH2 0xD9C JUMPI PUSH1 0x1F ADD PUSH1 0x1F NOT AND PUSH1 0x20 ADD SWAP1 JUMP JUMPDEST DUP2 PUSH1 0x1F DUP3 ADD SLT ISZERO PUSH2 0x171 JUMPI DUP1 CALLDATALOAD SWAP1 PUSH2 0xE05 DUP3 PUSH2 0xDD2 JUMP JUMPDEST SWAP3 PUSH2 0xE13 PUSH1 0x40 MLOAD SWAP5 DUP6 PUSH2 0xDB0 JUMP JUMPDEST DUP3 DUP5 MSTORE PUSH1 0x20 DUP4 DUP4 ADD ADD GT PUSH2 0x171 JUMPI DUP2 PUSH0 SWAP3 PUSH1 0x20 DUP1 SWAP4 ADD DUP4 DUP7 ADD CALLDATACOPY DUP4 ADD ADD MSTORE SWAP1 JUMP JUMPDEST SWAP2 SWAP1 PUSH1 0x60 DUP4 DUP3 SUB SLT PUSH2 0x171 JUMPI PUSH1 0x40 MLOAD SWAP1 PUSH2 0xE4D DUP3 PUSH2 0xD80 JUMP JUMPDEST DUP2 SWAP4 DUP1 CALLDATALOAD SWAP2 PUSH8 0xFFFFFFFFFFFFFFFF SWAP3 DUP4 DUP2 GT PUSH2 0x171 JUMPI DUP2 PUSH2 0xE6F SWAP2 DUP5 ADD PUSH2 0xDEE JUMP JUMPDEST DUP5 MSTORE PUSH1 0x20 DUP3 ADD CALLDATALOAD DUP4 DUP2 GT PUSH2 0x171 JUMPI DUP2 PUSH2 0xE89 SWAP2 DUP5 ADD PUSH2 0xDEE JUMP JUMPDEST PUSH1 0x20 DUP6 ADD MSTORE PUSH1 0x40 DUP3 ADD CALLDATALOAD SWAP3 DUP4 GT PUSH2 0x171 JUMPI PUSH1 0x40 SWAP3 PUSH2 0xEA7 SWAP3 ADD PUSH2 0xDEE JUMP JUMPDEST SWAP2 ADD MSTORE JUMP JUMPDEST DUP1 SLOAD DUP3 LT ISZERO PUSH2 0xEC5 JUMPI PUSH0 MSTORE PUSH1 0x3 PUSH1 0x20 PUSH0 KECCAK256 SWAP2 MUL ADD SWAP1 PUSH0 SWAP1 JUMP JUMPDEST PUSH4 0x4E487B71 PUSH1 0xE0 SHL PUSH0 MSTORE PUSH1 0x32 PUSH1 0x4 MSTORE PUSH1 0x24 PUSH0 REVERT JUMPDEST PUSH0 JUMPDEST DUP4 DUP2 LT PUSH2 0xEEA JUMPI POP POP PUSH0 SWAP2 ADD MSTORE JUMP JUMPDEST DUP2 DUP2 ADD MLOAD DUP4 DUP3 ADD MSTORE PUSH1 0x20 ADD PUSH2 0xEDB JUMP JUMPDEST ISZERO PUSH2 0xF01 JUMPI JUMP JUMPDEST PUSH1 0x40 MLOAD PUSH3 0x461BCD PUSH1 0xE5 SHL DUP2 MSTORE PUSH1 0x20 PUSH1 0x4 DUP3 ADD MSTORE PUSH1 0x21 PUSH1 0x24 DUP3 ADD MSTORE PUSH32 0x4F6E6C792061646D696E2063616E2063616C6C20746869732066756E6374696F PUSH1 0x44 DUP3 ADD MSTORE PUSH1 0x37 PUSH1 0xF9 SHL PUSH1 0x64 DUP3 ADD MSTORE PUSH1 0x84 SWAP1 REVERT JUMPDEST DUP2 DUP2 MUL SWAP3 SWAP2 DUP2 ISZERO SWAP2 DUP5 DIV EQ OR ISZERO PUSH2 0xF63 JUMPI JUMP JUMPDEST PUSH4 0x4E487B71 PUSH1 0xE0 SHL PUSH0 MSTORE PUSH1 0x11 PUSH1 0x4 MSTORE PUSH1 0x24 PUSH0 REVERT JUMPDEST MLOAD SWAP1 DUP2 ISZERO ISZERO DUP3 SUB PUSH2 0x171 JUMPI JUMP JUMPDEST ISZERO PUSH2 0xF8B JUMPI JUMP JUMPDEST PUSH1 0x40 MLOAD PUSH3 0x461BCD PUSH1 0xE5 SHL DUP2 MSTORE PUSH1 0x20 PUSH1 0x4 DUP3 ADD MSTORE PUSH1 0x19 PUSH1 0x24 DUP3 ADD MSTORE PUSH32 0x546F6B656E20646973747269627574696F6E206661696C656400000000000000 PUSH1 0x44 DUP3 ADD MSTORE PUSH1 0x64 SWAP1 REVERT JUMPDEST DUP1 SLOAD PUSH9 0x10000000000000000 DUP2 LT ISZERO PUSH2 0xD9C JUMPI PUSH2 0xFF2 SWAP2 PUSH1 0x1 DUP3 ADD DUP2 SSTORE PUSH2 0xEAC JUMP JUMPDEST SWAP2 SWAP1 SWAP2 PUSH2 0x101D JUMPI PUSH1 0x40 DUP2 PUSH1 0xFF PUSH1 0x2 SWAP4 MLOAD AND PUSH1 0xFF NOT DUP6 SLOAD AND OR DUP5 SSTORE PUSH1 0x20 DUP2 ADD MLOAD PUSH1 0x1 DUP6 ADD SSTORE ADD MLOAD SWAP2 ADD SSTORE JUMP JUMPDEST PUSH4 0x4E487B71 PUSH1 0xE0 SHL PUSH0 MSTORE PUSH0 PUSH1 0x4 MSTORE PUSH1 0x24 PUSH0 REVERT JUMPDEST ISZERO PUSH2 0x1037 JUMPI JUMP JUMPDEST PUSH1 0x40 MLOAD PUSH3 0x461BCD PUSH1 0xE5 SHL DUP2 MSTORE PUSH1 0x20 PUSH1 0x4 DUP3 ADD MSTORE PUSH1 0x14 PUSH1 0x24 DUP3 ADD MSTORE PUSH20 0x496E76616C696420757365722061646472657373 PUSH1 0x60 SHL PUSH1 0x44 DUP3 ADD MSTORE PUSH1 0x64 SWAP1 REVERT JUMPDEST ISZERO PUSH2 0x107A JUMPI JUMP JUMPDEST PUSH1 0x40 MLOAD PUSH3 0x461BCD PUSH1 0xE5 SHL DUP2 MSTORE PUSH1 0x20 PUSH1 0x4 DUP3 ADD MSTORE PUSH1 0x12 PUSH1 0x24 DUP3 ADD MSTORE PUSH18 0x9AD2DC40DAEAE6E840C4CA40787A40DAC2F PUSH1 0x73 SHL PUSH1 0x44 DUP3 ADD MSTORE PUSH1 0x64 SWAP1 REVERT JUMPDEST ISZERO PUSH2 0x10BB JUMPI JUMP JUMPDEST PUSH1 0x40 MLOAD PUSH3 0x461BCD PUSH1 0xE5 SHL DUP2 MSTORE PUSH1 0x20 PUSH1 0x4 DUP3 ADD MSTORE PUSH1 0x12 PUSH1 0x24 DUP3 ADD MSTORE PUSH18 0x4D6178206D757374206265203C3D2031303 PUSH1 0x74 SHL PUSH1 0x44 DUP3 ADD MSTORE PUSH1 0x64 SWAP1 REVERT JUMPDEST PUSH1 0x40 DUP1 MLOAD PUSH1 0x1 PUSH1 0x1 PUSH1 0xA0 SHL SUB DUP5 AND PUSH1 0x20 DUP1 DUP4 ADD DUP3 SWAP1 MSTORE DUP1 DUP4 MSTORE SWAP4 SWAP1 SWAP3 SWAP2 PUSH8 0xFFFFFFFFFFFFFFFF SWAP2 SWAP1 DUP1 DUP5 ADD SWAP1 DUP4 DUP3 GT DUP2 DUP4 LT OR PUSH2 0xD9C JUMPI PUSH2 0x1138 SWAP2 DUP6 MSTORE DUP3 PUSH2 0x15E0 JUMP JUMPDEST ISZERO PUSH2 0x13BF JUMPI DUP5 SWAP1 PUSH2 0x114A DUP6 ISZERO ISZERO PUSH2 0x1030 JUMP JUMPDEST ADD MLOAD DUP1 MLOAD DUP2 ADD SWAP1 DUP6 DUP3 ADD SWAP1 DUP7 DUP2 DUP5 SUB SLT PUSH2 0x171 JUMPI DUP7 DUP2 ADD MLOAD SWAP1 DUP5 DUP3 GT PUSH2 0x171 JUMPI ADD SWAP2 DUP2 PUSH1 0x3F DUP5 ADD SLT ISZERO PUSH2 0x171 JUMPI DUP7 DUP4 ADD MLOAD SWAP4 DUP1 DUP6 GT PUSH2 0xD9C JUMPI DUP5 PUSH1 0x5 SHL SWAP2 DUP7 MLOAD SWAP6 PUSH2 0x1197 DUP11 DUP6 ADD DUP9 PUSH2 0xDB0 JUMP JUMPDEST DUP7 MSTORE DUP7 DUP10 DUP8 ADD SWAP4 DUP7 ADD ADD SWAP5 DUP5 DUP7 GT PUSH2 0x171 JUMPI DUP8 DUP2 ADD SWAP4 JUMPDEST DUP7 DUP6 LT PUSH2 0x1336 JUMPI POP POP POP POP POP POP POP PUSH0 SWAP5 PUSH0 SWAP6 PUSH0 JUMPDEST DUP4 MLOAD DUP2 LT ISZERO PUSH2 0x1329 JUMPI PUSH2 0x639 DUP1 PUSH2 0x11D9 DUP4 DUP8 PUSH2 0x1424 JUMP JUMPDEST MLOAD MLOAD EQ PUSH2 0x11E9 JUMPI POP PUSH1 0x1 ADD PUSH2 0x11C2 JUMP JUMPDEST SWAP5 SWAP6 SWAP7 SWAP8 POP DUP8 SWAP2 POP PUSH2 0x11FF SWAP1 PUSH2 0x1210 SWAP4 SWAP5 PUSH2 0x1424 JUMP JUMPDEST MLOAD ADD MLOAD DUP7 DUP1 DUP3 MLOAD DUP4 ADD ADD SWAP2 ADD PUSH2 0x1438 JUMP JUMPDEST SWAP2 DUP5 PUSH32 0x46C163F3BF5D6002DE35DDC5E580195D73821B07EB35C71FDAD426A89F24F4BB DUP6 PUSH1 0x1 SWAP4 DUP2 MLOAD SWAP1 DUP2 MSTORE PUSH1 0xFF DUP8 AND DUP11 DUP3 ADD MSTORE LOG2 JUMPDEST ISZERO PUSH2 0x12D2 JUMPI SWAP1 PUSH2 0x1277 PUSH32 0xD10B75785084E83D4CF1383B9BA8AC397AED2D5EA17B4CDCEED4F2D3F919D43E SWAP4 SWAP3 PUSH2 0x151B JUMP JUMPDEST SWAP2 SWAP3 SWAP1 SWAP2 PUSH2 0x129C JUMPI POP POP POP PUSH1 0xFF PUSH1 0x7 SLOAD AND SWAP4 JUMPDEST DUP2 MLOAD SWAP1 PUSH1 0xFF DUP7 AND DUP3 MSTORE TIMESTAMP SWAP1 DUP3 ADD MSTORE LOG2 SWAP1 JUMP JUMPDEST PUSH1 0xFF DUP2 AND PUSH1 0xFF DUP5 AND DUP2 LT PUSH0 EQ PUSH2 0x12B5 JUMPI POP POP POP SWAP4 PUSH2 0x128A JUMP JUMPDEST SWAP2 SWAP3 POP SWAP1 PUSH1 0xFF DUP4 AND LT ISZERO PUSH2 0x12CA JUMPI POP SWAP4 PUSH2 0x128A JUMP JUMPDEST SWAP1 POP SWAP4 PUSH2 0x128A JUMP JUMPDEST DUP3 MLOAD PUSH3 0x461BCD PUSH1 0xE5 SHL DUP2 MSTORE PUSH1 0x4 DUP2 ADD DUP7 SWAP1 MSTORE PUSH1 0x2A PUSH1 0x24 DUP3 ADD MSTORE PUSH32 0x546F6B656E20616C6C6F636174696F6E206B65726E656C20726573706F6E7365 PUSH1 0x44 DUP3 ADD MSTORE PUSH10 0x81B9BDD08199BDD5B99 PUSH1 0xB2 SHL PUSH1 0x64 DUP3 ADD MSTORE PUSH1 0x84 SWAP1 REVERT JUMPDEST POP SWAP3 SWAP4 SWAP5 SWAP6 SWAP1 SWAP2 POP PUSH2 0x1246 JUMP JUMPDEST DUP5 MLOAD DUP5 DUP2 GT PUSH2 0x171 JUMPI DUP3 ADD SWAP1 PUSH1 0x60 SWAP1 DUP2 PUSH1 0x1F NOT DUP5 DUP8 SUB ADD SLT PUSH2 0x171 JUMPI DUP11 MLOAD SWAP3 PUSH2 0x135E DUP5 PUSH2 0xD80 JUMP JUMPDEST DUP12 DUP2 ADD MLOAD DUP5 MSTORE DUP3 DUP2 ADD MLOAD DUP8 DUP2 GT PUSH2 0x171 JUMPI PUSH2 0x137F DUP16 SWAP2 DUP15 DUP13 SWAP2 DUP6 ADD ADD PUSH2 0x1407 JUMP JUMPDEST SWAP1 DUP6 ADD MSTORE PUSH1 0x80 DUP2 ADD MLOAD SWAP1 DUP8 DUP3 GT PUSH2 0x171 JUMPI ADD SWAP3 DUP9 PUSH1 0x5F DUP6 ADD SLT ISZERO PUSH2 0x171 JUMPI PUSH2 0x13B0 DUP10 DUP16 SWAP6 DUP7 SWAP6 DUP16 DUP3 ADD MLOAD SWAP2 ADD PUSH2 0x13D0 JUMP JUMPDEST DUP13 DUP3 ADD MSTORE DUP2 MSTORE ADD SWAP5 ADD SWAP4 PUSH2 0x11AE JUMP JUMPDEST DUP3 MLOAD PUSH4 0x6CA537E7 PUSH1 0xE1 SHL DUP2 MSTORE PUSH1 0x4 SWAP1 REVERT JUMPDEST SWAP1 SWAP3 SWAP2 SWAP3 PUSH2 0x13DD DUP2 PUSH2 0xDD2 JUMP JUMPDEST SWAP2 PUSH2 0x13EB PUSH1 0x40 MLOAD SWAP4 DUP5 PUSH2 0xDB0 JUMP JUMPDEST DUP3 SWAP5 DUP3 DUP5 MSTORE DUP3 DUP3 ADD GT PUSH2 0x171 JUMPI PUSH1 0x20 PUSH2 0x1405 SWAP4 ADD SWAP1 PUSH2 0xED9 JUMP JUMPDEST JUMP JUMPDEST SWAP1 DUP1 PUSH1 0x1F DUP4 ADD SLT ISZERO PUSH2 0x171 JUMPI DUP2 MLOAD PUSH2 0x1421 SWAP3 PUSH1 0x20 ADD PUSH2 0x13D0 JUMP JUMPDEST SWAP1 JUMP JUMPDEST DUP1 MLOAD DUP3 LT ISZERO PUSH2 0xEC5 JUMPI PUSH1 0x20 SWAP2 PUSH1 0x5 SHL ADD ADD SWAP1 JUMP JUMPDEST SWAP1 DUP2 PUSH1 0x20 SWAP2 SUB SLT PUSH2 0x171 JUMPI MLOAD PUSH1 0xFF DUP2 AND DUP2 SUB PUSH2 0x171 JUMPI SWAP1 JUMP JUMPDEST PUSH1 0x3 SLOAD PUSH1 0x40 MLOAD PUSH4 0x52CC9D27 PUSH1 0xE1 SHL DUP2 MSTORE PUSH1 0x1 PUSH1 0x1 PUSH1 0xA0 SHL SUB DUP4 DUP2 AND PUSH1 0x4 DUP4 ADD MSTORE SWAP1 SWAP3 SWAP2 PUSH1 0x20 SWAP2 DUP5 SWAP2 PUSH1 0x24 SWAP2 DUP4 SWAP2 AND GAS STATICCALL SWAP2 DUP3 ISZERO PUSH2 0x1510 JUMPI PUSH0 SWAP3 PUSH2 0x14DB JUMPI JUMPDEST POP PUSH2 0x1499 SWAP1 PUSH2 0x151B JUMP JUMPDEST SWAP3 SWAP1 SWAP2 SWAP3 ISZERO PUSH2 0x14CF JUMPI PUSH1 0xFF DUP2 AND PUSH1 0xFF DUP5 AND DUP2 LT PUSH0 EQ PUSH2 0x14B8 JUMPI POP POP POP SWAP1 JUMP JUMPDEST SWAP2 SWAP3 POP SWAP1 PUSH1 0xFF DUP4 AND LT ISZERO PUSH2 0x14CA JUMPI POP SWAP1 JUMP JUMPDEST SWAP1 POP SWAP1 JUMP JUMPDEST POP POP POP PUSH1 0xFF PUSH1 0x7 SLOAD AND SWAP1 JUMP JUMPDEST PUSH2 0x1499 SWAP2 SWAP3 POP PUSH2 0x1502 SWAP1 PUSH1 0x20 RETURNDATASIZE PUSH1 0x20 GT PUSH2 0x1509 JUMPI JUMPDEST PUSH2 0x14FA DUP2 DUP4 PUSH2 0xDB0 JUMP JUMPDEST DUP2 ADD SWAP1 PUSH2 0x1438 JUMP JUMPDEST SWAP2 SWAP1 PUSH2 0x148F JUMP JUMPDEST POP RETURNDATASIZE PUSH2 0x14F0 JUMP JUMPDEST PUSH1 0x40 MLOAD RETURNDATASIZE PUSH0 DUP3 RETURNDATACOPY RETURNDATASIZE SWAP1 REVERT JUMPDEST PUSH1 0x1 PUSH1 0x1 PUSH1 0xA0 SHL SUB AND PUSH0 SWAP1 DUP2 MSTORE PUSH1 0x6 PUSH1 0x20 MSTORE PUSH1 0x40 SWAP1 DUP2 SWAP1 KECCAK256 DUP2 MLOAD SWAP3 SWAP1 PUSH2 0x1540 DUP5 PUSH2 0xD80 JUMP JUMPDEST SLOAD SWAP3 PUSH1 0xFF DUP1 DUP6 AND SWAP2 DUP3 DUP2 MSTORE DUP2 DUP1 DUP8 PUSH1 0x8 SHR AND SWAP7 DUP8 PUSH1 0x20 DUP5 ADD MSTORE PUSH1 0x10 SHR AND ISZERO SWAP1 DUP2 ISZERO SWAP6 DUP7 SWAP2 ADD MSTORE PUSH2 0x1570 JUMPI POP SWAP3 SWAP2 SWAP1 JUMP JUMPDEST PUSH1 0x7 SLOAD DUP1 DUP3 AND SWAP6 POP PUSH1 0x8 DUP2 SWAP1 SHR DUP3 AND SWAP5 POP PUSH1 0x10 SHR AND SWAP2 SWAP1 POP JUMP JUMPDEST SWAP1 PUSH1 0x20 SWAP2 PUSH2 0x15A3 DUP2 MLOAD DUP1 SWAP3 DUP2 DUP6 MSTORE DUP6 DUP1 DUP7 ADD SWAP2 ADD PUSH2 0xED9 JUMP JUMPDEST PUSH1 0x1F ADD PUSH1 0x1F NOT AND ADD ADD SWAP1 JUMP JUMPDEST PUSH1 0x20 SWAP1 PUSH2 0x15C5 PUSH1 0x14 SWAP5 SWAP4 DUP3 DUP2 MLOAD SWAP5 DUP6 SWAP3 ADD PUSH2 0xED9 JUMP JUMPDEST ADD SWAP1 PUSH12 0xFFFFFFFFFFFFFFFFFFFFFFFF NOT SWAP1 PUSH1 0x60 SHL AND DUP2 MSTORE ADD SWAP1 JUMP JUMPDEST SWAP1 DUP2 MLOAD SWAP2 DUP3 MLOAD SWAP3 PUSH1 0x20 SWAP4 DUP2 ADD SWAP1 PUSH1 0xA0 DUP2 DUP7 DUP5 ADD SWAP4 SUB SLT PUSH2 0x171 JUMPI DUP5 DUP2 ADD MLOAD SWAP1 PUSH8 0xFFFFFFFFFFFFFFFF SWAP2 DUP3 DUP2 GT PUSH2 0x171 JUMPI DUP4 DUP8 PUSH2 0x161E SWAP3 DUP5 ADD ADD PUSH2 0x1407 JUMP JUMPDEST SWAP5 PUSH1 0x40 SWAP6 DUP7 DUP4 ADD MLOAD SWAP5 PUSH1 0x60 DUP5 ADD MLOAD SWAP1 DUP6 DUP3 GT PUSH2 0x171 JUMPI DUP10 PUSH2 0x1641 SWAP3 DUP7 ADD ADD PUSH2 0x1407 JUMP JUMPDEST SWAP3 PUSH2 0x1653 PUSH1 0xA0 PUSH1 0x80 DUP4 ADD MLOAD SWAP3 ADD PUSH2 0xF77 JUMP JUMPDEST ISZERO SWAP2 DUP3 PUSH2 0x183E JUMPI SWAP1 PUSH2 0x167F PUSH2 0x169B PUSH2 0x16A4 SWAP9 SWAP8 SWAP7 SWAP6 SWAP5 SWAP4 DUP13 DUP12 ADD MLOAD DUP14 DUP14 MLOAD SWAP5 DUP6 SWAP2 DUP3 ADD SWAP3 CALLER SWAP1 DUP5 PUSH2 0x15AF JUMP JUMPDEST SUB SWAP4 PUSH2 0x1693 PUSH1 0x1F NOT SWAP6 DUP7 DUP2 ADD DUP4 MSTORE DUP3 PUSH2 0xDB0 JUMP JUMPDEST MLOAD SWAP1 KECCAK256 PUSH2 0x18A6 JUMP JUMPDEST SWAP1 SWAP10 SWAP2 SWAP10 PUSH2 0x18E0 JUMP JUMPDEST PUSH1 0x1 SLOAD PUSH1 0x1 PUSH1 0x1 PUSH1 0xA0 SHL SUB SWAP1 DUP2 AND SWAP10 SWAP1 SWAP9 DUP10 AND DUP11 SWAP1 SUB PUSH2 0x17EB JUMPI PUSH2 0x16DC PUSH2 0x16E8 DUP10 SWAP4 DUP15 DUP15 DUP1 SWAP6 ADD MLOAD SWAP5 MLOAD SWAP4 DUP5 SWAP2 DUP3 ADD SWAP6 CALLER SWAP1 DUP8 PUSH2 0x15AF JUMP JUMPDEST SUB SWAP1 DUP2 ADD DUP4 MSTORE DUP3 PUSH2 0xDB0 JUMP JUMPDEST MLOAD SWAP1 KECCAK256 SWAP4 DUP12 DUP2 MLOAD SWAP2 ADD KECCAK256 SWAP4 SUB PUSH2 0x17A7 JUMPI DUP9 MLOAD SWAP6 DUP11 DUP8 ADD SWAP4 DUP5 MSTORE DUP10 DUP8 ADD MSTORE CALLER PUSH1 0x60 SHL PUSH1 0x60 DUP8 ADD MSTORE PUSH1 0x74 DUP7 ADD MSTORE ISZERO PUSH1 0xF8 SHL PUSH1 0x94 DUP6 ADD MSTORE PUSH1 0x75 DUP5 MSTORE PUSH1 0xA0 DUP5 ADD SWAP3 DUP5 DUP5 LT SWAP1 DUP5 GT OR PUSH2 0xD9C JUMPI PUSH2 0x174B SWAP4 PUSH2 0x1742 SWAP4 DUP9 MSTORE MLOAD SWAP1 KECCAK256 PUSH2 0x18A6 JUMP JUMPDEST SWAP1 SWAP3 SWAP2 SWAP3 PUSH2 0x18E0 JUMP JUMPDEST AND SUB PUSH2 0x1758 JUMPI POP POP PUSH1 0x1 SWAP1 JUMP JUMPDEST PUSH1 0x84 SWAP3 POP MLOAD SWAP1 PUSH3 0x461BCD PUSH1 0xE5 SHL DUP3 MSTORE PUSH1 0x4 DUP3 ADD MSTORE PUSH1 0x23 PUSH1 0x24 DUP3 ADD MSTORE PUSH32 0x496E76616C6964207369676E617475726520666F722066756E6374696F6E2063 PUSH1 0x44 DUP3 ADD MSTORE PUSH3 0x185B1B PUSH1 0xEA SHL PUSH1 0x64 DUP3 ADD MSTORE REVERT JUMPDEST DUP9 MLOAD PUSH3 0x461BCD PUSH1 0xE5 SHL DUP2 MSTORE PUSH1 0x4 DUP2 ADD DUP12 SWAP1 MSTORE PUSH1 0x1C PUSH1 0x24 DUP3 ADD MSTORE PUSH32 0x496E76616C6964206B65726E656C20706172616D732064696765737400000000 PUSH1 0x44 DUP3 ADD MSTORE PUSH1 0x64 SWAP1 REVERT JUMPDEST DUP11 MLOAD PUSH3 0x461BCD PUSH1 0xE5 SHL DUP2 MSTORE PUSH1 0x4 DUP2 ADD DUP14 SWAP1 MSTORE PUSH1 0x26 PUSH1 0x24 DUP3 ADD MSTORE PUSH32 0x496E76616C6964207369676E617475726520666F72206B65726E656C20726573 PUSH1 0x44 DUP3 ADD MSTORE PUSH6 0x706F6E736573 PUSH1 0xD0 SHL PUSH1 0x64 DUP3 ADD MSTORE PUSH1 0x84 SWAP1 REVERT JUMPDEST DUP9 MLOAD PUSH3 0x461BCD PUSH1 0xE5 SHL DUP2 MSTORE PUSH1 0x4 DUP2 ADD DUP12 SWAP1 MSTORE PUSH1 0x16 PUSH1 0x24 DUP3 ADD MSTORE PUSH22 0x119A5B985B081BDC1A5B9A5BDB881C995D995C9D1959 PUSH1 0x52 SHL PUSH1 0x44 DUP3 ADD MSTORE PUSH1 0x64 SWAP1 REVERT JUMPDEST PUSH0 SLOAD PUSH1 0x1 PUSH1 0x1 PUSH1 0xA0 SHL SUB AND CALLER SUB PUSH2 0x188E JUMPI JUMP JUMPDEST PUSH1 0x40 MLOAD PUSH4 0x118CDAA7 PUSH1 0xE0 SHL DUP2 MSTORE CALLER PUSH1 0x4 DUP3 ADD MSTORE PUSH1 0x24 SWAP1 REVERT JUMPDEST DUP2 MLOAD SWAP2 SWAP1 PUSH1 0x41 DUP4 SUB PUSH2 0x18D6 JUMPI PUSH2 0x18CF SWAP3 POP PUSH1 0x20 DUP3 ADD MLOAD SWAP1 PUSH1 0x60 PUSH1 0x40 DUP5 ADD MLOAD SWAP4 ADD MLOAD PUSH0 BYTE SWAP1 PUSH2 0x1963 JUMP JUMPDEST SWAP2 SWAP3 SWAP1 SWAP2 SWAP1 JUMP JUMPDEST POP POP PUSH0 SWAP2 PUSH1 0x2 SWAP2 SWAP1 JUMP JUMPDEST PUSH1 0x4 DUP2 LT ISZERO PUSH2 0x194F JUMPI DUP1 PUSH2 0x18F2 JUMPI POP POP JUMP JUMPDEST PUSH1 0x1 DUP2 SUB PUSH2 0x190C JUMPI PUSH1 0x40 MLOAD PUSH4 0xF645EEDF PUSH1 0xE0 SHL DUP2 MSTORE PUSH1 0x4 SWAP1 REVERT JUMPDEST PUSH1 0x2 DUP2 SUB PUSH2 0x192D JUMPI PUSH1 0x40 MLOAD PUSH4 0xFCE698F7 PUSH1 0xE0 SHL DUP2 MSTORE PUSH1 0x4 DUP2 ADD DUP4 SWAP1 MSTORE PUSH1 0x24 SWAP1 REVERT JUMPDEST PUSH1 0x3 EQ PUSH2 0x1937 JUMPI POP JUMP JUMPDEST PUSH1 0x24 SWAP1 PUSH1 0x40 MLOAD SWAP1 PUSH4 0x35E2F383 PUSH1 0xE2 SHL DUP3 MSTORE PUSH1 0x4 DUP3 ADD MSTORE REVERT JUMPDEST PUSH4 0x4E487B71 PUSH1 0xE0 SHL PUSH0 MSTORE PUSH1 0x21 PUSH1 0x4 MSTORE PUSH1 0x24 PUSH0 REVERT JUMPDEST SWAP2 SWAP1 PUSH32 0x7FFFFFFFFFFFFFFFFFFFFFFFFFFFFFFF5D576E7357A4501DDFE92F46681B20A0 DUP5 GT PUSH2 0x19DA JUMPI SWAP2 PUSH1 0x20 SWAP4 PUSH1 0x80 SWAP3 PUSH1 0xFF PUSH0 SWAP6 PUSH1 0x40 MLOAD SWAP5 DUP6 MSTORE AND DUP7 DUP5 ADD MSTORE PUSH1 0x40 DUP4 ADD MSTORE PUSH1 0x60 DUP3 ADD MSTORE DUP3 DUP1 MSTORE PUSH1 0x1 GAS STATICCALL ISZERO PUSH2 0x1510 JUMPI PUSH0 MLOAD PUSH1 0x1 PUSH1 0x1 PUSH1 0xA0 SHL SUB DUP2 AND ISZERO PUSH2 0x19D0 JUMPI SWAP1 PUSH0 SWAP1 PUSH0 SWAP1 JUMP JUMPDEST POP PUSH0 SWAP1 PUSH1 0x1 SWAP1 PUSH0 SWAP1 JUMP JUMPDEST POP POP POP PUSH0 SWAP2 PUSH1 0x3 SWAP2 SWAP1 JUMP INVALID 0xDA MCOPY 0xBB MOD 0xFB 0xB6 RETURNDATACOPY 0xDE PUSH0 0xD3 GT 0xC0 0xEE 0x2B 0xC7 0xF PUSH22 0xC62208502B29BAA2BA9DA11048EC32A2646970667358 0x22 SLT KECCAK256 CALLER MCOPY POP 0x4E CREATE BLOCKHASH 0xA6 0xEE 0xDB 0xE4 0xE6 0xA5 0xE8 0xC8 0xBA 0x23 DUP8 PUSH18 0x13C635C6D2CF4E8AE589767C2A7B64736F6C PUSH4 0x43000818 STOP CALLER "
		},
		"gasEstimates": {
			"creation": {
				"codeDepositCost": "1343000",
				"executionCost": "infinite",
				"totalCost": "infinite"
			},
			"external": {
				"TOKEN_ALLOCATION_KERNEL_ID()": "487",
				"admin()": "2791",
				"allocationHistory(address,uint256)": "11189",
				"applyKernelAllocation((bytes,bytes,bytes),address)": "infinite",
				"configureUserStrategy(address,uint8,uint8,bool)": "28942",
				"defaultStrategy()": "2874",
				"distributeTokens(address,uint256)": "infinite",
				"distributeTokensWithKernel((bytes,bytes,bytes),address,uint256)": "infinite",
				"executed(bytes)": "infinite",
				"getUserAllocation(address)": "infinite",
				"getUserAllocationHistory(address,uint256)": "11508",
				"getUserAllocationHistoryCount(address)": "2765",
				"getUserStrategy(address)": "5303",
				"owner()": "2525",
				"renounceOwnership()": "28205",
				"setTokenAllocationKernel(address)": "27132",
				"setTokenAuthority(address)": "27060",
				"setTokenAuthorityPublicKey(address)": "27009",
				"tokenAllocationKernel()": "2570",
				"tokenAuthority()": "2328",
				"tokenAuthorityPublicKey()": "2372",
				"transferAdmin(address)": "24722",
				"transferOwnership(address)": "28622",
				"updateDefaultStrategy(uint8,uint8)": "28317",
				"userStrategies(address)": "2620"
			}
		},
		"methodIdentifiers": {
			"TOKEN_ALLOCATION_KERNEL_ID()": "c0250b37",
			"admin()": "f851a440",
			"allocationHistory(address,uint256)": "6f04cf9e",
			"applyKernelAllocation((bytes,bytes,bytes),address)": "53e97e79",
			"configureUserStrategy(address,uint8,uint8,bool)": "315846d2",
			"defaultStrategy()": "fac5bb9b",
			"distributeTokens(address,uint256)": "158a4988",
			"distributeTokensWithKernel((bytes,bytes,bytes),address,uint256)": "e4bb1354",
			"executed(bytes)": "909dd263",
			"getUserAllocation(address)": "b920ade2",
			"getUserAllocationHistory(address,uint256)": "83945249",
			"getUserAllocationHistoryCount(address)": "c902e9e1",
			"getUserStrategy(address)": "dc5c7d31",
			"owner()": "8da5cb5b",
			"renounceOwnership()": "715018a6",
			"setTokenAllocationKernel(address)": "f4e40376",
			"setTokenAuthority(address)": "e01acee9",
			"setTokenAuthorityPublicKey(address)": "d213d86b",
			"tokenAllocationKernel()": "a6b69fe8",
			"tokenAuthority()": "37998b55",
			"tokenAuthorityPublicKey()": "4ba1cfe4",
			"transferAdmin(address)": "75829def",
			"transferOwnership(address)": "f2fde38b",
			"updateDefaultStrategy(uint8,uint8)": "82da5847",
			"userStrategies(address)": "487bb965"
		}
	},
	"abi": [
		{
			"inputs": [
				{
					"internalType": "address",
					"name": "_tokenAllocationKernel",
					"type": "address"
				},
				{
					"internalType": "address",
					"name": "_tokenAuthority",
					"type": "address"
				},
				{
					"internalType": "address",
					"name": "_krnlPublicKey",
					"type": "address"
				}
			],
			"stateMutability": "nonpayable",
			"type": "constructor"
		},
		{
			"inputs": [],
			"name": "ECDSAInvalidSignature",
			"type": "error"
		},
		{
			"inputs": [
				{
					"internalType": "uint256",
					"name": "length",
					"type": "uint256"
				}
			],
			"name": "ECDSAInvalidSignatureLength",
			"type": "error"
		},
		{
			"inputs": [
				{
					"internalType": "bytes32",
					"name": "s",
					"type": "bytes32"
				}
			],
			"name": "ECDSAInvalidSignatureS",
			"type": "error"
		},
		{
			"inputs": [
				{
					"internalType": "address",
					"name": "owner",
					"type": "address"
				}
			],
			"name": "OwnableInvalidOwner",
			"type": "error"
		},
		{
			"inputs": [
				{
					"internalType": "address",
					"name": "account",
					"type": "address"
				}
			],
			"name": "OwnableUnauthorizedAccount",
			"type": "error"
		},
		{
			"inputs": [],
			"name": "UnauthorizedTransaction",
			"type": "error"
		},
		{
			"anonymous": false,
			"inputs": [
				{
					"indexed": false,
					"internalType": "uint8",
					"name": "minAllocation",
					"type": "uint8"
				},
				{
					"indexed": false,
					"internalType": "uint8",
					"name": "maxAllocation",
					"type": "uint8"
				}
			],
			"name": "DefaultStrategyUpdated",
			"type": "event"
		},
		{
			"anonymous": false,
			"inputs": [
				{
					"indexed": true,
					"internalType": "address",
					"name": "user",
					"type": "address"
				},
				{
					"indexed": false,
					"internalType": "uint8",
					"name": "allocation",
					"type": "uint8"
				},
				{
					"indexed": false,
					"internalType": "uint256",
					"name": "timestamp",
					"type": "uint256"
				}
			],
			"name": "KernelAllocated",
			"type": "event"
		},
		{
			"anonymous": false,
			"inputs": [
				{
					"indexed": true,
					"internalType": "address",
					"name": "user",
					"type": "address"
				},
				{
					"indexed": false,
					"internalType": "uint256",
					"name": "kernelId",
					"type": "uint256"
				},
				{
					"indexed": false,
					"internalType": "uint8",
					"name": "allocation",
					"type": "uint8"
				}
			],
			"name": "KernelResponseReceived",
			"type": "event"
		},
		{
			"anonymous": false,
			"inputs": [
				{
					"indexed": true,
					"internalType": "address",
					"name": "previousOwner",
					"type": "address"
				},
				{
					"indexed": true,
					"internalType": "address",
					"name": "newOwner",
					"type": "address"
				}
			],
			"name": "OwnershipTransferred",
			"type": "event"
		},
		{
			"anonymous": false,
			"inputs": [
				{
					"indexed": true,
					"internalType": "address",
					"name": "user",
					"type": "address"
				},
				{
					"indexed": false,
					"internalType": "uint8",
					"name": "minAllocation",
					"type": "uint8"
				},
				{
					"indexed": false,
					"internalType": "uint8",
					"name": "maxAllocation",
					"type": "uint8"
				}
			],
			"name": "StrategyConfigured",
			"type": "event"
		},
		{
			"anonymous": false,
			"inputs": [
				{
					"indexed": true,
					"internalType": "address",
					"name": "user",
					"type": "address"
				},
				{
					"indexed": false,
					"internalType": "uint256",
					"name": "amount",
					"type": "uint256"
				},
				{
					"indexed": false,
					"internalType": "uint8",
					"name": "allocation",
					"type": "uint8"
				}
			],
			"name": "TokensDistributed",
			"type": "event"
		},
		{
			"inputs": [],
			"name": "TOKEN_ALLOCATION_KERNEL_ID",
			"outputs": [
				{
					"internalType": "uint256",
					"name": "",
					"type": "uint256"
				}
			],
			"stateMutability": "view",
			"type": "function"
		},
		{
			"inputs": [],
			"name": "admin",
			"outputs": [
				{
					"internalType": "address",
					"name": "",
					"type": "address"
				}
			],
			"stateMutability": "view",
			"type": "function"
		},
		{
			"inputs": [
				{
					"internalType": "address",
					"name": "",
					"type": "address"
				},
				{
					"internalType": "uint256",
					"name": "",
					"type": "uint256"
				}
			],
			"name": "allocationHistory",
			"outputs": [
				{
					"internalType": "uint8",
					"name": "allocation",
					"type": "uint8"
				},
				{
					"internalType": "uint256",
					"name": "amount",
					"type": "uint256"
				},
				{
					"internalType": "uint256",
					"name": "timestamp",
					"type": "uint256"
				}
			],
			"stateMutability": "view",
			"type": "function"
		},
		{
			"inputs": [
				{
					"components": [
						{
							"internalType": "bytes",
							"name": "auth",
							"type": "bytes"
						},
						{
							"internalType": "bytes",
							"name": "kernelResponses",
							"type": "bytes"
						},
						{
							"internalType": "bytes",
							"name": "kernelParams",
							"type": "bytes"
						}
					],
					"internalType": "struct KrnlPayload",
					"name": "krnlPayload",
					"type": "tuple"
				},
				{
					"internalType": "address",
					"name": "user",
					"type": "address"
				}
			],
			"name": "applyKernelAllocation",
			"outputs": [
				{
					"internalType": "uint8",
					"name": "allocation",
					"type": "uint8"
				}
			],
			"stateMutability": "nonpayable",
			"type": "function"
		},
		{
			"inputs": [
				{
					"internalType": "address",
					"name": "user",
					"type": "address"
				},
				{
					"internalType": "uint8",
					"name": "minAllocation",
					"type": "uint8"
				},
				{
					"internalType": "uint8",
					"name": "maxAllocation",
					"type": "uint8"
				},
				{
					"internalType": "bool",
					"name": "active",
					"type": "bool"
				}
			],
			"name": "configureUserStrategy",
			"outputs": [],
			"stateMutability": "nonpayable",
			"type": "function"
		},
		{
			"inputs": [],
			"name": "defaultStrategy",
			"outputs": [
				{
					"internalType": "uint8",
					"name": "minAllocation",
					"type": "uint8"
				},
				{
					"internalType": "uint8",
					"name": "maxAllocation",
					"type": "uint8"
				},
				{
					"internalType": "bool",
					"name": "active",
					"type": "bool"
				}
			],
			"stateMutability": "view",
			"type": "function"
		},
		{
			"inputs": [
				{
					"internalType": "address",
					"name": "user",
					"type": "address"
				},
				{
					"internalType": "uint256",
					"name": "totalAmount",
					"type": "uint256"
				}
			],
			"name": "distributeTokens",
			"outputs": [
				{
					"internalType": "uint256",
					"name": "distributedAmount",
					"type": "uint256"
				}
			],
			"stateMutability": "nonpayable",
			"type": "function"
		},
		{
			"inputs": [
				{
					"components": [
						{
							"internalType": "bytes",
							"name": "auth",
							"type": "bytes"
						},
						{
							"internalType": "bytes",
							"name": "kernelResponses",
							"type": "bytes"
						},
						{
							"internalType": "bytes",
							"name": "kernelParams",
							"type": "bytes"
						}
					],
					"internalType": "struct KrnlPayload",
					"name": "krnlPayload",
					"type": "tuple"
				},
				{
					"internalType": "address",
					"name": "user",
					"type": "address"
				},
				{
					"internalType": "uint256",
					"name": "totalAmount",
					"type": "uint256"
				}
			],
			"name": "distributeTokensWithKernel",
			"outputs": [
				{
					"internalType": "uint256",
					"name": "distributedAmount",
					"type": "uint256"
				}
			],
			"stateMutability": "nonpayable",
			"type": "function"
		},
		{
			"inputs": [
				{
					"internalType": "bytes",
					"name": "",
					"type": "bytes"
				}
			],
			"name": "executed",
			"outputs": [
				{
					"internalType": "bool",
					"name": "",
					"type": "bool"
				}
			],
			"stateMutability": "view",
			"type": "function"
		},
		{
			"inputs": [
				{
					"internalType": "address",
					"name": "user",
					"type": "address"
				}
			],
			"name": "getUserAllocation",
			"outputs": [
				{
					"internalType": "uint8",
					"name": "allocation",
					"type": "uint8"
				}
			],
			"stateMutability": "view",
			"type": "function"
		},
		{
			"inputs": [
				{
					"internalType": "address",
					"name": "user",
					"type": "address"
				},
				{
					"internalType": "uint256",
					"name": "index",
					"type": "uint256"
				}
			],
			"name": "getUserAllocationHistory",
			"outputs": [
				{
					"internalType": "uint8",
					"name": "allocation",
					"type": "uint8"
				},
				{
					"internalType": "uint256",
					"name": "amount",
					"type": "uint256"
				},
				{
					"internalType": "uint256",
					"name": "timestamp",
					"type": "uint256"
				}
			],
			"stateMutability": "view",
			"type": "function"
		},
		{
			"inputs": [
				{
					"internalType": "address",
					"name": "user",
					"type": "address"
				}
			],
			"name": "getUserAllocationHistoryCount",
			"outputs": [
				{
					"internalType": "uint256",
					"name": "count",
					"type": "uint256"
				}
			],
			"stateMutability": "view",
			"type": "function"
		},
		{
			"inputs": [
				{
					"internalType": "address",
					"name": "user",
					"type": "address"
				}
			],
			"name": "getUserStrategy",
			"outputs": [
				{
					"internalType": "uint8",
					"name": "minAllocation",
					"type": "uint8"
				},
				{
					"internalType": "uint8",
					"name": "maxAllocation",
					"type": "uint8"
				},
				{
					"internalType": "bool",
					"name": "active",
					"type": "bool"
				}
			],
			"stateMutability": "view",
			"type": "function"
		},
		{
			"inputs": [],
			"name": "owner",
			"outputs": [
				{
					"internalType": "address",
					"name": "",
					"type": "address"
				}
			],
			"stateMutability": "view",
			"type": "function"
		},
		{
			"inputs": [],
			"name": "renounceOwnership",
			"outputs": [],
			"stateMutability": "nonpayable",
			"type": "function"
		},
		{
			"inputs": [
				{
					"internalType": "address",
					"name": "_tokenAllocationKernel",
					"type": "address"
				}
			],
			"name": "setTokenAllocationKernel",
			"outputs": [],
			"stateMutability": "nonpayable",
			"type": "function"
		},
		{
			"inputs": [
				{
					"internalType": "address",
					"name": "_tokenAuthority",
					"type": "address"
				}
			],
			"name": "setTokenAuthority",
			"outputs": [],
			"stateMutability": "nonpayable",
			"type": "function"
		},
		{
			"inputs": [
				{
					"internalType": "address",
					"name": "_tokenAuthorityPublicKey",
					"type": "address"
				}
			],
			"name": "setTokenAuthorityPublicKey",
			"outputs": [],
			"stateMutability": "nonpayable",
			"type": "function"
		},
		{
			"inputs": [],
			"name": "tokenAllocationKernel",
			"outputs": [
				{
					"internalType": "contract TokenAllocationKernel",
					"name": "",
					"type": "address"
				}
			],
			"stateMutability": "view",
			"type": "function"
		},
		{
			"inputs": [],
			"name": "tokenAuthority",
			"outputs": [
				{
					"internalType": "contract StudyTokenAuthority",
					"name": "",
					"type": "address"
				}
			],
			"stateMutability": "view",
			"type": "function"
		},
		{
			"inputs": [],
			"name": "tokenAuthorityPublicKey",
			"outputs": [
				{
					"internalType": "address",
					"name": "",
					"type": "address"
				}
			],
			"stateMutability": "view",
			"type": "function"
		},
		{
			"inputs": [
				{
					"internalType": "address",
					"name": "newAdmin",
					"type": "address"
				}
			],
			"name": "transferAdmin",
			"outputs": [],
			"stateMutability": "nonpayable",
			"type": "function"
		},
		{
			"inputs": [
				{
					"internalType": "address",
					"name": "newOwner",
					"type": "address"
				}
			],
			"name": "transferOwnership",
			"outputs": [],
			"stateMutability": "nonpayable",
			"type": "function"
		},
		{
			"inputs": [
				{
					"internalType": "uint8",
					"name": "minAllocation",
					"type": "uint8"
				},
				{
					"internalType": "uint8",
					"name": "maxAllocation",
					"type": "uint8"
				}
			],
			"name": "updateDefaultStrategy",
			"outputs": [],
			"stateMutability": "nonpayable",
			"type": "function"
		},
		{
			"inputs": [
				{
					"internalType": "address",
					"name": "",
					"type": "address"
				}
			],
			"name": "userStrategies",
			"outputs": [
				{
					"internalType": "uint8",
					"name": "minAllocation",
					"type": "uint8"
				},
				{
					"internalType": "uint8",
					"name": "maxAllocation",
					"type": "uint8"
				},
				{
					"internalType": "bool",
					"name": "active",
					"type": "bool"
				}
			],
			"stateMutability": "view",
			"type": "function"
		}
	]
}