{
	"data": {
		"bytecode": {
			"linkReferences": {},
			"object": "608034620001eb57601f6200197538819003918201601f1916830191906001600160401b03831184841017620001ef578160809285926040958652833981010312620001eb57620000508262000203565b916200005f6020820162000203565b9060606200006f84830162000203565b9101516001600160a01b03948516949092908515620001d4575f54928160018060a01b03199388858716175f558882895197167f8be0079c531659141344cd1fd0a4f28419497f9722a3daafe3b4186f6b6457e05f80a3603261ffff19600854161760085516938415620001925750169182156200014e57816001541617600155818160035416176003556002541617600255600655815f526004602052805f20600160ff1982541617905551907f8983a1f3c3cb45c24c8226b5b805e3b6eb49686530b808534b2a920129eff6515f80a261175c9081620002198239f35b845162461bcd60e51b815260206004820152601660248201527f496e76616c6964206b65726e656c2061646472657373000000000000000000006044820152606490fd5b62461bcd60e51b815260206004820152601560248201527f496e76616c696420746f6b656e206164647265737300000000000000000000006044820152606490fd5b8451631e4fbdf760e01b81525f6004820152602490fd5b5f80fd5b634e487b7160e01b5f52604160045260245ffd5b51906001600160a01b0382168203620001eb5756fe604060808152600480361015610013575f80fd5b5f3560e01c908163177c49a714610b6757816317a08ca614610b35578163207cbfa214610aef578163360cf54a14610ab85781633e6968b614610a9957816341196faf14610a415781634aea318e146109d457816359fe2da4146109b3578163612b53321461098e57816367561d93146108ca5781636dffcd001461082f5781636e861c0e14610779578163715018a61461072257816373173a35146106fa57816377865f91146106d557816388616538146106575781638da5cb5b14610630578163a7481b5b14610608578163b09a8a04146105bc578163b187bd2614610596578163b6fa284d14610556578163b8db8ca8146104a3578163bebbcfe614610484578163bedb86fb1461041e578163c76b088814610400578163d3893b47146103bc578163d4aae0c414610394578163d5b9221b1461035a578163d8817cd41461031c578163ea0d5dcd14610298578163ec37d2591461026c578163f2fde38b146101e4575063f64d219014610188575f80fd5b346101e0576101a660809161019c36610cdb565b81839592956111f6565b916101c560ff6101be81806008541696168097610fb2565b0492611674565b82111592815194808652101560208501528301526060820152f35b5f80fd5b9050346101e05760203660031901126101e0576101ff610bd7565b906102086116bb565b6001600160a01b039182169283156102565750505f54826001600160601b0360a01b8216175f55167f8be0079c531659141344cd1fd0a4f28419497f9722a3daafe3b4186f6b6457e05f80a3005b905f6024925191631e4fbdf760e01b8352820152fd5b82346101e05760203660031901126101e05760209061029161028c610bd7565b611674565b9051908152f35b82346101e05760203660031901126101e0576080906102b5610bd7565b6102be816113b5565b9160018060a01b0382165f526007602052805f206201518042045f526020526102ea815f205492611674565b9060ff60085460081c16159283610312575b8151948552602085015283015215156060820152f35b82151593506102fc565b82346101e05760209061035161033136610cdb565b9161033a6116bb565b61034c60ff60085460081c1615610f71565b6113dc565b90519015158152f35b82346101e05760203660031901126101e0576020916001600160a01b0361037f610bd7565b165f52825260ff815f20541690519015158152f35b82346101e0575f3660031901126101e05760025490516001600160a01b039091168152602090f35b82346101e05760203660031901126101e0576020906001600160a01b036103e1610bd7565b165f5260078252805f206201518042045f528252805f20549051908152f35b82346101e0575f3660031901126101e0576020906006549051908152f35b9050346101e05760203660031901126101e05735908115158092036101e0577fef37df9624f797913e7585c7f7b5d004ba6704be3c64b0561c157728ccc869859160209161046a6116bb565b6008805461ff00191683821b61ff001617905551908152a1005b346101e05760203660031901126101e05761049d6116bb565b35600655005b82346101e05760203660031901126101e057813560ff81168091036101e0576104ca6116bb565b60ff8111610513577f2dcd482f94838c55db1e931fa73dc7acd9b385d4a501a9b5a6210f8ae89a372b9250600854908060ff1983161760085560ff8351921682526020820152a1005b815162461bcd60e51b8152602081850152601860248201527f5468726573686f6c64206d757374206265203c3d2032353500000000000000006044820152606490fd5b82346101e057806003193601126101e0576020906001600160a01b0361057a610bd7565b165f5260078252805f206024355f528252805f20549051908152f35b82346101e0575f3660031901126101e05760209060ff60085460081c1690519015158152f35b346101e05760203660031901126101e0576105d5610bd7565b6105dd6116bb565b6001600160a01b03166105f1811515610d21565b6001600160601b0360a01b60015416176001555f80f35b82346101e0575f3660031901126101e05760015490516001600160a01b039091168152602090f35b82346101e0575f3660031901126101e0575f5490516001600160a01b039091168152602090f35b346101e05760203660031901126101e057610670610bd7565b6106786116bb565b6001600160a01b039081169061068f821515610d21565b600354826001600160601b0360a01b81818416176003556002541617600255167f03cab297d17e50b1fab60fc2a2b1117f96c766e15cac2988ecb7ec1abb578cfc5f80a3005b82346101e05760203660031901126101e0576020906102916106f5610bd7565b6113b5565b82346101e0575f3660031901126101e05760035490516001600160a01b039091168152602090f35b346101e0575f3660031901126101e05761073a6116bb565b5f80546001600160a01b0319811682556001600160a01b03167f8be0079c531659141344cd1fd0a4f28419497f9722a3daafe3b4186f6b6457e08280a3005b82346101e05760203660031901126101e057610793610bd7565b61079b6116bb565b60018060a01b031691825f528060205260ff825f205416156107ed57825f526020525f2060ff1981541690557f54142b7cb3ceaa9e564243ce4cc2303723c842a1144192de6b3c594f68b16a9a5f80a2005b6020606492519162461bcd60e51b8352820152601760248201527f436f6e7472616374206e6f7420617574686f72697a65640000000000000000006044820152fd5b82346101e05760803660031901126101e057610849610bd7565b916001600160a01b0390602435828116036101e0576064359367ffffffffffffffff85116101e0576108a26103519361088760209736908601610c85565b93335f52875260ff865f2054169081156108bd575b50610e17565b6108b460ff60085460081c1615610f71565b604435906112ba565b90505f541633148761089c565b82346101e05760203660031901126101e0576108e4610bd7565b6108ec6116bb565b6001600160a01b031691610901831515610d21565b825f528060205260ff825f20541661094c57825f526020525f20600160ff198254161790557f8983a1f3c3cb45c24c8226b5b805e3b6eb49686530b808534b2a920129eff6515f80a2005b6020606492519162461bcd60e51b8352820152601b60248201527f436f6e747261637420616c726561647920617574686f72697a656400000000006044820152fd5b82346101e05760209060ff6109ab6109a536610cdb565b916111f6565b915191168152f35b82346101e0575f3660031901126101e05760209060ff600854169051908152f35b9050346101e057610a20906109e836610cdb565b92919091335f5260205260ff855f2054168015610a2e575b610a0990610e17565b610a1b60ff60085460081c1615610f71565b610fc5565b825191151582526020820152f35b505f546001600160a01b03163314610a00565b82346101e057806003193601126101e057610351602092610a60610bd7565b90335f52845260ff835f2054168015610a86575b610a7d90610e17565b60243590610e84565b505f546001600160a01b03163314610a74565b82346101e0575f3660031901126101e057602090516201518042048152f35b82346101e05760203660031901126101e0576020906001600160a01b03610add610bd7565b165f5260058252805f20549051908152f35b82346101e057806003193601126101e057610b31610b17610b0e610bd7565b60243590610d5f565b839291925193849315158452806020850152830190610c0e565b0390f35b9050346101e05760203660031901126101e057359060ff82168092036101e05760209160ff6008541611159051908152f35b82346101e057806003193601126101e0577fc1395320bc4a9778acf4621c40f54fdde0fafa6177d8012972fca4ec8f7cfa366020610ba3610bd7565b60243590610baf6116bb565b6001600160a01b031693610bc4851515610d21565b845f526005835281815f205551908152a2005b600435906001600160a01b03821682036101e057565b5f5b838110610bfe5750505f910152565b8181015183820152602001610bef565b90602091610c2781518092818552858086019101610bed565b601f01601f1916010190565b6040810190811067ffffffffffffffff821117610c4f57604052565b634e487b7160e01b5f52604160045260245ffd5b90601f8019910116810190811067ffffffffffffffff821117610c4f57604052565b81601f820112156101e05780359067ffffffffffffffff8211610c4f5760405192610cba601f8401601f191660200185610c63565b828452602083830101116101e057815f926020809301838601378301015290565b60606003198201126101e0576004356001600160a01b03811681036101e05791602435916044359067ffffffffffffffff82116101e057610d1e91600401610c85565b90565b15610d2857565b60405162461bcd60e51b815260206004820152600f60248201526e496e76616c6964206164647265737360881b6044820152606490fd5b60ff60085460081c16610de557610d7590611674565b10610daa57600190604051610d8981610c33565b601181527013dc195c985d1a5bdb88185b1b1bddd959607a1b602082015290565b5f90604051610db881610c33565b601881527f496e73756666696369656e74206461696c79206c696d69740000000000000000602082015290565b50505f90604051610df581610c33565b601281527110dbdb9d1c9858dd081a5cc81c185d5cd95960721b602082015290565b15610e1e57565b60405162461bcd60e51b815260206004820152601760248201527f4e6f7420617574686f72697a656420636f6e74726163740000000000000000006044820152606490fd5b91908201809211610e7057565b634e487b7160e01b5f52601160045260245ffd5b9062015180420491610e95816113b5565b9060018060a01b031692835f526007602052604091825f20825f52602052825f205490610ec28583610e63565b11610f23576080928492610ee65f8051602061170783398151915296600a94610e63565b90875f526007602052825f20905f52602052815f20558051928352806020840152820152690e6d2dae0d8ca82eae8d60b31b6060820152a2600190565b5050519081526040602082018190526014908201527311185a5b1e481b1a5b5a5d08195e18d95959195960621b60608201525f805160206116e78339815191529080608081015b0390a25f90565b15610f7857565b60405162461bcd60e51b815260206004820152601260248201527110dbdb9d1c9858dd081a5cc81c185d5cd95960721b6044820152606490fd5b81810292918115918404141715610e7057565b9291610fd29082856111f6565b6040805183815260ff831660208201526001600160a01b038616939192919084907f3c283d7e03a97a156e197b47f06233e89e2566b40ce1603619839627e0ea827a908590a260ff8060085416921691821061110e5760ff9161103491610fb2565b0493611045620151804204916113b5565b835f526007602052825f20825f52602052825f2054906110658783610e63565b116110c15791608091611086875f8051602061170783398151915295610e63565b90855f526007602052825f20905f52602052815f20556004815191878352806020840152820152631b5a5b9d60e21b6060820152a260019190565b5050519283526040602084018190526014908401527311185a5b1e481b1a5b5a5d08195e18d95959195960621b606084015290915f805160206116e783398151915290608090a25f905f90565b90505f805160206116e78339815191529293945060228260a093519283528060208401528201527f416c6c6f636174696f6e2062656c6f77206d696e696d756d207468726573686f6060820152611b1960f21b6080820152a25f905f90565b5f9060033d1161117957565b905060045f803e5f5160e01c90565b5f60443d10610d1e57604051600319913d83016004833e815167ffffffffffffffff918282113d6024840111176111e5578184019485519384116111ed573d850101602084870101116111e55750610d1e92910160200190610c63565b949350505050565b50949350505050565b6002546040516374b9e5b160e01b81526001600160a01b03928316600482015260248101939093526060604484015291926020928492169082908190611240906064830190610c0e565b03915afa5f918161127c575b50610d1e575061125a61116d565b6308c379a014611268575f90565b611270611188565b611278575f90565b5f90565b9091506020813d6020116112b2575b8161129860209383610c63565b810103126101e0575160ff811681036101e057905f61124c565b3d915061128b565b916112c69082846111f6565b6040805183815260ff831660208201526001600160a01b03949094169390919084907f3c283d7e03a97a156e197b47f06233e89e2566b40ce1603619839627e0ea827a908490a260ff8060085416911610611354575f805160206117078339815191529160088260809351928352806020840152820152673a3930b739b332b960c11b6060820152a2600190565b5f805160206116e783398151915291602b8260a093519283528060208401528201527f5472616e7366657220616c6c6f636174696f6e2062656c6f77206d696e696d7560608201526a1b481d1a1c995cda1bdb1960aa1b6080820152a25f90565b6001600160a01b03165f9081526005602052604090205480156113d55790565b5060065490565b916113e89082846111f6565b6040805183815260ff831660208201526001600160a01b039485169491929085907f3c283d7e03a97a156e197b47f06233e89e2566b40ce1603619839627e0ea827a908590a260ff806008541691169081106116155761144c60ff915f9495610fb2565b04906001541692805193634d24848760e11b85528560048601528260248601528460448160209687945af15f94816115dd575b5061154e575f805160206116e7833981519152935061149c61116d565b6308c379a0146114e4575b8080608094601a93519485528401528201527f4d696e74206661696c65643a20556e6b6e6f776e206572726f720000000000006060820152a25f90565b6114ec611188565b806114f757506114a7565b8161153b602d610f6a945180946c026b4b73a103330b4b632b21d1609d1b8983015261152b815180928b8686019101610bed565b810103600d810185520183610c63565b8080519586958652850152830190610c0e565b9190925f146115915791600a82805f80516020611707833981519152956080955194855284015282015269191a5c9958dd135a5b9d60b21b6060820152a2600190565b91601b82805f805160206116e783398151915295608095519485528401528201527f4d696e74206661696c65643a2072657475726e65642066616c736500000000006060820152a25f90565b9094508381813d831161160e575b6115f58183610c63565b810103126101e0575180151581036101e057935f61147f565b503d6115eb565b50505f805160206116e78339815191529160278260a093519283528060208401528201527f4d696e7420616c6c6f636174696f6e2062656c6f77206d696e696d756d2074686060820152661c995cda1bdb1960ca1b6080820152a25f90565b60018060a01b0381165f52600760205260405f206201518042045f526020526116a160405f2054916113b5565b908181106116af5750505f90565b8103908111610e705790565b5f546001600160a01b031633036116ce57565b60405163118cdaa760e01b8152336004820152602490fdfe36e690c5f80da3f9da10e957f42fac89e3fde772861ffe24e95169aedda4e8bf09e7e318d9fde6f0e5cbb2418a50245c2063ce96946e2711c38e9c2b3127e9b3a2646970667358221220c7efff7c1ceaf82489345f71c2ec2f33c9d010e0aaeff1225d4e8de70d53200164736f6c63430008180033",
			"opcodes": "PUSH1 0x80 CALLVALUE PUSH3 0x1EB JUMPI PUSH1 0x1F PUSH3 0x1975 CODESIZE DUP2 SWAP1 SUB SWAP2 DUP3 ADD PUSH1 0x1F NOT AND DUP4 ADD SWAP2 SWAP1 PUSH1 0x1 PUSH1 0x1 PUSH1 0x40 SHL SUB DUP4 GT DUP5 DUP5 LT OR PUSH3 0x1EF JUMPI DUP2 PUSH1 0x80 SWAP3 DUP6 SWAP3 PUSH1 0x40 SWAP6 DUP7 MSTORE DUP4 CODECOPY DUP2 ADD SUB SLT PUSH3 0x1EB JUMPI PUSH3 0x50 DUP3 PUSH3 0x203 JUMP JUMPDEST SWAP2 PUSH3 0x5F PUSH1 0x20 DUP3 ADD PUSH3 0x203 JUMP JUMPDEST SWAP1 PUSH1 0x60 PUSH3 0x6F DUP5 DUP4 ADD PUSH3 0x203 JUMP JUMPDEST SWAP2 ADD MLOAD PUSH1 0x1 PUSH1 0x1 PUSH1 0xA0 SHL SUB SWAP5 DUP6 AND SWAP5 SWAP1 SWAP3 SWAP1 DUP6 ISZERO PUSH3 0x1D4 JUMPI PUSH0 SLOAD SWAP3 DUP2 PUSH1 0x1 DUP1 PUSH1 0xA0 SHL SUB NOT SWAP4 DUP9 DUP6 DUP8 AND OR PUSH0 SSTORE DUP9 DUP3 DUP10 MLOAD SWAP8 AND PUSH32 0x8BE0079C531659141344CD1FD0A4F28419497F9722A3DAAFE3B4186F6B6457E0 PUSH0 DUP1 LOG3 PUSH1 0x32 PUSH2 0xFFFF NOT PUSH1 0x8 SLOAD AND OR PUSH1 0x8 SSTORE AND SWAP4 DUP5 ISZERO PUSH3 0x192 JUMPI POP AND SWAP2 DUP3 ISZERO PUSH3 0x14E JUMPI DUP2 PUSH1 0x1 SLOAD AND OR PUSH1 0x1 SSTORE DUP2 DUP2 PUSH1 0x3 SLOAD AND OR PUSH1 0x3 SSTORE PUSH1 0x2 SLOAD AND OR PUSH1 0x2 SSTORE PUSH1 0x6 SSTORE DUP2 PUSH0 MSTORE PUSH1 0x4 PUSH1 0x20 MSTORE DUP1 PUSH0 KECCAK256 PUSH1 0x1 PUSH1 0xFF NOT DUP3 SLOAD AND OR SWAP1 SSTORE MLOAD SWAP1 PUSH32 0x8983A1F3C3CB45C24C8226B5B805E3B6EB49686530B808534B2A920129EFF651 PUSH0 DUP1 LOG2 PUSH2 0x175C SWAP1 DUP2 PUSH3 0x219 DUP3 CODECOPY RETURN JUMPDEST DUP5 MLOAD PUSH3 0x461BCD PUSH1 0xE5 SHL DUP2 MSTORE PUSH1 0x20 PUSH1 0x4 DUP3 ADD MSTORE PUSH1 0x16 PUSH1 0x24 DUP3 ADD MSTORE PUSH32 0x496E76616C6964206B65726E656C206164647265737300000000000000000000 PUSH1 0x44 DUP3 ADD MSTORE PUSH1 0x64 SWAP1 REVERT JUMPDEST PUSH3 0x461BCD PUSH1 0xE5 SHL DUP2 MSTORE PUSH1 0x20 PUSH1 0x4 DUP3 ADD MSTORE PUSH1 0x15 PUSH1 0x24 DUP3 ADD MSTORE PUSH32 0x496E76616C696420746F6B656E20616464726573730000000000000000000000 PUSH1 0x44 DUP3 ADD MSTORE PUSH1 0x64 SWAP1 REVERT JUMPDEST DUP5 MLOAD PUSH4 0x1E4FBDF7 PUSH1 0xE0 SHL DUP2 MSTORE PUSH0 PUSH1 0x4 DUP3 ADD MSTORE PUSH1 0x24 SWAP1 REVERT JUMPDEST PUSH0 DUP1 REVERT JUMPDEST PUSH4 0x4E487B71 PUSH1 0xE0 SHL PUSH0 MSTORE PUSH1 0x41 PUSH1 0x4 MSTORE PUSH1 0x24 PUSH0 REVERT JUMPDEST MLOAD SWAP1 PUSH1 0x1 PUSH1 0x1 PUSH1 0xA0 SHL SUB DUP3 AND DUP3 SUB PUSH3 0x1EB JUMPI JUMP INVALID PUSH1 0x40 PUSH1 0x80 DUP2 MSTORE PUSH1 0x4 DUP1 CALLDATASIZE LT ISZERO PUSH2 0x13 JUMPI PUSH0 DUP1 REVERT JUMPDEST PUSH0 CALLDATALOAD PUSH1 0xE0 SHR SWAP1 DUP2 PUSH4 0x177C49A7 EQ PUSH2 0xB67 JUMPI DUP2 PUSH4 0x17A08CA6 EQ PUSH2 0xB35 JUMPI DUP2 PUSH4 0x207CBFA2 EQ PUSH2 0xAEF JUMPI DUP2 PUSH4 0x360CF54A EQ PUSH2 0xAB8 JUMPI DUP2 PUSH4 0x3E6968B6 EQ PUSH2 0xA99 JUMPI DUP2 PUSH4 0x41196FAF EQ PUSH2 0xA41 JUMPI DUP2 PUSH4 0x4AEA318E EQ PUSH2 0x9D4 JUMPI DUP2 PUSH4 0x59FE2DA4 EQ PUSH2 0x9B3 JUMPI DUP2 PUSH4 0x612B5332 EQ PUSH2 0x98E JUMPI DUP2 PUSH4 0x67561D93 EQ PUSH2 0x8CA JUMPI DUP2 PUSH4 0x6DFFCD00 EQ PUSH2 0x82F JUMPI DUP2 PUSH4 0x6E861C0E EQ PUSH2 0x779 JUMPI DUP2 PUSH4 0x715018A6 EQ PUSH2 0x722 JUMPI DUP2 PUSH4 0x73173A35 EQ PUSH2 0x6FA JUMPI DUP2 PUSH4 0x77865F91 EQ PUSH2 0x6D5 JUMPI DUP2 PUSH4 0x88616538 EQ PUSH2 0x657 JUMPI DUP2 PUSH4 0x8DA5CB5B EQ PUSH2 0x630 JUMPI DUP2 PUSH4 0xA7481B5B EQ PUSH2 0x608 JUMPI DUP2 PUSH4 0xB09A8A04 EQ PUSH2 0x5BC JUMPI DUP2 PUSH4 0xB187BD26 EQ PUSH2 0x596 JUMPI DUP2 PUSH4 0xB6FA284D EQ PUSH2 0x556 JUMPI DUP2 PUSH4 0xB8DB8CA8 EQ PUSH2 0x4A3 JUMPI DUP2 PUSH4 0xBEBBCFE6 EQ PUSH2 0x484 JUMPI DUP2 PUSH4 0xBEDB86FB EQ PUSH2 0x41E JUMPI DUP2 PUSH4 0xC76B0888 EQ PUSH2 0x400 JUMPI DUP2 PUSH4 0xD3893B47 EQ PUSH2 0x3BC JUMPI DUP2 PUSH4 0xD4AAE0C4 EQ PUSH2 0x394 JUMPI DUP2 PUSH4 0xD5B9221B EQ PUSH2 0x35A JUMPI DUP2 PUSH4 0xD8817CD4 EQ PUSH2 0x31C JUMPI DUP2 PUSH4 0xEA0D5DCD EQ PUSH2 0x298 JUMPI DUP2 PUSH4 0xEC37D259 EQ PUSH2 0x26C JUMPI DUP2 PUSH4 0xF2FDE38B EQ PUSH2 0x1E4 JUMPI POP PUSH4 0xF64D2190 EQ PUSH2 0x188 JUMPI PUSH0 DUP1 REVERT JUMPDEST CALLVALUE PUSH2 0x1E0 JUMPI PUSH2 0x1A6 PUSH1 0x80 SWAP2 PUSH2 0x19C CALLDATASIZE PUSH2 0xCDB JUMP JUMPDEST DUP2 DUP4 SWAP6 SWAP3 SWAP6 PUSH2 0x11F6 JUMP JUMPDEST SWAP2 PUSH2 0x1C5 PUSH1 0xFF PUSH2 0x1BE DUP2 DUP1 PUSH1 0x8 SLOAD AND SWAP7 AND DUP1 SWAP8 PUSH2 0xFB2 JUMP JUMPDEST DIV SWAP3 PUSH2 0x1674 JUMP JUMPDEST DUP3 GT ISZERO SWAP3 DUP2 MLOAD SWAP5 DUP1 DUP7 MSTORE LT ISZERO PUSH1 0x20 DUP6 ADD MSTORE DUP4 ADD MSTORE PUSH1 0x60 DUP3 ADD MSTORE RETURN JUMPDEST PUSH0 DUP1 REVERT JUMPDEST SWAP1 POP CALLVALUE PUSH2 0x1E0 JUMPI PUSH1 0x20 CALLDATASIZE PUSH1 0x3 NOT ADD SLT PUSH2 0x1E0 JUMPI PUSH2 0x1FF PUSH2 0xBD7 JUMP JUMPDEST SWAP1 PUSH2 0x208 PUSH2 0x16BB JUMP JUMPDEST PUSH1 0x1 PUSH1 0x1 PUSH1 0xA0 SHL SUB SWAP2 DUP3 AND SWAP3 DUP4 ISZERO PUSH2 0x256 JUMPI POP POP PUSH0 SLOAD DUP3 PUSH1 0x1 PUSH1 0x1 PUSH1 0x60 SHL SUB PUSH1 0xA0 SHL DUP3 AND OR PUSH0 SSTORE AND PUSH32 0x8BE0079C531659141344CD1FD0A4F28419497F9722A3DAAFE3B4186F6B6457E0 PUSH0 DUP1 LOG3 STOP JUMPDEST SWAP1 PUSH0 PUSH1 0x24 SWAP3 MLOAD SWAP2 PUSH4 0x1E4FBDF7 PUSH1 0xE0 SHL DUP4 MSTORE DUP3 ADD MSTORE REVERT JUMPDEST DUP3 CALLVALUE PUSH2 0x1E0 JUMPI PUSH1 0x20 CALLDATASIZE PUSH1 0x3 NOT ADD SLT PUSH2 0x1E0 JUMPI PUSH1 0x20 SWAP1 PUSH2 0x291 PUSH2 0x28C PUSH2 0xBD7 JUMP JUMPDEST PUSH2 0x1674 JUMP JUMPDEST SWAP1 MLOAD SWAP1 DUP2 MSTORE RETURN JUMPDEST DUP3 CALLVALUE PUSH2 0x1E0 JUMPI PUSH1 0x20 CALLDATASIZE PUSH1 0x3 NOT ADD SLT PUSH2 0x1E0 JUMPI PUSH1 0x80 SWAP1 PUSH2 0x2B5 PUSH2 0xBD7 JUMP JUMPDEST PUSH2 0x2BE DUP2 PUSH2 0x13B5 JUMP JUMPDEST SWAP2 PUSH1 0x1 DUP1 PUSH1 0xA0 SHL SUB DUP3 AND PUSH0 MSTORE PUSH1 0x7 PUSH1 0x20 MSTORE DUP1 PUSH0 KECCAK256 PUSH3 0x15180 TIMESTAMP DIV PUSH0 MSTORE PUSH1 0x20 MSTORE PUSH2 0x2EA DUP2 PUSH0 KECCAK256 SLOAD SWAP3 PUSH2 0x1674 JUMP JUMPDEST SWAP1 PUSH1 0xFF PUSH1 0x8 SLOAD PUSH1 0x8 SHR AND ISZERO SWAP3 DUP4 PUSH2 0x312 JUMPI JUMPDEST DUP2 MLOAD SWAP5 DUP6 MSTORE PUSH1 0x20 DUP6 ADD MSTORE DUP4 ADD MSTORE ISZERO ISZERO PUSH1 0x60 DUP3 ADD MSTORE RETURN JUMPDEST DUP3 ISZERO ISZERO SWAP4 POP PUSH2 0x2FC JUMP JUMPDEST DUP3 CALLVALUE PUSH2 0x1E0 JUMPI PUSH1 0x20 SWAP1 PUSH2 0x351 PUSH2 0x331 CALLDATASIZE PUSH2 0xCDB JUMP JUMPDEST SWAP2 PUSH2 0x33A PUSH2 0x16BB JUMP JUMPDEST PUSH2 0x34C PUSH1 0xFF PUSH1 0x8 SLOAD PUSH1 0x8 SHR AND ISZERO PUSH2 0xF71 JUMP JUMPDEST PUSH2 0x13DC JUMP JUMPDEST SWAP1 MLOAD SWAP1 ISZERO ISZERO DUP2 MSTORE RETURN JUMPDEST DUP3 CALLVALUE PUSH2 0x1E0 JUMPI PUSH1 0x20 CALLDATASIZE PUSH1 0x3 NOT ADD SLT PUSH2 0x1E0 JUMPI PUSH1 0x20 SWAP2 PUSH1 0x1 PUSH1 0x1 PUSH1 0xA0 SHL SUB PUSH2 0x37F PUSH2 0xBD7 JUMP JUMPDEST AND PUSH0 MSTORE DUP3 MSTORE PUSH1 0xFF DUP2 PUSH0 KECCAK256 SLOAD AND SWAP1 MLOAD SWAP1 ISZERO ISZERO DUP2 MSTORE RETURN JUMPDEST DUP3 CALLVALUE PUSH2 0x1E0 JUMPI PUSH0 CALLDATASIZE PUSH1 0x3 NOT ADD SLT PUSH2 0x1E0 JUMPI PUSH1 0x2 SLOAD SWAP1 MLOAD PUSH1 0x1 PUSH1 0x1 PUSH1 0xA0 SHL SUB SWAP1 SWAP2 AND DUP2 MSTORE PUSH1 0x20 SWAP1 RETURN JUMPDEST DUP3 CALLVALUE PUSH2 0x1E0 JUMPI PUSH1 0x20 CALLDATASIZE PUSH1 0x3 NOT ADD SLT PUSH2 0x1E0 JUMPI PUSH1 0x20 SWAP1 PUSH1 0x1 PUSH1 0x1 PUSH1 0xA0 SHL SUB PUSH2 0x3E1 PUSH2 0xBD7 JUMP JUMPDEST AND PUSH0 MSTORE PUSH1 0x7 DUP3 MSTORE DUP1 PUSH0 KECCAK256 PUSH3 0x15180 TIMESTAMP DIV PUSH0 MSTORE DUP3 MSTORE DUP1 PUSH0 KECCAK256 SLOAD SWAP1 MLOAD SWAP1 DUP2 MSTORE RETURN JUMPDEST DUP3 CALLVALUE PUSH2 0x1E0 JUMPI PUSH0 CALLDATASIZE PUSH1 0x3 NOT ADD SLT PUSH2 0x1E0 JUMPI PUSH1 0x20 SWAP1 PUSH1 0x6 SLOAD SWAP1 MLOAD SWAP1 DUP2 MSTORE RETURN JUMPDEST SWAP1 POP CALLVALUE PUSH2 0x1E0 JUMPI PUSH1 0x20 CALLDATASIZE PUSH1 0x3 NOT ADD SLT PUSH2 0x1E0 JUMPI CALLDATALOAD SWAP1 DUP2 ISZERO ISZERO DUP1 SWAP3 SUB PUSH2 0x1E0 JUMPI PUSH32 0xEF37DF9624F797913E7585C7F7B5D004BA6704BE3C64B0561C157728CCC86985 SWAP2 PUSH1 0x20 SWAP2 PUSH2 0x46A PUSH2 0x16BB JUMP JUMPDEST PUSH1 0x8 DUP1 SLOAD PUSH2 0xFF00 NOT AND DUP4 DUP3 SHL PUSH2 0xFF00 AND OR SWAP1 SSTORE MLOAD SWAP1 DUP2 MSTORE LOG1 STOP JUMPDEST CALLVALUE PUSH2 0x1E0 JUMPI PUSH1 0x20 CALLDATASIZE PUSH1 0x3 NOT ADD SLT PUSH2 0x1E0 JUMPI PUSH2 0x49D PUSH2 0x16BB JUMP JUMPDEST CALLDATALOAD PUSH1 0x6 SSTORE STOP JUMPDEST DUP3 CALLVALUE PUSH2 0x1E0 JUMPI PUSH1 0x20 CALLDATASIZE PUSH1 0x3 NOT ADD SLT PUSH2 0x1E0 JUMPI DUP2 CALLDATALOAD PUSH1 0xFF DUP2 AND DUP1 SWAP2 SUB PUSH2 0x1E0 JUMPI PUSH2 0x4CA PUSH2 0x16BB JUMP JUMPDEST PUSH1 0xFF DUP2 GT PUSH2 0x513 JUMPI PUSH32 0x2DCD482F94838C55DB1E931FA73DC7ACD9B385D4A501A9B5A6210F8AE89A372B SWAP3 POP PUSH1 0x8 SLOAD SWAP1 DUP1 PUSH1 0xFF NOT DUP4 AND OR PUSH1 0x8 SSTORE PUSH1 0xFF DUP4 MLOAD SWAP3 AND DUP3 MSTORE PUSH1 0x20 DUP3 ADD MSTORE LOG1 STOP JUMPDEST DUP2 MLOAD PUSH3 0x461BCD PUSH1 0xE5 SHL DUP2 MSTORE PUSH1 0x20 DUP2 DUP6 ADD MSTORE PUSH1 0x18 PUSH1 0x24 DUP3 ADD MSTORE PUSH32 0x5468726573686F6C64206D757374206265203C3D203235350000000000000000 PUSH1 0x44 DUP3 ADD MSTORE PUSH1 0x64 SWAP1 REVERT JUMPDEST DUP3 CALLVALUE PUSH2 0x1E0 JUMPI DUP1 PUSH1 0x3 NOT CALLDATASIZE ADD SLT PUSH2 0x1E0 JUMPI PUSH1 0x20 SWAP1 PUSH1 0x1 PUSH1 0x1 PUSH1 0xA0 SHL SUB PUSH2 0x57A PUSH2 0xBD7 JUMP JUMPDEST AND PUSH0 MSTORE PUSH1 0x7 DUP3 MSTORE DUP1 PUSH0 KECCAK256 PUSH1 0x24 CALLDATALOAD PUSH0 MSTORE DUP3 MSTORE DUP1 PUSH0 KECCAK256 SLOAD SWAP1 MLOAD SWAP1 DUP2 MSTORE RETURN JUMPDEST DUP3 CALLVALUE PUSH2 0x1E0 JUMPI PUSH0 CALLDATASIZE PUSH1 0x3 NOT ADD SLT PUSH2 0x1E0 JUMPI PUSH1 0x20 SWAP1 PUSH1 0xFF PUSH1 0x8 SLOAD PUSH1 0x8 SHR AND SWAP1 MLOAD SWAP1 ISZERO ISZERO DUP2 MSTORE RETURN JUMPDEST CALLVALUE PUSH2 0x1E0 JUMPI PUSH1 0x20 CALLDATASIZE PUSH1 0x3 NOT ADD SLT PUSH2 0x1E0 JUMPI PUSH2 0x5D5 PUSH2 0xBD7 JUMP JUMPDEST PUSH2 0x5DD PUSH2 0x16BB JUMP JUMPDEST PUSH1 0x1 PUSH1 0x1 PUSH1 0xA0 SHL SUB AND PUSH2 0x5F1 DUP2 ISZERO ISZERO PUSH2 0xD21 JUMP JUMPDEST PUSH1 0x1 PUSH1 0x1 PUSH1 0x60 SHL SUB PUSH1 0xA0 SHL PUSH1 0x1 SLOAD AND OR PUSH1 0x1 SSTORE PUSH0 DUP1 RETURN JUMPDEST DUP3 CALLVALUE PUSH2 0x1E0 JUMPI PUSH0 CALLDATASIZE PUSH1 0x3 NOT ADD SLT PUSH2 0x1E0 JUMPI PUSH1 0x1 SLOAD SWAP1 MLOAD PUSH1 0x1 PUSH1 0x1 PUSH1 0xA0 SHL SUB SWAP1 SWAP2 AND DUP2 MSTORE PUSH1 0x20 SWAP1 RETURN JUMPDEST DUP3 CALLVALUE PUSH2 0x1E0 JUMPI PUSH0 CALLDATASIZE PUSH1 0x3 NOT ADD SLT PUSH2 0x1E0 JUMPI PUSH0 SLOAD SWAP1 MLOAD PUSH1 0x1 PUSH1 0x1 PUSH1 0xA0 SHL SUB SWAP1 SWAP2 AND DUP2 MSTORE PUSH1 0x20 SWAP1 RETURN JUMPDEST CALLVALUE PUSH2 0x1E0 JUMPI PUSH1 0x20 CALLDATASIZE PUSH1 0x3 NOT ADD SLT PUSH2 0x1E0 JUMPI PUSH2 0x670 PUSH2 0xBD7 JUMP JUMPDEST PUSH2 0x678 PUSH2 0x16BB JUMP JUMPDEST PUSH1 0x1 PUSH1 0x1 PUSH1 0xA0 SHL SUB SWAP1 DUP2 AND SWAP1 PUSH2 0x68F DUP3 ISZERO ISZERO PUSH2 0xD21 JUMP JUMPDEST PUSH1 0x3 SLOAD DUP3 PUSH1 0x1 PUSH1 0x1 PUSH1 0x60 SHL SUB PUSH1 0xA0 SHL DUP2 DUP2 DUP5 AND OR PUSH1 0x3 SSTORE PUSH1 0x2 SLOAD AND OR PUSH1 0x2 SSTORE AND PUSH32 0x3CAB297D17E50B1FAB60FC2A2B1117F96C766E15CAC2988ECB7EC1ABB578CFC PUSH0 DUP1 LOG3 STOP JUMPDEST DUP3 CALLVALUE PUSH2 0x1E0 JUMPI PUSH1 0x20 CALLDATASIZE PUSH1 0x3 NOT ADD SLT PUSH2 0x1E0 JUMPI PUSH1 0x20 SWAP1 PUSH2 0x291 PUSH2 0x6F5 PUSH2 0xBD7 JUMP JUMPDEST PUSH2 0x13B5 JUMP JUMPDEST DUP3 CALLVALUE PUSH2 0x1E0 JUMPI PUSH0 CALLDATASIZE PUSH1 0x3 NOT ADD SLT PUSH2 0x1E0 JUMPI PUSH1 0x3 SLOAD SWAP1 MLOAD PUSH1 0x1 PUSH1 0x1 PUSH1 0xA0 SHL SUB SWAP1 SWAP2 AND DUP2 MSTORE PUSH1 0x20 SWAP1 RETURN JUMPDEST CALLVALUE PUSH2 0x1E0 JUMPI PUSH0 CALLDATASIZE PUSH1 0x3 NOT ADD SLT PUSH2 0x1E0 JUMPI PUSH2 0x73A PUSH2 0x16BB JUMP JUMPDEST PUSH0 DUP1 SLOAD PUSH1 0x1 PUSH1 0x1 PUSH1 0xA0 SHL SUB NOT DUP2 AND DUP3 SSTORE PUSH1 0x1 PUSH1 0x1 PUSH1 0xA0 SHL SUB AND PUSH32 0x8BE0079C531659141344CD1FD0A4F28419497F9722A3DAAFE3B4186F6B6457E0 DUP3 DUP1 LOG3 STOP JUMPDEST DUP3 CALLVALUE PUSH2 0x1E0 JUMPI PUSH1 0x20 CALLDATASIZE PUSH1 0x3 NOT ADD SLT PUSH2 0x1E0 JUMPI PUSH2 0x793 PUSH2 0xBD7 JUMP JUMPDEST PUSH2 0x79B PUSH2 0x16BB JUMP JUMPDEST PUSH1 0x1 DUP1 PUSH1 0xA0 SHL SUB AND SWAP2 DUP3 PUSH0 MSTORE DUP1 PUSH1 0x20 MSTORE PUSH1 0xFF DUP3 PUSH0 KECCAK256 SLOAD AND ISZERO PUSH2 0x7ED JUMPI DUP3 PUSH0 MSTORE PUSH1 0x20 MSTORE PUSH0 KECCAK256 PUSH1 0xFF NOT DUP2 SLOAD AND SWAP1 SSTORE PUSH32 0x54142B7CB3CEAA9E564243CE4CC2303723C842A1144192DE6B3C594F68B16A9A PUSH0 DUP1 LOG2 STOP JUMPDEST PUSH1 0x20 PUSH1 0x64 SWAP3 MLOAD SWAP2 PUSH3 0x461BCD PUSH1 0xE5 SHL DUP4 MSTORE DUP3 ADD MSTORE PUSH1 0x17 PUSH1 0x24 DUP3 ADD MSTORE PUSH32 0x436F6E7472616374206E6F7420617574686F72697A6564000000000000000000 PUSH1 0x44 DUP3 ADD MSTORE REVERT JUMPDEST DUP3 CALLVALUE PUSH2 0x1E0 JUMPI PUSH1 0x80 CALLDATASIZE PUSH1 0x3 NOT ADD SLT PUSH2 0x1E0 JUMPI PUSH2 0x849 PUSH2 0xBD7 JUMP JUMPDEST SWAP2 PUSH1 0x1 PUSH1 0x1 PUSH1 0xA0 SHL SUB SWAP1 PUSH1 0x24 CALLDATALOAD DUP3 DUP2 AND SUB PUSH2 0x1E0 JUMPI PUSH1 0x64 CALLDATALOAD SWAP4 PUSH8 0xFFFFFFFFFFFFFFFF DUP6 GT PUSH2 0x1E0 JUMPI PUSH2 0x8A2 PUSH2 0x351 SWAP4 PUSH2 0x887 PUSH1 0x20 SWAP8 CALLDATASIZE SWAP1 DUP7 ADD PUSH2 0xC85 JUMP JUMPDEST SWAP4 CALLER PUSH0 MSTORE DUP8 MSTORE PUSH1 0xFF DUP7 PUSH0 KECCAK256 SLOAD AND SWAP1 DUP2 ISZERO PUSH2 0x8BD JUMPI JUMPDEST POP PUSH2 0xE17 JUMP JUMPDEST PUSH2 0x8B4 PUSH1 0xFF PUSH1 0x8 SLOAD PUSH1 0x8 SHR AND ISZERO PUSH2 0xF71 JUMP JUMPDEST PUSH1 0x44 CALLDATALOAD SWAP1 PUSH2 0x12BA JUMP JUMPDEST SWAP1 POP PUSH0 SLOAD AND CALLER EQ DUP8 PUSH2 0x89C JUMP JUMPDEST DUP3 CALLVALUE PUSH2 0x1E0 JUMPI PUSH1 0x20 CALLDATASIZE PUSH1 0x3 NOT ADD SLT PUSH2 0x1E0 JUMPI PUSH2 0x8E4 PUSH2 0xBD7 JUMP JUMPDEST PUSH2 0x8EC PUSH2 0x16BB JUMP JUMPDEST PUSH1 0x1 PUSH1 0x1 PUSH1 0xA0 SHL SUB AND SWAP2 PUSH2 0x901 DUP4 ISZERO ISZERO PUSH2 0xD21 JUMP JUMPDEST DUP3 PUSH0 MSTORE DUP1 PUSH1 0x20 MSTORE PUSH1 0xFF DUP3 PUSH0 KECCAK256 SLOAD AND PUSH2 0x94C JUMPI DUP3 PUSH0 MSTORE PUSH1 0x20 MSTORE PUSH0 KECCAK256 PUSH1 0x1 PUSH1 0xFF NOT DUP3 SLOAD AND OR SWAP1 SSTORE PUSH32 0x8983A1F3C3CB45C24C8226B5B805E3B6EB49686530B808534B2A920129EFF651 PUSH0 DUP1 LOG2 STOP JUMPDEST PUSH1 0x20 PUSH1 0x64 SWAP3 MLOAD SWAP2 PUSH3 0x461BCD PUSH1 0xE5 SHL DUP4 MSTORE DUP3 ADD MSTORE PUSH1 0x1B PUSH1 0x24 DUP3 ADD MSTORE PUSH32 0x436F6E747261637420616C726561647920617574686F72697A65640000000000 PUSH1 0x44 DUP3 ADD MSTORE REVERT JUMPDEST DUP3 CALLVALUE PUSH2 0x1E0 JUMPI PUSH1 0x20 SWAP1 PUSH1 0xFF PUSH2 0x9AB PUSH2 0x9A5 CALLDATASIZE PUSH2 0xCDB JUMP JUMPDEST SWAP2 PUSH2 0x11F6 JUMP JUMPDEST SWAP2 MLOAD SWAP2 AND DUP2 MSTORE RETURN JUMPDEST DUP3 CALLVALUE PUSH2 0x1E0 JUMPI PUSH0 CALLDATASIZE PUSH1 0x3 NOT ADD SLT PUSH2 0x1E0 JUMPI PUSH1 0x20 SWAP1 PUSH1 0xFF PUSH1 0x8 SLOAD AND SWAP1 MLOAD SWAP1 DUP2 MSTORE RETURN JUMPDEST SWAP1 POP CALLVALUE PUSH2 0x1E0 JUMPI PUSH2 0xA20 SWAP1 PUSH2 0x9E8 CALLDATASIZE PUSH2 0xCDB JUMP JUMPDEST SWAP3 SWAP2 SWAP1 SWAP2 CALLER PUSH0 MSTORE PUSH1 0x20 MSTORE PUSH1 0xFF DUP6 PUSH0 KECCAK256 SLOAD AND DUP1 ISZERO PUSH2 0xA2E JUMPI JUMPDEST PUSH2 0xA09 SWAP1 PUSH2 0xE17 JUMP JUMPDEST PUSH2 0xA1B PUSH1 0xFF PUSH1 0x8 SLOAD PUSH1 0x8 SHR AND ISZERO PUSH2 0xF71 JUMP JUMPDEST PUSH2 0xFC5 JUMP JUMPDEST DUP3 MLOAD SWAP2 ISZERO ISZERO DUP3 MSTORE PUSH1 0x20 DUP3 ADD MSTORE RETURN JUMPDEST POP PUSH0 SLOAD PUSH1 0x1 PUSH1 0x1 PUSH1 0xA0 SHL SUB AND CALLER EQ PUSH2 0xA00 JUMP JUMPDEST DUP3 CALLVALUE PUSH2 0x1E0 JUMPI DUP1 PUSH1 0x3 NOT CALLDATASIZE ADD SLT PUSH2 0x1E0 JUMPI PUSH2 0x351 PUSH1 0x20 SWAP3 PUSH2 0xA60 PUSH2 0xBD7 JUMP JUMPDEST SWAP1 CALLER PUSH0 MSTORE DUP5 MSTORE PUSH1 0xFF DUP4 PUSH0 KECCAK256 SLOAD AND DUP1 ISZERO PUSH2 0xA86 JUMPI JUMPDEST PUSH2 0xA7D SWAP1 PUSH2 0xE17 JUMP JUMPDEST PUSH1 0x24 CALLDATALOAD SWAP1 PUSH2 0xE84 JUMP JUMPDEST POP PUSH0 SLOAD PUSH1 0x1 PUSH1 0x1 PUSH1 0xA0 SHL SUB AND CALLER EQ PUSH2 0xA74 JUMP JUMPDEST DUP3 CALLVALUE PUSH2 0x1E0 JUMPI PUSH0 CALLDATASIZE PUSH1 0x3 NOT ADD SLT PUSH2 0x1E0 JUMPI PUSH1 0x20 SWAP1 MLOAD PUSH3 0x15180 TIMESTAMP DIV DUP2 MSTORE RETURN JUMPDEST DUP3 CALLVALUE PUSH2 0x1E0 JUMPI PUSH1 0x20 CALLDATASIZE PUSH1 0x3 NOT ADD SLT PUSH2 0x1E0 JUMPI PUSH1 0x20 SWAP1 PUSH1 0x1 PUSH1 0x1 PUSH1 0xA0 SHL SUB PUSH2 0xADD PUSH2 0xBD7 JUMP JUMPDEST AND PUSH0 MSTORE PUSH1 0x5 DUP3 MSTORE DUP1 PUSH0 KECCAK256 SLOAD SWAP1 MLOAD SWAP1 DUP2 MSTORE RETURN JUMPDEST DUP3 CALLVALUE PUSH2 0x1E0 JUMPI DUP1 PUSH1 0x3 NOT CALLDATASIZE ADD SLT PUSH2 0x1E0 JUMPI PUSH2 0xB31 PUSH2 0xB17 PUSH2 0xB0E PUSH2 0xBD7 JUMP JUMPDEST PUSH1 0x24 CALLDATALOAD SWAP1 PUSH2 0xD5F JUMP JUMPDEST DUP4 SWAP3 SWAP2 SWAP3 MLOAD SWAP4 DUP5 SWAP4 ISZERO ISZERO DUP5 MSTORE DUP1 PUSH1 0x20 DUP6 ADD MSTORE DUP4 ADD SWAP1 PUSH2 0xC0E JUMP JUMPDEST SUB SWAP1 RETURN JUMPDEST SWAP1 POP CALLVALUE PUSH2 0x1E0 JUMPI PUSH1 0x20 CALLDATASIZE PUSH1 0x3 NOT ADD SLT PUSH2 0x1E0 JUMPI CALLDATALOAD SWAP1 PUSH1 0xFF DUP3 AND DUP1 SWAP3 SUB PUSH2 0x1E0 JUMPI PUSH1 0x20 SWAP2 PUSH1 0xFF PUSH1 0x8 SLOAD AND GT ISZERO SWAP1 MLOAD SWAP1 DUP2 MSTORE RETURN JUMPDEST DUP3 CALLVALUE PUSH2 0x1E0 JUMPI DUP1 PUSH1 0x3 NOT CALLDATASIZE ADD SLT PUSH2 0x1E0 JUMPI PUSH32 0xC1395320BC4A9778ACF4621C40F54FDDE0FAFA6177D8012972FCA4EC8F7CFA36 PUSH1 0x20 PUSH2 0xBA3 PUSH2 0xBD7 JUMP JUMPDEST PUSH1 0x24 CALLDATALOAD SWAP1 PUSH2 0xBAF PUSH2 0x16BB JUMP JUMPDEST PUSH1 0x1 PUSH1 0x1 PUSH1 0xA0 SHL SUB AND SWAP4 PUSH2 0xBC4 DUP6 ISZERO ISZERO PUSH2 0xD21 JUMP JUMPDEST DUP5 PUSH0 MSTORE PUSH1 0x5 DUP4 MSTORE DUP2 DUP2 PUSH0 KECCAK256 SSTORE MLOAD SWAP1 DUP2 MSTORE LOG2 STOP JUMPDEST PUSH1 0x4 CALLDATALOAD SWAP1 PUSH1 0x1 PUSH1 0x1 PUSH1 0xA0 SHL SUB DUP3 AND DUP3 SUB PUSH2 0x1E0 JUMPI JUMP JUMPDEST PUSH0 JUMPDEST DUP4 DUP2 LT PUSH2 0xBFE JUMPI POP POP PUSH0 SWAP2 ADD MSTORE JUMP JUMPDEST DUP2 DUP2 ADD MLOAD DUP4 DUP3 ADD MSTORE PUSH1 0x20 ADD PUSH2 0xBEF JUMP JUMPDEST SWAP1 PUSH1 0x20 SWAP2 PUSH2 0xC27 DUP2 MLOAD DUP1 SWAP3 DUP2 DUP6 MSTORE DUP6 DUP1 DUP7 ADD SWAP2 ADD PUSH2 0xBED JUMP JUMPDEST PUSH1 0x1F ADD PUSH1 0x1F NOT AND ADD ADD SWAP1 JUMP JUMPDEST PUSH1 0x40 DUP2 ADD SWAP1 DUP2 LT PUSH8 0xFFFFFFFFFFFFFFFF DUP3 GT OR PUSH2 0xC4F JUMPI PUSH1 0x40 MSTORE JUMP JUMPDEST PUSH4 0x4E487B71 PUSH1 0xE0 SHL PUSH0 MSTORE PUSH1 0x41 PUSH1 0x4 MSTORE PUSH1 0x24 PUSH0 REVERT JUMPDEST SWAP1 PUSH1 0x1F DUP1 NOT SWAP2 ADD AND DUP2 ADD SWAP1 DUP2 LT PUSH8 0xFFFFFFFFFFFFFFFF DUP3 GT OR PUSH2 0xC4F JUMPI PUSH1 0x40 MSTORE JUMP JUMPDEST DUP2 PUSH1 0x1F DUP3 ADD SLT ISZERO PUSH2 0x1E0 JUMPI DUP1 CALLDATALOAD SWAP1 PUSH8 0xFFFFFFFFFFFFFFFF DUP3 GT PUSH2 0xC4F JUMPI PUSH1 0x40 MLOAD SWAP3 PUSH2 0xCBA PUSH1 0x1F DUP5 ADD PUSH1 0x1F NOT AND PUSH1 0x20 ADD DUP6 PUSH2 0xC63 JUMP JUMPDEST DUP3 DUP5 MSTORE PUSH1 0x20 DUP4 DUP4 ADD ADD GT PUSH2 0x1E0 JUMPI DUP2 PUSH0 SWAP3 PUSH1 0x20 DUP1 SWAP4 ADD DUP4 DUP7 ADD CALLDATACOPY DUP4 ADD ADD MSTORE SWAP1 JUMP JUMPDEST PUSH1 0x60 PUSH1 0x3 NOT DUP3 ADD SLT PUSH2 0x1E0 JUMPI PUSH1 0x4 CALLDATALOAD PUSH1 0x1 PUSH1 0x1 PUSH1 0xA0 SHL SUB DUP2 AND DUP2 SUB PUSH2 0x1E0 JUMPI SWAP2 PUSH1 0x24 CALLDATALOAD SWAP2 PUSH1 0x44 CALLDATALOAD SWAP1 PUSH8 0xFFFFFFFFFFFFFFFF DUP3 GT PUSH2 0x1E0 JUMPI PUSH2 0xD1E SWAP2 PUSH1 0x4 ADD PUSH2 0xC85 JUMP JUMPDEST SWAP1 JUMP JUMPDEST ISZERO PUSH2 0xD28 JUMPI JUMP JUMPDEST PUSH1 0x40 MLOAD PUSH3 0x461BCD PUSH1 0xE5 SHL DUP2 MSTORE PUSH1 0x20 PUSH1 0x4 DUP3 ADD MSTORE PUSH1 0xF PUSH1 0x24 DUP3 ADD MSTORE PUSH15 0x496E76616C69642061646472657373 PUSH1 0x88 SHL PUSH1 0x44 DUP3 ADD MSTORE PUSH1 0x64 SWAP1 REVERT JUMPDEST PUSH1 0xFF PUSH1 0x8 SLOAD PUSH1 0x8 SHR AND PUSH2 0xDE5 JUMPI PUSH2 0xD75 SWAP1 PUSH2 0x1674 JUMP JUMPDEST LT PUSH2 0xDAA JUMPI PUSH1 0x1 SWAP1 PUSH1 0x40 MLOAD PUSH2 0xD89 DUP2 PUSH2 0xC33 JUMP JUMPDEST PUSH1 0x11 DUP2 MSTORE PUSH17 0x13DC195C985D1A5BDB88185B1B1BDDD959 PUSH1 0x7A SHL PUSH1 0x20 DUP3 ADD MSTORE SWAP1 JUMP JUMPDEST PUSH0 SWAP1 PUSH1 0x40 MLOAD PUSH2 0xDB8 DUP2 PUSH2 0xC33 JUMP JUMPDEST PUSH1 0x18 DUP2 MSTORE PUSH32 0x496E73756666696369656E74206461696C79206C696D69740000000000000000 PUSH1 0x20 DUP3 ADD MSTORE SWAP1 JUMP JUMPDEST POP POP PUSH0 SWAP1 PUSH1 0x40 MLOAD PUSH2 0xDF5 DUP2 PUSH2 0xC33 JUMP JUMPDEST PUSH1 0x12 DUP2 MSTORE PUSH18 0x10DBDB9D1C9858DD081A5CC81C185D5CD959 PUSH1 0x72 SHL PUSH1 0x20 DUP3 ADD MSTORE SWAP1 JUMP JUMPDEST ISZERO PUSH2 0xE1E JUMPI JUMP JUMPDEST PUSH1 0x40 MLOAD PUSH3 0x461BCD PUSH1 0xE5 SHL DUP2 MSTORE PUSH1 0x20 PUSH1 0x4 DUP3 ADD MSTORE PUSH1 0x17 PUSH1 0x24 DUP3 ADD MSTORE PUSH32 0x4E6F7420617574686F72697A656420636F6E7472616374000000000000000000 PUSH1 0x44 DUP3 ADD MSTORE PUSH1 0x64 SWAP1 REVERT JUMPDEST SWAP2 SWAP1 DUP3 ADD DUP1 SWAP3 GT PUSH2 0xE70 JUMPI JUMP JUMPDEST PUSH4 0x4E487B71 PUSH1 0xE0 SHL PUSH0 MSTORE PUSH1 0x11 PUSH1 0x4 MSTORE PUSH1 0x24 PUSH0 REVERT JUMPDEST SWAP1 PUSH3 0x15180 TIMESTAMP DIV SWAP2 PUSH2 0xE95 DUP2 PUSH2 0x13B5 JUMP JUMPDEST SWAP1 PUSH1 0x1 DUP1 PUSH1 0xA0 SHL SUB AND SWAP3 DUP4 PUSH0 MSTORE PUSH1 0x7 PUSH1 0x20 MSTORE PUSH1 0x40 SWAP2 DUP3 PUSH0 KECCAK256 DUP3 PUSH0 MSTORE PUSH1 0x20 MSTORE DUP3 PUSH0 KECCAK256 SLOAD SWAP1 PUSH2 0xEC2 DUP6 DUP4 PUSH2 0xE63 JUMP JUMPDEST GT PUSH2 0xF23 JUMPI PUSH1 0x80 SWAP3 DUP5 SWAP3 PUSH2 0xEE6 PUSH0 DUP1 MLOAD PUSH1 0x20 PUSH2 0x1707 DUP4 CODECOPY DUP2 MLOAD SWAP2 MSTORE SWAP7 PUSH1 0xA SWAP5 PUSH2 0xE63 JUMP JUMPDEST SWAP1 DUP8 PUSH0 MSTORE PUSH1 0x7 PUSH1 0x20 MSTORE DUP3 PUSH0 KECCAK256 SWAP1 PUSH0 MSTORE PUSH1 0x20 MSTORE DUP2 PUSH0 KECCAK256 SSTORE DUP1 MLOAD SWAP3 DUP4 MSTORE DUP1 PUSH1 0x20 DUP5 ADD MSTORE DUP3 ADD MSTORE PUSH10 0xE6D2DAE0D8CA82EAE8D PUSH1 0xB3 SHL PUSH1 0x60 DUP3 ADD MSTORE LOG2 PUSH1 0x1 SWAP1 JUMP JUMPDEST POP POP MLOAD SWAP1 DUP2 MSTORE PUSH1 0x40 PUSH1 0x20 DUP3 ADD DUP2 SWAP1 MSTORE PUSH1 0x14 SWAP1 DUP3 ADD MSTORE PUSH20 0x11185A5B1E481B1A5B5A5D08195E18D959591959 PUSH1 0x62 SHL PUSH1 0x60 DUP3 ADD MSTORE PUSH0 DUP1 MLOAD PUSH1 0x20 PUSH2 0x16E7 DUP4 CODECOPY DUP2 MLOAD SWAP2 MSTORE SWAP1 DUP1 PUSH1 0x80 DUP2 ADD JUMPDEST SUB SWAP1 LOG2 PUSH0 SWAP1 JUMP JUMPDEST ISZERO PUSH2 0xF78 JUMPI JUMP JUMPDEST PUSH1 0x40 MLOAD PUSH3 0x461BCD PUSH1 0xE5 SHL DUP2 MSTORE PUSH1 0x20 PUSH1 0x4 DUP3 ADD MSTORE PUSH1 0x12 PUSH1 0x24 DUP3 ADD MSTORE PUSH18 0x10DBDB9D1C9858DD081A5CC81C185D5CD959 PUSH1 0x72 SHL PUSH1 0x44 DUP3 ADD MSTORE PUSH1 0x64 SWAP1 REVERT JUMPDEST DUP2 DUP2 MUL SWAP3 SWAP2 DUP2 ISZERO SWAP2 DUP5 DIV EQ OR ISZERO PUSH2 0xE70 JUMPI JUMP JUMPDEST SWAP3 SWAP2 PUSH2 0xFD2 SWAP1 DUP3 DUP6 PUSH2 0x11F6 JUMP JUMPDEST PUSH1 0x40 DUP1 MLOAD DUP4 DUP2 MSTORE PUSH1 0xFF DUP4 AND PUSH1 0x20 DUP3 ADD MSTORE PUSH1 0x1 PUSH1 0x1 PUSH1 0xA0 SHL SUB DUP7 AND SWAP4 SWAP2 SWAP3 SWAP2 SWAP1 DUP5 SWAP1 PUSH32 0x3C283D7E03A97A156E197B47F06233E89E2566B40CE1603619839627E0EA827A SWAP1 DUP6 SWAP1 LOG2 PUSH1 0xFF DUP1 PUSH1 0x8 SLOAD AND SWAP3 AND SWAP2 DUP3 LT PUSH2 0x110E JUMPI PUSH1 0xFF SWAP2 PUSH2 0x1034 SWAP2 PUSH2 0xFB2 JUMP JUMPDEST DIV SWAP4 PUSH2 0x1045 PUSH3 0x15180 TIMESTAMP DIV SWAP2 PUSH2 0x13B5 JUMP JUMPDEST DUP4 PUSH0 MSTORE PUSH1 0x7 PUSH1 0x20 MSTORE DUP3 PUSH0 KECCAK256 DUP3 PUSH0 MSTORE PUSH1 0x20 MSTORE DUP3 PUSH0 KECCAK256 SLOAD SWAP1 PUSH2 0x1065 DUP8 DUP4 PUSH2 0xE63 JUMP JUMPDEST GT PUSH2 0x10C1 JUMPI SWAP2 PUSH1 0x80 SWAP2 PUSH2 0x1086 DUP8 PUSH0 DUP1 MLOAD PUSH1 0x20 PUSH2 0x1707 DUP4 CODECOPY DUP2 MLOAD SWAP2 MSTORE SWAP6 PUSH2 0xE63 JUMP JUMPDEST SWAP1 DUP6 PUSH0 MSTORE PUSH1 0x7 PUSH1 0x20 MSTORE DUP3 PUSH0 KECCAK256 SWAP1 PUSH0 MSTORE PUSH1 0x20 MSTORE DUP2 PUSH0 KECCAK256 SSTORE PUSH1 0x4 DUP2 MLOAD SWAP2 DUP8 DUP4 MSTORE DUP1 PUSH1 0x20 DUP5 ADD MSTORE DUP3 ADD MSTORE PUSH4 0x1B5A5B9D PUSH1 0xE2 SHL PUSH1 0x60 DUP3 ADD MSTORE LOG2 PUSH1 0x1 SWAP2 SWAP1 JUMP JUMPDEST POP POP MLOAD SWAP3 DUP4 MSTORE PUSH1 0x40 PUSH1 0x20 DUP5 ADD DUP2 SWAP1 MSTORE PUSH1 0x14 SWAP1 DUP5 ADD MSTORE PUSH20 0x11185A5B1E481B1A5B5A5D08195E18D959591959 PUSH1 0x62 SHL PUSH1 0x60 DUP5 ADD MSTORE SWAP1 SWAP2 PUSH0 DUP1 MLOAD PUSH1 0x20 PUSH2 0x16E7 DUP4 CODECOPY DUP2 MLOAD SWAP2 MSTORE SWAP1 PUSH1 0x80 SWAP1 LOG2 PUSH0 SWAP1 PUSH0 SWAP1 JUMP JUMPDEST SWAP1 POP PUSH0 DUP1 MLOAD PUSH1 0x20 PUSH2 0x16E7 DUP4 CODECOPY DUP2 MLOAD SWAP2 MSTORE SWAP3 SWAP4 SWAP5 POP PUSH1 0x22 DUP3 PUSH1 0xA0 SWAP4 MLOAD SWAP3 DUP4 MSTORE DUP1 PUSH1 0x20 DUP5 ADD MSTORE DUP3 ADD MSTORE PUSH32 0x416C6C6F636174696F6E2062656C6F77206D696E696D756D207468726573686F PUSH1 0x60 DUP3 ADD MSTORE PUSH2 0x1B19 PUSH1 0xF2 SHL PUSH1 0x80 DUP3 ADD MSTORE LOG2 PUSH0 SWAP1 PUSH0 SWAP1 JUMP JUMPDEST PUSH0 SWAP1 PUSH1 0x3 RETURNDATASIZE GT PUSH2 0x1179 JUMPI JUMP JUMPDEST SWAP1 POP PUSH1 0x4 PUSH0 DUP1 RETURNDATACOPY PUSH0 MLOAD PUSH1 0xE0 SHR SWAP1 JUMP JUMPDEST PUSH0 PUSH1 0x44 RETURNDATASIZE LT PUSH2 0xD1E JUMPI PUSH1 0x40 MLOAD PUSH1 0x3 NOT SWAP2 RETURNDATASIZE DUP4 ADD PUSH1 0x4 DUP4 RETURNDATACOPY DUP2 MLOAD PUSH8 0xFFFFFFFFFFFFFFFF SWAP2 DUP3 DUP3 GT RETURNDATASIZE PUSH1 0x24 DUP5 ADD GT OR PUSH2 0x11E5 JUMPI DUP2 DUP5 ADD SWAP5 DUP6 MLOAD SWAP4 DUP5 GT PUSH2 0x11ED JUMPI RETURNDATASIZE DUP6 ADD ADD PUSH1 0x20 DUP5 DUP8 ADD ADD GT PUSH2 0x11E5 JUMPI POP PUSH2 0xD1E SWAP3 SWAP2 ADD PUSH1 0x20 ADD SWAP1 PUSH2 0xC63 JUMP JUMPDEST SWAP5 SWAP4 POP POP POP POP JUMP JUMPDEST POP SWAP5 SWAP4 POP POP POP POP JUMP JUMPDEST PUSH1 0x2 SLOAD PUSH1 0x40 MLOAD PUSH4 0x74B9E5B1 PUSH1 0xE0 SHL DUP2 MSTORE PUSH1 0x1 PUSH1 0x1 PUSH1 0xA0 SHL SUB SWAP3 DUP4 AND PUSH1 0x4 DUP3 ADD MSTORE PUSH1 0x24 DUP2 ADD SWAP4 SWAP1 SWAP4 MSTORE PUSH1 0x60 PUSH1 0x44 DUP5 ADD MSTORE SWAP2 SWAP3 PUSH1 0x20 SWAP3 DUP5 SWAP3 AND SWAP1 DUP3 SWAP1 DUP2 SWAP1 PUSH2 0x1240 SWAP1 PUSH1 0x64 DUP4 ADD SWAP1 PUSH2 0xC0E JUMP JUMPDEST SUB SWAP2 GAS STATICCALL PUSH0 SWAP2 DUP2 PUSH2 0x127C JUMPI JUMPDEST POP PUSH2 0xD1E JUMPI POP PUSH2 0x125A PUSH2 0x116D JUMP JUMPDEST PUSH4 0x8C379A0 EQ PUSH2 0x1268 JUMPI PUSH0 SWAP1 JUMP JUMPDEST PUSH2 0x1270 PUSH2 0x1188 JUMP JUMPDEST PUSH2 0x1278 JUMPI PUSH0 SWAP1 JUMP JUMPDEST PUSH0 SWAP1 JUMP JUMPDEST SWAP1 SWAP2 POP PUSH1 0x20 DUP2 RETURNDATASIZE PUSH1 0x20 GT PUSH2 0x12B2 JUMPI JUMPDEST DUP2 PUSH2 0x1298 PUSH1 0x20 SWAP4 DUP4 PUSH2 0xC63 JUMP JUMPDEST DUP2 ADD SUB SLT PUSH2 0x1E0 JUMPI MLOAD PUSH1 0xFF DUP2 AND DUP2 SUB PUSH2 0x1E0 JUMPI SWAP1 PUSH0 PUSH2 0x124C JUMP JUMPDEST RETURNDATASIZE SWAP2 POP PUSH2 0x128B JUMP JUMPDEST SWAP2 PUSH2 0x12C6 SWAP1 DUP3 DUP5 PUSH2 0x11F6 JUMP JUMPDEST PUSH1 0x40 DUP1 MLOAD DUP4 DUP2 MSTORE PUSH1 0xFF DUP4 AND PUSH1 0x20 DUP3 ADD MSTORE PUSH1 0x1 PUSH1 0x1 PUSH1 0xA0 SHL SUB SWAP5 SWAP1 SWAP5 AND SWAP4 SWAP1 SWAP2 SWAP1 DUP5 SWAP1 PUSH32 0x3C283D7E03A97A156E197B47F06233E89E2566B40CE1603619839627E0EA827A SWAP1 DUP5 SWAP1 LOG2 PUSH1 0xFF DUP1 PUSH1 0x8 SLOAD AND SWAP2 AND LT PUSH2 0x1354 JUMPI PUSH0 DUP1 MLOAD PUSH1 0x20 PUSH2 0x1707 DUP4 CODECOPY DUP2 MLOAD SWAP2 MSTORE SWAP2 PUSH1 0x8 DUP3 PUSH1 0x80 SWAP4 MLOAD SWAP3 DUP4 MSTORE DUP1 PUSH1 0x20 DUP5 ADD MSTORE DUP3 ADD MSTORE PUSH8 0x3A3930B739B332B9 PUSH1 0xC1 SHL PUSH1 0x60 DUP3 ADD MSTORE LOG2 PUSH1 0x1 SWAP1 JUMP JUMPDEST PUSH0 DUP1 MLOAD PUSH1 0x20 PUSH2 0x16E7 DUP4 CODECOPY DUP2 MLOAD SWAP2 MSTORE SWAP2 PUSH1 0x2B DUP3 PUSH1 0xA0 SWAP4 MLOAD SWAP3 DUP4 MSTORE DUP1 PUSH1 0x20 DUP5 ADD MSTORE DUP3 ADD MSTORE PUSH32 0x5472616E7366657220616C6C6F636174696F6E2062656C6F77206D696E696D75 PUSH1 0x60 DUP3 ADD MSTORE PUSH11 0x1B481D1A1C995CDA1BDB19 PUSH1 0xAA SHL PUSH1 0x80 DUP3 ADD MSTORE LOG2 PUSH0 SWAP1 JUMP JUMPDEST PUSH1 0x1 PUSH1 0x1 PUSH1 0xA0 SHL SUB AND PUSH0 SWAP1 DUP2 MSTORE PUSH1 0x5 PUSH1 0x20 MSTORE PUSH1 0x40 SWAP1 KECCAK256 SLOAD DUP1 ISZERO PUSH2 0x13D5 JUMPI SWAP1 JUMP JUMPDEST POP PUSH1 0x6 SLOAD SWAP1 JUMP JUMPDEST SWAP2 PUSH2 0x13E8 SWAP1 DUP3 DUP5 PUSH2 0x11F6 JUMP JUMPDEST PUSH1 0x40 DUP1 MLOAD DUP4 DUP2 MSTORE PUSH1 0xFF DUP4 AND PUSH1 0x20 DUP3 ADD MSTORE PUSH1 0x1 PUSH1 0x1 PUSH1 0xA0 SHL SUB SWAP5 DUP6 AND SWAP5 SWAP2 SWAP3 SWAP1 DUP6 SWAP1 PUSH32 0x3C283D7E03A97A156E197B47F06233E89E2566B40CE1603619839627E0EA827A SWAP1 DUP6 SWAP1 LOG2 PUSH1 0xFF DUP1 PUSH1 0x8 SLOAD AND SWAP2 AND SWAP1 DUP2 LT PUSH2 0x1615 JUMPI PUSH2 0x144C PUSH1 0xFF SWAP2 PUSH0 SWAP5 SWAP6 PUSH2 0xFB2 JUMP JUMPDEST DIV SWAP1 PUSH1 0x1 SLOAD AND SWAP3 DUP1 MLOAD SWAP4 PUSH4 0x4D248487 PUSH1 0xE1 SHL DUP6 MSTORE DUP6 PUSH1 0x4 DUP7 ADD MSTORE DUP3 PUSH1 0x24 DUP7 ADD MSTORE DUP5 PUSH1 0x44 DUP2 PUSH1 0x20 SWAP7 DUP8 SWAP5 GAS CALL PUSH0 SWAP5 DUP2 PUSH2 0x15DD JUMPI JUMPDEST POP PUSH2 0x154E JUMPI PUSH0 DUP1 MLOAD PUSH1 0x20 PUSH2 0x16E7 DUP4 CODECOPY DUP2 MLOAD SWAP2 MSTORE SWAP4 POP PUSH2 0x149C PUSH2 0x116D JUMP JUMPDEST PUSH4 0x8C379A0 EQ PUSH2 0x14E4 JUMPI JUMPDEST DUP1 DUP1 PUSH1 0x80 SWAP5 PUSH1 0x1A SWAP4 MLOAD SWAP5 DUP6 MSTORE DUP5 ADD MSTORE DUP3 ADD MSTORE PUSH32 0x4D696E74206661696C65643A20556E6B6E6F776E206572726F72000000000000 PUSH1 0x60 DUP3 ADD MSTORE LOG2 PUSH0 SWAP1 JUMP JUMPDEST PUSH2 0x14EC PUSH2 0x1188 JUMP JUMPDEST DUP1 PUSH2 0x14F7 JUMPI POP PUSH2 0x14A7 JUMP JUMPDEST DUP2 PUSH2 0x153B PUSH1 0x2D PUSH2 0xF6A SWAP5 MLOAD DUP1 SWAP5 PUSH13 0x26B4B73A103330B4B632B21D1 PUSH1 0x9D SHL DUP10 DUP4 ADD MSTORE PUSH2 0x152B DUP2 MLOAD DUP1 SWAP3 DUP12 DUP7 DUP7 ADD SWAP2 ADD PUSH2 0xBED JUMP JUMPDEST DUP2 ADD SUB PUSH1 0xD DUP2 ADD DUP6 MSTORE ADD DUP4 PUSH2 0xC63 JUMP JUMPDEST DUP1 DUP1 MLOAD SWAP6 DUP7 SWAP6 DUP7 MSTORE DUP6 ADD MSTORE DUP4 ADD SWAP1 PUSH2 0xC0E JUMP JUMPDEST SWAP2 SWAP1 SWAP3 PUSH0 EQ PUSH2 0x1591 JUMPI SWAP2 PUSH1 0xA DUP3 DUP1 PUSH0 DUP1 MLOAD PUSH1 0x20 PUSH2 0x1707 DUP4 CODECOPY DUP2 MLOAD SWAP2 MSTORE SWAP6 PUSH1 0x80 SWAP6 MLOAD SWAP5 DUP6 MSTORE DUP5 ADD MSTORE DUP3 ADD MSTORE PUSH10 0x191A5C9958DD135A5B9D PUSH1 0xB2 SHL PUSH1 0x60 DUP3 ADD MSTORE LOG2 PUSH1 0x1 SWAP1 JUMP JUMPDEST SWAP2 PUSH1 0x1B DUP3 DUP1 PUSH0 DUP1 MLOAD PUSH1 0x20 PUSH2 0x16E7 DUP4 CODECOPY DUP2 MLOAD SWAP2 MSTORE SWAP6 PUSH1 0x80 SWAP6 MLOAD SWAP5 DUP6 MSTORE DUP5 ADD MSTORE DUP3 ADD MSTORE PUSH32 0x4D696E74206661696C65643A2072657475726E65642066616C73650000000000 PUSH1 0x60 DUP3 ADD MSTORE LOG2 PUSH0 SWAP1 JUMP JUMPDEST SWAP1 SWAP5 POP DUP4 DUP2 DUP2 RETURNDATASIZE DUP4 GT PUSH2 0x160E JUMPI JUMPDEST PUSH2 0x15F5 DUP2 DUP4 PUSH2 0xC63 JUMP JUMPDEST DUP2 ADD SUB SLT PUSH2 0x1E0 JUMPI MLOAD DUP1 ISZERO ISZERO DUP2 SUB PUSH2 0x1E0 JUMPI SWAP4 PUSH0 PUSH2 0x147F JUMP JUMPDEST POP RETURNDATASIZE PUSH2 0x15EB JUMP JUMPDEST POP POP PUSH0 DUP1 MLOAD PUSH1 0x20 PUSH2 0x16E7 DUP4 CODECOPY DUP2 MLOAD SWAP2 MSTORE SWAP2 PUSH1 0x27 DUP3 PUSH1 0xA0 SWAP4 MLOAD SWAP3 DUP4 MSTORE DUP1 PUSH1 0x20 DUP5 ADD MSTORE DUP3 ADD MSTORE PUSH32 0x4D696E7420616C6C6F636174696F6E2062656C6F77206D696E696D756D207468 PUSH1 0x60 DUP3 ADD MSTORE PUSH7 0x1C995CDA1BDB19 PUSH1 0xCA SHL PUSH1 0x80 DUP3 ADD MSTORE LOG2 PUSH0 SWAP1 JUMP JUMPDEST PUSH1 0x1 DUP1 PUSH1 0xA0 SHL SUB DUP2 AND PUSH0 MSTORE PUSH1 0x7 PUSH1 0x20 MSTORE PUSH1 0x40 PUSH0 KECCAK256 PUSH3 0x15180 TIMESTAMP DIV PUSH0 MSTORE PUSH1 0x20 MSTORE PUSH2 0x16A1 PUSH1 0x40 PUSH0 KECCAK256 SLOAD SWAP2 PUSH2 0x13B5 JUMP JUMPDEST SWAP1 DUP2 DUP2 LT PUSH2 0x16AF JUMPI POP POP PUSH0 SWAP1 JUMP JUMPDEST DUP2 SUB SWAP1 DUP2 GT PUSH2 0xE70 JUMPI SWAP1 JUMP JUMPDEST PUSH0 SLOAD PUSH1 0x1 PUSH1 0x1 PUSH1 0xA0 SHL SUB AND CALLER SUB PUSH2 0x16CE JUMPI JUMP JUMPDEST PUSH1 0x40 MLOAD PUSH4 0x118CDAA7 PUSH1 0xE0 SHL DUP2 MSTORE CALLER PUSH1 0x4 DUP3 ADD MSTORE PUSH1 0x24 SWAP1 REVERT INVALID CALLDATASIZE 0xE6 SWAP1 0xC5 0xF8 0xD LOG3 0xF9 0xDA LT 0xE9 JUMPI DELEGATECALL 0x2F 0xAC DUP10 0xE3 REVERT 0xE7 PUSH19 0x861FFE24E95169AEDDA4E8BF09E7E318D9FDE6 CREATE 0xE5 0xCB 0xB2 COINBASE DUP11 POP 0x24 TLOAD KECCAK256 PUSH4 0xCE96946E 0x27 GT 0xC3 DUP15 SWAP13 0x2B BALANCE 0x27 0xE9 0xB3 LOG2 PUSH5 0x6970667358 0x22 SLT KECCAK256 0xC7 0xEF SELFDESTRUCT PUSH29 0x1CEAF82489345F71C2EC2F33C9D010E0AAEFF1225D4E8DE70D53200164 PUSH20 0x6F6C634300081800330000000000000000000000 "
		},
		"gasEstimates": {
			"creation": {
				"codeDepositCost": "1196000",
				"executionCost": "infinite",
				"totalCost": "infinite"
			},
			"external": {
				"authorizeContract(address)": "30232",
				"authorizeMint(address,uint256,bytes)": "infinite",
				"authorizeSimple(address,uint256)": "infinite",
				"authorizeTransfer(address,address,uint256,bytes)": "infinite",
				"authorizedContracts(address)": "3016",
				"canUserOperate(address,uint256)": "infinite",
				"deauthorizeContract(address)": "30224",
				"defaultDailyLimit()": "2791",
				"getCurrentDay()": "252",
				"getKernelRecommendation(address,uint256,bytes)": "infinite",
				"getRemainingDailyLimit(address)": "7566",
				"getTodayUsage(address)": "3031",
				"getUserDailyLimit(address)": "4880",
				"getUserStatus(address)": "infinite",
				"isAllocationAcceptable(uint8)": "2337",
				"isPaused()": "2699",
				"kernel()": "2856",
				"kernelAddress()": "2570",
				"minimumAllocationThreshold()": "2423",
				"mintWithKernel(address,uint256,bytes)": "infinite",
				"owner()": "2635",
				"previewKernelRecommendation(address,uint256,bytes)": "infinite",
				"renounceOwnership()": "28315",
				"setDefaultDailyLimit(uint256)": "24883",
				"setKernelAddress(address)": "52740",
				"setMinimumAllocationThreshold(uint8)": "28356",
				"setPause(bool)": "28113",
				"setStudyToken(address)": "27067",
				"setUserDailyLimit(address,uint256)": "26020",
				"studyToken()": "2658",
				"transferOwnership(address)": "28854",
				"userDailyLimits(address)": "2479",
				"userDailyUsage(address,uint256)": "2917"
			}
		},
		"methodIdentifiers": {
			"authorizeContract(address)": "67561d93",
			"authorizeMint(address,uint256,bytes)": "4aea318e",
			"authorizeSimple(address,uint256)": "41196faf",
			"authorizeTransfer(address,address,uint256,bytes)": "6dffcd00",
			"authorizedContracts(address)": "d5b9221b",
			"canUserOperate(address,uint256)": "207cbfa2",
			"deauthorizeContract(address)": "6e861c0e",
			"defaultDailyLimit()": "c76b0888",
			"getCurrentDay()": "3e6968b6",
			"getKernelRecommendation(address,uint256,bytes)": "612b5332",
			"getRemainingDailyLimit(address)": "ec37d259",
			"getTodayUsage(address)": "d3893b47",
			"getUserDailyLimit(address)": "77865f91",
			"getUserStatus(address)": "ea0d5dcd",
			"isAllocationAcceptable(uint8)": "17a08ca6",
			"isPaused()": "b187bd26",
			"kernel()": "d4aae0c4",
			"kernelAddress()": "73173a35",
			"minimumAllocationThreshold()": "59fe2da4",
			"mintWithKernel(address,uint256,bytes)": "d8817cd4",
			"owner()": "8da5cb5b",
			"previewKernelRecommendation(address,uint256,bytes)": "f64d2190",
			"renounceOwnership()": "715018a6",
			"setDefaultDailyLimit(uint256)": "bebbcfe6",
			"setKernelAddress(address)": "88616538",
			"setMinimumAllocationThreshold(uint8)": "b8db8ca8",
			"setPause(bool)": "bedb86fb",
			"setStudyToken(address)": "b09a8a04",
			"setUserDailyLimit(address,uint256)": "177c49a7",
			"studyToken()": "a7481b5b",
			"transferOwnership(address)": "f2fde38b",
			"userDailyLimits(address)": "360cf54a",
			"userDailyUsage(address,uint256)": "b6fa284d"
		}
	},
	"abi": [
		{
			"inputs": [
				{
					"internalType": "address",
					"name": "initialOwner",
					"type": "address"
				},
				{
					"internalType": "address",
					"name": "_studyTokenAddress",
					"type": "address"
				},
				{
					"internalType": "address",
					"name": "_kernelAddress",
					"type": "address"
				},
				{
					"internalType": "uint256",
					"name": "_defaultDailyLimit",
					"type": "uint256"
				}
			],
			"stateMutability": "nonpayable",
			"type": "constructor"
		},
		{
			"inputs": [
				{
					"internalType": "address",
					"name": "owner",
					"type": "address"
				}
			],
			"name": "OwnableInvalidOwner",
			"type": "error"
		},
		{
			"inputs": [
				{
					"internalType": "address",
					"name": "account",
					"type": "address"
				}
			],
			"name": "OwnableUnauthorizedAccount",
			"type": "error"
		},
		{
			"anonymous": false,
			"inputs": [
				{
					"indexed": true,
					"internalType": "address",
					"name": "contractAddress",
					"type": "address"
				}
			],
			"name": "ContractAuthorized",
			"type": "event"
		},
		{
			"anonymous": false,
			"inputs": [
				{
					"indexed": true,
					"internalType": "address",
					"name": "contractAddress",
					"type": "address"
				}
			],
			"name": "ContractDeauthorized",
			"type": "event"
		},
		{
			"anonymous": false,
			"inputs": [
				{
					"indexed": true,
					"internalType": "address",
					"name": "oldKernel",
					"type": "address"
				},
				{
					"indexed": true,
					"internalType": "address",
					"name": "newKernel",
					"type": "address"
				}
			],
			"name": "KernelAddressUpdated",
			"type": "event"
		},
		{
			"anonymous": false,
			"inputs": [
				{
					"indexed": true,
					"internalType": "address",
					"name": "user",
					"type": "address"
				},
				{
					"indexed": false,
					"internalType": "uint256",
					"name": "requestedAmount",
					"type": "uint256"
				},
				{
					"indexed": false,
					"internalType": "uint8",
					"name": "allocation",
					"type": "uint8"
				}
			],
			"name": "KernelAllocationResult",
			"type": "event"
		},
		{
			"anonymous": false,
			"inputs": [
				{
					"indexed": false,
					"internalType": "uint8",
					"name": "oldThreshold",
					"type": "uint8"
				},
				{
					"indexed": false,
					"internalType": "uint8",
					"name": "newThreshold",
					"type": "uint8"
				}
			],
			"name": "MinimumThresholdUpdated",
			"type": "event"
		},
		{
			"anonymous": false,
			"inputs": [
				{
					"indexed": true,
					"internalType": "address",
					"name": "previousOwner",
					"type": "address"
				},
				{
					"indexed": true,
					"internalType": "address",
					"name": "newOwner",
					"type": "address"
				}
			],
			"name": "OwnershipTransferred",
			"type": "event"
		},
		{
			"anonymous": false,
			"inputs": [
				{
					"indexed": false,
					"internalType": "bool",
					"name": "isPaused",
					"type": "bool"
				}
			],
			"name": "PauseStatusChanged",
			"type": "event"
		},
		{
			"anonymous": false,
			"inputs": [
				{
					"indexed": true,
					"internalType": "address",
					"name": "user",
					"type": "address"
				},
				{
					"indexed": false,
					"internalType": "uint256",
					"name": "amount",
					"type": "uint256"
				},
				{
					"indexed": false,
					"internalType": "string",
					"name": "operation",
					"type": "string"
				}
			],
			"name": "TokenOperationApproved",
			"type": "event"
		},
		{
			"anonymous": false,
			"inputs": [
				{
					"indexed": true,
					"internalType": "address",
					"name": "user",
					"type": "address"
				},
				{
					"indexed": false,
					"internalType": "uint256",
					"name": "amount",
					"type": "uint256"
				},
				{
					"indexed": false,
					"internalType": "string",
					"name": "reason",
					"type": "string"
				}
			],
			"name": "TokenOperationDenied",
			"type": "event"
		},
		{
			"anonymous": false,
			"inputs": [
				{
					"indexed": true,
					"internalType": "address",
					"name": "user",
					"type": "address"
				},
				{
					"indexed": false,
					"internalType": "uint256",
					"name": "limit",
					"type": "uint256"
				}
			],
			"name": "UserLimitSet",
			"type": "event"
		},
		{
			"inputs": [
				{
					"internalType": "address",
					"name": "contractAddress",
					"type": "address"
				}
			],
			"name": "authorizeContract",
			"outputs": [],
			"stateMutability": "nonpayable",
			"type": "function"
		},
		{
			"inputs": [
				{
					"internalType": "address",
					"name": "to",
					"type": "address"
				},
				{
					"internalType": "uint256",
					"name": "amount",
					"type": "uint256"
				},
				{
					"internalType": "bytes",
					"name": "additionalData",
					"type": "bytes"
				}
			],
			"name": "authorizeMint",
			"outputs": [
				{
					"internalType": "bool",
					"name": "success",
					"type": "bool"
				},
				{
					"internalType": "uint256",
					"name": "adjustedAmount",
					"type": "uint256"
				}
			],
			"stateMutability": "nonpayable",
			"type": "function"
		},
		{
			"inputs": [
				{
					"internalType": "address",
					"name": "to",
					"type": "address"
				},
				{
					"internalType": "uint256",
					"name": "amount",
					"type": "uint256"
				}
			],
			"name": "authorizeSimple",
			"outputs": [
				{
					"internalType": "bool",
					"name": "",
					"type": "bool"
				}
			],
			"stateMutability": "nonpayable",
			"type": "function"
		},
		{
			"inputs": [
				{
					"internalType": "address",
					"name": "from",
					"type": "address"
				},
				{
					"internalType": "address",
					"name": "to",
					"type": "address"
				},
				{
					"internalType": "uint256",
					"name": "amount",
					"type": "uint256"
				},
				{
					"internalType": "bytes",
					"name": "additionalData",
					"type": "bytes"
				}
			],
			"name": "authorizeTransfer",
			"outputs": [
				{
					"internalType": "bool",
					"name": "",
					"type": "bool"
				}
			],
			"stateMutability": "nonpayable",
			"type": "function"
		},
		{
			"inputs": [
				{
					"internalType": "address",
					"name": "",
					"type": "address"
				}
			],
			"name": "authorizedContracts",
			"outputs": [
				{
					"internalType": "bool",
					"name": "",
					"type": "bool"
				}
			],
			"stateMutability": "view",
			"type": "function"
		},
		{
			"inputs": [
				{
					"internalType": "address",
					"name": "user",
					"type": "address"
				},
				{
					"internalType": "uint256",
					"name": "amount",
					"type": "uint256"
				}
			],
			"name": "canUserOperate",
			"outputs": [
				{
					"internalType": "bool",
					"name": "canOperate",
					"type": "bool"
				},
				{
					"internalType": "string",
					"name": "reason",
					"type": "string"
				}
			],
			"stateMutability": "view",
			"type": "function"
		},
		{
			"inputs": [
				{
					"internalType": "address",
					"name": "contractAddress",
					"type": "address"
				}
			],
			"name": "deauthorizeContract",
			"outputs": [],
			"stateMutability": "nonpayable",
			"type": "function"
		},
		{
			"inputs": [],
			"name": "defaultDailyLimit",
			"outputs": [
				{
					"internalType": "uint256",
					"name": "",
					"type": "uint256"
				}
			],
			"stateMutability": "view",
			"type": "function"
		},
		{
			"inputs": [],
			"name": "getCurrentDay",
			"outputs": [
				{
					"internalType": "uint256",
					"name": "",
					"type": "uint256"
				}
			],
			"stateMutability": "view",
			"type": "function"
		},
		{
			"inputs": [
				{
					"internalType": "address",
					"name": "user",
					"type": "address"
				},
				{
					"internalType": "uint256",
					"name": "amount",
					"type": "uint256"
				},
				{
					"internalType": "bytes",
					"name": "additionalData",
					"type": "bytes"
				}
			],
			"name": "getKernelRecommendation",
			"outputs": [
				{
					"internalType": "uint8",
					"name": "",
					"type": "uint8"
				}
			],
			"stateMutability": "view",
			"type": "function"
		},
		{
			"inputs": [
				{
					"internalType": "address",
					"name": "user",
					"type": "address"
				}
			],
			"name": "getRemainingDailyLimit",
			"outputs": [
				{
					"internalType": "uint256",
					"name": "",
					"type": "uint256"
				}
			],
			"stateMutability": "view",
			"type": "function"
		},
		{
			"inputs": [
				{
					"internalType": "address",
					"name": "user",
					"type": "address"
				}
			],
			"name": "getTodayUsage",
			"outputs": [
				{
					"internalType": "uint256",
					"name": "",
					"type": "uint256"
				}
			],
			"stateMutability": "view",
			"type": "function"
		},
		{
			"inputs": [
				{
					"internalType": "address",
					"name": "user",
					"type": "address"
				}
			],
			"name": "getUserDailyLimit",
			"outputs": [
				{
					"internalType": "uint256",
					"name": "",
					"type": "uint256"
				}
			],
			"stateMutability": "view",
			"type": "function"
		},
		{
			"inputs": [
				{
					"internalType": "address",
					"name": "user",
					"type": "address"
				}
			],
			"name": "getUserStatus",
			"outputs": [
				{
					"internalType": "uint256",
					"name": "dailyLimit",
					"type": "uint256"
				},
				{
					"internalType": "uint256",
					"name": "usedToday",
					"type": "uint256"
				},
				{
					"internalType": "uint256",
					"name": "remainingToday",
					"type": "uint256"
				},
				{
					"internalType": "bool",
					"name": "canOperate",
					"type": "bool"
				}
			],
			"stateMutability": "view",
			"type": "function"
		},
		{
			"inputs": [
				{
					"internalType": "uint8",
					"name": "allocation",
					"type": "uint8"
				}
			],
			"name": "isAllocationAcceptable",
			"outputs": [
				{
					"internalType": "bool",
					"name": "",
					"type": "bool"
				}
			],
			"stateMutability": "view",
			"type": "function"
		},
		{
			"inputs": [],
			"name": "isPaused",
			"outputs": [
				{
					"internalType": "bool",
					"name": "",
					"type": "bool"
				}
			],
			"stateMutability": "view",
			"type": "function"
		},
		{
			"inputs": [],
			"name": "kernel",
			"outputs": [
				{
					"internalType": "contract ITokenAllocationKernel",
					"name": "",
					"type": "address"
				}
			],
			"stateMutability": "view",
			"type": "function"
		},
		{
			"inputs": [],
			"name": "kernelAddress",
			"outputs": [
				{
					"internalType": "address",
					"name": "",
					"type": "address"
				}
			],
			"stateMutability": "view",
			"type": "function"
		},
		{
			"inputs": [],
			"name": "minimumAllocationThreshold",
			"outputs": [
				{
					"internalType": "uint8",
					"name": "",
					"type": "uint8"
				}
			],
			"stateMutability": "view",
			"type": "function"
		},
		{
			"inputs": [
				{
					"internalType": "address",
					"name": "to",
					"type": "address"
				},
				{
					"internalType": "uint256",
					"name": "amount",
					"type": "uint256"
				},
				{
					"internalType": "bytes",
					"name": "additionalData",
					"type": "bytes"
				}
			],
			"name": "mintWithKernel",
			"outputs": [
				{
					"internalType": "bool",
					"name": "",
					"type": "bool"
				}
			],
			"stateMutability": "nonpayable",
			"type": "function"
		},
		{
			"inputs": [],
			"name": "owner",
			"outputs": [
				{
					"internalType": "address",
					"name": "",
					"type": "address"
				}
			],
			"stateMutability": "view",
			"type": "function"
		},
		{
			"inputs": [
				{
					"internalType": "address",
					"name": "user",
					"type": "address"
				},
				{
					"internalType": "uint256",
					"name": "amount",
					"type": "uint256"
				},
				{
					"internalType": "bytes",
					"name": "additionalData",
					"type": "bytes"
				}
			],
			"name": "previewKernelRecommendation",
			"outputs": [
				{
					"internalType": "uint8",
					"name": "allocation",
					"type": "uint8"
				},
				{
					"internalType": "bool",
					"name": "meetsThreshold",
					"type": "bool"
				},
				{
					"internalType": "uint256",
					"name": "adjustedAmount",
					"type": "uint256"
				},
				{
					"internalType": "bool",
					"name": "withinDailyLimit",
					"type": "bool"
				}
			],
			"stateMutability": "view",
			"type": "function"
		},
		{
			"inputs": [],
			"name": "renounceOwnership",
			"outputs": [],
			"stateMutability": "nonpayable",
			"type": "function"
		},
		{
			"inputs": [
				{
					"internalType": "uint256",
					"name": "limit",
					"type": "uint256"
				}
			],
			"name": "setDefaultDailyLimit",
			"outputs": [],
			"stateMutability": "nonpayable",
			"type": "function"
		},
		{
			"inputs": [
				{
					"internalType": "address",
					"name": "_kernelAddress",
					"type": "address"
				}
			],
			"name": "setKernelAddress",
			"outputs": [],
			"stateMutability": "nonpayable",
			"type": "function"
		},
		{
			"inputs": [
				{
					"internalType": "uint8",
					"name": "_threshold",
					"type": "uint8"
				}
			],
			"name": "setMinimumAllocationThreshold",
			"outputs": [],
			"stateMutability": "nonpayable",
			"type": "function"
		},
		{
			"inputs": [
				{
					"internalType": "bool",
					"name": "_isPaused",
					"type": "bool"
				}
			],
			"name": "setPause",
			"outputs": [],
			"stateMutability": "nonpayable",
			"type": "function"
		},
		{
			"inputs": [
				{
					"internalType": "address",
					"name": "_studyTokenAddress",
					"type": "address"
				}
			],
			"name": "setStudyToken",
			"outputs": [],
			"stateMutability": "nonpayable",
			"type": "function"
		},
		{
			"inputs": [
				{
					"internalType": "address",
					"name": "user",
					"type": "address"
				},
				{
					"internalType": "uint256",
					"name": "limit",
					"type": "uint256"
				}
			],
			"name": "setUserDailyLimit",
			"outputs": [],
			"stateMutability": "nonpayable",
			"type": "function"
		},
		{
			"inputs": [],
			"name": "studyToken",
			"outputs": [
				{
					"internalType": "contract IStudyToken",
					"name": "",
					"type": "address"
				}
			],
			"stateMutability": "view",
			"type": "function"
		},
		{
			"inputs": [
				{
					"internalType": "address",
					"name": "newOwner",
					"type": "address"
				}
			],
			"name": "transferOwnership",
			"outputs": [],
			"stateMutability": "nonpayable",
			"type": "function"
		},
		{
			"inputs": [
				{
					"internalType": "address",
					"name": "",
					"type": "address"
				}
			],
			"name": "userDailyLimits",
			"outputs": [
				{
					"internalType": "uint256",
					"name": "",
					"type": "uint256"
				}
			],
			"stateMutability": "view",
			"type": "function"
		},
		{
			"inputs": [
				{
					"internalType": "address",
					"name": "",
					"type": "address"
				},
				{
					"internalType": "uint256",
					"name": "",
					"type": "uint256"
				}
			],
			"name": "userDailyUsage",
			"outputs": [
				{
					"internalType": "uint256",
					"name": "",
					"type": "uint256"
				}
			],
			"stateMutability": "view",
			"type": "function"
		}
	]
}