{
	"data": {
		"bytecode": {
			"linkReferences": {},
			"object": "6080346200017c57601f62001c8838819003918201601f191683019291906001600160401b03841183851017620001805781606092849260409687528339810103126200017c57620000518162000194565b62000063836020840151930162000194565b331562000165575f549160018060a01b03908160018060a01b03199333858716175f55875195823391167f8be0079c531659141344cd1fd0a4f28419497f9722a3daafe3b4186f6b6457e05f80a31683600154161760015516918215620001235750338160045416176004556003541617600355600755335f526005602052805f20600160ff1982541617905551337f8983a1f3c3cb45c24c8226b5b805e3b6eb49686530b808534b2a920129eff6515f80a2611ade9081620001aa8239f35b62461bcd60e51b815260206004820152601560248201527f496e76616c696420746f6b656e206164647265737300000000000000000000006044820152606490fd5b8351631e4fbdf760e01b81525f6004820152602490fd5b5f80fd5b634e487b7160e01b5f52604160045260245ffd5b51906001600160a01b03821682036200017c5756fe60406080815260049081361015610014575f80fd5b5f3560e01c80630a0d6de114610c85578063113018c514610c5557806312ae1c5014610bde578063177c49a714610b2e57806332a34ad014610a9d578063360cf54a14610a665780633e6968b614610a475780634ba1cfe414610a1f57806367561d93146109115780636e861c0e1461084d578063715018a6146107f65780637561dfd41461076a57806377865f911461073e5780638da5cb5b14610717578063909dd263146106b75780639b32ea6d1461065b578063a7481b5b14610633578063b09a8a04146105a8578063b108d288146103d8578063b6fa284d14610398578063bebbcfe61461036c578063c76b08881461034e578063d213d86b1461030b578063d5b9221b146102cf578063ec37d2591461024d578063f0dda65c14610207578063f2fde38b1461017a5763f851a44014610150575f80fd5b34610176575f36600319011261017657905490516001600160a01b039091168152602090f35b5f80fd5b50903461017657602036600319011261017657610195610cad565b9061019e611913565b6001600160a01b039182169283156101f15750505f54826bffffffffffffffffffffffff60a01b8216175f55167f8be0079c531659141344cd1fd0a4f28419497f9722a3daafe3b4186f6b6457e05f80a3005b905f6024925191631e4fbdf760e01b8352820152fd5b503461017657806003193601126101765761024460209261023b610229610cad565b91546001600160a01b03163314610e80565b602435906115fa565b90519015158152f35b503461017657602036600319011261017657610267610cad565b60018060a01b0381165f526008602052815f206201518042045f52602052610292825f205491611521565b908181106102a9575050602091505f905b51908152f35b81039081116102bc5760209250906102a3565b601183634e487b7160e01b5f525260245ffd5b5034610176576020366003190112610176576020906001600160a01b036102f4610cad565b165f526005825260ff815f20541690519015158152f35b3461017657602036600319011261017657610324610cad565b61032c611913565b600180546001600160a01b0319166001600160a01b0392909216919091179055005b5034610176575f366003190112610176576020906007549051908152f35b82346101765760203660031901126101765761039260018060a01b038254163314610e80565b35600755005b50346101765780600319360112610176576020906001600160a01b036103bc610cad565b165f5260088252805f206024355f528252805f20549051908152f35b5090346101765760803660031901126101765767ffffffffffffffff9080358281116101765761040b9036908301610da1565b610413610cc3565b906044359260018060a01b038085168095036101765760643595875190826020961696878784015289830152876060830152606082526080820190828210908211176105955788526104659084611677565b15610586579161049184926104a194335f526005855260ff8a5f205416918215610578575b5050611339565b0151828082518301019101611054565b935f5b855181101561052c576101516104ba8288611150565b5151146104ca575b6001016104a4565b826104d58288611150565b51015190838280518101031261017657847f12aefba8e18d93e84f6766f3cf651366ce20a012a5ca6dbf1b0443a9ff1cf58284866001950151610518858c611150565b515190825191825288820152a290506104c2565b50825f80516020611a8983398151915261056e8684519182918260809181526040602082015260086040820152673a3930b739b332b960c11b60608201520190565b0390a25160018152f35b909150541633145f8061048a565b508551636ca537e760e11b8152fd5b604184634e487b7160e01b5f525260245ffd5b509034610176576020366003190112610176576105c3610cad565b81546001600160a01b0391906105dc9083163314610e80565b169182156105f857600380546001600160a01b03191684179055005b906020606492519162461bcd60e51b83528201526015602482015274496e76616c696420746f6b656e206164647265737360581b6044820152fd5b5034610176575f3660031901126101765760035490516001600160a01b039091168152602090f35b503461017657806003193601126101765761024460209261069a61067d610cad565b91335f526005865260ff855f2054169081156106a3575b50611339565b60243590611548565b546001600160a01b0316331490505f610694565b50346101765760203660031901126101765781359167ffffffffffffffff83116101765761070260206106f060ff938296369101610d5b565b81855193828580945193849201610e5f565b81016002815203019020541690519015158152f35b5034610176575f366003190112610176575f5490516001600160a01b039091168152602090f35b50346101765760203660031901126101765760209061076361075e610cad565b611521565b9051908152f35b50346101765761077936610e19565b83516001600160a01b0383166020820152604081018290529092906107b5906107af81606081015b03601f198101835282610d1d565b82611677565b156107e6579061024492916107e1602096335f526005885260ff875f2054169081156106a35750611339565b6113bb565b50505051636ca537e760e11b8152fd5b34610176575f3660031901126101765761080e611913565b5f80546001600160a01b0319811682556001600160a01b03167f8be0079c531659141344cd1fd0a4f28419497f9722a3daafe3b4186f6b6457e08280a3005b503461017657602036600319011261017657610867610cad565b82546001600160a01b0391906108809083163314610e80565b1691825f52600560205260ff825f205416156108cf5750815f5260056020525f2060ff1981541690557f54142b7cb3ceaa9e564243ce4cc2303723c842a1144192de6b3c594f68b16a9a5f80a2005b6020606492519162461bcd60e51b8352820152601760248201527f436f6e7472616374206e6f7420617574686f72697a65640000000000000000006044820152fd5b50346101765760203660031901126101765761092b610cad565b82546001600160a01b0391906109449083163314610e80565b169182156109dd57825f52600560205260ff825f20541661099b5750815f5260056020525f20600160ff198254161790557f8983a1f3c3cb45c24c8226b5b805e3b6eb49686530b808534b2a920129eff6515f80a2005b6020606492519162461bcd60e51b8352820152601b60248201527f436f6e747261637420616c726561647920617574686f72697a656400000000006044820152fd5b6020606492519162461bcd60e51b8352820152601860248201527f496e76616c696420636f6e7472616374206164647265737300000000000000006044820152fd5b5034610176575f3660031901126101765760015490516001600160a01b039091168152602090f35b5034610176575f36600319011261017657602090516201518042048152f35b5034610176576020366003190112610176576020906001600160a01b03610a8b610cad565b165f5260068252805f20549051908152f35b503461017657606036600319011261017657602091610ae2610abd610cad565b91610ac6610cc3565b50335f526005855260ff845f2054169081156106a35750611339565b81516044358152604060208201819052600890820152673a3930b739b332b960c11b60608201526001600160a01b03909116905f80516020611a8983398151915290806080810161056e565b5034610176578060031936011261017657610b47610cad565b825460243592916001600160a01b0391610b649083163314610e80565b16928315610ba557507fc1395320bc4a9778acf4621c40f54fdde0fafa6177d8012972fca4ec8f7cfa3691602091845f526006835281815f205551908152a2005b6020606492519162461bcd60e51b83528201526014602482015273496e76616c69642075736572206164647265737360601b6044820152fd5b503461017657610bed36610e19565b93610c0560018060a09594951b038254163314610e80565b83516001600160a01b038416602082015260408101869052610c3490610c2e81606081016107a1565b83611677565b15610c4757509261024491602094611178565b8351636ca537e760e11b8152fd5b5034610176575f36600319011261017657610c7d60209260018060a01b039054163314610e80565b610244610fa5565b503461017657602036600319011261017657610244602092610ca8610229610cad565b610ed6565b600435906001600160a01b038216820361017657565b602435906001600160a01b038216820361017657565b6060810190811067ffffffffffffffff821117610cf557604052565b634e487b7160e01b5f52604160045260245ffd5b67ffffffffffffffff8111610cf557604052565b90601f8019910116810190811067ffffffffffffffff821117610cf557604052565b67ffffffffffffffff8111610cf557601f01601f191660200190565b81601f8201121561017657803590610d7282610d3f565b92610d806040519485610d1d565b8284526020838301011161017657815f926020809301838601378301015290565b91906060838203126101765760405190610dba82610cd9565b819380359167ffffffffffffffff928381116101765781610ddc918401610d5b565b845260208201358381116101765781610df6918401610d5b565b6020850152604082013592831161017657604092610e149201610d5b565b910152565b6060600319820112610176576004359067ffffffffffffffff821161017657610e4491600401610da1565b906024356001600160a01b0381168103610176579060443590565b5f5b838110610e705750505f910152565b8181015183820152602001610e61565b15610e8757565b60405162461bcd60e51b815260206004820152602160248201527f4f6e6c792061646d696e2063616e2063616c6c20746869732066756e6374696f6044820152603760f91b6064820152608490fd5b5f906001600160a01b03908116908115610f605760035416803b15610176575f8091602460405180948193634c1d96ab60e11b83528760048401525af19081610f4d575b50610f23575090565b90807f8983a1f3c3cb45c24c8226b5b805e3b6eb49686530b808534b2a920129eff65191a2600190565b610f58919350610d09565b5f915f610f1a565b60405162461bcd60e51b815260206004820152601b60248201527f496e76616c69642073747564792067726f7570206164647265737300000000006044820152606490fd5b6003545f906001600160a01b0316803b15610176575f8091602460405180948193634c1d96ab60e11b83523060048401525af19081610fed575b50610fe75790565b50600190565b610ff8919250610d09565b5f905f610fdf565b9092919261100d81610d3f565b9161101b6040519384610d1d565b829482845282820111610176576020611035930190610e5f565b565b9080601f8301121561017657815161105192602001611000565b90565b90602090818382031261017657825167ffffffffffffffff9384821161017657019080601f8301121561017657815193808511610cf5578460051b9060408051966110a187850189610d1d565b875285808801938601019484861161017657868101935b8685106110ca57505050505050505090565b84518481116101765782019060609182601f19828a030112610176578451926110f284610cd9565b8a82015184528582015187811161017657898c61111192850101611037565b8b8501528101519086821161017657019087603f8301121561017657899261114189848887809701519101611000565b868201528152019401936110b8565b80518210156111645760209160051b010190565b634e487b7160e01b5f52603260045260245ffd5b9290925f91611194602080930151838082518301019101611054565b925f5b8451811015611229576101516111ad8287611150565b5151146111bd575b600101611197565b836111c88287611150565b510151908482805181010312610176578460019201517f12aefba8e18d93e84f6766f3cf651366ce20a012a5ca6dbf1b0443a9ff1cf5826112098389611150565b515191604090815193845288840152848060a01b038b1692a290506111b5565b506003549195909493506001600160a01b039250908216803b1561017657604051634d24848760e11b81526001600160a01b038316600482015260248101859052905f908290818381604481015b03925af19081611326575b506112dc576040805193845260208401819052600d908401526c185d5d1a1bdc9a5d1e535a5b9d609a1b606084015216907f36e690c5f80da3f9da10e957f42fac89e3fde772861ffe24e95169aedda4e8bf90608090a290565b6040805193845260208401819052600d908401526c185d5d1a1bdc9a5d1e535a5b9d609a1b60608401521691505f80516020611a898339815191529080608081015b0390a2600190565b611331919550610d09565b5f935f611282565b1561134057565b60405162461bcd60e51b815260206004820152600e60248201526d139bdd08185d5d1a1bdc9a5e995960921b6044820152606490fd5b9190820180921161138357565b634e487b7160e01b5f52601160045260245ffd5b60809181526040602082015260046040820152631b5a5b9d60e21b60608201520190565b9290916201518042046113cd84611521565b9360018060a01b031692835f5260209260088452604092835f20815f52855261140585855f2054990151868082518301019101611054565b975f5b89518110156114915761015161141e828c611150565b51511461142e575b600101611408565b86611439828c611150565b51015190878280518101031261017657887f12aefba8e18d93e84f6766f3cf651366ce20a012a5ca6dbf1b0443a9ff1cf582888d61147d858d600198015192611150565b51519082519182528c820152a29050611426565b50919596909297509392936114a68683611376565b116114e7579161131e93916114ca865f80516020611a898339815191529795611376565b91875f5260088152835f20915f5252815f20555191829182611397565b5050507f36e690c5f80da3f9da10e957f42fac89e3fde772861ffe24e95169aedda4e8bf9161151a915191829182611397565b0390a25f90565b6001600160a01b03165f9081526006602052604090205480156115415790565b5060075490565b906201518042049161155981611521565b9060018060a01b031692835f526008602052604091825f20825f52602052825f2054906115868583611376565b116115c9579183916115a95f80516020611a898339815191529561131e95611376565b90865f526008602052825f20905f52602052815f20555191829182611397565b5050517f36e690c5f80da3f9da10e957f42fac89e3fde772861ffe24e95169aedda4e8bf91819061151a9082611397565b6003545f92916001600160a01b03918216803b1561017657604051634d24848760e11b81526001600160a01b038316600482015260248101859052905f90829081838160448101611277565b60209061165c6014949382815194859201610e5f565b01906bffffffffffffffffffffffff199060601b1681520190565b9081519182519260209381019060a08186840193031261017657848101519067ffffffffffffffff918281116101765783876116b592840101611037565b94604095868301519460608401519085821161017657896116d892860101611037565b9260a060808201519101519182158015809403610176576118d6579061171861173461173d9897969594938c8b01518d8d51948591820192339084611646565b039361172c601f1995868101835282610d1d565b51902061193e565b90999199611978565b6001546001600160a01b0390811699909889168a90036118835761177561178189938e8e809501519451938491820195339087611646565b03908101835282610d1d565b519020938b8151910120930361183f578851958a8701938452898701523360601b6060870152607486015260f81b60948501526075845260a084019284841090841117610cf5576117e3936117da93885251902061193e565b90929192611978565b16036117f0575050600190565b60849250519062461bcd60e51b82526004820152602360248201527f496e76616c6964207369676e617475726520666f722066756e6374696f6e2063604482015262185b1b60ea1b6064820152fd5b885162461bcd60e51b8152600481018b9052601c60248201527f496e76616c6964206b65726e656c20706172616d7320646967657374000000006044820152606490fd5b8a5162461bcd60e51b8152600481018d9052602660248201527f496e76616c6964207369676e617475726520666f72206b65726e656c20726573604482015265706f6e73657360d01b6064820152608490fd5b885162461bcd60e51b8152600481018b90526016602482015275119a5b985b081bdc1a5b9a5bdb881c995d995c9d195960521b6044820152606490fd5b5f546001600160a01b0316330361192657565b60405163118cdaa760e01b8152336004820152602490fd5b815191906041830361196e576119679250602082015190606060408401519301515f1a906119fb565b9192909190565b50505f9160029190565b60048110156119e7578061198a575050565b600181036119a45760405163f645eedf60e01b8152600490fd5b600281036119c55760405163fce698f760e01b815260048101839052602490fd5b6003146119cf5750565b602490604051906335e2f38360e21b82526004820152fd5b634e487b7160e01b5f52602160045260245ffd5b91907f7fffffffffffffffffffffffffffffff5d576e7357a4501ddfe92f46681b20a08411611a7d579160209360809260ff5f9560405194855216868401526040830152606082015282805260015afa15611a72575f516001600160a01b03811615611a6857905f905f90565b505f906001905f90565b6040513d5f823e3d90fd5b5050505f916003919056fe09e7e318d9fde6f0e5cbb2418a50245c2063ce96946e2711c38e9c2b3127e9b3a2646970667358221220e93b24817127b765cafd0d6c3b9def95a639f7dfc601b0e316c63a227473d2cb64736f6c63430008180033",
			"opcodes": "PUSH1 0x80 CALLVALUE PUSH3 0x17C JUMPI PUSH1 0x1F PUSH3 0x1C88 CODESIZE DUP2 SWAP1 SUB SWAP2 DUP3 ADD PUSH1 0x1F NOT AND DUP4 ADD SWAP3 SWAP2 SWAP1 PUSH1 0x1 PUSH1 0x1 PUSH1 0x40 SHL SUB DUP5 GT DUP4 DUP6 LT OR PUSH3 0x180 JUMPI DUP2 PUSH1 0x60 SWAP3 DUP5 SWAP3 PUSH1 0x40 SWAP7 DUP8 MSTORE DUP4 CODECOPY DUP2 ADD SUB SLT PUSH3 0x17C JUMPI PUSH3 0x51 DUP2 PUSH3 0x194 JUMP JUMPDEST PUSH3 0x63 DUP4 PUSH1 0x20 DUP5 ADD MLOAD SWAP4 ADD PUSH3 0x194 JUMP JUMPDEST CALLER ISZERO PUSH3 0x165 JUMPI PUSH0 SLOAD SWAP2 PUSH1 0x1 DUP1 PUSH1 0xA0 SHL SUB SWAP1 DUP2 PUSH1 0x1 DUP1 PUSH1 0xA0 SHL SUB NOT SWAP4 CALLER DUP6 DUP8 AND OR PUSH0 SSTORE DUP8 MLOAD SWAP6 DUP3 CALLER SWAP2 AND PUSH32 0x8BE0079C531659141344CD1FD0A4F28419497F9722A3DAAFE3B4186F6B6457E0 PUSH0 DUP1 LOG3 AND DUP4 PUSH1 0x1 SLOAD AND OR PUSH1 0x1 SSTORE AND SWAP2 DUP3 ISZERO PUSH3 0x123 JUMPI POP CALLER DUP2 PUSH1 0x4 SLOAD AND OR PUSH1 0x4 SSTORE PUSH1 0x3 SLOAD AND OR PUSH1 0x3 SSTORE PUSH1 0x7 SSTORE CALLER PUSH0 MSTORE PUSH1 0x5 PUSH1 0x20 MSTORE DUP1 PUSH0 KECCAK256 PUSH1 0x1 PUSH1 0xFF NOT DUP3 SLOAD AND OR SWAP1 SSTORE MLOAD CALLER PUSH32 0x8983A1F3C3CB45C24C8226B5B805E3B6EB49686530B808534B2A920129EFF651 PUSH0 DUP1 LOG2 PUSH2 0x1ADE SWAP1 DUP2 PUSH3 0x1AA DUP3 CODECOPY RETURN JUMPDEST PUSH3 0x461BCD PUSH1 0xE5 SHL DUP2 MSTORE PUSH1 0x20 PUSH1 0x4 DUP3 ADD MSTORE PUSH1 0x15 PUSH1 0x24 DUP3 ADD MSTORE PUSH32 0x496E76616C696420746F6B656E20616464726573730000000000000000000000 PUSH1 0x44 DUP3 ADD MSTORE PUSH1 0x64 SWAP1 REVERT JUMPDEST DUP4 MLOAD PUSH4 0x1E4FBDF7 PUSH1 0xE0 SHL DUP2 MSTORE PUSH0 PUSH1 0x4 DUP3 ADD MSTORE PUSH1 0x24 SWAP1 REVERT JUMPDEST PUSH0 DUP1 REVERT JUMPDEST PUSH4 0x4E487B71 PUSH1 0xE0 SHL PUSH0 MSTORE PUSH1 0x41 PUSH1 0x4 MSTORE PUSH1 0x24 PUSH0 REVERT JUMPDEST MLOAD SWAP1 PUSH1 0x1 PUSH1 0x1 PUSH1 0xA0 SHL SUB DUP3 AND DUP3 SUB PUSH3 0x17C JUMPI JUMP INVALID PUSH1 0x40 PUSH1 0x80 DUP2 MSTORE PUSH1 0x4 SWAP1 DUP2 CALLDATASIZE LT ISZERO PUSH2 0x14 JUMPI PUSH0 DUP1 REVERT JUMPDEST PUSH0 CALLDATALOAD PUSH1 0xE0 SHR DUP1 PUSH4 0xA0D6DE1 EQ PUSH2 0xC85 JUMPI DUP1 PUSH4 0x113018C5 EQ PUSH2 0xC55 JUMPI DUP1 PUSH4 0x12AE1C50 EQ PUSH2 0xBDE JUMPI DUP1 PUSH4 0x177C49A7 EQ PUSH2 0xB2E JUMPI DUP1 PUSH4 0x32A34AD0 EQ PUSH2 0xA9D JUMPI DUP1 PUSH4 0x360CF54A EQ PUSH2 0xA66 JUMPI DUP1 PUSH4 0x3E6968B6 EQ PUSH2 0xA47 JUMPI DUP1 PUSH4 0x4BA1CFE4 EQ PUSH2 0xA1F JUMPI DUP1 PUSH4 0x67561D93 EQ PUSH2 0x911 JUMPI DUP1 PUSH4 0x6E861C0E EQ PUSH2 0x84D JUMPI DUP1 PUSH4 0x715018A6 EQ PUSH2 0x7F6 JUMPI DUP1 PUSH4 0x7561DFD4 EQ PUSH2 0x76A JUMPI DUP1 PUSH4 0x77865F91 EQ PUSH2 0x73E JUMPI DUP1 PUSH4 0x8DA5CB5B EQ PUSH2 0x717 JUMPI DUP1 PUSH4 0x909DD263 EQ PUSH2 0x6B7 JUMPI DUP1 PUSH4 0x9B32EA6D EQ PUSH2 0x65B JUMPI DUP1 PUSH4 0xA7481B5B EQ PUSH2 0x633 JUMPI DUP1 PUSH4 0xB09A8A04 EQ PUSH2 0x5A8 JUMPI DUP1 PUSH4 0xB108D288 EQ PUSH2 0x3D8 JUMPI DUP1 PUSH4 0xB6FA284D EQ PUSH2 0x398 JUMPI DUP1 PUSH4 0xBEBBCFE6 EQ PUSH2 0x36C JUMPI DUP1 PUSH4 0xC76B0888 EQ PUSH2 0x34E JUMPI DUP1 PUSH4 0xD213D86B EQ PUSH2 0x30B JUMPI DUP1 PUSH4 0xD5B9221B EQ PUSH2 0x2CF JUMPI DUP1 PUSH4 0xEC37D259 EQ PUSH2 0x24D JUMPI DUP1 PUSH4 0xF0DDA65C EQ PUSH2 0x207 JUMPI DUP1 PUSH4 0xF2FDE38B EQ PUSH2 0x17A JUMPI PUSH4 0xF851A440 EQ PUSH2 0x150 JUMPI PUSH0 DUP1 REVERT JUMPDEST CALLVALUE PUSH2 0x176 JUMPI PUSH0 CALLDATASIZE PUSH1 0x3 NOT ADD SLT PUSH2 0x176 JUMPI SWAP1 SLOAD SWAP1 MLOAD PUSH1 0x1 PUSH1 0x1 PUSH1 0xA0 SHL SUB SWAP1 SWAP2 AND DUP2 MSTORE PUSH1 0x20 SWAP1 RETURN JUMPDEST PUSH0 DUP1 REVERT JUMPDEST POP SWAP1 CALLVALUE PUSH2 0x176 JUMPI PUSH1 0x20 CALLDATASIZE PUSH1 0x3 NOT ADD SLT PUSH2 0x176 JUMPI PUSH2 0x195 PUSH2 0xCAD JUMP JUMPDEST SWAP1 PUSH2 0x19E PUSH2 0x1913 JUMP JUMPDEST PUSH1 0x1 PUSH1 0x1 PUSH1 0xA0 SHL SUB SWAP2 DUP3 AND SWAP3 DUP4 ISZERO PUSH2 0x1F1 JUMPI POP POP PUSH0 SLOAD DUP3 PUSH12 0xFFFFFFFFFFFFFFFFFFFFFFFF PUSH1 0xA0 SHL DUP3 AND OR PUSH0 SSTORE AND PUSH32 0x8BE0079C531659141344CD1FD0A4F28419497F9722A3DAAFE3B4186F6B6457E0 PUSH0 DUP1 LOG3 STOP JUMPDEST SWAP1 PUSH0 PUSH1 0x24 SWAP3 MLOAD SWAP2 PUSH4 0x1E4FBDF7 PUSH1 0xE0 SHL DUP4 MSTORE DUP3 ADD MSTORE REVERT JUMPDEST POP CALLVALUE PUSH2 0x176 JUMPI DUP1 PUSH1 0x3 NOT CALLDATASIZE ADD SLT PUSH2 0x176 JUMPI PUSH2 0x244 PUSH1 0x20 SWAP3 PUSH2 0x23B PUSH2 0x229 PUSH2 0xCAD JUMP JUMPDEST SWAP2 SLOAD PUSH1 0x1 PUSH1 0x1 PUSH1 0xA0 SHL SUB AND CALLER EQ PUSH2 0xE80 JUMP JUMPDEST PUSH1 0x24 CALLDATALOAD SWAP1 PUSH2 0x15FA JUMP JUMPDEST SWAP1 MLOAD SWAP1 ISZERO ISZERO DUP2 MSTORE RETURN JUMPDEST POP CALLVALUE PUSH2 0x176 JUMPI PUSH1 0x20 CALLDATASIZE PUSH1 0x3 NOT ADD SLT PUSH2 0x176 JUMPI PUSH2 0x267 PUSH2 0xCAD JUMP JUMPDEST PUSH1 0x1 DUP1 PUSH1 0xA0 SHL SUB DUP2 AND PUSH0 MSTORE PUSH1 0x8 PUSH1 0x20 MSTORE DUP2 PUSH0 KECCAK256 PUSH3 0x15180 TIMESTAMP DIV PUSH0 MSTORE PUSH1 0x20 MSTORE PUSH2 0x292 DUP3 PUSH0 KECCAK256 SLOAD SWAP2 PUSH2 0x1521 JUMP JUMPDEST SWAP1 DUP2 DUP2 LT PUSH2 0x2A9 JUMPI POP POP PUSH1 0x20 SWAP2 POP PUSH0 SWAP1 JUMPDEST MLOAD SWAP1 DUP2 MSTORE RETURN JUMPDEST DUP2 SUB SWAP1 DUP2 GT PUSH2 0x2BC JUMPI PUSH1 0x20 SWAP3 POP SWAP1 PUSH2 0x2A3 JUMP JUMPDEST PUSH1 0x11 DUP4 PUSH4 0x4E487B71 PUSH1 0xE0 SHL PUSH0 MSTORE MSTORE PUSH1 0x24 PUSH0 REVERT JUMPDEST POP CALLVALUE PUSH2 0x176 JUMPI PUSH1 0x20 CALLDATASIZE PUSH1 0x3 NOT ADD SLT PUSH2 0x176 JUMPI PUSH1 0x20 SWAP1 PUSH1 0x1 PUSH1 0x1 PUSH1 0xA0 SHL SUB PUSH2 0x2F4 PUSH2 0xCAD JUMP JUMPDEST AND PUSH0 MSTORE PUSH1 0x5 DUP3 MSTORE PUSH1 0xFF DUP2 PUSH0 KECCAK256 SLOAD AND SWAP1 MLOAD SWAP1 ISZERO ISZERO DUP2 MSTORE RETURN JUMPDEST CALLVALUE PUSH2 0x176 JUMPI PUSH1 0x20 CALLDATASIZE PUSH1 0x3 NOT ADD SLT PUSH2 0x176 JUMPI PUSH2 0x324 PUSH2 0xCAD JUMP JUMPDEST PUSH2 0x32C PUSH2 0x1913 JUMP JUMPDEST PUSH1 0x1 DUP1 SLOAD PUSH1 0x1 PUSH1 0x1 PUSH1 0xA0 SHL SUB NOT AND PUSH1 0x1 PUSH1 0x1 PUSH1 0xA0 SHL SUB SWAP3 SWAP1 SWAP3 AND SWAP2 SWAP1 SWAP2 OR SWAP1 SSTORE STOP JUMPDEST POP CALLVALUE PUSH2 0x176 JUMPI PUSH0 CALLDATASIZE PUSH1 0x3 NOT ADD SLT PUSH2 0x176 JUMPI PUSH1 0x20 SWAP1 PUSH1 0x7 SLOAD SWAP1 MLOAD SWAP1 DUP2 MSTORE RETURN JUMPDEST DUP3 CALLVALUE PUSH2 0x176 JUMPI PUSH1 0x20 CALLDATASIZE PUSH1 0x3 NOT ADD SLT PUSH2 0x176 JUMPI PUSH2 0x392 PUSH1 0x1 DUP1 PUSH1 0xA0 SHL SUB DUP3 SLOAD AND CALLER EQ PUSH2 0xE80 JUMP JUMPDEST CALLDATALOAD PUSH1 0x7 SSTORE STOP JUMPDEST POP CALLVALUE PUSH2 0x176 JUMPI DUP1 PUSH1 0x3 NOT CALLDATASIZE ADD SLT PUSH2 0x176 JUMPI PUSH1 0x20 SWAP1 PUSH1 0x1 PUSH1 0x1 PUSH1 0xA0 SHL SUB PUSH2 0x3BC PUSH2 0xCAD JUMP JUMPDEST AND PUSH0 MSTORE PUSH1 0x8 DUP3 MSTORE DUP1 PUSH0 KECCAK256 PUSH1 0x24 CALLDATALOAD PUSH0 MSTORE DUP3 MSTORE DUP1 PUSH0 KECCAK256 SLOAD SWAP1 MLOAD SWAP1 DUP2 MSTORE RETURN JUMPDEST POP SWAP1 CALLVALUE PUSH2 0x176 JUMPI PUSH1 0x80 CALLDATASIZE PUSH1 0x3 NOT ADD SLT PUSH2 0x176 JUMPI PUSH8 0xFFFFFFFFFFFFFFFF SWAP1 DUP1 CALLDATALOAD DUP3 DUP2 GT PUSH2 0x176 JUMPI PUSH2 0x40B SWAP1 CALLDATASIZE SWAP1 DUP4 ADD PUSH2 0xDA1 JUMP JUMPDEST PUSH2 0x413 PUSH2 0xCC3 JUMP JUMPDEST SWAP1 PUSH1 0x44 CALLDATALOAD SWAP3 PUSH1 0x1 DUP1 PUSH1 0xA0 SHL SUB DUP1 DUP6 AND DUP1 SWAP6 SUB PUSH2 0x176 JUMPI PUSH1 0x64 CALLDATALOAD SWAP6 DUP8 MLOAD SWAP1 DUP3 PUSH1 0x20 SWAP7 AND SWAP7 DUP8 DUP8 DUP5 ADD MSTORE DUP10 DUP4 ADD MSTORE DUP8 PUSH1 0x60 DUP4 ADD MSTORE PUSH1 0x60 DUP3 MSTORE PUSH1 0x80 DUP3 ADD SWAP1 DUP3 DUP3 LT SWAP1 DUP3 GT OR PUSH2 0x595 JUMPI DUP9 MSTORE PUSH2 0x465 SWAP1 DUP5 PUSH2 0x1677 JUMP JUMPDEST ISZERO PUSH2 0x586 JUMPI SWAP2 PUSH2 0x491 DUP5 SWAP3 PUSH2 0x4A1 SWAP5 CALLER PUSH0 MSTORE PUSH1 0x5 DUP6 MSTORE PUSH1 0xFF DUP11 PUSH0 KECCAK256 SLOAD AND SWAP2 DUP3 ISZERO PUSH2 0x578 JUMPI JUMPDEST POP POP PUSH2 0x1339 JUMP JUMPDEST ADD MLOAD DUP3 DUP1 DUP3 MLOAD DUP4 ADD ADD SWAP2 ADD PUSH2 0x1054 JUMP JUMPDEST SWAP4 PUSH0 JUMPDEST DUP6 MLOAD DUP2 LT ISZERO PUSH2 0x52C JUMPI PUSH2 0x151 PUSH2 0x4BA DUP3 DUP9 PUSH2 0x1150 JUMP JUMPDEST MLOAD MLOAD EQ PUSH2 0x4CA JUMPI JUMPDEST PUSH1 0x1 ADD PUSH2 0x4A4 JUMP JUMPDEST DUP3 PUSH2 0x4D5 DUP3 DUP9 PUSH2 0x1150 JUMP JUMPDEST MLOAD ADD MLOAD SWAP1 DUP4 DUP3 DUP1 MLOAD DUP2 ADD SUB SLT PUSH2 0x176 JUMPI DUP5 PUSH32 0x12AEFBA8E18D93E84F6766F3CF651366CE20A012A5CA6DBF1B0443A9FF1CF582 DUP5 DUP7 PUSH1 0x1 SWAP6 ADD MLOAD PUSH2 0x518 DUP6 DUP13 PUSH2 0x1150 JUMP JUMPDEST MLOAD MLOAD SWAP1 DUP3 MLOAD SWAP2 DUP3 MSTORE DUP9 DUP3 ADD MSTORE LOG2 SWAP1 POP PUSH2 0x4C2 JUMP JUMPDEST POP DUP3 PUSH0 DUP1 MLOAD PUSH1 0x20 PUSH2 0x1A89 DUP4 CODECOPY DUP2 MLOAD SWAP2 MSTORE PUSH2 0x56E DUP7 DUP5 MLOAD SWAP2 DUP3 SWAP2 DUP3 PUSH1 0x80 SWAP2 DUP2 MSTORE PUSH1 0x40 PUSH1 0x20 DUP3 ADD MSTORE PUSH1 0x8 PUSH1 0x40 DUP3 ADD MSTORE PUSH8 0x3A3930B739B332B9 PUSH1 0xC1 SHL PUSH1 0x60 DUP3 ADD MSTORE ADD SWAP1 JUMP JUMPDEST SUB SWAP1 LOG2 MLOAD PUSH1 0x1 DUP2 MSTORE RETURN JUMPDEST SWAP1 SWAP2 POP SLOAD AND CALLER EQ PUSH0 DUP1 PUSH2 0x48A JUMP JUMPDEST POP DUP6 MLOAD PUSH4 0x6CA537E7 PUSH1 0xE1 SHL DUP2 MSTORE REVERT JUMPDEST PUSH1 0x41 DUP5 PUSH4 0x4E487B71 PUSH1 0xE0 SHL PUSH0 MSTORE MSTORE PUSH1 0x24 PUSH0 REVERT JUMPDEST POP SWAP1 CALLVALUE PUSH2 0x176 JUMPI PUSH1 0x20 CALLDATASIZE PUSH1 0x3 NOT ADD SLT PUSH2 0x176 JUMPI PUSH2 0x5C3 PUSH2 0xCAD JUMP JUMPDEST DUP2 SLOAD PUSH1 0x1 PUSH1 0x1 PUSH1 0xA0 SHL SUB SWAP2 SWAP1 PUSH2 0x5DC SWAP1 DUP4 AND CALLER EQ PUSH2 0xE80 JUMP JUMPDEST AND SWAP2 DUP3 ISZERO PUSH2 0x5F8 JUMPI PUSH1 0x3 DUP1 SLOAD PUSH1 0x1 PUSH1 0x1 PUSH1 0xA0 SHL SUB NOT AND DUP5 OR SWAP1 SSTORE STOP JUMPDEST SWAP1 PUSH1 0x20 PUSH1 0x64 SWAP3 MLOAD SWAP2 PUSH3 0x461BCD PUSH1 0xE5 SHL DUP4 MSTORE DUP3 ADD MSTORE PUSH1 0x15 PUSH1 0x24 DUP3 ADD MSTORE PUSH21 0x496E76616C696420746F6B656E2061646472657373 PUSH1 0x58 SHL PUSH1 0x44 DUP3 ADD MSTORE REVERT JUMPDEST POP CALLVALUE PUSH2 0x176 JUMPI PUSH0 CALLDATASIZE PUSH1 0x3 NOT ADD SLT PUSH2 0x176 JUMPI PUSH1 0x3 SLOAD SWAP1 MLOAD PUSH1 0x1 PUSH1 0x1 PUSH1 0xA0 SHL SUB SWAP1 SWAP2 AND DUP2 MSTORE PUSH1 0x20 SWAP1 RETURN JUMPDEST POP CALLVALUE PUSH2 0x176 JUMPI DUP1 PUSH1 0x3 NOT CALLDATASIZE ADD SLT PUSH2 0x176 JUMPI PUSH2 0x244 PUSH1 0x20 SWAP3 PUSH2 0x69A PUSH2 0x67D PUSH2 0xCAD JUMP JUMPDEST SWAP2 CALLER PUSH0 MSTORE PUSH1 0x5 DUP7 MSTORE PUSH1 0xFF DUP6 PUSH0 KECCAK256 SLOAD AND SWAP1 DUP2 ISZERO PUSH2 0x6A3 JUMPI JUMPDEST POP PUSH2 0x1339 JUMP JUMPDEST PUSH1 0x24 CALLDATALOAD SWAP1 PUSH2 0x1548 JUMP JUMPDEST SLOAD PUSH1 0x1 PUSH1 0x1 PUSH1 0xA0 SHL SUB AND CALLER EQ SWAP1 POP PUSH0 PUSH2 0x694 JUMP JUMPDEST POP CALLVALUE PUSH2 0x176 JUMPI PUSH1 0x20 CALLDATASIZE PUSH1 0x3 NOT ADD SLT PUSH2 0x176 JUMPI DUP2 CALLDATALOAD SWAP2 PUSH8 0xFFFFFFFFFFFFFFFF DUP4 GT PUSH2 0x176 JUMPI PUSH2 0x702 PUSH1 0x20 PUSH2 0x6F0 PUSH1 0xFF SWAP4 DUP3 SWAP7 CALLDATASIZE SWAP2 ADD PUSH2 0xD5B JUMP JUMPDEST DUP2 DUP6 MLOAD SWAP4 DUP3 DUP6 DUP1 SWAP5 MLOAD SWAP4 DUP5 SWAP3 ADD PUSH2 0xE5F JUMP JUMPDEST DUP2 ADD PUSH1 0x2 DUP2 MSTORE SUB ADD SWAP1 KECCAK256 SLOAD AND SWAP1 MLOAD SWAP1 ISZERO ISZERO DUP2 MSTORE RETURN JUMPDEST POP CALLVALUE PUSH2 0x176 JUMPI PUSH0 CALLDATASIZE PUSH1 0x3 NOT ADD SLT PUSH2 0x176 JUMPI PUSH0 SLOAD SWAP1 MLOAD PUSH1 0x1 PUSH1 0x1 PUSH1 0xA0 SHL SUB SWAP1 SWAP2 AND DUP2 MSTORE PUSH1 0x20 SWAP1 RETURN JUMPDEST POP CALLVALUE PUSH2 0x176 JUMPI PUSH1 0x20 CALLDATASIZE PUSH1 0x3 NOT ADD SLT PUSH2 0x176 JUMPI PUSH1 0x20 SWAP1 PUSH2 0x763 PUSH2 0x75E PUSH2 0xCAD JUMP JUMPDEST PUSH2 0x1521 JUMP JUMPDEST SWAP1 MLOAD SWAP1 DUP2 MSTORE RETURN JUMPDEST POP CALLVALUE PUSH2 0x176 JUMPI PUSH2 0x779 CALLDATASIZE PUSH2 0xE19 JUMP JUMPDEST DUP4 MLOAD PUSH1 0x1 PUSH1 0x1 PUSH1 0xA0 SHL SUB DUP4 AND PUSH1 0x20 DUP3 ADD MSTORE PUSH1 0x40 DUP2 ADD DUP3 SWAP1 MSTORE SWAP1 SWAP3 SWAP1 PUSH2 0x7B5 SWAP1 PUSH2 0x7AF DUP2 PUSH1 0x60 DUP2 ADD JUMPDEST SUB PUSH1 0x1F NOT DUP2 ADD DUP4 MSTORE DUP3 PUSH2 0xD1D JUMP JUMPDEST DUP3 PUSH2 0x1677 JUMP JUMPDEST ISZERO PUSH2 0x7E6 JUMPI SWAP1 PUSH2 0x244 SWAP3 SWAP2 PUSH2 0x7E1 PUSH1 0x20 SWAP7 CALLER PUSH0 MSTORE PUSH1 0x5 DUP9 MSTORE PUSH1 0xFF DUP8 PUSH0 KECCAK256 SLOAD AND SWAP1 DUP2 ISZERO PUSH2 0x6A3 JUMPI POP PUSH2 0x1339 JUMP JUMPDEST PUSH2 0x13BB JUMP JUMPDEST POP POP POP MLOAD PUSH4 0x6CA537E7 PUSH1 0xE1 SHL DUP2 MSTORE REVERT JUMPDEST CALLVALUE PUSH2 0x176 JUMPI PUSH0 CALLDATASIZE PUSH1 0x3 NOT ADD SLT PUSH2 0x176 JUMPI PUSH2 0x80E PUSH2 0x1913 JUMP JUMPDEST PUSH0 DUP1 SLOAD PUSH1 0x1 PUSH1 0x1 PUSH1 0xA0 SHL SUB NOT DUP2 AND DUP3 SSTORE PUSH1 0x1 PUSH1 0x1 PUSH1 0xA0 SHL SUB AND PUSH32 0x8BE0079C531659141344CD1FD0A4F28419497F9722A3DAAFE3B4186F6B6457E0 DUP3 DUP1 LOG3 STOP JUMPDEST POP CALLVALUE PUSH2 0x176 JUMPI PUSH1 0x20 CALLDATASIZE PUSH1 0x3 NOT ADD SLT PUSH2 0x176 JUMPI PUSH2 0x867 PUSH2 0xCAD JUMP JUMPDEST DUP3 SLOAD PUSH1 0x1 PUSH1 0x1 PUSH1 0xA0 SHL SUB SWAP2 SWAP1 PUSH2 0x880 SWAP1 DUP4 AND CALLER EQ PUSH2 0xE80 JUMP JUMPDEST AND SWAP2 DUP3 PUSH0 MSTORE PUSH1 0x5 PUSH1 0x20 MSTORE PUSH1 0xFF DUP3 PUSH0 KECCAK256 SLOAD AND ISZERO PUSH2 0x8CF JUMPI POP DUP2 PUSH0 MSTORE PUSH1 0x5 PUSH1 0x20 MSTORE PUSH0 KECCAK256 PUSH1 0xFF NOT DUP2 SLOAD AND SWAP1 SSTORE PUSH32 0x54142B7CB3CEAA9E564243CE4CC2303723C842A1144192DE6B3C594F68B16A9A PUSH0 DUP1 LOG2 STOP JUMPDEST PUSH1 0x20 PUSH1 0x64 SWAP3 MLOAD SWAP2 PUSH3 0x461BCD PUSH1 0xE5 SHL DUP4 MSTORE DUP3 ADD MSTORE PUSH1 0x17 PUSH1 0x24 DUP3 ADD MSTORE PUSH32 0x436F6E7472616374206E6F7420617574686F72697A6564000000000000000000 PUSH1 0x44 DUP3 ADD MSTORE REVERT JUMPDEST POP CALLVALUE PUSH2 0x176 JUMPI PUSH1 0x20 CALLDATASIZE PUSH1 0x3 NOT ADD SLT PUSH2 0x176 JUMPI PUSH2 0x92B PUSH2 0xCAD JUMP JUMPDEST DUP3 SLOAD PUSH1 0x1 PUSH1 0x1 PUSH1 0xA0 SHL SUB SWAP2 SWAP1 PUSH2 0x944 SWAP1 DUP4 AND CALLER EQ PUSH2 0xE80 JUMP JUMPDEST AND SWAP2 DUP3 ISZERO PUSH2 0x9DD JUMPI DUP3 PUSH0 MSTORE PUSH1 0x5 PUSH1 0x20 MSTORE PUSH1 0xFF DUP3 PUSH0 KECCAK256 SLOAD AND PUSH2 0x99B JUMPI POP DUP2 PUSH0 MSTORE PUSH1 0x5 PUSH1 0x20 MSTORE PUSH0 KECCAK256 PUSH1 0x1 PUSH1 0xFF NOT DUP3 SLOAD AND OR SWAP1 SSTORE PUSH32 0x8983A1F3C3CB45C24C8226B5B805E3B6EB49686530B808534B2A920129EFF651 PUSH0 DUP1 LOG2 STOP JUMPDEST PUSH1 0x20 PUSH1 0x64 SWAP3 MLOAD SWAP2 PUSH3 0x461BCD PUSH1 0xE5 SHL DUP4 MSTORE DUP3 ADD MSTORE PUSH1 0x1B PUSH1 0x24 DUP3 ADD MSTORE PUSH32 0x436F6E747261637420616C726561647920617574686F72697A65640000000000 PUSH1 0x44 DUP3 ADD MSTORE REVERT JUMPDEST PUSH1 0x20 PUSH1 0x64 SWAP3 MLOAD SWAP2 PUSH3 0x461BCD PUSH1 0xE5 SHL DUP4 MSTORE DUP3 ADD MSTORE PUSH1 0x18 PUSH1 0x24 DUP3 ADD MSTORE PUSH32 0x496E76616C696420636F6E747261637420616464726573730000000000000000 PUSH1 0x44 DUP3 ADD MSTORE REVERT JUMPDEST POP CALLVALUE PUSH2 0x176 JUMPI PUSH0 CALLDATASIZE PUSH1 0x3 NOT ADD SLT PUSH2 0x176 JUMPI PUSH1 0x1 SLOAD SWAP1 MLOAD PUSH1 0x1 PUSH1 0x1 PUSH1 0xA0 SHL SUB SWAP1 SWAP2 AND DUP2 MSTORE PUSH1 0x20 SWAP1 RETURN JUMPDEST POP CALLVALUE PUSH2 0x176 JUMPI PUSH0 CALLDATASIZE PUSH1 0x3 NOT ADD SLT PUSH2 0x176 JUMPI PUSH1 0x20 SWAP1 MLOAD PUSH3 0x15180 TIMESTAMP DIV DUP2 MSTORE RETURN JUMPDEST POP CALLVALUE PUSH2 0x176 JUMPI PUSH1 0x20 CALLDATASIZE PUSH1 0x3 NOT ADD SLT PUSH2 0x176 JUMPI PUSH1 0x20 SWAP1 PUSH1 0x1 PUSH1 0x1 PUSH1 0xA0 SHL SUB PUSH2 0xA8B PUSH2 0xCAD JUMP JUMPDEST AND PUSH0 MSTORE PUSH1 0x6 DUP3 MSTORE DUP1 PUSH0 KECCAK256 SLOAD SWAP1 MLOAD SWAP1 DUP2 MSTORE RETURN JUMPDEST POP CALLVALUE PUSH2 0x176 JUMPI PUSH1 0x60 CALLDATASIZE PUSH1 0x3 NOT ADD SLT PUSH2 0x176 JUMPI PUSH1 0x20 SWAP2 PUSH2 0xAE2 PUSH2 0xABD PUSH2 0xCAD JUMP JUMPDEST SWAP2 PUSH2 0xAC6 PUSH2 0xCC3 JUMP JUMPDEST POP CALLER PUSH0 MSTORE PUSH1 0x5 DUP6 MSTORE PUSH1 0xFF DUP5 PUSH0 KECCAK256 SLOAD AND SWAP1 DUP2 ISZERO PUSH2 0x6A3 JUMPI POP PUSH2 0x1339 JUMP JUMPDEST DUP2 MLOAD PUSH1 0x44 CALLDATALOAD DUP2 MSTORE PUSH1 0x40 PUSH1 0x20 DUP3 ADD DUP2 SWAP1 MSTORE PUSH1 0x8 SWAP1 DUP3 ADD MSTORE PUSH8 0x3A3930B739B332B9 PUSH1 0xC1 SHL PUSH1 0x60 DUP3 ADD MSTORE PUSH1 0x1 PUSH1 0x1 PUSH1 0xA0 SHL SUB SWAP1 SWAP2 AND SWAP1 PUSH0 DUP1 MLOAD PUSH1 0x20 PUSH2 0x1A89 DUP4 CODECOPY DUP2 MLOAD SWAP2 MSTORE SWAP1 DUP1 PUSH1 0x80 DUP2 ADD PUSH2 0x56E JUMP JUMPDEST POP CALLVALUE PUSH2 0x176 JUMPI DUP1 PUSH1 0x3 NOT CALLDATASIZE ADD SLT PUSH2 0x176 JUMPI PUSH2 0xB47 PUSH2 0xCAD JUMP JUMPDEST DUP3 SLOAD PUSH1 0x24 CALLDATALOAD SWAP3 SWAP2 PUSH1 0x1 PUSH1 0x1 PUSH1 0xA0 SHL SUB SWAP2 PUSH2 0xB64 SWAP1 DUP4 AND CALLER EQ PUSH2 0xE80 JUMP JUMPDEST AND SWAP3 DUP4 ISZERO PUSH2 0xBA5 JUMPI POP PUSH32 0xC1395320BC4A9778ACF4621C40F54FDDE0FAFA6177D8012972FCA4EC8F7CFA36 SWAP2 PUSH1 0x20 SWAP2 DUP5 PUSH0 MSTORE PUSH1 0x6 DUP4 MSTORE DUP2 DUP2 PUSH0 KECCAK256 SSTORE MLOAD SWAP1 DUP2 MSTORE LOG2 STOP JUMPDEST PUSH1 0x20 PUSH1 0x64 SWAP3 MLOAD SWAP2 PUSH3 0x461BCD PUSH1 0xE5 SHL DUP4 MSTORE DUP3 ADD MSTORE PUSH1 0x14 PUSH1 0x24 DUP3 ADD MSTORE PUSH20 0x496E76616C696420757365722061646472657373 PUSH1 0x60 SHL PUSH1 0x44 DUP3 ADD MSTORE REVERT JUMPDEST POP CALLVALUE PUSH2 0x176 JUMPI PUSH2 0xBED CALLDATASIZE PUSH2 0xE19 JUMP JUMPDEST SWAP4 PUSH2 0xC05 PUSH1 0x1 DUP1 PUSH1 0xA0 SWAP6 SWAP5 SWAP6 SHL SUB DUP3 SLOAD AND CALLER EQ PUSH2 0xE80 JUMP JUMPDEST DUP4 MLOAD PUSH1 0x1 PUSH1 0x1 PUSH1 0xA0 SHL SUB DUP5 AND PUSH1 0x20 DUP3 ADD MSTORE PUSH1 0x40 DUP2 ADD DUP7 SWAP1 MSTORE PUSH2 0xC34 SWAP1 PUSH2 0xC2E DUP2 PUSH1 0x60 DUP2 ADD PUSH2 0x7A1 JUMP JUMPDEST DUP4 PUSH2 0x1677 JUMP JUMPDEST ISZERO PUSH2 0xC47 JUMPI POP SWAP3 PUSH2 0x244 SWAP2 PUSH1 0x20 SWAP5 PUSH2 0x1178 JUMP JUMPDEST DUP4 MLOAD PUSH4 0x6CA537E7 PUSH1 0xE1 SHL DUP2 MSTORE REVERT JUMPDEST POP CALLVALUE PUSH2 0x176 JUMPI PUSH0 CALLDATASIZE PUSH1 0x3 NOT ADD SLT PUSH2 0x176 JUMPI PUSH2 0xC7D PUSH1 0x20 SWAP3 PUSH1 0x1 DUP1 PUSH1 0xA0 SHL SUB SWAP1 SLOAD AND CALLER EQ PUSH2 0xE80 JUMP JUMPDEST PUSH2 0x244 PUSH2 0xFA5 JUMP JUMPDEST POP CALLVALUE PUSH2 0x176 JUMPI PUSH1 0x20 CALLDATASIZE PUSH1 0x3 NOT ADD SLT PUSH2 0x176 JUMPI PUSH2 0x244 PUSH1 0x20 SWAP3 PUSH2 0xCA8 PUSH2 0x229 PUSH2 0xCAD JUMP JUMPDEST PUSH2 0xED6 JUMP JUMPDEST PUSH1 0x4 CALLDATALOAD SWAP1 PUSH1 0x1 PUSH1 0x1 PUSH1 0xA0 SHL SUB DUP3 AND DUP3 SUB PUSH2 0x176 JUMPI JUMP JUMPDEST PUSH1 0x24 CALLDATALOAD SWAP1 PUSH1 0x1 PUSH1 0x1 PUSH1 0xA0 SHL SUB DUP3 AND DUP3 SUB PUSH2 0x176 JUMPI JUMP JUMPDEST PUSH1 0x60 DUP2 ADD SWAP1 DUP2 LT PUSH8 0xFFFFFFFFFFFFFFFF DUP3 GT OR PUSH2 0xCF5 JUMPI PUSH1 0x40 MSTORE JUMP JUMPDEST PUSH4 0x4E487B71 PUSH1 0xE0 SHL PUSH0 MSTORE PUSH1 0x41 PUSH1 0x4 MSTORE PUSH1 0x24 PUSH0 REVERT JUMPDEST PUSH8 0xFFFFFFFFFFFFFFFF DUP2 GT PUSH2 0xCF5 JUMPI PUSH1 0x40 MSTORE JUMP JUMPDEST SWAP1 PUSH1 0x1F DUP1 NOT SWAP2 ADD AND DUP2 ADD SWAP1 DUP2 LT PUSH8 0xFFFFFFFFFFFFFFFF DUP3 GT OR PUSH2 0xCF5 JUMPI PUSH1 0x40 MSTORE JUMP JUMPDEST PUSH8 0xFFFFFFFFFFFFFFFF DUP2 GT PUSH2 0xCF5 JUMPI PUSH1 0x1F ADD PUSH1 0x1F NOT AND PUSH1 0x20 ADD SWAP1 JUMP JUMPDEST DUP2 PUSH1 0x1F DUP3 ADD SLT ISZERO PUSH2 0x176 JUMPI DUP1 CALLDATALOAD SWAP1 PUSH2 0xD72 DUP3 PUSH2 0xD3F JUMP JUMPDEST SWAP3 PUSH2 0xD80 PUSH1 0x40 MLOAD SWAP5 DUP6 PUSH2 0xD1D JUMP JUMPDEST DUP3 DUP5 MSTORE PUSH1 0x20 DUP4 DUP4 ADD ADD GT PUSH2 0x176 JUMPI DUP2 PUSH0 SWAP3 PUSH1 0x20 DUP1 SWAP4 ADD DUP4 DUP7 ADD CALLDATACOPY DUP4 ADD ADD MSTORE SWAP1 JUMP JUMPDEST SWAP2 SWAP1 PUSH1 0x60 DUP4 DUP3 SUB SLT PUSH2 0x176 JUMPI PUSH1 0x40 MLOAD SWAP1 PUSH2 0xDBA DUP3 PUSH2 0xCD9 JUMP JUMPDEST DUP2 SWAP4 DUP1 CALLDATALOAD SWAP2 PUSH8 0xFFFFFFFFFFFFFFFF SWAP3 DUP4 DUP2 GT PUSH2 0x176 JUMPI DUP2 PUSH2 0xDDC SWAP2 DUP5 ADD PUSH2 0xD5B JUMP JUMPDEST DUP5 MSTORE PUSH1 0x20 DUP3 ADD CALLDATALOAD DUP4 DUP2 GT PUSH2 0x176 JUMPI DUP2 PUSH2 0xDF6 SWAP2 DUP5 ADD PUSH2 0xD5B JUMP JUMPDEST PUSH1 0x20 DUP6 ADD MSTORE PUSH1 0x40 DUP3 ADD CALLDATALOAD SWAP3 DUP4 GT PUSH2 0x176 JUMPI PUSH1 0x40 SWAP3 PUSH2 0xE14 SWAP3 ADD PUSH2 0xD5B JUMP JUMPDEST SWAP2 ADD MSTORE JUMP JUMPDEST PUSH1 0x60 PUSH1 0x3 NOT DUP3 ADD SLT PUSH2 0x176 JUMPI PUSH1 0x4 CALLDATALOAD SWAP1 PUSH8 0xFFFFFFFFFFFFFFFF DUP3 GT PUSH2 0x176 JUMPI PUSH2 0xE44 SWAP2 PUSH1 0x4 ADD PUSH2 0xDA1 JUMP JUMPDEST SWAP1 PUSH1 0x24 CALLDATALOAD PUSH1 0x1 PUSH1 0x1 PUSH1 0xA0 SHL SUB DUP2 AND DUP2 SUB PUSH2 0x176 JUMPI SWAP1 PUSH1 0x44 CALLDATALOAD SWAP1 JUMP JUMPDEST PUSH0 JUMPDEST DUP4 DUP2 LT PUSH2 0xE70 JUMPI POP POP PUSH0 SWAP2 ADD MSTORE JUMP JUMPDEST DUP2 DUP2 ADD MLOAD DUP4 DUP3 ADD MSTORE PUSH1 0x20 ADD PUSH2 0xE61 JUMP JUMPDEST ISZERO PUSH2 0xE87 JUMPI JUMP JUMPDEST PUSH1 0x40 MLOAD PUSH3 0x461BCD PUSH1 0xE5 SHL DUP2 MSTORE PUSH1 0x20 PUSH1 0x4 DUP3 ADD MSTORE PUSH1 0x21 PUSH1 0x24 DUP3 ADD MSTORE PUSH32 0x4F6E6C792061646D696E2063616E2063616C6C20746869732066756E6374696F PUSH1 0x44 DUP3 ADD MSTORE PUSH1 0x37 PUSH1 0xF9 SHL PUSH1 0x64 DUP3 ADD MSTORE PUSH1 0x84 SWAP1 REVERT JUMPDEST PUSH0 SWAP1 PUSH1 0x1 PUSH1 0x1 PUSH1 0xA0 SHL SUB SWAP1 DUP2 AND SWAP1 DUP2 ISZERO PUSH2 0xF60 JUMPI PUSH1 0x3 SLOAD AND DUP1 EXTCODESIZE ISZERO PUSH2 0x176 JUMPI PUSH0 DUP1 SWAP2 PUSH1 0x24 PUSH1 0x40 MLOAD DUP1 SWAP5 DUP2 SWAP4 PUSH4 0x4C1D96AB PUSH1 0xE1 SHL DUP4 MSTORE DUP8 PUSH1 0x4 DUP5 ADD MSTORE GAS CALL SWAP1 DUP2 PUSH2 0xF4D JUMPI JUMPDEST POP PUSH2 0xF23 JUMPI POP SWAP1 JUMP JUMPDEST SWAP1 DUP1 PUSH32 0x8983A1F3C3CB45C24C8226B5B805E3B6EB49686530B808534B2A920129EFF651 SWAP2 LOG2 PUSH1 0x1 SWAP1 JUMP JUMPDEST PUSH2 0xF58 SWAP2 SWAP4 POP PUSH2 0xD09 JUMP JUMPDEST PUSH0 SWAP2 PUSH0 PUSH2 0xF1A JUMP JUMPDEST PUSH1 0x40 MLOAD PUSH3 0x461BCD PUSH1 0xE5 SHL DUP2 MSTORE PUSH1 0x20 PUSH1 0x4 DUP3 ADD MSTORE PUSH1 0x1B PUSH1 0x24 DUP3 ADD MSTORE PUSH32 0x496E76616C69642073747564792067726F757020616464726573730000000000 PUSH1 0x44 DUP3 ADD MSTORE PUSH1 0x64 SWAP1 REVERT JUMPDEST PUSH1 0x3 SLOAD PUSH0 SWAP1 PUSH1 0x1 PUSH1 0x1 PUSH1 0xA0 SHL SUB AND DUP1 EXTCODESIZE ISZERO PUSH2 0x176 JUMPI PUSH0 DUP1 SWAP2 PUSH1 0x24 PUSH1 0x40 MLOAD DUP1 SWAP5 DUP2 SWAP4 PUSH4 0x4C1D96AB PUSH1 0xE1 SHL DUP4 MSTORE ADDRESS PUSH1 0x4 DUP5 ADD MSTORE GAS CALL SWAP1 DUP2 PUSH2 0xFED JUMPI JUMPDEST POP PUSH2 0xFE7 JUMPI SWAP1 JUMP JUMPDEST POP PUSH1 0x1 SWAP1 JUMP JUMPDEST PUSH2 0xFF8 SWAP2 SWAP3 POP PUSH2 0xD09 JUMP JUMPDEST PUSH0 SWAP1 PUSH0 PUSH2 0xFDF JUMP JUMPDEST SWAP1 SWAP3 SWAP2 SWAP3 PUSH2 0x100D DUP2 PUSH2 0xD3F JUMP JUMPDEST SWAP2 PUSH2 0x101B PUSH1 0x40 MLOAD SWAP4 DUP5 PUSH2 0xD1D JUMP JUMPDEST DUP3 SWAP5 DUP3 DUP5 MSTORE DUP3 DUP3 ADD GT PUSH2 0x176 JUMPI PUSH1 0x20 PUSH2 0x1035 SWAP4 ADD SWAP1 PUSH2 0xE5F JUMP JUMPDEST JUMP JUMPDEST SWAP1 DUP1 PUSH1 0x1F DUP4 ADD SLT ISZERO PUSH2 0x176 JUMPI DUP2 MLOAD PUSH2 0x1051 SWAP3 PUSH1 0x20 ADD PUSH2 0x1000 JUMP JUMPDEST SWAP1 JUMP JUMPDEST SWAP1 PUSH1 0x20 SWAP1 DUP2 DUP4 DUP3 SUB SLT PUSH2 0x176 JUMPI DUP3 MLOAD PUSH8 0xFFFFFFFFFFFFFFFF SWAP4 DUP5 DUP3 GT PUSH2 0x176 JUMPI ADD SWAP1 DUP1 PUSH1 0x1F DUP4 ADD SLT ISZERO PUSH2 0x176 JUMPI DUP2 MLOAD SWAP4 DUP1 DUP6 GT PUSH2 0xCF5 JUMPI DUP5 PUSH1 0x5 SHL SWAP1 PUSH1 0x40 DUP1 MLOAD SWAP7 PUSH2 0x10A1 DUP8 DUP6 ADD DUP10 PUSH2 0xD1D JUMP JUMPDEST DUP8 MSTORE DUP6 DUP1 DUP9 ADD SWAP4 DUP7 ADD ADD SWAP5 DUP5 DUP7 GT PUSH2 0x176 JUMPI DUP7 DUP2 ADD SWAP4 JUMPDEST DUP7 DUP6 LT PUSH2 0x10CA JUMPI POP POP POP POP POP POP POP POP SWAP1 JUMP JUMPDEST DUP5 MLOAD DUP5 DUP2 GT PUSH2 0x176 JUMPI DUP3 ADD SWAP1 PUSH1 0x60 SWAP2 DUP3 PUSH1 0x1F NOT DUP3 DUP11 SUB ADD SLT PUSH2 0x176 JUMPI DUP5 MLOAD SWAP3 PUSH2 0x10F2 DUP5 PUSH2 0xCD9 JUMP JUMPDEST DUP11 DUP3 ADD MLOAD DUP5 MSTORE DUP6 DUP3 ADD MLOAD DUP8 DUP2 GT PUSH2 0x176 JUMPI DUP10 DUP13 PUSH2 0x1111 SWAP3 DUP6 ADD ADD PUSH2 0x1037 JUMP JUMPDEST DUP12 DUP6 ADD MSTORE DUP2 ADD MLOAD SWAP1 DUP7 DUP3 GT PUSH2 0x176 JUMPI ADD SWAP1 DUP8 PUSH1 0x3F DUP4 ADD SLT ISZERO PUSH2 0x176 JUMPI DUP10 SWAP3 PUSH2 0x1141 DUP10 DUP5 DUP9 DUP8 DUP1 SWAP8 ADD MLOAD SWAP2 ADD PUSH2 0x1000 JUMP JUMPDEST DUP7 DUP3 ADD MSTORE DUP2 MSTORE ADD SWAP5 ADD SWAP4 PUSH2 0x10B8 JUMP JUMPDEST DUP1 MLOAD DUP3 LT ISZERO PUSH2 0x1164 JUMPI PUSH1 0x20 SWAP2 PUSH1 0x5 SHL ADD ADD SWAP1 JUMP JUMPDEST PUSH4 0x4E487B71 PUSH1 0xE0 SHL PUSH0 MSTORE PUSH1 0x32 PUSH1 0x4 MSTORE PUSH1 0x24 PUSH0 REVERT JUMPDEST SWAP3 SWAP1 SWAP3 PUSH0 SWAP2 PUSH2 0x1194 PUSH1 0x20 DUP1 SWAP4 ADD MLOAD DUP4 DUP1 DUP3 MLOAD DUP4 ADD ADD SWAP2 ADD PUSH2 0x1054 JUMP JUMPDEST SWAP3 PUSH0 JUMPDEST DUP5 MLOAD DUP2 LT ISZERO PUSH2 0x1229 JUMPI PUSH2 0x151 PUSH2 0x11AD DUP3 DUP8 PUSH2 0x1150 JUMP JUMPDEST MLOAD MLOAD EQ PUSH2 0x11BD JUMPI JUMPDEST PUSH1 0x1 ADD PUSH2 0x1197 JUMP JUMPDEST DUP4 PUSH2 0x11C8 DUP3 DUP8 PUSH2 0x1150 JUMP JUMPDEST MLOAD ADD MLOAD SWAP1 DUP5 DUP3 DUP1 MLOAD DUP2 ADD SUB SLT PUSH2 0x176 JUMPI DUP5 PUSH1 0x1 SWAP3 ADD MLOAD PUSH32 0x12AEFBA8E18D93E84F6766F3CF651366CE20A012A5CA6DBF1B0443A9FF1CF582 PUSH2 0x1209 DUP4 DUP10 PUSH2 0x1150 JUMP JUMPDEST MLOAD MLOAD SWAP2 PUSH1 0x40 SWAP1 DUP2 MLOAD SWAP4 DUP5 MSTORE DUP9 DUP5 ADD MSTORE DUP5 DUP1 PUSH1 0xA0 SHL SUB DUP12 AND SWAP3 LOG2 SWAP1 POP PUSH2 0x11B5 JUMP JUMPDEST POP PUSH1 0x3 SLOAD SWAP2 SWAP6 SWAP1 SWAP5 SWAP4 POP PUSH1 0x1 PUSH1 0x1 PUSH1 0xA0 SHL SUB SWAP3 POP SWAP1 DUP3 AND DUP1 EXTCODESIZE ISZERO PUSH2 0x176 JUMPI PUSH1 0x40 MLOAD PUSH4 0x4D248487 PUSH1 0xE1 SHL DUP2 MSTORE PUSH1 0x1 PUSH1 0x1 PUSH1 0xA0 SHL SUB DUP4 AND PUSH1 0x4 DUP3 ADD MSTORE PUSH1 0x24 DUP2 ADD DUP6 SWAP1 MSTORE SWAP1 PUSH0 SWAP1 DUP3 SWAP1 DUP2 DUP4 DUP2 PUSH1 0x44 DUP2 ADD JUMPDEST SUB SWAP3 GAS CALL SWAP1 DUP2 PUSH2 0x1326 JUMPI JUMPDEST POP PUSH2 0x12DC JUMPI PUSH1 0x40 DUP1 MLOAD SWAP4 DUP5 MSTORE PUSH1 0x20 DUP5 ADD DUP2 SWAP1 MSTORE PUSH1 0xD SWAP1 DUP5 ADD MSTORE PUSH13 0x185D5D1A1BDC9A5D1E535A5B9D PUSH1 0x9A SHL PUSH1 0x60 DUP5 ADD MSTORE AND SWAP1 PUSH32 0x36E690C5F80DA3F9DA10E957F42FAC89E3FDE772861FFE24E95169AEDDA4E8BF SWAP1 PUSH1 0x80 SWAP1 LOG2 SWAP1 JUMP JUMPDEST PUSH1 0x40 DUP1 MLOAD SWAP4 DUP5 MSTORE PUSH1 0x20 DUP5 ADD DUP2 SWAP1 MSTORE PUSH1 0xD SWAP1 DUP5 ADD MSTORE PUSH13 0x185D5D1A1BDC9A5D1E535A5B9D PUSH1 0x9A SHL PUSH1 0x60 DUP5 ADD MSTORE AND SWAP2 POP PUSH0 DUP1 MLOAD PUSH1 0x20 PUSH2 0x1A89 DUP4 CODECOPY DUP2 MLOAD SWAP2 MSTORE SWAP1 DUP1 PUSH1 0x80 DUP2 ADD JUMPDEST SUB SWAP1 LOG2 PUSH1 0x1 SWAP1 JUMP JUMPDEST PUSH2 0x1331 SWAP2 SWAP6 POP PUSH2 0xD09 JUMP JUMPDEST PUSH0 SWAP4 PUSH0 PUSH2 0x1282 JUMP JUMPDEST ISZERO PUSH2 0x1340 JUMPI JUMP JUMPDEST PUSH1 0x40 MLOAD PUSH3 0x461BCD PUSH1 0xE5 SHL DUP2 MSTORE PUSH1 0x20 PUSH1 0x4 DUP3 ADD MSTORE PUSH1 0xE PUSH1 0x24 DUP3 ADD MSTORE PUSH14 0x139BDD08185D5D1A1BDC9A5E9959 PUSH1 0x92 SHL PUSH1 0x44 DUP3 ADD MSTORE PUSH1 0x64 SWAP1 REVERT JUMPDEST SWAP2 SWAP1 DUP3 ADD DUP1 SWAP3 GT PUSH2 0x1383 JUMPI JUMP JUMPDEST PUSH4 0x4E487B71 PUSH1 0xE0 SHL PUSH0 MSTORE PUSH1 0x11 PUSH1 0x4 MSTORE PUSH1 0x24 PUSH0 REVERT JUMPDEST PUSH1 0x80 SWAP2 DUP2 MSTORE PUSH1 0x40 PUSH1 0x20 DUP3 ADD MSTORE PUSH1 0x4 PUSH1 0x40 DUP3 ADD MSTORE PUSH4 0x1B5A5B9D PUSH1 0xE2 SHL PUSH1 0x60 DUP3 ADD MSTORE ADD SWAP1 JUMP JUMPDEST SWAP3 SWAP1 SWAP2 PUSH3 0x15180 TIMESTAMP DIV PUSH2 0x13CD DUP5 PUSH2 0x1521 JUMP JUMPDEST SWAP4 PUSH1 0x1 DUP1 PUSH1 0xA0 SHL SUB AND SWAP3 DUP4 PUSH0 MSTORE PUSH1 0x20 SWAP3 PUSH1 0x8 DUP5 MSTORE PUSH1 0x40 SWAP3 DUP4 PUSH0 KECCAK256 DUP2 PUSH0 MSTORE DUP6 MSTORE PUSH2 0x1405 DUP6 DUP6 PUSH0 KECCAK256 SLOAD SWAP10 ADD MLOAD DUP7 DUP1 DUP3 MLOAD DUP4 ADD ADD SWAP2 ADD PUSH2 0x1054 JUMP JUMPDEST SWAP8 PUSH0 JUMPDEST DUP10 MLOAD DUP2 LT ISZERO PUSH2 0x1491 JUMPI PUSH2 0x151 PUSH2 0x141E DUP3 DUP13 PUSH2 0x1150 JUMP JUMPDEST MLOAD MLOAD EQ PUSH2 0x142E JUMPI JUMPDEST PUSH1 0x1 ADD PUSH2 0x1408 JUMP JUMPDEST DUP7 PUSH2 0x1439 DUP3 DUP13 PUSH2 0x1150 JUMP JUMPDEST MLOAD ADD MLOAD SWAP1 DUP8 DUP3 DUP1 MLOAD DUP2 ADD SUB SLT PUSH2 0x176 JUMPI DUP9 PUSH32 0x12AEFBA8E18D93E84F6766F3CF651366CE20A012A5CA6DBF1B0443A9FF1CF582 DUP9 DUP14 PUSH2 0x147D DUP6 DUP14 PUSH1 0x1 SWAP9 ADD MLOAD SWAP3 PUSH2 0x1150 JUMP JUMPDEST MLOAD MLOAD SWAP1 DUP3 MLOAD SWAP2 DUP3 MSTORE DUP13 DUP3 ADD MSTORE LOG2 SWAP1 POP PUSH2 0x1426 JUMP JUMPDEST POP SWAP2 SWAP6 SWAP7 SWAP1 SWAP3 SWAP8 POP SWAP4 SWAP3 SWAP4 PUSH2 0x14A6 DUP7 DUP4 PUSH2 0x1376 JUMP JUMPDEST GT PUSH2 0x14E7 JUMPI SWAP2 PUSH2 0x131E SWAP4 SWAP2 PUSH2 0x14CA DUP7 PUSH0 DUP1 MLOAD PUSH1 0x20 PUSH2 0x1A89 DUP4 CODECOPY DUP2 MLOAD SWAP2 MSTORE SWAP8 SWAP6 PUSH2 0x1376 JUMP JUMPDEST SWAP2 DUP8 PUSH0 MSTORE PUSH1 0x8 DUP2 MSTORE DUP4 PUSH0 KECCAK256 SWAP2 PUSH0 MSTORE MSTORE DUP2 PUSH0 KECCAK256 SSTORE MLOAD SWAP2 DUP3 SWAP2 DUP3 PUSH2 0x1397 JUMP JUMPDEST POP POP POP PUSH32 0x36E690C5F80DA3F9DA10E957F42FAC89E3FDE772861FFE24E95169AEDDA4E8BF SWAP2 PUSH2 0x151A SWAP2 MLOAD SWAP2 DUP3 SWAP2 DUP3 PUSH2 0x1397 JUMP JUMPDEST SUB SWAP1 LOG2 PUSH0 SWAP1 JUMP JUMPDEST PUSH1 0x1 PUSH1 0x1 PUSH1 0xA0 SHL SUB AND PUSH0 SWAP1 DUP2 MSTORE PUSH1 0x6 PUSH1 0x20 MSTORE PUSH1 0x40 SWAP1 KECCAK256 SLOAD DUP1 ISZERO PUSH2 0x1541 JUMPI SWAP1 JUMP JUMPDEST POP PUSH1 0x7 SLOAD SWAP1 JUMP JUMPDEST SWAP1 PUSH3 0x15180 TIMESTAMP DIV SWAP2 PUSH2 0x1559 DUP2 PUSH2 0x1521 JUMP JUMPDEST SWAP1 PUSH1 0x1 DUP1 PUSH1 0xA0 SHL SUB AND SWAP3 DUP4 PUSH0 MSTORE PUSH1 0x8 PUSH1 0x20 MSTORE PUSH1 0x40 SWAP2 DUP3 PUSH0 KECCAK256 DUP3 PUSH0 MSTORE PUSH1 0x20 MSTORE DUP3 PUSH0 KECCAK256 SLOAD SWAP1 PUSH2 0x1586 DUP6 DUP4 PUSH2 0x1376 JUMP JUMPDEST GT PUSH2 0x15C9 JUMPI SWAP2 DUP4 SWAP2 PUSH2 0x15A9 PUSH0 DUP1 MLOAD PUSH1 0x20 PUSH2 0x1A89 DUP4 CODECOPY DUP2 MLOAD SWAP2 MSTORE SWAP6 PUSH2 0x131E SWAP6 PUSH2 0x1376 JUMP JUMPDEST SWAP1 DUP7 PUSH0 MSTORE PUSH1 0x8 PUSH1 0x20 MSTORE DUP3 PUSH0 KECCAK256 SWAP1 PUSH0 MSTORE PUSH1 0x20 MSTORE DUP2 PUSH0 KECCAK256 SSTORE MLOAD SWAP2 DUP3 SWAP2 DUP3 PUSH2 0x1397 JUMP JUMPDEST POP POP MLOAD PUSH32 0x36E690C5F80DA3F9DA10E957F42FAC89E3FDE772861FFE24E95169AEDDA4E8BF SWAP2 DUP2 SWAP1 PUSH2 0x151A SWAP1 DUP3 PUSH2 0x1397 JUMP JUMPDEST PUSH1 0x3 SLOAD PUSH0 SWAP3 SWAP2 PUSH1 0x1 PUSH1 0x1 PUSH1 0xA0 SHL SUB SWAP2 DUP3 AND DUP1 EXTCODESIZE ISZERO PUSH2 0x176 JUMPI PUSH1 0x40 MLOAD PUSH4 0x4D248487 PUSH1 0xE1 SHL DUP2 MSTORE PUSH1 0x1 PUSH1 0x1 PUSH1 0xA0 SHL SUB DUP4 AND PUSH1 0x4 DUP3 ADD MSTORE PUSH1 0x24 DUP2 ADD DUP6 SWAP1 MSTORE SWAP1 PUSH0 SWAP1 DUP3 SWAP1 DUP2 DUP4 DUP2 PUSH1 0x44 DUP2 ADD PUSH2 0x1277 JUMP JUMPDEST PUSH1 0x20 SWAP1 PUSH2 0x165C PUSH1 0x14 SWAP5 SWAP4 DUP3 DUP2 MLOAD SWAP5 DUP6 SWAP3 ADD PUSH2 0xE5F JUMP JUMPDEST ADD SWAP1 PUSH12 0xFFFFFFFFFFFFFFFFFFFFFFFF NOT SWAP1 PUSH1 0x60 SHL AND DUP2 MSTORE ADD SWAP1 JUMP JUMPDEST SWAP1 DUP2 MLOAD SWAP2 DUP3 MLOAD SWAP3 PUSH1 0x20 SWAP4 DUP2 ADD SWAP1 PUSH1 0xA0 DUP2 DUP7 DUP5 ADD SWAP4 SUB SLT PUSH2 0x176 JUMPI DUP5 DUP2 ADD MLOAD SWAP1 PUSH8 0xFFFFFFFFFFFFFFFF SWAP2 DUP3 DUP2 GT PUSH2 0x176 JUMPI DUP4 DUP8 PUSH2 0x16B5 SWAP3 DUP5 ADD ADD PUSH2 0x1037 JUMP JUMPDEST SWAP5 PUSH1 0x40 SWAP6 DUP7 DUP4 ADD MLOAD SWAP5 PUSH1 0x60 DUP5 ADD MLOAD SWAP1 DUP6 DUP3 GT PUSH2 0x176 JUMPI DUP10 PUSH2 0x16D8 SWAP3 DUP7 ADD ADD PUSH2 0x1037 JUMP JUMPDEST SWAP3 PUSH1 0xA0 PUSH1 0x80 DUP3 ADD MLOAD SWAP2 ADD MLOAD SWAP2 DUP3 ISZERO DUP1 ISZERO DUP1 SWAP5 SUB PUSH2 0x176 JUMPI PUSH2 0x18D6 JUMPI SWAP1 PUSH2 0x1718 PUSH2 0x1734 PUSH2 0x173D SWAP9 SWAP8 SWAP7 SWAP6 SWAP5 SWAP4 DUP13 DUP12 ADD MLOAD DUP14 DUP14 MLOAD SWAP5 DUP6 SWAP2 DUP3 ADD SWAP3 CALLER SWAP1 DUP5 PUSH2 0x1646 JUMP JUMPDEST SUB SWAP4 PUSH2 0x172C PUSH1 0x1F NOT SWAP6 DUP7 DUP2 ADD DUP4 MSTORE DUP3 PUSH2 0xD1D JUMP JUMPDEST MLOAD SWAP1 KECCAK256 PUSH2 0x193E JUMP JUMPDEST SWAP1 SWAP10 SWAP2 SWAP10 PUSH2 0x1978 JUMP JUMPDEST PUSH1 0x1 SLOAD PUSH1 0x1 PUSH1 0x1 PUSH1 0xA0 SHL SUB SWAP1 DUP2 AND SWAP10 SWAP1 SWAP9 DUP10 AND DUP11 SWAP1 SUB PUSH2 0x1883 JUMPI PUSH2 0x1775 PUSH2 0x1781 DUP10 SWAP4 DUP15 DUP15 DUP1 SWAP6 ADD MLOAD SWAP5 MLOAD SWAP4 DUP5 SWAP2 DUP3 ADD SWAP6 CALLER SWAP1 DUP8 PUSH2 0x1646 JUMP JUMPDEST SUB SWAP1 DUP2 ADD DUP4 MSTORE DUP3 PUSH2 0xD1D JUMP JUMPDEST MLOAD SWAP1 KECCAK256 SWAP4 DUP12 DUP2 MLOAD SWAP2 ADD KECCAK256 SWAP4 SUB PUSH2 0x183F JUMPI DUP9 MLOAD SWAP6 DUP11 DUP8 ADD SWAP4 DUP5 MSTORE DUP10 DUP8 ADD MSTORE CALLER PUSH1 0x60 SHL PUSH1 0x60 DUP8 ADD MSTORE PUSH1 0x74 DUP7 ADD MSTORE PUSH1 0xF8 SHL PUSH1 0x94 DUP6 ADD MSTORE PUSH1 0x75 DUP5 MSTORE PUSH1 0xA0 DUP5 ADD SWAP3 DUP5 DUP5 LT SWAP1 DUP5 GT OR PUSH2 0xCF5 JUMPI PUSH2 0x17E3 SWAP4 PUSH2 0x17DA SWAP4 DUP9 MSTORE MLOAD SWAP1 KECCAK256 PUSH2 0x193E JUMP JUMPDEST SWAP1 SWAP3 SWAP2 SWAP3 PUSH2 0x1978 JUMP JUMPDEST AND SUB PUSH2 0x17F0 JUMPI POP POP PUSH1 0x1 SWAP1 JUMP JUMPDEST PUSH1 0x84 SWAP3 POP MLOAD SWAP1 PUSH3 0x461BCD PUSH1 0xE5 SHL DUP3 MSTORE PUSH1 0x4 DUP3 ADD MSTORE PUSH1 0x23 PUSH1 0x24 DUP3 ADD MSTORE PUSH32 0x496E76616C6964207369676E617475726520666F722066756E6374696F6E2063 PUSH1 0x44 DUP3 ADD MSTORE PUSH3 0x185B1B PUSH1 0xEA SHL PUSH1 0x64 DUP3 ADD MSTORE REVERT JUMPDEST DUP9 MLOAD PUSH3 0x461BCD PUSH1 0xE5 SHL DUP2 MSTORE PUSH1 0x4 DUP2 ADD DUP12 SWAP1 MSTORE PUSH1 0x1C PUSH1 0x24 DUP3 ADD MSTORE PUSH32 0x496E76616C6964206B65726E656C20706172616D732064696765737400000000 PUSH1 0x44 DUP3 ADD MSTORE PUSH1 0x64 SWAP1 REVERT JUMPDEST DUP11 MLOAD PUSH3 0x461BCD PUSH1 0xE5 SHL DUP2 MSTORE PUSH1 0x4 DUP2 ADD DUP14 SWAP1 MSTORE PUSH1 0x26 PUSH1 0x24 DUP3 ADD MSTORE PUSH32 0x496E76616C6964207369676E617475726520666F72206B65726E656C20726573 PUSH1 0x44 DUP3 ADD MSTORE PUSH6 0x706F6E736573 PUSH1 0xD0 SHL PUSH1 0x64 DUP3 ADD MSTORE PUSH1 0x84 SWAP1 REVERT JUMPDEST DUP9 MLOAD PUSH3 0x461BCD PUSH1 0xE5 SHL DUP2 MSTORE PUSH1 0x4 DUP2 ADD DUP12 SWAP1 MSTORE PUSH1 0x16 PUSH1 0x24 DUP3 ADD MSTORE PUSH22 0x119A5B985B081BDC1A5B9A5BDB881C995D995C9D1959 PUSH1 0x52 SHL PUSH1 0x44 DUP3 ADD MSTORE PUSH1 0x64 SWAP1 REVERT JUMPDEST PUSH0 SLOAD PUSH1 0x1 PUSH1 0x1 PUSH1 0xA0 SHL SUB AND CALLER SUB PUSH2 0x1926 JUMPI JUMP JUMPDEST PUSH1 0x40 MLOAD PUSH4 0x118CDAA7 PUSH1 0xE0 SHL DUP2 MSTORE CALLER PUSH1 0x4 DUP3 ADD MSTORE PUSH1 0x24 SWAP1 REVERT JUMPDEST DUP2 MLOAD SWAP2 SWAP1 PUSH1 0x41 DUP4 SUB PUSH2 0x196E JUMPI PUSH2 0x1967 SWAP3 POP PUSH1 0x20 DUP3 ADD MLOAD SWAP1 PUSH1 0x60 PUSH1 0x40 DUP5 ADD MLOAD SWAP4 ADD MLOAD PUSH0 BYTE SWAP1 PUSH2 0x19FB JUMP JUMPDEST SWAP2 SWAP3 SWAP1 SWAP2 SWAP1 JUMP JUMPDEST POP POP PUSH0 SWAP2 PUSH1 0x2 SWAP2 SWAP1 JUMP JUMPDEST PUSH1 0x4 DUP2 LT ISZERO PUSH2 0x19E7 JUMPI DUP1 PUSH2 0x198A JUMPI POP POP JUMP JUMPDEST PUSH1 0x1 DUP2 SUB PUSH2 0x19A4 JUMPI PUSH1 0x40 MLOAD PUSH4 0xF645EEDF PUSH1 0xE0 SHL DUP2 MSTORE PUSH1 0x4 SWAP1 REVERT JUMPDEST PUSH1 0x2 DUP2 SUB PUSH2 0x19C5 JUMPI PUSH1 0x40 MLOAD PUSH4 0xFCE698F7 PUSH1 0xE0 SHL DUP2 MSTORE PUSH1 0x4 DUP2 ADD DUP4 SWAP1 MSTORE PUSH1 0x24 SWAP1 REVERT JUMPDEST PUSH1 0x3 EQ PUSH2 0x19CF JUMPI POP JUMP JUMPDEST PUSH1 0x24 SWAP1 PUSH1 0x40 MLOAD SWAP1 PUSH4 0x35E2F383 PUSH1 0xE2 SHL DUP3 MSTORE PUSH1 0x4 DUP3 ADD MSTORE REVERT JUMPDEST PUSH4 0x4E487B71 PUSH1 0xE0 SHL PUSH0 MSTORE PUSH1 0x21 PUSH1 0x4 MSTORE PUSH1 0x24 PUSH0 REVERT JUMPDEST SWAP2 SWAP1 PUSH32 0x7FFFFFFFFFFFFFFFFFFFFFFFFFFFFFFF5D576E7357A4501DDFE92F46681B20A0 DUP5 GT PUSH2 0x1A7D JUMPI SWAP2 PUSH1 0x20 SWAP4 PUSH1 0x80 SWAP3 PUSH1 0xFF PUSH0 SWAP6 PUSH1 0x40 MLOAD SWAP5 DUP6 MSTORE AND DUP7 DUP5 ADD MSTORE PUSH1 0x40 DUP4 ADD MSTORE PUSH1 0x60 DUP3 ADD MSTORE DUP3 DUP1 MSTORE PUSH1 0x1 GAS STATICCALL ISZERO PUSH2 0x1A72 JUMPI PUSH0 MLOAD PUSH1 0x1 PUSH1 0x1 PUSH1 0xA0 SHL SUB DUP2 AND ISZERO PUSH2 0x1A68 JUMPI SWAP1 PUSH0 SWAP1 PUSH0 SWAP1 JUMP JUMPDEST POP PUSH0 SWAP1 PUSH1 0x1 SWAP1 PUSH0 SWAP1 JUMP JUMPDEST PUSH1 0x40 MLOAD RETURNDATASIZE PUSH0 DUP3 RETURNDATACOPY RETURNDATASIZE SWAP1 REVERT JUMPDEST POP POP POP PUSH0 SWAP2 PUSH1 0x3 SWAP2 SWAP1 JUMP INVALID MULMOD 0xE7 0xE3 XOR 0xD9 REVERT 0xE6 CREATE 0xE5 0xCB 0xB2 COINBASE DUP11 POP 0x24 TLOAD KECCAK256 PUSH4 0xCE96946E 0x27 GT 0xC3 DUP15 SWAP13 0x2B BALANCE 0x27 0xE9 0xB3 LOG2 PUSH5 0x6970667358 0x22 SLT KECCAK256 0xE9 EXTCODESIZE 0x24 DUP2 PUSH18 0x27B765CAFD0D6C3B9DEF95A639F7DFC601B0 0xE3 AND 0xC6 GASPRICE 0x22 PUSH21 0x73D2CB64736F6C6343000818003300000000000000 "
		},
		"gasEstimates": {
			"creation": {
				"codeDepositCost": "1375600",
				"executionCost": "infinite",
				"totalCost": "infinite"
			},
			"external": {
				"admin()": "2872",
				"authorizeContract(address)": "30185",
				"authorizeMint(address,uint256)": "infinite",
				"authorizeMintWithKRNL((bytes,bytes,bytes),address,uint256)": "infinite",
				"authorizeStudyGroupAsMinter(address)": "infinite",
				"authorizeTransfer(address,address,uint256)": "infinite",
				"authorizeTransferWithKRNL((bytes,bytes,bytes),address,address,uint256)": "infinite",
				"authorizedContracts(address)": "2930",
				"deauthorizeContract(address)": "30185",
				"defaultDailyLimit()": "2724",
				"executed(bytes)": "infinite",
				"getCurrentDay()": "295",
				"getRemainingDailyLimit(address)": "7420",
				"getUserDailyLimit(address)": "4835",
				"mintTokens(address,uint256)": "infinite",
				"mintTokensWithKRNL((bytes,bytes,bytes),address,uint256)": "infinite",
				"owner()": "2568",
				"renounceOwnership()": "28271",
				"requestMinterRole()": "infinite",
				"setDefaultDailyLimit(uint256)": "24846",
				"setStudyToken(address)": "27022",
				"setTokenAuthorityPublicKey(address)": "27119",
				"setUserDailyLimit(address,uint256)": "26064",
				"studyToken()": "2635",
				"tokenAuthorityPublicKey()": "2437",
				"transferOwnership(address)": "28732",
				"userDailyLimits(address)": "2522",
				"userDailyUsage(address,uint256)": "2894"
			}
		},
		"methodIdentifiers": {
			"admin()": "f851a440",
			"authorizeContract(address)": "67561d93",
			"authorizeMint(address,uint256)": "9b32ea6d",
			"authorizeMintWithKRNL((bytes,bytes,bytes),address,uint256)": "7561dfd4",
			"authorizeStudyGroupAsMinter(address)": "0a0d6de1",
			"authorizeTransfer(address,address,uint256)": "32a34ad0",
			"authorizeTransferWithKRNL((bytes,bytes,bytes),address,address,uint256)": "b108d288",
			"authorizedContracts(address)": "d5b9221b",
			"deauthorizeContract(address)": "6e861c0e",
			"defaultDailyLimit()": "c76b0888",
			"executed(bytes)": "909dd263",
			"getCurrentDay()": "3e6968b6",
			"getRemainingDailyLimit(address)": "ec37d259",
			"getUserDailyLimit(address)": "77865f91",
			"mintTokens(address,uint256)": "f0dda65c",
			"mintTokensWithKRNL((bytes,bytes,bytes),address,uint256)": "12ae1c50",
			"owner()": "8da5cb5b",
			"renounceOwnership()": "715018a6",
			"requestMinterRole()": "113018c5",
			"setDefaultDailyLimit(uint256)": "bebbcfe6",
			"setStudyToken(address)": "b09a8a04",
			"setTokenAuthorityPublicKey(address)": "d213d86b",
			"setUserDailyLimit(address,uint256)": "177c49a7",
			"studyToken()": "a7481b5b",
			"tokenAuthorityPublicKey()": "4ba1cfe4",
			"transferOwnership(address)": "f2fde38b",
			"userDailyLimits(address)": "360cf54a",
			"userDailyUsage(address,uint256)": "b6fa284d"
		}
	},
	"abi": [
		{
			"inputs": [
				{
					"internalType": "address",
					"name": "_studyTokenAddress",
					"type": "address"
				},
				{
					"internalType": "uint256",
					"name": "_defaultDailyLimit",
					"type": "uint256"
				},
				{
					"internalType": "address",
					"name": "_tokenAuthorityPublicKey",
					"type": "address"
				}
			],
			"stateMutability": "nonpayable",
			"type": "constructor"
		},
		{
			"inputs": [],
			"name": "ECDSAInvalidSignature",
			"type": "error"
		},
		{
			"inputs": [
				{
					"internalType": "uint256",
					"name": "length",
					"type": "uint256"
				}
			],
			"name": "ECDSAInvalidSignatureLength",
			"type": "error"
		},
		{
			"inputs": [
				{
					"internalType": "bytes32",
					"name": "s",
					"type": "bytes32"
				}
			],
			"name": "ECDSAInvalidSignatureS",
			"type": "error"
		},
		{
			"inputs": [
				{
					"internalType": "address",
					"name": "owner",
					"type": "address"
				}
			],
			"name": "OwnableInvalidOwner",
			"type": "error"
		},
		{
			"inputs": [
				{
					"internalType": "address",
					"name": "account",
					"type": "address"
				}
			],
			"name": "OwnableUnauthorizedAccount",
			"type": "error"
		},
		{
			"inputs": [],
			"name": "UnauthorizedTransaction",
			"type": "error"
		},
		{
			"anonymous": false,
			"inputs": [
				{
					"indexed": true,
					"internalType": "address",
					"name": "contractAddress",
					"type": "address"
				}
			],
			"name": "ContractAuthorized",
			"type": "event"
		},
		{
			"anonymous": false,
			"inputs": [
				{
					"indexed": true,
					"internalType": "address",
					"name": "contractAddress",
					"type": "address"
				}
			],
			"name": "ContractDeauthorized",
			"type": "event"
		},
		{
			"anonymous": false,
			"inputs": [
				{
					"indexed": true,
					"internalType": "address",
					"name": "user",
					"type": "address"
				},
				{
					"indexed": false,
					"internalType": "uint256",
					"name": "kernelId",
					"type": "uint256"
				},
				{
					"indexed": false,
					"internalType": "uint256",
					"name": "score",
					"type": "uint256"
				}
			],
			"name": "KernelOperationResult",
			"type": "event"
		},
		{
			"anonymous": false,
			"inputs": [
				{
					"indexed": true,
					"internalType": "address",
					"name": "previousOwner",
					"type": "address"
				},
				{
					"indexed": true,
					"internalType": "address",
					"name": "newOwner",
					"type": "address"
				}
			],
			"name": "OwnershipTransferred",
			"type": "event"
		},
		{
			"anonymous": false,
			"inputs": [
				{
					"indexed": true,
					"internalType": "address",
					"name": "user",
					"type": "address"
				},
				{
					"indexed": false,
					"internalType": "uint256",
					"name": "amount",
					"type": "uint256"
				},
				{
					"indexed": false,
					"internalType": "string",
					"name": "operation",
					"type": "string"
				}
			],
			"name": "TokenOperationApproved",
			"type": "event"
		},
		{
			"anonymous": false,
			"inputs": [
				{
					"indexed": true,
					"internalType": "address",
					"name": "user",
					"type": "address"
				},
				{
					"indexed": false,
					"internalType": "uint256",
					"name": "amount",
					"type": "uint256"
				},
				{
					"indexed": false,
					"internalType": "string",
					"name": "operation",
					"type": "string"
				}
			],
			"name": "TokenOperationDenied",
			"type": "event"
		},
		{
			"anonymous": false,
			"inputs": [
				{
					"indexed": true,
					"internalType": "address",
					"name": "user",
					"type": "address"
				},
				{
					"indexed": false,
					"internalType": "uint256",
					"name": "limit",
					"type": "uint256"
				}
			],
			"name": "UserLimitSet",
			"type": "event"
		},
		{
			"inputs": [],
			"name": "admin",
			"outputs": [
				{
					"internalType": "address",
					"name": "",
					"type": "address"
				}
			],
			"stateMutability": "view",
			"type": "function"
		},
		{
			"inputs": [
				{
					"internalType": "address",
					"name": "contractAddress",
					"type": "address"
				}
			],
			"name": "authorizeContract",
			"outputs": [],
			"stateMutability": "nonpayable",
			"type": "function"
		},
		{
			"inputs": [
				{
					"internalType": "address",
					"name": "to",
					"type": "address"
				},
				{
					"internalType": "uint256",
					"name": "amount",
					"type": "uint256"
				}
			],
			"name": "authorizeMint",
			"outputs": [
				{
					"internalType": "bool",
					"name": "",
					"type": "bool"
				}
			],
			"stateMutability": "nonpayable",
			"type": "function"
		},
		{
			"inputs": [
				{
					"components": [
						{
							"internalType": "bytes",
							"name": "auth",
							"type": "bytes"
						},
						{
							"internalType": "bytes",
							"name": "kernelResponses",
							"type": "bytes"
						},
						{
							"internalType": "bytes",
							"name": "kernelParams",
							"type": "bytes"
						}
					],
					"internalType": "struct KrnlPayload",
					"name": "krnlPayload",
					"type": "tuple"
				},
				{
					"internalType": "address",
					"name": "to",
					"type": "address"
				},
				{
					"internalType": "uint256",
					"name": "amount",
					"type": "uint256"
				}
			],
			"name": "authorizeMintWithKRNL",
			"outputs": [
				{
					"internalType": "bool",
					"name": "",
					"type": "bool"
				}
			],
			"stateMutability": "nonpayable",
			"type": "function"
		},
		{
			"inputs": [
				{
					"internalType": "address",
					"name": "studyGroupAddress",
					"type": "address"
				}
			],
			"name": "authorizeStudyGroupAsMinter",
			"outputs": [
				{
					"internalType": "bool",
					"name": "",
					"type": "bool"
				}
			],
			"stateMutability": "nonpayable",
			"type": "function"
		},
		{
			"inputs": [
				{
					"internalType": "address",
					"name": "from",
					"type": "address"
				},
				{
					"internalType": "address",
					"name": "to",
					"type": "address"
				},
				{
					"internalType": "uint256",
					"name": "amount",
					"type": "uint256"
				}
			],
			"name": "authorizeTransfer",
			"outputs": [
				{
					"internalType": "bool",
					"name": "",
					"type": "bool"
				}
			],
			"stateMutability": "nonpayable",
			"type": "function"
		},
		{
			"inputs": [
				{
					"components": [
						{
							"internalType": "bytes",
							"name": "auth",
							"type": "bytes"
						},
						{
							"internalType": "bytes",
							"name": "kernelResponses",
							"type": "bytes"
						},
						{
							"internalType": "bytes",
							"name": "kernelParams",
							"type": "bytes"
						}
					],
					"internalType": "struct KrnlPayload",
					"name": "krnlPayload",
					"type": "tuple"
				},
				{
					"internalType": "address",
					"name": "from",
					"type": "address"
				},
				{
					"internalType": "address",
					"name": "to",
					"type": "address"
				},
				{
					"internalType": "uint256",
					"name": "amount",
					"type": "uint256"
				}
			],
			"name": "authorizeTransferWithKRNL",
			"outputs": [
				{
					"internalType": "bool",
					"name": "",
					"type": "bool"
				}
			],
			"stateMutability": "nonpayable",
			"type": "function"
		},
		{
			"inputs": [
				{
					"internalType": "address",
					"name": "",
					"type": "address"
				}
			],
			"name": "authorizedContracts",
			"outputs": [
				{
					"internalType": "bool",
					"name": "",
					"type": "bool"
				}
			],
			"stateMutability": "view",
			"type": "function"
		},
		{
			"inputs": [
				{
					"internalType": "address",
					"name": "contractAddress",
					"type": "address"
				}
			],
			"name": "deauthorizeContract",
			"outputs": [],
			"stateMutability": "nonpayable",
			"type": "function"
		},
		{
			"inputs": [],
			"name": "defaultDailyLimit",
			"outputs": [
				{
					"internalType": "uint256",
					"name": "",
					"type": "uint256"
				}
			],
			"stateMutability": "view",
			"type": "function"
		},
		{
			"inputs": [
				{
					"internalType": "bytes",
					"name": "",
					"type": "bytes"
				}
			],
			"name": "executed",
			"outputs": [
				{
					"internalType": "bool",
					"name": "",
					"type": "bool"
				}
			],
			"stateMutability": "view",
			"type": "function"
		},
		{
			"inputs": [],
			"name": "getCurrentDay",
			"outputs": [
				{
					"internalType": "uint256",
					"name": "",
					"type": "uint256"
				}
			],
			"stateMutability": "view",
			"type": "function"
		},
		{
			"inputs": [
				{
					"internalType": "address",
					"name": "user",
					"type": "address"
				}
			],
			"name": "getRemainingDailyLimit",
			"outputs": [
				{
					"internalType": "uint256",
					"name": "",
					"type": "uint256"
				}
			],
			"stateMutability": "view",
			"type": "function"
		},
		{
			"inputs": [
				{
					"internalType": "address",
					"name": "user",
					"type": "address"
				}
			],
			"name": "getUserDailyLimit",
			"outputs": [
				{
					"internalType": "uint256",
					"name": "",
					"type": "uint256"
				}
			],
			"stateMutability": "view",
			"type": "function"
		},
		{
			"inputs": [
				{
					"internalType": "address",
					"name": "to",
					"type": "address"
				},
				{
					"internalType": "uint256",
					"name": "amount",
					"type": "uint256"
				}
			],
			"name": "mintTokens",
			"outputs": [
				{
					"internalType": "bool",
					"name": "",
					"type": "bool"
				}
			],
			"stateMutability": "nonpayable",
			"type": "function"
		},
		{
			"inputs": [
				{
					"components": [
						{
							"internalType": "bytes",
							"name": "auth",
							"type": "bytes"
						},
						{
							"internalType": "bytes",
							"name": "kernelResponses",
							"type": "bytes"
						},
						{
							"internalType": "bytes",
							"name": "kernelParams",
							"type": "bytes"
						}
					],
					"internalType": "struct KrnlPayload",
					"name": "krnlPayload",
					"type": "tuple"
				},
				{
					"internalType": "address",
					"name": "to",
					"type": "address"
				},
				{
					"internalType": "uint256",
					"name": "amount",
					"type": "uint256"
				}
			],
			"name": "mintTokensWithKRNL",
			"outputs": [
				{
					"internalType": "bool",
					"name": "",
					"type": "bool"
				}
			],
			"stateMutability": "nonpayable",
			"type": "function"
		},
		{
			"inputs": [],
			"name": "owner",
			"outputs": [
				{
					"internalType": "address",
					"name": "",
					"type": "address"
				}
			],
			"stateMutability": "view",
			"type": "function"
		},
		{
			"inputs": [],
			"name": "renounceOwnership",
			"outputs": [],
			"stateMutability": "nonpayable",
			"type": "function"
		},
		{
			"inputs": [],
			"name": "requestMinterRole",
			"outputs": [
				{
					"internalType": "bool",
					"name": "",
					"type": "bool"
				}
			],
			"stateMutability": "nonpayable",
			"type": "function"
		},
		{
			"inputs": [
				{
					"internalType": "uint256",
					"name": "limit",
					"type": "uint256"
				}
			],
			"name": "setDefaultDailyLimit",
			"outputs": [],
			"stateMutability": "nonpayable",
			"type": "function"
		},
		{
			"inputs": [
				{
					"internalType": "address",
					"name": "_studyTokenAddress",
					"type": "address"
				}
			],
			"name": "setStudyToken",
			"outputs": [],
			"stateMutability": "nonpayable",
			"type": "function"
		},
		{
			"inputs": [
				{
					"internalType": "address",
					"name": "_tokenAuthorityPublicKey",
					"type": "address"
				}
			],
			"name": "setTokenAuthorityPublicKey",
			"outputs": [],
			"stateMutability": "nonpayable",
			"type": "function"
		},
		{
			"inputs": [
				{
					"internalType": "address",
					"name": "user",
					"type": "address"
				},
				{
					"internalType": "uint256",
					"name": "limit",
					"type": "uint256"
				}
			],
			"name": "setUserDailyLimit",
			"outputs": [],
			"stateMutability": "nonpayable",
			"type": "function"
		},
		{
			"inputs": [],
			"name": "studyToken",
			"outputs": [
				{
					"internalType": "contract StudyToken",
					"name": "",
					"type": "address"
				}
			],
			"stateMutability": "view",
			"type": "function"
		},
		{
			"inputs": [],
			"name": "tokenAuthorityPublicKey",
			"outputs": [
				{
					"internalType": "address",
					"name": "",
					"type": "address"
				}
			],
			"stateMutability": "view",
			"type": "function"
		},
		{
			"inputs": [
				{
					"internalType": "address",
					"name": "newOwner",
					"type": "address"
				}
			],
			"name": "transferOwnership",
			"outputs": [],
			"stateMutability": "nonpayable",
			"type": "function"
		},
		{
			"inputs": [
				{
					"internalType": "address",
					"name": "",
					"type": "address"
				}
			],
			"name": "userDailyLimits",
			"outputs": [
				{
					"internalType": "uint256",
					"name": "",
					"type": "uint256"
				}
			],
			"stateMutability": "view",
			"type": "function"
		},
		{
			"inputs": [
				{
					"internalType": "address",
					"name": "",
					"type": "address"
				},
				{
					"internalType": "uint256",
					"name": "",
					"type": "uint256"
				}
			],
			"name": "userDailyUsage",
			"outputs": [
				{
					"internalType": "uint256",
					"name": "",
					"type": "uint256"
				}
			],
			"stateMutability": "view",
			"type": "function"
		}
	]
}