{
	"data": {
		"bytecode": {
			"linkReferences": {},
			"object": "6080604090808252346200062e578062002e7780380380916200002382856200064e565b83396020928391810103126200062e57516001600160a01b03808216918290036200062e57811562000617575f548260018060a01b03198216175f55167f8be0079c531659141344cd1fd0a4f28419497f9722a3daafe3b4186f6b6457e05f80a360ff199060328260065416176006556200009d6200068e565b805180519192906001600160401b03908184116200037d576001948554948686811c961680156200060c575b8587101462000456578492601f96878111620005b5575b50839087831160011462000552575f91908362000546575b50505f19600383901b1c191690871b1786555b01518051908282116200037d57600254908682811c921680156200053b575b8583101462000456578186849311620004e7575b50849086831160011462000481575f9262000475575b50505f19600383901b1c191690851b176002555b620001726200068e565b9081518051928284116200037d576003938454928884811c941680156200046a575b8785101462000456578388889511620003ff575b5083908883116001146200039d575f91908362000391575b50505f1982871b1c191690881b1784555b01519182519182116200037d5760049283548781811c9116801562000372575b868210146200035f5786811162000317575b5084958311600114620002b0576008955f929184620002a4575b505082871b925f19911b1c19161790555b6106395f5260098152845f20838582541617905573c770eac29244c1f88e14a61a6b99d184bfae93f55f5260078152845f2083858254161790557f876924e18dd46dd3cbcad570a87137bbd828a7d0f3cad309f78ad2c9402eeeb75f5252825f20918254161790555161253b90816200093c8239f35b015191505f806200021d565b869291601f19831696855f52865f20925f5b898110620002ff57508460089910620002e5575b50505050811b0190556200022e565b01519060f8845f19921b161c191690555f808080620002d6565b8183015185558a9690940193918801918801620002c2565b845f52855f208780860160051c82019288871062000355575b0160051c019088905b8281106200034957505062000203565b5f815501889062000339565b9250819262000330565b602285634e487b7160e01b5f525260245ffd5b90607f1690620001f1565b634e487b7160e01b5f52604160045260245ffd5b015190505f80620001c0565b899291601f19831691885f52865f20925f5b818110620003e657508411620003ce575b505050811b018455620001d1565b01515f1983891b60f8161c191690555f8080620003c0565b8383015185558b988e97909501949384019301620003af565b9091929350855f52865f208880850160051c8201928986106200044c575b918b918a97969594930160051c01915b8281106200043d575050620001a8565b5f81558996508b91016200042d565b925081926200041d565b634e487b7160e01b5f52602260045260245ffd5b93607f169362000194565b015190505f8062000154565b90879350601f1983169160025f52865f20925f5b88828210620004d05750508411620004b7575b505050811b0160025562000168565b01515f1960f88460031b161c191690555f8080620004a8565b8385015186558b9790950194938401930162000495565b90915060025f52845f208680850160051c82019287861062000531575b918991869594930160051c01915b828110620005225750506200013e565b5f815585945089910162000512565b9250819262000504565b91607f16916200012a565b015190505f80620000f8565b889291601f19831691845f52865f20925f5b8181106200059c5750841162000583575b505050811b0186556200010b565b01515f1960f88460031b161c191690555f808062000575565b8383015185558a988d9790950194938401930162000564565b9091929350875f52855f208780850160051c82019288861062000602575b918a918997969594930160051c01915b828110620005f3575050620000e0565b5f81558896508a9101620005e3565b92508192620005d3565b95607f1695620000c9565b8351631e4fbdf760e01b81525f6004820152602490fd5b5f80fd5b604081019081106001600160401b038211176200037d57604052565b601f909101601f19168101906001600160401b038211908210176200037d57604052565b6001600160401b0381116200037d57601f01601f191660200190565b60408051906200069e8262000632565b606080835260209283015280516001600160401b039290808201848111828210176200037d5783525f81525f8084519283620006ea868201928784528880840152606083019062000893565b039362000700601f19958681018352826200064e565b51907301000000000000000000000000000000000000015afa9062000724620008ba565b91156200082c575f91829162000760865191826200075388820195600487528a80840152606083019062000893565b039081018352826200064e565b51907301000000000000000000000000000000000000055afa9262000784620008ba565b9315620007e9578351840183858483019203126200062e57828501518281116200062e578184620007b892880101620008ee565b94848101519283116200062e57620007d392018301620008ee565b915192620007e18462000632565b835282015290565b50606491519062461bcd60e51b82526004820152601b60248201527f67656e207369676e696e67206b6579706169723a206661696c656400000000006044820152fd5b835162461bcd60e51b815260048101849052601360248201527f72616e646f6d42797465733a206661696c6564000000000000000000000000006044820152606490fd5b5f5b838110620008825750505f910152565b818101518382015260200162000872565b90602091620008ae8151809281855285808601910162000870565b601f01601f1916010190565b3d15620008e9573d90620008ce8262000672565b91620008de60405193846200064e565b82523d5f602084013e565b606090565b81601f820112156200062e578051620009078162000672565b926200091760405194856200064e565b818452602082840101116200062e5762000938916020808501910162000870565b9056fe60806040526004361015610011575f80fd5b5f3560e01c8063097b8b3b1461012f578063270e7c2f1461012a5780634b347aab1461010c5780634c22e6a1146101255780634cf0d40a1461012057806353d6fd591461011b57806364d6c07d14610116578063688b87e8146101115780636b50e9f21461010c578063715018a6146101075780637355f88b146101025780637998efb8146100fd5780638da5cb5b146100f8578063aa775b4a146100f3578063c5141496146100ee578063c7878ba1146100e9578063e498de5f146100e45763f2fde38b146100df575f80fd5b610c1f565b610bcb565b610b66565b610aa6565b610a12565b6109eb565b6109aa565b61087c565b610825565b61032e565b61071c565b6106b6565b61061b565b6105d4565b610390565b6102e5565b61020f565b9181601f84011215610161578235916001600160401b038311610161576020838186019501011161016157565b5f80fd5b602435906001600160a01b038216820361016157565b600435906001600160a01b038216820361016157565b5f5b8381106101a25750505f910152565b8181015183820152602001610193565b906020916101cb81518092818552858086019101610191565b601f01601f1916010190565b92916060926101f4610207939796976080875260808701906101b2565b91602086015284820360408601526101b2565b931515910152565b346101615760c0366003190112610161576001600160401b0360048035828111610161576102409036908301610134565b90610249610165565b604435858111610161576102609036908601610134565b6064929192358781116101615761027a9036908801610134565b91608435898111610161576102929036908a01610134565b95909460a4359a8b11610161576102b26102ba9a6102ca9c369101610134565b9990986111f3565b90604094929451948594856101d7565b0390f35b8015150361016157565b35906102e3826102ce565b565b346101615760403660031901126101615761032c602435610305816102ce565b61030d611ebc565b6004355f52600960205260405f209060ff801983541691151516179055565b005b34610161575f36600319011261016157602060ff60065416604051908152f35b602060031982011261016157600435906001600160401b0382116101615761037891600401610134565b9091565b90602061038d9281815201906101b2565b90565b34610161576103a96103a13661034e565b81019061149a565b5f5b81518110156105b057806106396103c4600193856115f8565b5151146103d2575b016103ab565b7fb627edf90bdeeb835c1685f29db2273be4a4de814d8f321a3e16db4757760a1060206104148161040385886115f8565b510151828082518301019101611611565b9061042160065460ff1690565b848760ff8381169086161061053c576104d56104f1936104646080610457868661045f60606104576104af9d9b6104e39b6115f8565b510160019052565b6115f8565b6104af6104b561047c6104768a611fc4565b93611fc4565b926040519889978801601b907f416c6c6f636174696f6e207265636f6d6d656e646174696f6e3a20000000000081520190565b90611626565b73012901436b2b2ba39903a343932b9b437b6321d160651b815260140190565b61252960f01b815260020190565b03601f198101835282610d0e565b60a06104fd85886115f8565b5101525b610518608061051085886115f8565b510151151590565b60408051610639815260ff93909316602084015290151590820152606090a16103cc565b6104d561059c935f6080610567868684606061055f6104af9d9b6104e39b6115f8565b5101526115f8565b5101526104af61057c61047c6104768a611fc4565b7301290143132b637bb903a343932b9b437b6321d160651b815260140190565b60a06105a885886115f8565b510152610501565b6040516102ca906105c8816104e3866020830161163d565b6040519182918261037c565b346101615760403660031901126101615761032c6024356105f4816102ce565b6105fc611ebc565b6004355f52600860205260405f209060ff801983541691151516179055565b346101615760403660031901126101615761032c61063761017b565b60243590610644826102ce565b61064c611ebc565b60018060a01b03165f52600760205260405f209060ff801983541691151516179055565b6040600319820112610161576001600160401b0391600435838111610161578261069c91600401610134565b939093926024359182116101615761037891600401610134565b34610161576102ca6107086106f46106e66107036106fe6106f96106d936610670565b9792909691810190610da8565b5050509492939190936119bd565b610e19565b611ade565b610e5c565b611776565b6040519182916020835260208301906101b2565b34610161576020806003193601126101615760405181810190600435825282815261074681610cbd565b519020604051908282015281815261075d81610cbd565b604051915f9060045461076f81610ec4565b8086529060019081811690811561080757506001146107b2575b6102ca6105c8878761079d82890383610d0e565b604051916107aa83610cd8565b5f8352611b9a565b60045f9081529293507f8a35acfbc15ff81a39ae7d344fd709f28e8600b4aa8c65c6b64bfe7fe36bd19b5b8284106107f4575050508301018161079d84610789565b80548785018601529284019281016107dd565b60ff1916848801525050151560051b84010190508161079d84610789565b34610161575f3660031901126101615761083d611ebc565b5f80546001600160a01b0319811682556001600160a01b03167f8be0079c531659141344cd1fd0a4f28419497f9722a3daafe3b4186f6b6457e08280a3005b34610161576108b06108b961089036610670565b9194909261089c611ebc565b604051956108a987610cbd565b3691610d57565b84523691610d57565b60209160208101918252518051926001600160401b0384116109a5576001916108eb856108e68554610ec4565b6117f9565b602091601f86116001146109335750938061091f9261032c965f92610928575b50508160011b915f199060031b1c19161790565b90555b516118b1565b015190505f8061090b565b60015f529190601f1986165f805160206124e6833981519152935f905b82821061098e575050918493918761032c989410610976575b505050811b019055610922565b01515f1960f88460031b161c191690555f8080610969565b808786978294978701518155019601940190610950565b610ca9565b34610161576109b83661034e565b6109c0611ebc565b6109e3602060405183819483830196873781015f83820152038084520182610d0e565b519020600555005b34610161575f366003190112610161575f546040516001600160a01b039091168152602090f35b3461016157610a203661034e565b90610a29611ebc565b60055491610a50602060405183819483830196873781015f83820152038084520182610d0e565b51902003610a63576102ca6105c8610efc565b60405162461bcd60e51b815260206004820152601060248201526f125b9d985b1a59081c185cdcdddbdc9960821b6044820152606490fd5b60ff81160361016157565b3461016157602036600319011261016157600435610ac381610a9b565b610acb611ebc565b60ff81169060648211610b21576006805460ff1981169390931790556040805160ff93841681529190921660208201527f9ba446f696d1d4250af4f999c61ed8dd56c29b643576542a42608aa44d16c37f9190a1005b60405162461bcd60e51b815260206004820152601860248201527f5468726573686f6c64206d757374206265203c3d2031303000000000000000006044820152606490fd5b34610161576040366003190112610161576004356001600160401b038111610161576106fe6106f96106f46106e6610ba5610bad953690600401610134565b810190610da8565b6024355f526009602052602060ff60405f2054166040519015158152f35b34610161575f36600319011261016157610c0b610bee610be9610faa565b612074565b610bf6610faa565b906040519283926040845260408401906101b2565b6001600160a01b0390911660208301520390f35b3461016157602036600319011261016157610c3861017b565b610c40611ebc565b6001600160a01b03908116908115610c91575f54826bffffffffffffffffffffffff60a01b8216175f55167f8be0079c531659141344cd1fd0a4f28419497f9722a3daafe3b4186f6b6457e05f80a3005b604051631e4fbdf760e01b81525f6004820152602490fd5b634e487b7160e01b5f52604160045260245ffd5b604081019081106001600160401b038211176109a557604052565b602081019081106001600160401b038211176109a557604052565b60e081019081106001600160401b038211176109a557604052565b90601f801991011681019081106001600160401b038211176109a557604052565b604051906102e382610cf3565b6001600160401b0381116109a557601f01601f191660200190565b929192610d6382610d3c565b91610d716040519384610d0e565b829481845281830111610161578281602093845f960137010152565b9080601f830112156101615781602061038d93359101610d57565b9160e083830312610161578235926001600160401b039260208201358481116101615781610dd7918401610d8d565b9360408301359360608401358281116101615783610df6918601610d8d565b9360808101359360a08201359360c08301359081116101615761038d9201610d8d565b15610e2057565b60405162461bcd60e51b815260206004820152601460248201527324b73b30b634b21030b1b1b2b9b9903a37b5b2b760611b6044820152606490fd5b15610e6357565b60405162461bcd60e51b8152602060048201526016602482015275125b9d985b1a59081c9d5b9d1a5b5948191a59d95cdd60521b6044820152606490fd5b826014949392823701906bffffffffffffffffffffffff199060601b1681520190565b90600182811c92168015610ef2575b6020831014610ede57565b634e487b7160e01b5f52602260045260245ffd5b91607f1691610ed3565b604051905f8260025491610f0f83610ec4565b80835292602090600190818116908115610f865750600114610f3a575b50506102e392500383610d0e565b91509260025f525f805160206124c6833981519152935f925b828410610f6e57506102e39450505081016020015f80610f2c565b85548885018301529485019487945092810192610f53565b915050602092506102e394915060ff191682840152151560051b8201015f80610f2c565b604051905f82600191600154610fbf81610ec4565b8084529360209160018116908115610f865750600114610fe75750506102e392500383610d0e565b91509260015f525f805160206124e6833981519152935f925b82841061101b57506102e39450505081016020015f80610f2c565b85548885018301529485019487945092810192611000565b604051905f826002549161104683610ec4565b80835292602090600190818116908115610f8657506001146110705750506102e392500383610d0e565b91509260025f525f805160206124c6833981519152935f925b8284106110a457506102e39450505081016020015f80610f2c565b85548885018301529485019487945092810192611089565b604051905f826001916001546110d181610ec4565b8084529360209160018116908115610f8657506001146110f95750506102e392500383610d0e565b91509260015f525f805160206124e6833981519152935f925b82841061112d57506102e39450505081016020015f80610f2c565b85548885018301529485019487945092810192611112565b604051905f826003549161115883610ec4565b80835292602090600190818116908115610f8657506001146111825750506102e392500383610d0e565b91509260035f527fc2575a0e9e593c00f959f8c92f12db2869c3395a3b0502d05e2516446f71f85b935f925b8284106111c957506102e39450505081016020015f80610f2c565b855488850183015294850194879450928101926111ae565b604051906111ee82610cd8565b5f8252565b909a97929a999596989499611208858d61197d565b156114555781016112198183610da8565b5050509161122791936119bd565b61123090610e19565b61123991611ade565b61124290610e5c565b61124b91610da8565b50509593505050506040998a519687602097858983019361126c9285610ea1565b0397601f199889810182526112819082610d0e565b5190208b5187810182815281906020010389810182526112a19082610d0e565b6112a9611033565b906112b26111e1565b906112bc92611b9a565b6112c46110bc565b916112ce92611c73565b805188820151918e0151909a925060ff168d518981019b8c5260208c019290925260f81b6001600160f81b03191660408b0152988990604101038881018a52611317908a610d0e565b369061132292610d57565b858151910120988a518091848883019461133c9286610ea1565b03878101825261134c9082610d0e565b519020998a9361135b91611e89565b8951858101998a5260208a019490945260609190911b6bffffffffffffffffffffffff19166040890152605488019190915280151560f81b6074880152959080607583010384810182526113af9082610d0e565b519020865182810182815281906020010384810182526113cf9082610d0e565b6113d7611033565b906113e06111e1565b906113ea92611b9a565b6113f26110bc565b916113fc92611c73565b80979150519080838901519801516114149060ff1690565b9051928301918252602082019790975260f89690961b6001600160f81b031916604087015294859060410103908101855261144f9085610d0e565b93929190565b60405162461bcd60e51b815260206004820152601c60248201527f457865637574696f6e20706c616e206e6f742076616c696461746564000000006044820152606490fd5b60209081818403126101615780356001600160401b039182821161016157019083601f83011215610161578135938185116109a5578460051b9060408051966114e587850189610d0e565b875285808801938601019482861161016157868101935b86851061150e57505050505050505090565b84358681116101615782019060e09081601f19848803011261016157611532610d2f565b8a84013581528584013589811161016157878c61155192870101610d8d565b8b820152606092838501358a811161016157888d61157192880101610d8d565b878301526080936115838587016102d8565b9083015260a0936115958587016102d8565b9083015260c093848601358b811161016157898e6115b592890101610d8d565b9083015284013592898411610161576115d5888d80979681970101610d8d565b908201528152019401936114fc565b634e487b7160e01b5f52603260045260245ffd5b805182101561160c5760209160051b010190565b6115e4565b90816020910312610161575161038d81610a9b565b9061163960209282815194859201610191565b0190565b6020808201908083528351809252604092604081018260408560051b8401019601945f925b858410611673575050505050505090565b9091929394959685806116fc600193603f198682030188528b516116e96116be6116ae60e084518652878501519080898801528601906101b2565b8a8401518582038c8701526101b2565b60608381015115159085015260808084015115159085015260a08084015190858303908601526101b2565b9160c080920151918184039101526101b2565b990194019401929594939190611662565b602081830312610161578051906001600160401b038211610161570181601f8201121561016157805161173f81610d3c565b9261174d6040519485610d0e565b818452602082840101116101615761038d9160208085019101610191565b6040513d5f823e3d90fd5b604051634c22e6a160e01b8152602060048201526024810183905291808260448501375f604482850101525f83604481601f19601f860116810103018183305af15f93816117d5575b506117d05761038d92503691610d57565b505090565b6117f29194503d805f833e6117ea8183610d0e565b81019061170d565b925f6117bf565b90601f8211611806575050565b60019160015f525f805160206124e6833981519152906020601f840160051c8301931061184d575b601f0160051c01905b81811061184357505050565b5f81558201611837565b909150819061182e565b601f8111611863575050565b60025f525f805160206124c6833981519152906020601f840160051c830193106118a7575b601f0160051c01905b81811061189c575050565b5f8155600101611891565b9091508190611888565b9081516001600160401b0381116109a5576118d6816118d1600254610ec4565b611857565b602080601f831160011461190b5750819061190693945f926109285750508160011b915f199060031b1c19161790565b600255565b90601f1983169461192a60025f525f805160206124c683398151915290565b925f905b87821061196557505083600195961061194d575b505050811b01600255565b01515f1960f88460031b161c191690555f8080611942565b8060018596829496860151815501950193019061192e565b6119899181019061149a565b5f5b81518110156119b65760606119a082846115f8565b510151156119b05760010161198b565b50505f90565b5050600190565b5f80611a30611a7c959460409687918251611a70602098828a8094019182528381526119e881610cbd565b51902092855193838501528284526119ff84610cbd565b611a60611a0a611145565b611a50611a3d895192611a1c84610cd8565b8c845260a08b519b8c998a019d8e60049052565b89015260c08801906101b2565b601f1997888883030160608901526101b2565b90868683030160808701526101b2565b90848483030160a08501526101b2565b03908101835282610d0e565b51906007600160981b015afa90611a91611b6b565b9115611aaa5761038d9293508082518301019101612181565b60649084519062461bcd60e51b82526004820152600e60248201526d1d995c9a599e4e8819985a5b195960921b6044820152fd5b805f52600860205260ff60405f20541615611b2657611b0991611b009161233c565b90929192612394565b6001600160a01b03165f9081526007602052604090205460ff1690565b60405162461bcd60e51b815260206004820152601e60248201527f52756e74696d6520646967657374206e6f742077686974656c697374656400006044820152606490fd5b3d15611b95573d90611b7c82610d3c565b91611b8a6040519384610d0e565b82523d5f602084013e565b606090565b611a70611bf45f94938594604051938491611be4611bd16020850198611bc08a60049052565b6080604087015260a08601906101b2565b601f1995868683030160608701526101b2565b90848483030160808501526101b2565b51906006600160981b015afa611c08611b6b565b9015611c115790565b60405162461bcd60e51b815260206004820152600c60248201526b1cda59db8e8819985a5b195960a21b6044820152606490fd5b60405190606082018281106001600160401b038211176109a5576040525f6040838281528260208201520152565b611c899093919293611c83611c45565b50612074565b92611c92611c45565b6008825110611e51576001600160f81b031991600360fc1b83611cc5611cb784611f66565b516001600160f81b03191690565b1603611e5157600160f91b8084611cde611cb785611f73565b1603611e5157611d02611cfc611cf6611cb785611f83565b60f81c90565b60ff1690565b90611d15611cfc611cf6611cb786611f93565b9160218311611e5157611d2783612196565b90611d43611cfc611cf6611cb7611d3d866121a4565b89611fb3565b9260218411611e5157611d69611d5c611cb78589611fb3565b6001600160f81b03191690565b03611e515780611d81611d7c85876121ce565b6121b2565b03611e5157611d918551916121c0565b03611e5157611d9f906121c0565b60049560218414611e63575b60218314611e19575b50602090816102e39786010151940101519160208110611e02575b5060208110611dea575b509082526020820152809385612223565b611df6611dfb916121e9565b61220b565b1c5f611dd9565b611df6611e11919492946121e9565b1c915f611dcf565b611e29611cb78387999599611fb3565b16611e51576102e3956020611e47611e4182946121a4565b926121db565b9397505090611db4565b6040516386cd05c560e01b8152600490fd5b80939650611e73611cb786611fa3565b16611e5157611e836005966121db565b92611dab565b611e959181019061149a565b5f5b81518110156119b6576080611eac82846115f8565b510151156119b057600101611e97565b5f546001600160a01b03163303611ecf57565b60405163118cdaa760e01b8152336004820152602490fd5b634e487b7160e01b5f52601160045260245ffd5b60ff1660ff8114611f0c5760010190565b611ee7565b90611f1b82610d3c565b611f286040519182610d0e565b8281528092611f39601f1991610d3c565b0190602036910137565b60ff5f199116019060ff8211611f0c57565b60ff166030019060ff8211611f0c57565b80511561160c5760200190565b80516002101561160c5760220190565b80516001101561160c5760210190565b80516003101561160c5760230190565b80516004101561160c5760240190565b90815181101561160c570160200190565b9060ff80831615612054575f9181845b16928315611fef57600a611fe88492611efb565b9404611fd4565b9092509290928361200260ff8316611f11565b925b1690811561204d576120168591611f43565b91600a90612038612028838306611f55565b60f81b6001600160f81b03191690565b5f1a61204684861687611fb3565b5304612004565b5090925050565b50905060405161206381610cbd565b60018152600360fc1b602082015290565b602181510361216f5760218101519080511561160c576020015160f81c600281141580612164575b612152575f806401000003d019604051602081019160208352602060408301526020606083015280600781808a80098a0908608083015263400000f4600160fe1b0360a083015260c08083019190915281526120f781610cf3565b519060055afa91612106611b6b565b92156121405761212b61212561211e61038d956124a3565b93846121ce565b60011690565b156122ff579061213a906121f7565b906122ff565b60405163102875ed60e01b8152600490fd5b60405163ab4be04160e01b8152600490fd5b50600381141561209c565b604051636446a2c560e11b8152600490fd5b90816020910312610161575161038d816102ce565b6004019081600411611f0c57565b9060018201809211611f0c57565b9060048201809211611f0c57565b9060028201809211611f0c57565b91908201809211611f0c57565b5f19810191908211611f0c57565b6020039060208211611f0c57565b6401000003d01990810391908211611f0c57565b600381901b91906001600160fd1b03811603611f0c57565b916040810191601b835281519060205f81850193845190612262604051928392878460609194939260808201958252601b602083015260408201520152565b838052039060015afa156122fa575f516001600160a01b03958616951685900361228e575b5050505050565b6122c05f93601c602096525192516040519384938460609194939260808201958252601c602083015260408201520152565b838052039060015afa156122fa575f516001600160a01b0316036122e8575f80808080612287565b604051634532600d60e01b8152600490fd5b61176b565b6040519160208301918252604083015260408252606082018281106001600160401b038211176109a557604052905190206001600160a01b031690565b815191906041830361236c576123659250602082015190606060408401519301515f1a90612421565b9192909190565b50505f9160029190565b6004111561238057565b634e487b7160e01b5f52602160045260245ffd5b61239d81612376565b806123a6575050565b6123af81612376565b600181036123c95760405163f645eedf60e01b8152600490fd5b6123d281612376565b600281036123f35760405163fce698f760e01b815260048101839052602490fd5b806123ff600392612376565b146124075750565b6040516335e2f38360e21b81526004810191909152602490fd5b91907f7fffffffffffffffffffffffffffffff5d576e7357a4501ddfe92f46681b20a08411612498579160209360809260ff5f9560405194855216868401526040830152606082015282805260015afa156122fa575f516001600160a01b0381161561248e57905f905f90565b505f906001905f90565b5050505f9160039190565b6020815191015190602081106124b7575090565b5f199060200360031b1b169056fe405787fa12a823e0f2b7631cc41b3ba8828b3321ca811111fa75cd3aa3bb5aceb10e2d527612073b26eecdfd717e6a320cf44b4afac2b0732d9fcbe2b7fa0cf6a26469706673582212202fa38c9338484cf36ac4ca6cd19ec7067e4e4541384c4f1449d6eaceea56dc0164736f6c63430008180033",
			"opcodes": "PUSH1 0x80 PUSH1 0x40 SWAP1 DUP1 DUP3 MSTORE CALLVALUE PUSH3 0x62E JUMPI DUP1 PUSH3 0x2E77 DUP1 CODESIZE SUB DUP1 SWAP2 PUSH3 0x23 DUP3 DUP6 PUSH3 0x64E JUMP JUMPDEST DUP4 CODECOPY PUSH1 0x20 SWAP3 DUP4 SWAP2 DUP2 ADD SUB SLT PUSH3 0x62E JUMPI MLOAD PUSH1 0x1 PUSH1 0x1 PUSH1 0xA0 SHL SUB DUP1 DUP3 AND SWAP2 DUP3 SWAP1 SUB PUSH3 0x62E JUMPI DUP2 ISZERO PUSH3 0x617 JUMPI PUSH0 SLOAD DUP3 PUSH1 0x1 DUP1 PUSH1 0xA0 SHL SUB NOT DUP3 AND OR PUSH0 SSTORE AND PUSH32 0x8BE0079C531659141344CD1FD0A4F28419497F9722A3DAAFE3B4186F6B6457E0 PUSH0 DUP1 LOG3 PUSH1 0xFF NOT SWAP1 PUSH1 0x32 DUP3 PUSH1 0x6 SLOAD AND OR PUSH1 0x6 SSTORE PUSH3 0x9D PUSH3 0x68E JUMP JUMPDEST DUP1 MLOAD DUP1 MLOAD SWAP2 SWAP3 SWAP1 PUSH1 0x1 PUSH1 0x1 PUSH1 0x40 SHL SUB SWAP1 DUP2 DUP5 GT PUSH3 0x37D JUMPI PUSH1 0x1 SWAP5 DUP6 SLOAD SWAP5 DUP7 DUP7 DUP2 SHR SWAP7 AND DUP1 ISZERO PUSH3 0x60C JUMPI JUMPDEST DUP6 DUP8 LT EQ PUSH3 0x456 JUMPI DUP5 SWAP3 PUSH1 0x1F SWAP7 DUP8 DUP2 GT PUSH3 0x5B5 JUMPI JUMPDEST POP DUP4 SWAP1 DUP8 DUP4 GT PUSH1 0x1 EQ PUSH3 0x552 JUMPI PUSH0 SWAP2 SWAP1 DUP4 PUSH3 0x546 JUMPI JUMPDEST POP POP PUSH0 NOT PUSH1 0x3 DUP4 SWAP1 SHL SHR NOT AND SWAP1 DUP8 SHL OR DUP7 SSTORE JUMPDEST ADD MLOAD DUP1 MLOAD SWAP1 DUP3 DUP3 GT PUSH3 0x37D JUMPI PUSH1 0x2 SLOAD SWAP1 DUP7 DUP3 DUP2 SHR SWAP3 AND DUP1 ISZERO PUSH3 0x53B JUMPI JUMPDEST DUP6 DUP4 LT EQ PUSH3 0x456 JUMPI DUP2 DUP7 DUP5 SWAP4 GT PUSH3 0x4E7 JUMPI JUMPDEST POP DUP5 SWAP1 DUP7 DUP4 GT PUSH1 0x1 EQ PUSH3 0x481 JUMPI PUSH0 SWAP3 PUSH3 0x475 JUMPI JUMPDEST POP POP PUSH0 NOT PUSH1 0x3 DUP4 SWAP1 SHL SHR NOT AND SWAP1 DUP6 SHL OR PUSH1 0x2 SSTORE JUMPDEST PUSH3 0x172 PUSH3 0x68E JUMP JUMPDEST SWAP1 DUP2 MLOAD DUP1 MLOAD SWAP3 DUP3 DUP5 GT PUSH3 0x37D JUMPI PUSH1 0x3 SWAP4 DUP5 SLOAD SWAP3 DUP9 DUP5 DUP2 SHR SWAP5 AND DUP1 ISZERO PUSH3 0x46A JUMPI JUMPDEST DUP8 DUP6 LT EQ PUSH3 0x456 JUMPI DUP4 DUP9 DUP9 SWAP6 GT PUSH3 0x3FF JUMPI JUMPDEST POP DUP4 SWAP1 DUP9 DUP4 GT PUSH1 0x1 EQ PUSH3 0x39D JUMPI PUSH0 SWAP2 SWAP1 DUP4 PUSH3 0x391 JUMPI JUMPDEST POP POP PUSH0 NOT DUP3 DUP8 SHL SHR NOT AND SWAP1 DUP9 SHL OR DUP5 SSTORE JUMPDEST ADD MLOAD SWAP2 DUP3 MLOAD SWAP2 DUP3 GT PUSH3 0x37D JUMPI PUSH1 0x4 SWAP3 DUP4 SLOAD DUP8 DUP2 DUP2 SHR SWAP2 AND DUP1 ISZERO PUSH3 0x372 JUMPI JUMPDEST DUP7 DUP3 LT EQ PUSH3 0x35F JUMPI DUP7 DUP2 GT PUSH3 0x317 JUMPI JUMPDEST POP DUP5 SWAP6 DUP4 GT PUSH1 0x1 EQ PUSH3 0x2B0 JUMPI PUSH1 0x8 SWAP6 PUSH0 SWAP3 SWAP2 DUP5 PUSH3 0x2A4 JUMPI JUMPDEST POP POP DUP3 DUP8 SHL SWAP3 PUSH0 NOT SWAP2 SHL SHR NOT AND OR SWAP1 SSTORE JUMPDEST PUSH2 0x639 PUSH0 MSTORE PUSH1 0x9 DUP2 MSTORE DUP5 PUSH0 KECCAK256 DUP4 DUP6 DUP3 SLOAD AND OR SWAP1 SSTORE PUSH20 0xC770EAC29244C1F88E14A61A6B99D184BFAE93F5 PUSH0 MSTORE PUSH1 0x7 DUP2 MSTORE DUP5 PUSH0 KECCAK256 DUP4 DUP6 DUP3 SLOAD AND OR SWAP1 SSTORE PUSH32 0x876924E18DD46DD3CBCAD570A87137BBD828A7D0F3CAD309F78AD2C9402EEEB7 PUSH0 MSTORE MSTORE DUP3 PUSH0 KECCAK256 SWAP2 DUP3 SLOAD AND OR SWAP1 SSTORE MLOAD PUSH2 0x253B SWAP1 DUP2 PUSH3 0x93C DUP3 CODECOPY RETURN JUMPDEST ADD MLOAD SWAP2 POP PUSH0 DUP1 PUSH3 0x21D JUMP JUMPDEST DUP7 SWAP3 SWAP2 PUSH1 0x1F NOT DUP4 AND SWAP7 DUP6 PUSH0 MSTORE DUP7 PUSH0 KECCAK256 SWAP3 PUSH0 JUMPDEST DUP10 DUP2 LT PUSH3 0x2FF JUMPI POP DUP5 PUSH1 0x8 SWAP10 LT PUSH3 0x2E5 JUMPI JUMPDEST POP POP POP POP DUP2 SHL ADD SWAP1 SSTORE PUSH3 0x22E JUMP JUMPDEST ADD MLOAD SWAP1 PUSH1 0xF8 DUP5 PUSH0 NOT SWAP3 SHL AND SHR NOT AND SWAP1 SSTORE PUSH0 DUP1 DUP1 DUP1 PUSH3 0x2D6 JUMP JUMPDEST DUP2 DUP4 ADD MLOAD DUP6 SSTORE DUP11 SWAP7 SWAP1 SWAP5 ADD SWAP4 SWAP2 DUP9 ADD SWAP2 DUP9 ADD PUSH3 0x2C2 JUMP JUMPDEST DUP5 PUSH0 MSTORE DUP6 PUSH0 KECCAK256 DUP8 DUP1 DUP7 ADD PUSH1 0x5 SHR DUP3 ADD SWAP3 DUP9 DUP8 LT PUSH3 0x355 JUMPI JUMPDEST ADD PUSH1 0x5 SHR ADD SWAP1 DUP9 SWAP1 JUMPDEST DUP3 DUP2 LT PUSH3 0x349 JUMPI POP POP PUSH3 0x203 JUMP JUMPDEST PUSH0 DUP2 SSTORE ADD DUP9 SWAP1 PUSH3 0x339 JUMP JUMPDEST SWAP3 POP DUP2 SWAP3 PUSH3 0x330 JUMP JUMPDEST PUSH1 0x22 DUP6 PUSH4 0x4E487B71 PUSH1 0xE0 SHL PUSH0 MSTORE MSTORE PUSH1 0x24 PUSH0 REVERT JUMPDEST SWAP1 PUSH1 0x7F AND SWAP1 PUSH3 0x1F1 JUMP JUMPDEST PUSH4 0x4E487B71 PUSH1 0xE0 SHL PUSH0 MSTORE PUSH1 0x41 PUSH1 0x4 MSTORE PUSH1 0x24 PUSH0 REVERT JUMPDEST ADD MLOAD SWAP1 POP PUSH0 DUP1 PUSH3 0x1C0 JUMP JUMPDEST DUP10 SWAP3 SWAP2 PUSH1 0x1F NOT DUP4 AND SWAP2 DUP9 PUSH0 MSTORE DUP7 PUSH0 KECCAK256 SWAP3 PUSH0 JUMPDEST DUP2 DUP2 LT PUSH3 0x3E6 JUMPI POP DUP5 GT PUSH3 0x3CE JUMPI JUMPDEST POP POP POP DUP2 SHL ADD DUP5 SSTORE PUSH3 0x1D1 JUMP JUMPDEST ADD MLOAD PUSH0 NOT DUP4 DUP10 SHL PUSH1 0xF8 AND SHR NOT AND SWAP1 SSTORE PUSH0 DUP1 DUP1 PUSH3 0x3C0 JUMP JUMPDEST DUP4 DUP4 ADD MLOAD DUP6 SSTORE DUP12 SWAP9 DUP15 SWAP8 SWAP1 SWAP6 ADD SWAP5 SWAP4 DUP5 ADD SWAP4 ADD PUSH3 0x3AF JUMP JUMPDEST SWAP1 SWAP2 SWAP3 SWAP4 POP DUP6 PUSH0 MSTORE DUP7 PUSH0 KECCAK256 DUP9 DUP1 DUP6 ADD PUSH1 0x5 SHR DUP3 ADD SWAP3 DUP10 DUP7 LT PUSH3 0x44C JUMPI JUMPDEST SWAP2 DUP12 SWAP2 DUP11 SWAP8 SWAP7 SWAP6 SWAP5 SWAP4 ADD PUSH1 0x5 SHR ADD SWAP2 JUMPDEST DUP3 DUP2 LT PUSH3 0x43D JUMPI POP POP PUSH3 0x1A8 JUMP JUMPDEST PUSH0 DUP2 SSTORE DUP10 SWAP7 POP DUP12 SWAP2 ADD PUSH3 0x42D JUMP JUMPDEST SWAP3 POP DUP2 SWAP3 PUSH3 0x41D JUMP JUMPDEST PUSH4 0x4E487B71 PUSH1 0xE0 SHL PUSH0 MSTORE PUSH1 0x22 PUSH1 0x4 MSTORE PUSH1 0x24 PUSH0 REVERT JUMPDEST SWAP4 PUSH1 0x7F AND SWAP4 PUSH3 0x194 JUMP JUMPDEST ADD MLOAD SWAP1 POP PUSH0 DUP1 PUSH3 0x154 JUMP JUMPDEST SWAP1 DUP8 SWAP4 POP PUSH1 0x1F NOT DUP4 AND SWAP2 PUSH1 0x2 PUSH0 MSTORE DUP7 PUSH0 KECCAK256 SWAP3 PUSH0 JUMPDEST DUP9 DUP3 DUP3 LT PUSH3 0x4D0 JUMPI POP POP DUP5 GT PUSH3 0x4B7 JUMPI JUMPDEST POP POP POP DUP2 SHL ADD PUSH1 0x2 SSTORE PUSH3 0x168 JUMP JUMPDEST ADD MLOAD PUSH0 NOT PUSH1 0xF8 DUP5 PUSH1 0x3 SHL AND SHR NOT AND SWAP1 SSTORE PUSH0 DUP1 DUP1 PUSH3 0x4A8 JUMP JUMPDEST DUP4 DUP6 ADD MLOAD DUP7 SSTORE DUP12 SWAP8 SWAP1 SWAP6 ADD SWAP5 SWAP4 DUP5 ADD SWAP4 ADD PUSH3 0x495 JUMP JUMPDEST SWAP1 SWAP2 POP PUSH1 0x2 PUSH0 MSTORE DUP5 PUSH0 KECCAK256 DUP7 DUP1 DUP6 ADD PUSH1 0x5 SHR DUP3 ADD SWAP3 DUP8 DUP7 LT PUSH3 0x531 JUMPI JUMPDEST SWAP2 DUP10 SWAP2 DUP7 SWAP6 SWAP5 SWAP4 ADD PUSH1 0x5 SHR ADD SWAP2 JUMPDEST DUP3 DUP2 LT PUSH3 0x522 JUMPI POP POP PUSH3 0x13E JUMP JUMPDEST PUSH0 DUP2 SSTORE DUP6 SWAP5 POP DUP10 SWAP2 ADD PUSH3 0x512 JUMP JUMPDEST SWAP3 POP DUP2 SWAP3 PUSH3 0x504 JUMP JUMPDEST SWAP2 PUSH1 0x7F AND SWAP2 PUSH3 0x12A JUMP JUMPDEST ADD MLOAD SWAP1 POP PUSH0 DUP1 PUSH3 0xF8 JUMP JUMPDEST DUP9 SWAP3 SWAP2 PUSH1 0x1F NOT DUP4 AND SWAP2 DUP5 PUSH0 MSTORE DUP7 PUSH0 KECCAK256 SWAP3 PUSH0 JUMPDEST DUP2 DUP2 LT PUSH3 0x59C JUMPI POP DUP5 GT PUSH3 0x583 JUMPI JUMPDEST POP POP POP DUP2 SHL ADD DUP7 SSTORE PUSH3 0x10B JUMP JUMPDEST ADD MLOAD PUSH0 NOT PUSH1 0xF8 DUP5 PUSH1 0x3 SHL AND SHR NOT AND SWAP1 SSTORE PUSH0 DUP1 DUP1 PUSH3 0x575 JUMP JUMPDEST DUP4 DUP4 ADD MLOAD DUP6 SSTORE DUP11 SWAP9 DUP14 SWAP8 SWAP1 SWAP6 ADD SWAP5 SWAP4 DUP5 ADD SWAP4 ADD PUSH3 0x564 JUMP JUMPDEST SWAP1 SWAP2 SWAP3 SWAP4 POP DUP8 PUSH0 MSTORE DUP6 PUSH0 KECCAK256 DUP8 DUP1 DUP6 ADD PUSH1 0x5 SHR DUP3 ADD SWAP3 DUP9 DUP7 LT PUSH3 0x602 JUMPI JUMPDEST SWAP2 DUP11 SWAP2 DUP10 SWAP8 SWAP7 SWAP6 SWAP5 SWAP4 ADD PUSH1 0x5 SHR ADD SWAP2 JUMPDEST DUP3 DUP2 LT PUSH3 0x5F3 JUMPI POP POP PUSH3 0xE0 JUMP JUMPDEST PUSH0 DUP2 SSTORE DUP9 SWAP7 POP DUP11 SWAP2 ADD PUSH3 0x5E3 JUMP JUMPDEST SWAP3 POP DUP2 SWAP3 PUSH3 0x5D3 JUMP JUMPDEST SWAP6 PUSH1 0x7F AND SWAP6 PUSH3 0xC9 JUMP JUMPDEST DUP4 MLOAD PUSH4 0x1E4FBDF7 PUSH1 0xE0 SHL DUP2 MSTORE PUSH0 PUSH1 0x4 DUP3 ADD MSTORE PUSH1 0x24 SWAP1 REVERT JUMPDEST PUSH0 DUP1 REVERT JUMPDEST PUSH1 0x40 DUP2 ADD SWAP1 DUP2 LT PUSH1 0x1 PUSH1 0x1 PUSH1 0x40 SHL SUB DUP3 GT OR PUSH3 0x37D JUMPI PUSH1 0x40 MSTORE JUMP JUMPDEST PUSH1 0x1F SWAP1 SWAP2 ADD PUSH1 0x1F NOT AND DUP2 ADD SWAP1 PUSH1 0x1 PUSH1 0x1 PUSH1 0x40 SHL SUB DUP3 GT SWAP1 DUP3 LT OR PUSH3 0x37D JUMPI PUSH1 0x40 MSTORE JUMP JUMPDEST PUSH1 0x1 PUSH1 0x1 PUSH1 0x40 SHL SUB DUP2 GT PUSH3 0x37D JUMPI PUSH1 0x1F ADD PUSH1 0x1F NOT AND PUSH1 0x20 ADD SWAP1 JUMP JUMPDEST PUSH1 0x40 DUP1 MLOAD SWAP1 PUSH3 0x69E DUP3 PUSH3 0x632 JUMP JUMPDEST PUSH1 0x60 DUP1 DUP4 MSTORE PUSH1 0x20 SWAP3 DUP4 ADD MSTORE DUP1 MLOAD PUSH1 0x1 PUSH1 0x1 PUSH1 0x40 SHL SUB SWAP3 SWAP1 DUP1 DUP3 ADD DUP5 DUP2 GT DUP3 DUP3 LT OR PUSH3 0x37D JUMPI DUP4 MSTORE PUSH0 DUP2 MSTORE PUSH0 DUP1 DUP5 MLOAD SWAP3 DUP4 PUSH3 0x6EA DUP7 DUP3 ADD SWAP3 DUP8 DUP5 MSTORE DUP9 DUP1 DUP5 ADD MSTORE PUSH1 0x60 DUP4 ADD SWAP1 PUSH3 0x893 JUMP JUMPDEST SUB SWAP4 PUSH3 0x700 PUSH1 0x1F NOT SWAP6 DUP7 DUP2 ADD DUP4 MSTORE DUP3 PUSH3 0x64E JUMP JUMPDEST MLOAD SWAP1 PUSH20 0x100000000000000000000000000000000000001 GAS STATICCALL SWAP1 PUSH3 0x724 PUSH3 0x8BA JUMP JUMPDEST SWAP2 ISZERO PUSH3 0x82C JUMPI PUSH0 SWAP2 DUP3 SWAP2 PUSH3 0x760 DUP7 MLOAD SWAP2 DUP3 PUSH3 0x753 DUP9 DUP3 ADD SWAP6 PUSH1 0x4 DUP8 MSTORE DUP11 DUP1 DUP5 ADD MSTORE PUSH1 0x60 DUP4 ADD SWAP1 PUSH3 0x893 JUMP JUMPDEST SUB SWAP1 DUP2 ADD DUP4 MSTORE DUP3 PUSH3 0x64E JUMP JUMPDEST MLOAD SWAP1 PUSH20 0x100000000000000000000000000000000000005 GAS STATICCALL SWAP3 PUSH3 0x784 PUSH3 0x8BA JUMP JUMPDEST SWAP4 ISZERO PUSH3 0x7E9 JUMPI DUP4 MLOAD DUP5 ADD DUP4 DUP6 DUP5 DUP4 ADD SWAP3 SUB SLT PUSH3 0x62E JUMPI DUP3 DUP6 ADD MLOAD DUP3 DUP2 GT PUSH3 0x62E JUMPI DUP2 DUP5 PUSH3 0x7B8 SWAP3 DUP9 ADD ADD PUSH3 0x8EE JUMP JUMPDEST SWAP5 DUP5 DUP2 ADD MLOAD SWAP3 DUP4 GT PUSH3 0x62E JUMPI PUSH3 0x7D3 SWAP3 ADD DUP4 ADD PUSH3 0x8EE JUMP JUMPDEST SWAP2 MLOAD SWAP3 PUSH3 0x7E1 DUP5 PUSH3 0x632 JUMP JUMPDEST DUP4 MSTORE DUP3 ADD MSTORE SWAP1 JUMP JUMPDEST POP PUSH1 0x64 SWAP2 MLOAD SWAP1 PUSH3 0x461BCD PUSH1 0xE5 SHL DUP3 MSTORE PUSH1 0x4 DUP3 ADD MSTORE PUSH1 0x1B PUSH1 0x24 DUP3 ADD MSTORE PUSH32 0x67656E207369676E696E67206B6579706169723A206661696C65640000000000 PUSH1 0x44 DUP3 ADD MSTORE REVERT JUMPDEST DUP4 MLOAD PUSH3 0x461BCD PUSH1 0xE5 SHL DUP2 MSTORE PUSH1 0x4 DUP2 ADD DUP5 SWAP1 MSTORE PUSH1 0x13 PUSH1 0x24 DUP3 ADD MSTORE PUSH32 0x72616E646F6D42797465733A206661696C656400000000000000000000000000 PUSH1 0x44 DUP3 ADD MSTORE PUSH1 0x64 SWAP1 REVERT JUMPDEST PUSH0 JUMPDEST DUP4 DUP2 LT PUSH3 0x882 JUMPI POP POP PUSH0 SWAP2 ADD MSTORE JUMP JUMPDEST DUP2 DUP2 ADD MLOAD DUP4 DUP3 ADD MSTORE PUSH1 0x20 ADD PUSH3 0x872 JUMP JUMPDEST SWAP1 PUSH1 0x20 SWAP2 PUSH3 0x8AE DUP2 MLOAD DUP1 SWAP3 DUP2 DUP6 MSTORE DUP6 DUP1 DUP7 ADD SWAP2 ADD PUSH3 0x870 JUMP JUMPDEST PUSH1 0x1F ADD PUSH1 0x1F NOT AND ADD ADD SWAP1 JUMP JUMPDEST RETURNDATASIZE ISZERO PUSH3 0x8E9 JUMPI RETURNDATASIZE SWAP1 PUSH3 0x8CE DUP3 PUSH3 0x672 JUMP JUMPDEST SWAP2 PUSH3 0x8DE PUSH1 0x40 MLOAD SWAP4 DUP5 PUSH3 0x64E JUMP JUMPDEST DUP3 MSTORE RETURNDATASIZE PUSH0 PUSH1 0x20 DUP5 ADD RETURNDATACOPY JUMP JUMPDEST PUSH1 0x60 SWAP1 JUMP JUMPDEST DUP2 PUSH1 0x1F DUP3 ADD SLT ISZERO PUSH3 0x62E JUMPI DUP1 MLOAD PUSH3 0x907 DUP2 PUSH3 0x672 JUMP JUMPDEST SWAP3 PUSH3 0x917 PUSH1 0x40 MLOAD SWAP5 DUP6 PUSH3 0x64E JUMP JUMPDEST DUP2 DUP5 MSTORE PUSH1 0x20 DUP3 DUP5 ADD ADD GT PUSH3 0x62E JUMPI PUSH3 0x938 SWAP2 PUSH1 0x20 DUP1 DUP6 ADD SWAP2 ADD PUSH3 0x870 JUMP JUMPDEST SWAP1 JUMP INVALID PUSH1 0x80 PUSH1 0x40 MSTORE PUSH1 0x4 CALLDATASIZE LT ISZERO PUSH2 0x11 JUMPI PUSH0 DUP1 REVERT JUMPDEST PUSH0 CALLDATALOAD PUSH1 0xE0 SHR DUP1 PUSH4 0x97B8B3B EQ PUSH2 0x12F JUMPI DUP1 PUSH4 0x270E7C2F EQ PUSH2 0x12A JUMPI DUP1 PUSH4 0x4B347AAB EQ PUSH2 0x10C JUMPI DUP1 PUSH4 0x4C22E6A1 EQ PUSH2 0x125 JUMPI DUP1 PUSH4 0x4CF0D40A EQ PUSH2 0x120 JUMPI DUP1 PUSH4 0x53D6FD59 EQ PUSH2 0x11B JUMPI DUP1 PUSH4 0x64D6C07D EQ PUSH2 0x116 JUMPI DUP1 PUSH4 0x688B87E8 EQ PUSH2 0x111 JUMPI DUP1 PUSH4 0x6B50E9F2 EQ PUSH2 0x10C JUMPI DUP1 PUSH4 0x715018A6 EQ PUSH2 0x107 JUMPI DUP1 PUSH4 0x7355F88B EQ PUSH2 0x102 JUMPI DUP1 PUSH4 0x7998EFB8 EQ PUSH2 0xFD JUMPI DUP1 PUSH4 0x8DA5CB5B EQ PUSH2 0xF8 JUMPI DUP1 PUSH4 0xAA775B4A EQ PUSH2 0xF3 JUMPI DUP1 PUSH4 0xC5141496 EQ PUSH2 0xEE JUMPI DUP1 PUSH4 0xC7878BA1 EQ PUSH2 0xE9 JUMPI DUP1 PUSH4 0xE498DE5F EQ PUSH2 0xE4 JUMPI PUSH4 0xF2FDE38B EQ PUSH2 0xDF JUMPI PUSH0 DUP1 REVERT JUMPDEST PUSH2 0xC1F JUMP JUMPDEST PUSH2 0xBCB JUMP JUMPDEST PUSH2 0xB66 JUMP JUMPDEST PUSH2 0xAA6 JUMP JUMPDEST PUSH2 0xA12 JUMP JUMPDEST PUSH2 0x9EB JUMP JUMPDEST PUSH2 0x9AA JUMP JUMPDEST PUSH2 0x87C JUMP JUMPDEST PUSH2 0x825 JUMP JUMPDEST PUSH2 0x32E JUMP JUMPDEST PUSH2 0x71C JUMP JUMPDEST PUSH2 0x6B6 JUMP JUMPDEST PUSH2 0x61B JUMP JUMPDEST PUSH2 0x5D4 JUMP JUMPDEST PUSH2 0x390 JUMP JUMPDEST PUSH2 0x2E5 JUMP JUMPDEST PUSH2 0x20F JUMP JUMPDEST SWAP2 DUP2 PUSH1 0x1F DUP5 ADD SLT ISZERO PUSH2 0x161 JUMPI DUP3 CALLDATALOAD SWAP2 PUSH1 0x1 PUSH1 0x1 PUSH1 0x40 SHL SUB DUP4 GT PUSH2 0x161 JUMPI PUSH1 0x20 DUP4 DUP2 DUP7 ADD SWAP6 ADD ADD GT PUSH2 0x161 JUMPI JUMP JUMPDEST PUSH0 DUP1 REVERT JUMPDEST PUSH1 0x24 CALLDATALOAD SWAP1 PUSH1 0x1 PUSH1 0x1 PUSH1 0xA0 SHL SUB DUP3 AND DUP3 SUB PUSH2 0x161 JUMPI JUMP JUMPDEST PUSH1 0x4 CALLDATALOAD SWAP1 PUSH1 0x1 PUSH1 0x1 PUSH1 0xA0 SHL SUB DUP3 AND DUP3 SUB PUSH2 0x161 JUMPI JUMP JUMPDEST PUSH0 JUMPDEST DUP4 DUP2 LT PUSH2 0x1A2 JUMPI POP POP PUSH0 SWAP2 ADD MSTORE JUMP JUMPDEST DUP2 DUP2 ADD MLOAD DUP4 DUP3 ADD MSTORE PUSH1 0x20 ADD PUSH2 0x193 JUMP JUMPDEST SWAP1 PUSH1 0x20 SWAP2 PUSH2 0x1CB DUP2 MLOAD DUP1 SWAP3 DUP2 DUP6 MSTORE DUP6 DUP1 DUP7 ADD SWAP2 ADD PUSH2 0x191 JUMP JUMPDEST PUSH1 0x1F ADD PUSH1 0x1F NOT AND ADD ADD SWAP1 JUMP JUMPDEST SWAP3 SWAP2 PUSH1 0x60 SWAP3 PUSH2 0x1F4 PUSH2 0x207 SWAP4 SWAP8 SWAP7 SWAP8 PUSH1 0x80 DUP8 MSTORE PUSH1 0x80 DUP8 ADD SWAP1 PUSH2 0x1B2 JUMP JUMPDEST SWAP2 PUSH1 0x20 DUP7 ADD MSTORE DUP5 DUP3 SUB PUSH1 0x40 DUP7 ADD MSTORE PUSH2 0x1B2 JUMP JUMPDEST SWAP4 ISZERO ISZERO SWAP2 ADD MSTORE JUMP JUMPDEST CALLVALUE PUSH2 0x161 JUMPI PUSH1 0xC0 CALLDATASIZE PUSH1 0x3 NOT ADD SLT PUSH2 0x161 JUMPI PUSH1 0x1 PUSH1 0x1 PUSH1 0x40 SHL SUB PUSH1 0x4 DUP1 CALLDATALOAD DUP3 DUP2 GT PUSH2 0x161 JUMPI PUSH2 0x240 SWAP1 CALLDATASIZE SWAP1 DUP4 ADD PUSH2 0x134 JUMP JUMPDEST SWAP1 PUSH2 0x249 PUSH2 0x165 JUMP JUMPDEST PUSH1 0x44 CALLDATALOAD DUP6 DUP2 GT PUSH2 0x161 JUMPI PUSH2 0x260 SWAP1 CALLDATASIZE SWAP1 DUP7 ADD PUSH2 0x134 JUMP JUMPDEST PUSH1 0x64 SWAP3 SWAP2 SWAP3 CALLDATALOAD DUP8 DUP2 GT PUSH2 0x161 JUMPI PUSH2 0x27A SWAP1 CALLDATASIZE SWAP1 DUP9 ADD PUSH2 0x134 JUMP JUMPDEST SWAP2 PUSH1 0x84 CALLDATALOAD DUP10 DUP2 GT PUSH2 0x161 JUMPI PUSH2 0x292 SWAP1 CALLDATASIZE SWAP1 DUP11 ADD PUSH2 0x134 JUMP JUMPDEST SWAP6 SWAP1 SWAP5 PUSH1 0xA4 CALLDATALOAD SWAP11 DUP12 GT PUSH2 0x161 JUMPI PUSH2 0x2B2 PUSH2 0x2BA SWAP11 PUSH2 0x2CA SWAP13 CALLDATASIZE SWAP2 ADD PUSH2 0x134 JUMP JUMPDEST SWAP10 SWAP1 SWAP9 PUSH2 0x11F3 JUMP JUMPDEST SWAP1 PUSH1 0x40 SWAP5 SWAP3 SWAP5 MLOAD SWAP5 DUP6 SWAP5 DUP6 PUSH2 0x1D7 JUMP JUMPDEST SUB SWAP1 RETURN JUMPDEST DUP1 ISZERO ISZERO SUB PUSH2 0x161 JUMPI JUMP JUMPDEST CALLDATALOAD SWAP1 PUSH2 0x2E3 DUP3 PUSH2 0x2CE JUMP JUMPDEST JUMP JUMPDEST CALLVALUE PUSH2 0x161 JUMPI PUSH1 0x40 CALLDATASIZE PUSH1 0x3 NOT ADD SLT PUSH2 0x161 JUMPI PUSH2 0x32C PUSH1 0x24 CALLDATALOAD PUSH2 0x305 DUP2 PUSH2 0x2CE JUMP JUMPDEST PUSH2 0x30D PUSH2 0x1EBC JUMP JUMPDEST PUSH1 0x4 CALLDATALOAD PUSH0 MSTORE PUSH1 0x9 PUSH1 0x20 MSTORE PUSH1 0x40 PUSH0 KECCAK256 SWAP1 PUSH1 0xFF DUP1 NOT DUP4 SLOAD AND SWAP2 ISZERO ISZERO AND OR SWAP1 SSTORE JUMP JUMPDEST STOP JUMPDEST CALLVALUE PUSH2 0x161 JUMPI PUSH0 CALLDATASIZE PUSH1 0x3 NOT ADD SLT PUSH2 0x161 JUMPI PUSH1 0x20 PUSH1 0xFF PUSH1 0x6 SLOAD AND PUSH1 0x40 MLOAD SWAP1 DUP2 MSTORE RETURN JUMPDEST PUSH1 0x20 PUSH1 0x3 NOT DUP3 ADD SLT PUSH2 0x161 JUMPI PUSH1 0x4 CALLDATALOAD SWAP1 PUSH1 0x1 PUSH1 0x1 PUSH1 0x40 SHL SUB DUP3 GT PUSH2 0x161 JUMPI PUSH2 0x378 SWAP2 PUSH1 0x4 ADD PUSH2 0x134 JUMP JUMPDEST SWAP1 SWAP2 JUMP JUMPDEST SWAP1 PUSH1 0x20 PUSH2 0x38D SWAP3 DUP2 DUP2 MSTORE ADD SWAP1 PUSH2 0x1B2 JUMP JUMPDEST SWAP1 JUMP JUMPDEST CALLVALUE PUSH2 0x161 JUMPI PUSH2 0x3A9 PUSH2 0x3A1 CALLDATASIZE PUSH2 0x34E JUMP JUMPDEST DUP2 ADD SWAP1 PUSH2 0x149A JUMP JUMPDEST PUSH0 JUMPDEST DUP2 MLOAD DUP2 LT ISZERO PUSH2 0x5B0 JUMPI DUP1 PUSH2 0x639 PUSH2 0x3C4 PUSH1 0x1 SWAP4 DUP6 PUSH2 0x15F8 JUMP JUMPDEST MLOAD MLOAD EQ PUSH2 0x3D2 JUMPI JUMPDEST ADD PUSH2 0x3AB JUMP JUMPDEST PUSH32 0xB627EDF90BDEEB835C1685F29DB2273BE4A4DE814D8F321A3E16DB4757760A10 PUSH1 0x20 PUSH2 0x414 DUP2 PUSH2 0x403 DUP6 DUP9 PUSH2 0x15F8 JUMP JUMPDEST MLOAD ADD MLOAD DUP3 DUP1 DUP3 MLOAD DUP4 ADD ADD SWAP2 ADD PUSH2 0x1611 JUMP JUMPDEST SWAP1 PUSH2 0x421 PUSH1 0x6 SLOAD PUSH1 0xFF AND SWAP1 JUMP JUMPDEST DUP5 DUP8 PUSH1 0xFF DUP4 DUP2 AND SWAP1 DUP7 AND LT PUSH2 0x53C JUMPI PUSH2 0x4D5 PUSH2 0x4F1 SWAP4 PUSH2 0x464 PUSH1 0x80 PUSH2 0x457 DUP7 DUP7 PUSH2 0x45F PUSH1 0x60 PUSH2 0x457 PUSH2 0x4AF SWAP14 SWAP12 PUSH2 0x4E3 SWAP12 PUSH2 0x15F8 JUMP JUMPDEST MLOAD ADD PUSH1 0x1 SWAP1 MSTORE JUMP JUMPDEST PUSH2 0x15F8 JUMP JUMPDEST PUSH2 0x4AF PUSH2 0x4B5 PUSH2 0x47C PUSH2 0x476 DUP11 PUSH2 0x1FC4 JUMP JUMPDEST SWAP4 PUSH2 0x1FC4 JUMP JUMPDEST SWAP3 PUSH1 0x40 MLOAD SWAP9 DUP10 SWAP8 DUP9 ADD PUSH1 0x1B SWAP1 PUSH32 0x416C6C6F636174696F6E207265636F6D6D656E646174696F6E3A200000000000 DUP2 MSTORE ADD SWAP1 JUMP JUMPDEST SWAP1 PUSH2 0x1626 JUMP JUMPDEST PUSH20 0x12901436B2B2BA39903A343932B9B437B6321D1 PUSH1 0x65 SHL DUP2 MSTORE PUSH1 0x14 ADD SWAP1 JUMP JUMPDEST PUSH2 0x2529 PUSH1 0xF0 SHL DUP2 MSTORE PUSH1 0x2 ADD SWAP1 JUMP JUMPDEST SUB PUSH1 0x1F NOT DUP2 ADD DUP4 MSTORE DUP3 PUSH2 0xD0E JUMP JUMPDEST PUSH1 0xA0 PUSH2 0x4FD DUP6 DUP9 PUSH2 0x15F8 JUMP JUMPDEST MLOAD ADD MSTORE JUMPDEST PUSH2 0x518 PUSH1 0x80 PUSH2 0x510 DUP6 DUP9 PUSH2 0x15F8 JUMP JUMPDEST MLOAD ADD MLOAD ISZERO ISZERO SWAP1 JUMP JUMPDEST PUSH1 0x40 DUP1 MLOAD PUSH2 0x639 DUP2 MSTORE PUSH1 0xFF SWAP4 SWAP1 SWAP4 AND PUSH1 0x20 DUP5 ADD MSTORE SWAP1 ISZERO ISZERO SWAP1 DUP3 ADD MSTORE PUSH1 0x60 SWAP1 LOG1 PUSH2 0x3CC JUMP JUMPDEST PUSH2 0x4D5 PUSH2 0x59C SWAP4 PUSH0 PUSH1 0x80 PUSH2 0x567 DUP7 DUP7 DUP5 PUSH1 0x60 PUSH2 0x55F PUSH2 0x4AF SWAP14 SWAP12 PUSH2 0x4E3 SWAP12 PUSH2 0x15F8 JUMP JUMPDEST MLOAD ADD MSTORE PUSH2 0x15F8 JUMP JUMPDEST MLOAD ADD MSTORE PUSH2 0x4AF PUSH2 0x57C PUSH2 0x47C PUSH2 0x476 DUP11 PUSH2 0x1FC4 JUMP JUMPDEST PUSH20 0x1290143132B637BB903A343932B9B437B6321D1 PUSH1 0x65 SHL DUP2 MSTORE PUSH1 0x14 ADD SWAP1 JUMP JUMPDEST PUSH1 0xA0 PUSH2 0x5A8 DUP6 DUP9 PUSH2 0x15F8 JUMP JUMPDEST MLOAD ADD MSTORE PUSH2 0x501 JUMP JUMPDEST PUSH1 0x40 MLOAD PUSH2 0x2CA SWAP1 PUSH2 0x5C8 DUP2 PUSH2 0x4E3 DUP7 PUSH1 0x20 DUP4 ADD PUSH2 0x163D JUMP JUMPDEST PUSH1 0x40 MLOAD SWAP2 DUP3 SWAP2 DUP3 PUSH2 0x37C JUMP JUMPDEST CALLVALUE PUSH2 0x161 JUMPI PUSH1 0x40 CALLDATASIZE PUSH1 0x3 NOT ADD SLT PUSH2 0x161 JUMPI PUSH2 0x32C PUSH1 0x24 CALLDATALOAD PUSH2 0x5F4 DUP2 PUSH2 0x2CE JUMP JUMPDEST PUSH2 0x5FC PUSH2 0x1EBC JUMP JUMPDEST PUSH1 0x4 CALLDATALOAD PUSH0 MSTORE PUSH1 0x8 PUSH1 0x20 MSTORE PUSH1 0x40 PUSH0 KECCAK256 SWAP1 PUSH1 0xFF DUP1 NOT DUP4 SLOAD AND SWAP2 ISZERO ISZERO AND OR SWAP1 SSTORE JUMP JUMPDEST CALLVALUE PUSH2 0x161 JUMPI PUSH1 0x40 CALLDATASIZE PUSH1 0x3 NOT ADD SLT PUSH2 0x161 JUMPI PUSH2 0x32C PUSH2 0x637 PUSH2 0x17B JUMP JUMPDEST PUSH1 0x24 CALLDATALOAD SWAP1 PUSH2 0x644 DUP3 PUSH2 0x2CE JUMP JUMPDEST PUSH2 0x64C PUSH2 0x1EBC JUMP JUMPDEST PUSH1 0x1 DUP1 PUSH1 0xA0 SHL SUB AND PUSH0 MSTORE PUSH1 0x7 PUSH1 0x20 MSTORE PUSH1 0x40 PUSH0 KECCAK256 SWAP1 PUSH1 0xFF DUP1 NOT DUP4 SLOAD AND SWAP2 ISZERO ISZERO AND OR SWAP1 SSTORE JUMP JUMPDEST PUSH1 0x40 PUSH1 0x3 NOT DUP3 ADD SLT PUSH2 0x161 JUMPI PUSH1 0x1 PUSH1 0x1 PUSH1 0x40 SHL SUB SWAP2 PUSH1 0x4 CALLDATALOAD DUP4 DUP2 GT PUSH2 0x161 JUMPI DUP3 PUSH2 0x69C SWAP2 PUSH1 0x4 ADD PUSH2 0x134 JUMP JUMPDEST SWAP4 SWAP1 SWAP4 SWAP3 PUSH1 0x24 CALLDATALOAD SWAP2 DUP3 GT PUSH2 0x161 JUMPI PUSH2 0x378 SWAP2 PUSH1 0x4 ADD PUSH2 0x134 JUMP JUMPDEST CALLVALUE PUSH2 0x161 JUMPI PUSH2 0x2CA PUSH2 0x708 PUSH2 0x6F4 PUSH2 0x6E6 PUSH2 0x703 PUSH2 0x6FE PUSH2 0x6F9 PUSH2 0x6D9 CALLDATASIZE PUSH2 0x670 JUMP JUMPDEST SWAP8 SWAP3 SWAP1 SWAP7 SWAP2 DUP2 ADD SWAP1 PUSH2 0xDA8 JUMP JUMPDEST POP POP POP SWAP5 SWAP3 SWAP4 SWAP2 SWAP1 SWAP4 PUSH2 0x19BD JUMP JUMPDEST PUSH2 0xE19 JUMP JUMPDEST PUSH2 0x1ADE JUMP JUMPDEST PUSH2 0xE5C JUMP JUMPDEST PUSH2 0x1776 JUMP JUMPDEST PUSH1 0x40 MLOAD SWAP2 DUP3 SWAP2 PUSH1 0x20 DUP4 MSTORE PUSH1 0x20 DUP4 ADD SWAP1 PUSH2 0x1B2 JUMP JUMPDEST CALLVALUE PUSH2 0x161 JUMPI PUSH1 0x20 DUP1 PUSH1 0x3 NOT CALLDATASIZE ADD SLT PUSH2 0x161 JUMPI PUSH1 0x40 MLOAD DUP2 DUP2 ADD SWAP1 PUSH1 0x4 CALLDATALOAD DUP3 MSTORE DUP3 DUP2 MSTORE PUSH2 0x746 DUP2 PUSH2 0xCBD JUMP JUMPDEST MLOAD SWAP1 KECCAK256 PUSH1 0x40 MLOAD SWAP1 DUP3 DUP3 ADD MSTORE DUP2 DUP2 MSTORE PUSH2 0x75D DUP2 PUSH2 0xCBD JUMP JUMPDEST PUSH1 0x40 MLOAD SWAP2 PUSH0 SWAP1 PUSH1 0x4 SLOAD PUSH2 0x76F DUP2 PUSH2 0xEC4 JUMP JUMPDEST DUP1 DUP7 MSTORE SWAP1 PUSH1 0x1 SWAP1 DUP2 DUP2 AND SWAP1 DUP2 ISZERO PUSH2 0x807 JUMPI POP PUSH1 0x1 EQ PUSH2 0x7B2 JUMPI JUMPDEST PUSH2 0x2CA PUSH2 0x5C8 DUP8 DUP8 PUSH2 0x79D DUP3 DUP10 SUB DUP4 PUSH2 0xD0E JUMP JUMPDEST PUSH1 0x40 MLOAD SWAP2 PUSH2 0x7AA DUP4 PUSH2 0xCD8 JUMP JUMPDEST PUSH0 DUP4 MSTORE PUSH2 0x1B9A JUMP JUMPDEST PUSH1 0x4 PUSH0 SWAP1 DUP2 MSTORE SWAP3 SWAP4 POP PUSH32 0x8A35ACFBC15FF81A39AE7D344FD709F28E8600B4AA8C65C6B64BFE7FE36BD19B JUMPDEST DUP3 DUP5 LT PUSH2 0x7F4 JUMPI POP POP POP DUP4 ADD ADD DUP2 PUSH2 0x79D DUP5 PUSH2 0x789 JUMP JUMPDEST DUP1 SLOAD DUP8 DUP6 ADD DUP7 ADD MSTORE SWAP3 DUP5 ADD SWAP3 DUP2 ADD PUSH2 0x7DD JUMP JUMPDEST PUSH1 0xFF NOT AND DUP5 DUP9 ADD MSTORE POP POP ISZERO ISZERO PUSH1 0x5 SHL DUP5 ADD ADD SWAP1 POP DUP2 PUSH2 0x79D DUP5 PUSH2 0x789 JUMP JUMPDEST CALLVALUE PUSH2 0x161 JUMPI PUSH0 CALLDATASIZE PUSH1 0x3 NOT ADD SLT PUSH2 0x161 JUMPI PUSH2 0x83D PUSH2 0x1EBC JUMP JUMPDEST PUSH0 DUP1 SLOAD PUSH1 0x1 PUSH1 0x1 PUSH1 0xA0 SHL SUB NOT DUP2 AND DUP3 SSTORE PUSH1 0x1 PUSH1 0x1 PUSH1 0xA0 SHL SUB AND PUSH32 0x8BE0079C531659141344CD1FD0A4F28419497F9722A3DAAFE3B4186F6B6457E0 DUP3 DUP1 LOG3 STOP JUMPDEST CALLVALUE PUSH2 0x161 JUMPI PUSH2 0x8B0 PUSH2 0x8B9 PUSH2 0x890 CALLDATASIZE PUSH2 0x670 JUMP JUMPDEST SWAP2 SWAP5 SWAP1 SWAP3 PUSH2 0x89C PUSH2 0x1EBC JUMP JUMPDEST PUSH1 0x40 MLOAD SWAP6 PUSH2 0x8A9 DUP8 PUSH2 0xCBD JUMP JUMPDEST CALLDATASIZE SWAP2 PUSH2 0xD57 JUMP JUMPDEST DUP5 MSTORE CALLDATASIZE SWAP2 PUSH2 0xD57 JUMP JUMPDEST PUSH1 0x20 SWAP2 PUSH1 0x20 DUP2 ADD SWAP2 DUP3 MSTORE MLOAD DUP1 MLOAD SWAP3 PUSH1 0x1 PUSH1 0x1 PUSH1 0x40 SHL SUB DUP5 GT PUSH2 0x9A5 JUMPI PUSH1 0x1 SWAP2 PUSH2 0x8EB DUP6 PUSH2 0x8E6 DUP6 SLOAD PUSH2 0xEC4 JUMP JUMPDEST PUSH2 0x17F9 JUMP JUMPDEST PUSH1 0x20 SWAP2 PUSH1 0x1F DUP7 GT PUSH1 0x1 EQ PUSH2 0x933 JUMPI POP SWAP4 DUP1 PUSH2 0x91F SWAP3 PUSH2 0x32C SWAP7 PUSH0 SWAP3 PUSH2 0x928 JUMPI JUMPDEST POP POP DUP2 PUSH1 0x1 SHL SWAP2 PUSH0 NOT SWAP1 PUSH1 0x3 SHL SHR NOT AND OR SWAP1 JUMP JUMPDEST SWAP1 SSTORE JUMPDEST MLOAD PUSH2 0x18B1 JUMP JUMPDEST ADD MLOAD SWAP1 POP PUSH0 DUP1 PUSH2 0x90B JUMP JUMPDEST PUSH1 0x1 PUSH0 MSTORE SWAP2 SWAP1 PUSH1 0x1F NOT DUP7 AND PUSH0 DUP1 MLOAD PUSH1 0x20 PUSH2 0x24E6 DUP4 CODECOPY DUP2 MLOAD SWAP2 MSTORE SWAP4 PUSH0 SWAP1 JUMPDEST DUP3 DUP3 LT PUSH2 0x98E JUMPI POP POP SWAP2 DUP5 SWAP4 SWAP2 DUP8 PUSH2 0x32C SWAP9 SWAP5 LT PUSH2 0x976 JUMPI JUMPDEST POP POP POP DUP2 SHL ADD SWAP1 SSTORE PUSH2 0x922 JUMP JUMPDEST ADD MLOAD PUSH0 NOT PUSH1 0xF8 DUP5 PUSH1 0x3 SHL AND SHR NOT AND SWAP1 SSTORE PUSH0 DUP1 DUP1 PUSH2 0x969 JUMP JUMPDEST DUP1 DUP8 DUP7 SWAP8 DUP3 SWAP5 SWAP8 DUP8 ADD MLOAD DUP2 SSTORE ADD SWAP7 ADD SWAP5 ADD SWAP1 PUSH2 0x950 JUMP JUMPDEST PUSH2 0xCA9 JUMP JUMPDEST CALLVALUE PUSH2 0x161 JUMPI PUSH2 0x9B8 CALLDATASIZE PUSH2 0x34E JUMP JUMPDEST PUSH2 0x9C0 PUSH2 0x1EBC JUMP JUMPDEST PUSH2 0x9E3 PUSH1 0x20 PUSH1 0x40 MLOAD DUP4 DUP2 SWAP5 DUP4 DUP4 ADD SWAP7 DUP8 CALLDATACOPY DUP2 ADD PUSH0 DUP4 DUP3 ADD MSTORE SUB DUP1 DUP5 MSTORE ADD DUP3 PUSH2 0xD0E JUMP JUMPDEST MLOAD SWAP1 KECCAK256 PUSH1 0x5 SSTORE STOP JUMPDEST CALLVALUE PUSH2 0x161 JUMPI PUSH0 CALLDATASIZE PUSH1 0x3 NOT ADD SLT PUSH2 0x161 JUMPI PUSH0 SLOAD PUSH1 0x40 MLOAD PUSH1 0x1 PUSH1 0x1 PUSH1 0xA0 SHL SUB SWAP1 SWAP2 AND DUP2 MSTORE PUSH1 0x20 SWAP1 RETURN JUMPDEST CALLVALUE PUSH2 0x161 JUMPI PUSH2 0xA20 CALLDATASIZE PUSH2 0x34E JUMP JUMPDEST SWAP1 PUSH2 0xA29 PUSH2 0x1EBC JUMP JUMPDEST PUSH1 0x5 SLOAD SWAP2 PUSH2 0xA50 PUSH1 0x20 PUSH1 0x40 MLOAD DUP4 DUP2 SWAP5 DUP4 DUP4 ADD SWAP7 DUP8 CALLDATACOPY DUP2 ADD PUSH0 DUP4 DUP3 ADD MSTORE SUB DUP1 DUP5 MSTORE ADD DUP3 PUSH2 0xD0E JUMP JUMPDEST MLOAD SWAP1 KECCAK256 SUB PUSH2 0xA63 JUMPI PUSH2 0x2CA PUSH2 0x5C8 PUSH2 0xEFC JUMP JUMPDEST PUSH1 0x40 MLOAD PUSH3 0x461BCD PUSH1 0xE5 SHL DUP2 MSTORE PUSH1 0x20 PUSH1 0x4 DUP3 ADD MSTORE PUSH1 0x10 PUSH1 0x24 DUP3 ADD MSTORE PUSH16 0x125B9D985B1A59081C185CDCDDDBDC99 PUSH1 0x82 SHL PUSH1 0x44 DUP3 ADD MSTORE PUSH1 0x64 SWAP1 REVERT JUMPDEST PUSH1 0xFF DUP2 AND SUB PUSH2 0x161 JUMPI JUMP JUMPDEST CALLVALUE PUSH2 0x161 JUMPI PUSH1 0x20 CALLDATASIZE PUSH1 0x3 NOT ADD SLT PUSH2 0x161 JUMPI PUSH1 0x4 CALLDATALOAD PUSH2 0xAC3 DUP2 PUSH2 0xA9B JUMP JUMPDEST PUSH2 0xACB PUSH2 0x1EBC JUMP JUMPDEST PUSH1 0xFF DUP2 AND SWAP1 PUSH1 0x64 DUP3 GT PUSH2 0xB21 JUMPI PUSH1 0x6 DUP1 SLOAD PUSH1 0xFF NOT DUP2 AND SWAP4 SWAP1 SWAP4 OR SWAP1 SSTORE PUSH1 0x40 DUP1 MLOAD PUSH1 0xFF SWAP4 DUP5 AND DUP2 MSTORE SWAP2 SWAP1 SWAP3 AND PUSH1 0x20 DUP3 ADD MSTORE PUSH32 0x9BA446F696D1D4250AF4F999C61ED8DD56C29B643576542A42608AA44D16C37F SWAP2 SWAP1 LOG1 STOP JUMPDEST PUSH1 0x40 MLOAD PUSH3 0x461BCD PUSH1 0xE5 SHL DUP2 MSTORE PUSH1 0x20 PUSH1 0x4 DUP3 ADD MSTORE PUSH1 0x18 PUSH1 0x24 DUP3 ADD MSTORE PUSH32 0x5468726573686F6C64206D757374206265203C3D203130300000000000000000 PUSH1 0x44 DUP3 ADD MSTORE PUSH1 0x64 SWAP1 REVERT JUMPDEST CALLVALUE PUSH2 0x161 JUMPI PUSH1 0x40 CALLDATASIZE PUSH1 0x3 NOT ADD SLT PUSH2 0x161 JUMPI PUSH1 0x4 CALLDATALOAD PUSH1 0x1 PUSH1 0x1 PUSH1 0x40 SHL SUB DUP2 GT PUSH2 0x161 JUMPI PUSH2 0x6FE PUSH2 0x6F9 PUSH2 0x6F4 PUSH2 0x6E6 PUSH2 0xBA5 PUSH2 0xBAD SWAP6 CALLDATASIZE SWAP1 PUSH1 0x4 ADD PUSH2 0x134 JUMP JUMPDEST DUP2 ADD SWAP1 PUSH2 0xDA8 JUMP JUMPDEST PUSH1 0x24 CALLDATALOAD PUSH0 MSTORE PUSH1 0x9 PUSH1 0x20 MSTORE PUSH1 0x20 PUSH1 0xFF PUSH1 0x40 PUSH0 KECCAK256 SLOAD AND PUSH1 0x40 MLOAD SWAP1 ISZERO ISZERO DUP2 MSTORE RETURN JUMPDEST CALLVALUE PUSH2 0x161 JUMPI PUSH0 CALLDATASIZE PUSH1 0x3 NOT ADD SLT PUSH2 0x161 JUMPI PUSH2 0xC0B PUSH2 0xBEE PUSH2 0xBE9 PUSH2 0xFAA JUMP JUMPDEST PUSH2 0x2074 JUMP JUMPDEST PUSH2 0xBF6 PUSH2 0xFAA JUMP JUMPDEST SWAP1 PUSH1 0x40 MLOAD SWAP3 DUP4 SWAP3 PUSH1 0x40 DUP5 MSTORE PUSH1 0x40 DUP5 ADD SWAP1 PUSH2 0x1B2 JUMP JUMPDEST PUSH1 0x1 PUSH1 0x1 PUSH1 0xA0 SHL SUB SWAP1 SWAP2 AND PUSH1 0x20 DUP4 ADD MSTORE SUB SWAP1 RETURN JUMPDEST CALLVALUE PUSH2 0x161 JUMPI PUSH1 0x20 CALLDATASIZE PUSH1 0x3 NOT ADD SLT PUSH2 0x161 JUMPI PUSH2 0xC38 PUSH2 0x17B JUMP JUMPDEST PUSH2 0xC40 PUSH2 0x1EBC JUMP JUMPDEST PUSH1 0x1 PUSH1 0x1 PUSH1 0xA0 SHL SUB SWAP1 DUP2 AND SWAP1 DUP2 ISZERO PUSH2 0xC91 JUMPI PUSH0 SLOAD DUP3 PUSH12 0xFFFFFFFFFFFFFFFFFFFFFFFF PUSH1 0xA0 SHL DUP3 AND OR PUSH0 SSTORE AND PUSH32 0x8BE0079C531659141344CD1FD0A4F28419497F9722A3DAAFE3B4186F6B6457E0 PUSH0 DUP1 LOG3 STOP JUMPDEST PUSH1 0x40 MLOAD PUSH4 0x1E4FBDF7 PUSH1 0xE0 SHL DUP2 MSTORE PUSH0 PUSH1 0x4 DUP3 ADD MSTORE PUSH1 0x24 SWAP1 REVERT JUMPDEST PUSH4 0x4E487B71 PUSH1 0xE0 SHL PUSH0 MSTORE PUSH1 0x41 PUSH1 0x4 MSTORE PUSH1 0x24 PUSH0 REVERT JUMPDEST PUSH1 0x40 DUP2 ADD SWAP1 DUP2 LT PUSH1 0x1 PUSH1 0x1 PUSH1 0x40 SHL SUB DUP3 GT OR PUSH2 0x9A5 JUMPI PUSH1 0x40 MSTORE JUMP JUMPDEST PUSH1 0x20 DUP2 ADD SWAP1 DUP2 LT PUSH1 0x1 PUSH1 0x1 PUSH1 0x40 SHL SUB DUP3 GT OR PUSH2 0x9A5 JUMPI PUSH1 0x40 MSTORE JUMP JUMPDEST PUSH1 0xE0 DUP2 ADD SWAP1 DUP2 LT PUSH1 0x1 PUSH1 0x1 PUSH1 0x40 SHL SUB DUP3 GT OR PUSH2 0x9A5 JUMPI PUSH1 0x40 MSTORE JUMP JUMPDEST SWAP1 PUSH1 0x1F DUP1 NOT SWAP2 ADD AND DUP2 ADD SWAP1 DUP2 LT PUSH1 0x1 PUSH1 0x1 PUSH1 0x40 SHL SUB DUP3 GT OR PUSH2 0x9A5 JUMPI PUSH1 0x40 MSTORE JUMP JUMPDEST PUSH1 0x40 MLOAD SWAP1 PUSH2 0x2E3 DUP3 PUSH2 0xCF3 JUMP JUMPDEST PUSH1 0x1 PUSH1 0x1 PUSH1 0x40 SHL SUB DUP2 GT PUSH2 0x9A5 JUMPI PUSH1 0x1F ADD PUSH1 0x1F NOT AND PUSH1 0x20 ADD SWAP1 JUMP JUMPDEST SWAP3 SWAP2 SWAP3 PUSH2 0xD63 DUP3 PUSH2 0xD3C JUMP JUMPDEST SWAP2 PUSH2 0xD71 PUSH1 0x40 MLOAD SWAP4 DUP5 PUSH2 0xD0E JUMP JUMPDEST DUP3 SWAP5 DUP2 DUP5 MSTORE DUP2 DUP4 ADD GT PUSH2 0x161 JUMPI DUP3 DUP2 PUSH1 0x20 SWAP4 DUP5 PUSH0 SWAP7 ADD CALLDATACOPY ADD ADD MSTORE JUMP JUMPDEST SWAP1 DUP1 PUSH1 0x1F DUP4 ADD SLT ISZERO PUSH2 0x161 JUMPI DUP2 PUSH1 0x20 PUSH2 0x38D SWAP4 CALLDATALOAD SWAP2 ADD PUSH2 0xD57 JUMP JUMPDEST SWAP2 PUSH1 0xE0 DUP4 DUP4 SUB SLT PUSH2 0x161 JUMPI DUP3 CALLDATALOAD SWAP3 PUSH1 0x1 PUSH1 0x1 PUSH1 0x40 SHL SUB SWAP3 PUSH1 0x20 DUP3 ADD CALLDATALOAD DUP5 DUP2 GT PUSH2 0x161 JUMPI DUP2 PUSH2 0xDD7 SWAP2 DUP5 ADD PUSH2 0xD8D JUMP JUMPDEST SWAP4 PUSH1 0x40 DUP4 ADD CALLDATALOAD SWAP4 PUSH1 0x60 DUP5 ADD CALLDATALOAD DUP3 DUP2 GT PUSH2 0x161 JUMPI DUP4 PUSH2 0xDF6 SWAP2 DUP7 ADD PUSH2 0xD8D JUMP JUMPDEST SWAP4 PUSH1 0x80 DUP2 ADD CALLDATALOAD SWAP4 PUSH1 0xA0 DUP3 ADD CALLDATALOAD SWAP4 PUSH1 0xC0 DUP4 ADD CALLDATALOAD SWAP1 DUP2 GT PUSH2 0x161 JUMPI PUSH2 0x38D SWAP3 ADD PUSH2 0xD8D JUMP JUMPDEST ISZERO PUSH2 0xE20 JUMPI JUMP JUMPDEST PUSH1 0x40 MLOAD PUSH3 0x461BCD PUSH1 0xE5 SHL DUP2 MSTORE PUSH1 0x20 PUSH1 0x4 DUP3 ADD MSTORE PUSH1 0x14 PUSH1 0x24 DUP3 ADD MSTORE PUSH20 0x24B73B30B634B21030B1B1B2B9B9903A37B5B2B7 PUSH1 0x61 SHL PUSH1 0x44 DUP3 ADD MSTORE PUSH1 0x64 SWAP1 REVERT JUMPDEST ISZERO PUSH2 0xE63 JUMPI JUMP JUMPDEST PUSH1 0x40 MLOAD PUSH3 0x461BCD PUSH1 0xE5 SHL DUP2 MSTORE PUSH1 0x20 PUSH1 0x4 DUP3 ADD MSTORE PUSH1 0x16 PUSH1 0x24 DUP3 ADD MSTORE PUSH22 0x125B9D985B1A59081C9D5B9D1A5B5948191A59D95CDD PUSH1 0x52 SHL PUSH1 0x44 DUP3 ADD MSTORE PUSH1 0x64 SWAP1 REVERT JUMPDEST DUP3 PUSH1 0x14 SWAP5 SWAP4 SWAP3 DUP3 CALLDATACOPY ADD SWAP1 PUSH12 0xFFFFFFFFFFFFFFFFFFFFFFFF NOT SWAP1 PUSH1 0x60 SHL AND DUP2 MSTORE ADD SWAP1 JUMP JUMPDEST SWAP1 PUSH1 0x1 DUP3 DUP2 SHR SWAP3 AND DUP1 ISZERO PUSH2 0xEF2 JUMPI JUMPDEST PUSH1 0x20 DUP4 LT EQ PUSH2 0xEDE JUMPI JUMP JUMPDEST PUSH4 0x4E487B71 PUSH1 0xE0 SHL PUSH0 MSTORE PUSH1 0x22 PUSH1 0x4 MSTORE PUSH1 0x24 PUSH0 REVERT JUMPDEST SWAP2 PUSH1 0x7F AND SWAP2 PUSH2 0xED3 JUMP JUMPDEST PUSH1 0x40 MLOAD SWAP1 PUSH0 DUP3 PUSH1 0x2 SLOAD SWAP2 PUSH2 0xF0F DUP4 PUSH2 0xEC4 JUMP JUMPDEST DUP1 DUP4 MSTORE SWAP3 PUSH1 0x20 SWAP1 PUSH1 0x1 SWAP1 DUP2 DUP2 AND SWAP1 DUP2 ISZERO PUSH2 0xF86 JUMPI POP PUSH1 0x1 EQ PUSH2 0xF3A JUMPI JUMPDEST POP POP PUSH2 0x2E3 SWAP3 POP SUB DUP4 PUSH2 0xD0E JUMP JUMPDEST SWAP2 POP SWAP3 PUSH1 0x2 PUSH0 MSTORE PUSH0 DUP1 MLOAD PUSH1 0x20 PUSH2 0x24C6 DUP4 CODECOPY DUP2 MLOAD SWAP2 MSTORE SWAP4 PUSH0 SWAP3 JUMPDEST DUP3 DUP5 LT PUSH2 0xF6E JUMPI POP PUSH2 0x2E3 SWAP5 POP POP POP DUP2 ADD PUSH1 0x20 ADD PUSH0 DUP1 PUSH2 0xF2C JUMP JUMPDEST DUP6 SLOAD DUP9 DUP6 ADD DUP4 ADD MSTORE SWAP5 DUP6 ADD SWAP5 DUP8 SWAP5 POP SWAP3 DUP2 ADD SWAP3 PUSH2 0xF53 JUMP JUMPDEST SWAP2 POP POP PUSH1 0x20 SWAP3 POP PUSH2 0x2E3 SWAP5 SWAP2 POP PUSH1 0xFF NOT AND DUP3 DUP5 ADD MSTORE ISZERO ISZERO PUSH1 0x5 SHL DUP3 ADD ADD PUSH0 DUP1 PUSH2 0xF2C JUMP JUMPDEST PUSH1 0x40 MLOAD SWAP1 PUSH0 DUP3 PUSH1 0x1 SWAP2 PUSH1 0x1 SLOAD PUSH2 0xFBF DUP2 PUSH2 0xEC4 JUMP JUMPDEST DUP1 DUP5 MSTORE SWAP4 PUSH1 0x20 SWAP2 PUSH1 0x1 DUP2 AND SWAP1 DUP2 ISZERO PUSH2 0xF86 JUMPI POP PUSH1 0x1 EQ PUSH2 0xFE7 JUMPI POP POP PUSH2 0x2E3 SWAP3 POP SUB DUP4 PUSH2 0xD0E JUMP JUMPDEST SWAP2 POP SWAP3 PUSH1 0x1 PUSH0 MSTORE PUSH0 DUP1 MLOAD PUSH1 0x20 PUSH2 0x24E6 DUP4 CODECOPY DUP2 MLOAD SWAP2 MSTORE SWAP4 PUSH0 SWAP3 JUMPDEST DUP3 DUP5 LT PUSH2 0x101B JUMPI POP PUSH2 0x2E3 SWAP5 POP POP POP DUP2 ADD PUSH1 0x20 ADD PUSH0 DUP1 PUSH2 0xF2C JUMP JUMPDEST DUP6 SLOAD DUP9 DUP6 ADD DUP4 ADD MSTORE SWAP5 DUP6 ADD SWAP5 DUP8 SWAP5 POP SWAP3 DUP2 ADD SWAP3 PUSH2 0x1000 JUMP JUMPDEST PUSH1 0x40 MLOAD SWAP1 PUSH0 DUP3 PUSH1 0x2 SLOAD SWAP2 PUSH2 0x1046 DUP4 PUSH2 0xEC4 JUMP JUMPDEST DUP1 DUP4 MSTORE SWAP3 PUSH1 0x20 SWAP1 PUSH1 0x1 SWAP1 DUP2 DUP2 AND SWAP1 DUP2 ISZERO PUSH2 0xF86 JUMPI POP PUSH1 0x1 EQ PUSH2 0x1070 JUMPI POP POP PUSH2 0x2E3 SWAP3 POP SUB DUP4 PUSH2 0xD0E JUMP JUMPDEST SWAP2 POP SWAP3 PUSH1 0x2 PUSH0 MSTORE PUSH0 DUP1 MLOAD PUSH1 0x20 PUSH2 0x24C6 DUP4 CODECOPY DUP2 MLOAD SWAP2 MSTORE SWAP4 PUSH0 SWAP3 JUMPDEST DUP3 DUP5 LT PUSH2 0x10A4 JUMPI POP PUSH2 0x2E3 SWAP5 POP POP POP DUP2 ADD PUSH1 0x20 ADD PUSH0 DUP1 PUSH2 0xF2C JUMP JUMPDEST DUP6 SLOAD DUP9 DUP6 ADD DUP4 ADD MSTORE SWAP5 DUP6 ADD SWAP5 DUP8 SWAP5 POP SWAP3 DUP2 ADD SWAP3 PUSH2 0x1089 JUMP JUMPDEST PUSH1 0x40 MLOAD SWAP1 PUSH0 DUP3 PUSH1 0x1 SWAP2 PUSH1 0x1 SLOAD PUSH2 0x10D1 DUP2 PUSH2 0xEC4 JUMP JUMPDEST DUP1 DUP5 MSTORE SWAP4 PUSH1 0x20 SWAP2 PUSH1 0x1 DUP2 AND SWAP1 DUP2 ISZERO PUSH2 0xF86 JUMPI POP PUSH1 0x1 EQ PUSH2 0x10F9 JUMPI POP POP PUSH2 0x2E3 SWAP3 POP SUB DUP4 PUSH2 0xD0E JUMP JUMPDEST SWAP2 POP SWAP3 PUSH1 0x1 PUSH0 MSTORE PUSH0 DUP1 MLOAD PUSH1 0x20 PUSH2 0x24E6 DUP4 CODECOPY DUP2 MLOAD SWAP2 MSTORE SWAP4 PUSH0 SWAP3 JUMPDEST DUP3 DUP5 LT PUSH2 0x112D JUMPI POP PUSH2 0x2E3 SWAP5 POP POP POP DUP2 ADD PUSH1 0x20 ADD PUSH0 DUP1 PUSH2 0xF2C JUMP JUMPDEST DUP6 SLOAD DUP9 DUP6 ADD DUP4 ADD MSTORE SWAP5 DUP6 ADD SWAP5 DUP8 SWAP5 POP SWAP3 DUP2 ADD SWAP3 PUSH2 0x1112 JUMP JUMPDEST PUSH1 0x40 MLOAD SWAP1 PUSH0 DUP3 PUSH1 0x3 SLOAD SWAP2 PUSH2 0x1158 DUP4 PUSH2 0xEC4 JUMP JUMPDEST DUP1 DUP4 MSTORE SWAP3 PUSH1 0x20 SWAP1 PUSH1 0x1 SWAP1 DUP2 DUP2 AND SWAP1 DUP2 ISZERO PUSH2 0xF86 JUMPI POP PUSH1 0x1 EQ PUSH2 0x1182 JUMPI POP POP PUSH2 0x2E3 SWAP3 POP SUB DUP4 PUSH2 0xD0E JUMP JUMPDEST SWAP2 POP SWAP3 PUSH1 0x3 PUSH0 MSTORE PUSH32 0xC2575A0E9E593C00F959F8C92F12DB2869C3395A3B0502D05E2516446F71F85B SWAP4 PUSH0 SWAP3 JUMPDEST DUP3 DUP5 LT PUSH2 0x11C9 JUMPI POP PUSH2 0x2E3 SWAP5 POP POP POP DUP2 ADD PUSH1 0x20 ADD PUSH0 DUP1 PUSH2 0xF2C JUMP JUMPDEST DUP6 SLOAD DUP9 DUP6 ADD DUP4 ADD MSTORE SWAP5 DUP6 ADD SWAP5 DUP8 SWAP5 POP SWAP3 DUP2 ADD SWAP3 PUSH2 0x11AE JUMP JUMPDEST PUSH1 0x40 MLOAD SWAP1 PUSH2 0x11EE DUP3 PUSH2 0xCD8 JUMP JUMPDEST PUSH0 DUP3 MSTORE JUMP JUMPDEST SWAP1 SWAP11 SWAP8 SWAP3 SWAP11 SWAP10 SWAP6 SWAP7 SWAP9 SWAP5 SWAP10 PUSH2 0x1208 DUP6 DUP14 PUSH2 0x197D JUMP JUMPDEST ISZERO PUSH2 0x1455 JUMPI DUP2 ADD PUSH2 0x1219 DUP2 DUP4 PUSH2 0xDA8 JUMP JUMPDEST POP POP POP SWAP2 PUSH2 0x1227 SWAP2 SWAP4 PUSH2 0x19BD JUMP JUMPDEST PUSH2 0x1230 SWAP1 PUSH2 0xE19 JUMP JUMPDEST PUSH2 0x1239 SWAP2 PUSH2 0x1ADE JUMP JUMPDEST PUSH2 0x1242 SWAP1 PUSH2 0xE5C JUMP JUMPDEST PUSH2 0x124B SWAP2 PUSH2 0xDA8 JUMP JUMPDEST POP POP SWAP6 SWAP4 POP POP POP POP PUSH1 0x40 SWAP10 DUP11 MLOAD SWAP7 DUP8 PUSH1 0x20 SWAP8 DUP6 DUP10 DUP4 ADD SWAP4 PUSH2 0x126C SWAP3 DUP6 PUSH2 0xEA1 JUMP JUMPDEST SUB SWAP8 PUSH1 0x1F NOT SWAP9 DUP10 DUP2 ADD DUP3 MSTORE PUSH2 0x1281 SWAP1 DUP3 PUSH2 0xD0E JUMP JUMPDEST MLOAD SWAP1 KECCAK256 DUP12 MLOAD DUP8 DUP2 ADD DUP3 DUP2 MSTORE DUP2 SWAP1 PUSH1 0x20 ADD SUB DUP10 DUP2 ADD DUP3 MSTORE PUSH2 0x12A1 SWAP1 DUP3 PUSH2 0xD0E JUMP JUMPDEST PUSH2 0x12A9 PUSH2 0x1033 JUMP JUMPDEST SWAP1 PUSH2 0x12B2 PUSH2 0x11E1 JUMP JUMPDEST SWAP1 PUSH2 0x12BC SWAP3 PUSH2 0x1B9A JUMP JUMPDEST PUSH2 0x12C4 PUSH2 0x10BC JUMP JUMPDEST SWAP2 PUSH2 0x12CE SWAP3 PUSH2 0x1C73 JUMP JUMPDEST DUP1 MLOAD DUP9 DUP3 ADD MLOAD SWAP2 DUP15 ADD MLOAD SWAP1 SWAP11 SWAP3 POP PUSH1 0xFF AND DUP14 MLOAD DUP10 DUP2 ADD SWAP12 DUP13 MSTORE PUSH1 0x20 DUP13 ADD SWAP3 SWAP1 SWAP3 MSTORE PUSH1 0xF8 SHL PUSH1 0x1 PUSH1 0x1 PUSH1 0xF8 SHL SUB NOT AND PUSH1 0x40 DUP12 ADD MSTORE SWAP9 DUP10 SWAP1 PUSH1 0x41 ADD SUB DUP9 DUP2 ADD DUP11 MSTORE PUSH2 0x1317 SWAP1 DUP11 PUSH2 0xD0E JUMP JUMPDEST CALLDATASIZE SWAP1 PUSH2 0x1322 SWAP3 PUSH2 0xD57 JUMP JUMPDEST DUP6 DUP2 MLOAD SWAP2 ADD KECCAK256 SWAP9 DUP11 MLOAD DUP1 SWAP2 DUP5 DUP9 DUP4 ADD SWAP5 PUSH2 0x133C SWAP3 DUP7 PUSH2 0xEA1 JUMP JUMPDEST SUB DUP8 DUP2 ADD DUP3 MSTORE PUSH2 0x134C SWAP1 DUP3 PUSH2 0xD0E JUMP JUMPDEST MLOAD SWAP1 KECCAK256 SWAP10 DUP11 SWAP4 PUSH2 0x135B SWAP2 PUSH2 0x1E89 JUMP JUMPDEST DUP10 MLOAD DUP6 DUP2 ADD SWAP10 DUP11 MSTORE PUSH1 0x20 DUP11 ADD SWAP5 SWAP1 SWAP5 MSTORE PUSH1 0x60 SWAP2 SWAP1 SWAP2 SHL PUSH12 0xFFFFFFFFFFFFFFFFFFFFFFFF NOT AND PUSH1 0x40 DUP10 ADD MSTORE PUSH1 0x54 DUP9 ADD SWAP2 SWAP1 SWAP2 MSTORE DUP1 ISZERO ISZERO PUSH1 0xF8 SHL PUSH1 0x74 DUP9 ADD MSTORE SWAP6 SWAP1 DUP1 PUSH1 0x75 DUP4 ADD SUB DUP5 DUP2 ADD DUP3 MSTORE PUSH2 0x13AF SWAP1 DUP3 PUSH2 0xD0E JUMP JUMPDEST MLOAD SWAP1 KECCAK256 DUP7 MLOAD DUP3 DUP2 ADD DUP3 DUP2 MSTORE DUP2 SWAP1 PUSH1 0x20 ADD SUB DUP5 DUP2 ADD DUP3 MSTORE PUSH2 0x13CF SWAP1 DUP3 PUSH2 0xD0E JUMP JUMPDEST PUSH2 0x13D7 PUSH2 0x1033 JUMP JUMPDEST SWAP1 PUSH2 0x13E0 PUSH2 0x11E1 JUMP JUMPDEST SWAP1 PUSH2 0x13EA SWAP3 PUSH2 0x1B9A JUMP JUMPDEST PUSH2 0x13F2 PUSH2 0x10BC JUMP JUMPDEST SWAP2 PUSH2 0x13FC SWAP3 PUSH2 0x1C73 JUMP JUMPDEST DUP1 SWAP8 SWAP2 POP MLOAD SWAP1 DUP1 DUP4 DUP10 ADD MLOAD SWAP9 ADD MLOAD PUSH2 0x1414 SWAP1 PUSH1 0xFF AND SWAP1 JUMP JUMPDEST SWAP1 MLOAD SWAP3 DUP4 ADD SWAP2 DUP3 MSTORE PUSH1 0x20 DUP3 ADD SWAP8 SWAP1 SWAP8 MSTORE PUSH1 0xF8 SWAP7 SWAP1 SWAP7 SHL PUSH1 0x1 PUSH1 0x1 PUSH1 0xF8 SHL SUB NOT AND PUSH1 0x40 DUP8 ADD MSTORE SWAP5 DUP6 SWAP1 PUSH1 0x41 ADD SUB SWAP1 DUP2 ADD DUP6 MSTORE PUSH2 0x144F SWAP1 DUP6 PUSH2 0xD0E JUMP JUMPDEST SWAP4 SWAP3 SWAP2 SWAP1 JUMP JUMPDEST PUSH1 0x40 MLOAD PUSH3 0x461BCD PUSH1 0xE5 SHL DUP2 MSTORE PUSH1 0x20 PUSH1 0x4 DUP3 ADD MSTORE PUSH1 0x1C PUSH1 0x24 DUP3 ADD MSTORE PUSH32 0x457865637574696F6E20706C616E206E6F742076616C69646174656400000000 PUSH1 0x44 DUP3 ADD MSTORE PUSH1 0x64 SWAP1 REVERT JUMPDEST PUSH1 0x20 SWAP1 DUP2 DUP2 DUP5 SUB SLT PUSH2 0x161 JUMPI DUP1 CALLDATALOAD PUSH1 0x1 PUSH1 0x1 PUSH1 0x40 SHL SUB SWAP2 DUP3 DUP3 GT PUSH2 0x161 JUMPI ADD SWAP1 DUP4 PUSH1 0x1F DUP4 ADD SLT ISZERO PUSH2 0x161 JUMPI DUP2 CALLDATALOAD SWAP4 DUP2 DUP6 GT PUSH2 0x9A5 JUMPI DUP5 PUSH1 0x5 SHL SWAP1 PUSH1 0x40 DUP1 MLOAD SWAP7 PUSH2 0x14E5 DUP8 DUP6 ADD DUP10 PUSH2 0xD0E JUMP JUMPDEST DUP8 MSTORE DUP6 DUP1 DUP9 ADD SWAP4 DUP7 ADD ADD SWAP5 DUP3 DUP7 GT PUSH2 0x161 JUMPI DUP7 DUP2 ADD SWAP4 JUMPDEST DUP7 DUP6 LT PUSH2 0x150E JUMPI POP POP POP POP POP POP POP POP SWAP1 JUMP JUMPDEST DUP5 CALLDATALOAD DUP7 DUP2 GT PUSH2 0x161 JUMPI DUP3 ADD SWAP1 PUSH1 0xE0 SWAP1 DUP2 PUSH1 0x1F NOT DUP5 DUP9 SUB ADD SLT PUSH2 0x161 JUMPI PUSH2 0x1532 PUSH2 0xD2F JUMP JUMPDEST DUP11 DUP5 ADD CALLDATALOAD DUP2 MSTORE DUP6 DUP5 ADD CALLDATALOAD DUP10 DUP2 GT PUSH2 0x161 JUMPI DUP8 DUP13 PUSH2 0x1551 SWAP3 DUP8 ADD ADD PUSH2 0xD8D JUMP JUMPDEST DUP12 DUP3 ADD MSTORE PUSH1 0x60 SWAP3 DUP4 DUP6 ADD CALLDATALOAD DUP11 DUP2 GT PUSH2 0x161 JUMPI DUP9 DUP14 PUSH2 0x1571 SWAP3 DUP9 ADD ADD PUSH2 0xD8D JUMP JUMPDEST DUP8 DUP4 ADD MSTORE PUSH1 0x80 SWAP4 PUSH2 0x1583 DUP6 DUP8 ADD PUSH2 0x2D8 JUMP JUMPDEST SWAP1 DUP4 ADD MSTORE PUSH1 0xA0 SWAP4 PUSH2 0x1595 DUP6 DUP8 ADD PUSH2 0x2D8 JUMP JUMPDEST SWAP1 DUP4 ADD MSTORE PUSH1 0xC0 SWAP4 DUP5 DUP7 ADD CALLDATALOAD DUP12 DUP2 GT PUSH2 0x161 JUMPI DUP10 DUP15 PUSH2 0x15B5 SWAP3 DUP10 ADD ADD PUSH2 0xD8D JUMP JUMPDEST SWAP1 DUP4 ADD MSTORE DUP5 ADD CALLDATALOAD SWAP3 DUP10 DUP5 GT PUSH2 0x161 JUMPI PUSH2 0x15D5 DUP9 DUP14 DUP1 SWAP8 SWAP7 DUP2 SWAP8 ADD ADD PUSH2 0xD8D JUMP JUMPDEST SWAP1 DUP3 ADD MSTORE DUP2 MSTORE ADD SWAP5 ADD SWAP4 PUSH2 0x14FC JUMP JUMPDEST PUSH4 0x4E487B71 PUSH1 0xE0 SHL PUSH0 MSTORE PUSH1 0x32 PUSH1 0x4 MSTORE PUSH1 0x24 PUSH0 REVERT JUMPDEST DUP1 MLOAD DUP3 LT ISZERO PUSH2 0x160C JUMPI PUSH1 0x20 SWAP2 PUSH1 0x5 SHL ADD ADD SWAP1 JUMP JUMPDEST PUSH2 0x15E4 JUMP JUMPDEST SWAP1 DUP2 PUSH1 0x20 SWAP2 SUB SLT PUSH2 0x161 JUMPI MLOAD PUSH2 0x38D DUP2 PUSH2 0xA9B JUMP JUMPDEST SWAP1 PUSH2 0x1639 PUSH1 0x20 SWAP3 DUP3 DUP2 MLOAD SWAP5 DUP6 SWAP3 ADD PUSH2 0x191 JUMP JUMPDEST ADD SWAP1 JUMP JUMPDEST PUSH1 0x20 DUP1 DUP3 ADD SWAP1 DUP1 DUP4 MSTORE DUP4 MLOAD DUP1 SWAP3 MSTORE PUSH1 0x40 SWAP3 PUSH1 0x40 DUP2 ADD DUP3 PUSH1 0x40 DUP6 PUSH1 0x5 SHL DUP5 ADD ADD SWAP7 ADD SWAP5 PUSH0 SWAP3 JUMPDEST DUP6 DUP5 LT PUSH2 0x1673 JUMPI POP POP POP POP POP POP POP SWAP1 JUMP JUMPDEST SWAP1 SWAP2 SWAP3 SWAP4 SWAP5 SWAP6 SWAP7 DUP6 DUP1 PUSH2 0x16FC PUSH1 0x1 SWAP4 PUSH1 0x3F NOT DUP7 DUP3 SUB ADD DUP9 MSTORE DUP12 MLOAD PUSH2 0x16E9 PUSH2 0x16BE PUSH2 0x16AE PUSH1 0xE0 DUP5 MLOAD DUP7 MSTORE DUP8 DUP6 ADD MLOAD SWAP1 DUP1 DUP10 DUP9 ADD MSTORE DUP7 ADD SWAP1 PUSH2 0x1B2 JUMP JUMPDEST DUP11 DUP5 ADD MLOAD DUP6 DUP3 SUB DUP13 DUP8 ADD MSTORE PUSH2 0x1B2 JUMP JUMPDEST PUSH1 0x60 DUP4 DUP2 ADD MLOAD ISZERO ISZERO SWAP1 DUP6 ADD MSTORE PUSH1 0x80 DUP1 DUP5 ADD MLOAD ISZERO ISZERO SWAP1 DUP6 ADD MSTORE PUSH1 0xA0 DUP1 DUP5 ADD MLOAD SWAP1 DUP6 DUP4 SUB SWAP1 DUP7 ADD MSTORE PUSH2 0x1B2 JUMP JUMPDEST SWAP2 PUSH1 0xC0 DUP1 SWAP3 ADD MLOAD SWAP2 DUP2 DUP5 SUB SWAP2 ADD MSTORE PUSH2 0x1B2 JUMP JUMPDEST SWAP10 ADD SWAP5 ADD SWAP5 ADD SWAP3 SWAP6 SWAP5 SWAP4 SWAP2 SWAP1 PUSH2 0x1662 JUMP JUMPDEST PUSH1 0x20 DUP2 DUP4 SUB SLT PUSH2 0x161 JUMPI DUP1 MLOAD SWAP1 PUSH1 0x1 PUSH1 0x1 PUSH1 0x40 SHL SUB DUP3 GT PUSH2 0x161 JUMPI ADD DUP2 PUSH1 0x1F DUP3 ADD SLT ISZERO PUSH2 0x161 JUMPI DUP1 MLOAD PUSH2 0x173F DUP2 PUSH2 0xD3C JUMP JUMPDEST SWAP3 PUSH2 0x174D PUSH1 0x40 MLOAD SWAP5 DUP6 PUSH2 0xD0E JUMP JUMPDEST DUP2 DUP5 MSTORE PUSH1 0x20 DUP3 DUP5 ADD ADD GT PUSH2 0x161 JUMPI PUSH2 0x38D SWAP2 PUSH1 0x20 DUP1 DUP6 ADD SWAP2 ADD PUSH2 0x191 JUMP JUMPDEST PUSH1 0x40 MLOAD RETURNDATASIZE PUSH0 DUP3 RETURNDATACOPY RETURNDATASIZE SWAP1 REVERT JUMPDEST PUSH1 0x40 MLOAD PUSH4 0x4C22E6A1 PUSH1 0xE0 SHL DUP2 MSTORE PUSH1 0x20 PUSH1 0x4 DUP3 ADD MSTORE PUSH1 0x24 DUP2 ADD DUP4 SWAP1 MSTORE SWAP2 DUP1 DUP3 PUSH1 0x44 DUP6 ADD CALLDATACOPY PUSH0 PUSH1 0x44 DUP3 DUP6 ADD ADD MSTORE PUSH0 DUP4 PUSH1 0x44 DUP2 PUSH1 0x1F NOT PUSH1 0x1F DUP7 ADD AND DUP2 ADD SUB ADD DUP2 DUP4 ADDRESS GAS CALL PUSH0 SWAP4 DUP2 PUSH2 0x17D5 JUMPI JUMPDEST POP PUSH2 0x17D0 JUMPI PUSH2 0x38D SWAP3 POP CALLDATASIZE SWAP2 PUSH2 0xD57 JUMP JUMPDEST POP POP SWAP1 JUMP JUMPDEST PUSH2 0x17F2 SWAP2 SWAP5 POP RETURNDATASIZE DUP1 PUSH0 DUP4 RETURNDATACOPY PUSH2 0x17EA DUP2 DUP4 PUSH2 0xD0E JUMP JUMPDEST DUP2 ADD SWAP1 PUSH2 0x170D JUMP JUMPDEST SWAP3 PUSH0 PUSH2 0x17BF JUMP JUMPDEST SWAP1 PUSH1 0x1F DUP3 GT PUSH2 0x1806 JUMPI POP POP JUMP JUMPDEST PUSH1 0x1 SWAP2 PUSH1 0x1 PUSH0 MSTORE PUSH0 DUP1 MLOAD PUSH1 0x20 PUSH2 0x24E6 DUP4 CODECOPY DUP2 MLOAD SWAP2 MSTORE SWAP1 PUSH1 0x20 PUSH1 0x1F DUP5 ADD PUSH1 0x5 SHR DUP4 ADD SWAP4 LT PUSH2 0x184D JUMPI JUMPDEST PUSH1 0x1F ADD PUSH1 0x5 SHR ADD SWAP1 JUMPDEST DUP2 DUP2 LT PUSH2 0x1843 JUMPI POP POP POP JUMP JUMPDEST PUSH0 DUP2 SSTORE DUP3 ADD PUSH2 0x1837 JUMP JUMPDEST SWAP1 SWAP2 POP DUP2 SWAP1 PUSH2 0x182E JUMP JUMPDEST PUSH1 0x1F DUP2 GT PUSH2 0x1863 JUMPI POP POP JUMP JUMPDEST PUSH1 0x2 PUSH0 MSTORE PUSH0 DUP1 MLOAD PUSH1 0x20 PUSH2 0x24C6 DUP4 CODECOPY DUP2 MLOAD SWAP2 MSTORE SWAP1 PUSH1 0x20 PUSH1 0x1F DUP5 ADD PUSH1 0x5 SHR DUP4 ADD SWAP4 LT PUSH2 0x18A7 JUMPI JUMPDEST PUSH1 0x1F ADD PUSH1 0x5 SHR ADD SWAP1 JUMPDEST DUP2 DUP2 LT PUSH2 0x189C JUMPI POP POP JUMP JUMPDEST PUSH0 DUP2 SSTORE PUSH1 0x1 ADD PUSH2 0x1891 JUMP JUMPDEST SWAP1 SWAP2 POP DUP2 SWAP1 PUSH2 0x1888 JUMP JUMPDEST SWAP1 DUP2 MLOAD PUSH1 0x1 PUSH1 0x1 PUSH1 0x40 SHL SUB DUP2 GT PUSH2 0x9A5 JUMPI PUSH2 0x18D6 DUP2 PUSH2 0x18D1 PUSH1 0x2 SLOAD PUSH2 0xEC4 JUMP JUMPDEST PUSH2 0x1857 JUMP JUMPDEST PUSH1 0x20 DUP1 PUSH1 0x1F DUP4 GT PUSH1 0x1 EQ PUSH2 0x190B JUMPI POP DUP2 SWAP1 PUSH2 0x1906 SWAP4 SWAP5 PUSH0 SWAP3 PUSH2 0x928 JUMPI POP POP DUP2 PUSH1 0x1 SHL SWAP2 PUSH0 NOT SWAP1 PUSH1 0x3 SHL SHR NOT AND OR SWAP1 JUMP JUMPDEST PUSH1 0x2 SSTORE JUMP JUMPDEST SWAP1 PUSH1 0x1F NOT DUP4 AND SWAP5 PUSH2 0x192A PUSH1 0x2 PUSH0 MSTORE PUSH0 DUP1 MLOAD PUSH1 0x20 PUSH2 0x24C6 DUP4 CODECOPY DUP2 MLOAD SWAP2 MSTORE SWAP1 JUMP JUMPDEST SWAP3 PUSH0 SWAP1 JUMPDEST DUP8 DUP3 LT PUSH2 0x1965 JUMPI POP POP DUP4 PUSH1 0x1 SWAP6 SWAP7 LT PUSH2 0x194D JUMPI JUMPDEST POP POP POP DUP2 SHL ADD PUSH1 0x2 SSTORE JUMP JUMPDEST ADD MLOAD PUSH0 NOT PUSH1 0xF8 DUP5 PUSH1 0x3 SHL AND SHR NOT AND SWAP1 SSTORE PUSH0 DUP1 DUP1 PUSH2 0x1942 JUMP JUMPDEST DUP1 PUSH1 0x1 DUP6 SWAP7 DUP3 SWAP5 SWAP7 DUP7 ADD MLOAD DUP2 SSTORE ADD SWAP6 ADD SWAP4 ADD SWAP1 PUSH2 0x192E JUMP JUMPDEST PUSH2 0x1989 SWAP2 DUP2 ADD SWAP1 PUSH2 0x149A JUMP JUMPDEST PUSH0 JUMPDEST DUP2 MLOAD DUP2 LT ISZERO PUSH2 0x19B6 JUMPI PUSH1 0x60 PUSH2 0x19A0 DUP3 DUP5 PUSH2 0x15F8 JUMP JUMPDEST MLOAD ADD MLOAD ISZERO PUSH2 0x19B0 JUMPI PUSH1 0x1 ADD PUSH2 0x198B JUMP JUMPDEST POP POP PUSH0 SWAP1 JUMP JUMPDEST POP POP PUSH1 0x1 SWAP1 JUMP JUMPDEST PUSH0 DUP1 PUSH2 0x1A30 PUSH2 0x1A7C SWAP6 SWAP5 PUSH1 0x40 SWAP7 DUP8 SWAP2 DUP3 MLOAD PUSH2 0x1A70 PUSH1 0x20 SWAP9 DUP3 DUP11 DUP1 SWAP5 ADD SWAP2 DUP3 MSTORE DUP4 DUP2 MSTORE PUSH2 0x19E8 DUP2 PUSH2 0xCBD JUMP JUMPDEST MLOAD SWAP1 KECCAK256 SWAP3 DUP6 MLOAD SWAP4 DUP4 DUP6 ADD MSTORE DUP3 DUP5 MSTORE PUSH2 0x19FF DUP5 PUSH2 0xCBD JUMP JUMPDEST PUSH2 0x1A60 PUSH2 0x1A0A PUSH2 0x1145 JUMP JUMPDEST PUSH2 0x1A50 PUSH2 0x1A3D DUP10 MLOAD SWAP3 PUSH2 0x1A1C DUP5 PUSH2 0xCD8 JUMP JUMPDEST DUP13 DUP5 MSTORE PUSH1 0xA0 DUP12 MLOAD SWAP12 DUP13 SWAP10 DUP11 ADD SWAP14 DUP15 PUSH1 0x4 SWAP1 MSTORE JUMP JUMPDEST DUP10 ADD MSTORE PUSH1 0xC0 DUP9 ADD SWAP1 PUSH2 0x1B2 JUMP JUMPDEST PUSH1 0x1F NOT SWAP8 DUP9 DUP9 DUP4 SUB ADD PUSH1 0x60 DUP10 ADD MSTORE PUSH2 0x1B2 JUMP JUMPDEST SWAP1 DUP7 DUP7 DUP4 SUB ADD PUSH1 0x80 DUP8 ADD MSTORE PUSH2 0x1B2 JUMP JUMPDEST SWAP1 DUP5 DUP5 DUP4 SUB ADD PUSH1 0xA0 DUP6 ADD MSTORE PUSH2 0x1B2 JUMP JUMPDEST SUB SWAP1 DUP2 ADD DUP4 MSTORE DUP3 PUSH2 0xD0E JUMP JUMPDEST MLOAD SWAP1 PUSH1 0x7 PUSH1 0x1 PUSH1 0x98 SHL ADD GAS STATICCALL SWAP1 PUSH2 0x1A91 PUSH2 0x1B6B JUMP JUMPDEST SWAP2 ISZERO PUSH2 0x1AAA JUMPI PUSH2 0x38D SWAP3 SWAP4 POP DUP1 DUP3 MLOAD DUP4 ADD ADD SWAP2 ADD PUSH2 0x2181 JUMP JUMPDEST PUSH1 0x64 SWAP1 DUP5 MLOAD SWAP1 PUSH3 0x461BCD PUSH1 0xE5 SHL DUP3 MSTORE PUSH1 0x4 DUP3 ADD MSTORE PUSH1 0xE PUSH1 0x24 DUP3 ADD MSTORE PUSH14 0x1D995C9A599E4E8819985A5B1959 PUSH1 0x92 SHL PUSH1 0x44 DUP3 ADD MSTORE REVERT JUMPDEST DUP1 PUSH0 MSTORE PUSH1 0x8 PUSH1 0x20 MSTORE PUSH1 0xFF PUSH1 0x40 PUSH0 KECCAK256 SLOAD AND ISZERO PUSH2 0x1B26 JUMPI PUSH2 0x1B09 SWAP2 PUSH2 0x1B00 SWAP2 PUSH2 0x233C JUMP JUMPDEST SWAP1 SWAP3 SWAP2 SWAP3 PUSH2 0x2394 JUMP JUMPDEST PUSH1 0x1 PUSH1 0x1 PUSH1 0xA0 SHL SUB AND PUSH0 SWAP1 DUP2 MSTORE PUSH1 0x7 PUSH1 0x20 MSTORE PUSH1 0x40 SWAP1 KECCAK256 SLOAD PUSH1 0xFF AND SWAP1 JUMP JUMPDEST PUSH1 0x40 MLOAD PUSH3 0x461BCD PUSH1 0xE5 SHL DUP2 MSTORE PUSH1 0x20 PUSH1 0x4 DUP3 ADD MSTORE PUSH1 0x1E PUSH1 0x24 DUP3 ADD MSTORE PUSH32 0x52756E74696D6520646967657374206E6F742077686974656C69737465640000 PUSH1 0x44 DUP3 ADD MSTORE PUSH1 0x64 SWAP1 REVERT JUMPDEST RETURNDATASIZE ISZERO PUSH2 0x1B95 JUMPI RETURNDATASIZE SWAP1 PUSH2 0x1B7C DUP3 PUSH2 0xD3C JUMP JUMPDEST SWAP2 PUSH2 0x1B8A PUSH1 0x40 MLOAD SWAP4 DUP5 PUSH2 0xD0E JUMP JUMPDEST DUP3 MSTORE RETURNDATASIZE PUSH0 PUSH1 0x20 DUP5 ADD RETURNDATACOPY JUMP JUMPDEST PUSH1 0x60 SWAP1 JUMP JUMPDEST PUSH2 0x1A70 PUSH2 0x1BF4 PUSH0 SWAP5 SWAP4 DUP6 SWAP5 PUSH1 0x40 MLOAD SWAP4 DUP5 SWAP2 PUSH2 0x1BE4 PUSH2 0x1BD1 PUSH1 0x20 DUP6 ADD SWAP9 PUSH2 0x1BC0 DUP11 PUSH1 0x4 SWAP1 MSTORE JUMP JUMPDEST PUSH1 0x80 PUSH1 0x40 DUP8 ADD MSTORE PUSH1 0xA0 DUP7 ADD SWAP1 PUSH2 0x1B2 JUMP JUMPDEST PUSH1 0x1F NOT SWAP6 DUP7 DUP7 DUP4 SUB ADD PUSH1 0x60 DUP8 ADD MSTORE PUSH2 0x1B2 JUMP JUMPDEST SWAP1 DUP5 DUP5 DUP4 SUB ADD PUSH1 0x80 DUP6 ADD MSTORE PUSH2 0x1B2 JUMP JUMPDEST MLOAD SWAP1 PUSH1 0x6 PUSH1 0x1 PUSH1 0x98 SHL ADD GAS STATICCALL PUSH2 0x1C08 PUSH2 0x1B6B JUMP JUMPDEST SWAP1 ISZERO PUSH2 0x1C11 JUMPI SWAP1 JUMP JUMPDEST PUSH1 0x40 MLOAD PUSH3 0x461BCD PUSH1 0xE5 SHL DUP2 MSTORE PUSH1 0x20 PUSH1 0x4 DUP3 ADD MSTORE PUSH1 0xC PUSH1 0x24 DUP3 ADD MSTORE PUSH12 0x1CDA59DB8E8819985A5B1959 PUSH1 0xA2 SHL PUSH1 0x44 DUP3 ADD MSTORE PUSH1 0x64 SWAP1 REVERT JUMPDEST PUSH1 0x40 MLOAD SWAP1 PUSH1 0x60 DUP3 ADD DUP3 DUP2 LT PUSH1 0x1 PUSH1 0x1 PUSH1 0x40 SHL SUB DUP3 GT OR PUSH2 0x9A5 JUMPI PUSH1 0x40 MSTORE PUSH0 PUSH1 0x40 DUP4 DUP3 DUP2 MSTORE DUP3 PUSH1 0x20 DUP3 ADD MSTORE ADD MSTORE JUMP JUMPDEST PUSH2 0x1C89 SWAP1 SWAP4 SWAP2 SWAP3 SWAP4 PUSH2 0x1C83 PUSH2 0x1C45 JUMP JUMPDEST POP PUSH2 0x2074 JUMP JUMPDEST SWAP3 PUSH2 0x1C92 PUSH2 0x1C45 JUMP JUMPDEST PUSH1 0x8 DUP3 MLOAD LT PUSH2 0x1E51 JUMPI PUSH1 0x1 PUSH1 0x1 PUSH1 0xF8 SHL SUB NOT SWAP2 PUSH1 0x3 PUSH1 0xFC SHL DUP4 PUSH2 0x1CC5 PUSH2 0x1CB7 DUP5 PUSH2 0x1F66 JUMP JUMPDEST MLOAD PUSH1 0x1 PUSH1 0x1 PUSH1 0xF8 SHL SUB NOT AND SWAP1 JUMP JUMPDEST AND SUB PUSH2 0x1E51 JUMPI PUSH1 0x1 PUSH1 0xF9 SHL DUP1 DUP5 PUSH2 0x1CDE PUSH2 0x1CB7 DUP6 PUSH2 0x1F73 JUMP JUMPDEST AND SUB PUSH2 0x1E51 JUMPI PUSH2 0x1D02 PUSH2 0x1CFC PUSH2 0x1CF6 PUSH2 0x1CB7 DUP6 PUSH2 0x1F83 JUMP JUMPDEST PUSH1 0xF8 SHR SWAP1 JUMP JUMPDEST PUSH1 0xFF AND SWAP1 JUMP JUMPDEST SWAP1 PUSH2 0x1D15 PUSH2 0x1CFC PUSH2 0x1CF6 PUSH2 0x1CB7 DUP7 PUSH2 0x1F93 JUMP JUMPDEST SWAP2 PUSH1 0x21 DUP4 GT PUSH2 0x1E51 JUMPI PUSH2 0x1D27 DUP4 PUSH2 0x2196 JUMP JUMPDEST SWAP1 PUSH2 0x1D43 PUSH2 0x1CFC PUSH2 0x1CF6 PUSH2 0x1CB7 PUSH2 0x1D3D DUP7 PUSH2 0x21A4 JUMP JUMPDEST DUP10 PUSH2 0x1FB3 JUMP JUMPDEST SWAP3 PUSH1 0x21 DUP5 GT PUSH2 0x1E51 JUMPI PUSH2 0x1D69 PUSH2 0x1D5C PUSH2 0x1CB7 DUP6 DUP10 PUSH2 0x1FB3 JUMP JUMPDEST PUSH1 0x1 PUSH1 0x1 PUSH1 0xF8 SHL SUB NOT AND SWAP1 JUMP JUMPDEST SUB PUSH2 0x1E51 JUMPI DUP1 PUSH2 0x1D81 PUSH2 0x1D7C DUP6 DUP8 PUSH2 0x21CE JUMP JUMPDEST PUSH2 0x21B2 JUMP JUMPDEST SUB PUSH2 0x1E51 JUMPI PUSH2 0x1D91 DUP6 MLOAD SWAP2 PUSH2 0x21C0 JUMP JUMPDEST SUB PUSH2 0x1E51 JUMPI PUSH2 0x1D9F SWAP1 PUSH2 0x21C0 JUMP JUMPDEST PUSH1 0x4 SWAP6 PUSH1 0x21 DUP5 EQ PUSH2 0x1E63 JUMPI JUMPDEST PUSH1 0x21 DUP4 EQ PUSH2 0x1E19 JUMPI JUMPDEST POP PUSH1 0x20 SWAP1 DUP2 PUSH2 0x2E3 SWAP8 DUP7 ADD ADD MLOAD SWAP5 ADD ADD MLOAD SWAP2 PUSH1 0x20 DUP2 LT PUSH2 0x1E02 JUMPI JUMPDEST POP PUSH1 0x20 DUP2 LT PUSH2 0x1DEA JUMPI JUMPDEST POP SWAP1 DUP3 MSTORE PUSH1 0x20 DUP3 ADD MSTORE DUP1 SWAP4 DUP6 PUSH2 0x2223 JUMP JUMPDEST PUSH2 0x1DF6 PUSH2 0x1DFB SWAP2 PUSH2 0x21E9 JUMP JUMPDEST PUSH2 0x220B JUMP JUMPDEST SHR PUSH0 PUSH2 0x1DD9 JUMP JUMPDEST PUSH2 0x1DF6 PUSH2 0x1E11 SWAP2 SWAP5 SWAP3 SWAP5 PUSH2 0x21E9 JUMP JUMPDEST SHR SWAP2 PUSH0 PUSH2 0x1DCF JUMP JUMPDEST PUSH2 0x1E29 PUSH2 0x1CB7 DUP4 DUP8 SWAP10 SWAP6 SWAP10 PUSH2 0x1FB3 JUMP JUMPDEST AND PUSH2 0x1E51 JUMPI PUSH2 0x2E3 SWAP6 PUSH1 0x20 PUSH2 0x1E47 PUSH2 0x1E41 DUP3 SWAP5 PUSH2 0x21A4 JUMP JUMPDEST SWAP3 PUSH2 0x21DB JUMP JUMPDEST SWAP4 SWAP8 POP POP SWAP1 PUSH2 0x1DB4 JUMP JUMPDEST PUSH1 0x40 MLOAD PUSH4 0x86CD05C5 PUSH1 0xE0 SHL DUP2 MSTORE PUSH1 0x4 SWAP1 REVERT JUMPDEST DUP1 SWAP4 SWAP7 POP PUSH2 0x1E73 PUSH2 0x1CB7 DUP7 PUSH2 0x1FA3 JUMP JUMPDEST AND PUSH2 0x1E51 JUMPI PUSH2 0x1E83 PUSH1 0x5 SWAP7 PUSH2 0x21DB JUMP JUMPDEST SWAP3 PUSH2 0x1DAB JUMP JUMPDEST PUSH2 0x1E95 SWAP2 DUP2 ADD SWAP1 PUSH2 0x149A JUMP JUMPDEST PUSH0 JUMPDEST DUP2 MLOAD DUP2 LT ISZERO PUSH2 0x19B6 JUMPI PUSH1 0x80 PUSH2 0x1EAC DUP3 DUP5 PUSH2 0x15F8 JUMP JUMPDEST MLOAD ADD MLOAD ISZERO PUSH2 0x19B0 JUMPI PUSH1 0x1 ADD PUSH2 0x1E97 JUMP JUMPDEST PUSH0 SLOAD PUSH1 0x1 PUSH1 0x1 PUSH1 0xA0 SHL SUB AND CALLER SUB PUSH2 0x1ECF JUMPI JUMP JUMPDEST PUSH1 0x40 MLOAD PUSH4 0x118CDAA7 PUSH1 0xE0 SHL DUP2 MSTORE CALLER PUSH1 0x4 DUP3 ADD MSTORE PUSH1 0x24 SWAP1 REVERT JUMPDEST PUSH4 0x4E487B71 PUSH1 0xE0 SHL PUSH0 MSTORE PUSH1 0x11 PUSH1 0x4 MSTORE PUSH1 0x24 PUSH0 REVERT JUMPDEST PUSH1 0xFF AND PUSH1 0xFF DUP2 EQ PUSH2 0x1F0C JUMPI PUSH1 0x1 ADD SWAP1 JUMP JUMPDEST PUSH2 0x1EE7 JUMP JUMPDEST SWAP1 PUSH2 0x1F1B DUP3 PUSH2 0xD3C JUMP JUMPDEST PUSH2 0x1F28 PUSH1 0x40 MLOAD SWAP2 DUP3 PUSH2 0xD0E JUMP JUMPDEST DUP3 DUP2 MSTORE DUP1 SWAP3 PUSH2 0x1F39 PUSH1 0x1F NOT SWAP2 PUSH2 0xD3C JUMP JUMPDEST ADD SWAP1 PUSH1 0x20 CALLDATASIZE SWAP2 ADD CALLDATACOPY JUMP JUMPDEST PUSH1 0xFF PUSH0 NOT SWAP2 AND ADD SWAP1 PUSH1 0xFF DUP3 GT PUSH2 0x1F0C JUMPI JUMP JUMPDEST PUSH1 0xFF AND PUSH1 0x30 ADD SWAP1 PUSH1 0xFF DUP3 GT PUSH2 0x1F0C JUMPI JUMP JUMPDEST DUP1 MLOAD ISZERO PUSH2 0x160C JUMPI PUSH1 0x20 ADD SWAP1 JUMP JUMPDEST DUP1 MLOAD PUSH1 0x2 LT ISZERO PUSH2 0x160C JUMPI PUSH1 0x22 ADD SWAP1 JUMP JUMPDEST DUP1 MLOAD PUSH1 0x1 LT ISZERO PUSH2 0x160C JUMPI PUSH1 0x21 ADD SWAP1 JUMP JUMPDEST DUP1 MLOAD PUSH1 0x3 LT ISZERO PUSH2 0x160C JUMPI PUSH1 0x23 ADD SWAP1 JUMP JUMPDEST DUP1 MLOAD PUSH1 0x4 LT ISZERO PUSH2 0x160C JUMPI PUSH1 0x24 ADD SWAP1 JUMP JUMPDEST SWAP1 DUP2 MLOAD DUP2 LT ISZERO PUSH2 0x160C JUMPI ADD PUSH1 0x20 ADD SWAP1 JUMP JUMPDEST SWAP1 PUSH1 0xFF DUP1 DUP4 AND ISZERO PUSH2 0x2054 JUMPI PUSH0 SWAP2 DUP2 DUP5 JUMPDEST AND SWAP3 DUP4 ISZERO PUSH2 0x1FEF JUMPI PUSH1 0xA PUSH2 0x1FE8 DUP5 SWAP3 PUSH2 0x1EFB JUMP JUMPDEST SWAP5 DIV PUSH2 0x1FD4 JUMP JUMPDEST SWAP1 SWAP3 POP SWAP3 SWAP1 SWAP3 DUP4 PUSH2 0x2002 PUSH1 0xFF DUP4 AND PUSH2 0x1F11 JUMP JUMPDEST SWAP3 JUMPDEST AND SWAP1 DUP2 ISZERO PUSH2 0x204D JUMPI PUSH2 0x2016 DUP6 SWAP2 PUSH2 0x1F43 JUMP JUMPDEST SWAP2 PUSH1 0xA SWAP1 PUSH2 0x2038 PUSH2 0x2028 DUP4 DUP4 MOD PUSH2 0x1F55 JUMP JUMPDEST PUSH1 0xF8 SHL PUSH1 0x1 PUSH1 0x1 PUSH1 0xF8 SHL SUB NOT AND SWAP1 JUMP JUMPDEST PUSH0 BYTE PUSH2 0x2046 DUP5 DUP7 AND DUP8 PUSH2 0x1FB3 JUMP JUMPDEST MSTORE8 DIV PUSH2 0x2004 JUMP JUMPDEST POP SWAP1 SWAP3 POP POP JUMP JUMPDEST POP SWAP1 POP PUSH1 0x40 MLOAD PUSH2 0x2063 DUP2 PUSH2 0xCBD JUMP JUMPDEST PUSH1 0x1 DUP2 MSTORE PUSH1 0x3 PUSH1 0xFC SHL PUSH1 0x20 DUP3 ADD MSTORE SWAP1 JUMP JUMPDEST PUSH1 0x21 DUP2 MLOAD SUB PUSH2 0x216F JUMPI PUSH1 0x21 DUP2 ADD MLOAD SWAP1 DUP1 MLOAD ISZERO PUSH2 0x160C JUMPI PUSH1 0x20 ADD MLOAD PUSH1 0xF8 SHR PUSH1 0x2 DUP2 EQ ISZERO DUP1 PUSH2 0x2164 JUMPI JUMPDEST PUSH2 0x2152 JUMPI PUSH0 DUP1 PUSH5 0x1000003D0 NOT PUSH1 0x40 MLOAD PUSH1 0x20 DUP2 ADD SWAP2 PUSH1 0x20 DUP4 MSTORE PUSH1 0x20 PUSH1 0x40 DUP4 ADD MSTORE PUSH1 0x20 PUSH1 0x60 DUP4 ADD MSTORE DUP1 PUSH1 0x7 DUP2 DUP1 DUP11 DUP1 MULMOD DUP11 MULMOD ADDMOD PUSH1 0x80 DUP4 ADD MSTORE PUSH4 0x400000F4 PUSH1 0x1 PUSH1 0xFE SHL SUB PUSH1 0xA0 DUP4 ADD MSTORE PUSH1 0xC0 DUP1 DUP4 ADD SWAP2 SWAP1 SWAP2 MSTORE DUP2 MSTORE PUSH2 0x20F7 DUP2 PUSH2 0xCF3 JUMP JUMPDEST MLOAD SWAP1 PUSH1 0x5 GAS STATICCALL SWAP2 PUSH2 0x2106 PUSH2 0x1B6B JUMP JUMPDEST SWAP3 ISZERO PUSH2 0x2140 JUMPI PUSH2 0x212B PUSH2 0x2125 PUSH2 0x211E PUSH2 0x38D SWAP6 PUSH2 0x24A3 JUMP JUMPDEST SWAP4 DUP5 PUSH2 0x21CE JUMP JUMPDEST PUSH1 0x1 AND SWAP1 JUMP JUMPDEST ISZERO PUSH2 0x22FF JUMPI SWAP1 PUSH2 0x213A SWAP1 PUSH2 0x21F7 JUMP JUMPDEST SWAP1 PUSH2 0x22FF JUMP JUMPDEST PUSH1 0x40 MLOAD PUSH4 0x102875ED PUSH1 0xE0 SHL DUP2 MSTORE PUSH1 0x4 SWAP1 REVERT JUMPDEST PUSH1 0x40 MLOAD PUSH4 0xAB4BE041 PUSH1 0xE0 SHL DUP2 MSTORE PUSH1 0x4 SWAP1 REVERT JUMPDEST POP PUSH1 0x3 DUP2 EQ ISZERO PUSH2 0x209C JUMP JUMPDEST PUSH1 0x40 MLOAD PUSH4 0x6446A2C5 PUSH1 0xE1 SHL DUP2 MSTORE PUSH1 0x4 SWAP1 REVERT JUMPDEST SWAP1 DUP2 PUSH1 0x20 SWAP2 SUB SLT PUSH2 0x161 JUMPI MLOAD PUSH2 0x38D DUP2 PUSH2 0x2CE JUMP JUMPDEST PUSH1 0x4 ADD SWAP1 DUP2 PUSH1 0x4 GT PUSH2 0x1F0C JUMPI JUMP JUMPDEST SWAP1 PUSH1 0x1 DUP3 ADD DUP1 SWAP3 GT PUSH2 0x1F0C JUMPI JUMP JUMPDEST SWAP1 PUSH1 0x4 DUP3 ADD DUP1 SWAP3 GT PUSH2 0x1F0C JUMPI JUMP JUMPDEST SWAP1 PUSH1 0x2 DUP3 ADD DUP1 SWAP3 GT PUSH2 0x1F0C JUMPI JUMP JUMPDEST SWAP2 SWAP1 DUP3 ADD DUP1 SWAP3 GT PUSH2 0x1F0C JUMPI JUMP JUMPDEST PUSH0 NOT DUP2 ADD SWAP2 SWAP1 DUP3 GT PUSH2 0x1F0C JUMPI JUMP JUMPDEST PUSH1 0x20 SUB SWAP1 PUSH1 0x20 DUP3 GT PUSH2 0x1F0C JUMPI JUMP JUMPDEST PUSH5 0x1000003D0 NOT SWAP1 DUP2 SUB SWAP2 SWAP1 DUP3 GT PUSH2 0x1F0C JUMPI JUMP JUMPDEST PUSH1 0x3 DUP2 SWAP1 SHL SWAP2 SWAP1 PUSH1 0x1 PUSH1 0x1 PUSH1 0xFD SHL SUB DUP2 AND SUB PUSH2 0x1F0C JUMPI JUMP JUMPDEST SWAP2 PUSH1 0x40 DUP2 ADD SWAP2 PUSH1 0x1B DUP4 MSTORE DUP2 MLOAD SWAP1 PUSH1 0x20 PUSH0 DUP2 DUP6 ADD SWAP4 DUP5 MLOAD SWAP1 PUSH2 0x2262 PUSH1 0x40 MLOAD SWAP3 DUP4 SWAP3 DUP8 DUP5 PUSH1 0x60 SWAP2 SWAP5 SWAP4 SWAP3 PUSH1 0x80 DUP3 ADD SWAP6 DUP3 MSTORE PUSH1 0x1B PUSH1 0x20 DUP4 ADD MSTORE PUSH1 0x40 DUP3 ADD MSTORE ADD MSTORE JUMP JUMPDEST DUP4 DUP1 MSTORE SUB SWAP1 PUSH1 0x1 GAS STATICCALL ISZERO PUSH2 0x22FA JUMPI PUSH0 MLOAD PUSH1 0x1 PUSH1 0x1 PUSH1 0xA0 SHL SUB SWAP6 DUP7 AND SWAP6 AND DUP6 SWAP1 SUB PUSH2 0x228E JUMPI JUMPDEST POP POP POP POP POP JUMP JUMPDEST PUSH2 0x22C0 PUSH0 SWAP4 PUSH1 0x1C PUSH1 0x20 SWAP7 MSTORE MLOAD SWAP3 MLOAD PUSH1 0x40 MLOAD SWAP4 DUP5 SWAP4 DUP5 PUSH1 0x60 SWAP2 SWAP5 SWAP4 SWAP3 PUSH1 0x80 DUP3 ADD SWAP6 DUP3 MSTORE PUSH1 0x1C PUSH1 0x20 DUP4 ADD MSTORE PUSH1 0x40 DUP3 ADD MSTORE ADD MSTORE JUMP JUMPDEST DUP4 DUP1 MSTORE SUB SWAP1 PUSH1 0x1 GAS STATICCALL ISZERO PUSH2 0x22FA JUMPI PUSH0 MLOAD PUSH1 0x1 PUSH1 0x1 PUSH1 0xA0 SHL SUB AND SUB PUSH2 0x22E8 JUMPI PUSH0 DUP1 DUP1 DUP1 DUP1 PUSH2 0x2287 JUMP JUMPDEST PUSH1 0x40 MLOAD PUSH4 0x4532600D PUSH1 0xE0 SHL DUP2 MSTORE PUSH1 0x4 SWAP1 REVERT JUMPDEST PUSH2 0x176B JUMP JUMPDEST PUSH1 0x40 MLOAD SWAP2 PUSH1 0x20 DUP4 ADD SWAP2 DUP3 MSTORE PUSH1 0x40 DUP4 ADD MSTORE PUSH1 0x40 DUP3 MSTORE PUSH1 0x60 DUP3 ADD DUP3 DUP2 LT PUSH1 0x1 PUSH1 0x1 PUSH1 0x40 SHL SUB DUP3 GT OR PUSH2 0x9A5 JUMPI PUSH1 0x40 MSTORE SWAP1 MLOAD SWAP1 KECCAK256 PUSH1 0x1 PUSH1 0x1 PUSH1 0xA0 SHL SUB AND SWAP1 JUMP JUMPDEST DUP2 MLOAD SWAP2 SWAP1 PUSH1 0x41 DUP4 SUB PUSH2 0x236C JUMPI PUSH2 0x2365 SWAP3 POP PUSH1 0x20 DUP3 ADD MLOAD SWAP1 PUSH1 0x60 PUSH1 0x40 DUP5 ADD MLOAD SWAP4 ADD MLOAD PUSH0 BYTE SWAP1 PUSH2 0x2421 JUMP JUMPDEST SWAP2 SWAP3 SWAP1 SWAP2 SWAP1 JUMP JUMPDEST POP POP PUSH0 SWAP2 PUSH1 0x2 SWAP2 SWAP1 JUMP JUMPDEST PUSH1 0x4 GT ISZERO PUSH2 0x2380 JUMPI JUMP JUMPDEST PUSH4 0x4E487B71 PUSH1 0xE0 SHL PUSH0 MSTORE PUSH1 0x21 PUSH1 0x4 MSTORE PUSH1 0x24 PUSH0 REVERT JUMPDEST PUSH2 0x239D DUP2 PUSH2 0x2376 JUMP JUMPDEST DUP1 PUSH2 0x23A6 JUMPI POP POP JUMP JUMPDEST PUSH2 0x23AF DUP2 PUSH2 0x2376 JUMP JUMPDEST PUSH1 0x1 DUP2 SUB PUSH2 0x23C9 JUMPI PUSH1 0x40 MLOAD PUSH4 0xF645EEDF PUSH1 0xE0 SHL DUP2 MSTORE PUSH1 0x4 SWAP1 REVERT JUMPDEST PUSH2 0x23D2 DUP2 PUSH2 0x2376 JUMP JUMPDEST PUSH1 0x2 DUP2 SUB PUSH2 0x23F3 JUMPI PUSH1 0x40 MLOAD PUSH4 0xFCE698F7 PUSH1 0xE0 SHL DUP2 MSTORE PUSH1 0x4 DUP2 ADD DUP4 SWAP1 MSTORE PUSH1 0x24 SWAP1 REVERT JUMPDEST DUP1 PUSH2 0x23FF PUSH1 0x3 SWAP3 PUSH2 0x2376 JUMP JUMPDEST EQ PUSH2 0x2407 JUMPI POP JUMP JUMPDEST PUSH1 0x40 MLOAD PUSH4 0x35E2F383 PUSH1 0xE2 SHL DUP2 MSTORE PUSH1 0x4 DUP2 ADD SWAP2 SWAP1 SWAP2 MSTORE PUSH1 0x24 SWAP1 REVERT JUMPDEST SWAP2 SWAP1 PUSH32 0x7FFFFFFFFFFFFFFFFFFFFFFFFFFFFFFF5D576E7357A4501DDFE92F46681B20A0 DUP5 GT PUSH2 0x2498 JUMPI SWAP2 PUSH1 0x20 SWAP4 PUSH1 0x80 SWAP3 PUSH1 0xFF PUSH0 SWAP6 PUSH1 0x40 MLOAD SWAP5 DUP6 MSTORE AND DUP7 DUP5 ADD MSTORE PUSH1 0x40 DUP4 ADD MSTORE PUSH1 0x60 DUP3 ADD MSTORE DUP3 DUP1 MSTORE PUSH1 0x1 GAS STATICCALL ISZERO PUSH2 0x22FA JUMPI PUSH0 MLOAD PUSH1 0x1 PUSH1 0x1 PUSH1 0xA0 SHL SUB DUP2 AND ISZERO PUSH2 0x248E JUMPI SWAP1 PUSH0 SWAP1 PUSH0 SWAP1 JUMP JUMPDEST POP PUSH0 SWAP1 PUSH1 0x1 SWAP1 PUSH0 SWAP1 JUMP JUMPDEST POP POP POP PUSH0 SWAP2 PUSH1 0x3 SWAP2 SWAP1 JUMP JUMPDEST PUSH1 0x20 DUP2 MLOAD SWAP2 ADD MLOAD SWAP1 PUSH1 0x20 DUP2 LT PUSH2 0x24B7 JUMPI POP SWAP1 JUMP JUMPDEST PUSH0 NOT SWAP1 PUSH1 0x20 SUB PUSH1 0x3 SHL SHL AND SWAP1 JUMP INVALID BLOCKHASH JUMPI DUP8 STATICCALL SLT 0xA8 0x23 0xE0 CALLCODE 0xB7 PUSH4 0x1CC41B3B 0xA8 DUP3 DUP12 CALLER 0x21 0xCA DUP2 GT GT STATICCALL PUSH22 0xCD3AA3BB5ACEB10E2D527612073B26EECDFD717E6A32 0xC DELEGATECALL 0x4B BLOBBASEFEE STATICCALL 0xC2 0xB0 PUSH20 0x2D9FCBE2B7FA0CF6A26469706673582212202FA3 DUP13 SWAP4 CODESIZE BASEFEE 0x4C RETURN PUSH11 0xC4CA6CD19EC7067E4E4541 CODESIZE 0x4C 0x4F EQ BLOBHASH 0xD6 0xEA 0xCE 0xEA JUMP 0xDC ADD PUSH5 0x736F6C6343 STOP ADDMOD XOR STOP CALLER "
		},
		"gasEstimates": {
			"creation": {
				"codeDepositCost": "1906200",
				"executionCost": "infinite",
				"totalCost": "infinite"
			},
			"external": {
				"_validateExecution(bytes)": "infinite",
				"allocationThreshold()": "2310",
				"getAllocationThreshold()": "2442",
				"getOpinion(bytes,bytes)": "infinite",
				"getSigningKeypairPrivateKey(string)": "infinite",
				"getSigningKeypairPublicKey()": "infinite",
				"isKernelAllowed(bytes,uint256)": "infinite",
				"owner()": "2547",
				"registerdApp(bytes32)": "infinite",
				"renounceOwnership()": "28252",
				"setAllocationThreshold(uint8)": "28260",
				"setKernel(uint256,bool)": "26691",
				"setRuntimeDigest(bytes32,bool)": "26757",
				"setSigningKeypair(bytes,bytes)": "infinite",
				"setSigningKeypairRetrievalPassword(string)": "infinite",
				"setWhitelist(address,bool)": "26867",
				"sign(bytes,address,bytes,bytes,bytes,bytes)": "infinite",
				"transferOwnership(address)": "28522"
			},
			"internal": {
				"_generateKey()": "infinite",
				"_getFinalOpinion(bytes calldata)": "infinite",
				"_uint8ToString(uint8)": "infinite",
				"_verifyAccessToken(bytes32,bytes memory)": "infinite",
				"_verifyExecutionPlan(bytes calldata)": "infinite",
				"_verifyRuntimeDigest(bytes32,bytes memory)": "infinite"
			}
		},
		"methodIdentifiers": {
			"_validateExecution(bytes)": "4c22e6a1",
			"allocationThreshold()": "4b347aab",
			"getAllocationThreshold()": "6b50e9f2",
			"getOpinion(bytes,bytes)": "64d6c07d",
			"getSigningKeypairPrivateKey(string)": "aa775b4a",
			"getSigningKeypairPublicKey()": "e498de5f",
			"isKernelAllowed(bytes,uint256)": "c7878ba1",
			"owner()": "8da5cb5b",
			"registerdApp(bytes32)": "688b87e8",
			"renounceOwnership()": "715018a6",
			"setAllocationThreshold(uint8)": "c5141496",
			"setKernel(uint256,bool)": "270e7c2f",
			"setRuntimeDigest(bytes32,bool)": "4cf0d40a",
			"setSigningKeypair(bytes,bytes)": "7355f88b",
			"setSigningKeypairRetrievalPassword(string)": "7998efb8",
			"setWhitelist(address,bool)": "53d6fd59",
			"sign(bytes,address,bytes,bytes,bytes,bytes)": "097b8b3b",
			"transferOwnership(address)": "f2fde38b"
		}
	},
	"abi": [
		{
			"inputs": [
				{
					"internalType": "address",
					"name": "initialOwner",
					"type": "address"
				}
			],
			"stateMutability": "nonpayable",
			"type": "constructor"
		},
		{
			"inputs": [],
			"name": "DER_Split_Error",
			"type": "error"
		},
		{
			"inputs": [],
			"name": "ECDSAInvalidSignature",
			"type": "error"
		},
		{
			"inputs": [
				{
					"internalType": "uint256",
					"name": "length",
					"type": "uint256"
				}
			],
			"name": "ECDSAInvalidSignatureLength",
			"type": "error"
		},
		{
			"inputs": [
				{
					"internalType": "bytes32",
					"name": "s",
					"type": "bytes32"
				}
			],
			"name": "ECDSAInvalidSignatureS",
			"type": "error"
		},
		{
			"inputs": [
				{
					"internalType": "address",
					"name": "owner",
					"type": "address"
				}
			],
			"name": "OwnableInvalidOwner",
			"type": "error"
		},
		{
			"inputs": [
				{
					"internalType": "address",
					"name": "account",
					"type": "address"
				}
			],
			"name": "OwnableUnauthorizedAccount",
			"type": "error"
		},
		{
			"inputs": [],
			"name": "expmod_Error",
			"type": "error"
		},
		{
			"inputs": [],
			"name": "k256Decompress_Invalid_Length_Error",
			"type": "error"
		},
		{
			"inputs": [],
			"name": "k256DeriveY_Invalid_Prefix_Error",
			"type": "error"
		},
		{
			"inputs": [],
			"name": "recoverV_Error",
			"type": "error"
		},
		{
			"anonymous": false,
			"inputs": [
				{
					"indexed": false,
					"internalType": "uint8",
					"name": "oldThreshold",
					"type": "uint8"
				},
				{
					"indexed": false,
					"internalType": "uint8",
					"name": "newThreshold",
					"type": "uint8"
				}
			],
			"name": "AllocationThresholdUpdated",
			"type": "event"
		},
		{
			"anonymous": false,
			"inputs": [
				{
					"indexed": false,
					"internalType": "uint256",
					"name": "kernelId",
					"type": "uint256"
				},
				{
					"indexed": false,
					"internalType": "uint8",
					"name": "allocation",
					"type": "uint8"
				},
				{
					"indexed": false,
					"internalType": "bool",
					"name": "passed",
					"type": "bool"
				}
			],
			"name": "KernelValidated",
			"type": "event"
		},
		{
			"anonymous": false,
			"inputs": [
				{
					"indexed": true,
					"internalType": "address",
					"name": "previousOwner",
					"type": "address"
				},
				{
					"indexed": true,
					"internalType": "address",
					"name": "newOwner",
					"type": "address"
				}
			],
			"name": "OwnershipTransferred",
			"type": "event"
		},
		{
			"inputs": [
				{
					"internalType": "bytes",
					"name": "executionPlan",
					"type": "bytes"
				}
			],
			"name": "_validateExecution",
			"outputs": [
				{
					"internalType": "bytes",
					"name": "",
					"type": "bytes"
				}
			],
			"stateMutability": "nonpayable",
			"type": "function"
		},
		{
			"inputs": [],
			"name": "allocationThreshold",
			"outputs": [
				{
					"internalType": "uint8",
					"name": "",
					"type": "uint8"
				}
			],
			"stateMutability": "view",
			"type": "function"
		},
		{
			"inputs": [],
			"name": "getAllocationThreshold",
			"outputs": [
				{
					"internalType": "uint8",
					"name": "",
					"type": "uint8"
				}
			],
			"stateMutability": "view",
			"type": "function"
		},
		{
			"inputs": [
				{
					"internalType": "bytes",
					"name": "auth",
					"type": "bytes"
				},
				{
					"internalType": "bytes",
					"name": "executionPlan",
					"type": "bytes"
				}
			],
			"name": "getOpinion",
			"outputs": [
				{
					"internalType": "bytes",
					"name": "",
					"type": "bytes"
				}
			],
			"stateMutability": "nonpayable",
			"type": "function"
		},
		{
			"inputs": [
				{
					"internalType": "string",
					"name": "_password",
					"type": "string"
				}
			],
			"name": "getSigningKeypairPrivateKey",
			"outputs": [
				{
					"internalType": "bytes",
					"name": "",
					"type": "bytes"
				}
			],
			"stateMutability": "view",
			"type": "function"
		},
		{
			"inputs": [],
			"name": "getSigningKeypairPublicKey",
			"outputs": [
				{
					"internalType": "bytes",
					"name": "",
					"type": "bytes"
				},
				{
					"internalType": "address",
					"name": "",
					"type": "address"
				}
			],
			"stateMutability": "view",
			"type": "function"
		},
		{
			"inputs": [
				{
					"internalType": "bytes",
					"name": "auth",
					"type": "bytes"
				},
				{
					"internalType": "uint256",
					"name": "kernelId",
					"type": "uint256"
				}
			],
			"name": "isKernelAllowed",
			"outputs": [
				{
					"internalType": "bool",
					"name": "",
					"type": "bool"
				}
			],
			"stateMutability": "view",
			"type": "function"
		},
		{
			"inputs": [],
			"name": "owner",
			"outputs": [
				{
					"internalType": "address",
					"name": "",
					"type": "address"
				}
			],
			"stateMutability": "view",
			"type": "function"
		},
		{
			"inputs": [
				{
					"internalType": "bytes32",
					"name": "entryId",
					"type": "bytes32"
				}
			],
			"name": "registerdApp",
			"outputs": [
				{
					"internalType": "bytes",
					"name": "",
					"type": "bytes"
				}
			],
			"stateMutability": "view",
			"type": "function"
		},
		{
			"inputs": [],
			"name": "renounceOwnership",
			"outputs": [],
			"stateMutability": "nonpayable",
			"type": "function"
		},
		{
			"inputs": [
				{
					"internalType": "uint8",
					"name": "_threshold",
					"type": "uint8"
				}
			],
			"name": "setAllocationThreshold",
			"outputs": [],
			"stateMutability": "nonpayable",
			"type": "function"
		},
		{
			"inputs": [
				{
					"internalType": "uint256",
					"name": "kernelId",
					"type": "uint256"
				},
				{
					"internalType": "bool",
					"name": "allowed",
					"type": "bool"
				}
			],
			"name": "setKernel",
			"outputs": [],
			"stateMutability": "nonpayable",
			"type": "function"
		},
		{
			"inputs": [
				{
					"internalType": "bytes32",
					"name": "runtimeDigest",
					"type": "bytes32"
				},
				{
					"internalType": "bool",
					"name": "allowed",
					"type": "bool"
				}
			],
			"name": "setRuntimeDigest",
			"outputs": [],
			"stateMutability": "nonpayable",
			"type": "function"
		},
		{
			"inputs": [
				{
					"internalType": "bytes",
					"name": "pubKey",
					"type": "bytes"
				},
				{
					"internalType": "bytes",
					"name": "privKey",
					"type": "bytes"
				}
			],
			"name": "setSigningKeypair",
			"outputs": [],
			"stateMutability": "nonpayable",
			"type": "function"
		},
		{
			"inputs": [
				{
					"internalType": "string",
					"name": "_password",
					"type": "string"
				}
			],
			"name": "setSigningKeypairRetrievalPassword",
			"outputs": [],
			"stateMutability": "nonpayable",
			"type": "function"
		},
		{
			"inputs": [
				{
					"internalType": "address",
					"name": "krnlNodePubKey",
					"type": "address"
				},
				{
					"internalType": "bool",
					"name": "allowed",
					"type": "bool"
				}
			],
			"name": "setWhitelist",
			"outputs": [],
			"stateMutability": "nonpayable",
			"type": "function"
		},
		{
			"inputs": [
				{
					"internalType": "bytes",
					"name": "auth",
					"type": "bytes"
				},
				{
					"internalType": "address",
					"name": "senderAddress",
					"type": "address"
				},
				{
					"internalType": "bytes",
					"name": "executionPlan",
					"type": "bytes"
				},
				{
					"internalType": "bytes",
					"name": "functionParams",
					"type": "bytes"
				},
				{
					"internalType": "bytes",
					"name": "kernelParams",
					"type": "bytes"
				},
				{
					"internalType": "bytes",
					"name": "kernelResponses",
					"type": "bytes"
				}
			],
			"name": "sign",
			"outputs": [
				{
					"internalType": "bytes",
					"name": "",
					"type": "bytes"
				},
				{
					"internalType": "bytes32",
					"name": "",
					"type": "bytes32"
				},
				{
					"internalType": "bytes",
					"name": "",
					"type": "bytes"
				},
				{
					"internalType": "bool",
					"name": "",
					"type": "bool"
				}
			],
			"stateMutability": "nonpayable",
			"type": "function"
		},
		{
			"inputs": [
				{
					"internalType": "address",
					"name": "newOwner",
					"type": "address"
				}
			],
			"name": "transferOwnership",
			"outputs": [],
			"stateMutability": "nonpayable",
			"type": "function"
		}
	]
}