{
	"data": {
		"bytecode": {
			"linkReferences": {},
			"object": "6080346200010457601f6200252138819003918201601f19168301916001600160401b0383118484101762000108578084926020946040528339810103126200010457516001600160a01b038082169182900362000104573315620000ec575f5460018060a01b03199133838316175f553391167f8be0079c531659141344cd1fd0a4f28419497f9722a3daafe3b4186f6b6457e05f80a360015416176001556001600455600760a11b61ffff60a01b196006541617600655620000c3336200011c565b50620000cf336200018c565b50620000db336200022d565b506040516122189081620002c98239f35b604051631e4fbdf760e01b81525f6004820152602490fd5b5f80fd5b634e487b7160e01b5f52604160045260245ffd5b6001600160a01b03165f8181525f8051602062002501833981519152602052604090205460ff1662000187575f8181525f805160206200250183398151915260205260408120805460ff191660011790553391905f80516020620024e18339815191528180a4600190565b505f90565b6001600160a01b03165f8181527fc9a1c8e58c7d7912dc1b4cee052922e868fa25be8a43f877e35cf2671142679a60205260409020547fb19546dff01e856fb3f010c267a7b1c60363cf8a4664e21cc89c26224620214e919060ff166200022757815f52600360205260405f20815f5260205260405f20600160ff1982541617905533915f80516020620024e18339815191525f80a4600190565b50505f90565b6001600160a01b03165f8181527f705976d2a2c155a0b54ca0c2b7cabc2010840e9a89b81adebc8b7b790b76d29560205260409020547f73e573f9566d61418a34d5de3ff49360f9c51fec37f7486551670290f6285dab919060ff166200022757815f52600360205260405f20815f5260205260405f20600160ff1982541617905533915f80516020620024e18339815191525f80a460019056fe6080604090808252600480361015610015575f80fd5b5f3560e01c91826301ffc9a71461116b57508163188301bd1461114f578163248a9ca3146111255781632f2ff15d146110fd57816336568abe146110b95781633bfd28e81461100157816347e6338014610fda5781634a3fba0e14610fa05781634ba1cfe414610f785781635f1076bb14610ea1578163603cda0914610e2f578163617ea8fb14610aeb5781636ad1693414610ac35781636ff1c9bc146109a6578163715018a61461094f57816387bc50a5146109215781638c9b9fdc146108655781638d1e6b44146105105781638da5cb5b146104e95781638ec6459114610422578163909dd263146103c257816391d148541461037e578163a217fddf14610364578163d213d86b14610321578163d4fdcbec146102fc578163d547741f146102c0578163e58378bb14610286578163f2fde38b146101f9575063f6ac85581461015f575f80fd5b346101f55760203660031901126101f55760a0906001600160a01b036101836111d3565b165f5260056020526080815f2082519061019c82611209565b549060ff82169384825260ff8360081c1680602084015260ff8460101c1692838382015263ffffffff60ff8660181c169586606084015260201c1695869101528151958652602086015284015260608301526080820152f35b5f80fd5b9050346101f55760203660031901126101f5576102146111d3565b9061021d61204d565b6001600160a01b039182169283156102705750505f54826bffffffffffffffffffffffff60a01b8216175f55167f8be0079c531659141344cd1fd0a4f28419497f9722a3daafe3b4186f6b6457e05f80a3005b905f6024925191631e4fbdf760e01b8352820152fd5b82346101f5575f3660031901126101f557602090517fb19546dff01e856fb3f010c267a7b1c60363cf8a4664e21cc89c26224620214e8152f35b82346101f557806003193601126101f5576102fa91356102f560016102e36111bd565b93835f5260036020525f200154611901565b611c27565b005b82346101f5575f3660031901126101f55760209061ffff60065460a01c169051908152f35b346101f55760203660031901126101f55761033a6111d3565b61034261204d565b600180546001600160a01b0319166001600160a01b0392909216919091179055005b82346101f5575f3660031901126101f557602090515f8152f35b82346101f557806003193601126101f55760209161039a6111bd565b90355f5260038352815f209060018060a01b03165f52825260ff815f20541690519015158152f35b82346101f55760203660031901126101f55781359167ffffffffffffffff83116101f55761040d60206103fb60ff9382963691016112c9565b818551938285809451938492016112e7565b81016002815203019020541690519015158152f35b9050346101f55760203660031901126101f557803561ffff8116918282036101f55761044c611840565b821561049a576006805461ffff60a01b191660a084901b61ffff60a01b1617905583518381527f65ad151e522fde5125bd3ad7ef5dcb4184b4d8df08ff91ba979df6b926c5c65690602090a1005b608490602085519162461bcd60e51b8352820152602360248201527f5468726573686f6c64206d7573742062652067726561746572207468616e207a60448201526265726f60e81b6064820152fd5b82346101f5575f3660031901126101f5575f5490516001600160a01b039091168152602090f35b9050346101f5576003199060c0368301126101f55767ffffffffffffffff81358181116101f55760608184019482360301126101f55761054e6111bd565b936105576111e9565b926105606111f9565b906084359660ff8816928389036101f55760a43560ff8116958682036101f5578b9761058a611ff7565b6105926118b9565b61059c3683611308565b89519060ff60209760018060a01b03169c8d8985015216809b83015260ff8616978860608401528960808401528a60a084015260a0835260c083019083821090821117610852578f526105ef9190611d0e565b15610842576105ff8a1515611718565b606489111580610837575b8061082c575b80610821575b156107de5761063491602461062c920190611380565b8101906113b3565b995f9a5f5b81518110156107cd5761063961064f82846114af565b51511461065e57600101610639565b85969798999a9b9c506106759195929394956114af565b51015184818051810103126101f5578461068f910161175b565b8015610782575b15610767579261075360019b9361073360809997946107197feaac2916182c990f8aff9d657d55950ccab377388de72527bbead57026b76f379c9a988e5f5260058752610701895f20958d60ff19885416178755869061ff0082549160081b169061ff001916179055565b845462ff0000191660109190911b62ff000016178455565b825463ff000000191660189190911b63ff00000016178255565b805467ffffffff0000000019164260201b67ffffffff0000000016179055565b82519586528501528301526060820152a255005b8a5162461bcd60e51b81528061077e818d01611768565b0390fd5b8b5162461bcd60e51b81526020818d01818152601d918101919091527f557064617465206e6f7420617070726f766564206279206b65726e656c000000604082015281906060010390fd5b505090919293949596979899610696565b8c5162461bcd60e51b8152808c01869052601c60248201527f53636f726573206d757374206265206265747765656e20302d313030000000006044820152606490fd5b506064881115610616565b506064871115610610565b50606486111561060a565b8c51636ca537e760e11b81528b90fd5b60418e634e487b7160e01b5f525260245ffd5b9050346101f55760203660031901126101f5576108806111d3565b610888611840565b6001600160a01b0381169182156108de575060205f805160206121c3833981519152936108d57f8737757d0849a3cc97f98ff695ca69b8c01a8e5cb9e21b72d5e776a9dd5b06f3936119d5565b505160018152a3005b606490602085519162461bcd60e51b8352820152601760248201527f496e76616c6964207570646174657220616464726573730000000000000000006044820152fd5b82346101f55760203660031901126101f5576020906109466109416111d3565b6117ab565b90519015158152f35b346101f5575f3660031901126101f55761096761204d565b5f80546001600160a01b0319811682556001600160a01b03167f8be0079c531659141344cd1fd0a4f28419497f9722a3daafe3b4186f6b6457e08280a3005b9050346101f55760203660031901126101f55780356001600160a01b038116908190036101f5576109d5611840565b8015610a8c5747908115610a52575f80809381935af13d15610a4d573d6109fb81611277565b90610a0885519283611255565b81525f60203d92013e5b15610a1957005b6020606492519162461bcd60e51b8352820152600f60248201526e151c985b9cd9995c8819985a5b1959608a1b6044820152fd5b610a12565b835162461bcd60e51b815260208185015260146024820152734e6f2066756e647320746f20776974686472617760601b6044820152606490fd5b506020606492519162461bcd60e51b83528201526011602482015270125b9d985b1a59081c9958da5c1a595b9d607a1b6044820152fd5b82346101f5575f3660031901126101f55760065490516001600160a01b039091168152602090f35b9050346101f5576003196080368201126101f55781359067ffffffffffffffff8083116101f55760608385019284360301126101f557610b296111bd565b610b316111e9565b93610b3a6111f9565b90610b43611ff7565b610b4b6118b9565b610b553686611308565b94885160ff60209560018060a01b03169889878401521696878b83015260ff85169687606084015260608352608083019083821090821117610e1c578b52610b9d9190611d0e565b15610e0c57610bad871515611718565b60648511610dc957600191600187101580610dbf575b15610d8657610bd991602461062c920190611380565b5f919082825b610cda575b50505015610cc357917f30ea27e7ee3786f5fcee5319934301e286dd40ae3192f917392ed79326879b9d9391610c5660019894875f5260058352855f20908a86145f14610c625750805460ff191684178155805467ffffffff0000000019164260201b67ffffffff0000000016179055565b8351928352820152a255005b60028603610c8357815461ff00191660089190911b61ff0016178155610733565b60038603610ca657815462ff0000191660109190911b62ff000016178155610733565b815463ff000000191660189190911b63ff00000016178155610733565b865162461bcd60e51b81528061077e818901611768565b8151811015610d815785610639610cf183856114af565b515114610d015750820182610bdf565b935090610d0e92506114af565b51015182818051810103126101f55782610d28910161175b565b8015610d36575f8080610be4565b875162461bcd60e51b81526020818901818152601d918101919091527f557064617465206e6f7420617070726f766564206279206b65726e656c000000604082015281906060010390fd5b610be4565b895162461bcd60e51b8152808a018690526013602482015272496e76616c6964206d6574726963207479706560681b6044820152606490fd5b5088871115610bc3565b885162461bcd60e51b8152808901859052601b60248201527f53636f7265206d757374206265206265747765656e20302d31303000000000006044820152606490fd5b8851636ca537e760e11b81528890fd5b60418b634e487b7160e01b5f525260245ffd5b82346101f55760203660031901126101f5575f805160206121c3833981519152907f8737757d0849a3cc97f98ff695ca69b8c01a8e5cb9e21b72d5e776a9dd5b06f36020610e7b6111d3565b92610e84611840565b610e8d84611b90565b50515f81526001600160a01b0390931692a3005b9050346101f55760203660031901126101f557610ebc6111d3565b610ec4611840565b6001600160a01b03818116928315610f35575090610efe916006541680610f25575b50600680546001600160a01b03191684179055611923565b507f2f658b440c35314f52658ea8a740e05b284cdc84dc9ae01e891f21b8933e7cad5f80a2005b610f2e90611ae6565b5083610ee6565b606490602086519162461bcd60e51b8352820152601960248201527f496e76616c696420617574686f726974792061646472657373000000000000006044820152fd5b82346101f5575f3660031901126101f55760015490516001600160a01b039091168152602090f35b82346101f5575f3660031901126101f557602090517fd565e3fc066df348a5cbc05a8d6323e00552838041cea2d84cc59876ba37735d8152f35b82346101f5575f3660031901126101f557602090515f805160206121c38339815191528152f35b82346101f5576003199181833601126101f55780359067ffffffffffffffff938483116101f55760609083830193360301126101f55761103f6111bd565b9361104a3684611308565b84516001600160a01b038716602080830191909152815291828601908111838210176110a657855261107c9190611d0e565b15611098575061109060209360ff92611505565b915191168152f35b8251636ca537e760e11b8152fd5b604184634e487b7160e01b5f525260245ffd5b82346101f557806003193601126101f5576110d26111bd565b90336001600160a01b038316036110ee57506102fa9135611c27565b5163334bd91960e11b81529050fd5b82346101f557806003193601126101f5576102fa913561112060016102e36111bd565b611a6e565b82346101f55760203660031901126101f557602091355f52600382526001815f2001549051908152f35b82346101f5575f3660031901126101f557602090516106398152f35b90346101f55760203660031901126101f557359063ffffffff60e01b82168092036101f557602091637965db0b60e01b81149081156111ac575b5015158152f35b6301ffc9a760e01b149050836111a5565b602435906001600160a01b03821682036101f557565b600435906001600160a01b03821682036101f557565b6044359060ff821682036101f557565b6064359060ff821682036101f557565b60a0810190811067ffffffffffffffff82111761122557604052565b634e487b7160e01b5f52604160045260245ffd5b6060810190811067ffffffffffffffff82111761122557604052565b90601f8019910116810190811067ffffffffffffffff82111761122557604052565b67ffffffffffffffff811161122557601f01601f191660200190565b92919261129f82611277565b916112ad6040519384611255565b8294818452818301116101f5578281602093845f960137010152565b9080601f830112156101f5578160206112e493359101611293565b90565b5f5b8381106112f85750505f910152565b81810151838201526020016112e9565b91906060838203126101f5576040519061132182611239565b819380359167ffffffffffffffff928381116101f557816113439184016112c9565b845260208201358381116101f5578161135d9184016112c9565b602085015260408201359283116101f55760409261137b92016112c9565b910152565b903590601e19813603018212156101f5570180359067ffffffffffffffff82116101f5576020019181360383136101f557565b9060209081838203126101f557823567ffffffffffffffff938482116101f557019080601f830112156101f557813593808511611225578460051b90604080519661140087850189611255565b87528580880193860101948486116101f557868101935b86851061142957505050505050505090565b84358481116101f55782019060609182601f19828a0301126101f55784519261145184611239565b8a8201358452858201358781116101f557898c611470928501016112c9565b8b850152810135908682116101f557019087603f830112156101f55789926114a089848887809701359101611293565b86820152815201940193611417565b80518210156114c35760209160051b010190565b634e487b7160e01b5f52603260045260245ffd5b919082039182116114e457565b634e487b7160e01b5f52601160045260245ffd5b919082018092116114e457565b9060018060a01b03165f526020906005825260405f20906040519161152983611209565b549060ff908183168452848401828460081c1681526040850190838560101c1682526060860192848660181c16845261157861062c63ffffffff928360808b01998c1c1689528a810190611380565b975f985f5b81518110156117085761063961159382846114af565b5151146115a25760010161157d565b82939495969798999a506115b5916114af565b51015181818051810103126101f55701518060010b81036101f557955b81815116156116f85762015180916115ec915116426114d7565b0461ffff60065460a01c16908181115f146116b7575050836046965b511690601e820291808304601e14901517156114e45784905116906019820291808304601914901517156114e4578491611641916114f8565b915116906019820291808304601914901517156114e4578391611663916114f8565b915116906014820291808304601414901517156114e457606491611686916114f8565b048381029381850414901517156114e45760646112e49304606481115f146116b15750506064611fc4565b16611fc4565b601e810290808204601e14901517156114e45781156116e45704606403606481116114e457849096611608565b634e487b7160e01b5f52601260045260245ffd5b5050505050506112e49150611f98565b50505090919293949695966115d2565b1561171f57565b60405162461bcd60e51b8152602060048201526014602482015273496e76616c69642075736572206164647265737360601b6044820152606490fd5b519081151582036101f557565b60809060208152602260208201527f5265717569726564206b65726e656c20726573706f6e7365206e6f7420666f756040820152611b9960f21b60608201520190565b60018060a01b03165f526005602052608060405f2063ffffffff604051916117d283611209565b5460ff8116835260ff8160081c16602084015260ff8160101c16604084015260ff8160181c16606084015260201c169182910152801561183b5761181690426114d7565b61ffff60065460a01c169062015180918281029281840414901517156114e457111590565b505f90565b335f9081527fc9a1c8e58c7d7912dc1b4cee052922e868fa25be8a43f877e35cf2671142679a60205260409020547fb19546dff01e856fb3f010c267a7b1c60363cf8a4664e21cc89c26224620214e9060ff161561189b5750565b6044906040519063e2517d3f60e01b82523360048301526024820152fd5b335f9081527f705976d2a2c155a0b54ca0c2b7cabc2010840e9a89b81adebc8b7b790b76d29560205260409020545f805160206121c38339815191529060ff161561189b5750565b805f52600360205260405f20335f5260205260ff60405f2054161561189b5750565b6001600160a01b03165f8181527f61e53637bc4201c644575ac8aab0f703a65d4957c5224cafa45b5b603dcac6d660205260409020547fd565e3fc066df348a5cbc05a8d6323e00552838041cea2d84cc59876ba37735d919060ff166119cf57815f52600360205260405f20815f5260205260405f20600160ff1982541617905533917f2f8788117e7eff1d82e926ec794901d17c78024a50270940304540a733656f0d5f80a4600190565b50505f90565b6001600160a01b03165f8181527f705976d2a2c155a0b54ca0c2b7cabc2010840e9a89b81adebc8b7b790b76d29560205260409020545f805160206121c3833981519152919060ff166119cf57815f52600360205260405f20815f5260205260405f20600160ff1982541617905533917f2f8788117e7eff1d82e926ec794901d17c78024a50270940304540a733656f0d5f80a4600190565b90815f52600360205260405f209060018060a01b031690815f5260205260ff60405f205416155f146119cf57815f52600360205260405f20815f5260205260405f20600160ff1982541617905533917f2f8788117e7eff1d82e926ec794901d17c78024a50270940304540a733656f0d5f80a4600190565b6001600160a01b03165f8181527f61e53637bc4201c644575ac8aab0f703a65d4957c5224cafa45b5b603dcac6d660205260409020547fd565e3fc066df348a5cbc05a8d6323e00552838041cea2d84cc59876ba37735d919060ff16156119cf57815f52600360205260405f20815f5260205260405f2060ff19815416905533917ff6391f5c32d9c69d2a47ea670b442974b53935d1edc7fd64eb21e047a839171b5f80a4600190565b6001600160a01b03165f8181527f705976d2a2c155a0b54ca0c2b7cabc2010840e9a89b81adebc8b7b790b76d29560205260409020545f805160206121c3833981519152919060ff16156119cf57815f52600360205260405f20815f5260205260405f2060ff19815416905533917ff6391f5c32d9c69d2a47ea670b442974b53935d1edc7fd64eb21e047a839171b5f80a4600190565b90815f52600360205260405f209060018060a01b031690815f5260205260ff60405f2054165f146119cf57815f52600360205260405f20815f5260205260405f2060ff19815416905533917ff6391f5c32d9c69d2a47ea670b442974b53935d1edc7fd64eb21e047a839171b5f80a4600190565b81601f820112156101f5578051611cb181611277565b92611cbf6040519485611255565b818452602082840101116101f5576112e491602080850191016112e7565b602090611cf360149493828151948592016112e7565b01906bffffffffffffffffffffffff199060601b1681520190565b9081519182519260209381019260a0828686019503126101f557848201519367ffffffffffffffff948581116101f5578187611d4c92860101611c9b565b604095868501519260608601519182116101f55788611d6d92870101611c9b565b93611d7f60a06080830151920161175b565b159182611f5b5790611daa611dc6611dcf97969594938b8a01518c8c51948591820192339084611cdd565b0393611dbe601f1995868101835282611255565b519020612078565b909891986120b2565b6001546001600160a01b039081169890978816899003611f085790611e07611e138b87940151928d8d51938491820195339087611cdd565b03908101835282611255565b519020948a81519101209403611ec45791611e5f9391611e6895938951928b84019485528a8401523360601b606084015260748301521560f81b609482015260758152611dbe81611209565b909291926120b2565b1603611e75575050600190565b60849250519062461bcd60e51b82526004820152602360248201527f496e76616c6964207369676e617475726520666f722066756e6374696f6e2063604482015262185b1b60ea1b6064820152fd5b875162461bcd60e51b8152600481018a9052601c60248201527f496e76616c6964206b65726e656c20706172616d7320646967657374000000006044820152606490fd5b895162461bcd60e51b8152600481018c9052602660248201527f496e76616c6964207369676e617475726520666f72206b65726e656c20726573604482015265706f6e73657360d01b6064820152608490fd5b875162461bcd60e51b8152600481018a90526016602482015275119a5b985b081bdc1a5b9a5bdb881c995d995c9d195960521b6044820152606490fd5b60010b80601e019081126001166114e4575f811261183b5760648113611fbe5760ff1690565b50606490565b60ff169060010b905f82820192831291129080158216911516176114e4575f811261183b5760648113611fbe5760ff1690565b600260045414612008576002600455565b60405162461bcd60e51b815260206004820152601f60248201527f5265656e7472616e637947756172643a207265656e7472616e742063616c6c006044820152606490fd5b5f546001600160a01b0316330361206057565b60405163118cdaa760e01b8152336004820152602490fd5b81519190604183036120a8576120a19250602082015190606060408401519301515f1a90612135565b9192909190565b50505f9160029190565b600481101561212157806120c4575050565b600181036120de5760405163f645eedf60e01b8152600490fd5b600281036120ff5760405163fce698f760e01b815260048101839052602490fd5b6003146121095750565b602490604051906335e2f38360e21b82526004820152fd5b634e487b7160e01b5f52602160045260245ffd5b91907f7fffffffffffffffffffffffffffffff5d576e7357a4501ddfe92f46681b20a084116121b7579160209360809260ff5f9560405194855216868401526040830152606082015282805260015afa156121ac575f516001600160a01b038116156121a257905f905f90565b505f906001905f90565b6040513d5f823e3d90fd5b5050505f916003919056fe73e573f9566d61418a34d5de3ff49360f9c51fec37f7486551670290f6285daba26469706673582212202923171e9b8a473e985bc91c8324fa552d227faa51ca3ee3c89f8ac8b543db2d64736f6c634300081800332f8788117e7eff1d82e926ec794901d17c78024a50270940304540a733656f0d3617319a054d772f909f7c479a2cebe5066e836a939412e32403c99029b92eff",
			"opcodes": "PUSH1 0x80 CALLVALUE PUSH3 0x104 JUMPI PUSH1 0x1F PUSH3 0x2521 CODESIZE DUP2 SWAP1 SUB SWAP2 DUP3 ADD PUSH1 0x1F NOT AND DUP4 ADD SWAP2 PUSH1 0x1 PUSH1 0x1 PUSH1 0x40 SHL SUB DUP4 GT DUP5 DUP5 LT OR PUSH3 0x108 JUMPI DUP1 DUP5 SWAP3 PUSH1 0x20 SWAP5 PUSH1 0x40 MSTORE DUP4 CODECOPY DUP2 ADD SUB SLT PUSH3 0x104 JUMPI MLOAD PUSH1 0x1 PUSH1 0x1 PUSH1 0xA0 SHL SUB DUP1 DUP3 AND SWAP2 DUP3 SWAP1 SUB PUSH3 0x104 JUMPI CALLER ISZERO PUSH3 0xEC JUMPI PUSH0 SLOAD PUSH1 0x1 DUP1 PUSH1 0xA0 SHL SUB NOT SWAP2 CALLER DUP4 DUP4 AND OR PUSH0 SSTORE CALLER SWAP2 AND PUSH32 0x8BE0079C531659141344CD1FD0A4F28419497F9722A3DAAFE3B4186F6B6457E0 PUSH0 DUP1 LOG3 PUSH1 0x1 SLOAD AND OR PUSH1 0x1 SSTORE PUSH1 0x1 PUSH1 0x4 SSTORE PUSH1 0x7 PUSH1 0xA1 SHL PUSH2 0xFFFF PUSH1 0xA0 SHL NOT PUSH1 0x6 SLOAD AND OR PUSH1 0x6 SSTORE PUSH3 0xC3 CALLER PUSH3 0x11C JUMP JUMPDEST POP PUSH3 0xCF CALLER PUSH3 0x18C JUMP JUMPDEST POP PUSH3 0xDB CALLER PUSH3 0x22D JUMP JUMPDEST POP PUSH1 0x40 MLOAD PUSH2 0x2218 SWAP1 DUP2 PUSH3 0x2C9 DUP3 CODECOPY RETURN JUMPDEST PUSH1 0x40 MLOAD PUSH4 0x1E4FBDF7 PUSH1 0xE0 SHL DUP2 MSTORE PUSH0 PUSH1 0x4 DUP3 ADD MSTORE PUSH1 0x24 SWAP1 REVERT JUMPDEST PUSH0 DUP1 REVERT JUMPDEST PUSH4 0x4E487B71 PUSH1 0xE0 SHL PUSH0 MSTORE PUSH1 0x41 PUSH1 0x4 MSTORE PUSH1 0x24 PUSH0 REVERT JUMPDEST PUSH1 0x1 PUSH1 0x1 PUSH1 0xA0 SHL SUB AND PUSH0 DUP2 DUP2 MSTORE PUSH0 DUP1 MLOAD PUSH1 0x20 PUSH3 0x2501 DUP4 CODECOPY DUP2 MLOAD SWAP2 MSTORE PUSH1 0x20 MSTORE PUSH1 0x40 SWAP1 KECCAK256 SLOAD PUSH1 0xFF AND PUSH3 0x187 JUMPI PUSH0 DUP2 DUP2 MSTORE PUSH0 DUP1 MLOAD PUSH1 0x20 PUSH3 0x2501 DUP4 CODECOPY DUP2 MLOAD SWAP2 MSTORE PUSH1 0x20 MSTORE PUSH1 0x40 DUP2 KECCAK256 DUP1 SLOAD PUSH1 0xFF NOT AND PUSH1 0x1 OR SWAP1 SSTORE CALLER SWAP2 SWAP1 PUSH0 DUP1 MLOAD PUSH1 0x20 PUSH3 0x24E1 DUP4 CODECOPY DUP2 MLOAD SWAP2 MSTORE DUP2 DUP1 LOG4 PUSH1 0x1 SWAP1 JUMP JUMPDEST POP PUSH0 SWAP1 JUMP JUMPDEST PUSH1 0x1 PUSH1 0x1 PUSH1 0xA0 SHL SUB AND PUSH0 DUP2 DUP2 MSTORE PUSH32 0xC9A1C8E58C7D7912DC1B4CEE052922E868FA25BE8A43F877E35CF2671142679A PUSH1 0x20 MSTORE PUSH1 0x40 SWAP1 KECCAK256 SLOAD PUSH32 0xB19546DFF01E856FB3F010C267A7B1C60363CF8A4664E21CC89C26224620214E SWAP2 SWAP1 PUSH1 0xFF AND PUSH3 0x227 JUMPI DUP2 PUSH0 MSTORE PUSH1 0x3 PUSH1 0x20 MSTORE PUSH1 0x40 PUSH0 KECCAK256 DUP2 PUSH0 MSTORE PUSH1 0x20 MSTORE PUSH1 0x40 PUSH0 KECCAK256 PUSH1 0x1 PUSH1 0xFF NOT DUP3 SLOAD AND OR SWAP1 SSTORE CALLER SWAP2 PUSH0 DUP1 MLOAD PUSH1 0x20 PUSH3 0x24E1 DUP4 CODECOPY DUP2 MLOAD SWAP2 MSTORE PUSH0 DUP1 LOG4 PUSH1 0x1 SWAP1 JUMP JUMPDEST POP POP PUSH0 SWAP1 JUMP JUMPDEST PUSH1 0x1 PUSH1 0x1 PUSH1 0xA0 SHL SUB AND PUSH0 DUP2 DUP2 MSTORE PUSH32 0x705976D2A2C155A0B54CA0C2B7CABC2010840E9A89B81ADEBC8B7B790B76D295 PUSH1 0x20 MSTORE PUSH1 0x40 SWAP1 KECCAK256 SLOAD PUSH32 0x73E573F9566D61418A34D5DE3FF49360F9C51FEC37F7486551670290F6285DAB SWAP2 SWAP1 PUSH1 0xFF AND PUSH3 0x227 JUMPI DUP2 PUSH0 MSTORE PUSH1 0x3 PUSH1 0x20 MSTORE PUSH1 0x40 PUSH0 KECCAK256 DUP2 PUSH0 MSTORE PUSH1 0x20 MSTORE PUSH1 0x40 PUSH0 KECCAK256 PUSH1 0x1 PUSH1 0xFF NOT DUP3 SLOAD AND OR SWAP1 SSTORE CALLER SWAP2 PUSH0 DUP1 MLOAD PUSH1 0x20 PUSH3 0x24E1 DUP4 CODECOPY DUP2 MLOAD SWAP2 MSTORE PUSH0 DUP1 LOG4 PUSH1 0x1 SWAP1 JUMP INVALID PUSH1 0x80 PUSH1 0x40 SWAP1 DUP1 DUP3 MSTORE PUSH1 0x4 DUP1 CALLDATASIZE LT ISZERO PUSH2 0x15 JUMPI PUSH0 DUP1 REVERT JUMPDEST PUSH0 CALLDATALOAD PUSH1 0xE0 SHR SWAP2 DUP3 PUSH4 0x1FFC9A7 EQ PUSH2 0x116B JUMPI POP DUP2 PUSH4 0x188301BD EQ PUSH2 0x114F JUMPI DUP2 PUSH4 0x248A9CA3 EQ PUSH2 0x1125 JUMPI DUP2 PUSH4 0x2F2FF15D EQ PUSH2 0x10FD JUMPI DUP2 PUSH4 0x36568ABE EQ PUSH2 0x10B9 JUMPI DUP2 PUSH4 0x3BFD28E8 EQ PUSH2 0x1001 JUMPI DUP2 PUSH4 0x47E63380 EQ PUSH2 0xFDA JUMPI DUP2 PUSH4 0x4A3FBA0E EQ PUSH2 0xFA0 JUMPI DUP2 PUSH4 0x4BA1CFE4 EQ PUSH2 0xF78 JUMPI DUP2 PUSH4 0x5F1076BB EQ PUSH2 0xEA1 JUMPI DUP2 PUSH4 0x603CDA09 EQ PUSH2 0xE2F JUMPI DUP2 PUSH4 0x617EA8FB EQ PUSH2 0xAEB JUMPI DUP2 PUSH4 0x6AD16934 EQ PUSH2 0xAC3 JUMPI DUP2 PUSH4 0x6FF1C9BC EQ PUSH2 0x9A6 JUMPI DUP2 PUSH4 0x715018A6 EQ PUSH2 0x94F JUMPI DUP2 PUSH4 0x87BC50A5 EQ PUSH2 0x921 JUMPI DUP2 PUSH4 0x8C9B9FDC EQ PUSH2 0x865 JUMPI DUP2 PUSH4 0x8D1E6B44 EQ PUSH2 0x510 JUMPI DUP2 PUSH4 0x8DA5CB5B EQ PUSH2 0x4E9 JUMPI DUP2 PUSH4 0x8EC64591 EQ PUSH2 0x422 JUMPI DUP2 PUSH4 0x909DD263 EQ PUSH2 0x3C2 JUMPI DUP2 PUSH4 0x91D14854 EQ PUSH2 0x37E JUMPI DUP2 PUSH4 0xA217FDDF EQ PUSH2 0x364 JUMPI DUP2 PUSH4 0xD213D86B EQ PUSH2 0x321 JUMPI DUP2 PUSH4 0xD4FDCBEC EQ PUSH2 0x2FC JUMPI DUP2 PUSH4 0xD547741F EQ PUSH2 0x2C0 JUMPI DUP2 PUSH4 0xE58378BB EQ PUSH2 0x286 JUMPI DUP2 PUSH4 0xF2FDE38B EQ PUSH2 0x1F9 JUMPI POP PUSH4 0xF6AC8558 EQ PUSH2 0x15F JUMPI PUSH0 DUP1 REVERT JUMPDEST CALLVALUE PUSH2 0x1F5 JUMPI PUSH1 0x20 CALLDATASIZE PUSH1 0x3 NOT ADD SLT PUSH2 0x1F5 JUMPI PUSH1 0xA0 SWAP1 PUSH1 0x1 PUSH1 0x1 PUSH1 0xA0 SHL SUB PUSH2 0x183 PUSH2 0x11D3 JUMP JUMPDEST AND PUSH0 MSTORE PUSH1 0x5 PUSH1 0x20 MSTORE PUSH1 0x80 DUP2 PUSH0 KECCAK256 DUP3 MLOAD SWAP1 PUSH2 0x19C DUP3 PUSH2 0x1209 JUMP JUMPDEST SLOAD SWAP1 PUSH1 0xFF DUP3 AND SWAP4 DUP5 DUP3 MSTORE PUSH1 0xFF DUP4 PUSH1 0x8 SHR AND DUP1 PUSH1 0x20 DUP5 ADD MSTORE PUSH1 0xFF DUP5 PUSH1 0x10 SHR AND SWAP3 DUP4 DUP4 DUP3 ADD MSTORE PUSH4 0xFFFFFFFF PUSH1 0xFF DUP7 PUSH1 0x18 SHR AND SWAP6 DUP7 PUSH1 0x60 DUP5 ADD MSTORE PUSH1 0x20 SHR AND SWAP6 DUP7 SWAP2 ADD MSTORE DUP2 MLOAD SWAP6 DUP7 MSTORE PUSH1 0x20 DUP7 ADD MSTORE DUP5 ADD MSTORE PUSH1 0x60 DUP4 ADD MSTORE PUSH1 0x80 DUP3 ADD MSTORE RETURN JUMPDEST PUSH0 DUP1 REVERT JUMPDEST SWAP1 POP CALLVALUE PUSH2 0x1F5 JUMPI PUSH1 0x20 CALLDATASIZE PUSH1 0x3 NOT ADD SLT PUSH2 0x1F5 JUMPI PUSH2 0x214 PUSH2 0x11D3 JUMP JUMPDEST SWAP1 PUSH2 0x21D PUSH2 0x204D JUMP JUMPDEST PUSH1 0x1 PUSH1 0x1 PUSH1 0xA0 SHL SUB SWAP2 DUP3 AND SWAP3 DUP4 ISZERO PUSH2 0x270 JUMPI POP POP PUSH0 SLOAD DUP3 PUSH12 0xFFFFFFFFFFFFFFFFFFFFFFFF PUSH1 0xA0 SHL DUP3 AND OR PUSH0 SSTORE AND PUSH32 0x8BE0079C531659141344CD1FD0A4F28419497F9722A3DAAFE3B4186F6B6457E0 PUSH0 DUP1 LOG3 STOP JUMPDEST SWAP1 PUSH0 PUSH1 0x24 SWAP3 MLOAD SWAP2 PUSH4 0x1E4FBDF7 PUSH1 0xE0 SHL DUP4 MSTORE DUP3 ADD MSTORE REVERT JUMPDEST DUP3 CALLVALUE PUSH2 0x1F5 JUMPI PUSH0 CALLDATASIZE PUSH1 0x3 NOT ADD SLT PUSH2 0x1F5 JUMPI PUSH1 0x20 SWAP1 MLOAD PUSH32 0xB19546DFF01E856FB3F010C267A7B1C60363CF8A4664E21CC89C26224620214E DUP2 MSTORE RETURN JUMPDEST DUP3 CALLVALUE PUSH2 0x1F5 JUMPI DUP1 PUSH1 0x3 NOT CALLDATASIZE ADD SLT PUSH2 0x1F5 JUMPI PUSH2 0x2FA SWAP2 CALLDATALOAD PUSH2 0x2F5 PUSH1 0x1 PUSH2 0x2E3 PUSH2 0x11BD JUMP JUMPDEST SWAP4 DUP4 PUSH0 MSTORE PUSH1 0x3 PUSH1 0x20 MSTORE PUSH0 KECCAK256 ADD SLOAD PUSH2 0x1901 JUMP JUMPDEST PUSH2 0x1C27 JUMP JUMPDEST STOP JUMPDEST DUP3 CALLVALUE PUSH2 0x1F5 JUMPI PUSH0 CALLDATASIZE PUSH1 0x3 NOT ADD SLT PUSH2 0x1F5 JUMPI PUSH1 0x20 SWAP1 PUSH2 0xFFFF PUSH1 0x6 SLOAD PUSH1 0xA0 SHR AND SWAP1 MLOAD SWAP1 DUP2 MSTORE RETURN JUMPDEST CALLVALUE PUSH2 0x1F5 JUMPI PUSH1 0x20 CALLDATASIZE PUSH1 0x3 NOT ADD SLT PUSH2 0x1F5 JUMPI PUSH2 0x33A PUSH2 0x11D3 JUMP JUMPDEST PUSH2 0x342 PUSH2 0x204D JUMP JUMPDEST PUSH1 0x1 DUP1 SLOAD PUSH1 0x1 PUSH1 0x1 PUSH1 0xA0 SHL SUB NOT AND PUSH1 0x1 PUSH1 0x1 PUSH1 0xA0 SHL SUB SWAP3 SWAP1 SWAP3 AND SWAP2 SWAP1 SWAP2 OR SWAP1 SSTORE STOP JUMPDEST DUP3 CALLVALUE PUSH2 0x1F5 JUMPI PUSH0 CALLDATASIZE PUSH1 0x3 NOT ADD SLT PUSH2 0x1F5 JUMPI PUSH1 0x20 SWAP1 MLOAD PUSH0 DUP2 MSTORE RETURN JUMPDEST DUP3 CALLVALUE PUSH2 0x1F5 JUMPI DUP1 PUSH1 0x3 NOT CALLDATASIZE ADD SLT PUSH2 0x1F5 JUMPI PUSH1 0x20 SWAP2 PUSH2 0x39A PUSH2 0x11BD JUMP JUMPDEST SWAP1 CALLDATALOAD PUSH0 MSTORE PUSH1 0x3 DUP4 MSTORE DUP2 PUSH0 KECCAK256 SWAP1 PUSH1 0x1 DUP1 PUSH1 0xA0 SHL SUB AND PUSH0 MSTORE DUP3 MSTORE PUSH1 0xFF DUP2 PUSH0 KECCAK256 SLOAD AND SWAP1 MLOAD SWAP1 ISZERO ISZERO DUP2 MSTORE RETURN JUMPDEST DUP3 CALLVALUE PUSH2 0x1F5 JUMPI PUSH1 0x20 CALLDATASIZE PUSH1 0x3 NOT ADD SLT PUSH2 0x1F5 JUMPI DUP2 CALLDATALOAD SWAP2 PUSH8 0xFFFFFFFFFFFFFFFF DUP4 GT PUSH2 0x1F5 JUMPI PUSH2 0x40D PUSH1 0x20 PUSH2 0x3FB PUSH1 0xFF SWAP4 DUP3 SWAP7 CALLDATASIZE SWAP2 ADD PUSH2 0x12C9 JUMP JUMPDEST DUP2 DUP6 MLOAD SWAP4 DUP3 DUP6 DUP1 SWAP5 MLOAD SWAP4 DUP5 SWAP3 ADD PUSH2 0x12E7 JUMP JUMPDEST DUP2 ADD PUSH1 0x2 DUP2 MSTORE SUB ADD SWAP1 KECCAK256 SLOAD AND SWAP1 MLOAD SWAP1 ISZERO ISZERO DUP2 MSTORE RETURN JUMPDEST SWAP1 POP CALLVALUE PUSH2 0x1F5 JUMPI PUSH1 0x20 CALLDATASIZE PUSH1 0x3 NOT ADD SLT PUSH2 0x1F5 JUMPI DUP1 CALLDATALOAD PUSH2 0xFFFF DUP2 AND SWAP2 DUP3 DUP3 SUB PUSH2 0x1F5 JUMPI PUSH2 0x44C PUSH2 0x1840 JUMP JUMPDEST DUP3 ISZERO PUSH2 0x49A JUMPI PUSH1 0x6 DUP1 SLOAD PUSH2 0xFFFF PUSH1 0xA0 SHL NOT AND PUSH1 0xA0 DUP5 SWAP1 SHL PUSH2 0xFFFF PUSH1 0xA0 SHL AND OR SWAP1 SSTORE DUP4 MLOAD DUP4 DUP2 MSTORE PUSH32 0x65AD151E522FDE5125BD3AD7EF5DCB4184B4D8DF08FF91BA979DF6B926C5C656 SWAP1 PUSH1 0x20 SWAP1 LOG1 STOP JUMPDEST PUSH1 0x84 SWAP1 PUSH1 0x20 DUP6 MLOAD SWAP2 PUSH3 0x461BCD PUSH1 0xE5 SHL DUP4 MSTORE DUP3 ADD MSTORE PUSH1 0x23 PUSH1 0x24 DUP3 ADD MSTORE PUSH32 0x5468726573686F6C64206D7573742062652067726561746572207468616E207A PUSH1 0x44 DUP3 ADD MSTORE PUSH3 0x65726F PUSH1 0xE8 SHL PUSH1 0x64 DUP3 ADD MSTORE REVERT JUMPDEST DUP3 CALLVALUE PUSH2 0x1F5 JUMPI PUSH0 CALLDATASIZE PUSH1 0x3 NOT ADD SLT PUSH2 0x1F5 JUMPI PUSH0 SLOAD SWAP1 MLOAD PUSH1 0x1 PUSH1 0x1 PUSH1 0xA0 SHL SUB SWAP1 SWAP2 AND DUP2 MSTORE PUSH1 0x20 SWAP1 RETURN JUMPDEST SWAP1 POP CALLVALUE PUSH2 0x1F5 JUMPI PUSH1 0x3 NOT SWAP1 PUSH1 0xC0 CALLDATASIZE DUP4 ADD SLT PUSH2 0x1F5 JUMPI PUSH8 0xFFFFFFFFFFFFFFFF DUP2 CALLDATALOAD DUP2 DUP2 GT PUSH2 0x1F5 JUMPI PUSH1 0x60 DUP2 DUP5 ADD SWAP5 DUP3 CALLDATASIZE SUB ADD SLT PUSH2 0x1F5 JUMPI PUSH2 0x54E PUSH2 0x11BD JUMP JUMPDEST SWAP4 PUSH2 0x557 PUSH2 0x11E9 JUMP JUMPDEST SWAP3 PUSH2 0x560 PUSH2 0x11F9 JUMP JUMPDEST SWAP1 PUSH1 0x84 CALLDATALOAD SWAP7 PUSH1 0xFF DUP9 AND SWAP3 DUP4 DUP10 SUB PUSH2 0x1F5 JUMPI PUSH1 0xA4 CALLDATALOAD PUSH1 0xFF DUP2 AND SWAP6 DUP7 DUP3 SUB PUSH2 0x1F5 JUMPI DUP12 SWAP8 PUSH2 0x58A PUSH2 0x1FF7 JUMP JUMPDEST PUSH2 0x592 PUSH2 0x18B9 JUMP JUMPDEST PUSH2 0x59C CALLDATASIZE DUP4 PUSH2 0x1308 JUMP JUMPDEST DUP10 MLOAD SWAP1 PUSH1 0xFF PUSH1 0x20 SWAP8 PUSH1 0x1 DUP1 PUSH1 0xA0 SHL SUB AND SWAP13 DUP14 DUP10 DUP6 ADD MSTORE AND DUP1 SWAP12 DUP4 ADD MSTORE PUSH1 0xFF DUP7 AND SWAP8 DUP9 PUSH1 0x60 DUP5 ADD MSTORE DUP10 PUSH1 0x80 DUP5 ADD MSTORE DUP11 PUSH1 0xA0 DUP5 ADD MSTORE PUSH1 0xA0 DUP4 MSTORE PUSH1 0xC0 DUP4 ADD SWAP1 DUP4 DUP3 LT SWAP1 DUP3 GT OR PUSH2 0x852 JUMPI DUP16 MSTORE PUSH2 0x5EF SWAP2 SWAP1 PUSH2 0x1D0E JUMP JUMPDEST ISZERO PUSH2 0x842 JUMPI PUSH2 0x5FF DUP11 ISZERO ISZERO PUSH2 0x1718 JUMP JUMPDEST PUSH1 0x64 DUP10 GT ISZERO DUP1 PUSH2 0x837 JUMPI JUMPDEST DUP1 PUSH2 0x82C JUMPI JUMPDEST DUP1 PUSH2 0x821 JUMPI JUMPDEST ISZERO PUSH2 0x7DE JUMPI PUSH2 0x634 SWAP2 PUSH1 0x24 PUSH2 0x62C SWAP3 ADD SWAP1 PUSH2 0x1380 JUMP JUMPDEST DUP2 ADD SWAP1 PUSH2 0x13B3 JUMP JUMPDEST SWAP10 PUSH0 SWAP11 PUSH0 JUMPDEST DUP2 MLOAD DUP2 LT ISZERO PUSH2 0x7CD JUMPI PUSH2 0x639 PUSH2 0x64F DUP3 DUP5 PUSH2 0x14AF JUMP JUMPDEST MLOAD MLOAD EQ PUSH2 0x65E JUMPI PUSH1 0x1 ADD PUSH2 0x639 JUMP JUMPDEST DUP6 SWAP7 SWAP8 SWAP9 SWAP10 SWAP11 SWAP12 SWAP13 POP PUSH2 0x675 SWAP2 SWAP6 SWAP3 SWAP4 SWAP5 SWAP6 PUSH2 0x14AF JUMP JUMPDEST MLOAD ADD MLOAD DUP5 DUP2 DUP1 MLOAD DUP2 ADD SUB SLT PUSH2 0x1F5 JUMPI DUP5 PUSH2 0x68F SWAP2 ADD PUSH2 0x175B JUMP JUMPDEST DUP1 ISZERO PUSH2 0x782 JUMPI JUMPDEST ISZERO PUSH2 0x767 JUMPI SWAP3 PUSH2 0x753 PUSH1 0x1 SWAP12 SWAP4 PUSH2 0x733 PUSH1 0x80 SWAP10 SWAP8 SWAP5 PUSH2 0x719 PUSH32 0xEAAC2916182C990F8AFF9D657D55950CCAB377388DE72527BBEAD57026B76F37 SWAP13 SWAP11 SWAP9 DUP15 PUSH0 MSTORE PUSH1 0x5 DUP8 MSTORE PUSH2 0x701 DUP10 PUSH0 KECCAK256 SWAP6 DUP14 PUSH1 0xFF NOT DUP9 SLOAD AND OR DUP8 SSTORE DUP7 SWAP1 PUSH2 0xFF00 DUP3 SLOAD SWAP2 PUSH1 0x8 SHL AND SWAP1 PUSH2 0xFF00 NOT AND OR SWAP1 SSTORE JUMP JUMPDEST DUP5 SLOAD PUSH3 0xFF0000 NOT AND PUSH1 0x10 SWAP2 SWAP1 SWAP2 SHL PUSH3 0xFF0000 AND OR DUP5 SSTORE JUMP JUMPDEST DUP3 SLOAD PUSH4 0xFF000000 NOT AND PUSH1 0x18 SWAP2 SWAP1 SWAP2 SHL PUSH4 0xFF000000 AND OR DUP3 SSTORE JUMP JUMPDEST DUP1 SLOAD PUSH8 0xFFFFFFFF00000000 NOT AND TIMESTAMP PUSH1 0x20 SHL PUSH8 0xFFFFFFFF00000000 AND OR SWAP1 SSTORE JUMP JUMPDEST DUP3 MLOAD SWAP6 DUP7 MSTORE DUP6 ADD MSTORE DUP4 ADD MSTORE PUSH1 0x60 DUP3 ADD MSTORE LOG2 SSTORE STOP JUMPDEST DUP11 MLOAD PUSH3 0x461BCD PUSH1 0xE5 SHL DUP2 MSTORE DUP1 PUSH2 0x77E DUP2 DUP14 ADD PUSH2 0x1768 JUMP JUMPDEST SUB SWAP1 REVERT JUMPDEST DUP12 MLOAD PUSH3 0x461BCD PUSH1 0xE5 SHL DUP2 MSTORE PUSH1 0x20 DUP2 DUP14 ADD DUP2 DUP2 MSTORE PUSH1 0x1D SWAP2 DUP2 ADD SWAP2 SWAP1 SWAP2 MSTORE PUSH32 0x557064617465206E6F7420617070726F766564206279206B65726E656C000000 PUSH1 0x40 DUP3 ADD MSTORE DUP2 SWAP1 PUSH1 0x60 ADD SUB SWAP1 REVERT JUMPDEST POP POP SWAP1 SWAP2 SWAP3 SWAP4 SWAP5 SWAP6 SWAP7 SWAP8 SWAP9 SWAP10 PUSH2 0x696 JUMP JUMPDEST DUP13 MLOAD PUSH3 0x461BCD PUSH1 0xE5 SHL DUP2 MSTORE DUP1 DUP13 ADD DUP7 SWAP1 MSTORE PUSH1 0x1C PUSH1 0x24 DUP3 ADD MSTORE PUSH32 0x53636F726573206D757374206265206265747765656E20302D31303000000000 PUSH1 0x44 DUP3 ADD MSTORE PUSH1 0x64 SWAP1 REVERT JUMPDEST POP PUSH1 0x64 DUP9 GT ISZERO PUSH2 0x616 JUMP JUMPDEST POP PUSH1 0x64 DUP8 GT ISZERO PUSH2 0x610 JUMP JUMPDEST POP PUSH1 0x64 DUP7 GT ISZERO PUSH2 0x60A JUMP JUMPDEST DUP13 MLOAD PUSH4 0x6CA537E7 PUSH1 0xE1 SHL DUP2 MSTORE DUP12 SWAP1 REVERT JUMPDEST PUSH1 0x41 DUP15 PUSH4 0x4E487B71 PUSH1 0xE0 SHL PUSH0 MSTORE MSTORE PUSH1 0x24 PUSH0 REVERT JUMPDEST SWAP1 POP CALLVALUE PUSH2 0x1F5 JUMPI PUSH1 0x20 CALLDATASIZE PUSH1 0x3 NOT ADD SLT PUSH2 0x1F5 JUMPI PUSH2 0x880 PUSH2 0x11D3 JUMP JUMPDEST PUSH2 0x888 PUSH2 0x1840 JUMP JUMPDEST PUSH1 0x1 PUSH1 0x1 PUSH1 0xA0 SHL SUB DUP2 AND SWAP2 DUP3 ISZERO PUSH2 0x8DE JUMPI POP PUSH1 0x20 PUSH0 DUP1 MLOAD PUSH1 0x20 PUSH2 0x21C3 DUP4 CODECOPY DUP2 MLOAD SWAP2 MSTORE SWAP4 PUSH2 0x8D5 PUSH32 0x8737757D0849A3CC97F98FF695CA69B8C01A8E5CB9E21B72D5E776A9DD5B06F3 SWAP4 PUSH2 0x19D5 JUMP JUMPDEST POP MLOAD PUSH1 0x1 DUP2 MSTORE LOG3 STOP JUMPDEST PUSH1 0x64 SWAP1 PUSH1 0x20 DUP6 MLOAD SWAP2 PUSH3 0x461BCD PUSH1 0xE5 SHL DUP4 MSTORE DUP3 ADD MSTORE PUSH1 0x17 PUSH1 0x24 DUP3 ADD MSTORE PUSH32 0x496E76616C696420757064617465722061646472657373000000000000000000 PUSH1 0x44 DUP3 ADD MSTORE REVERT JUMPDEST DUP3 CALLVALUE PUSH2 0x1F5 JUMPI PUSH1 0x20 CALLDATASIZE PUSH1 0x3 NOT ADD SLT PUSH2 0x1F5 JUMPI PUSH1 0x20 SWAP1 PUSH2 0x946 PUSH2 0x941 PUSH2 0x11D3 JUMP JUMPDEST PUSH2 0x17AB JUMP JUMPDEST SWAP1 MLOAD SWAP1 ISZERO ISZERO DUP2 MSTORE RETURN JUMPDEST CALLVALUE PUSH2 0x1F5 JUMPI PUSH0 CALLDATASIZE PUSH1 0x3 NOT ADD SLT PUSH2 0x1F5 JUMPI PUSH2 0x967 PUSH2 0x204D JUMP JUMPDEST PUSH0 DUP1 SLOAD PUSH1 0x1 PUSH1 0x1 PUSH1 0xA0 SHL SUB NOT DUP2 AND DUP3 SSTORE PUSH1 0x1 PUSH1 0x1 PUSH1 0xA0 SHL SUB AND PUSH32 0x8BE0079C531659141344CD1FD0A4F28419497F9722A3DAAFE3B4186F6B6457E0 DUP3 DUP1 LOG3 STOP JUMPDEST SWAP1 POP CALLVALUE PUSH2 0x1F5 JUMPI PUSH1 0x20 CALLDATASIZE PUSH1 0x3 NOT ADD SLT PUSH2 0x1F5 JUMPI DUP1 CALLDATALOAD PUSH1 0x1 PUSH1 0x1 PUSH1 0xA0 SHL SUB DUP2 AND SWAP1 DUP2 SWAP1 SUB PUSH2 0x1F5 JUMPI PUSH2 0x9D5 PUSH2 0x1840 JUMP JUMPDEST DUP1 ISZERO PUSH2 0xA8C JUMPI SELFBALANCE SWAP1 DUP2 ISZERO PUSH2 0xA52 JUMPI PUSH0 DUP1 DUP1 SWAP4 DUP2 SWAP4 GAS CALL RETURNDATASIZE ISZERO PUSH2 0xA4D JUMPI RETURNDATASIZE PUSH2 0x9FB DUP2 PUSH2 0x1277 JUMP JUMPDEST SWAP1 PUSH2 0xA08 DUP6 MLOAD SWAP3 DUP4 PUSH2 0x1255 JUMP JUMPDEST DUP2 MSTORE PUSH0 PUSH1 0x20 RETURNDATASIZE SWAP3 ADD RETURNDATACOPY JUMPDEST ISZERO PUSH2 0xA19 JUMPI STOP JUMPDEST PUSH1 0x20 PUSH1 0x64 SWAP3 MLOAD SWAP2 PUSH3 0x461BCD PUSH1 0xE5 SHL DUP4 MSTORE DUP3 ADD MSTORE PUSH1 0xF PUSH1 0x24 DUP3 ADD MSTORE PUSH15 0x151C985B9CD9995C8819985A5B1959 PUSH1 0x8A SHL PUSH1 0x44 DUP3 ADD MSTORE REVERT JUMPDEST PUSH2 0xA12 JUMP JUMPDEST DUP4 MLOAD PUSH3 0x461BCD PUSH1 0xE5 SHL DUP2 MSTORE PUSH1 0x20 DUP2 DUP6 ADD MSTORE PUSH1 0x14 PUSH1 0x24 DUP3 ADD MSTORE PUSH20 0x4E6F2066756E647320746F207769746864726177 PUSH1 0x60 SHL PUSH1 0x44 DUP3 ADD MSTORE PUSH1 0x64 SWAP1 REVERT JUMPDEST POP PUSH1 0x20 PUSH1 0x64 SWAP3 MLOAD SWAP2 PUSH3 0x461BCD PUSH1 0xE5 SHL DUP4 MSTORE DUP3 ADD MSTORE PUSH1 0x11 PUSH1 0x24 DUP3 ADD MSTORE PUSH17 0x125B9D985B1A59081C9958DA5C1A595B9D PUSH1 0x7A SHL PUSH1 0x44 DUP3 ADD MSTORE REVERT JUMPDEST DUP3 CALLVALUE PUSH2 0x1F5 JUMPI PUSH0 CALLDATASIZE PUSH1 0x3 NOT ADD SLT PUSH2 0x1F5 JUMPI PUSH1 0x6 SLOAD SWAP1 MLOAD PUSH1 0x1 PUSH1 0x1 PUSH1 0xA0 SHL SUB SWAP1 SWAP2 AND DUP2 MSTORE PUSH1 0x20 SWAP1 RETURN JUMPDEST SWAP1 POP CALLVALUE PUSH2 0x1F5 JUMPI PUSH1 0x3 NOT PUSH1 0x80 CALLDATASIZE DUP3 ADD SLT PUSH2 0x1F5 JUMPI DUP2 CALLDATALOAD SWAP1 PUSH8 0xFFFFFFFFFFFFFFFF DUP1 DUP4 GT PUSH2 0x1F5 JUMPI PUSH1 0x60 DUP4 DUP6 ADD SWAP3 DUP5 CALLDATASIZE SUB ADD SLT PUSH2 0x1F5 JUMPI PUSH2 0xB29 PUSH2 0x11BD JUMP JUMPDEST PUSH2 0xB31 PUSH2 0x11E9 JUMP JUMPDEST SWAP4 PUSH2 0xB3A PUSH2 0x11F9 JUMP JUMPDEST SWAP1 PUSH2 0xB43 PUSH2 0x1FF7 JUMP JUMPDEST PUSH2 0xB4B PUSH2 0x18B9 JUMP JUMPDEST PUSH2 0xB55 CALLDATASIZE DUP7 PUSH2 0x1308 JUMP JUMPDEST SWAP5 DUP9 MLOAD PUSH1 0xFF PUSH1 0x20 SWAP6 PUSH1 0x1 DUP1 PUSH1 0xA0 SHL SUB AND SWAP9 DUP10 DUP8 DUP5 ADD MSTORE AND SWAP7 DUP8 DUP12 DUP4 ADD MSTORE PUSH1 0xFF DUP6 AND SWAP7 DUP8 PUSH1 0x60 DUP5 ADD MSTORE PUSH1 0x60 DUP4 MSTORE PUSH1 0x80 DUP4 ADD SWAP1 DUP4 DUP3 LT SWAP1 DUP3 GT OR PUSH2 0xE1C JUMPI DUP12 MSTORE PUSH2 0xB9D SWAP2 SWAP1 PUSH2 0x1D0E JUMP JUMPDEST ISZERO PUSH2 0xE0C JUMPI PUSH2 0xBAD DUP8 ISZERO ISZERO PUSH2 0x1718 JUMP JUMPDEST PUSH1 0x64 DUP6 GT PUSH2 0xDC9 JUMPI PUSH1 0x1 SWAP2 PUSH1 0x1 DUP8 LT ISZERO DUP1 PUSH2 0xDBF JUMPI JUMPDEST ISZERO PUSH2 0xD86 JUMPI PUSH2 0xBD9 SWAP2 PUSH1 0x24 PUSH2 0x62C SWAP3 ADD SWAP1 PUSH2 0x1380 JUMP JUMPDEST PUSH0 SWAP2 SWAP1 DUP3 DUP3 JUMPDEST PUSH2 0xCDA JUMPI JUMPDEST POP POP POP ISZERO PUSH2 0xCC3 JUMPI SWAP2 PUSH32 0x30EA27E7EE3786F5FCEE5319934301E286DD40AE3192F917392ED79326879B9D SWAP4 SWAP2 PUSH2 0xC56 PUSH1 0x1 SWAP9 SWAP5 DUP8 PUSH0 MSTORE PUSH1 0x5 DUP4 MSTORE DUP6 PUSH0 KECCAK256 SWAP1 DUP11 DUP7 EQ PUSH0 EQ PUSH2 0xC62 JUMPI POP DUP1 SLOAD PUSH1 0xFF NOT AND DUP5 OR DUP2 SSTORE DUP1 SLOAD PUSH8 0xFFFFFFFF00000000 NOT AND TIMESTAMP PUSH1 0x20 SHL PUSH8 0xFFFFFFFF00000000 AND OR SWAP1 SSTORE JUMP JUMPDEST DUP4 MLOAD SWAP3 DUP4 MSTORE DUP3 ADD MSTORE LOG2 SSTORE STOP JUMPDEST PUSH1 0x2 DUP7 SUB PUSH2 0xC83 JUMPI DUP2 SLOAD PUSH2 0xFF00 NOT AND PUSH1 0x8 SWAP2 SWAP1 SWAP2 SHL PUSH2 0xFF00 AND OR DUP2 SSTORE PUSH2 0x733 JUMP JUMPDEST PUSH1 0x3 DUP7 SUB PUSH2 0xCA6 JUMPI DUP2 SLOAD PUSH3 0xFF0000 NOT AND PUSH1 0x10 SWAP2 SWAP1 SWAP2 SHL PUSH3 0xFF0000 AND OR DUP2 SSTORE PUSH2 0x733 JUMP JUMPDEST DUP2 SLOAD PUSH4 0xFF000000 NOT AND PUSH1 0x18 SWAP2 SWAP1 SWAP2 SHL PUSH4 0xFF000000 AND OR DUP2 SSTORE PUSH2 0x733 JUMP JUMPDEST DUP7 MLOAD PUSH3 0x461BCD PUSH1 0xE5 SHL DUP2 MSTORE DUP1 PUSH2 0x77E DUP2 DUP10 ADD PUSH2 0x1768 JUMP JUMPDEST DUP2 MLOAD DUP2 LT ISZERO PUSH2 0xD81 JUMPI DUP6 PUSH2 0x639 PUSH2 0xCF1 DUP4 DUP6 PUSH2 0x14AF JUMP JUMPDEST MLOAD MLOAD EQ PUSH2 0xD01 JUMPI POP DUP3 ADD DUP3 PUSH2 0xBDF JUMP JUMPDEST SWAP4 POP SWAP1 PUSH2 0xD0E SWAP3 POP PUSH2 0x14AF JUMP JUMPDEST MLOAD ADD MLOAD DUP3 DUP2 DUP1 MLOAD DUP2 ADD SUB SLT PUSH2 0x1F5 JUMPI DUP3 PUSH2 0xD28 SWAP2 ADD PUSH2 0x175B JUMP JUMPDEST DUP1 ISZERO PUSH2 0xD36 JUMPI PUSH0 DUP1 DUP1 PUSH2 0xBE4 JUMP JUMPDEST DUP8 MLOAD PUSH3 0x461BCD PUSH1 0xE5 SHL DUP2 MSTORE PUSH1 0x20 DUP2 DUP10 ADD DUP2 DUP2 MSTORE PUSH1 0x1D SWAP2 DUP2 ADD SWAP2 SWAP1 SWAP2 MSTORE PUSH32 0x557064617465206E6F7420617070726F766564206279206B65726E656C000000 PUSH1 0x40 DUP3 ADD MSTORE DUP2 SWAP1 PUSH1 0x60 ADD SUB SWAP1 REVERT JUMPDEST PUSH2 0xBE4 JUMP JUMPDEST DUP10 MLOAD PUSH3 0x461BCD PUSH1 0xE5 SHL DUP2 MSTORE DUP1 DUP11 ADD DUP7 SWAP1 MSTORE PUSH1 0x13 PUSH1 0x24 DUP3 ADD MSTORE PUSH19 0x496E76616C6964206D65747269632074797065 PUSH1 0x68 SHL PUSH1 0x44 DUP3 ADD MSTORE PUSH1 0x64 SWAP1 REVERT JUMPDEST POP DUP9 DUP8 GT ISZERO PUSH2 0xBC3 JUMP JUMPDEST DUP9 MLOAD PUSH3 0x461BCD PUSH1 0xE5 SHL DUP2 MSTORE DUP1 DUP10 ADD DUP6 SWAP1 MSTORE PUSH1 0x1B PUSH1 0x24 DUP3 ADD MSTORE PUSH32 0x53636F7265206D757374206265206265747765656E20302D3130300000000000 PUSH1 0x44 DUP3 ADD MSTORE PUSH1 0x64 SWAP1 REVERT JUMPDEST DUP9 MLOAD PUSH4 0x6CA537E7 PUSH1 0xE1 SHL DUP2 MSTORE DUP9 SWAP1 REVERT JUMPDEST PUSH1 0x41 DUP12 PUSH4 0x4E487B71 PUSH1 0xE0 SHL PUSH0 MSTORE MSTORE PUSH1 0x24 PUSH0 REVERT JUMPDEST DUP3 CALLVALUE PUSH2 0x1F5 JUMPI PUSH1 0x20 CALLDATASIZE PUSH1 0x3 NOT ADD SLT PUSH2 0x1F5 JUMPI PUSH0 DUP1 MLOAD PUSH1 0x20 PUSH2 0x21C3 DUP4 CODECOPY DUP2 MLOAD SWAP2 MSTORE SWAP1 PUSH32 0x8737757D0849A3CC97F98FF695CA69B8C01A8E5CB9E21B72D5E776A9DD5B06F3 PUSH1 0x20 PUSH2 0xE7B PUSH2 0x11D3 JUMP JUMPDEST SWAP3 PUSH2 0xE84 PUSH2 0x1840 JUMP JUMPDEST PUSH2 0xE8D DUP5 PUSH2 0x1B90 JUMP JUMPDEST POP MLOAD PUSH0 DUP2 MSTORE PUSH1 0x1 PUSH1 0x1 PUSH1 0xA0 SHL SUB SWAP1 SWAP4 AND SWAP3 LOG3 STOP JUMPDEST SWAP1 POP CALLVALUE PUSH2 0x1F5 JUMPI PUSH1 0x20 CALLDATASIZE PUSH1 0x3 NOT ADD SLT PUSH2 0x1F5 JUMPI PUSH2 0xEBC PUSH2 0x11D3 JUMP JUMPDEST PUSH2 0xEC4 PUSH2 0x1840 JUMP JUMPDEST PUSH1 0x1 PUSH1 0x1 PUSH1 0xA0 SHL SUB DUP2 DUP2 AND SWAP3 DUP4 ISZERO PUSH2 0xF35 JUMPI POP SWAP1 PUSH2 0xEFE SWAP2 PUSH1 0x6 SLOAD AND DUP1 PUSH2 0xF25 JUMPI JUMPDEST POP PUSH1 0x6 DUP1 SLOAD PUSH1 0x1 PUSH1 0x1 PUSH1 0xA0 SHL SUB NOT AND DUP5 OR SWAP1 SSTORE PUSH2 0x1923 JUMP JUMPDEST POP PUSH32 0x2F658B440C35314F52658EA8A740E05B284CDC84DC9AE01E891F21B8933E7CAD PUSH0 DUP1 LOG2 STOP JUMPDEST PUSH2 0xF2E SWAP1 PUSH2 0x1AE6 JUMP JUMPDEST POP DUP4 PUSH2 0xEE6 JUMP JUMPDEST PUSH1 0x64 SWAP1 PUSH1 0x20 DUP7 MLOAD SWAP2 PUSH3 0x461BCD PUSH1 0xE5 SHL DUP4 MSTORE DUP3 ADD MSTORE PUSH1 0x19 PUSH1 0x24 DUP3 ADD MSTORE PUSH32 0x496E76616C696420617574686F72697479206164647265737300000000000000 PUSH1 0x44 DUP3 ADD MSTORE REVERT JUMPDEST DUP3 CALLVALUE PUSH2 0x1F5 JUMPI PUSH0 CALLDATASIZE PUSH1 0x3 NOT ADD SLT PUSH2 0x1F5 JUMPI PUSH1 0x1 SLOAD SWAP1 MLOAD PUSH1 0x1 PUSH1 0x1 PUSH1 0xA0 SHL SUB SWAP1 SWAP2 AND DUP2 MSTORE PUSH1 0x20 SWAP1 RETURN JUMPDEST DUP3 CALLVALUE PUSH2 0x1F5 JUMPI PUSH0 CALLDATASIZE PUSH1 0x3 NOT ADD SLT PUSH2 0x1F5 JUMPI PUSH1 0x20 SWAP1 MLOAD PUSH32 0xD565E3FC066DF348A5CBC05A8D6323E00552838041CEA2D84CC59876BA37735D DUP2 MSTORE RETURN JUMPDEST DUP3 CALLVALUE PUSH2 0x1F5 JUMPI PUSH0 CALLDATASIZE PUSH1 0x3 NOT ADD SLT PUSH2 0x1F5 JUMPI PUSH1 0x20 SWAP1 MLOAD PUSH0 DUP1 MLOAD PUSH1 0x20 PUSH2 0x21C3 DUP4 CODECOPY DUP2 MLOAD SWAP2 MSTORE DUP2 MSTORE RETURN JUMPDEST DUP3 CALLVALUE PUSH2 0x1F5 JUMPI PUSH1 0x3 NOT SWAP2 DUP2 DUP4 CALLDATASIZE ADD SLT PUSH2 0x1F5 JUMPI DUP1 CALLDATALOAD SWAP1 PUSH8 0xFFFFFFFFFFFFFFFF SWAP4 DUP5 DUP4 GT PUSH2 0x1F5 JUMPI PUSH1 0x60 SWAP1 DUP4 DUP4 ADD SWAP4 CALLDATASIZE SUB ADD SLT PUSH2 0x1F5 JUMPI PUSH2 0x103F PUSH2 0x11BD JUMP JUMPDEST SWAP4 PUSH2 0x104A CALLDATASIZE DUP5 PUSH2 0x1308 JUMP JUMPDEST DUP5 MLOAD PUSH1 0x1 PUSH1 0x1 PUSH1 0xA0 SHL SUB DUP8 AND PUSH1 0x20 DUP1 DUP4 ADD SWAP2 SWAP1 SWAP2 MSTORE DUP2 MSTORE SWAP2 DUP3 DUP7 ADD SWAP1 DUP2 GT DUP4 DUP3 LT OR PUSH2 0x10A6 JUMPI DUP6 MSTORE PUSH2 0x107C SWAP2 SWAP1 PUSH2 0x1D0E JUMP JUMPDEST ISZERO PUSH2 0x1098 JUMPI POP PUSH2 0x1090 PUSH1 0x20 SWAP4 PUSH1 0xFF SWAP3 PUSH2 0x1505 JUMP JUMPDEST SWAP2 MLOAD SWAP2 AND DUP2 MSTORE RETURN JUMPDEST DUP3 MLOAD PUSH4 0x6CA537E7 PUSH1 0xE1 SHL DUP2 MSTORE REVERT JUMPDEST PUSH1 0x41 DUP5 PUSH4 0x4E487B71 PUSH1 0xE0 SHL PUSH0 MSTORE MSTORE PUSH1 0x24 PUSH0 REVERT JUMPDEST DUP3 CALLVALUE PUSH2 0x1F5 JUMPI DUP1 PUSH1 0x3 NOT CALLDATASIZE ADD SLT PUSH2 0x1F5 JUMPI PUSH2 0x10D2 PUSH2 0x11BD JUMP JUMPDEST SWAP1 CALLER PUSH1 0x1 PUSH1 0x1 PUSH1 0xA0 SHL SUB DUP4 AND SUB PUSH2 0x10EE JUMPI POP PUSH2 0x2FA SWAP2 CALLDATALOAD PUSH2 0x1C27 JUMP JUMPDEST MLOAD PUSH4 0x334BD919 PUSH1 0xE1 SHL DUP2 MSTORE SWAP1 POP REVERT JUMPDEST DUP3 CALLVALUE PUSH2 0x1F5 JUMPI DUP1 PUSH1 0x3 NOT CALLDATASIZE ADD SLT PUSH2 0x1F5 JUMPI PUSH2 0x2FA SWAP2 CALLDATALOAD PUSH2 0x1120 PUSH1 0x1 PUSH2 0x2E3 PUSH2 0x11BD JUMP JUMPDEST PUSH2 0x1A6E JUMP JUMPDEST DUP3 CALLVALUE PUSH2 0x1F5 JUMPI PUSH1 0x20 CALLDATASIZE PUSH1 0x3 NOT ADD SLT PUSH2 0x1F5 JUMPI PUSH1 0x20 SWAP2 CALLDATALOAD PUSH0 MSTORE PUSH1 0x3 DUP3 MSTORE PUSH1 0x1 DUP2 PUSH0 KECCAK256 ADD SLOAD SWAP1 MLOAD SWAP1 DUP2 MSTORE RETURN JUMPDEST DUP3 CALLVALUE PUSH2 0x1F5 JUMPI PUSH0 CALLDATASIZE PUSH1 0x3 NOT ADD SLT PUSH2 0x1F5 JUMPI PUSH1 0x20 SWAP1 MLOAD PUSH2 0x639 DUP2 MSTORE RETURN JUMPDEST SWAP1 CALLVALUE PUSH2 0x1F5 JUMPI PUSH1 0x20 CALLDATASIZE PUSH1 0x3 NOT ADD SLT PUSH2 0x1F5 JUMPI CALLDATALOAD SWAP1 PUSH4 0xFFFFFFFF PUSH1 0xE0 SHL DUP3 AND DUP1 SWAP3 SUB PUSH2 0x1F5 JUMPI PUSH1 0x20 SWAP2 PUSH4 0x7965DB0B PUSH1 0xE0 SHL DUP2 EQ SWAP1 DUP2 ISZERO PUSH2 0x11AC JUMPI JUMPDEST POP ISZERO ISZERO DUP2 MSTORE RETURN JUMPDEST PUSH4 0x1FFC9A7 PUSH1 0xE0 SHL EQ SWAP1 POP DUP4 PUSH2 0x11A5 JUMP JUMPDEST PUSH1 0x24 CALLDATALOAD SWAP1 PUSH1 0x1 PUSH1 0x1 PUSH1 0xA0 SHL SUB DUP3 AND DUP3 SUB PUSH2 0x1F5 JUMPI JUMP JUMPDEST PUSH1 0x4 CALLDATALOAD SWAP1 PUSH1 0x1 PUSH1 0x1 PUSH1 0xA0 SHL SUB DUP3 AND DUP3 SUB PUSH2 0x1F5 JUMPI JUMP JUMPDEST PUSH1 0x44 CALLDATALOAD SWAP1 PUSH1 0xFF DUP3 AND DUP3 SUB PUSH2 0x1F5 JUMPI JUMP JUMPDEST PUSH1 0x64 CALLDATALOAD SWAP1 PUSH1 0xFF DUP3 AND DUP3 SUB PUSH2 0x1F5 JUMPI JUMP JUMPDEST PUSH1 0xA0 DUP2 ADD SWAP1 DUP2 LT PUSH8 0xFFFFFFFFFFFFFFFF DUP3 GT OR PUSH2 0x1225 JUMPI PUSH1 0x40 MSTORE JUMP JUMPDEST PUSH4 0x4E487B71 PUSH1 0xE0 SHL PUSH0 MSTORE PUSH1 0x41 PUSH1 0x4 MSTORE PUSH1 0x24 PUSH0 REVERT JUMPDEST PUSH1 0x60 DUP2 ADD SWAP1 DUP2 LT PUSH8 0xFFFFFFFFFFFFFFFF DUP3 GT OR PUSH2 0x1225 JUMPI PUSH1 0x40 MSTORE JUMP JUMPDEST SWAP1 PUSH1 0x1F DUP1 NOT SWAP2 ADD AND DUP2 ADD SWAP1 DUP2 LT PUSH8 0xFFFFFFFFFFFFFFFF DUP3 GT OR PUSH2 0x1225 JUMPI PUSH1 0x40 MSTORE JUMP JUMPDEST PUSH8 0xFFFFFFFFFFFFFFFF DUP2 GT PUSH2 0x1225 JUMPI PUSH1 0x1F ADD PUSH1 0x1F NOT AND PUSH1 0x20 ADD SWAP1 JUMP JUMPDEST SWAP3 SWAP2 SWAP3 PUSH2 0x129F DUP3 PUSH2 0x1277 JUMP JUMPDEST SWAP2 PUSH2 0x12AD PUSH1 0x40 MLOAD SWAP4 DUP5 PUSH2 0x1255 JUMP JUMPDEST DUP3 SWAP5 DUP2 DUP5 MSTORE DUP2 DUP4 ADD GT PUSH2 0x1F5 JUMPI DUP3 DUP2 PUSH1 0x20 SWAP4 DUP5 PUSH0 SWAP7 ADD CALLDATACOPY ADD ADD MSTORE JUMP JUMPDEST SWAP1 DUP1 PUSH1 0x1F DUP4 ADD SLT ISZERO PUSH2 0x1F5 JUMPI DUP2 PUSH1 0x20 PUSH2 0x12E4 SWAP4 CALLDATALOAD SWAP2 ADD PUSH2 0x1293 JUMP JUMPDEST SWAP1 JUMP JUMPDEST PUSH0 JUMPDEST DUP4 DUP2 LT PUSH2 0x12F8 JUMPI POP POP PUSH0 SWAP2 ADD MSTORE JUMP JUMPDEST DUP2 DUP2 ADD MLOAD DUP4 DUP3 ADD MSTORE PUSH1 0x20 ADD PUSH2 0x12E9 JUMP JUMPDEST SWAP2 SWAP1 PUSH1 0x60 DUP4 DUP3 SUB SLT PUSH2 0x1F5 JUMPI PUSH1 0x40 MLOAD SWAP1 PUSH2 0x1321 DUP3 PUSH2 0x1239 JUMP JUMPDEST DUP2 SWAP4 DUP1 CALLDATALOAD SWAP2 PUSH8 0xFFFFFFFFFFFFFFFF SWAP3 DUP4 DUP2 GT PUSH2 0x1F5 JUMPI DUP2 PUSH2 0x1343 SWAP2 DUP5 ADD PUSH2 0x12C9 JUMP JUMPDEST DUP5 MSTORE PUSH1 0x20 DUP3 ADD CALLDATALOAD DUP4 DUP2 GT PUSH2 0x1F5 JUMPI DUP2 PUSH2 0x135D SWAP2 DUP5 ADD PUSH2 0x12C9 JUMP JUMPDEST PUSH1 0x20 DUP6 ADD MSTORE PUSH1 0x40 DUP3 ADD CALLDATALOAD SWAP3 DUP4 GT PUSH2 0x1F5 JUMPI PUSH1 0x40 SWAP3 PUSH2 0x137B SWAP3 ADD PUSH2 0x12C9 JUMP JUMPDEST SWAP2 ADD MSTORE JUMP JUMPDEST SWAP1 CALLDATALOAD SWAP1 PUSH1 0x1E NOT DUP2 CALLDATASIZE SUB ADD DUP3 SLT ISZERO PUSH2 0x1F5 JUMPI ADD DUP1 CALLDATALOAD SWAP1 PUSH8 0xFFFFFFFFFFFFFFFF DUP3 GT PUSH2 0x1F5 JUMPI PUSH1 0x20 ADD SWAP2 DUP2 CALLDATASIZE SUB DUP4 SGT PUSH2 0x1F5 JUMPI JUMP JUMPDEST SWAP1 PUSH1 0x20 SWAP1 DUP2 DUP4 DUP3 SUB SLT PUSH2 0x1F5 JUMPI DUP3 CALLDATALOAD PUSH8 0xFFFFFFFFFFFFFFFF SWAP4 DUP5 DUP3 GT PUSH2 0x1F5 JUMPI ADD SWAP1 DUP1 PUSH1 0x1F DUP4 ADD SLT ISZERO PUSH2 0x1F5 JUMPI DUP2 CALLDATALOAD SWAP4 DUP1 DUP6 GT PUSH2 0x1225 JUMPI DUP5 PUSH1 0x5 SHL SWAP1 PUSH1 0x40 DUP1 MLOAD SWAP7 PUSH2 0x1400 DUP8 DUP6 ADD DUP10 PUSH2 0x1255 JUMP JUMPDEST DUP8 MSTORE DUP6 DUP1 DUP9 ADD SWAP4 DUP7 ADD ADD SWAP5 DUP5 DUP7 GT PUSH2 0x1F5 JUMPI DUP7 DUP2 ADD SWAP4 JUMPDEST DUP7 DUP6 LT PUSH2 0x1429 JUMPI POP POP POP POP POP POP POP POP SWAP1 JUMP JUMPDEST DUP5 CALLDATALOAD DUP5 DUP2 GT PUSH2 0x1F5 JUMPI DUP3 ADD SWAP1 PUSH1 0x60 SWAP2 DUP3 PUSH1 0x1F NOT DUP3 DUP11 SUB ADD SLT PUSH2 0x1F5 JUMPI DUP5 MLOAD SWAP3 PUSH2 0x1451 DUP5 PUSH2 0x1239 JUMP JUMPDEST DUP11 DUP3 ADD CALLDATALOAD DUP5 MSTORE DUP6 DUP3 ADD CALLDATALOAD DUP8 DUP2 GT PUSH2 0x1F5 JUMPI DUP10 DUP13 PUSH2 0x1470 SWAP3 DUP6 ADD ADD PUSH2 0x12C9 JUMP JUMPDEST DUP12 DUP6 ADD MSTORE DUP2 ADD CALLDATALOAD SWAP1 DUP7 DUP3 GT PUSH2 0x1F5 JUMPI ADD SWAP1 DUP8 PUSH1 0x3F DUP4 ADD SLT ISZERO PUSH2 0x1F5 JUMPI DUP10 SWAP3 PUSH2 0x14A0 DUP10 DUP5 DUP9 DUP8 DUP1 SWAP8 ADD CALLDATALOAD SWAP2 ADD PUSH2 0x1293 JUMP JUMPDEST DUP7 DUP3 ADD MSTORE DUP2 MSTORE ADD SWAP5 ADD SWAP4 PUSH2 0x1417 JUMP JUMPDEST DUP1 MLOAD DUP3 LT ISZERO PUSH2 0x14C3 JUMPI PUSH1 0x20 SWAP2 PUSH1 0x5 SHL ADD ADD SWAP1 JUMP JUMPDEST PUSH4 0x4E487B71 PUSH1 0xE0 SHL PUSH0 MSTORE PUSH1 0x32 PUSH1 0x4 MSTORE PUSH1 0x24 PUSH0 REVERT JUMPDEST SWAP2 SWAP1 DUP3 SUB SWAP2 DUP3 GT PUSH2 0x14E4 JUMPI JUMP JUMPDEST PUSH4 0x4E487B71 PUSH1 0xE0 SHL PUSH0 MSTORE PUSH1 0x11 PUSH1 0x4 MSTORE PUSH1 0x24 PUSH0 REVERT JUMPDEST SWAP2 SWAP1 DUP3 ADD DUP1 SWAP3 GT PUSH2 0x14E4 JUMPI JUMP JUMPDEST SWAP1 PUSH1 0x1 DUP1 PUSH1 0xA0 SHL SUB AND PUSH0 MSTORE PUSH1 0x20 SWAP1 PUSH1 0x5 DUP3 MSTORE PUSH1 0x40 PUSH0 KECCAK256 SWAP1 PUSH1 0x40 MLOAD SWAP2 PUSH2 0x1529 DUP4 PUSH2 0x1209 JUMP JUMPDEST SLOAD SWAP1 PUSH1 0xFF SWAP1 DUP2 DUP4 AND DUP5 MSTORE DUP5 DUP5 ADD DUP3 DUP5 PUSH1 0x8 SHR AND DUP2 MSTORE PUSH1 0x40 DUP6 ADD SWAP1 DUP4 DUP6 PUSH1 0x10 SHR AND DUP3 MSTORE PUSH1 0x60 DUP7 ADD SWAP3 DUP5 DUP7 PUSH1 0x18 SHR AND DUP5 MSTORE PUSH2 0x1578 PUSH2 0x62C PUSH4 0xFFFFFFFF SWAP3 DUP4 PUSH1 0x80 DUP12 ADD SWAP10 DUP13 SHR AND DUP10 MSTORE DUP11 DUP2 ADD SWAP1 PUSH2 0x1380 JUMP JUMPDEST SWAP8 PUSH0 SWAP9 PUSH0 JUMPDEST DUP2 MLOAD DUP2 LT ISZERO PUSH2 0x1708 JUMPI PUSH2 0x639 PUSH2 0x1593 DUP3 DUP5 PUSH2 0x14AF JUMP JUMPDEST MLOAD MLOAD EQ PUSH2 0x15A2 JUMPI PUSH1 0x1 ADD PUSH2 0x157D JUMP JUMPDEST DUP3 SWAP4 SWAP5 SWAP6 SWAP7 SWAP8 SWAP9 SWAP10 SWAP11 POP PUSH2 0x15B5 SWAP2 PUSH2 0x14AF JUMP JUMPDEST MLOAD ADD MLOAD DUP2 DUP2 DUP1 MLOAD DUP2 ADD SUB SLT PUSH2 0x1F5 JUMPI ADD MLOAD DUP1 PUSH1 0x1 SIGNEXTEND DUP2 SUB PUSH2 0x1F5 JUMPI SWAP6 JUMPDEST DUP2 DUP2 MLOAD AND ISZERO PUSH2 0x16F8 JUMPI PUSH3 0x15180 SWAP2 PUSH2 0x15EC SWAP2 MLOAD AND TIMESTAMP PUSH2 0x14D7 JUMP JUMPDEST DIV PUSH2 0xFFFF PUSH1 0x6 SLOAD PUSH1 0xA0 SHR AND SWAP1 DUP2 DUP2 GT PUSH0 EQ PUSH2 0x16B7 JUMPI POP POP DUP4 PUSH1 0x46 SWAP7 JUMPDEST MLOAD AND SWAP1 PUSH1 0x1E DUP3 MUL SWAP2 DUP1 DUP4 DIV PUSH1 0x1E EQ SWAP1 ISZERO OR ISZERO PUSH2 0x14E4 JUMPI DUP5 SWAP1 MLOAD AND SWAP1 PUSH1 0x19 DUP3 MUL SWAP2 DUP1 DUP4 DIV PUSH1 0x19 EQ SWAP1 ISZERO OR ISZERO PUSH2 0x14E4 JUMPI DUP5 SWAP2 PUSH2 0x1641 SWAP2 PUSH2 0x14F8 JUMP JUMPDEST SWAP2 MLOAD AND SWAP1 PUSH1 0x19 DUP3 MUL SWAP2 DUP1 DUP4 DIV PUSH1 0x19 EQ SWAP1 ISZERO OR ISZERO PUSH2 0x14E4 JUMPI DUP4 SWAP2 PUSH2 0x1663 SWAP2 PUSH2 0x14F8 JUMP JUMPDEST SWAP2 MLOAD AND SWAP1 PUSH1 0x14 DUP3 MUL SWAP2 DUP1 DUP4 DIV PUSH1 0x14 EQ SWAP1 ISZERO OR ISZERO PUSH2 0x14E4 JUMPI PUSH1 0x64 SWAP2 PUSH2 0x1686 SWAP2 PUSH2 0x14F8 JUMP JUMPDEST DIV DUP4 DUP2 MUL SWAP4 DUP2 DUP6 DIV EQ SWAP1 ISZERO OR ISZERO PUSH2 0x14E4 JUMPI PUSH1 0x64 PUSH2 0x12E4 SWAP4 DIV PUSH1 0x64 DUP2 GT PUSH0 EQ PUSH2 0x16B1 JUMPI POP POP PUSH1 0x64 PUSH2 0x1FC4 JUMP JUMPDEST AND PUSH2 0x1FC4 JUMP JUMPDEST PUSH1 0x1E DUP2 MUL SWAP1 DUP1 DUP3 DIV PUSH1 0x1E EQ SWAP1 ISZERO OR ISZERO PUSH2 0x14E4 JUMPI DUP2 ISZERO PUSH2 0x16E4 JUMPI DIV PUSH1 0x64 SUB PUSH1 0x64 DUP2 GT PUSH2 0x14E4 JUMPI DUP5 SWAP1 SWAP7 PUSH2 0x1608 JUMP JUMPDEST PUSH4 0x4E487B71 PUSH1 0xE0 SHL PUSH0 MSTORE PUSH1 0x12 PUSH1 0x4 MSTORE PUSH1 0x24 PUSH0 REVERT JUMPDEST POP POP POP POP POP POP PUSH2 0x12E4 SWAP2 POP PUSH2 0x1F98 JUMP JUMPDEST POP POP POP SWAP1 SWAP2 SWAP3 SWAP4 SWAP5 SWAP7 SWAP6 SWAP7 PUSH2 0x15D2 JUMP JUMPDEST ISZERO PUSH2 0x171F JUMPI JUMP JUMPDEST PUSH1 0x40 MLOAD PUSH3 0x461BCD PUSH1 0xE5 SHL DUP2 MSTORE PUSH1 0x20 PUSH1 0x4 DUP3 ADD MSTORE PUSH1 0x14 PUSH1 0x24 DUP3 ADD MSTORE PUSH20 0x496E76616C696420757365722061646472657373 PUSH1 0x60 SHL PUSH1 0x44 DUP3 ADD MSTORE PUSH1 0x64 SWAP1 REVERT JUMPDEST MLOAD SWAP1 DUP2 ISZERO ISZERO DUP3 SUB PUSH2 0x1F5 JUMPI JUMP JUMPDEST PUSH1 0x80 SWAP1 PUSH1 0x20 DUP2 MSTORE PUSH1 0x22 PUSH1 0x20 DUP3 ADD MSTORE PUSH32 0x5265717569726564206B65726E656C20726573706F6E7365206E6F7420666F75 PUSH1 0x40 DUP3 ADD MSTORE PUSH2 0x1B99 PUSH1 0xF2 SHL PUSH1 0x60 DUP3 ADD MSTORE ADD SWAP1 JUMP JUMPDEST PUSH1 0x1 DUP1 PUSH1 0xA0 SHL SUB AND PUSH0 MSTORE PUSH1 0x5 PUSH1 0x20 MSTORE PUSH1 0x80 PUSH1 0x40 PUSH0 KECCAK256 PUSH4 0xFFFFFFFF PUSH1 0x40 MLOAD SWAP2 PUSH2 0x17D2 DUP4 PUSH2 0x1209 JUMP JUMPDEST SLOAD PUSH1 0xFF DUP2 AND DUP4 MSTORE PUSH1 0xFF DUP2 PUSH1 0x8 SHR AND PUSH1 0x20 DUP5 ADD MSTORE PUSH1 0xFF DUP2 PUSH1 0x10 SHR AND PUSH1 0x40 DUP5 ADD MSTORE PUSH1 0xFF DUP2 PUSH1 0x18 SHR AND PUSH1 0x60 DUP5 ADD MSTORE PUSH1 0x20 SHR AND SWAP2 DUP3 SWAP2 ADD MSTORE DUP1 ISZERO PUSH2 0x183B JUMPI PUSH2 0x1816 SWAP1 TIMESTAMP PUSH2 0x14D7 JUMP JUMPDEST PUSH2 0xFFFF PUSH1 0x6 SLOAD PUSH1 0xA0 SHR AND SWAP1 PUSH3 0x15180 SWAP2 DUP3 DUP2 MUL SWAP3 DUP2 DUP5 DIV EQ SWAP1 ISZERO OR ISZERO PUSH2 0x14E4 JUMPI GT ISZERO SWAP1 JUMP JUMPDEST POP PUSH0 SWAP1 JUMP JUMPDEST CALLER PUSH0 SWAP1 DUP2 MSTORE PUSH32 0xC9A1C8E58C7D7912DC1B4CEE052922E868FA25BE8A43F877E35CF2671142679A PUSH1 0x20 MSTORE PUSH1 0x40 SWAP1 KECCAK256 SLOAD PUSH32 0xB19546DFF01E856FB3F010C267A7B1C60363CF8A4664E21CC89C26224620214E SWAP1 PUSH1 0xFF AND ISZERO PUSH2 0x189B JUMPI POP JUMP JUMPDEST PUSH1 0x44 SWAP1 PUSH1 0x40 MLOAD SWAP1 PUSH4 0xE2517D3F PUSH1 0xE0 SHL DUP3 MSTORE CALLER PUSH1 0x4 DUP4 ADD MSTORE PUSH1 0x24 DUP3 ADD MSTORE REVERT JUMPDEST CALLER PUSH0 SWAP1 DUP2 MSTORE PUSH32 0x705976D2A2C155A0B54CA0C2B7CABC2010840E9A89B81ADEBC8B7B790B76D295 PUSH1 0x20 MSTORE PUSH1 0x40 SWAP1 KECCAK256 SLOAD PUSH0 DUP1 MLOAD PUSH1 0x20 PUSH2 0x21C3 DUP4 CODECOPY DUP2 MLOAD SWAP2 MSTORE SWAP1 PUSH1 0xFF AND ISZERO PUSH2 0x189B JUMPI POP JUMP JUMPDEST DUP1 PUSH0 MSTORE PUSH1 0x3 PUSH1 0x20 MSTORE PUSH1 0x40 PUSH0 KECCAK256 CALLER PUSH0 MSTORE PUSH1 0x20 MSTORE PUSH1 0xFF PUSH1 0x40 PUSH0 KECCAK256 SLOAD AND ISZERO PUSH2 0x189B JUMPI POP JUMP JUMPDEST PUSH1 0x1 PUSH1 0x1 PUSH1 0xA0 SHL SUB AND PUSH0 DUP2 DUP2 MSTORE PUSH32 0x61E53637BC4201C644575AC8AAB0F703A65D4957C5224CAFA45B5B603DCAC6D6 PUSH1 0x20 MSTORE PUSH1 0x40 SWAP1 KECCAK256 SLOAD PUSH32 0xD565E3FC066DF348A5CBC05A8D6323E00552838041CEA2D84CC59876BA37735D SWAP2 SWAP1 PUSH1 0xFF AND PUSH2 0x19CF JUMPI DUP2 PUSH0 MSTORE PUSH1 0x3 PUSH1 0x20 MSTORE PUSH1 0x40 PUSH0 KECCAK256 DUP2 PUSH0 MSTORE PUSH1 0x20 MSTORE PUSH1 0x40 PUSH0 KECCAK256 PUSH1 0x1 PUSH1 0xFF NOT DUP3 SLOAD AND OR SWAP1 SSTORE CALLER SWAP2 PUSH32 0x2F8788117E7EFF1D82E926EC794901D17C78024A50270940304540A733656F0D PUSH0 DUP1 LOG4 PUSH1 0x1 SWAP1 JUMP JUMPDEST POP POP PUSH0 SWAP1 JUMP JUMPDEST PUSH1 0x1 PUSH1 0x1 PUSH1 0xA0 SHL SUB AND PUSH0 DUP2 DUP2 MSTORE PUSH32 0x705976D2A2C155A0B54CA0C2B7CABC2010840E9A89B81ADEBC8B7B790B76D295 PUSH1 0x20 MSTORE PUSH1 0x40 SWAP1 KECCAK256 SLOAD PUSH0 DUP1 MLOAD PUSH1 0x20 PUSH2 0x21C3 DUP4 CODECOPY DUP2 MLOAD SWAP2 MSTORE SWAP2 SWAP1 PUSH1 0xFF AND PUSH2 0x19CF JUMPI DUP2 PUSH0 MSTORE PUSH1 0x3 PUSH1 0x20 MSTORE PUSH1 0x40 PUSH0 KECCAK256 DUP2 PUSH0 MSTORE PUSH1 0x20 MSTORE PUSH1 0x40 PUSH0 KECCAK256 PUSH1 0x1 PUSH1 0xFF NOT DUP3 SLOAD AND OR SWAP1 SSTORE CALLER SWAP2 PUSH32 0x2F8788117E7EFF1D82E926EC794901D17C78024A50270940304540A733656F0D PUSH0 DUP1 LOG4 PUSH1 0x1 SWAP1 JUMP JUMPDEST SWAP1 DUP2 PUSH0 MSTORE PUSH1 0x3 PUSH1 0x20 MSTORE PUSH1 0x40 PUSH0 KECCAK256 SWAP1 PUSH1 0x1 DUP1 PUSH1 0xA0 SHL SUB AND SWAP1 DUP2 PUSH0 MSTORE PUSH1 0x20 MSTORE PUSH1 0xFF PUSH1 0x40 PUSH0 KECCAK256 SLOAD AND ISZERO PUSH0 EQ PUSH2 0x19CF JUMPI DUP2 PUSH0 MSTORE PUSH1 0x3 PUSH1 0x20 MSTORE PUSH1 0x40 PUSH0 KECCAK256 DUP2 PUSH0 MSTORE PUSH1 0x20 MSTORE PUSH1 0x40 PUSH0 KECCAK256 PUSH1 0x1 PUSH1 0xFF NOT DUP3 SLOAD AND OR SWAP1 SSTORE CALLER SWAP2 PUSH32 0x2F8788117E7EFF1D82E926EC794901D17C78024A50270940304540A733656F0D PUSH0 DUP1 LOG4 PUSH1 0x1 SWAP1 JUMP JUMPDEST PUSH1 0x1 PUSH1 0x1 PUSH1 0xA0 SHL SUB AND PUSH0 DUP2 DUP2 MSTORE PUSH32 0x61E53637BC4201C644575AC8AAB0F703A65D4957C5224CAFA45B5B603DCAC6D6 PUSH1 0x20 MSTORE PUSH1 0x40 SWAP1 KECCAK256 SLOAD PUSH32 0xD565E3FC066DF348A5CBC05A8D6323E00552838041CEA2D84CC59876BA37735D SWAP2 SWAP1 PUSH1 0xFF AND ISZERO PUSH2 0x19CF JUMPI DUP2 PUSH0 MSTORE PUSH1 0x3 PUSH1 0x20 MSTORE PUSH1 0x40 PUSH0 KECCAK256 DUP2 PUSH0 MSTORE PUSH1 0x20 MSTORE PUSH1 0x40 PUSH0 KECCAK256 PUSH1 0xFF NOT DUP2 SLOAD AND SWAP1 SSTORE CALLER SWAP2 PUSH32 0xF6391F5C32D9C69D2A47EA670B442974B53935D1EDC7FD64EB21E047A839171B PUSH0 DUP1 LOG4 PUSH1 0x1 SWAP1 JUMP JUMPDEST PUSH1 0x1 PUSH1 0x1 PUSH1 0xA0 SHL SUB AND PUSH0 DUP2 DUP2 MSTORE PUSH32 0x705976D2A2C155A0B54CA0C2B7CABC2010840E9A89B81ADEBC8B7B790B76D295 PUSH1 0x20 MSTORE PUSH1 0x40 SWAP1 KECCAK256 SLOAD PUSH0 DUP1 MLOAD PUSH1 0x20 PUSH2 0x21C3 DUP4 CODECOPY DUP2 MLOAD SWAP2 MSTORE SWAP2 SWAP1 PUSH1 0xFF AND ISZERO PUSH2 0x19CF JUMPI DUP2 PUSH0 MSTORE PUSH1 0x3 PUSH1 0x20 MSTORE PUSH1 0x40 PUSH0 KECCAK256 DUP2 PUSH0 MSTORE PUSH1 0x20 MSTORE PUSH1 0x40 PUSH0 KECCAK256 PUSH1 0xFF NOT DUP2 SLOAD AND SWAP1 SSTORE CALLER SWAP2 PUSH32 0xF6391F5C32D9C69D2A47EA670B442974B53935D1EDC7FD64EB21E047A839171B PUSH0 DUP1 LOG4 PUSH1 0x1 SWAP1 JUMP JUMPDEST SWAP1 DUP2 PUSH0 MSTORE PUSH1 0x3 PUSH1 0x20 MSTORE PUSH1 0x40 PUSH0 KECCAK256 SWAP1 PUSH1 0x1 DUP1 PUSH1 0xA0 SHL SUB AND SWAP1 DUP2 PUSH0 MSTORE PUSH1 0x20 MSTORE PUSH1 0xFF PUSH1 0x40 PUSH0 KECCAK256 SLOAD AND PUSH0 EQ PUSH2 0x19CF JUMPI DUP2 PUSH0 MSTORE PUSH1 0x3 PUSH1 0x20 MSTORE PUSH1 0x40 PUSH0 KECCAK256 DUP2 PUSH0 MSTORE PUSH1 0x20 MSTORE PUSH1 0x40 PUSH0 KECCAK256 PUSH1 0xFF NOT DUP2 SLOAD AND SWAP1 SSTORE CALLER SWAP2 PUSH32 0xF6391F5C32D9C69D2A47EA670B442974B53935D1EDC7FD64EB21E047A839171B PUSH0 DUP1 LOG4 PUSH1 0x1 SWAP1 JUMP JUMPDEST DUP2 PUSH1 0x1F DUP3 ADD SLT ISZERO PUSH2 0x1F5 JUMPI DUP1 MLOAD PUSH2 0x1CB1 DUP2 PUSH2 0x1277 JUMP JUMPDEST SWAP3 PUSH2 0x1CBF PUSH1 0x40 MLOAD SWAP5 DUP6 PUSH2 0x1255 JUMP JUMPDEST DUP2 DUP5 MSTORE PUSH1 0x20 DUP3 DUP5 ADD ADD GT PUSH2 0x1F5 JUMPI PUSH2 0x12E4 SWAP2 PUSH1 0x20 DUP1 DUP6 ADD SWAP2 ADD PUSH2 0x12E7 JUMP JUMPDEST PUSH1 0x20 SWAP1 PUSH2 0x1CF3 PUSH1 0x14 SWAP5 SWAP4 DUP3 DUP2 MLOAD SWAP5 DUP6 SWAP3 ADD PUSH2 0x12E7 JUMP JUMPDEST ADD SWAP1 PUSH12 0xFFFFFFFFFFFFFFFFFFFFFFFF NOT SWAP1 PUSH1 0x60 SHL AND DUP2 MSTORE ADD SWAP1 JUMP JUMPDEST SWAP1 DUP2 MLOAD SWAP2 DUP3 MLOAD SWAP3 PUSH1 0x20 SWAP4 DUP2 ADD SWAP3 PUSH1 0xA0 DUP3 DUP7 DUP7 ADD SWAP6 SUB SLT PUSH2 0x1F5 JUMPI DUP5 DUP3 ADD MLOAD SWAP4 PUSH8 0xFFFFFFFFFFFFFFFF SWAP5 DUP6 DUP2 GT PUSH2 0x1F5 JUMPI DUP2 DUP8 PUSH2 0x1D4C SWAP3 DUP7 ADD ADD PUSH2 0x1C9B JUMP JUMPDEST PUSH1 0x40 SWAP6 DUP7 DUP6 ADD MLOAD SWAP3 PUSH1 0x60 DUP7 ADD MLOAD SWAP2 DUP3 GT PUSH2 0x1F5 JUMPI DUP9 PUSH2 0x1D6D SWAP3 DUP8 ADD ADD PUSH2 0x1C9B JUMP JUMPDEST SWAP4 PUSH2 0x1D7F PUSH1 0xA0 PUSH1 0x80 DUP4 ADD MLOAD SWAP3 ADD PUSH2 0x175B JUMP JUMPDEST ISZERO SWAP2 DUP3 PUSH2 0x1F5B JUMPI SWAP1 PUSH2 0x1DAA PUSH2 0x1DC6 PUSH2 0x1DCF SWAP8 SWAP7 SWAP6 SWAP5 SWAP4 DUP12 DUP11 ADD MLOAD DUP13 DUP13 MLOAD SWAP5 DUP6 SWAP2 DUP3 ADD SWAP3 CALLER SWAP1 DUP5 PUSH2 0x1CDD JUMP JUMPDEST SUB SWAP4 PUSH2 0x1DBE PUSH1 0x1F NOT SWAP6 DUP7 DUP2 ADD DUP4 MSTORE DUP3 PUSH2 0x1255 JUMP JUMPDEST MLOAD SWAP1 KECCAK256 PUSH2 0x2078 JUMP JUMPDEST SWAP1 SWAP9 SWAP2 SWAP9 PUSH2 0x20B2 JUMP JUMPDEST PUSH1 0x1 SLOAD PUSH1 0x1 PUSH1 0x1 PUSH1 0xA0 SHL SUB SWAP1 DUP2 AND SWAP9 SWAP1 SWAP8 DUP9 AND DUP10 SWAP1 SUB PUSH2 0x1F08 JUMPI SWAP1 PUSH2 0x1E07 PUSH2 0x1E13 DUP12 DUP8 SWAP5 ADD MLOAD SWAP3 DUP14 DUP14 MLOAD SWAP4 DUP5 SWAP2 DUP3 ADD SWAP6 CALLER SWAP1 DUP8 PUSH2 0x1CDD JUMP JUMPDEST SUB SWAP1 DUP2 ADD DUP4 MSTORE DUP3 PUSH2 0x1255 JUMP JUMPDEST MLOAD SWAP1 KECCAK256 SWAP5 DUP11 DUP2 MLOAD SWAP2 ADD KECCAK256 SWAP5 SUB PUSH2 0x1EC4 JUMPI SWAP2 PUSH2 0x1E5F SWAP4 SWAP2 PUSH2 0x1E68 SWAP6 SWAP4 DUP10 MLOAD SWAP3 DUP12 DUP5 ADD SWAP5 DUP6 MSTORE DUP11 DUP5 ADD MSTORE CALLER PUSH1 0x60 SHL PUSH1 0x60 DUP5 ADD MSTORE PUSH1 0x74 DUP4 ADD MSTORE ISZERO PUSH1 0xF8 SHL PUSH1 0x94 DUP3 ADD MSTORE PUSH1 0x75 DUP2 MSTORE PUSH2 0x1DBE DUP2 PUSH2 0x1209 JUMP JUMPDEST SWAP1 SWAP3 SWAP2 SWAP3 PUSH2 0x20B2 JUMP JUMPDEST AND SUB PUSH2 0x1E75 JUMPI POP POP PUSH1 0x1 SWAP1 JUMP JUMPDEST PUSH1 0x84 SWAP3 POP MLOAD SWAP1 PUSH3 0x461BCD PUSH1 0xE5 SHL DUP3 MSTORE PUSH1 0x4 DUP3 ADD MSTORE PUSH1 0x23 PUSH1 0x24 DUP3 ADD MSTORE PUSH32 0x496E76616C6964207369676E617475726520666F722066756E6374696F6E2063 PUSH1 0x44 DUP3 ADD MSTORE PUSH3 0x185B1B PUSH1 0xEA SHL PUSH1 0x64 DUP3 ADD MSTORE REVERT JUMPDEST DUP8 MLOAD PUSH3 0x461BCD PUSH1 0xE5 SHL DUP2 MSTORE PUSH1 0x4 DUP2 ADD DUP11 SWAP1 MSTORE PUSH1 0x1C PUSH1 0x24 DUP3 ADD MSTORE PUSH32 0x496E76616C6964206B65726E656C20706172616D732064696765737400000000 PUSH1 0x44 DUP3 ADD MSTORE PUSH1 0x64 SWAP1 REVERT JUMPDEST DUP10 MLOAD PUSH3 0x461BCD PUSH1 0xE5 SHL DUP2 MSTORE PUSH1 0x4 DUP2 ADD DUP13 SWAP1 MSTORE PUSH1 0x26 PUSH1 0x24 DUP3 ADD MSTORE PUSH32 0x496E76616C6964207369676E617475726520666F72206B65726E656C20726573 PUSH1 0x44 DUP3 ADD MSTORE PUSH6 0x706F6E736573 PUSH1 0xD0 SHL PUSH1 0x64 DUP3 ADD MSTORE PUSH1 0x84 SWAP1 REVERT JUMPDEST DUP8 MLOAD PUSH3 0x461BCD PUSH1 0xE5 SHL DUP2 MSTORE PUSH1 0x4 DUP2 ADD DUP11 SWAP1 MSTORE PUSH1 0x16 PUSH1 0x24 DUP3 ADD MSTORE PUSH22 0x119A5B985B081BDC1A5B9A5BDB881C995D995C9D1959 PUSH1 0x52 SHL PUSH1 0x44 DUP3 ADD MSTORE PUSH1 0x64 SWAP1 REVERT JUMPDEST PUSH1 0x1 SIGNEXTEND DUP1 PUSH1 0x1E ADD SWAP1 DUP2 SLT PUSH1 0x1 AND PUSH2 0x14E4 JUMPI PUSH0 DUP2 SLT PUSH2 0x183B JUMPI PUSH1 0x64 DUP2 SGT PUSH2 0x1FBE JUMPI PUSH1 0xFF AND SWAP1 JUMP JUMPDEST POP PUSH1 0x64 SWAP1 JUMP JUMPDEST PUSH1 0xFF AND SWAP1 PUSH1 0x1 SIGNEXTEND SWAP1 PUSH0 DUP3 DUP3 ADD SWAP3 DUP4 SLT SWAP2 SLT SWAP1 DUP1 ISZERO DUP3 AND SWAP2 ISZERO AND OR PUSH2 0x14E4 JUMPI PUSH0 DUP2 SLT PUSH2 0x183B JUMPI PUSH1 0x64 DUP2 SGT PUSH2 0x1FBE JUMPI PUSH1 0xFF AND SWAP1 JUMP JUMPDEST PUSH1 0x2 PUSH1 0x4 SLOAD EQ PUSH2 0x2008 JUMPI PUSH1 0x2 PUSH1 0x4 SSTORE JUMP JUMPDEST PUSH1 0x40 MLOAD PUSH3 0x461BCD PUSH1 0xE5 SHL DUP2 MSTORE PUSH1 0x20 PUSH1 0x4 DUP3 ADD MSTORE PUSH1 0x1F PUSH1 0x24 DUP3 ADD MSTORE PUSH32 0x5265656E7472616E637947756172643A207265656E7472616E742063616C6C00 PUSH1 0x44 DUP3 ADD MSTORE PUSH1 0x64 SWAP1 REVERT JUMPDEST PUSH0 SLOAD PUSH1 0x1 PUSH1 0x1 PUSH1 0xA0 SHL SUB AND CALLER SUB PUSH2 0x2060 JUMPI JUMP JUMPDEST PUSH1 0x40 MLOAD PUSH4 0x118CDAA7 PUSH1 0xE0 SHL DUP2 MSTORE CALLER PUSH1 0x4 DUP3 ADD MSTORE PUSH1 0x24 SWAP1 REVERT JUMPDEST DUP2 MLOAD SWAP2 SWAP1 PUSH1 0x41 DUP4 SUB PUSH2 0x20A8 JUMPI PUSH2 0x20A1 SWAP3 POP PUSH1 0x20 DUP3 ADD MLOAD SWAP1 PUSH1 0x60 PUSH1 0x40 DUP5 ADD MLOAD SWAP4 ADD MLOAD PUSH0 BYTE SWAP1 PUSH2 0x2135 JUMP JUMPDEST SWAP2 SWAP3 SWAP1 SWAP2 SWAP1 JUMP JUMPDEST POP POP PUSH0 SWAP2 PUSH1 0x2 SWAP2 SWAP1 JUMP JUMPDEST PUSH1 0x4 DUP2 LT ISZERO PUSH2 0x2121 JUMPI DUP1 PUSH2 0x20C4 JUMPI POP POP JUMP JUMPDEST PUSH1 0x1 DUP2 SUB PUSH2 0x20DE JUMPI PUSH1 0x40 MLOAD PUSH4 0xF645EEDF PUSH1 0xE0 SHL DUP2 MSTORE PUSH1 0x4 SWAP1 REVERT JUMPDEST PUSH1 0x2 DUP2 SUB PUSH2 0x20FF JUMPI PUSH1 0x40 MLOAD PUSH4 0xFCE698F7 PUSH1 0xE0 SHL DUP2 MSTORE PUSH1 0x4 DUP2 ADD DUP4 SWAP1 MSTORE PUSH1 0x24 SWAP1 REVERT JUMPDEST PUSH1 0x3 EQ PUSH2 0x2109 JUMPI POP JUMP JUMPDEST PUSH1 0x24 SWAP1 PUSH1 0x40 MLOAD SWAP1 PUSH4 0x35E2F383 PUSH1 0xE2 SHL DUP3 MSTORE PUSH1 0x4 DUP3 ADD MSTORE REVERT JUMPDEST PUSH4 0x4E487B71 PUSH1 0xE0 SHL PUSH0 MSTORE PUSH1 0x21 PUSH1 0x4 MSTORE PUSH1 0x24 PUSH0 REVERT JUMPDEST SWAP2 SWAP1 PUSH32 0x7FFFFFFFFFFFFFFFFFFFFFFFFFFFFFFF5D576E7357A4501DDFE92F46681B20A0 DUP5 GT PUSH2 0x21B7 JUMPI SWAP2 PUSH1 0x20 SWAP4 PUSH1 0x80 SWAP3 PUSH1 0xFF PUSH0 SWAP6 PUSH1 0x40 MLOAD SWAP5 DUP6 MSTORE AND DUP7 DUP5 ADD MSTORE PUSH1 0x40 DUP4 ADD MSTORE PUSH1 0x60 DUP3 ADD MSTORE DUP3 DUP1 MSTORE PUSH1 0x1 GAS STATICCALL ISZERO PUSH2 0x21AC JUMPI PUSH0 MLOAD PUSH1 0x1 PUSH1 0x1 PUSH1 0xA0 SHL SUB DUP2 AND ISZERO PUSH2 0x21A2 JUMPI SWAP1 PUSH0 SWAP1 PUSH0 SWAP1 JUMP JUMPDEST POP PUSH0 SWAP1 PUSH1 0x1 SWAP1 PUSH0 SWAP1 JUMP JUMPDEST PUSH1 0x40 MLOAD RETURNDATASIZE PUSH0 DUP3 RETURNDATACOPY RETURNDATASIZE SWAP1 REVERT JUMPDEST POP POP POP PUSH0 SWAP2 PUSH1 0x3 SWAP2 SWAP1 JUMP INVALID PUSH20 0xE573F9566D61418A34D5DE3FF49360F9C51FEC37 0xF7 BASEFEE PUSH6 0x51670290F628 TSTORE 0xAB LOG2 PUSH5 0x6970667358 0x22 SLT KECCAK256 0x29 0x23 OR 0x1E SWAP12 DUP11 SELFBALANCE RETURNDATACOPY SWAP9 JUMPDEST 0xC9 SHR DUP4 0x24 STATICCALL SSTORE 0x2D 0x22 PUSH32 0xAA51CA3EE3C89F8AC8B543DB2D64736F6C634300081800332F8788117E7EFF1D DUP3 0xE9 0x26 0xEC PUSH26 0x4901D17C78024A50270940304540A733656F0D3617319A054D77 0x2F SWAP1 SWAP16 PUSH29 0x479A2CEBE5066E836A939412E32403C99029B92EFF0000000000000000 "
		},
		"gasEstimates": {
			"creation": {
				"codeDepositCost": "1745600",
				"executionCost": "infinite",
				"totalCost": "infinite"
			},
			"external": {
				"ALLOCATION_KERNEL_ID()": "187",
				"AUTHORITY_ROLE()": "319",
				"DEFAULT_ADMIN_ROLE()": "648",
				"OWNER_ROLE()": "737",
				"UPDATER_ROLE()": "329",
				"addAuthorizedUpdater(address)": "infinite",
				"areMetricsFresh(address)": "5275",
				"emergencyWithdraw(address)": "infinite",
				"executed(bytes)": "infinite",
				"getRecommendedTokenAllocation((bytes,bytes,bytes),address)": "infinite",
				"getRoleAdmin(bytes32)": "2383",
				"getUserDetailedMetrics(address)": "3340",
				"grantRole(bytes32,address)": "33272",
				"hasRole(bytes32,address)": "2962",
				"owner()": "2687",
				"removeAuthorizedUpdater(address)": "infinite",
				"renounceOwnership()": "28367",
				"renounceRole(bytes32,address)": "28887",
				"revokeRole(bytes32,address)": "33747",
				"setStaleThreshold(uint16)": "28135",
				"setStudyDAOAuthority(address)": "87162",
				"setTokenAuthorityPublicKey(address)": "27149",
				"staleDaysThreshold()": "2811",
				"studyDAOAuthority()": "2556",
				"supportsInterface(bytes4)": "279",
				"tokenAuthorityPublicKey()": "2468",
				"transferOwnership(address)": "28762",
				"updateSingleMetricProtected((bytes,bytes,bytes),address,uint8,uint8)": "infinite",
				"updateUserMetricsProtected((bytes,bytes,bytes),address,uint8,uint8,uint8,uint8)": "infinite"
			},
			"internal": {
				"applyAdjustment(uint8,int16)": "147"
			}
		},
		"methodIdentifiers": {
			"ALLOCATION_KERNEL_ID()": "188301bd",
			"AUTHORITY_ROLE()": "4a3fba0e",
			"DEFAULT_ADMIN_ROLE()": "a217fddf",
			"OWNER_ROLE()": "e58378bb",
			"UPDATER_ROLE()": "47e63380",
			"addAuthorizedUpdater(address)": "8c9b9fdc",
			"areMetricsFresh(address)": "87bc50a5",
			"emergencyWithdraw(address)": "6ff1c9bc",
			"executed(bytes)": "909dd263",
			"getRecommendedTokenAllocation((bytes,bytes,bytes),address)": "3bfd28e8",
			"getRoleAdmin(bytes32)": "248a9ca3",
			"getUserDetailedMetrics(address)": "f6ac8558",
			"grantRole(bytes32,address)": "2f2ff15d",
			"hasRole(bytes32,address)": "91d14854",
			"owner()": "8da5cb5b",
			"removeAuthorizedUpdater(address)": "603cda09",
			"renounceOwnership()": "715018a6",
			"renounceRole(bytes32,address)": "36568abe",
			"revokeRole(bytes32,address)": "d547741f",
			"setStaleThreshold(uint16)": "8ec64591",
			"setStudyDAOAuthority(address)": "5f1076bb",
			"setTokenAuthorityPublicKey(address)": "d213d86b",
			"staleDaysThreshold()": "d4fdcbec",
			"studyDAOAuthority()": "6ad16934",
			"supportsInterface(bytes4)": "01ffc9a7",
			"tokenAuthorityPublicKey()": "4ba1cfe4",
			"transferOwnership(address)": "f2fde38b",
			"updateSingleMetricProtected((bytes,bytes,bytes),address,uint8,uint8)": "617ea8fb",
			"updateUserMetricsProtected((bytes,bytes,bytes),address,uint8,uint8,uint8,uint8)": "8d1e6b44"
		}
	},
	"abi": [
		{
			"inputs": [
				{
					"internalType": "address",
					"name": "_tokenAuthorityPublicKey",
					"type": "address"
				}
			],
			"stateMutability": "nonpayable",
			"type": "constructor"
		},
		{
			"inputs": [],
			"name": "AccessControlBadConfirmation",
			"type": "error"
		},
		{
			"inputs": [
				{
					"internalType": "address",
					"name": "account",
					"type": "address"
				},
				{
					"internalType": "bytes32",
					"name": "neededRole",
					"type": "bytes32"
				}
			],
			"name": "AccessControlUnauthorizedAccount",
			"type": "error"
		},
		{
			"inputs": [],
			"name": "ECDSAInvalidSignature",
			"type": "error"
		},
		{
			"inputs": [
				{
					"internalType": "uint256",
					"name": "length",
					"type": "uint256"
				}
			],
			"name": "ECDSAInvalidSignatureLength",
			"type": "error"
		},
		{
			"inputs": [
				{
					"internalType": "bytes32",
					"name": "s",
					"type": "bytes32"
				}
			],
			"name": "ECDSAInvalidSignatureS",
			"type": "error"
		},
		{
			"inputs": [
				{
					"internalType": "address",
					"name": "owner",
					"type": "address"
				}
			],
			"name": "OwnableInvalidOwner",
			"type": "error"
		},
		{
			"inputs": [
				{
					"internalType": "address",
					"name": "account",
					"type": "address"
				}
			],
			"name": "OwnableUnauthorizedAccount",
			"type": "error"
		},
		{
			"inputs": [],
			"name": "UnauthorizedTransaction",
			"type": "error"
		},
		{
			"anonymous": false,
			"inputs": [
				{
					"indexed": true,
					"internalType": "address",
					"name": "user",
					"type": "address"
				},
				{
					"indexed": false,
					"internalType": "uint8",
					"name": "allocation",
					"type": "uint8"
				}
			],
			"name": "AllocationRecommended",
			"type": "event"
		},
		{
			"anonymous": false,
			"inputs": [
				{
					"indexed": true,
					"internalType": "address",
					"name": "newAuthority",
					"type": "address"
				}
			],
			"name": "AuthorityUpdated",
			"type": "event"
		},
		{
			"anonymous": false,
			"inputs": [
				{
					"indexed": true,
					"internalType": "address",
					"name": "user",
					"type": "address"
				},
				{
					"indexed": false,
					"internalType": "uint8",
					"name": "participation",
					"type": "uint8"
				},
				{
					"indexed": false,
					"internalType": "uint8",
					"name": "contribution",
					"type": "uint8"
				},
				{
					"indexed": false,
					"internalType": "uint8",
					"name": "consistency",
					"type": "uint8"
				},
				{
					"indexed": false,
					"internalType": "uint8",
					"name": "tokenUtilization",
					"type": "uint8"
				}
			],
			"name": "FullMetricsUpdated",
			"type": "event"
		},
		{
			"anonymous": false,
			"inputs": [
				{
					"indexed": true,
					"internalType": "address",
					"name": "user",
					"type": "address"
				},
				{
					"indexed": false,
					"internalType": "uint8",
					"name": "metricType",
					"type": "uint8"
				},
				{
					"indexed": false,
					"internalType": "uint8",
					"name": "newValue",
					"type": "uint8"
				}
			],
			"name": "MetricsUpdated",
			"type": "event"
		},
		{
			"anonymous": false,
			"inputs": [
				{
					"indexed": true,
					"internalType": "address",
					"name": "previousOwner",
					"type": "address"
				},
				{
					"indexed": true,
					"internalType": "address",
					"name": "newOwner",
					"type": "address"
				}
			],
			"name": "OwnershipTransferred",
			"type": "event"
		},
		{
			"anonymous": false,
			"inputs": [
				{
					"indexed": true,
					"internalType": "bytes32",
					"name": "role",
					"type": "bytes32"
				},
				{
					"indexed": true,
					"internalType": "bytes32",
					"name": "previousAdminRole",
					"type": "bytes32"
				},
				{
					"indexed": true,
					"internalType": "bytes32",
					"name": "newAdminRole",
					"type": "bytes32"
				}
			],
			"name": "RoleAdminChanged",
			"type": "event"
		},
		{
			"anonymous": false,
			"inputs": [
				{
					"indexed": true,
					"internalType": "bytes32",
					"name": "role",
					"type": "bytes32"
				},
				{
					"indexed": true,
					"internalType": "address",
					"name": "account",
					"type": "address"
				},
				{
					"indexed": true,
					"internalType": "address",
					"name": "sender",
					"type": "address"
				}
			],
			"name": "RoleGranted",
			"type": "event"
		},
		{
			"anonymous": false,
			"inputs": [
				{
					"indexed": true,
					"internalType": "bytes32",
					"name": "role",
					"type": "bytes32"
				},
				{
					"indexed": true,
					"internalType": "address",
					"name": "account",
					"type": "address"
				},
				{
					"indexed": true,
					"internalType": "address",
					"name": "sender",
					"type": "address"
				}
			],
			"name": "RoleRevoked",
			"type": "event"
		},
		{
			"anonymous": false,
			"inputs": [
				{
					"indexed": true,
					"internalType": "address",
					"name": "account",
					"type": "address"
				},
				{
					"indexed": true,
					"internalType": "bytes32",
					"name": "role",
					"type": "bytes32"
				},
				{
					"indexed": false,
					"internalType": "bool",
					"name": "hasRole",
					"type": "bool"
				}
			],
			"name": "RoleUpdated",
			"type": "event"
		},
		{
			"anonymous": false,
			"inputs": [
				{
					"indexed": false,
					"internalType": "uint16",
					"name": "newDaysThreshold",
					"type": "uint16"
				}
			],
			"name": "StaleThresholdUpdated",
			"type": "event"
		},
		{
			"inputs": [],
			"name": "ALLOCATION_KERNEL_ID",
			"outputs": [
				{
					"internalType": "uint256",
					"name": "",
					"type": "uint256"
				}
			],
			"stateMutability": "view",
			"type": "function"
		},
		{
			"inputs": [],
			"name": "AUTHORITY_ROLE",
			"outputs": [
				{
					"internalType": "bytes32",
					"name": "",
					"type": "bytes32"
				}
			],
			"stateMutability": "view",
			"type": "function"
		},
		{
			"inputs": [],
			"name": "DEFAULT_ADMIN_ROLE",
			"outputs": [
				{
					"internalType": "bytes32",
					"name": "",
					"type": "bytes32"
				}
			],
			"stateMutability": "view",
			"type": "function"
		},
		{
			"inputs": [],
			"name": "OWNER_ROLE",
			"outputs": [
				{
					"internalType": "bytes32",
					"name": "",
					"type": "bytes32"
				}
			],
			"stateMutability": "view",
			"type": "function"
		},
		{
			"inputs": [],
			"name": "UPDATER_ROLE",
			"outputs": [
				{
					"internalType": "bytes32",
					"name": "",
					"type": "bytes32"
				}
			],
			"stateMutability": "view",
			"type": "function"
		},
		{
			"inputs": [
				{
					"internalType": "address",
					"name": "updater",
					"type": "address"
				}
			],
			"name": "addAuthorizedUpdater",
			"outputs": [],
			"stateMutability": "nonpayable",
			"type": "function"
		},
		{
			"inputs": [
				{
					"internalType": "address",
					"name": "user",
					"type": "address"
				}
			],
			"name": "areMetricsFresh",
			"outputs": [
				{
					"internalType": "bool",
					"name": "",
					"type": "bool"
				}
			],
			"stateMutability": "view",
			"type": "function"
		},
		{
			"inputs": [
				{
					"internalType": "address payable",
					"name": "recipient",
					"type": "address"
				}
			],
			"name": "emergencyWithdraw",
			"outputs": [],
			"stateMutability": "nonpayable",
			"type": "function"
		},
		{
			"inputs": [
				{
					"internalType": "bytes",
					"name": "",
					"type": "bytes"
				}
			],
			"name": "executed",
			"outputs": [
				{
					"internalType": "bool",
					"name": "",
					"type": "bool"
				}
			],
			"stateMutability": "view",
			"type": "function"
		},
		{
			"inputs": [
				{
					"components": [
						{
							"internalType": "bytes",
							"name": "auth",
							"type": "bytes"
						},
						{
							"internalType": "bytes",
							"name": "kernelResponses",
							"type": "bytes"
						},
						{
							"internalType": "bytes",
							"name": "kernelParams",
							"type": "bytes"
						}
					],
					"internalType": "struct KrnlPayload",
					"name": "krnlPayload",
					"type": "tuple"
				},
				{
					"internalType": "address",
					"name": "user",
					"type": "address"
				}
			],
			"name": "getRecommendedTokenAllocation",
			"outputs": [
				{
					"internalType": "uint8",
					"name": "",
					"type": "uint8"
				}
			],
			"stateMutability": "view",
			"type": "function"
		},
		{
			"inputs": [
				{
					"internalType": "bytes32",
					"name": "role",
					"type": "bytes32"
				}
			],
			"name": "getRoleAdmin",
			"outputs": [
				{
					"internalType": "bytes32",
					"name": "",
					"type": "bytes32"
				}
			],
			"stateMutability": "view",
			"type": "function"
		},
		{
			"inputs": [
				{
					"internalType": "address",
					"name": "user",
					"type": "address"
				}
			],
			"name": "getUserDetailedMetrics",
			"outputs": [
				{
					"internalType": "uint8",
					"name": "participation",
					"type": "uint8"
				},
				{
					"internalType": "uint8",
					"name": "contribution",
					"type": "uint8"
				},
				{
					"internalType": "uint8",
					"name": "consistency",
					"type": "uint8"
				},
				{
					"internalType": "uint8",
					"name": "tokenUtilization",
					"type": "uint8"
				},
				{
					"internalType": "uint32",
					"name": "lastUpdateTime",
					"type": "uint32"
				}
			],
			"stateMutability": "view",
			"type": "function"
		},
		{
			"inputs": [
				{
					"internalType": "bytes32",
					"name": "role",
					"type": "bytes32"
				},
				{
					"internalType": "address",
					"name": "account",
					"type": "address"
				}
			],
			"name": "grantRole",
			"outputs": [],
			"stateMutability": "nonpayable",
			"type": "function"
		},
		{
			"inputs": [
				{
					"internalType": "bytes32",
					"name": "role",
					"type": "bytes32"
				},
				{
					"internalType": "address",
					"name": "account",
					"type": "address"
				}
			],
			"name": "hasRole",
			"outputs": [
				{
					"internalType": "bool",
					"name": "",
					"type": "bool"
				}
			],
			"stateMutability": "view",
			"type": "function"
		},
		{
			"inputs": [],
			"name": "owner",
			"outputs": [
				{
					"internalType": "address",
					"name": "",
					"type": "address"
				}
			],
			"stateMutability": "view",
			"type": "function"
		},
		{
			"inputs": [
				{
					"internalType": "address",
					"name": "updater",
					"type": "address"
				}
			],
			"name": "removeAuthorizedUpdater",
			"outputs": [],
			"stateMutability": "nonpayable",
			"type": "function"
		},
		{
			"inputs": [],
			"name": "renounceOwnership",
			"outputs": [],
			"stateMutability": "nonpayable",
			"type": "function"
		},
		{
			"inputs": [
				{
					"internalType": "bytes32",
					"name": "role",
					"type": "bytes32"
				},
				{
					"internalType": "address",
					"name": "callerConfirmation",
					"type": "address"
				}
			],
			"name": "renounceRole",
			"outputs": [],
			"stateMutability": "nonpayable",
			"type": "function"
		},
		{
			"inputs": [
				{
					"internalType": "bytes32",
					"name": "role",
					"type": "bytes32"
				},
				{
					"internalType": "address",
					"name": "account",
					"type": "address"
				}
			],
			"name": "revokeRole",
			"outputs": [],
			"stateMutability": "nonpayable",
			"type": "function"
		},
		{
			"inputs": [
				{
					"internalType": "uint16",
					"name": "_days",
					"type": "uint16"
				}
			],
			"name": "setStaleThreshold",
			"outputs": [],
			"stateMutability": "nonpayable",
			"type": "function"
		},
		{
			"inputs": [
				{
					"internalType": "address",
					"name": "_authority",
					"type": "address"
				}
			],
			"name": "setStudyDAOAuthority",
			"outputs": [],
			"stateMutability": "nonpayable",
			"type": "function"
		},
		{
			"inputs": [
				{
					"internalType": "address",
					"name": "_tokenAuthorityPublicKey",
					"type": "address"
				}
			],
			"name": "setTokenAuthorityPublicKey",
			"outputs": [],
			"stateMutability": "nonpayable",
			"type": "function"
		},
		{
			"inputs": [],
			"name": "staleDaysThreshold",
			"outputs": [
				{
					"internalType": "uint16",
					"name": "",
					"type": "uint16"
				}
			],
			"stateMutability": "view",
			"type": "function"
		},
		{
			"inputs": [],
			"name": "studyDAOAuthority",
			"outputs": [
				{
					"internalType": "address",
					"name": "",
					"type": "address"
				}
			],
			"stateMutability": "view",
			"type": "function"
		},
		{
			"inputs": [
				{
					"internalType": "bytes4",
					"name": "interfaceId",
					"type": "bytes4"
				}
			],
			"name": "supportsInterface",
			"outputs": [
				{
					"internalType": "bool",
					"name": "",
					"type": "bool"
				}
			],
			"stateMutability": "view",
			"type": "function"
		},
		{
			"inputs": [],
			"name": "tokenAuthorityPublicKey",
			"outputs": [
				{
					"internalType": "address",
					"name": "",
					"type": "address"
				}
			],
			"stateMutability": "view",
			"type": "function"
		},
		{
			"inputs": [
				{
					"internalType": "address",
					"name": "newOwner",
					"type": "address"
				}
			],
			"name": "transferOwnership",
			"outputs": [],
			"stateMutability": "nonpayable",
			"type": "function"
		},
		{
			"inputs": [
				{
					"components": [
						{
							"internalType": "bytes",
							"name": "auth",
							"type": "bytes"
						},
						{
							"internalType": "bytes",
							"name": "kernelResponses",
							"type": "bytes"
						},
						{
							"internalType": "bytes",
							"name": "kernelParams",
							"type": "bytes"
						}
					],
					"internalType": "struct KrnlPayload",
					"name": "krnlPayload",
					"type": "tuple"
				},
				{
					"internalType": "address",
					"name": "user",
					"type": "address"
				},
				{
					"internalType": "uint8",
					"name": "metricType",
					"type": "uint8"
				},
				{
					"internalType": "uint8",
					"name": "value",
					"type": "uint8"
				}
			],
			"name": "updateSingleMetricProtected",
			"outputs": [],
			"stateMutability": "nonpayable",
			"type": "function"
		},
		{
			"inputs": [
				{
					"components": [
						{
							"internalType": "bytes",
							"name": "auth",
							"type": "bytes"
						},
						{
							"internalType": "bytes",
							"name": "kernelResponses",
							"type": "bytes"
						},
						{
							"internalType": "bytes",
							"name": "kernelParams",
							"type": "bytes"
						}
					],
					"internalType": "struct KrnlPayload",
					"name": "krnlPayload",
					"type": "tuple"
				},
				{
					"internalType": "address",
					"name": "user",
					"type": "address"
				},
				{
					"internalType": "uint8",
					"name": "participation",
					"type": "uint8"
				},
				{
					"internalType": "uint8",
					"name": "contribution",
					"type": "uint8"
				},
				{
					"internalType": "uint8",
					"name": "consistency",
					"type": "uint8"
				},
				{
					"internalType": "uint8",
					"name": "tokenUtilization",
					"type": "uint8"
				}
			],
			"name": "updateUserMetricsProtected",
			"outputs": [],
			"stateMutability": "nonpayable",
			"type": "function"
		}
	]
}