{
	"data": {
		"bytecode": {
			"linkReferences": {},
			"object": "6080604081815234620006255781620026b6803803809162000022828562000645565b83396020938491810103126200062557516001600160a01b0380821691829003620006255781156200060e575f548260018060a01b03198216175f55167f8be0079c531659141344cd1fd0a4f28419497f9722a3daafe3b4186f6b6457e05f80a36200008d62000685565b805180516001600160401b0394929185821162000374576001928354928484811c9416801562000603575b868510146200044d578592601f94858111620005ac575b50839085831160011462000549575f9190836200053d575b50505f19600383901b1c191690851b1784555b01518051908682116200037457600254908482811c9216801562000532575b868310146200044d578184849311620004de575b50859084831160011462000478575f926200046c575b50505f19600383901b1c191690831b176002555b6200016162000685565b94855180519682881162000374576003978854928684811c9416801562000461575b888510146200044d578386899511620003f6575b50839086831160011462000394575f91908362000388575b50505f19828b1b1c191690861b1788555b0151958651918211620003745760049283548581811c9116801562000369575b8782101462000356578181116200030e575b5085908311600114620002a6578293949596975f936200029a575b505082851b925f19911b1c19161790555b60ef5f52600882526007835f209260ff1993838582541617905573c770eac29244c1f88e14a61a6b99d184bfae93f55f5260068152845f2083858254161790557f876924e18dd46dd3cbcad570a87137bbd828a7d0f3cad309f78ad2c9402eeeb75f5252825f209182541617905551611d839081620009338239f35b015191505f806200020d565b90601f19831691845f52865f20925f5b818110620002f8575098848798999a97969710620002de575b50505050811b0190556200021e565b01519060f8845f19921b161c191690555f808080620002cf565b8a830151855593870193918801918801620002b6565b845f52865f208280860160051c8201928987106200034c575b0160051c019086905b82811062000340575050620001f2565b5f815501869062000330565b9250819262000327565b602285634e487b7160e01b5f525260245ffd5b90607f1690620001e0565b634e487b7160e01b5f52604160045260245ffd5b015190505f80620001af565b879291601f198316918c5f52865f20925f5b818110620003dd57508411620003c5575b505050811b018855620001c0565b01515f19838d1b60f8161c191690555f8080620003b7565b8383015185558c988c97909501949384019301620003a6565b9091929350895f52875f208680850160051c8201928a861062000443575b9189918b97969594930160051c01915b8281106200043457505062000197565b5f81558a965089910162000424565b9250819262000414565b634e487b7160e01b5f52602260045260245ffd5b93607f169362000183565b015190505f8062000143565b90859350601f1983169160025f52875f20925f5b89828210620004c75750508411620004ae575b505050811b0160025562000157565b01515f1960f88460031b161c191690555f80806200049f565b83850151865589979095019493840193016200048c565b90915060025f52855f208480850160051c82019288861062000528575b918791869594930160051c01915b828110620005195750506200012d565b5f815585945087910162000509565b92508192620004fb565b91607f169162000119565b015190505f80620000e7565b869291601f19831691845f52865f20925f5b81811062000593575084116200057a575b505050811b018455620000fa565b01515f1960f88460031b161c191690555f80806200056c565b8383015185558b988b979095019493840193016200055b565b9091929350855f52865f208580850160051c820192898610620005f9575b9188918a97969594930160051c01915b828110620005ea575050620000cf565b5f8155899650889101620005da565b92508192620005ca565b93607f1693620000b8565b8251631e4fbdf760e01b81525f6004820152602490fd5b5f80fd5b604081019081106001600160401b038211176200037457604052565b601f909101601f19168101906001600160401b038211908210176200037457604052565b6001600160401b0381116200037457601f01601f191660200190565b6040805190620006958262000629565b606080835260209283015280516001600160401b03929080820184811182821017620003745783525f81525f8084519283620006e186820192878452888084015260608301906200088a565b0393620006f7601f199586810183528262000645565b51907301000000000000000000000000000000000000015afa906200071b620008b1565b911562000823575f91829162000757865191826200074a88820195600487528a8084015260608301906200088a565b0390810183528262000645565b51907301000000000000000000000000000000000000055afa926200077b620008b1565b9315620007e05783518401838584830192031262000625578285015182811162000625578184620007af92880101620008e5565b94848101519283116200062557620007ca92018301620008e5565b915192620007d88462000629565b835282015290565b50606491519062461bcd60e51b82526004820152601b60248201527f67656e207369676e696e67206b6579706169723a206661696c656400000000006044820152fd5b835162461bcd60e51b815260048101849052601360248201527f72616e646f6d42797465733a206661696c6564000000000000000000000000006044820152606490fd5b5f5b838110620008795750505f910152565b818101518382015260200162000869565b90602091620008a58151809281855285808601910162000867565b601f01601f1916010190565b3d15620008e0573d90620008c58262000669565b91620008d5604051938462000645565b82523d5f602084013e565b606090565b81601f8201121562000625578051620008fe8162000669565b926200090e604051948562000645565b8184526020828401011162000625576200092f916020808501910162000867565b9056fe60806040526004361015610011575f80fd5b5f3560e01c8063097b8b3b14610104578063270e7c2f146100ff5780634c22e6a1146100fa5780634cf0d40a146100f557806353d6fd59146100f057806364d6c07d146100eb578063688b87e8146100e6578063715018a6146100e15780637355f88b146100dc5780637998efb8146100d75780638da5cb5b146100d2578063aa775b4a146100cd578063c7878ba1146100c8578063e498de5f146100c35763f2fde38b146100be575f80fd5b610970565b61091c565b6108bb565b61086a565b610843565b610802565b6106c1565b61066a565b610561565b61050f565b610474565b61042d565b610345565b6102ba565b6101e4565b9181601f84011215610136578235916001600160401b038311610136576020838186019501011161013657565b5f80fd5b602435906001600160a01b038216820361013657565b600435906001600160a01b038216820361013657565b5f5b8381106101775750505f910152565b8181015183820152602001610168565b906020916101a081518092818552858086019101610166565b601f01601f1916010190565b92916060926101c96101dc93979697608087526080870190610187565b9160208601528482036040860152610187565b931515910152565b346101365760c0366003190112610136576001600160401b0360048035828111610136576102159036908301610109565b9061021e61013a565b604435858111610136576102359036908601610109565b6064929192358781116101365761024f9036908801610109565b91608435898111610136576102679036908a01610109565b95909460a4359a8b116101365761028761028f9a61029f9c369101610109565b999098610dd0565b90604094929451948594856101ac565b0390f35b8015150361013657565b35906102b8826102a3565b565b34610136576040366003190112610136576103016024356102da816102a3565b6102e26119c1565b6004355f52600860205260405f209060ff801983541691151516179055565b005b602060031982011261013657600435906001600160401b0382116101365761032d91600401610109565b9091565b906020610342928181520190610187565b90565b346101365761035e61035636610303565b810190611011565b5f5b81518110156103fb578060ef6103786001938561116f565b515114610386575b01610360565b6103a6602080610396848761116f565b5101518051810182019101611188565b156103d6576103c260606103ba838661116f565b510160019052565b6103d160806103ba838661116f565b610380565b5f60606103e3838661116f565b5101525f60806103f3838661116f565b510152610380565b60405161029f90610421816104138660208301611197565b03601f198101835282610a5f565b60405191829182610331565b346101365760403660031901126101365761030160243561044d816102a3565b6104556119c1565b6004355f52600760205260405f209060ff801983541691151516179055565b3461013657604036600319011261013657610301610490610150565b6024359061049d826102a3565b6104a56119c1565b60018060a01b03165f52600660205260405f209060ff801983541691151516179055565b6040600319820112610136576001600160401b039160043583811161013657826104f591600401610109565b939093926024359182116101365761032d91600401610109565b346101365761053b610530610523366104c9565b9492909391810190610af9565b50505050509061154f565b156101365761029f9161054d916112d0565b604051918291602083526020830190610187565b34610136576020806003193601126101365760405181810190600435825282815261058b81610a0e565b51902060405190828201528181526105a281610a0e565b604051915f906004546105b481610b8d565b8086529060019081811690811561064c57506001146105f7575b61029f61042187876105e282890383610a5f565b604051916105ef83610a29565b5f835261169f565b60045f9081529293507f8a35acfbc15ff81a39ae7d344fd709f28e8600b4aa8c65c6b64bfe7fe36bd19b5b82841061063957505050830101816105e2846105ce565b8054878501860152928401928101610622565b60ff1916848801525050151560051b8401019050816105e2846105ce565b34610136575f366003190112610136576106826119c1565b5f80546001600160a01b0319811682556001600160a01b03167f8be0079c531659141344cd1fd0a4f28419497f9722a3daafe3b4186f6b6457e08280a3005b34610136576106f56106fe6106d5366104c9565b919490926106e16119c1565b604051956106ee87610a0e565b3691610aa8565b84523691610aa8565b60209160208101918252518051926001600160401b0384116107fd576001916107308561072b8554610b8d565b611352565b602091601f86116001146107785750938061076492610301965f9261076d575b50508160011b915f199060031b1c19161790565b90555b51611430565b015190505f80610750565b60015f529190601f1986167fb10e2d527612073b26eecdfd717e6a320cf44b4afac2b0732d9fcbe2b7fa0cf6935f905b8282106107e657505091849391876103019894106107ce575b505050811b019055610767565b01515f1960f88460031b161c191690555f80806107c1565b8087869782949787015181550196019401906107a8565b6109fa565b346101365761081036610303565b6108186119c1565b61083b602060405183819483830196873781015f83820152038084520182610a5f565b519020600555005b34610136575f366003190112610136575f546040516001600160a01b039091168152602090f35b346101365761087836610303565b906108816119c1565b600554916108a8602060405183819483830196873781015f83820152038084520182610a5f565b519020036101365761029f61054d610bc5565b34610136576040366003190112610136576004356001600160401b038111610136576105306108f16108f9923690600401610109565b810190610af9565b15610136576024355f526008602052602060ff60405f2054166040519015158152f35b34610136575f3660031901126101365761095c61093f61093a610c86565b6119ec565b610947610c86565b90604051928392604084526040840190610187565b6001600160a01b0390911660208301520390f35b3461013657602036600319011261013657610989610150565b6109916119c1565b6001600160a01b039081169081156109e2575f54826bffffffffffffffffffffffff60a01b8216175f55167f8be0079c531659141344cd1fd0a4f28419497f9722a3daafe3b4186f6b6457e05f80a3005b604051631e4fbdf760e01b81525f6004820152602490fd5b634e487b7160e01b5f52604160045260245ffd5b604081019081106001600160401b038211176107fd57604052565b602081019081106001600160401b038211176107fd57604052565b60e081019081106001600160401b038211176107fd57604052565b90601f801991011681019081106001600160401b038211176107fd57604052565b604051906102b882610a44565b6001600160401b0381116107fd57601f01601f191660200190565b929192610ab482610a8d565b91610ac26040519384610a5f565b829481845281830111610136578281602093845f960137010152565b9080601f830112156101365781602061034293359101610aa8565b9160e083830312610136578235926001600160401b039260208201358481116101365781610b28918401610ade565b9360408301359360608401358281116101365783610b47918601610ade565b9360808101359360a08201359360c0830135908111610136576103429201610ade565b826014949392823701906bffffffffffffffffffffffff199060601b1681520190565b90600182811c92168015610bbb575b6020831014610ba757565b634e487b7160e01b5f52602260045260245ffd5b91607f1691610b9c565b604051905f8260025491610bd883610b8d565b80835292602090600190818116908115610c625750600114610c03575b50506102b892500383610a5f565b91509260025f527f405787fa12a823e0f2b7631cc41b3ba8828b3321ca811111fa75cd3aa3bb5ace935f925b828410610c4a57506102b89450505081016020015f80610bf5565b85548885018301529485019487945092810192610c2f565b915050602092506102b894915060ff191682840152151560051b8201015f80610bf5565b604051905f82600191600154610c9b81610b8d565b8084529360209160018116908115610c625750600114610cc35750506102b892500383610a5f565b91509260015f527fb10e2d527612073b26eecdfd717e6a320cf44b4afac2b0732d9fcbe2b7fa0cf6935f925b828410610d0a57506102b89450505081016020015f80610bf5565b85548885018301529485019487945092810192610cef565b604051905f8260035491610d3583610b8d565b80835292602090600190818116908115610c625750600114610d5f5750506102b892500383610a5f565b91509260035f527fc2575a0e9e593c00f959f8c92f12db2869c3395a3b0502d05e2516446f71f85b935f925b828410610da657506102b89450505081016020015f80610bf5565b85548885018301529485019487945092810192610d8b565b60405190610dcb82610a29565b5f8252565b909a97929a999596989499610de5858d61150f565b15610136578101610df96105308284610af9565b1561013657610e0791610af9565b50509593505050506040998a5196876020978589830193610e289285610b6a565b0397601f19988981018252610e3d9082610a5f565b5190208b518781018281528190602001038981018252610e5d9082610a5f565b610e65610bc5565b90610e6e610dbe565b90610e789261169f565b610e80610c86565b91610e8a92611778565b805188820151918e0151909a925060ff168d518981019b8c5260208c019290925260f81b6001600160f81b03191660408b0152988990604101038881018a52610ed3908a610a5f565b3690610ede92610aa8565b858151910120988a5180918488830194610ef89286610b6a565b038781018252610f089082610a5f565b519020998a93610f179161198e565b8951858101998a5260208a019490945260609190911b6bffffffffffffffffffffffff19166040890152605488019190915280151560f81b607488015295908060758301038481018252610f6b9082610a5f565b51902086518281018281528190602001038481018252610f8b9082610a5f565b610f93610bc5565b90610f9c610dbe565b90610fa69261169f565b610fae610c86565b91610fb892611778565b8097915051908083890151980151610fd09060ff1690565b9051928301918252602082019790975260f89690961b6001600160f81b031916604087015294859060410103908101855261100b9085610a5f565b93929190565b60209081818403126101365780356001600160401b039182821161013657019083601f83011215610136578135938185116107fd578460051b90604080519661105c87850189610a5f565b875285808801938601019482861161013657868101935b86851061108557505050505050505090565b84358681116101365782019060e09081601f198488030112610136576110a9610a80565b8a84013581528584013589811161013657878c6110c892870101610ade565b8b820152606092838501358a811161013657888d6110e892880101610ade565b878301526080936110fa8587016102ad565b9083015260a09361110c8587016102ad565b9083015260c093848601358b811161013657898e61112c92890101610ade565b90830152840135928984116101365761114c888d80979681970101610ade565b90820152815201940193611073565b634e487b7160e01b5f52603260045260245ffd5b80518210156111835760209160051b010190565b61115b565b90816020910312610136575190565b6020808201908083528351809252604092604081018260408560051b8401019601945f925b8584106111cd575050505050505090565b909192939495968580611256600193603f198682030188528b5161124361121861120860e08451865287850151908089880152860190610187565b8a8401518582038c870152610187565b60608381015115159085015260808084015115159085015260a0808401519085830390860152610187565b9160c08092015191818403910152610187565b9901940194019295949391906111bc565b602081830312610136578051906001600160401b038211610136570181601f8201121561013657805161129981610a8d565b926112a76040519485610a5f565b81845260208284010111610136576103429160208085019101610166565b6040513d5f823e3d90fd5b604051634c22e6a160e01b8152602060048201526024810183905291808260448501375f604482850101525f83604481601f19601f8601168101030181305afa5f938161132e575b506113295761034292503691610aa8565b505090565b61134b9194503d805f833e6113438183610a5f565b810190611267565b925f611318565b90601f821161135f575050565b60019160015f527fb10e2d527612073b26eecdfd717e6a320cf44b4afac2b0732d9fcbe2b7fa0cf6906020601f840160051c830193106113b9575b601f0160051c01905b8181106113af57505050565b5f815582016113a3565b909150819061139a565b601f81116113cf575050565b60025f527f405787fa12a823e0f2b7631cc41b3ba8828b3321ca811111fa75cd3aa3bb5ace906020601f840160051c83019310611426575b601f0160051c01905b81811061141b575050565b5f8155600101611410565b9091508190611407565b9081516001600160401b0381116107fd5761145581611450600254610b8d565b6113c3565b602080601f831160011461148a5750819061148593945f9261076d5750508160011b915f199060031b1c19161790565b600255565b90601f198316946114bc60025f527f405787fa12a823e0f2b7631cc41b3ba8828b3321ca811111fa75cd3aa3bb5ace90565b925f905b8782106114f75750508360019596106114df575b505050811b01600255565b01515f1960f88460031b161c191690555f80806114d4565b806001859682949686015181550195019301906114c0565b61151b91810190611011565b5f5b8151811015611548576060611532828461116f565b510151156115425760010161151d565b50505f90565b5050600190565b5f806115c261160e959460409687918251611602602098828a80940191825283815261157a81610a0e565b519020928551938385015282845261159184610a0e565b6115f261159c610d22565b6115e26115cf8951926115ae84610a29565b8c845260a08b519b8c998a019d8e60049052565b89015260c0880190610187565b601f199788888303016060890152610187565b9086868303016080870152610187565b90848483030160a0850152610187565b03908101835282610a5f565b51906007600160981b015afa90611623611670565b911561163c576103429293508082518301019101611af9565b60649084519062461bcd60e51b82526004820152600e60248201526d1d995c9a599e4e8819985a5b195960921b6044820152fd5b3d1561169a573d9061168182610a8d565b9161168f6040519384610a5f565b82523d5f602084013e565b606090565b6116026116f95f949385946040519384916116e96116d660208501986116c58a60049052565b6080604087015260a0860190610187565b601f199586868303016060870152610187565b9084848303016080850152610187565b51906006600160981b015afa61170d611670565b90156117165790565b60405162461bcd60e51b815260206004820152600c60248201526b1cda59db8e8819985a5b195960a21b6044820152606490fd5b60405190606082018281106001600160401b038211176107fd576040525f6040838281528260208201520152565b61178e909391929361178861174a565b506119ec565b9261179761174a565b6008825110611956576001600160f81b031991600360fc1b836117ca6117bc84611b0e565b516001600160f81b03191690565b160361195657600160f91b80846117e36117bc85611b1b565b1603611956576118076118016117fb6117bc85611b2b565b60f81c90565b60ff1690565b9061181a6118016117fb6117bc86611b3b565b91602183116119565761182c83611b80565b906118486118016117fb6117bc61184286611b93565b89611b5b565b92602184116119565761186e6118616117bc8589611b5b565b6001600160f81b03191690565b0361195657806118866118818587611bbd565b611ba1565b0361195657611896855191611baf565b03611956576118a490611baf565b60049560218414611968575b6021831461191e575b50602090816102b89786010151940101519160208110611907575b50602081106118ef575b509082526020820152809385611c12565b6118fb61190091611bd8565b611bfa565b1c5f6118de565b6118fb61191691949294611bd8565b1c915f6118d4565b61192e6117bc8387999599611b5b565b16611956576102b895602061194c6119468294611b93565b92611bca565b93975050906118b9565b6040516386cd05c560e01b8152600490fd5b809396506119786117bc86611b4b565b1661195657611988600596611bca565b926118b0565b61199a91810190611011565b5f5b81518110156115485760806119b1828461116f565b510151156115425760010161199c565b5f546001600160a01b031633036119d457565b60405163118cdaa760e01b8152336004820152602490fd5b6021815103611ae757602181015190805115611183576020015160f81c600281141580611adc575b611aca575f806401000003d019604051602081019160208352602060408301526020606083015280600781808a80098a0908608083015263400000f4600160fe1b0360a083015260c0808301919091528152611a6f81610a44565b519060055afa91611a7e611670565b9215611ab857611aa3611a9d611a9661034295611d2b565b9384611bbd565b60011690565b15611cee5790611ab290611be6565b90611cee565b60405163102875ed60e01b8152600490fd5b60405163ab4be04160e01b8152600490fd5b506003811415611a14565b604051636446a2c560e11b8152600490fd5b908160209103126101365751610342816102a3565b8051156111835760200190565b8051600210156111835760220190565b8051600110156111835760210190565b8051600310156111835760230190565b8051600410156111835760240190565b908151811015611183570160200190565b634e487b7160e01b5f52601160045260245ffd5b6004019081600411611b8e57565b611b6c565b9060018201809211611b8e57565b9060048201809211611b8e57565b9060028201809211611b8e57565b91908201809211611b8e57565b5f19810191908211611b8e57565b6020039060208211611b8e57565b6401000003d01990810391908211611b8e57565b600381901b91906001600160fd1b03811603611b8e57565b916040810191601b835281519060205f81850193845190611c51604051928392878460609194939260808201958252601b602083015260408201520152565b838052039060015afa15611ce9575f516001600160a01b039586169516859003611c7d575b5050505050565b611caf5f93601c602096525192516040519384938460609194939260808201958252601c602083015260408201520152565b838052039060015afa15611ce9575f516001600160a01b031603611cd7575f80808080611c76565b604051634532600d60e01b8152600490fd5b6112c5565b6040519160208301918252604083015260408252606082018281106001600160401b038211176107fd57604052905190206001600160a01b031690565b602081519101519060208110611d3f575090565b5f199060200360031b1b169056fea2646970667358221220d18dc1c19914183b2faade10ec0de37536fb2e6f45200acd8be0d9bc8db611a164736f6c63430008180033",
			"opcodes": "PUSH1 0x80 PUSH1 0x40 DUP2 DUP2 MSTORE CALLVALUE PUSH3 0x625 JUMPI DUP2 PUSH3 0x26B6 DUP1 CODESIZE SUB DUP1 SWAP2 PUSH3 0x22 DUP3 DUP6 PUSH3 0x645 JUMP JUMPDEST DUP4 CODECOPY PUSH1 0x20 SWAP4 DUP5 SWAP2 DUP2 ADD SUB SLT PUSH3 0x625 JUMPI MLOAD PUSH1 0x1 PUSH1 0x1 PUSH1 0xA0 SHL SUB DUP1 DUP3 AND SWAP2 DUP3 SWAP1 SUB PUSH3 0x625 JUMPI DUP2 ISZERO PUSH3 0x60E JUMPI PUSH0 SLOAD DUP3 PUSH1 0x1 DUP1 PUSH1 0xA0 SHL SUB NOT DUP3 AND OR PUSH0 SSTORE AND PUSH32 0x8BE0079C531659141344CD1FD0A4F28419497F9722A3DAAFE3B4186F6B6457E0 PUSH0 DUP1 LOG3 PUSH3 0x8D PUSH3 0x685 JUMP JUMPDEST DUP1 MLOAD DUP1 MLOAD PUSH1 0x1 PUSH1 0x1 PUSH1 0x40 SHL SUB SWAP5 SWAP3 SWAP2 DUP6 DUP3 GT PUSH3 0x374 JUMPI PUSH1 0x1 SWAP3 DUP4 SLOAD SWAP3 DUP5 DUP5 DUP2 SHR SWAP5 AND DUP1 ISZERO PUSH3 0x603 JUMPI JUMPDEST DUP7 DUP6 LT EQ PUSH3 0x44D JUMPI DUP6 SWAP3 PUSH1 0x1F SWAP5 DUP6 DUP2 GT PUSH3 0x5AC JUMPI JUMPDEST POP DUP4 SWAP1 DUP6 DUP4 GT PUSH1 0x1 EQ PUSH3 0x549 JUMPI PUSH0 SWAP2 SWAP1 DUP4 PUSH3 0x53D JUMPI JUMPDEST POP POP PUSH0 NOT PUSH1 0x3 DUP4 SWAP1 SHL SHR NOT AND SWAP1 DUP6 SHL OR DUP5 SSTORE JUMPDEST ADD MLOAD DUP1 MLOAD SWAP1 DUP7 DUP3 GT PUSH3 0x374 JUMPI PUSH1 0x2 SLOAD SWAP1 DUP5 DUP3 DUP2 SHR SWAP3 AND DUP1 ISZERO PUSH3 0x532 JUMPI JUMPDEST DUP7 DUP4 LT EQ PUSH3 0x44D JUMPI DUP2 DUP5 DUP5 SWAP4 GT PUSH3 0x4DE JUMPI JUMPDEST POP DUP6 SWAP1 DUP5 DUP4 GT PUSH1 0x1 EQ PUSH3 0x478 JUMPI PUSH0 SWAP3 PUSH3 0x46C JUMPI JUMPDEST POP POP PUSH0 NOT PUSH1 0x3 DUP4 SWAP1 SHL SHR NOT AND SWAP1 DUP4 SHL OR PUSH1 0x2 SSTORE JUMPDEST PUSH3 0x161 PUSH3 0x685 JUMP JUMPDEST SWAP5 DUP6 MLOAD DUP1 MLOAD SWAP7 DUP3 DUP9 GT PUSH3 0x374 JUMPI PUSH1 0x3 SWAP8 DUP9 SLOAD SWAP3 DUP7 DUP5 DUP2 SHR SWAP5 AND DUP1 ISZERO PUSH3 0x461 JUMPI JUMPDEST DUP9 DUP6 LT EQ PUSH3 0x44D JUMPI DUP4 DUP7 DUP10 SWAP6 GT PUSH3 0x3F6 JUMPI JUMPDEST POP DUP4 SWAP1 DUP7 DUP4 GT PUSH1 0x1 EQ PUSH3 0x394 JUMPI PUSH0 SWAP2 SWAP1 DUP4 PUSH3 0x388 JUMPI JUMPDEST POP POP PUSH0 NOT DUP3 DUP12 SHL SHR NOT AND SWAP1 DUP7 SHL OR DUP9 SSTORE JUMPDEST ADD MLOAD SWAP6 DUP7 MLOAD SWAP2 DUP3 GT PUSH3 0x374 JUMPI PUSH1 0x4 SWAP3 DUP4 SLOAD DUP6 DUP2 DUP2 SHR SWAP2 AND DUP1 ISZERO PUSH3 0x369 JUMPI JUMPDEST DUP8 DUP3 LT EQ PUSH3 0x356 JUMPI DUP2 DUP2 GT PUSH3 0x30E JUMPI JUMPDEST POP DUP6 SWAP1 DUP4 GT PUSH1 0x1 EQ PUSH3 0x2A6 JUMPI DUP3 SWAP4 SWAP5 SWAP6 SWAP7 SWAP8 PUSH0 SWAP4 PUSH3 0x29A JUMPI JUMPDEST POP POP DUP3 DUP6 SHL SWAP3 PUSH0 NOT SWAP2 SHL SHR NOT AND OR SWAP1 SSTORE JUMPDEST PUSH1 0xEF PUSH0 MSTORE PUSH1 0x8 DUP3 MSTORE PUSH1 0x7 DUP4 PUSH0 KECCAK256 SWAP3 PUSH1 0xFF NOT SWAP4 DUP4 DUP6 DUP3 SLOAD AND OR SWAP1 SSTORE PUSH20 0xC770EAC29244C1F88E14A61A6B99D184BFAE93F5 PUSH0 MSTORE PUSH1 0x6 DUP2 MSTORE DUP5 PUSH0 KECCAK256 DUP4 DUP6 DUP3 SLOAD AND OR SWAP1 SSTORE PUSH32 0x876924E18DD46DD3CBCAD570A87137BBD828A7D0F3CAD309F78AD2C9402EEEB7 PUSH0 MSTORE MSTORE DUP3 PUSH0 KECCAK256 SWAP2 DUP3 SLOAD AND OR SWAP1 SSTORE MLOAD PUSH2 0x1D83 SWAP1 DUP2 PUSH3 0x933 DUP3 CODECOPY RETURN JUMPDEST ADD MLOAD SWAP2 POP PUSH0 DUP1 PUSH3 0x20D JUMP JUMPDEST SWAP1 PUSH1 0x1F NOT DUP4 AND SWAP2 DUP5 PUSH0 MSTORE DUP7 PUSH0 KECCAK256 SWAP3 PUSH0 JUMPDEST DUP2 DUP2 LT PUSH3 0x2F8 JUMPI POP SWAP9 DUP5 DUP8 SWAP9 SWAP10 SWAP11 SWAP8 SWAP7 SWAP8 LT PUSH3 0x2DE JUMPI JUMPDEST POP POP POP POP DUP2 SHL ADD SWAP1 SSTORE PUSH3 0x21E JUMP JUMPDEST ADD MLOAD SWAP1 PUSH1 0xF8 DUP5 PUSH0 NOT SWAP3 SHL AND SHR NOT AND SWAP1 SSTORE PUSH0 DUP1 DUP1 DUP1 PUSH3 0x2CF JUMP JUMPDEST DUP11 DUP4 ADD MLOAD DUP6 SSTORE SWAP4 DUP8 ADD SWAP4 SWAP2 DUP9 ADD SWAP2 DUP9 ADD PUSH3 0x2B6 JUMP JUMPDEST DUP5 PUSH0 MSTORE DUP7 PUSH0 KECCAK256 DUP3 DUP1 DUP7 ADD PUSH1 0x5 SHR DUP3 ADD SWAP3 DUP10 DUP8 LT PUSH3 0x34C JUMPI JUMPDEST ADD PUSH1 0x5 SHR ADD SWAP1 DUP7 SWAP1 JUMPDEST DUP3 DUP2 LT PUSH3 0x340 JUMPI POP POP PUSH3 0x1F2 JUMP JUMPDEST PUSH0 DUP2 SSTORE ADD DUP7 SWAP1 PUSH3 0x330 JUMP JUMPDEST SWAP3 POP DUP2 SWAP3 PUSH3 0x327 JUMP JUMPDEST PUSH1 0x22 DUP6 PUSH4 0x4E487B71 PUSH1 0xE0 SHL PUSH0 MSTORE MSTORE PUSH1 0x24 PUSH0 REVERT JUMPDEST SWAP1 PUSH1 0x7F AND SWAP1 PUSH3 0x1E0 JUMP JUMPDEST PUSH4 0x4E487B71 PUSH1 0xE0 SHL PUSH0 MSTORE PUSH1 0x41 PUSH1 0x4 MSTORE PUSH1 0x24 PUSH0 REVERT JUMPDEST ADD MLOAD SWAP1 POP PUSH0 DUP1 PUSH3 0x1AF JUMP JUMPDEST DUP8 SWAP3 SWAP2 PUSH1 0x1F NOT DUP4 AND SWAP2 DUP13 PUSH0 MSTORE DUP7 PUSH0 KECCAK256 SWAP3 PUSH0 JUMPDEST DUP2 DUP2 LT PUSH3 0x3DD JUMPI POP DUP5 GT PUSH3 0x3C5 JUMPI JUMPDEST POP POP POP DUP2 SHL ADD DUP9 SSTORE PUSH3 0x1C0 JUMP JUMPDEST ADD MLOAD PUSH0 NOT DUP4 DUP14 SHL PUSH1 0xF8 AND SHR NOT AND SWAP1 SSTORE PUSH0 DUP1 DUP1 PUSH3 0x3B7 JUMP JUMPDEST DUP4 DUP4 ADD MLOAD DUP6 SSTORE DUP13 SWAP9 DUP13 SWAP8 SWAP1 SWAP6 ADD SWAP5 SWAP4 DUP5 ADD SWAP4 ADD PUSH3 0x3A6 JUMP JUMPDEST SWAP1 SWAP2 SWAP3 SWAP4 POP DUP10 PUSH0 MSTORE DUP8 PUSH0 KECCAK256 DUP7 DUP1 DUP6 ADD PUSH1 0x5 SHR DUP3 ADD SWAP3 DUP11 DUP7 LT PUSH3 0x443 JUMPI JUMPDEST SWAP2 DUP10 SWAP2 DUP12 SWAP8 SWAP7 SWAP6 SWAP5 SWAP4 ADD PUSH1 0x5 SHR ADD SWAP2 JUMPDEST DUP3 DUP2 LT PUSH3 0x434 JUMPI POP POP PUSH3 0x197 JUMP JUMPDEST PUSH0 DUP2 SSTORE DUP11 SWAP7 POP DUP10 SWAP2 ADD PUSH3 0x424 JUMP JUMPDEST SWAP3 POP DUP2 SWAP3 PUSH3 0x414 JUMP JUMPDEST PUSH4 0x4E487B71 PUSH1 0xE0 SHL PUSH0 MSTORE PUSH1 0x22 PUSH1 0x4 MSTORE PUSH1 0x24 PUSH0 REVERT JUMPDEST SWAP4 PUSH1 0x7F AND SWAP4 PUSH3 0x183 JUMP JUMPDEST ADD MLOAD SWAP1 POP PUSH0 DUP1 PUSH3 0x143 JUMP JUMPDEST SWAP1 DUP6 SWAP4 POP PUSH1 0x1F NOT DUP4 AND SWAP2 PUSH1 0x2 PUSH0 MSTORE DUP8 PUSH0 KECCAK256 SWAP3 PUSH0 JUMPDEST DUP10 DUP3 DUP3 LT PUSH3 0x4C7 JUMPI POP POP DUP5 GT PUSH3 0x4AE JUMPI JUMPDEST POP POP POP DUP2 SHL ADD PUSH1 0x2 SSTORE PUSH3 0x157 JUMP JUMPDEST ADD MLOAD PUSH0 NOT PUSH1 0xF8 DUP5 PUSH1 0x3 SHL AND SHR NOT AND SWAP1 SSTORE PUSH0 DUP1 DUP1 PUSH3 0x49F JUMP JUMPDEST DUP4 DUP6 ADD MLOAD DUP7 SSTORE DUP10 SWAP8 SWAP1 SWAP6 ADD SWAP5 SWAP4 DUP5 ADD SWAP4 ADD PUSH3 0x48C JUMP JUMPDEST SWAP1 SWAP2 POP PUSH1 0x2 PUSH0 MSTORE DUP6 PUSH0 KECCAK256 DUP5 DUP1 DUP6 ADD PUSH1 0x5 SHR DUP3 ADD SWAP3 DUP9 DUP7 LT PUSH3 0x528 JUMPI JUMPDEST SWAP2 DUP8 SWAP2 DUP7 SWAP6 SWAP5 SWAP4 ADD PUSH1 0x5 SHR ADD SWAP2 JUMPDEST DUP3 DUP2 LT PUSH3 0x519 JUMPI POP POP PUSH3 0x12D JUMP JUMPDEST PUSH0 DUP2 SSTORE DUP6 SWAP5 POP DUP8 SWAP2 ADD PUSH3 0x509 JUMP JUMPDEST SWAP3 POP DUP2 SWAP3 PUSH3 0x4FB JUMP JUMPDEST SWAP2 PUSH1 0x7F AND SWAP2 PUSH3 0x119 JUMP JUMPDEST ADD MLOAD SWAP1 POP PUSH0 DUP1 PUSH3 0xE7 JUMP JUMPDEST DUP7 SWAP3 SWAP2 PUSH1 0x1F NOT DUP4 AND SWAP2 DUP5 PUSH0 MSTORE DUP7 PUSH0 KECCAK256 SWAP3 PUSH0 JUMPDEST DUP2 DUP2 LT PUSH3 0x593 JUMPI POP DUP5 GT PUSH3 0x57A JUMPI JUMPDEST POP POP POP DUP2 SHL ADD DUP5 SSTORE PUSH3 0xFA JUMP JUMPDEST ADD MLOAD PUSH0 NOT PUSH1 0xF8 DUP5 PUSH1 0x3 SHL AND SHR NOT AND SWAP1 SSTORE PUSH0 DUP1 DUP1 PUSH3 0x56C JUMP JUMPDEST DUP4 DUP4 ADD MLOAD DUP6 SSTORE DUP12 SWAP9 DUP12 SWAP8 SWAP1 SWAP6 ADD SWAP5 SWAP4 DUP5 ADD SWAP4 ADD PUSH3 0x55B JUMP JUMPDEST SWAP1 SWAP2 SWAP3 SWAP4 POP DUP6 PUSH0 MSTORE DUP7 PUSH0 KECCAK256 DUP6 DUP1 DUP6 ADD PUSH1 0x5 SHR DUP3 ADD SWAP3 DUP10 DUP7 LT PUSH3 0x5F9 JUMPI JUMPDEST SWAP2 DUP9 SWAP2 DUP11 SWAP8 SWAP7 SWAP6 SWAP5 SWAP4 ADD PUSH1 0x5 SHR ADD SWAP2 JUMPDEST DUP3 DUP2 LT PUSH3 0x5EA JUMPI POP POP PUSH3 0xCF JUMP JUMPDEST PUSH0 DUP2 SSTORE DUP10 SWAP7 POP DUP9 SWAP2 ADD PUSH3 0x5DA JUMP JUMPDEST SWAP3 POP DUP2 SWAP3 PUSH3 0x5CA JUMP JUMPDEST SWAP4 PUSH1 0x7F AND SWAP4 PUSH3 0xB8 JUMP JUMPDEST DUP3 MLOAD PUSH4 0x1E4FBDF7 PUSH1 0xE0 SHL DUP2 MSTORE PUSH0 PUSH1 0x4 DUP3 ADD MSTORE PUSH1 0x24 SWAP1 REVERT JUMPDEST PUSH0 DUP1 REVERT JUMPDEST PUSH1 0x40 DUP2 ADD SWAP1 DUP2 LT PUSH1 0x1 PUSH1 0x1 PUSH1 0x40 SHL SUB DUP3 GT OR PUSH3 0x374 JUMPI PUSH1 0x40 MSTORE JUMP JUMPDEST PUSH1 0x1F SWAP1 SWAP2 ADD PUSH1 0x1F NOT AND DUP2 ADD SWAP1 PUSH1 0x1 PUSH1 0x1 PUSH1 0x40 SHL SUB DUP3 GT SWAP1 DUP3 LT OR PUSH3 0x374 JUMPI PUSH1 0x40 MSTORE JUMP JUMPDEST PUSH1 0x1 PUSH1 0x1 PUSH1 0x40 SHL SUB DUP2 GT PUSH3 0x374 JUMPI PUSH1 0x1F ADD PUSH1 0x1F NOT AND PUSH1 0x20 ADD SWAP1 JUMP JUMPDEST PUSH1 0x40 DUP1 MLOAD SWAP1 PUSH3 0x695 DUP3 PUSH3 0x629 JUMP JUMPDEST PUSH1 0x60 DUP1 DUP4 MSTORE PUSH1 0x20 SWAP3 DUP4 ADD MSTORE DUP1 MLOAD PUSH1 0x1 PUSH1 0x1 PUSH1 0x40 SHL SUB SWAP3 SWAP1 DUP1 DUP3 ADD DUP5 DUP2 GT DUP3 DUP3 LT OR PUSH3 0x374 JUMPI DUP4 MSTORE PUSH0 DUP2 MSTORE PUSH0 DUP1 DUP5 MLOAD SWAP3 DUP4 PUSH3 0x6E1 DUP7 DUP3 ADD SWAP3 DUP8 DUP5 MSTORE DUP9 DUP1 DUP5 ADD MSTORE PUSH1 0x60 DUP4 ADD SWAP1 PUSH3 0x88A JUMP JUMPDEST SUB SWAP4 PUSH3 0x6F7 PUSH1 0x1F NOT SWAP6 DUP7 DUP2 ADD DUP4 MSTORE DUP3 PUSH3 0x645 JUMP JUMPDEST MLOAD SWAP1 PUSH20 0x100000000000000000000000000000000000001 GAS STATICCALL SWAP1 PUSH3 0x71B PUSH3 0x8B1 JUMP JUMPDEST SWAP2 ISZERO PUSH3 0x823 JUMPI PUSH0 SWAP2 DUP3 SWAP2 PUSH3 0x757 DUP7 MLOAD SWAP2 DUP3 PUSH3 0x74A DUP9 DUP3 ADD SWAP6 PUSH1 0x4 DUP8 MSTORE DUP11 DUP1 DUP5 ADD MSTORE PUSH1 0x60 DUP4 ADD SWAP1 PUSH3 0x88A JUMP JUMPDEST SUB SWAP1 DUP2 ADD DUP4 MSTORE DUP3 PUSH3 0x645 JUMP JUMPDEST MLOAD SWAP1 PUSH20 0x100000000000000000000000000000000000005 GAS STATICCALL SWAP3 PUSH3 0x77B PUSH3 0x8B1 JUMP JUMPDEST SWAP4 ISZERO PUSH3 0x7E0 JUMPI DUP4 MLOAD DUP5 ADD DUP4 DUP6 DUP5 DUP4 ADD SWAP3 SUB SLT PUSH3 0x625 JUMPI DUP3 DUP6 ADD MLOAD DUP3 DUP2 GT PUSH3 0x625 JUMPI DUP2 DUP5 PUSH3 0x7AF SWAP3 DUP9 ADD ADD PUSH3 0x8E5 JUMP JUMPDEST SWAP5 DUP5 DUP2 ADD MLOAD SWAP3 DUP4 GT PUSH3 0x625 JUMPI PUSH3 0x7CA SWAP3 ADD DUP4 ADD PUSH3 0x8E5 JUMP JUMPDEST SWAP2 MLOAD SWAP3 PUSH3 0x7D8 DUP5 PUSH3 0x629 JUMP JUMPDEST DUP4 MSTORE DUP3 ADD MSTORE SWAP1 JUMP JUMPDEST POP PUSH1 0x64 SWAP2 MLOAD SWAP1 PUSH3 0x461BCD PUSH1 0xE5 SHL DUP3 MSTORE PUSH1 0x4 DUP3 ADD MSTORE PUSH1 0x1B PUSH1 0x24 DUP3 ADD MSTORE PUSH32 0x67656E207369676E696E67206B6579706169723A206661696C65640000000000 PUSH1 0x44 DUP3 ADD MSTORE REVERT JUMPDEST DUP4 MLOAD PUSH3 0x461BCD PUSH1 0xE5 SHL DUP2 MSTORE PUSH1 0x4 DUP2 ADD DUP5 SWAP1 MSTORE PUSH1 0x13 PUSH1 0x24 DUP3 ADD MSTORE PUSH32 0x72616E646F6D42797465733A206661696C656400000000000000000000000000 PUSH1 0x44 DUP3 ADD MSTORE PUSH1 0x64 SWAP1 REVERT JUMPDEST PUSH0 JUMPDEST DUP4 DUP2 LT PUSH3 0x879 JUMPI POP POP PUSH0 SWAP2 ADD MSTORE JUMP JUMPDEST DUP2 DUP2 ADD MLOAD DUP4 DUP3 ADD MSTORE PUSH1 0x20 ADD PUSH3 0x869 JUMP JUMPDEST SWAP1 PUSH1 0x20 SWAP2 PUSH3 0x8A5 DUP2 MLOAD DUP1 SWAP3 DUP2 DUP6 MSTORE DUP6 DUP1 DUP7 ADD SWAP2 ADD PUSH3 0x867 JUMP JUMPDEST PUSH1 0x1F ADD PUSH1 0x1F NOT AND ADD ADD SWAP1 JUMP JUMPDEST RETURNDATASIZE ISZERO PUSH3 0x8E0 JUMPI RETURNDATASIZE SWAP1 PUSH3 0x8C5 DUP3 PUSH3 0x669 JUMP JUMPDEST SWAP2 PUSH3 0x8D5 PUSH1 0x40 MLOAD SWAP4 DUP5 PUSH3 0x645 JUMP JUMPDEST DUP3 MSTORE RETURNDATASIZE PUSH0 PUSH1 0x20 DUP5 ADD RETURNDATACOPY JUMP JUMPDEST PUSH1 0x60 SWAP1 JUMP JUMPDEST DUP2 PUSH1 0x1F DUP3 ADD SLT ISZERO PUSH3 0x625 JUMPI DUP1 MLOAD PUSH3 0x8FE DUP2 PUSH3 0x669 JUMP JUMPDEST SWAP3 PUSH3 0x90E PUSH1 0x40 MLOAD SWAP5 DUP6 PUSH3 0x645 JUMP JUMPDEST DUP2 DUP5 MSTORE PUSH1 0x20 DUP3 DUP5 ADD ADD GT PUSH3 0x625 JUMPI PUSH3 0x92F SWAP2 PUSH1 0x20 DUP1 DUP6 ADD SWAP2 ADD PUSH3 0x867 JUMP JUMPDEST SWAP1 JUMP INVALID PUSH1 0x80 PUSH1 0x40 MSTORE PUSH1 0x4 CALLDATASIZE LT ISZERO PUSH2 0x11 JUMPI PUSH0 DUP1 REVERT JUMPDEST PUSH0 CALLDATALOAD PUSH1 0xE0 SHR DUP1 PUSH4 0x97B8B3B EQ PUSH2 0x104 JUMPI DUP1 PUSH4 0x270E7C2F EQ PUSH2 0xFF JUMPI DUP1 PUSH4 0x4C22E6A1 EQ PUSH2 0xFA JUMPI DUP1 PUSH4 0x4CF0D40A EQ PUSH2 0xF5 JUMPI DUP1 PUSH4 0x53D6FD59 EQ PUSH2 0xF0 JUMPI DUP1 PUSH4 0x64D6C07D EQ PUSH2 0xEB JUMPI DUP1 PUSH4 0x688B87E8 EQ PUSH2 0xE6 JUMPI DUP1 PUSH4 0x715018A6 EQ PUSH2 0xE1 JUMPI DUP1 PUSH4 0x7355F88B EQ PUSH2 0xDC JUMPI DUP1 PUSH4 0x7998EFB8 EQ PUSH2 0xD7 JUMPI DUP1 PUSH4 0x8DA5CB5B EQ PUSH2 0xD2 JUMPI DUP1 PUSH4 0xAA775B4A EQ PUSH2 0xCD JUMPI DUP1 PUSH4 0xC7878BA1 EQ PUSH2 0xC8 JUMPI DUP1 PUSH4 0xE498DE5F EQ PUSH2 0xC3 JUMPI PUSH4 0xF2FDE38B EQ PUSH2 0xBE JUMPI PUSH0 DUP1 REVERT JUMPDEST PUSH2 0x970 JUMP JUMPDEST PUSH2 0x91C JUMP JUMPDEST PUSH2 0x8BB JUMP JUMPDEST PUSH2 0x86A JUMP JUMPDEST PUSH2 0x843 JUMP JUMPDEST PUSH2 0x802 JUMP JUMPDEST PUSH2 0x6C1 JUMP JUMPDEST PUSH2 0x66A JUMP JUMPDEST PUSH2 0x561 JUMP JUMPDEST PUSH2 0x50F JUMP JUMPDEST PUSH2 0x474 JUMP JUMPDEST PUSH2 0x42D JUMP JUMPDEST PUSH2 0x345 JUMP JUMPDEST PUSH2 0x2BA JUMP JUMPDEST PUSH2 0x1E4 JUMP JUMPDEST SWAP2 DUP2 PUSH1 0x1F DUP5 ADD SLT ISZERO PUSH2 0x136 JUMPI DUP3 CALLDATALOAD SWAP2 PUSH1 0x1 PUSH1 0x1 PUSH1 0x40 SHL SUB DUP4 GT PUSH2 0x136 JUMPI PUSH1 0x20 DUP4 DUP2 DUP7 ADD SWAP6 ADD ADD GT PUSH2 0x136 JUMPI JUMP JUMPDEST PUSH0 DUP1 REVERT JUMPDEST PUSH1 0x24 CALLDATALOAD SWAP1 PUSH1 0x1 PUSH1 0x1 PUSH1 0xA0 SHL SUB DUP3 AND DUP3 SUB PUSH2 0x136 JUMPI JUMP JUMPDEST PUSH1 0x4 CALLDATALOAD SWAP1 PUSH1 0x1 PUSH1 0x1 PUSH1 0xA0 SHL SUB DUP3 AND DUP3 SUB PUSH2 0x136 JUMPI JUMP JUMPDEST PUSH0 JUMPDEST DUP4 DUP2 LT PUSH2 0x177 JUMPI POP POP PUSH0 SWAP2 ADD MSTORE JUMP JUMPDEST DUP2 DUP2 ADD MLOAD DUP4 DUP3 ADD MSTORE PUSH1 0x20 ADD PUSH2 0x168 JUMP JUMPDEST SWAP1 PUSH1 0x20 SWAP2 PUSH2 0x1A0 DUP2 MLOAD DUP1 SWAP3 DUP2 DUP6 MSTORE DUP6 DUP1 DUP7 ADD SWAP2 ADD PUSH2 0x166 JUMP JUMPDEST PUSH1 0x1F ADD PUSH1 0x1F NOT AND ADD ADD SWAP1 JUMP JUMPDEST SWAP3 SWAP2 PUSH1 0x60 SWAP3 PUSH2 0x1C9 PUSH2 0x1DC SWAP4 SWAP8 SWAP7 SWAP8 PUSH1 0x80 DUP8 MSTORE PUSH1 0x80 DUP8 ADD SWAP1 PUSH2 0x187 JUMP JUMPDEST SWAP2 PUSH1 0x20 DUP7 ADD MSTORE DUP5 DUP3 SUB PUSH1 0x40 DUP7 ADD MSTORE PUSH2 0x187 JUMP JUMPDEST SWAP4 ISZERO ISZERO SWAP2 ADD MSTORE JUMP JUMPDEST CALLVALUE PUSH2 0x136 JUMPI PUSH1 0xC0 CALLDATASIZE PUSH1 0x3 NOT ADD SLT PUSH2 0x136 JUMPI PUSH1 0x1 PUSH1 0x1 PUSH1 0x40 SHL SUB PUSH1 0x4 DUP1 CALLDATALOAD DUP3 DUP2 GT PUSH2 0x136 JUMPI PUSH2 0x215 SWAP1 CALLDATASIZE SWAP1 DUP4 ADD PUSH2 0x109 JUMP JUMPDEST SWAP1 PUSH2 0x21E PUSH2 0x13A JUMP JUMPDEST PUSH1 0x44 CALLDATALOAD DUP6 DUP2 GT PUSH2 0x136 JUMPI PUSH2 0x235 SWAP1 CALLDATASIZE SWAP1 DUP7 ADD PUSH2 0x109 JUMP JUMPDEST PUSH1 0x64 SWAP3 SWAP2 SWAP3 CALLDATALOAD DUP8 DUP2 GT PUSH2 0x136 JUMPI PUSH2 0x24F SWAP1 CALLDATASIZE SWAP1 DUP9 ADD PUSH2 0x109 JUMP JUMPDEST SWAP2 PUSH1 0x84 CALLDATALOAD DUP10 DUP2 GT PUSH2 0x136 JUMPI PUSH2 0x267 SWAP1 CALLDATASIZE SWAP1 DUP11 ADD PUSH2 0x109 JUMP JUMPDEST SWAP6 SWAP1 SWAP5 PUSH1 0xA4 CALLDATALOAD SWAP11 DUP12 GT PUSH2 0x136 JUMPI PUSH2 0x287 PUSH2 0x28F SWAP11 PUSH2 0x29F SWAP13 CALLDATASIZE SWAP2 ADD PUSH2 0x109 JUMP JUMPDEST SWAP10 SWAP1 SWAP9 PUSH2 0xDD0 JUMP JUMPDEST SWAP1 PUSH1 0x40 SWAP5 SWAP3 SWAP5 MLOAD SWAP5 DUP6 SWAP5 DUP6 PUSH2 0x1AC JUMP JUMPDEST SUB SWAP1 RETURN JUMPDEST DUP1 ISZERO ISZERO SUB PUSH2 0x136 JUMPI JUMP JUMPDEST CALLDATALOAD SWAP1 PUSH2 0x2B8 DUP3 PUSH2 0x2A3 JUMP JUMPDEST JUMP JUMPDEST CALLVALUE PUSH2 0x136 JUMPI PUSH1 0x40 CALLDATASIZE PUSH1 0x3 NOT ADD SLT PUSH2 0x136 JUMPI PUSH2 0x301 PUSH1 0x24 CALLDATALOAD PUSH2 0x2DA DUP2 PUSH2 0x2A3 JUMP JUMPDEST PUSH2 0x2E2 PUSH2 0x19C1 JUMP JUMPDEST PUSH1 0x4 CALLDATALOAD PUSH0 MSTORE PUSH1 0x8 PUSH1 0x20 MSTORE PUSH1 0x40 PUSH0 KECCAK256 SWAP1 PUSH1 0xFF DUP1 NOT DUP4 SLOAD AND SWAP2 ISZERO ISZERO AND OR SWAP1 SSTORE JUMP JUMPDEST STOP JUMPDEST PUSH1 0x20 PUSH1 0x3 NOT DUP3 ADD SLT PUSH2 0x136 JUMPI PUSH1 0x4 CALLDATALOAD SWAP1 PUSH1 0x1 PUSH1 0x1 PUSH1 0x40 SHL SUB DUP3 GT PUSH2 0x136 JUMPI PUSH2 0x32D SWAP2 PUSH1 0x4 ADD PUSH2 0x109 JUMP JUMPDEST SWAP1 SWAP2 JUMP JUMPDEST SWAP1 PUSH1 0x20 PUSH2 0x342 SWAP3 DUP2 DUP2 MSTORE ADD SWAP1 PUSH2 0x187 JUMP JUMPDEST SWAP1 JUMP JUMPDEST CALLVALUE PUSH2 0x136 JUMPI PUSH2 0x35E PUSH2 0x356 CALLDATASIZE PUSH2 0x303 JUMP JUMPDEST DUP2 ADD SWAP1 PUSH2 0x1011 JUMP JUMPDEST PUSH0 JUMPDEST DUP2 MLOAD DUP2 LT ISZERO PUSH2 0x3FB JUMPI DUP1 PUSH1 0xEF PUSH2 0x378 PUSH1 0x1 SWAP4 DUP6 PUSH2 0x116F JUMP JUMPDEST MLOAD MLOAD EQ PUSH2 0x386 JUMPI JUMPDEST ADD PUSH2 0x360 JUMP JUMPDEST PUSH2 0x3A6 PUSH1 0x20 DUP1 PUSH2 0x396 DUP5 DUP8 PUSH2 0x116F JUMP JUMPDEST MLOAD ADD MLOAD DUP1 MLOAD DUP2 ADD DUP3 ADD SWAP2 ADD PUSH2 0x1188 JUMP JUMPDEST ISZERO PUSH2 0x3D6 JUMPI PUSH2 0x3C2 PUSH1 0x60 PUSH2 0x3BA DUP4 DUP7 PUSH2 0x116F JUMP JUMPDEST MLOAD ADD PUSH1 0x1 SWAP1 MSTORE JUMP JUMPDEST PUSH2 0x3D1 PUSH1 0x80 PUSH2 0x3BA DUP4 DUP7 PUSH2 0x116F JUMP JUMPDEST PUSH2 0x380 JUMP JUMPDEST PUSH0 PUSH1 0x60 PUSH2 0x3E3 DUP4 DUP7 PUSH2 0x116F JUMP JUMPDEST MLOAD ADD MSTORE PUSH0 PUSH1 0x80 PUSH2 0x3F3 DUP4 DUP7 PUSH2 0x116F JUMP JUMPDEST MLOAD ADD MSTORE PUSH2 0x380 JUMP JUMPDEST PUSH1 0x40 MLOAD PUSH2 0x29F SWAP1 PUSH2 0x421 DUP2 PUSH2 0x413 DUP7 PUSH1 0x20 DUP4 ADD PUSH2 0x1197 JUMP JUMPDEST SUB PUSH1 0x1F NOT DUP2 ADD DUP4 MSTORE DUP3 PUSH2 0xA5F JUMP JUMPDEST PUSH1 0x40 MLOAD SWAP2 DUP3 SWAP2 DUP3 PUSH2 0x331 JUMP JUMPDEST CALLVALUE PUSH2 0x136 JUMPI PUSH1 0x40 CALLDATASIZE PUSH1 0x3 NOT ADD SLT PUSH2 0x136 JUMPI PUSH2 0x301 PUSH1 0x24 CALLDATALOAD PUSH2 0x44D DUP2 PUSH2 0x2A3 JUMP JUMPDEST PUSH2 0x455 PUSH2 0x19C1 JUMP JUMPDEST PUSH1 0x4 CALLDATALOAD PUSH0 MSTORE PUSH1 0x7 PUSH1 0x20 MSTORE PUSH1 0x40 PUSH0 KECCAK256 SWAP1 PUSH1 0xFF DUP1 NOT DUP4 SLOAD AND SWAP2 ISZERO ISZERO AND OR SWAP1 SSTORE JUMP JUMPDEST CALLVALUE PUSH2 0x136 JUMPI PUSH1 0x40 CALLDATASIZE PUSH1 0x3 NOT ADD SLT PUSH2 0x136 JUMPI PUSH2 0x301 PUSH2 0x490 PUSH2 0x150 JUMP JUMPDEST PUSH1 0x24 CALLDATALOAD SWAP1 PUSH2 0x49D DUP3 PUSH2 0x2A3 JUMP JUMPDEST PUSH2 0x4A5 PUSH2 0x19C1 JUMP JUMPDEST PUSH1 0x1 DUP1 PUSH1 0xA0 SHL SUB AND PUSH0 MSTORE PUSH1 0x6 PUSH1 0x20 MSTORE PUSH1 0x40 PUSH0 KECCAK256 SWAP1 PUSH1 0xFF DUP1 NOT DUP4 SLOAD AND SWAP2 ISZERO ISZERO AND OR SWAP1 SSTORE JUMP JUMPDEST PUSH1 0x40 PUSH1 0x3 NOT DUP3 ADD SLT PUSH2 0x136 JUMPI PUSH1 0x1 PUSH1 0x1 PUSH1 0x40 SHL SUB SWAP2 PUSH1 0x4 CALLDATALOAD DUP4 DUP2 GT PUSH2 0x136 JUMPI DUP3 PUSH2 0x4F5 SWAP2 PUSH1 0x4 ADD PUSH2 0x109 JUMP JUMPDEST SWAP4 SWAP1 SWAP4 SWAP3 PUSH1 0x24 CALLDATALOAD SWAP2 DUP3 GT PUSH2 0x136 JUMPI PUSH2 0x32D SWAP2 PUSH1 0x4 ADD PUSH2 0x109 JUMP JUMPDEST CALLVALUE PUSH2 0x136 JUMPI PUSH2 0x53B PUSH2 0x530 PUSH2 0x523 CALLDATASIZE PUSH2 0x4C9 JUMP JUMPDEST SWAP5 SWAP3 SWAP1 SWAP4 SWAP2 DUP2 ADD SWAP1 PUSH2 0xAF9 JUMP JUMPDEST POP POP POP POP POP SWAP1 PUSH2 0x154F JUMP JUMPDEST ISZERO PUSH2 0x136 JUMPI PUSH2 0x29F SWAP2 PUSH2 0x54D SWAP2 PUSH2 0x12D0 JUMP JUMPDEST PUSH1 0x40 MLOAD SWAP2 DUP3 SWAP2 PUSH1 0x20 DUP4 MSTORE PUSH1 0x20 DUP4 ADD SWAP1 PUSH2 0x187 JUMP JUMPDEST CALLVALUE PUSH2 0x136 JUMPI PUSH1 0x20 DUP1 PUSH1 0x3 NOT CALLDATASIZE ADD SLT PUSH2 0x136 JUMPI PUSH1 0x40 MLOAD DUP2 DUP2 ADD SWAP1 PUSH1 0x4 CALLDATALOAD DUP3 MSTORE DUP3 DUP2 MSTORE PUSH2 0x58B DUP2 PUSH2 0xA0E JUMP JUMPDEST MLOAD SWAP1 KECCAK256 PUSH1 0x40 MLOAD SWAP1 DUP3 DUP3 ADD MSTORE DUP2 DUP2 MSTORE PUSH2 0x5A2 DUP2 PUSH2 0xA0E JUMP JUMPDEST PUSH1 0x40 MLOAD SWAP2 PUSH0 SWAP1 PUSH1 0x4 SLOAD PUSH2 0x5B4 DUP2 PUSH2 0xB8D JUMP JUMPDEST DUP1 DUP7 MSTORE SWAP1 PUSH1 0x1 SWAP1 DUP2 DUP2 AND SWAP1 DUP2 ISZERO PUSH2 0x64C JUMPI POP PUSH1 0x1 EQ PUSH2 0x5F7 JUMPI JUMPDEST PUSH2 0x29F PUSH2 0x421 DUP8 DUP8 PUSH2 0x5E2 DUP3 DUP10 SUB DUP4 PUSH2 0xA5F JUMP JUMPDEST PUSH1 0x40 MLOAD SWAP2 PUSH2 0x5EF DUP4 PUSH2 0xA29 JUMP JUMPDEST PUSH0 DUP4 MSTORE PUSH2 0x169F JUMP JUMPDEST PUSH1 0x4 PUSH0 SWAP1 DUP2 MSTORE SWAP3 SWAP4 POP PUSH32 0x8A35ACFBC15FF81A39AE7D344FD709F28E8600B4AA8C65C6B64BFE7FE36BD19B JUMPDEST DUP3 DUP5 LT PUSH2 0x639 JUMPI POP POP POP DUP4 ADD ADD DUP2 PUSH2 0x5E2 DUP5 PUSH2 0x5CE JUMP JUMPDEST DUP1 SLOAD DUP8 DUP6 ADD DUP7 ADD MSTORE SWAP3 DUP5 ADD SWAP3 DUP2 ADD PUSH2 0x622 JUMP JUMPDEST PUSH1 0xFF NOT AND DUP5 DUP9 ADD MSTORE POP POP ISZERO ISZERO PUSH1 0x5 SHL DUP5 ADD ADD SWAP1 POP DUP2 PUSH2 0x5E2 DUP5 PUSH2 0x5CE JUMP JUMPDEST CALLVALUE PUSH2 0x136 JUMPI PUSH0 CALLDATASIZE PUSH1 0x3 NOT ADD SLT PUSH2 0x136 JUMPI PUSH2 0x682 PUSH2 0x19C1 JUMP JUMPDEST PUSH0 DUP1 SLOAD PUSH1 0x1 PUSH1 0x1 PUSH1 0xA0 SHL SUB NOT DUP2 AND DUP3 SSTORE PUSH1 0x1 PUSH1 0x1 PUSH1 0xA0 SHL SUB AND PUSH32 0x8BE0079C531659141344CD1FD0A4F28419497F9722A3DAAFE3B4186F6B6457E0 DUP3 DUP1 LOG3 STOP JUMPDEST CALLVALUE PUSH2 0x136 JUMPI PUSH2 0x6F5 PUSH2 0x6FE PUSH2 0x6D5 CALLDATASIZE PUSH2 0x4C9 JUMP JUMPDEST SWAP2 SWAP5 SWAP1 SWAP3 PUSH2 0x6E1 PUSH2 0x19C1 JUMP JUMPDEST PUSH1 0x40 MLOAD SWAP6 PUSH2 0x6EE DUP8 PUSH2 0xA0E JUMP JUMPDEST CALLDATASIZE SWAP2 PUSH2 0xAA8 JUMP JUMPDEST DUP5 MSTORE CALLDATASIZE SWAP2 PUSH2 0xAA8 JUMP JUMPDEST PUSH1 0x20 SWAP2 PUSH1 0x20 DUP2 ADD SWAP2 DUP3 MSTORE MLOAD DUP1 MLOAD SWAP3 PUSH1 0x1 PUSH1 0x1 PUSH1 0x40 SHL SUB DUP5 GT PUSH2 0x7FD JUMPI PUSH1 0x1 SWAP2 PUSH2 0x730 DUP6 PUSH2 0x72B DUP6 SLOAD PUSH2 0xB8D JUMP JUMPDEST PUSH2 0x1352 JUMP JUMPDEST PUSH1 0x20 SWAP2 PUSH1 0x1F DUP7 GT PUSH1 0x1 EQ PUSH2 0x778 JUMPI POP SWAP4 DUP1 PUSH2 0x764 SWAP3 PUSH2 0x301 SWAP7 PUSH0 SWAP3 PUSH2 0x76D JUMPI JUMPDEST POP POP DUP2 PUSH1 0x1 SHL SWAP2 PUSH0 NOT SWAP1 PUSH1 0x3 SHL SHR NOT AND OR SWAP1 JUMP JUMPDEST SWAP1 SSTORE JUMPDEST MLOAD PUSH2 0x1430 JUMP JUMPDEST ADD MLOAD SWAP1 POP PUSH0 DUP1 PUSH2 0x750 JUMP JUMPDEST PUSH1 0x1 PUSH0 MSTORE SWAP2 SWAP1 PUSH1 0x1F NOT DUP7 AND PUSH32 0xB10E2D527612073B26EECDFD717E6A320CF44B4AFAC2B0732D9FCBE2B7FA0CF6 SWAP4 PUSH0 SWAP1 JUMPDEST DUP3 DUP3 LT PUSH2 0x7E6 JUMPI POP POP SWAP2 DUP5 SWAP4 SWAP2 DUP8 PUSH2 0x301 SWAP9 SWAP5 LT PUSH2 0x7CE JUMPI JUMPDEST POP POP POP DUP2 SHL ADD SWAP1 SSTORE PUSH2 0x767 JUMP JUMPDEST ADD MLOAD PUSH0 NOT PUSH1 0xF8 DUP5 PUSH1 0x3 SHL AND SHR NOT AND SWAP1 SSTORE PUSH0 DUP1 DUP1 PUSH2 0x7C1 JUMP JUMPDEST DUP1 DUP8 DUP7 SWAP8 DUP3 SWAP5 SWAP8 DUP8 ADD MLOAD DUP2 SSTORE ADD SWAP7 ADD SWAP5 ADD SWAP1 PUSH2 0x7A8 JUMP JUMPDEST PUSH2 0x9FA JUMP JUMPDEST CALLVALUE PUSH2 0x136 JUMPI PUSH2 0x810 CALLDATASIZE PUSH2 0x303 JUMP JUMPDEST PUSH2 0x818 PUSH2 0x19C1 JUMP JUMPDEST PUSH2 0x83B PUSH1 0x20 PUSH1 0x40 MLOAD DUP4 DUP2 SWAP5 DUP4 DUP4 ADD SWAP7 DUP8 CALLDATACOPY DUP2 ADD PUSH0 DUP4 DUP3 ADD MSTORE SUB DUP1 DUP5 MSTORE ADD DUP3 PUSH2 0xA5F JUMP JUMPDEST MLOAD SWAP1 KECCAK256 PUSH1 0x5 SSTORE STOP JUMPDEST CALLVALUE PUSH2 0x136 JUMPI PUSH0 CALLDATASIZE PUSH1 0x3 NOT ADD SLT PUSH2 0x136 JUMPI PUSH0 SLOAD PUSH1 0x40 MLOAD PUSH1 0x1 PUSH1 0x1 PUSH1 0xA0 SHL SUB SWAP1 SWAP2 AND DUP2 MSTORE PUSH1 0x20 SWAP1 RETURN JUMPDEST CALLVALUE PUSH2 0x136 JUMPI PUSH2 0x878 CALLDATASIZE PUSH2 0x303 JUMP JUMPDEST SWAP1 PUSH2 0x881 PUSH2 0x19C1 JUMP JUMPDEST PUSH1 0x5 SLOAD SWAP2 PUSH2 0x8A8 PUSH1 0x20 PUSH1 0x40 MLOAD DUP4 DUP2 SWAP5 DUP4 DUP4 ADD SWAP7 DUP8 CALLDATACOPY DUP2 ADD PUSH0 DUP4 DUP3 ADD MSTORE SUB DUP1 DUP5 MSTORE ADD DUP3 PUSH2 0xA5F JUMP JUMPDEST MLOAD SWAP1 KECCAK256 SUB PUSH2 0x136 JUMPI PUSH2 0x29F PUSH2 0x54D PUSH2 0xBC5 JUMP JUMPDEST CALLVALUE PUSH2 0x136 JUMPI PUSH1 0x40 CALLDATASIZE PUSH1 0x3 NOT ADD SLT PUSH2 0x136 JUMPI PUSH1 0x4 CALLDATALOAD PUSH1 0x1 PUSH1 0x1 PUSH1 0x40 SHL SUB DUP2 GT PUSH2 0x136 JUMPI PUSH2 0x530 PUSH2 0x8F1 PUSH2 0x8F9 SWAP3 CALLDATASIZE SWAP1 PUSH1 0x4 ADD PUSH2 0x109 JUMP JUMPDEST DUP2 ADD SWAP1 PUSH2 0xAF9 JUMP JUMPDEST ISZERO PUSH2 0x136 JUMPI PUSH1 0x24 CALLDATALOAD PUSH0 MSTORE PUSH1 0x8 PUSH1 0x20 MSTORE PUSH1 0x20 PUSH1 0xFF PUSH1 0x40 PUSH0 KECCAK256 SLOAD AND PUSH1 0x40 MLOAD SWAP1 ISZERO ISZERO DUP2 MSTORE RETURN JUMPDEST CALLVALUE PUSH2 0x136 JUMPI PUSH0 CALLDATASIZE PUSH1 0x3 NOT ADD SLT PUSH2 0x136 JUMPI PUSH2 0x95C PUSH2 0x93F PUSH2 0x93A PUSH2 0xC86 JUMP JUMPDEST PUSH2 0x19EC JUMP JUMPDEST PUSH2 0x947 PUSH2 0xC86 JUMP JUMPDEST SWAP1 PUSH1 0x40 MLOAD SWAP3 DUP4 SWAP3 PUSH1 0x40 DUP5 MSTORE PUSH1 0x40 DUP5 ADD SWAP1 PUSH2 0x187 JUMP JUMPDEST PUSH1 0x1 PUSH1 0x1 PUSH1 0xA0 SHL SUB SWAP1 SWAP2 AND PUSH1 0x20 DUP4 ADD MSTORE SUB SWAP1 RETURN JUMPDEST CALLVALUE PUSH2 0x136 JUMPI PUSH1 0x20 CALLDATASIZE PUSH1 0x3 NOT ADD SLT PUSH2 0x136 JUMPI PUSH2 0x989 PUSH2 0x150 JUMP JUMPDEST PUSH2 0x991 PUSH2 0x19C1 JUMP JUMPDEST PUSH1 0x1 PUSH1 0x1 PUSH1 0xA0 SHL SUB SWAP1 DUP2 AND SWAP1 DUP2 ISZERO PUSH2 0x9E2 JUMPI PUSH0 SLOAD DUP3 PUSH12 0xFFFFFFFFFFFFFFFFFFFFFFFF PUSH1 0xA0 SHL DUP3 AND OR PUSH0 SSTORE AND PUSH32 0x8BE0079C531659141344CD1FD0A4F28419497F9722A3DAAFE3B4186F6B6457E0 PUSH0 DUP1 LOG3 STOP JUMPDEST PUSH1 0x40 MLOAD PUSH4 0x1E4FBDF7 PUSH1 0xE0 SHL DUP2 MSTORE PUSH0 PUSH1 0x4 DUP3 ADD MSTORE PUSH1 0x24 SWAP1 REVERT JUMPDEST PUSH4 0x4E487B71 PUSH1 0xE0 SHL PUSH0 MSTORE PUSH1 0x41 PUSH1 0x4 MSTORE PUSH1 0x24 PUSH0 REVERT JUMPDEST PUSH1 0x40 DUP2 ADD SWAP1 DUP2 LT PUSH1 0x1 PUSH1 0x1 PUSH1 0x40 SHL SUB DUP3 GT OR PUSH2 0x7FD JUMPI PUSH1 0x40 MSTORE JUMP JUMPDEST PUSH1 0x20 DUP2 ADD SWAP1 DUP2 LT PUSH1 0x1 PUSH1 0x1 PUSH1 0x40 SHL SUB DUP3 GT OR PUSH2 0x7FD JUMPI PUSH1 0x40 MSTORE JUMP JUMPDEST PUSH1 0xE0 DUP2 ADD SWAP1 DUP2 LT PUSH1 0x1 PUSH1 0x1 PUSH1 0x40 SHL SUB DUP3 GT OR PUSH2 0x7FD JUMPI PUSH1 0x40 MSTORE JUMP JUMPDEST SWAP1 PUSH1 0x1F DUP1 NOT SWAP2 ADD AND DUP2 ADD SWAP1 DUP2 LT PUSH1 0x1 PUSH1 0x1 PUSH1 0x40 SHL SUB DUP3 GT OR PUSH2 0x7FD JUMPI PUSH1 0x40 MSTORE JUMP JUMPDEST PUSH1 0x40 MLOAD SWAP1 PUSH2 0x2B8 DUP3 PUSH2 0xA44 JUMP JUMPDEST PUSH1 0x1 PUSH1 0x1 PUSH1 0x40 SHL SUB DUP2 GT PUSH2 0x7FD JUMPI PUSH1 0x1F ADD PUSH1 0x1F NOT AND PUSH1 0x20 ADD SWAP1 JUMP JUMPDEST SWAP3 SWAP2 SWAP3 PUSH2 0xAB4 DUP3 PUSH2 0xA8D JUMP JUMPDEST SWAP2 PUSH2 0xAC2 PUSH1 0x40 MLOAD SWAP4 DUP5 PUSH2 0xA5F JUMP JUMPDEST DUP3 SWAP5 DUP2 DUP5 MSTORE DUP2 DUP4 ADD GT PUSH2 0x136 JUMPI DUP3 DUP2 PUSH1 0x20 SWAP4 DUP5 PUSH0 SWAP7 ADD CALLDATACOPY ADD ADD MSTORE JUMP JUMPDEST SWAP1 DUP1 PUSH1 0x1F DUP4 ADD SLT ISZERO PUSH2 0x136 JUMPI DUP2 PUSH1 0x20 PUSH2 0x342 SWAP4 CALLDATALOAD SWAP2 ADD PUSH2 0xAA8 JUMP JUMPDEST SWAP2 PUSH1 0xE0 DUP4 DUP4 SUB SLT PUSH2 0x136 JUMPI DUP3 CALLDATALOAD SWAP3 PUSH1 0x1 PUSH1 0x1 PUSH1 0x40 SHL SUB SWAP3 PUSH1 0x20 DUP3 ADD CALLDATALOAD DUP5 DUP2 GT PUSH2 0x136 JUMPI DUP2 PUSH2 0xB28 SWAP2 DUP5 ADD PUSH2 0xADE JUMP JUMPDEST SWAP4 PUSH1 0x40 DUP4 ADD CALLDATALOAD SWAP4 PUSH1 0x60 DUP5 ADD CALLDATALOAD DUP3 DUP2 GT PUSH2 0x136 JUMPI DUP4 PUSH2 0xB47 SWAP2 DUP7 ADD PUSH2 0xADE JUMP JUMPDEST SWAP4 PUSH1 0x80 DUP2 ADD CALLDATALOAD SWAP4 PUSH1 0xA0 DUP3 ADD CALLDATALOAD SWAP4 PUSH1 0xC0 DUP4 ADD CALLDATALOAD SWAP1 DUP2 GT PUSH2 0x136 JUMPI PUSH2 0x342 SWAP3 ADD PUSH2 0xADE JUMP JUMPDEST DUP3 PUSH1 0x14 SWAP5 SWAP4 SWAP3 DUP3 CALLDATACOPY ADD SWAP1 PUSH12 0xFFFFFFFFFFFFFFFFFFFFFFFF NOT SWAP1 PUSH1 0x60 SHL AND DUP2 MSTORE ADD SWAP1 JUMP JUMPDEST SWAP1 PUSH1 0x1 DUP3 DUP2 SHR SWAP3 AND DUP1 ISZERO PUSH2 0xBBB JUMPI JUMPDEST PUSH1 0x20 DUP4 LT EQ PUSH2 0xBA7 JUMPI JUMP JUMPDEST PUSH4 0x4E487B71 PUSH1 0xE0 SHL PUSH0 MSTORE PUSH1 0x22 PUSH1 0x4 MSTORE PUSH1 0x24 PUSH0 REVERT JUMPDEST SWAP2 PUSH1 0x7F AND SWAP2 PUSH2 0xB9C JUMP JUMPDEST PUSH1 0x40 MLOAD SWAP1 PUSH0 DUP3 PUSH1 0x2 SLOAD SWAP2 PUSH2 0xBD8 DUP4 PUSH2 0xB8D JUMP JUMPDEST DUP1 DUP4 MSTORE SWAP3 PUSH1 0x20 SWAP1 PUSH1 0x1 SWAP1 DUP2 DUP2 AND SWAP1 DUP2 ISZERO PUSH2 0xC62 JUMPI POP PUSH1 0x1 EQ PUSH2 0xC03 JUMPI JUMPDEST POP POP PUSH2 0x2B8 SWAP3 POP SUB DUP4 PUSH2 0xA5F JUMP JUMPDEST SWAP2 POP SWAP3 PUSH1 0x2 PUSH0 MSTORE PUSH32 0x405787FA12A823E0F2B7631CC41B3BA8828B3321CA811111FA75CD3AA3BB5ACE SWAP4 PUSH0 SWAP3 JUMPDEST DUP3 DUP5 LT PUSH2 0xC4A JUMPI POP PUSH2 0x2B8 SWAP5 POP POP POP DUP2 ADD PUSH1 0x20 ADD PUSH0 DUP1 PUSH2 0xBF5 JUMP JUMPDEST DUP6 SLOAD DUP9 DUP6 ADD DUP4 ADD MSTORE SWAP5 DUP6 ADD SWAP5 DUP8 SWAP5 POP SWAP3 DUP2 ADD SWAP3 PUSH2 0xC2F JUMP JUMPDEST SWAP2 POP POP PUSH1 0x20 SWAP3 POP PUSH2 0x2B8 SWAP5 SWAP2 POP PUSH1 0xFF NOT AND DUP3 DUP5 ADD MSTORE ISZERO ISZERO PUSH1 0x5 SHL DUP3 ADD ADD PUSH0 DUP1 PUSH2 0xBF5 JUMP JUMPDEST PUSH1 0x40 MLOAD SWAP1 PUSH0 DUP3 PUSH1 0x1 SWAP2 PUSH1 0x1 SLOAD PUSH2 0xC9B DUP2 PUSH2 0xB8D JUMP JUMPDEST DUP1 DUP5 MSTORE SWAP4 PUSH1 0x20 SWAP2 PUSH1 0x1 DUP2 AND SWAP1 DUP2 ISZERO PUSH2 0xC62 JUMPI POP PUSH1 0x1 EQ PUSH2 0xCC3 JUMPI POP POP PUSH2 0x2B8 SWAP3 POP SUB DUP4 PUSH2 0xA5F JUMP JUMPDEST SWAP2 POP SWAP3 PUSH1 0x1 PUSH0 MSTORE PUSH32 0xB10E2D527612073B26EECDFD717E6A320CF44B4AFAC2B0732D9FCBE2B7FA0CF6 SWAP4 PUSH0 SWAP3 JUMPDEST DUP3 DUP5 LT PUSH2 0xD0A JUMPI POP PUSH2 0x2B8 SWAP5 POP POP POP DUP2 ADD PUSH1 0x20 ADD PUSH0 DUP1 PUSH2 0xBF5 JUMP JUMPDEST DUP6 SLOAD DUP9 DUP6 ADD DUP4 ADD MSTORE SWAP5 DUP6 ADD SWAP5 DUP8 SWAP5 POP SWAP3 DUP2 ADD SWAP3 PUSH2 0xCEF JUMP JUMPDEST PUSH1 0x40 MLOAD SWAP1 PUSH0 DUP3 PUSH1 0x3 SLOAD SWAP2 PUSH2 0xD35 DUP4 PUSH2 0xB8D JUMP JUMPDEST DUP1 DUP4 MSTORE SWAP3 PUSH1 0x20 SWAP1 PUSH1 0x1 SWAP1 DUP2 DUP2 AND SWAP1 DUP2 ISZERO PUSH2 0xC62 JUMPI POP PUSH1 0x1 EQ PUSH2 0xD5F JUMPI POP POP PUSH2 0x2B8 SWAP3 POP SUB DUP4 PUSH2 0xA5F JUMP JUMPDEST SWAP2 POP SWAP3 PUSH1 0x3 PUSH0 MSTORE PUSH32 0xC2575A0E9E593C00F959F8C92F12DB2869C3395A3B0502D05E2516446F71F85B SWAP4 PUSH0 SWAP3 JUMPDEST DUP3 DUP5 LT PUSH2 0xDA6 JUMPI POP PUSH2 0x2B8 SWAP5 POP POP POP DUP2 ADD PUSH1 0x20 ADD PUSH0 DUP1 PUSH2 0xBF5 JUMP JUMPDEST DUP6 SLOAD DUP9 DUP6 ADD DUP4 ADD MSTORE SWAP5 DUP6 ADD SWAP5 DUP8 SWAP5 POP SWAP3 DUP2 ADD SWAP3 PUSH2 0xD8B JUMP JUMPDEST PUSH1 0x40 MLOAD SWAP1 PUSH2 0xDCB DUP3 PUSH2 0xA29 JUMP JUMPDEST PUSH0 DUP3 MSTORE JUMP JUMPDEST SWAP1 SWAP11 SWAP8 SWAP3 SWAP11 SWAP10 SWAP6 SWAP7 SWAP9 SWAP5 SWAP10 PUSH2 0xDE5 DUP6 DUP14 PUSH2 0x150F JUMP JUMPDEST ISZERO PUSH2 0x136 JUMPI DUP2 ADD PUSH2 0xDF9 PUSH2 0x530 DUP3 DUP5 PUSH2 0xAF9 JUMP JUMPDEST ISZERO PUSH2 0x136 JUMPI PUSH2 0xE07 SWAP2 PUSH2 0xAF9 JUMP JUMPDEST POP POP SWAP6 SWAP4 POP POP POP POP PUSH1 0x40 SWAP10 DUP11 MLOAD SWAP7 DUP8 PUSH1 0x20 SWAP8 DUP6 DUP10 DUP4 ADD SWAP4 PUSH2 0xE28 SWAP3 DUP6 PUSH2 0xB6A JUMP JUMPDEST SUB SWAP8 PUSH1 0x1F NOT SWAP9 DUP10 DUP2 ADD DUP3 MSTORE PUSH2 0xE3D SWAP1 DUP3 PUSH2 0xA5F JUMP JUMPDEST MLOAD SWAP1 KECCAK256 DUP12 MLOAD DUP8 DUP2 ADD DUP3 DUP2 MSTORE DUP2 SWAP1 PUSH1 0x20 ADD SUB DUP10 DUP2 ADD DUP3 MSTORE PUSH2 0xE5D SWAP1 DUP3 PUSH2 0xA5F JUMP JUMPDEST PUSH2 0xE65 PUSH2 0xBC5 JUMP JUMPDEST SWAP1 PUSH2 0xE6E PUSH2 0xDBE JUMP JUMPDEST SWAP1 PUSH2 0xE78 SWAP3 PUSH2 0x169F JUMP JUMPDEST PUSH2 0xE80 PUSH2 0xC86 JUMP JUMPDEST SWAP2 PUSH2 0xE8A SWAP3 PUSH2 0x1778 JUMP JUMPDEST DUP1 MLOAD DUP9 DUP3 ADD MLOAD SWAP2 DUP15 ADD MLOAD SWAP1 SWAP11 SWAP3 POP PUSH1 0xFF AND DUP14 MLOAD DUP10 DUP2 ADD SWAP12 DUP13 MSTORE PUSH1 0x20 DUP13 ADD SWAP3 SWAP1 SWAP3 MSTORE PUSH1 0xF8 SHL PUSH1 0x1 PUSH1 0x1 PUSH1 0xF8 SHL SUB NOT AND PUSH1 0x40 DUP12 ADD MSTORE SWAP9 DUP10 SWAP1 PUSH1 0x41 ADD SUB DUP9 DUP2 ADD DUP11 MSTORE PUSH2 0xED3 SWAP1 DUP11 PUSH2 0xA5F JUMP JUMPDEST CALLDATASIZE SWAP1 PUSH2 0xEDE SWAP3 PUSH2 0xAA8 JUMP JUMPDEST DUP6 DUP2 MLOAD SWAP2 ADD KECCAK256 SWAP9 DUP11 MLOAD DUP1 SWAP2 DUP5 DUP9 DUP4 ADD SWAP5 PUSH2 0xEF8 SWAP3 DUP7 PUSH2 0xB6A JUMP JUMPDEST SUB DUP8 DUP2 ADD DUP3 MSTORE PUSH2 0xF08 SWAP1 DUP3 PUSH2 0xA5F JUMP JUMPDEST MLOAD SWAP1 KECCAK256 SWAP10 DUP11 SWAP4 PUSH2 0xF17 SWAP2 PUSH2 0x198E JUMP JUMPDEST DUP10 MLOAD DUP6 DUP2 ADD SWAP10 DUP11 MSTORE PUSH1 0x20 DUP11 ADD SWAP5 SWAP1 SWAP5 MSTORE PUSH1 0x60 SWAP2 SWAP1 SWAP2 SHL PUSH12 0xFFFFFFFFFFFFFFFFFFFFFFFF NOT AND PUSH1 0x40 DUP10 ADD MSTORE PUSH1 0x54 DUP9 ADD SWAP2 SWAP1 SWAP2 MSTORE DUP1 ISZERO ISZERO PUSH1 0xF8 SHL PUSH1 0x74 DUP9 ADD MSTORE SWAP6 SWAP1 DUP1 PUSH1 0x75 DUP4 ADD SUB DUP5 DUP2 ADD DUP3 MSTORE PUSH2 0xF6B SWAP1 DUP3 PUSH2 0xA5F JUMP JUMPDEST MLOAD SWAP1 KECCAK256 DUP7 MLOAD DUP3 DUP2 ADD DUP3 DUP2 MSTORE DUP2 SWAP1 PUSH1 0x20 ADD SUB DUP5 DUP2 ADD DUP3 MSTORE PUSH2 0xF8B SWAP1 DUP3 PUSH2 0xA5F JUMP JUMPDEST PUSH2 0xF93 PUSH2 0xBC5 JUMP JUMPDEST SWAP1 PUSH2 0xF9C PUSH2 0xDBE JUMP JUMPDEST SWAP1 PUSH2 0xFA6 SWAP3 PUSH2 0x169F JUMP JUMPDEST PUSH2 0xFAE PUSH2 0xC86 JUMP JUMPDEST SWAP2 PUSH2 0xFB8 SWAP3 PUSH2 0x1778 JUMP JUMPDEST DUP1 SWAP8 SWAP2 POP MLOAD SWAP1 DUP1 DUP4 DUP10 ADD MLOAD SWAP9 ADD MLOAD PUSH2 0xFD0 SWAP1 PUSH1 0xFF AND SWAP1 JUMP JUMPDEST SWAP1 MLOAD SWAP3 DUP4 ADD SWAP2 DUP3 MSTORE PUSH1 0x20 DUP3 ADD SWAP8 SWAP1 SWAP8 MSTORE PUSH1 0xF8 SWAP7 SWAP1 SWAP7 SHL PUSH1 0x1 PUSH1 0x1 PUSH1 0xF8 SHL SUB NOT AND PUSH1 0x40 DUP8 ADD MSTORE SWAP5 DUP6 SWAP1 PUSH1 0x41 ADD SUB SWAP1 DUP2 ADD DUP6 MSTORE PUSH2 0x100B SWAP1 DUP6 PUSH2 0xA5F JUMP JUMPDEST SWAP4 SWAP3 SWAP2 SWAP1 JUMP JUMPDEST PUSH1 0x20 SWAP1 DUP2 DUP2 DUP5 SUB SLT PUSH2 0x136 JUMPI DUP1 CALLDATALOAD PUSH1 0x1 PUSH1 0x1 PUSH1 0x40 SHL SUB SWAP2 DUP3 DUP3 GT PUSH2 0x136 JUMPI ADD SWAP1 DUP4 PUSH1 0x1F DUP4 ADD SLT ISZERO PUSH2 0x136 JUMPI DUP2 CALLDATALOAD SWAP4 DUP2 DUP6 GT PUSH2 0x7FD JUMPI DUP5 PUSH1 0x5 SHL SWAP1 PUSH1 0x40 DUP1 MLOAD SWAP7 PUSH2 0x105C DUP8 DUP6 ADD DUP10 PUSH2 0xA5F JUMP JUMPDEST DUP8 MSTORE DUP6 DUP1 DUP9 ADD SWAP4 DUP7 ADD ADD SWAP5 DUP3 DUP7 GT PUSH2 0x136 JUMPI DUP7 DUP2 ADD SWAP4 JUMPDEST DUP7 DUP6 LT PUSH2 0x1085 JUMPI POP POP POP POP POP POP POP POP SWAP1 JUMP JUMPDEST DUP5 CALLDATALOAD DUP7 DUP2 GT PUSH2 0x136 JUMPI DUP3 ADD SWAP1 PUSH1 0xE0 SWAP1 DUP2 PUSH1 0x1F NOT DUP5 DUP9 SUB ADD SLT PUSH2 0x136 JUMPI PUSH2 0x10A9 PUSH2 0xA80 JUMP JUMPDEST DUP11 DUP5 ADD CALLDATALOAD DUP2 MSTORE DUP6 DUP5 ADD CALLDATALOAD DUP10 DUP2 GT PUSH2 0x136 JUMPI DUP8 DUP13 PUSH2 0x10C8 SWAP3 DUP8 ADD ADD PUSH2 0xADE JUMP JUMPDEST DUP12 DUP3 ADD MSTORE PUSH1 0x60 SWAP3 DUP4 DUP6 ADD CALLDATALOAD DUP11 DUP2 GT PUSH2 0x136 JUMPI DUP9 DUP14 PUSH2 0x10E8 SWAP3 DUP9 ADD ADD PUSH2 0xADE JUMP JUMPDEST DUP8 DUP4 ADD MSTORE PUSH1 0x80 SWAP4 PUSH2 0x10FA DUP6 DUP8 ADD PUSH2 0x2AD JUMP JUMPDEST SWAP1 DUP4 ADD MSTORE PUSH1 0xA0 SWAP4 PUSH2 0x110C DUP6 DUP8 ADD PUSH2 0x2AD JUMP JUMPDEST SWAP1 DUP4 ADD MSTORE PUSH1 0xC0 SWAP4 DUP5 DUP7 ADD CALLDATALOAD DUP12 DUP2 GT PUSH2 0x136 JUMPI DUP10 DUP15 PUSH2 0x112C SWAP3 DUP10 ADD ADD PUSH2 0xADE JUMP JUMPDEST SWAP1 DUP4 ADD MSTORE DUP5 ADD CALLDATALOAD SWAP3 DUP10 DUP5 GT PUSH2 0x136 JUMPI PUSH2 0x114C DUP9 DUP14 DUP1 SWAP8 SWAP7 DUP2 SWAP8 ADD ADD PUSH2 0xADE JUMP JUMPDEST SWAP1 DUP3 ADD MSTORE DUP2 MSTORE ADD SWAP5 ADD SWAP4 PUSH2 0x1073 JUMP JUMPDEST PUSH4 0x4E487B71 PUSH1 0xE0 SHL PUSH0 MSTORE PUSH1 0x32 PUSH1 0x4 MSTORE PUSH1 0x24 PUSH0 REVERT JUMPDEST DUP1 MLOAD DUP3 LT ISZERO PUSH2 0x1183 JUMPI PUSH1 0x20 SWAP2 PUSH1 0x5 SHL ADD ADD SWAP1 JUMP JUMPDEST PUSH2 0x115B JUMP JUMPDEST SWAP1 DUP2 PUSH1 0x20 SWAP2 SUB SLT PUSH2 0x136 JUMPI MLOAD SWAP1 JUMP JUMPDEST PUSH1 0x20 DUP1 DUP3 ADD SWAP1 DUP1 DUP4 MSTORE DUP4 MLOAD DUP1 SWAP3 MSTORE PUSH1 0x40 SWAP3 PUSH1 0x40 DUP2 ADD DUP3 PUSH1 0x40 DUP6 PUSH1 0x5 SHL DUP5 ADD ADD SWAP7 ADD SWAP5 PUSH0 SWAP3 JUMPDEST DUP6 DUP5 LT PUSH2 0x11CD JUMPI POP POP POP POP POP POP POP SWAP1 JUMP JUMPDEST SWAP1 SWAP2 SWAP3 SWAP4 SWAP5 SWAP6 SWAP7 DUP6 DUP1 PUSH2 0x1256 PUSH1 0x1 SWAP4 PUSH1 0x3F NOT DUP7 DUP3 SUB ADD DUP9 MSTORE DUP12 MLOAD PUSH2 0x1243 PUSH2 0x1218 PUSH2 0x1208 PUSH1 0xE0 DUP5 MLOAD DUP7 MSTORE DUP8 DUP6 ADD MLOAD SWAP1 DUP1 DUP10 DUP9 ADD MSTORE DUP7 ADD SWAP1 PUSH2 0x187 JUMP JUMPDEST DUP11 DUP5 ADD MLOAD DUP6 DUP3 SUB DUP13 DUP8 ADD MSTORE PUSH2 0x187 JUMP JUMPDEST PUSH1 0x60 DUP4 DUP2 ADD MLOAD ISZERO ISZERO SWAP1 DUP6 ADD MSTORE PUSH1 0x80 DUP1 DUP5 ADD MLOAD ISZERO ISZERO SWAP1 DUP6 ADD MSTORE PUSH1 0xA0 DUP1 DUP5 ADD MLOAD SWAP1 DUP6 DUP4 SUB SWAP1 DUP7 ADD MSTORE PUSH2 0x187 JUMP JUMPDEST SWAP2 PUSH1 0xC0 DUP1 SWAP3 ADD MLOAD SWAP2 DUP2 DUP5 SUB SWAP2 ADD MSTORE PUSH2 0x187 JUMP JUMPDEST SWAP10 ADD SWAP5 ADD SWAP5 ADD SWAP3 SWAP6 SWAP5 SWAP4 SWAP2 SWAP1 PUSH2 0x11BC JUMP JUMPDEST PUSH1 0x20 DUP2 DUP4 SUB SLT PUSH2 0x136 JUMPI DUP1 MLOAD SWAP1 PUSH1 0x1 PUSH1 0x1 PUSH1 0x40 SHL SUB DUP3 GT PUSH2 0x136 JUMPI ADD DUP2 PUSH1 0x1F DUP3 ADD SLT ISZERO PUSH2 0x136 JUMPI DUP1 MLOAD PUSH2 0x1299 DUP2 PUSH2 0xA8D JUMP JUMPDEST SWAP3 PUSH2 0x12A7 PUSH1 0x40 MLOAD SWAP5 DUP6 PUSH2 0xA5F JUMP JUMPDEST DUP2 DUP5 MSTORE PUSH1 0x20 DUP3 DUP5 ADD ADD GT PUSH2 0x136 JUMPI PUSH2 0x342 SWAP2 PUSH1 0x20 DUP1 DUP6 ADD SWAP2 ADD PUSH2 0x166 JUMP JUMPDEST PUSH1 0x40 MLOAD RETURNDATASIZE PUSH0 DUP3 RETURNDATACOPY RETURNDATASIZE SWAP1 REVERT JUMPDEST PUSH1 0x40 MLOAD PUSH4 0x4C22E6A1 PUSH1 0xE0 SHL DUP2 MSTORE PUSH1 0x20 PUSH1 0x4 DUP3 ADD MSTORE PUSH1 0x24 DUP2 ADD DUP4 SWAP1 MSTORE SWAP2 DUP1 DUP3 PUSH1 0x44 DUP6 ADD CALLDATACOPY PUSH0 PUSH1 0x44 DUP3 DUP6 ADD ADD MSTORE PUSH0 DUP4 PUSH1 0x44 DUP2 PUSH1 0x1F NOT PUSH1 0x1F DUP7 ADD AND DUP2 ADD SUB ADD DUP2 ADDRESS GAS STATICCALL PUSH0 SWAP4 DUP2 PUSH2 0x132E JUMPI JUMPDEST POP PUSH2 0x1329 JUMPI PUSH2 0x342 SWAP3 POP CALLDATASIZE SWAP2 PUSH2 0xAA8 JUMP JUMPDEST POP POP SWAP1 JUMP JUMPDEST PUSH2 0x134B SWAP2 SWAP5 POP RETURNDATASIZE DUP1 PUSH0 DUP4 RETURNDATACOPY PUSH2 0x1343 DUP2 DUP4 PUSH2 0xA5F JUMP JUMPDEST DUP2 ADD SWAP1 PUSH2 0x1267 JUMP JUMPDEST SWAP3 PUSH0 PUSH2 0x1318 JUMP JUMPDEST SWAP1 PUSH1 0x1F DUP3 GT PUSH2 0x135F JUMPI POP POP JUMP JUMPDEST PUSH1 0x1 SWAP2 PUSH1 0x1 PUSH0 MSTORE PUSH32 0xB10E2D527612073B26EECDFD717E6A320CF44B4AFAC2B0732D9FCBE2B7FA0CF6 SWAP1 PUSH1 0x20 PUSH1 0x1F DUP5 ADD PUSH1 0x5 SHR DUP4 ADD SWAP4 LT PUSH2 0x13B9 JUMPI JUMPDEST PUSH1 0x1F ADD PUSH1 0x5 SHR ADD SWAP1 JUMPDEST DUP2 DUP2 LT PUSH2 0x13AF JUMPI POP POP POP JUMP JUMPDEST PUSH0 DUP2 SSTORE DUP3 ADD PUSH2 0x13A3 JUMP JUMPDEST SWAP1 SWAP2 POP DUP2 SWAP1 PUSH2 0x139A JUMP JUMPDEST PUSH1 0x1F DUP2 GT PUSH2 0x13CF JUMPI POP POP JUMP JUMPDEST PUSH1 0x2 PUSH0 MSTORE PUSH32 0x405787FA12A823E0F2B7631CC41B3BA8828B3321CA811111FA75CD3AA3BB5ACE SWAP1 PUSH1 0x20 PUSH1 0x1F DUP5 ADD PUSH1 0x5 SHR DUP4 ADD SWAP4 LT PUSH2 0x1426 JUMPI JUMPDEST PUSH1 0x1F ADD PUSH1 0x5 SHR ADD SWAP1 JUMPDEST DUP2 DUP2 LT PUSH2 0x141B JUMPI POP POP JUMP JUMPDEST PUSH0 DUP2 SSTORE PUSH1 0x1 ADD PUSH2 0x1410 JUMP JUMPDEST SWAP1 SWAP2 POP DUP2 SWAP1 PUSH2 0x1407 JUMP JUMPDEST SWAP1 DUP2 MLOAD PUSH1 0x1 PUSH1 0x1 PUSH1 0x40 SHL SUB DUP2 GT PUSH2 0x7FD JUMPI PUSH2 0x1455 DUP2 PUSH2 0x1450 PUSH1 0x2 SLOAD PUSH2 0xB8D JUMP JUMPDEST PUSH2 0x13C3 JUMP JUMPDEST PUSH1 0x20 DUP1 PUSH1 0x1F DUP4 GT PUSH1 0x1 EQ PUSH2 0x148A JUMPI POP DUP2 SWAP1 PUSH2 0x1485 SWAP4 SWAP5 PUSH0 SWAP3 PUSH2 0x76D JUMPI POP POP DUP2 PUSH1 0x1 SHL SWAP2 PUSH0 NOT SWAP1 PUSH1 0x3 SHL SHR NOT AND OR SWAP1 JUMP JUMPDEST PUSH1 0x2 SSTORE JUMP JUMPDEST SWAP1 PUSH1 0x1F NOT DUP4 AND SWAP5 PUSH2 0x14BC PUSH1 0x2 PUSH0 MSTORE PUSH32 0x405787FA12A823E0F2B7631CC41B3BA8828B3321CA811111FA75CD3AA3BB5ACE SWAP1 JUMP JUMPDEST SWAP3 PUSH0 SWAP1 JUMPDEST DUP8 DUP3 LT PUSH2 0x14F7 JUMPI POP POP DUP4 PUSH1 0x1 SWAP6 SWAP7 LT PUSH2 0x14DF JUMPI JUMPDEST POP POP POP DUP2 SHL ADD PUSH1 0x2 SSTORE JUMP JUMPDEST ADD MLOAD PUSH0 NOT PUSH1 0xF8 DUP5 PUSH1 0x3 SHL AND SHR NOT AND SWAP1 SSTORE PUSH0 DUP1 DUP1 PUSH2 0x14D4 JUMP JUMPDEST DUP1 PUSH1 0x1 DUP6 SWAP7 DUP3 SWAP5 SWAP7 DUP7 ADD MLOAD DUP2 SSTORE ADD SWAP6 ADD SWAP4 ADD SWAP1 PUSH2 0x14C0 JUMP JUMPDEST PUSH2 0x151B SWAP2 DUP2 ADD SWAP1 PUSH2 0x1011 JUMP JUMPDEST PUSH0 JUMPDEST DUP2 MLOAD DUP2 LT ISZERO PUSH2 0x1548 JUMPI PUSH1 0x60 PUSH2 0x1532 DUP3 DUP5 PUSH2 0x116F JUMP JUMPDEST MLOAD ADD MLOAD ISZERO PUSH2 0x1542 JUMPI PUSH1 0x1 ADD PUSH2 0x151D JUMP JUMPDEST POP POP PUSH0 SWAP1 JUMP JUMPDEST POP POP PUSH1 0x1 SWAP1 JUMP JUMPDEST PUSH0 DUP1 PUSH2 0x15C2 PUSH2 0x160E SWAP6 SWAP5 PUSH1 0x40 SWAP7 DUP8 SWAP2 DUP3 MLOAD PUSH2 0x1602 PUSH1 0x20 SWAP9 DUP3 DUP11 DUP1 SWAP5 ADD SWAP2 DUP3 MSTORE DUP4 DUP2 MSTORE PUSH2 0x157A DUP2 PUSH2 0xA0E JUMP JUMPDEST MLOAD SWAP1 KECCAK256 SWAP3 DUP6 MLOAD SWAP4 DUP4 DUP6 ADD MSTORE DUP3 DUP5 MSTORE PUSH2 0x1591 DUP5 PUSH2 0xA0E JUMP JUMPDEST PUSH2 0x15F2 PUSH2 0x159C PUSH2 0xD22 JUMP JUMPDEST PUSH2 0x15E2 PUSH2 0x15CF DUP10 MLOAD SWAP3 PUSH2 0x15AE DUP5 PUSH2 0xA29 JUMP JUMPDEST DUP13 DUP5 MSTORE PUSH1 0xA0 DUP12 MLOAD SWAP12 DUP13 SWAP10 DUP11 ADD SWAP14 DUP15 PUSH1 0x4 SWAP1 MSTORE JUMP JUMPDEST DUP10 ADD MSTORE PUSH1 0xC0 DUP9 ADD SWAP1 PUSH2 0x187 JUMP JUMPDEST PUSH1 0x1F NOT SWAP8 DUP9 DUP9 DUP4 SUB ADD PUSH1 0x60 DUP10 ADD MSTORE PUSH2 0x187 JUMP JUMPDEST SWAP1 DUP7 DUP7 DUP4 SUB ADD PUSH1 0x80 DUP8 ADD MSTORE PUSH2 0x187 JUMP JUMPDEST SWAP1 DUP5 DUP5 DUP4 SUB ADD PUSH1 0xA0 DUP6 ADD MSTORE PUSH2 0x187 JUMP JUMPDEST SUB SWAP1 DUP2 ADD DUP4 MSTORE DUP3 PUSH2 0xA5F JUMP JUMPDEST MLOAD SWAP1 PUSH1 0x7 PUSH1 0x1 PUSH1 0x98 SHL ADD GAS STATICCALL SWAP1 PUSH2 0x1623 PUSH2 0x1670 JUMP JUMPDEST SWAP2 ISZERO PUSH2 0x163C JUMPI PUSH2 0x342 SWAP3 SWAP4 POP DUP1 DUP3 MLOAD DUP4 ADD ADD SWAP2 ADD PUSH2 0x1AF9 JUMP JUMPDEST PUSH1 0x64 SWAP1 DUP5 MLOAD SWAP1 PUSH3 0x461BCD PUSH1 0xE5 SHL DUP3 MSTORE PUSH1 0x4 DUP3 ADD MSTORE PUSH1 0xE PUSH1 0x24 DUP3 ADD MSTORE PUSH14 0x1D995C9A599E4E8819985A5B1959 PUSH1 0x92 SHL PUSH1 0x44 DUP3 ADD MSTORE REVERT JUMPDEST RETURNDATASIZE ISZERO PUSH2 0x169A JUMPI RETURNDATASIZE SWAP1 PUSH2 0x1681 DUP3 PUSH2 0xA8D JUMP JUMPDEST SWAP2 PUSH2 0x168F PUSH1 0x40 MLOAD SWAP4 DUP5 PUSH2 0xA5F JUMP JUMPDEST DUP3 MSTORE RETURNDATASIZE PUSH0 PUSH1 0x20 DUP5 ADD RETURNDATACOPY JUMP JUMPDEST PUSH1 0x60 SWAP1 JUMP JUMPDEST PUSH2 0x1602 PUSH2 0x16F9 PUSH0 SWAP5 SWAP4 DUP6 SWAP5 PUSH1 0x40 MLOAD SWAP4 DUP5 SWAP2 PUSH2 0x16E9 PUSH2 0x16D6 PUSH1 0x20 DUP6 ADD SWAP9 PUSH2 0x16C5 DUP11 PUSH1 0x4 SWAP1 MSTORE JUMP JUMPDEST PUSH1 0x80 PUSH1 0x40 DUP8 ADD MSTORE PUSH1 0xA0 DUP7 ADD SWAP1 PUSH2 0x187 JUMP JUMPDEST PUSH1 0x1F NOT SWAP6 DUP7 DUP7 DUP4 SUB ADD PUSH1 0x60 DUP8 ADD MSTORE PUSH2 0x187 JUMP JUMPDEST SWAP1 DUP5 DUP5 DUP4 SUB ADD PUSH1 0x80 DUP6 ADD MSTORE PUSH2 0x187 JUMP JUMPDEST MLOAD SWAP1 PUSH1 0x6 PUSH1 0x1 PUSH1 0x98 SHL ADD GAS STATICCALL PUSH2 0x170D PUSH2 0x1670 JUMP JUMPDEST SWAP1 ISZERO PUSH2 0x1716 JUMPI SWAP1 JUMP JUMPDEST PUSH1 0x40 MLOAD PUSH3 0x461BCD PUSH1 0xE5 SHL DUP2 MSTORE PUSH1 0x20 PUSH1 0x4 DUP3 ADD MSTORE PUSH1 0xC PUSH1 0x24 DUP3 ADD MSTORE PUSH12 0x1CDA59DB8E8819985A5B1959 PUSH1 0xA2 SHL PUSH1 0x44 DUP3 ADD MSTORE PUSH1 0x64 SWAP1 REVERT JUMPDEST PUSH1 0x40 MLOAD SWAP1 PUSH1 0x60 DUP3 ADD DUP3 DUP2 LT PUSH1 0x1 PUSH1 0x1 PUSH1 0x40 SHL SUB DUP3 GT OR PUSH2 0x7FD JUMPI PUSH1 0x40 MSTORE PUSH0 PUSH1 0x40 DUP4 DUP3 DUP2 MSTORE DUP3 PUSH1 0x20 DUP3 ADD MSTORE ADD MSTORE JUMP JUMPDEST PUSH2 0x178E SWAP1 SWAP4 SWAP2 SWAP3 SWAP4 PUSH2 0x1788 PUSH2 0x174A JUMP JUMPDEST POP PUSH2 0x19EC JUMP JUMPDEST SWAP3 PUSH2 0x1797 PUSH2 0x174A JUMP JUMPDEST PUSH1 0x8 DUP3 MLOAD LT PUSH2 0x1956 JUMPI PUSH1 0x1 PUSH1 0x1 PUSH1 0xF8 SHL SUB NOT SWAP2 PUSH1 0x3 PUSH1 0xFC SHL DUP4 PUSH2 0x17CA PUSH2 0x17BC DUP5 PUSH2 0x1B0E JUMP JUMPDEST MLOAD PUSH1 0x1 PUSH1 0x1 PUSH1 0xF8 SHL SUB NOT AND SWAP1 JUMP JUMPDEST AND SUB PUSH2 0x1956 JUMPI PUSH1 0x1 PUSH1 0xF9 SHL DUP1 DUP5 PUSH2 0x17E3 PUSH2 0x17BC DUP6 PUSH2 0x1B1B JUMP JUMPDEST AND SUB PUSH2 0x1956 JUMPI PUSH2 0x1807 PUSH2 0x1801 PUSH2 0x17FB PUSH2 0x17BC DUP6 PUSH2 0x1B2B JUMP JUMPDEST PUSH1 0xF8 SHR SWAP1 JUMP JUMPDEST PUSH1 0xFF AND SWAP1 JUMP JUMPDEST SWAP1 PUSH2 0x181A PUSH2 0x1801 PUSH2 0x17FB PUSH2 0x17BC DUP7 PUSH2 0x1B3B JUMP JUMPDEST SWAP2 PUSH1 0x21 DUP4 GT PUSH2 0x1956 JUMPI PUSH2 0x182C DUP4 PUSH2 0x1B80 JUMP JUMPDEST SWAP1 PUSH2 0x1848 PUSH2 0x1801 PUSH2 0x17FB PUSH2 0x17BC PUSH2 0x1842 DUP7 PUSH2 0x1B93 JUMP JUMPDEST DUP10 PUSH2 0x1B5B JUMP JUMPDEST SWAP3 PUSH1 0x21 DUP5 GT PUSH2 0x1956 JUMPI PUSH2 0x186E PUSH2 0x1861 PUSH2 0x17BC DUP6 DUP10 PUSH2 0x1B5B JUMP JUMPDEST PUSH1 0x1 PUSH1 0x1 PUSH1 0xF8 SHL SUB NOT AND SWAP1 JUMP JUMPDEST SUB PUSH2 0x1956 JUMPI DUP1 PUSH2 0x1886 PUSH2 0x1881 DUP6 DUP8 PUSH2 0x1BBD JUMP JUMPDEST PUSH2 0x1BA1 JUMP JUMPDEST SUB PUSH2 0x1956 JUMPI PUSH2 0x1896 DUP6 MLOAD SWAP2 PUSH2 0x1BAF JUMP JUMPDEST SUB PUSH2 0x1956 JUMPI PUSH2 0x18A4 SWAP1 PUSH2 0x1BAF JUMP JUMPDEST PUSH1 0x4 SWAP6 PUSH1 0x21 DUP5 EQ PUSH2 0x1968 JUMPI JUMPDEST PUSH1 0x21 DUP4 EQ PUSH2 0x191E JUMPI JUMPDEST POP PUSH1 0x20 SWAP1 DUP2 PUSH2 0x2B8 SWAP8 DUP7 ADD ADD MLOAD SWAP5 ADD ADD MLOAD SWAP2 PUSH1 0x20 DUP2 LT PUSH2 0x1907 JUMPI JUMPDEST POP PUSH1 0x20 DUP2 LT PUSH2 0x18EF JUMPI JUMPDEST POP SWAP1 DUP3 MSTORE PUSH1 0x20 DUP3 ADD MSTORE DUP1 SWAP4 DUP6 PUSH2 0x1C12 JUMP JUMPDEST PUSH2 0x18FB PUSH2 0x1900 SWAP2 PUSH2 0x1BD8 JUMP JUMPDEST PUSH2 0x1BFA JUMP JUMPDEST SHR PUSH0 PUSH2 0x18DE JUMP JUMPDEST PUSH2 0x18FB PUSH2 0x1916 SWAP2 SWAP5 SWAP3 SWAP5 PUSH2 0x1BD8 JUMP JUMPDEST SHR SWAP2 PUSH0 PUSH2 0x18D4 JUMP JUMPDEST PUSH2 0x192E PUSH2 0x17BC DUP4 DUP8 SWAP10 SWAP6 SWAP10 PUSH2 0x1B5B JUMP JUMPDEST AND PUSH2 0x1956 JUMPI PUSH2 0x2B8 SWAP6 PUSH1 0x20 PUSH2 0x194C PUSH2 0x1946 DUP3 SWAP5 PUSH2 0x1B93 JUMP JUMPDEST SWAP3 PUSH2 0x1BCA JUMP JUMPDEST SWAP4 SWAP8 POP POP SWAP1 PUSH2 0x18B9 JUMP JUMPDEST PUSH1 0x40 MLOAD PUSH4 0x86CD05C5 PUSH1 0xE0 SHL DUP2 MSTORE PUSH1 0x4 SWAP1 REVERT JUMPDEST DUP1 SWAP4 SWAP7 POP PUSH2 0x1978 PUSH2 0x17BC DUP7 PUSH2 0x1B4B JUMP JUMPDEST AND PUSH2 0x1956 JUMPI PUSH2 0x1988 PUSH1 0x5 SWAP7 PUSH2 0x1BCA JUMP JUMPDEST SWAP3 PUSH2 0x18B0 JUMP JUMPDEST PUSH2 0x199A SWAP2 DUP2 ADD SWAP1 PUSH2 0x1011 JUMP JUMPDEST PUSH0 JUMPDEST DUP2 MLOAD DUP2 LT ISZERO PUSH2 0x1548 JUMPI PUSH1 0x80 PUSH2 0x19B1 DUP3 DUP5 PUSH2 0x116F JUMP JUMPDEST MLOAD ADD MLOAD ISZERO PUSH2 0x1542 JUMPI PUSH1 0x1 ADD PUSH2 0x199C JUMP JUMPDEST PUSH0 SLOAD PUSH1 0x1 PUSH1 0x1 PUSH1 0xA0 SHL SUB AND CALLER SUB PUSH2 0x19D4 JUMPI JUMP JUMPDEST PUSH1 0x40 MLOAD PUSH4 0x118CDAA7 PUSH1 0xE0 SHL DUP2 MSTORE CALLER PUSH1 0x4 DUP3 ADD MSTORE PUSH1 0x24 SWAP1 REVERT JUMPDEST PUSH1 0x21 DUP2 MLOAD SUB PUSH2 0x1AE7 JUMPI PUSH1 0x21 DUP2 ADD MLOAD SWAP1 DUP1 MLOAD ISZERO PUSH2 0x1183 JUMPI PUSH1 0x20 ADD MLOAD PUSH1 0xF8 SHR PUSH1 0x2 DUP2 EQ ISZERO DUP1 PUSH2 0x1ADC JUMPI JUMPDEST PUSH2 0x1ACA JUMPI PUSH0 DUP1 PUSH5 0x1000003D0 NOT PUSH1 0x40 MLOAD PUSH1 0x20 DUP2 ADD SWAP2 PUSH1 0x20 DUP4 MSTORE PUSH1 0x20 PUSH1 0x40 DUP4 ADD MSTORE PUSH1 0x20 PUSH1 0x60 DUP4 ADD MSTORE DUP1 PUSH1 0x7 DUP2 DUP1 DUP11 DUP1 MULMOD DUP11 MULMOD ADDMOD PUSH1 0x80 DUP4 ADD MSTORE PUSH4 0x400000F4 PUSH1 0x1 PUSH1 0xFE SHL SUB PUSH1 0xA0 DUP4 ADD MSTORE PUSH1 0xC0 DUP1 DUP4 ADD SWAP2 SWAP1 SWAP2 MSTORE DUP2 MSTORE PUSH2 0x1A6F DUP2 PUSH2 0xA44 JUMP JUMPDEST MLOAD SWAP1 PUSH1 0x5 GAS STATICCALL SWAP2 PUSH2 0x1A7E PUSH2 0x1670 JUMP JUMPDEST SWAP3 ISZERO PUSH2 0x1AB8 JUMPI PUSH2 0x1AA3 PUSH2 0x1A9D PUSH2 0x1A96 PUSH2 0x342 SWAP6 PUSH2 0x1D2B JUMP JUMPDEST SWAP4 DUP5 PUSH2 0x1BBD JUMP JUMPDEST PUSH1 0x1 AND SWAP1 JUMP JUMPDEST ISZERO PUSH2 0x1CEE JUMPI SWAP1 PUSH2 0x1AB2 SWAP1 PUSH2 0x1BE6 JUMP JUMPDEST SWAP1 PUSH2 0x1CEE JUMP JUMPDEST PUSH1 0x40 MLOAD PUSH4 0x102875ED PUSH1 0xE0 SHL DUP2 MSTORE PUSH1 0x4 SWAP1 REVERT JUMPDEST PUSH1 0x40 MLOAD PUSH4 0xAB4BE041 PUSH1 0xE0 SHL DUP2 MSTORE PUSH1 0x4 SWAP1 REVERT JUMPDEST POP PUSH1 0x3 DUP2 EQ ISZERO PUSH2 0x1A14 JUMP JUMPDEST PUSH1 0x40 MLOAD PUSH4 0x6446A2C5 PUSH1 0xE1 SHL DUP2 MSTORE PUSH1 0x4 SWAP1 REVERT JUMPDEST SWAP1 DUP2 PUSH1 0x20 SWAP2 SUB SLT PUSH2 0x136 JUMPI MLOAD PUSH2 0x342 DUP2 PUSH2 0x2A3 JUMP JUMPDEST DUP1 MLOAD ISZERO PUSH2 0x1183 JUMPI PUSH1 0x20 ADD SWAP1 JUMP JUMPDEST DUP1 MLOAD PUSH1 0x2 LT ISZERO PUSH2 0x1183 JUMPI PUSH1 0x22 ADD SWAP1 JUMP JUMPDEST DUP1 MLOAD PUSH1 0x1 LT ISZERO PUSH2 0x1183 JUMPI PUSH1 0x21 ADD SWAP1 JUMP JUMPDEST DUP1 MLOAD PUSH1 0x3 LT ISZERO PUSH2 0x1183 JUMPI PUSH1 0x23 ADD SWAP1 JUMP JUMPDEST DUP1 MLOAD PUSH1 0x4 LT ISZERO PUSH2 0x1183 JUMPI PUSH1 0x24 ADD SWAP1 JUMP JUMPDEST SWAP1 DUP2 MLOAD DUP2 LT ISZERO PUSH2 0x1183 JUMPI ADD PUSH1 0x20 ADD SWAP1 JUMP JUMPDEST PUSH4 0x4E487B71 PUSH1 0xE0 SHL PUSH0 MSTORE PUSH1 0x11 PUSH1 0x4 MSTORE PUSH1 0x24 PUSH0 REVERT JUMPDEST PUSH1 0x4 ADD SWAP1 DUP2 PUSH1 0x4 GT PUSH2 0x1B8E JUMPI JUMP JUMPDEST PUSH2 0x1B6C JUMP JUMPDEST SWAP1 PUSH1 0x1 DUP3 ADD DUP1 SWAP3 GT PUSH2 0x1B8E JUMPI JUMP JUMPDEST SWAP1 PUSH1 0x4 DUP3 ADD DUP1 SWAP3 GT PUSH2 0x1B8E JUMPI JUMP JUMPDEST SWAP1 PUSH1 0x2 DUP3 ADD DUP1 SWAP3 GT PUSH2 0x1B8E JUMPI JUMP JUMPDEST SWAP2 SWAP1 DUP3 ADD DUP1 SWAP3 GT PUSH2 0x1B8E JUMPI JUMP JUMPDEST PUSH0 NOT DUP2 ADD SWAP2 SWAP1 DUP3 GT PUSH2 0x1B8E JUMPI JUMP JUMPDEST PUSH1 0x20 SUB SWAP1 PUSH1 0x20 DUP3 GT PUSH2 0x1B8E JUMPI JUMP JUMPDEST PUSH5 0x1000003D0 NOT SWAP1 DUP2 SUB SWAP2 SWAP1 DUP3 GT PUSH2 0x1B8E JUMPI JUMP JUMPDEST PUSH1 0x3 DUP2 SWAP1 SHL SWAP2 SWAP1 PUSH1 0x1 PUSH1 0x1 PUSH1 0xFD SHL SUB DUP2 AND SUB PUSH2 0x1B8E JUMPI JUMP JUMPDEST SWAP2 PUSH1 0x40 DUP2 ADD SWAP2 PUSH1 0x1B DUP4 MSTORE DUP2 MLOAD SWAP1 PUSH1 0x20 PUSH0 DUP2 DUP6 ADD SWAP4 DUP5 MLOAD SWAP1 PUSH2 0x1C51 PUSH1 0x40 MLOAD SWAP3 DUP4 SWAP3 DUP8 DUP5 PUSH1 0x60 SWAP2 SWAP5 SWAP4 SWAP3 PUSH1 0x80 DUP3 ADD SWAP6 DUP3 MSTORE PUSH1 0x1B PUSH1 0x20 DUP4 ADD MSTORE PUSH1 0x40 DUP3 ADD MSTORE ADD MSTORE JUMP JUMPDEST DUP4 DUP1 MSTORE SUB SWAP1 PUSH1 0x1 GAS STATICCALL ISZERO PUSH2 0x1CE9 JUMPI PUSH0 MLOAD PUSH1 0x1 PUSH1 0x1 PUSH1 0xA0 SHL SUB SWAP6 DUP7 AND SWAP6 AND DUP6 SWAP1 SUB PUSH2 0x1C7D JUMPI JUMPDEST POP POP POP POP POP JUMP JUMPDEST PUSH2 0x1CAF PUSH0 SWAP4 PUSH1 0x1C PUSH1 0x20 SWAP7 MSTORE MLOAD SWAP3 MLOAD PUSH1 0x40 MLOAD SWAP4 DUP5 SWAP4 DUP5 PUSH1 0x60 SWAP2 SWAP5 SWAP4 SWAP3 PUSH1 0x80 DUP3 ADD SWAP6 DUP3 MSTORE PUSH1 0x1C PUSH1 0x20 DUP4 ADD MSTORE PUSH1 0x40 DUP3 ADD MSTORE ADD MSTORE JUMP JUMPDEST DUP4 DUP1 MSTORE SUB SWAP1 PUSH1 0x1 GAS STATICCALL ISZERO PUSH2 0x1CE9 JUMPI PUSH0 MLOAD PUSH1 0x1 PUSH1 0x1 PUSH1 0xA0 SHL SUB AND SUB PUSH2 0x1CD7 JUMPI PUSH0 DUP1 DUP1 DUP1 DUP1 PUSH2 0x1C76 JUMP JUMPDEST PUSH1 0x40 MLOAD PUSH4 0x4532600D PUSH1 0xE0 SHL DUP2 MSTORE PUSH1 0x4 SWAP1 REVERT JUMPDEST PUSH2 0x12C5 JUMP JUMPDEST PUSH1 0x40 MLOAD SWAP2 PUSH1 0x20 DUP4 ADD SWAP2 DUP3 MSTORE PUSH1 0x40 DUP4 ADD MSTORE PUSH1 0x40 DUP3 MSTORE PUSH1 0x60 DUP3 ADD DUP3 DUP2 LT PUSH1 0x1 PUSH1 0x1 PUSH1 0x40 SHL SUB DUP3 GT OR PUSH2 0x7FD JUMPI PUSH1 0x40 MSTORE SWAP1 MLOAD SWAP1 KECCAK256 PUSH1 0x1 PUSH1 0x1 PUSH1 0xA0 SHL SUB AND SWAP1 JUMP JUMPDEST PUSH1 0x20 DUP2 MLOAD SWAP2 ADD MLOAD SWAP1 PUSH1 0x20 DUP2 LT PUSH2 0x1D3F JUMPI POP SWAP1 JUMP JUMPDEST PUSH0 NOT SWAP1 PUSH1 0x20 SUB PUSH1 0x3 SHL SHL AND SWAP1 JUMP INVALID LOG2 PUSH5 0x6970667358 0x22 SLT KECCAK256 0xD1 DUP14 0xC1 0xC1 SWAP10 EQ XOR EXTCODESIZE 0x2F 0xAA 0xDE LT 0xEC 0xD 0xE3 PUSH22 0x36FB2E6F45200ACD8BE0D9BC8DB611A164736F6C6343 STOP ADDMOD XOR STOP CALLER "
		},
		"gasEstimates": {
			"creation": {
				"codeDepositCost": "1511000",
				"executionCost": "infinite",
				"totalCost": "infinite"
			},
			"external": {
				"_validateExecution(bytes)": "infinite",
				"getOpinion(bytes,bytes)": "infinite",
				"getSigningKeypairPrivateKey(string)": "infinite",
				"getSigningKeypairPublicKey()": "infinite",
				"isKernelAllowed(bytes,uint256)": "infinite",
				"owner()": "2503",
				"registerdApp(bytes32)": "infinite",
				"renounceOwnership()": "28208",
				"setKernel(uint256,bool)": "26691",
				"setRuntimeDigest(bytes32,bool)": "26735",
				"setSigningKeypair(bytes,bytes)": "infinite",
				"setSigningKeypairRetrievalPassword(string)": "infinite",
				"setWhitelist(address,bool)": "26845",
				"sign(bytes,address,bytes,bytes,bytes,bytes)": "infinite",
				"transferOwnership(address)": "28456"
			},
			"internal": {
				"_generateKey()": "infinite",
				"_getFinalOpinion(bytes calldata)": "infinite",
				"_verifyAccessToken(bytes32,bytes memory)": "infinite",
				"_verifyExecutionPlan(bytes calldata)": "infinite",
				"_verifyRuntimeDigest(bytes32,bytes memory)": "infinite"
			}
		},
		"methodIdentifiers": {
			"_validateExecution(bytes)": "4c22e6a1",
			"getOpinion(bytes,bytes)": "64d6c07d",
			"getSigningKeypairPrivateKey(string)": "aa775b4a",
			"getSigningKeypairPublicKey()": "e498de5f",
			"isKernelAllowed(bytes,uint256)": "c7878ba1",
			"owner()": "8da5cb5b",
			"registerdApp(bytes32)": "688b87e8",
			"renounceOwnership()": "715018a6",
			"setKernel(uint256,bool)": "270e7c2f",
			"setRuntimeDigest(bytes32,bool)": "4cf0d40a",
			"setSigningKeypair(bytes,bytes)": "7355f88b",
			"setSigningKeypairRetrievalPassword(string)": "7998efb8",
			"setWhitelist(address,bool)": "53d6fd59",
			"sign(bytes,address,bytes,bytes,bytes,bytes)": "097b8b3b",
			"transferOwnership(address)": "f2fde38b"
		}
	},
	"abi": [
		{
			"inputs": [
				{
					"internalType": "address",
					"name": "initialOwner",
					"type": "address"
				}
			],
			"stateMutability": "nonpayable",
			"type": "constructor"
		},
		{
			"inputs": [],
			"name": "DER_Split_Error",
			"type": "error"
		},
		{
			"inputs": [
				{
					"internalType": "address",
					"name": "owner",
					"type": "address"
				}
			],
			"name": "OwnableInvalidOwner",
			"type": "error"
		},
		{
			"inputs": [
				{
					"internalType": "address",
					"name": "account",
					"type": "address"
				}
			],
			"name": "OwnableUnauthorizedAccount",
			"type": "error"
		},
		{
			"inputs": [],
			"name": "expmod_Error",
			"type": "error"
		},
		{
			"inputs": [],
			"name": "k256Decompress_Invalid_Length_Error",
			"type": "error"
		},
		{
			"inputs": [],
			"name": "k256DeriveY_Invalid_Prefix_Error",
			"type": "error"
		},
		{
			"inputs": [],
			"name": "recoverV_Error",
			"type": "error"
		},
		{
			"anonymous": false,
			"inputs": [
				{
					"indexed": true,
					"internalType": "address",
					"name": "previousOwner",
					"type": "address"
				},
				{
					"indexed": true,
					"internalType": "address",
					"name": "newOwner",
					"type": "address"
				}
			],
			"name": "OwnershipTransferred",
			"type": "event"
		},
		{
			"inputs": [
				{
					"internalType": "bytes",
					"name": "executionPlan",
					"type": "bytes"
				}
			],
			"name": "_validateExecution",
			"outputs": [
				{
					"internalType": "bytes",
					"name": "",
					"type": "bytes"
				}
			],
			"stateMutability": "view",
			"type": "function"
		},
		{
			"inputs": [
				{
					"internalType": "bytes",
					"name": "auth",
					"type": "bytes"
				},
				{
					"internalType": "bytes",
					"name": "executionPlan",
					"type": "bytes"
				}
			],
			"name": "getOpinion",
			"outputs": [
				{
					"internalType": "bytes",
					"name": "",
					"type": "bytes"
				}
			],
			"stateMutability": "view",
			"type": "function"
		},
		{
			"inputs": [
				{
					"internalType": "string",
					"name": "_password",
					"type": "string"
				}
			],
			"name": "getSigningKeypairPrivateKey",
			"outputs": [
				{
					"internalType": "bytes",
					"name": "",
					"type": "bytes"
				}
			],
			"stateMutability": "view",
			"type": "function"
		},
		{
			"inputs": [],
			"name": "getSigningKeypairPublicKey",
			"outputs": [
				{
					"internalType": "bytes",
					"name": "",
					"type": "bytes"
				},
				{
					"internalType": "address",
					"name": "",
					"type": "address"
				}
			],
			"stateMutability": "view",
			"type": "function"
		},
		{
			"inputs": [
				{
					"internalType": "bytes",
					"name": "auth",
					"type": "bytes"
				},
				{
					"internalType": "uint256",
					"name": "kernelId",
					"type": "uint256"
				}
			],
			"name": "isKernelAllowed",
			"outputs": [
				{
					"internalType": "bool",
					"name": "",
					"type": "bool"
				}
			],
			"stateMutability": "view",
			"type": "function"
		},
		{
			"inputs": [],
			"name": "owner",
			"outputs": [
				{
					"internalType": "address",
					"name": "",
					"type": "address"
				}
			],
			"stateMutability": "view",
			"type": "function"
		},
		{
			"inputs": [
				{
					"internalType": "bytes32",
					"name": "entryId",
					"type": "bytes32"
				}
			],
			"name": "registerdApp",
			"outputs": [
				{
					"internalType": "bytes",
					"name": "",
					"type": "bytes"
				}
			],
			"stateMutability": "view",
			"type": "function"
		},
		{
			"inputs": [],
			"name": "renounceOwnership",
			"outputs": [],
			"stateMutability": "nonpayable",
			"type": "function"
		},
		{
			"inputs": [
				{
					"internalType": "uint256",
					"name": "kernelId",
					"type": "uint256"
				},
				{
					"internalType": "bool",
					"name": "allowed",
					"type": "bool"
				}
			],
			"name": "setKernel",
			"outputs": [],
			"stateMutability": "nonpayable",
			"type": "function"
		},
		{
			"inputs": [
				{
					"internalType": "bytes32",
					"name": "runtimeDigest",
					"type": "bytes32"
				},
				{
					"internalType": "bool",
					"name": "allowed",
					"type": "bool"
				}
			],
			"name": "setRuntimeDigest",
			"outputs": [],
			"stateMutability": "nonpayable",
			"type": "function"
		},
		{
			"inputs": [
				{
					"internalType": "bytes",
					"name": "pubKey",
					"type": "bytes"
				},
				{
					"internalType": "bytes",
					"name": "privKey",
					"type": "bytes"
				}
			],
			"name": "setSigningKeypair",
			"outputs": [],
			"stateMutability": "nonpayable",
			"type": "function"
		},
		{
			"inputs": [
				{
					"internalType": "string",
					"name": "_password",
					"type": "string"
				}
			],
			"name": "setSigningKeypairRetrievalPassword",
			"outputs": [],
			"stateMutability": "nonpayable",
			"type": "function"
		},
		{
			"inputs": [
				{
					"internalType": "address",
					"name": "krnlNodePubKey",
					"type": "address"
				},
				{
					"internalType": "bool",
					"name": "allowed",
					"type": "bool"
				}
			],
			"name": "setWhitelist",
			"outputs": [],
			"stateMutability": "nonpayable",
			"type": "function"
		},
		{
			"inputs": [
				{
					"internalType": "bytes",
					"name": "auth",
					"type": "bytes"
				},
				{
					"internalType": "address",
					"name": "senderAddress",
					"type": "address"
				},
				{
					"internalType": "bytes",
					"name": "executionPlan",
					"type": "bytes"
				},
				{
					"internalType": "bytes",
					"name": "functionParams",
					"type": "bytes"
				},
				{
					"internalType": "bytes",
					"name": "kernelParams",
					"type": "bytes"
				},
				{
					"internalType": "bytes",
					"name": "kernelResponses",
					"type": "bytes"
				}
			],
			"name": "sign",
			"outputs": [
				{
					"internalType": "bytes",
					"name": "",
					"type": "bytes"
				},
				{
					"internalType": "bytes32",
					"name": "",
					"type": "bytes32"
				},
				{
					"internalType": "bytes",
					"name": "",
					"type": "bytes"
				},
				{
					"internalType": "bool",
					"name": "",
					"type": "bool"
				}
			],
			"stateMutability": "view",
			"type": "function"
		},
		{
			"inputs": [
				{
					"internalType": "address",
					"name": "newOwner",
					"type": "address"
				}
			],
			"name": "transferOwnership",
			"outputs": [],
			"stateMutability": "nonpayable",
			"type": "function"
		}
	]
}